{
  "_format": "hh-sol-artifact-1",
  "contractName": "FundersRing",
  "sourceName": "contracts/FundersRing.sol",
  "abi": [
    {
      "inputs": [
        {
          "internalType": "string",
          "name": "baseURI",
          "type": "string"
        }
      ],
      "stateMutability": "nonpayable",
      "type": "constructor"
    },
    {
      "inputs": [],
      "name": "Address0Error",
      "type": "error"
    },
    {
      "inputs": [],
      "name": "NoRingsAvailable",
      "type": "error"
    },
    {
      "anonymous": false,
      "inputs": [
        {
          "indexed": true,
          "internalType": "address",
          "name": "owner",
          "type": "address"
        },
        {
          "indexed": true,
          "internalType": "address",
          "name": "approved",
          "type": "address"
        },
        {
          "indexed": true,
          "internalType": "uint256",
          "name": "tokenId",
          "type": "uint256"
        }
      ],
      "name": "Approval",
      "type": "event"
    },
    {
      "anonymous": false,
      "inputs": [
        {
          "indexed": true,
          "internalType": "address",
          "name": "owner",
          "type": "address"
        },
        {
          "indexed": true,
          "internalType": "address",
          "name": "operator",
          "type": "address"
        },
        {
          "indexed": false,
          "internalType": "bool",
          "name": "approved",
          "type": "bool"
        }
      ],
      "name": "ApprovalForAll",
      "type": "event"
    },
    {
      "anonymous": false,
      "inputs": [
        {
          "indexed": false,
          "internalType": "address",
          "name": "to",
          "type": "address"
        },
        {
          "indexed": false,
          "internalType": "uint256",
          "name": "tokenId",
          "type": "uint256"
        },
        {
          "indexed": false,
          "internalType": "enum IFundersRing.FundersRingType",
          "name": "rtype",
          "type": "uint8"
        }
      ],
      "name": "FundersRingMinted",
      "type": "event"
    },
    {
      "anonymous": false,
      "inputs": [
        {
          "indexed": true,
          "internalType": "address",
          "name": "previousOwner",
          "type": "address"
        },
        {
          "indexed": true,
          "internalType": "address",
          "name": "newOwner",
          "type": "address"
        }
      ],
      "name": "OwnershipTransferred",
      "type": "event"
    },
    {
      "anonymous": false,
      "inputs": [
        {
          "indexed": true,
          "internalType": "address",
          "name": "from",
          "type": "address"
        },
        {
          "indexed": true,
          "internalType": "address",
          "name": "to",
          "type": "address"
        },
        {
          "indexed": true,
          "internalType": "uint256",
          "name": "tokenId",
          "type": "uint256"
        }
      ],
      "name": "Transfer",
      "type": "event"
    },
    {
      "inputs": [
        {
          "internalType": "address",
          "name": "to",
          "type": "address"
        },
        {
          "internalType": "uint256",
          "name": "tokenId",
          "type": "uint256"
        }
      ],
      "name": "approve",
      "outputs": [],
      "stateMutability": "nonpayable",
      "type": "function"
    },
    {
      "inputs": [
        {
          "internalType": "address",
          "name": "owner",
          "type": "address"
        }
      ],
      "name": "balanceOf",
      "outputs": [
        {
          "internalType": "uint256",
          "name": "",
          "type": "uint256"
        }
      ],
      "stateMutability": "view",
      "type": "function"
    },
    {
      "inputs": [],
      "name": "baseTokenURI",
      "outputs": [
        {
          "internalType": "string",
          "name": "",
          "type": "string"
        }
      ],
      "stateMutability": "view",
      "type": "function"
    },
    {
      "inputs": [
        {
          "internalType": "uint256",
          "name": "tokenId",
          "type": "uint256"
        }
      ],
      "name": "exists",
      "outputs": [
        {
          "internalType": "bool",
          "name": "",
          "type": "bool"
        }
      ],
      "stateMutability": "view",
      "type": "function"
    },
    {
      "inputs": [
        {
          "internalType": "contract IERC20",
          "name": "token",
          "type": "address"
        },
        {
          "internalType": "uint256",
          "name": "amount",
          "type": "uint256"
        }
      ],
      "name": "forwardERC20s",
      "outputs": [],
      "stateMutability": "nonpayable",
      "type": "function"
    },
    {
      "inputs": [
        {
          "internalType": "uint256",
          "name": "tokenId",
          "type": "uint256"
        }
      ],
      "name": "getApproved",
      "outputs": [
        {
          "internalType": "address",
          "name": "",
          "type": "address"
        }
      ],
      "stateMutability": "view",
      "type": "function"
    },
    {
      "inputs": [
        {
          "internalType": "address",
          "name": "owner",
          "type": "address"
        },
        {
          "internalType": "address",
          "name": "operator",
          "type": "address"
        }
      ],
      "name": "isApprovedForAll",
      "outputs": [
        {
          "internalType": "bool",
          "name": "",
          "type": "bool"
        }
      ],
      "stateMutability": "view",
      "type": "function"
    },
    {
      "inputs": [
        {
          "internalType": "address",
          "name": "recipient",
          "type": "address"
        },
        {
          "internalType": "uint256",
          "name": "tokenId",
          "type": "uint256"
        },
        {
          "internalType": "enum IFundersRing.FundersRingType",
          "name": "rtype",
          "type": "uint8"
        }
      ],
      "name": "mintTokenId",
      "outputs": [],
      "stateMutability": "nonpayable",
      "type": "function"
    },
    {
      "inputs": [],
      "name": "minterAddress",
      "outputs": [
        {
          "internalType": "address",
          "name": "",
          "type": "address"
        }
      ],
      "stateMutability": "view",
      "type": "function"
    },
    {
      "inputs": [],
      "name": "name",
      "outputs": [
        {
          "internalType": "string",
          "name": "",
          "type": "string"
        }
      ],
      "stateMutability": "view",
      "type": "function"
    },
    {
      "inputs": [],
      "name": "numMinted",
      "outputs": [
        {
          "internalType": "uint256",
          "name": "",
          "type": "uint256"
        }
      ],
      "stateMutability": "view",
      "type": "function"
    },
    {
      "inputs": [],
      "name": "owner",
      "outputs": [
        {
          "internalType": "address",
          "name": "",
          "type": "address"
        }
      ],
      "stateMutability": "view",
      "type": "function"
    },
    {
      "inputs": [
        {
          "internalType": "uint256",
          "name": "tokenId",
          "type": "uint256"
        }
      ],
      "name": "ownerOf",
      "outputs": [
        {
          "internalType": "address",
          "name": "",
          "type": "address"
        }
      ],
      "stateMutability": "view",
      "type": "function"
    },
    {
      "inputs": [],
      "name": "renounceOwnership",
      "outputs": [],
      "stateMutability": "nonpayable",
      "type": "function"
    },
    {
      "inputs": [
        {
          "internalType": "address",
          "name": "from",
          "type": "address"
        },
        {
          "internalType": "address",
          "name": "to",
          "type": "address"
        },
        {
          "internalType": "uint256",
          "name": "tokenId",
          "type": "uint256"
        }
      ],
      "name": "safeTransferFrom",
      "outputs": [],
      "stateMutability": "nonpayable",
      "type": "function"
    },
    {
      "inputs": [
        {
          "internalType": "address",
          "name": "from",
          "type": "address"
        },
        {
          "internalType": "address",
          "name": "to",
          "type": "address"
        },
        {
          "internalType": "uint256",
          "name": "tokenId",
          "type": "uint256"
        },
        {
          "internalType": "bytes",
          "name": "data",
          "type": "bytes"
        }
      ],
      "name": "safeTransferFrom",
      "outputs": [],
      "stateMutability": "nonpayable",
      "type": "function"
    },
    {
      "inputs": [
        {
          "internalType": "address",
          "name": "operator",
          "type": "address"
        },
        {
          "internalType": "bool",
          "name": "approved",
          "type": "bool"
        }
      ],
      "name": "setApprovalForAll",
      "outputs": [],
      "stateMutability": "nonpayable",
      "type": "function"
    },
    {
      "inputs": [
        {
          "internalType": "string",
          "name": "newBaseURI",
          "type": "string"
        }
      ],
      "name": "setBaseURI",
      "outputs": [],
      "stateMutability": "nonpayable",
      "type": "function"
    },
    {
      "inputs": [
        {
          "internalType": "address",
          "name": "market",
          "type": "address"
        },
        {
          "internalType": "bool",
          "name": "denied",
          "type": "bool"
        }
      ],
      "name": "setDeniedMarketplace",
      "outputs": [],
      "stateMutability": "nonpayable",
      "type": "function"
    },
    {
      "inputs": [
        {
          "internalType": "address",
          "name": "newMinter",
          "type": "address"
        }
      ],
      "name": "setMinter",
      "outputs": [],
      "stateMutability": "nonpayable",
      "type": "function"
    },
    {
      "inputs": [
        {
          "internalType": "bytes4",
          "name": "interfaceId",
          "type": "bytes4"
        }
      ],
      "name": "supportsInterface",
      "outputs": [
        {
          "internalType": "bool",
          "name": "",
          "type": "bool"
        }
      ],
      "stateMutability": "view",
      "type": "function"
    },
    {
      "inputs": [],
      "name": "symbol",
      "outputs": [
        {
          "internalType": "string",
          "name": "",
          "type": "string"
        }
      ],
      "stateMutability": "view",
      "type": "function"
    },
    {
      "inputs": [
        {
          "internalType": "uint256",
          "name": "tokenId",
          "type": "uint256"
        }
      ],
      "name": "tokenURI",
      "outputs": [
        {
          "internalType": "string",
          "name": "",
          "type": "string"
        }
      ],
      "stateMutability": "view",
      "type": "function"
    },
    {
      "inputs": [],
      "name": "totalSupply",
      "outputs": [
        {
          "internalType": "uint256",
          "name": "",
          "type": "uint256"
        }
      ],
      "stateMutability": "view",
      "type": "function"
    },
    {
      "inputs": [
        {
          "internalType": "address",
          "name": "from",
          "type": "address"
        },
        {
          "internalType": "address",
          "name": "to",
          "type": "address"
        },
        {
          "internalType": "uint256",
          "name": "tokenId",
          "type": "uint256"
        }
      ],
      "name": "transferFrom",
      "outputs": [],
      "stateMutability": "nonpayable",
      "type": "function"
    },
    {
      "inputs": [
        {
          "internalType": "address",
          "name": "newOwner",
          "type": "address"
        }
      ],
      "name": "transferOwnership",
      "outputs": [],
      "stateMutability": "nonpayable",
      "type": "function"
    },
    {
      "inputs": [],
      "name": "withdrawAll",
      "outputs": [],
      "stateMutability": "payable",
      "type": "function"
    }
  ],
  "bytecode": "0x60806040523480156200001157600080fd5b50604051620043303803806200433083398181016040528101906200003791906200036b565b6040518060400160405280600b81526020017f46756e6465727352696e670000000000000000000000000000000000000000008152506040518060400160405280600281526020017f46520000000000000000000000000000000000000000000000000000000000008152508160009081620000b4919062000607565b508060019081620000c6919062000607565b505050620000e9620000dd6200010a60201b60201c565b6200011260201b60201c565b600160078190555080600a908162000102919062000607565b5050620006ee565b600033905090565b6000600660009054906101000a900473ffffffffffffffffffffffffffffffffffffffff16905081600660006101000a81548173ffffffffffffffffffffffffffffffffffffffff021916908373ffffffffffffffffffffffffffffffffffffffff1602179055508173ffffffffffffffffffffffffffffffffffffffff168173ffffffffffffffffffffffffffffffffffffffff167f8be0079c531659141344cd1fd0a4f28419497f9722a3daafe3b4186f6b6457e060405160405180910390a35050565b6000604051905090565b600080fd5b600080fd5b600080fd5b600080fd5b6000601f19601f8301169050919050565b7f4e487b7100000000000000000000000000000000000000000000000000000000600052604160045260246000fd5b6200024182620001f6565b810181811067ffffffffffffffff8211171562000263576200026262000207565b5b80604052505050565b600062000278620001d8565b905062000286828262000236565b919050565b600067ffffffffffffffff821115620002a957620002a862000207565b5b620002b482620001f6565b9050602081019050919050565b60005b83811015620002e1578082015181840152602081019050620002c4565b60008484015250505050565b600062000304620002fe846200028b565b6200026c565b905082815260208101848484011115620003235762000322620001f1565b5b62000330848285620002c1565b509392505050565b600082601f83011262000350576200034f620001ec565b5b815162000362848260208601620002ed565b91505092915050565b600060208284031215620003845762000383620001e2565b5b600082015167ffffffffffffffff811115620003a557620003a4620001e7565b5b620003b38482850162000338565b91505092915050565b600081519050919050565b7f4e487b7100000000000000000000000000000000000000000000000000000000600052602260045260246000fd5b600060028204905060018216806200040f57607f821691505b602082108103620004255762000424620003c7565b5b50919050565b60008190508160005260206000209050919050565b60006020601f8301049050919050565b600082821b905092915050565b6000600883026200048f7fffffffffffffffffffffffffffffffffffffffffffffffffffffffffffffffff8262000450565b6200049b868362000450565b95508019841693508086168417925050509392505050565b6000819050919050565b6000819050919050565b6000620004e8620004e2620004dc84620004b3565b620004bd565b620004b3565b9050919050565b6000819050919050565b6200050483620004c7565b6200051c6200051382620004ef565b8484546200045d565b825550505050565b600090565b6200053362000524565b62000540818484620004f9565b505050565b5b8181101562000568576200055c60008262000529565b60018101905062000546565b5050565b601f821115620005b75762000581816200042b565b6200058c8462000440565b810160208510156200059c578190505b620005b4620005ab8562000440565b83018262000545565b50505b505050565b600082821c905092915050565b6000620005dc60001984600802620005bc565b1980831691505092915050565b6000620005f78383620005c9565b9150826002028217905092915050565b6200061282620003bc565b67ffffffffffffffff8111156200062e576200062d62000207565b5b6200063a8254620003f6565b620006478282856200056c565b600060209050601f8311600181146200067f57600084156200066a578287015190505b620006768582620005e9565b865550620006e6565b601f1984166200068f866200042b565b60005b82811015620006b95784890151825560018201915060208501945060208101905062000692565b86831015620006d95784890151620006d5601f891682620005c9565b8355505b6001600288020188555050505b505050505050565b613c3280620006fe6000396000f3fe60806040526004361061019c5760003560e01c8063853828b6116100ec578063c87b56dd1161008a578063e985e9c511610064578063e985e9c5146105a5578063eef28c68146105e2578063f2fde38b1461060b578063fca3b5aa146106345761019c565b8063c87b56dd14610512578063d52079b41461054f578063d547cfb71461057a5761019c565b806395d89b41116100c657806395d89b411461046c5780639727151a14610497578063a22cb465146104c0578063b88d4fde146104e95761019c565b8063853828b61461040e57806386ebf010146104185780638da5cb5b146104415761019c565b806334d722c91161015957806355f804b31161013357806355f804b3146103545780636352211e1461037d57806370a08231146103ba578063715018a6146103f75761019c565b806334d722c9146102c357806342842e0e146102ee5780634f558e79146103175761019c565b806301ffc9a7146101a157806306fdde03146101de578063081812fc14610209578063095ea7b31461024657806318160ddd1461026f57806323b872dd1461029a575b600080fd5b3480156101ad57600080fd5b506101c860048036038101906101c391906124ff565b61065d565b6040516101d59190612547565b60405180910390f35b3480156101ea57600080fd5b506101f361073f565b60405161020091906125f2565b60405180910390f35b34801561021557600080fd5b50610230600480360381019061022b919061264a565b6107d1565b60405161023d91906126b8565b60405180910390f35b34801561025257600080fd5b5061026d600480360381019061026891906126ff565b610875565b005b34801561027b57600080fd5b50610284610910565b604051610291919061274e565b60405180910390f35b3480156102a657600080fd5b506102c160048036038101906102bc9190612769565b61091a565b005b3480156102cf57600080fd5b506102d861097a565b6040516102e591906126b8565b60405180910390f35b3480156102fa57600080fd5b5061031560048036038101906103109190612769565b6109a0565b005b34801561032357600080fd5b5061033e6004803603810190610339919061264a565b6109c0565b60405161034b9190612547565b60405180910390f35b34801561036057600080fd5b5061037b60048036038101906103769190612821565b6109d2565b005b34801561038957600080fd5b506103a4600480360381019061039f919061264a565b6109f0565b6040516103b191906126b8565b60405180910390f35b3480156103c657600080fd5b506103e160048036038101906103dc919061286e565b610a76565b6040516103ee919061274e565b60405180910390f35b34801561040357600080fd5b5061040c610b2d565b005b610416610b41565b005b34801561042457600080fd5b5061043f600480360381019061043a91906128c0565b610bf8565b005b34801561044d57600080fd5b50610456610d3c565b60405161046391906126b8565b60405180910390f35b34801561047857600080fd5b50610481610d66565b60405161048e91906125f2565b60405180910390f35b3480156104a357600080fd5b506104be60048036038101906104b99190612951565b610df8565b005b3480156104cc57600080fd5b506104e760048036038101906104e291906129bd565b610ee9565b005b3480156104f557600080fd5b50610510600480360381019061050b9190612b2d565b610f84565b005b34801561051e57600080fd5b506105396004803603810190610534919061264a565b610fe6565b60405161054691906125f2565b60405180910390f35b34801561055b57600080fd5b50610564611062565b604051610571919061274e565b60405180910390f35b34801561058657600080fd5b5061058f611068565b60405161059c91906125f2565b60405180910390f35b3480156105b157600080fd5b506105cc60048036038101906105c79190612bb0565b6110f6565b6040516105d99190612547565b60405180910390f35b3480156105ee57600080fd5b50610609600480360381019061060491906129bd565b611197565b005b34801561061757600080fd5b50610632600480360381019061062d919061286e565b6111fa565b005b34801561064057600080fd5b5061065b6004803603810190610656919061286e565b61127d565b005b60007f80ac58cd000000000000000000000000000000000000000000000000000000007bffffffffffffffffffffffffffffffffffffffffffffffffffffffff1916827bffffffffffffffffffffffffffffffffffffffffffffffffffffffff1916148061072857507f5b5e139f000000000000000000000000000000000000000000000000000000007bffffffffffffffffffffffffffffffffffffffffffffffffffffffff1916827bffffffffffffffffffffffffffffffffffffffffffffffffffffffff1916145b80610738575061073782611338565b5b9050919050565b60606000805461074e90612c1f565b80601f016020809104026020016040519081016040528092919081815260200182805461077a90612c1f565b80156107c75780601f1061079c576101008083540402835291602001916107c7565b820191906000526020600020905b8154815290600101906020018083116107aa57829003601f168201915b5050505050905090565b6000806107dd836113a2565b9050600b60008273ffffffffffffffffffffffffffffffffffffffff1673ffffffffffffffffffffffffffffffffffffffff16815260200190815260200160002060009054906101000a900460ff161561086c576040517f08c379a000000000000000000000000000000000000000000000000000000000815260040161086390612c9c565b60405180910390fd5b80915050919050565b600b60008373ffffffffffffffffffffffffffffffffffffffff1673ffffffffffffffffffffffffffffffffffffffff16815260200190815260200160002060009054906101000a900460ff1615610902576040517f08c379a00000000000000000000000000000000000000000000000000000000081526004016108f990612c9c565b60405180910390fd5b61090c82826113e8565b5050565b6000600854905090565b61092b6109256114ff565b82611507565b61096a576040517f08c379a000000000000000000000000000000000000000000000000000000000815260040161096190612d2e565b60405180910390fd5b61097583838361159c565b505050565b600960009054906101000a900473ffffffffffffffffffffffffffffffffffffffff1681565b6109bb83838360405180602001604052806000815250610f84565b505050565b60006109cb82611895565b9050919050565b6109da6118d6565b8181600a91826109eb929190612f05565b505050565b6000806109fc83611954565b9050600073ffffffffffffffffffffffffffffffffffffffff168173ffffffffffffffffffffffffffffffffffffffff1603610a6d576040517f08c379a0000000000000000000000000000000000000000000000000000000008152600401610a6490613021565b60405180910390fd5b80915050919050565b60008073ffffffffffffffffffffffffffffffffffffffff168273ffffffffffffffffffffffffffffffffffffffff1603610ae6576040517f08c379a0000000000000000000000000000000000000000000000000000000008152600401610add906130b3565b60405180910390fd5b600360008373ffffffffffffffffffffffffffffffffffffffff1673ffffffffffffffffffffffffffffffffffffffff168152602001908152602001600020549050919050565b610b356118d6565b610b3f6000611991565b565b610b496118d6565b60003373ffffffffffffffffffffffffffffffffffffffff1647604051610b6f90613104565b60006040518083038185875af1925050503d8060008114610bac576040519150601f19603f3d011682016040523d82523d6000602084013e610bb1565b606091505b5050905080610bf5576040517f08c379a0000000000000000000000000000000000000000000000000000000008152600401610bec90613165565b60405180910390fd5b50565b610c00611a57565b61271060085410610c3d576040517f9a3acf9e00000000000000000000000000000000000000000000000000000000815260040160405180910390fd5b600960009054906101000a900473ffffffffffffffffffffffffffffffffffffffff1673ffffffffffffffffffffffffffffffffffffffff16610c7e6114ff565b73ffffffffffffffffffffffffffffffffffffffff1614610cd4576040517f08c379a0000000000000000000000000000000000000000000000000000000008152600401610ccb906131d1565b60405180910390fd5b600860008154610ce390613220565b919050819055507fcaf434a354fd620b9e4720abbd4b6c0c5b49dbaeac7597967d916915d9002df1838383604051610d1d939291906132df565b60405180910390a1610d2f8383611aa6565b610d37611ac4565b505050565b6000600660009054906101000a900473ffffffffffffffffffffffffffffffffffffffff16905090565b606060018054610d7590612c1f565b80601f0160208091040260200160405190810160405280929190818152602001828054610da190612c1f565b8015610dee5780601f10610dc357610100808354040283529160200191610dee565b820191906000526020600020905b815481529060010190602001808311610dd157829003601f168201915b5050505050905090565b610e006118d6565b600073ffffffffffffffffffffffffffffffffffffffff163373ffffffffffffffffffffffffffffffffffffffff1603610e66576040517f48ac165200000000000000000000000000000000000000000000000000000000815260040160405180910390fd5b8173ffffffffffffffffffffffffffffffffffffffff1663a9059cbb33836040518363ffffffff1660e01b8152600401610ea1929190613316565b6020604051808303816000875af1158015610ec0573d6000803e3d6000fd5b505050506040513d601f19601f82011682018060405250810190610ee49190613354565b505050565b600b60008373ffffffffffffffffffffffffffffffffffffffff1673ffffffffffffffffffffffffffffffffffffffff16815260200190815260200160002060009054906101000a900460ff1615610f76576040517f08c379a0000000000000000000000000000000000000000000000000000000008152600401610f6d90612c9c565b60405180910390fd5b610f808282611ace565b5050565b610f95610f8f6114ff565b83611507565b610fd4576040517f08c379a0000000000000000000000000000000000000000000000000000000008152600401610fcb90612d2e565b60405180910390fd5b610fe084848484611ae4565b50505050565b6060610ff182611895565b611030576040517f08c379a0000000000000000000000000000000000000000000000000000000008152600401611027906133f3565b60405180910390fd5b600a61103b83611b40565b60405160200161104c9291906134d2565b6040516020818303038152906040529050919050565b60085481565b600a805461107590612c1f565b80601f01602080910402602001604051908101604052809291908181526020018280546110a190612c1f565b80156110ee5780601f106110c3576101008083540402835291602001916110ee565b820191906000526020600020905b8154815290600101906020018083116110d157829003601f168201915b505050505081565b6000600b60008373ffffffffffffffffffffffffffffffffffffffff1673ffffffffffffffffffffffffffffffffffffffff16815260200190815260200160002060009054906101000a900460ff1615611185576040517f08c379a000000000000000000000000000000000000000000000000000000000815260040161117c90612c9c565b60405180910390fd5b61118f8383611c0e565b905092915050565b61119f6118d6565b80600b60008473ffffffffffffffffffffffffffffffffffffffff1673ffffffffffffffffffffffffffffffffffffffff16815260200190815260200160002060006101000a81548160ff0219169083151502179055505050565b6112026118d6565b600073ffffffffffffffffffffffffffffffffffffffff168173ffffffffffffffffffffffffffffffffffffffff1603611271576040517f08c379a000000000000000000000000000000000000000000000000000000000815260040161126890613568565b60405180910390fd5b61127a81611991565b50565b6112856118d6565b600073ffffffffffffffffffffffffffffffffffffffff168173ffffffffffffffffffffffffffffffffffffffff16036112f4576040517f08c379a00000000000000000000000000000000000000000000000000000000081526004016112eb906135d4565b60405180910390fd5b80600960006101000a81548173ffffffffffffffffffffffffffffffffffffffff021916908373ffffffffffffffffffffffffffffffffffffffff16021790555050565b60007f01ffc9a7000000000000000000000000000000000000000000000000000000007bffffffffffffffffffffffffffffffffffffffffffffffffffffffff1916827bffffffffffffffffffffffffffffffffffffffffffffffffffffffff1916149050919050565b60006113ad82611ca2565b6004600083815260200190815260200160002060009054906101000a900473ffffffffffffffffffffffffffffffffffffffff169050919050565b60006113f3826109f0565b90508073ffffffffffffffffffffffffffffffffffffffff168373ffffffffffffffffffffffffffffffffffffffff1603611463576040517f08c379a000000000000000000000000000000000000000000000000000000000815260040161145a90613666565b60405180910390fd5b8073ffffffffffffffffffffffffffffffffffffffff166114826114ff565b73ffffffffffffffffffffffffffffffffffffffff1614806114b157506114b0816114ab6114ff565b6110f6565b5b6114f0576040517f08c379a00000000000000000000000000000000000000000000000000000000081526004016114e7906136f8565b60405180910390fd5b6114fa8383611ced565b505050565b600033905090565b600080611513836109f0565b90508073ffffffffffffffffffffffffffffffffffffffff168473ffffffffffffffffffffffffffffffffffffffff161480611555575061155481856110f6565b5b8061159357508373ffffffffffffffffffffffffffffffffffffffff1661157b846107d1565b73ffffffffffffffffffffffffffffffffffffffff16145b91505092915050565b8273ffffffffffffffffffffffffffffffffffffffff166115bc826109f0565b73ffffffffffffffffffffffffffffffffffffffff1614611612576040517f08c379a00000000000000000000000000000000000000000000000000000000081526004016116099061378a565b60405180910390fd5b600073ffffffffffffffffffffffffffffffffffffffff168273ffffffffffffffffffffffffffffffffffffffff1603611681576040517f08c379a00000000000000000000000000000000000000000000000000000000081526004016116789061381c565b60405180910390fd5b61168e8383836001611da6565b8273ffffffffffffffffffffffffffffffffffffffff166116ae826109f0565b73ffffffffffffffffffffffffffffffffffffffff1614611704576040517f08c379a00000000000000000000000000000000000000000000000000000000081526004016116fb9061378a565b60405180910390fd5b6004600082815260200190815260200160002060006101000a81549073ffffffffffffffffffffffffffffffffffffffff02191690556001600360008573ffffffffffffffffffffffffffffffffffffffff1673ffffffffffffffffffffffffffffffffffffffff168152602001908152602001600020600082825403925050819055506001600360008473ffffffffffffffffffffffffffffffffffffffff1673ffffffffffffffffffffffffffffffffffffffff16815260200190815260200160002060008282540192505081905550816002600083815260200190815260200160002060006101000a81548173ffffffffffffffffffffffffffffffffffffffff021916908373ffffffffffffffffffffffffffffffffffffffff160217905550808273ffffffffffffffffffffffffffffffffffffffff168473ffffffffffffffffffffffffffffffffffffffff167fddf252ad1be2c89b69c2b068fc378daa952ba7f163c4a11628f55a4df523b3ef60405160405180910390a46118908383836001611dac565b505050565b60008073ffffffffffffffffffffffffffffffffffffffff166118b783611954565b73ffffffffffffffffffffffffffffffffffffffff1614159050919050565b6118de6114ff565b73ffffffffffffffffffffffffffffffffffffffff166118fc610d3c565b73ffffffffffffffffffffffffffffffffffffffff1614611952576040517f08c379a000000000000000000000000000000000000000000000000000000000815260040161194990613888565b60405180910390fd5b565b60006002600083815260200190815260200160002060009054906101000a900473ffffffffffffffffffffffffffffffffffffffff169050919050565b6000600660009054906101000a900473ffffffffffffffffffffffffffffffffffffffff16905081600660006101000a81548173ffffffffffffffffffffffffffffffffffffffff021916908373ffffffffffffffffffffffffffffffffffffffff1602179055508173ffffffffffffffffffffffffffffffffffffffff168173ffffffffffffffffffffffffffffffffffffffff167f8be0079c531659141344cd1fd0a4f28419497f9722a3daafe3b4186f6b6457e060405160405180910390a35050565b600260075403611a9c576040517f08c379a0000000000000000000000000000000000000000000000000000000008152600401611a93906138f4565b60405180910390fd5b6002600781905550565b611ac0828260405180602001604052806000815250611db2565b5050565b6001600781905550565b611ae0611ad96114ff565b8383611e0d565b5050565b611aef84848461159c565b611afb84848484611f79565b611b3a576040517f08c379a0000000000000000000000000000000000000000000000000000000008152600401611b3190613986565b60405180910390fd5b50505050565b606060006001611b4f84612100565b01905060008167ffffffffffffffff811115611b6e57611b6d612a02565b5b6040519080825280601f01601f191660200182016040528015611ba05781602001600182028036833780820191505090505b509050600082602001820190505b600115611c03578080600190039150507f3031323334353637383961626364656600000000000000000000000000000000600a86061a8153600a8581611bf757611bf66139a6565b5b04945060008503611bae575b819350505050919050565b6000600560008473ffffffffffffffffffffffffffffffffffffffff1673ffffffffffffffffffffffffffffffffffffffff16815260200190815260200160002060008373ffffffffffffffffffffffffffffffffffffffff1673ffffffffffffffffffffffffffffffffffffffff16815260200190815260200160002060009054906101000a900460ff16905092915050565b611cab81611895565b611cea576040517f08c379a0000000000000000000000000000000000000000000000000000000008152600401611ce190613021565b60405180910390fd5b50565b816004600083815260200190815260200160002060006101000a81548173ffffffffffffffffffffffffffffffffffffffff021916908373ffffffffffffffffffffffffffffffffffffffff160217905550808273ffffffffffffffffffffffffffffffffffffffff16611d60836109f0565b73ffffffffffffffffffffffffffffffffffffffff167f8c5be1e5ebec7d5bd14f71427d1e84f3dd0314c0f7b2291e5b200ac8c7c3b92560405160405180910390a45050565b50505050565b50505050565b611dbc8383612253565b611dc96000848484611f79565b611e08576040517f08c379a0000000000000000000000000000000000000000000000000000000008152600401611dff90613986565b60405180910390fd5b505050565b8173ffffffffffffffffffffffffffffffffffffffff168373ffffffffffffffffffffffffffffffffffffffff1603611e7b576040517f08c379a0000000000000000000000000000000000000000000000000000000008152600401611e7290613a21565b60405180910390fd5b80600560008573ffffffffffffffffffffffffffffffffffffffff1673ffffffffffffffffffffffffffffffffffffffff16815260200190815260200160002060008473ffffffffffffffffffffffffffffffffffffffff1673ffffffffffffffffffffffffffffffffffffffff16815260200190815260200160002060006101000a81548160ff0219169083151502179055508173ffffffffffffffffffffffffffffffffffffffff168373ffffffffffffffffffffffffffffffffffffffff167f17307eab39ab6107e8899845ad3d59bd9653f200f220920489ca2b5937696c3183604051611f6c9190612547565b60405180910390a3505050565b6000611f9a8473ffffffffffffffffffffffffffffffffffffffff16612470565b156120f3578373ffffffffffffffffffffffffffffffffffffffff1663150b7a02611fc36114ff565b8786866040518563ffffffff1660e01b8152600401611fe59493929190613a96565b6020604051808303816000875af192505050801561202157506040513d601f19601f8201168201806040525081019061201e9190613af7565b60015b6120a3573d8060008114612051576040519150601f19603f3d011682016040523d82523d6000602084013e612056565b606091505b50600081510361209b576040517f08c379a000000000000000000000000000000000000000000000000000000000815260040161209290613986565b60405180910390fd5b805181602001fd5b63150b7a0260e01b7bffffffffffffffffffffffffffffffffffffffffffffffffffffffff1916817bffffffffffffffffffffffffffffffffffffffffffffffffffffffff1916149150506120f8565b600190505b949350505050565b600080600090507a184f03e93ff9f4daa797ed6e38ed64bf6a1f010000000000000000831061215e577a184f03e93ff9f4daa797ed6e38ed64bf6a1f0100000000000000008381612154576121536139a6565b5b0492506040810190505b6d04ee2d6d415b85acef8100000000831061219b576d04ee2d6d415b85acef81000000008381612191576121906139a6565b5b0492506020810190505b662386f26fc1000083106121ca57662386f26fc1000083816121c0576121bf6139a6565b5b0492506010810190505b6305f5e10083106121f3576305f5e10083816121e9576121e86139a6565b5b0492506008810190505b612710831061221857612710838161220e5761220d6139a6565b5b0492506004810190505b6064831061223b5760648381612231576122306139a6565b5b0492506002810190505b600a831061224a576001810190505b80915050919050565b600073ffffffffffffffffffffffffffffffffffffffff168273ffffffffffffffffffffffffffffffffffffffff16036122c2576040517f08c379a00000000000000000000000000000000000000000000000000000000081526004016122b990613b70565b60405180910390fd5b6122cb81611895565b1561230b576040517f08c379a000000000000000000000000000000000000000000000000000000000815260040161230290613bdc565b60405180910390fd5b612319600083836001611da6565b61232281611895565b15612362576040517f08c379a000000000000000000000000000000000000000000000000000000000815260040161235990613bdc565b60405180910390fd5b6001600360008473ffffffffffffffffffffffffffffffffffffffff1673ffffffffffffffffffffffffffffffffffffffff16815260200190815260200160002060008282540192505081905550816002600083815260200190815260200160002060006101000a81548173ffffffffffffffffffffffffffffffffffffffff021916908373ffffffffffffffffffffffffffffffffffffffff160217905550808273ffffffffffffffffffffffffffffffffffffffff16600073ffffffffffffffffffffffffffffffffffffffff167fddf252ad1be2c89b69c2b068fc378daa952ba7f163c4a11628f55a4df523b3ef60405160405180910390a461246c600083836001611dac565b5050565b6000808273ffffffffffffffffffffffffffffffffffffffff163b119050919050565b6000604051905090565b600080fd5b600080fd5b60007fffffffff0000000000000000000000000000000000000000000000000000000082169050919050565b6124dc816124a7565b81146124e757600080fd5b50565b6000813590506124f9816124d3565b92915050565b6000602082840312156125155761251461249d565b5b6000612523848285016124ea565b91505092915050565b60008115159050919050565b6125418161252c565b82525050565b600060208201905061255c6000830184612538565b92915050565b600081519050919050565b600082825260208201905092915050565b60005b8381101561259c578082015181840152602081019050612581565b60008484015250505050565b6000601f19601f8301169050919050565b60006125c482612562565b6125ce818561256d565b93506125de81856020860161257e565b6125e7816125a8565b840191505092915050565b6000602082019050818103600083015261260c81846125b9565b905092915050565b6000819050919050565b61262781612614565b811461263257600080fd5b50565b6000813590506126448161261e565b92915050565b6000602082840312156126605761265f61249d565b5b600061266e84828501612635565b91505092915050565b600073ffffffffffffffffffffffffffffffffffffffff82169050919050565b60006126a282612677565b9050919050565b6126b281612697565b82525050565b60006020820190506126cd60008301846126a9565b92915050565b6126dc81612697565b81146126e757600080fd5b50565b6000813590506126f9816126d3565b92915050565b600080604083850312156127165761271561249d565b5b6000612724858286016126ea565b925050602061273585828601612635565b9150509250929050565b61274881612614565b82525050565b6000602082019050612763600083018461273f565b92915050565b6000806000606084860312156127825761278161249d565b5b6000612790868287016126ea565b93505060206127a1868287016126ea565b92505060406127b286828701612635565b9150509250925092565b600080fd5b600080fd5b600080fd5b60008083601f8401126127e1576127e06127bc565b5b8235905067ffffffffffffffff8111156127fe576127fd6127c1565b5b60208301915083600182028301111561281a576128196127c6565b5b9250929050565b600080602083850312156128385761283761249d565b5b600083013567ffffffffffffffff811115612856576128556124a2565b5b612862858286016127cb565b92509250509250929050565b6000602082840312156128845761288361249d565b5b6000612892848285016126ea565b91505092915050565b600881106128a857600080fd5b50565b6000813590506128ba8161289b565b92915050565b6000806000606084860312156128d9576128d861249d565b5b60006128e7868287016126ea565b93505060206128f886828701612635565b9250506040612909868287016128ab565b9150509250925092565b600061291e82612697565b9050919050565b61292e81612913565b811461293957600080fd5b50565b60008135905061294b81612925565b92915050565b600080604083850312156129685761296761249d565b5b60006129768582860161293c565b925050602061298785828601612635565b9150509250929050565b61299a8161252c565b81146129a557600080fd5b50565b6000813590506129b781612991565b92915050565b600080604083850312156129d4576129d361249d565b5b60006129e2858286016126ea565b92505060206129f3858286016129a8565b9150509250929050565b600080fd5b7f4e487b7100000000000000000000000000000000000000000000000000000000600052604160045260246000fd5b612a3a826125a8565b810181811067ffffffffffffffff82111715612a5957612a58612a02565b5b80604052505050565b6000612a6c612493565b9050612a788282612a31565b919050565b600067ffffffffffffffff821115612a9857612a97612a02565b5b612aa1826125a8565b9050602081019050919050565b82818337600083830152505050565b6000612ad0612acb84612a7d565b612a62565b905082815260208101848484011115612aec57612aeb6129fd565b5b612af7848285612aae565b509392505050565b600082601f830112612b1457612b136127bc565b5b8135612b24848260208601612abd565b91505092915050565b60008060008060808587031215612b4757612b4661249d565b5b6000612b55878288016126ea565b9450506020612b66878288016126ea565b9350506040612b7787828801612635565b925050606085013567ffffffffffffffff811115612b9857612b976124a2565b5b612ba487828801612aff565b91505092959194509250565b60008060408385031215612bc757612bc661249d565b5b6000612bd5858286016126ea565b9250506020612be6858286016126ea565b9150509250929050565b7f4e487b7100000000000000000000000000000000000000000000000000000000600052602260045260246000fd5b60006002820490506001821680612c3757607f821691505b602082108103612c4a57612c49612bf0565b5b50919050565b7f496e76616c6964204d61726b6574706c61636500000000000000000000000000600082015250565b6000612c8660138361256d565b9150612c9182612c50565b602082019050919050565b60006020820190508181036000830152612cb581612c79565b9050919050565b7f4552433732313a2063616c6c6572206973206e6f7420746f6b656e206f776e6560008201527f72206f7220617070726f76656400000000000000000000000000000000000000602082015250565b6000612d18602d8361256d565b9150612d2382612cbc565b604082019050919050565b60006020820190508181036000830152612d4781612d0b565b9050919050565b600082905092915050565b60008190508160005260206000209050919050565b60006020601f8301049050919050565b600082821b905092915050565b600060088302612dbb7fffffffffffffffffffffffffffffffffffffffffffffffffffffffffffffffff82612d7e565b612dc58683612d7e565b95508019841693508086168417925050509392505050565b6000819050919050565b6000612e02612dfd612df884612614565b612ddd565b612614565b9050919050565b6000819050919050565b612e1c83612de7565b612e30612e2882612e09565b848454612d8b565b825550505050565b600090565b612e45612e38565b612e50818484612e13565b505050565b5b81811015612e7457612e69600082612e3d565b600181019050612e56565b5050565b601f821115612eb957612e8a81612d59565b612e9384612d6e565b81016020851015612ea2578190505b612eb6612eae85612d6e565b830182612e55565b50505b505050565b600082821c905092915050565b6000612edc60001984600802612ebe565b1980831691505092915050565b6000612ef58383612ecb565b9150826002028217905092915050565b612f0f8383612d4e565b67ffffffffffffffff811115612f2857612f27612a02565b5b612f328254612c1f565b612f3d828285612e78565b6000601f831160018114612f6c5760008415612f5a578287013590505b612f648582612ee9565b865550612fcc565b601f198416612f7a86612d59565b60005b82811015612fa257848901358255600182019150602085019450602081019050612f7d565b86831015612fbf5784890135612fbb601f891682612ecb565b8355505b6001600288020188555050505b50505050505050565b7f4552433732313a20696e76616c696420746f6b656e2049440000000000000000600082015250565b600061300b60188361256d565b915061301682612fd5565b602082019050919050565b6000602082019050818103600083015261303a81612ffe565b9050919050565b7f4552433732313a2061646472657373207a65726f206973206e6f74206120766160008201527f6c6964206f776e65720000000000000000000000000000000000000000000000602082015250565b600061309d60298361256d565b91506130a882613041565b604082019050919050565b600060208201905081810360008301526130cc81613090565b9050919050565b600081905092915050565b50565b60006130ee6000836130d3565b91506130f9826130de565b600082019050919050565b600061310f826130e1565b9150819050919050565b7f776974686472617720776173206e6f742073756363657366756c6c0000000000600082015250565b600061314f601b8361256d565b915061315a82613119565b602082019050919050565b6000602082019050818103600083015261317e81613142565b9050919050565b7f4e6f742061206d696e7465720000000000000000000000000000000000000000600082015250565b60006131bb600c8361256d565b91506131c682613185565b602082019050919050565b600060208201905081810360008301526131ea816131ae565b9050919050565b7f4e487b7100000000000000000000000000000000000000000000000000000000600052601160045260246000fd5b600061322b82612614565b91507fffffffffffffffffffffffffffffffffffffffffffffffffffffffffffffffff820361325d5761325c6131f1565b5b600182019050919050565b7f4e487b7100000000000000000000000000000000000000000000000000000000600052602160045260246000fd5b600881106132a8576132a7613268565b5b50565b60008190506132b982613297565b919050565b60006132c9826132ab565b9050919050565b6132d9816132be565b82525050565b60006060820190506132f460008301866126a9565b613301602083018561273f565b61330e60408301846132d0565b949350505050565b600060408201905061332b60008301856126a9565b613338602083018461273f565b9392505050565b60008151905061334e81612991565b92915050565b60006020828403121561336a5761336961249d565b5b60006133788482850161333f565b91505092915050565b7f4552433732314d657461646174613a2055524920717565727920666f72206e6f60008201527f6e6578697374656e7420746f6b656e0000000000000000000000000000000000602082015250565b60006133dd602f8361256d565b91506133e882613381565b604082019050919050565b6000602082019050818103600083015261340c816133d0565b9050919050565b600081905092915050565b6000815461342b81612c1f565b6134358186613413565b94506001821660008114613450576001811461346557613498565b60ff1983168652811515820286019350613498565b61346e85612d59565b60005b8381101561349057815481890152600182019150602081019050613471565b838801955050505b50505092915050565b60006134ac82612562565b6134b68185613413565b93506134c681856020860161257e565b80840191505092915050565b60006134de828561341e565b91506134ea82846134a1565b91508190509392505050565b7f4f776e61626c653a206e6577206f776e657220697320746865207a65726f206160008201527f6464726573730000000000000000000000000000000000000000000000000000602082015250565b600061355260268361256d565b915061355d826134f6565b604082019050919050565b6000602082019050818103600083015261358181613545565b9050919050565b7f496e76616c6964206d696e746572206164647265737300000000000000000000600082015250565b60006135be60168361256d565b91506135c982613588565b602082019050919050565b600060208201905081810360008301526135ed816135b1565b9050919050565b7f4552433732313a20617070726f76616c20746f2063757272656e74206f776e6560008201527f7200000000000000000000000000000000000000000000000000000000000000602082015250565b600061365060218361256d565b915061365b826135f4565b604082019050919050565b6000602082019050818103600083015261367f81613643565b9050919050565b7f4552433732313a20617070726f76652063616c6c6572206973206e6f7420746f60008201527f6b656e206f776e6572206f7220617070726f76656420666f7220616c6c000000602082015250565b60006136e2603d8361256d565b91506136ed82613686565b604082019050919050565b60006020820190508181036000830152613711816136d5565b9050919050565b7f4552433732313a207472616e736665722066726f6d20696e636f72726563742060008201527f6f776e6572000000000000000000000000000000000000000000000000000000602082015250565b600061377460258361256d565b915061377f82613718565b604082019050919050565b600060208201905081810360008301526137a381613767565b9050919050565b7f4552433732313a207472616e7366657220746f20746865207a65726f2061646460008201527f7265737300000000000000000000000000000000000000000000000000000000602082015250565b600061380660248361256d565b9150613811826137aa565b604082019050919050565b60006020820190508181036000830152613835816137f9565b9050919050565b7f4f776e61626c653a2063616c6c6572206973206e6f7420746865206f776e6572600082015250565b600061387260208361256d565b915061387d8261383c565b602082019050919050565b600060208201905081810360008301526138a181613865565b9050919050565b7f5265656e7472616e637947756172643a207265656e7472616e742063616c6c00600082015250565b60006138de601f8361256d565b91506138e9826138a8565b602082019050919050565b6000602082019050818103600083015261390d816138d1565b9050919050565b7f4552433732313a207472616e7366657220746f206e6f6e20455243373231526560008201527f63656976657220696d706c656d656e7465720000000000000000000000000000602082015250565b600061397060328361256d565b915061397b82613914565b604082019050919050565b6000602082019050818103600083015261399f81613963565b9050919050565b7f4e487b7100000000000000000000000000000000000000000000000000000000600052601260045260246000fd5b7f4552433732313a20617070726f766520746f2063616c6c657200000000000000600082015250565b6000613a0b60198361256d565b9150613a16826139d5565b602082019050919050565b60006020820190508181036000830152613a3a816139fe565b9050919050565b600081519050919050565b600082825260208201905092915050565b6000613a6882613a41565b613a728185613a4c565b9350613a8281856020860161257e565b613a8b816125a8565b840191505092915050565b6000608082019050613aab60008301876126a9565b613ab860208301866126a9565b613ac5604083018561273f565b8181036060830152613ad78184613a5d565b905095945050505050565b600081519050613af1816124d3565b92915050565b600060208284031215613b0d57613b0c61249d565b5b6000613b1b84828501613ae2565b91505092915050565b7f4552433732313a206d696e7420746f20746865207a65726f2061646472657373600082015250565b6000613b5a60208361256d565b9150613b6582613b24565b602082019050919050565b60006020820190508181036000830152613b8981613b4d565b9050919050565b7f4552433732313a20746f6b656e20616c7265616479206d696e74656400000000600082015250565b6000613bc6601c8361256d565b9150613bd182613b90565b602082019050919050565b60006020820190508181036000830152613bf581613bb9565b905091905056fea2646970667358221220d9b6f292fff069d8fb170a1730482d41af833657dc4cbdaf6b745572a0f2ca2464736f6c63430008120033",
  "linkReferences": {},
  "deployedLinkReferences": {}
}