{"contracts/FundersRingMinter.sol":{"FundersRingMinter":{"abi":[{"inputs":[{"internalType":"contract IFundersRing","name":"_fundersRing","type":"address"}],"stateMutability":"nonpayable","type":"constructor"},{"inputs":[],"name":"Address0Error","type":"error"},{"inputs":[],"name":"DeniedProcessDuringMinting","type":"error"},{"inputs":[{"internalType":"uint256","name":"sended_values","type":"uint256"},{"internalType":"uint256","name":"expected","type":"uint256"}],"name":"GivenValuesNotValid","type":"error"},{"inputs":[],"name":"IncorrectPurchaseLimit","type":"error"},{"inputs":[],"name":"MisconfiguredPrices","type":"error"},{"inputs":[{"internalType":"uint256","name":"correct_date","type":"uint256"},{"internalType":"uint256","name":"current_date","type":"uint256"}],"name":"WrongDateForProcess","type":"error"},{"anonymous":false,"inputs":[{"indexed":true,"internalType":"address","name":"previousOwner","type":"address"},{"indexed":true,"internalType":"address","name":"newOwner","type":"address"}],"name":"OwnershipTransferred","type":"event"},{"inputs":[],"name":"claimlistMerkleRoot","outputs":[{"internalType":"bytes32","name":"","type":"bytes32"}],"stateMutability":"view","type":"function"},{"inputs":[{"internalType":"enum IFundersRing.FundersRingType","name":"ringType","type":"uint8"},{"internalType":"uint256","name":"numRings","type":"uint256"},{"internalType":"uint256","name":"claimedMaxRings","type":"uint256"},{"internalType":"bytes32[]","name":"_merkleProof","type":"bytes32[]"}],"name":"claimlistMint","outputs":[],"stateMutability":"payable","type":"function"},{"inputs":[{"internalType":"address","name":"","type":"address"},{"internalType":"uint256","name":"","type":"uint256"}],"name":"claimlistMintedPerType","outputs":[{"internalType":"uint256","name":"","type":"uint256"}],"stateMutability":"view","type":"function"},{"inputs":[],"name":"claimsStartTime","outputs":[{"internalType":"uint256","name":"","type":"uint256"}],"stateMutability":"view","type":"function"},{"inputs":[],"name":"claimsStarted","outputs":[{"internalType":"bool","name":"","type":"bool"}],"stateMutability":"view","type":"function"},{"inputs":[{"internalType":"contract IERC20","name":"_token","type":"address"},{"internalType":"uint256","name":"_amount","type":"uint256"}],"name":"forwardERC20s","outputs":[],"stateMutability":"nonpayable","type":"function"},{"inputs":[],"name":"fundersRing","outputs":[{"internalType":"contract IFundersRing","name":"","type":"address"}],"stateMutability":"view","type":"function"},{"inputs":[],"name":"generateRing","outputs":[{"internalType":"uint256","name":"","type":"uint256"}],"stateMutability":"view","type":"function"},{"inputs":[],"name":"getAvailableRings","outputs":[{"internalType":"uint256","name":"","type":"uint256"}],"stateMutability":"view","type":"function"},{"inputs":[],"name":"getInitialRings","outputs":[{"internalType":"uint256","name":"","type":"uint256"}],"stateMutability":"view","type":"function"},{"inputs":[],"name":"getRingPrice","outputs":[{"internalType":"uint256","name":"","type":"uint256"}],"stateMutability":"view","type":"function"},{"inputs":[{"internalType":"uint256","name":"tokenId","type":"uint256"}],"name":"getTokenIdRingType","outputs":[{"internalType":"uint256","name":"","type":"uint256"}],"stateMutability":"pure","type":"function"},{"inputs":[],"name":"getTotalMintedRings","outputs":[{"internalType":"uint256","name":"","type":"uint256"}],"stateMutability":"view","type":"function"},{"inputs":[],"name":"getTotalMintedRingsByType","outputs":[{"internalType":"uint256[]","name":"","type":"uint256[]"}],"stateMutability":"view","type":"function"},{"inputs":[{"internalType":"enum IFundersRing.FundersRingType","name":"ringType","type":"uint8"},{"internalType":"uint256","name":"numRings","type":"uint256"}],"name":"mint","outputs":[],"stateMutability":"payable","type":"function"},{"inputs":[],"name":"mintlistMerkleRoot1","outputs":[{"internalType":"bytes32","name":"","type":"bytes32"}],"stateMutability":"view","type":"function"},{"inputs":[],"name":"mintlistMerkleRoot2","outputs":[{"internalType":"bytes32","name":"","type":"bytes32"}],"stateMutability":"view","type":"function"},{"inputs":[{"internalType":"enum IFundersRing.FundersRingType","name":"ringType","type":"uint8"},{"internalType":"uint256","name":"numRings","type":"uint256"},{"internalType":"uint256","name":"claimedMaxRings","type":"uint256"},{"internalType":"bytes32[]","name":"_merkleProof","type":"bytes32[]"}],"name":"mintlistMint","outputs":[],"stateMutability":"payable","type":"function"},{"inputs":[{"internalType":"address","name":"","type":"address"},{"internalType":"uint256","name":"","type":"uint256"}],"name":"mintlistMintedPerType","outputs":[{"internalType":"uint256","name":"","type":"uint256"}],"stateMutability":"view","type":"function"},{"inputs":[],"name":"mintlistStartTime","outputs":[{"internalType":"uint256","name":"","type":"uint256"}],"stateMutability":"view","type":"function"},{"inputs":[],"name":"mintlistStarted","outputs":[{"internalType":"bool","name":"","type":"bool"}],"stateMutability":"view","type":"function"},{"inputs":[{"internalType":"address","name":"_who","type":"address"},{"internalType":"bytes32","name":"_leaf","type":"bytes32"},{"internalType":"bytes32[]","name":"_merkleProof","type":"bytes32[]"}],"name":"mintlisted","outputs":[{"internalType":"bool","name":"","type":"bool"}],"stateMutability":"view","type":"function"},{"inputs":[],"name":"owner","outputs":[{"internalType":"address","name":"","type":"address"}],"stateMutability":"view","type":"function"},{"inputs":[{"internalType":"enum IFundersRing.FundersRingType[]","name":"ringTypes","type":"uint8[]"},{"internalType":"address[]","name":"recipients","type":"address[]"}],"name":"ownerMint","outputs":[],"stateMutability":"nonpayable","type":"function"},{"inputs":[],"name":"publicMintStartTime","outputs":[{"internalType":"uint256","name":"","type":"uint256"}],"stateMutability":"view","type":"function"},{"inputs":[],"name":"publicStarted","outputs":[{"internalType":"bool","name":"","type":"bool"}],"stateMutability":"view","type":"function"},{"inputs":[],"name":"renounceOwnership","outputs":[],"stateMutability":"nonpayable","type":"function"},{"inputs":[],"name":"ringGlobalOffset","outputs":[{"internalType":"uint256","name":"","type":"uint256"}],"stateMutability":"view","type":"function"},{"inputs":[],"name":"ringPrice","outputs":[{"internalType":"uint256","name":"","type":"uint256"}],"stateMutability":"view","type":"function"},{"inputs":[{"internalType":"uint256","name":"","type":"uint256"}],"name":"ringTypeLocalOffset","outputs":[{"internalType":"uint256","name":"","type":"uint256"}],"stateMutability":"view","type":"function"},{"inputs":[{"internalType":"uint256","name":"","type":"uint256"}],"name":"ringsMinted","outputs":[{"internalType":"uint256","name":"","type":"uint256"}],"stateMutability":"view","type":"function"},{"inputs":[{"internalType":"bytes32","name":"newMerkleRoot","type":"bytes32"}],"name":"setClaimlistMerkleRoot","outputs":[],"stateMutability":"nonpayable","type":"function"},{"inputs":[{"internalType":"uint256","name":"_newClaimsStartTime","type":"uint256"}],"name":"setClaimsStartTime","outputs":[],"stateMutability":"nonpayable","type":"function"},{"inputs":[{"internalType":"contract IFundersRing","name":"_newFundersRingAddress","type":"address"}],"name":"setFundersRing","outputs":[],"stateMutability":"nonpayable","type":"function"},{"inputs":[{"internalType":"uint256","name":"_newGlobalIdOffset","type":"uint256"}],"name":"setGlobalIdOffset","outputs":[],"stateMutability":"nonpayable","type":"function"},{"inputs":[{"internalType":"uint256[]","name":"_newRingTypeLocalOffset","type":"uint256[]"}],"name":"setLocalIdOffsets","outputs":[],"stateMutability":"nonpayable","type":"function"},{"inputs":[{"internalType":"bytes32","name":"newMerkleRoot","type":"bytes32"}],"name":"setMintlistMerkleRoot1","outputs":[],"stateMutability":"nonpayable","type":"function"},{"inputs":[{"internalType":"bytes32","name":"newMerkleRoot","type":"bytes32"}],"name":"setMintlistMerkleRoot2","outputs":[],"stateMutability":"nonpayable","type":"function"},{"inputs":[{"internalType":"uint256","name":"_newAllowlistMintStartTime","type":"uint256"}],"name":"setMintlistStartTime","outputs":[],"stateMutability":"nonpayable","type":"function"},{"inputs":[{"internalType":"uint256","name":"_newPrice","type":"uint256"}],"name":"setPrice","outputs":[],"stateMutability":"nonpayable","type":"function"},{"inputs":[{"internalType":"uint256","name":"_newPublicMintStartTime","type":"uint256"}],"name":"setPublicMintStartTime","outputs":[],"stateMutability":"nonpayable","type":"function"},{"inputs":[{"internalType":"uint256","name":"_newRingsAvailable","type":"uint256"}],"name":"setRingsAvailable","outputs":[],"stateMutability":"nonpayable","type":"function"},{"inputs":[{"internalType":"address payable","name":"_newVaultAddress","type":"address"}],"name":"setVaultAddress","outputs":[],"stateMutability":"nonpayable","type":"function"},{"inputs":[{"internalType":"address","name":"newOwner","type":"address"}],"name":"transferOwnership","outputs":[],"stateMutability":"nonpayable","type":"function"},{"inputs":[],"name":"vault","outputs":[{"internalType":"address payable","name":"","type":"address"}],"stateMutability":"view","type":"function"},{"inputs":[{"internalType":"uint256","name":"_amount","type":"uint256"}],"name":"withdraw","outputs":[],"stateMutability":"nonpayable","type":"function"},{"inputs":[],"name":"withdrawAll","outputs":[],"stateMutability":"nonpayable","type":"function"}],"evm":{"bytecode":{"linkReferences":{},"object":"6080604052612710600455604051806101000160405280600e60ff168152602001600e60ff168152602001600e60ff168152602001600e60ff168152602001600e60ff168152602001600e60ff168152602001600e60ff168152602001600260ff168152506005906008620000769291906200042a565b50604051806101000160405280600160ff168152602001600160ff168152602001600160ff168152602001600160ff168152602001600160ff168152602001600160ff168152602001600160ff168152602001600160ff168152506006906008620000e39291906200042a565b5060016007557fffffffffffffffffffffffffffffffffffffffffffffffffffffffffffffffff6008557fffffffffffffffffffffffffffffffffffffffffffffffffffffffffffffffff6009557fffffffffffffffffffffffffffffffffffffffffffffffffffffffffffffffff600a557fffffffffffffffffffffffffffffffffffffffffffffffffffffffffffffffff600b553480156200018657600080fd5b5060405162003f3b38038062003f3b8339818101604052810190620001ac91906200051e565b620001cc620001c0620001fc60201b60201c565b6200020460201b60201c565b60018081905550620001e481620002c860201b60201c565b620001f5336200031c60201b60201c565b50620005d3565b600033905090565b60008060009054906101000a900473ffffffffffffffffffffffffffffffffffffffff169050816000806101000a81548173ffffffffffffffffffffffffffffffffffffffff021916908373ffffffffffffffffffffffffffffffffffffffff1602179055508173ffffffffffffffffffffffffffffffffffffffff168173ffffffffffffffffffffffffffffffffffffffff167f8be0079c531659141344cd1fd0a4f28419497f9722a3daafe3b4186f6b6457e060405160405180910390a35050565b620002d86200037060201b60201c565b80600260006101000a81548173ffffffffffffffffffffffffffffffffffffffff021916908373ffffffffffffffffffffffffffffffffffffffff16021790555050565b6200032c6200037060201b60201c565b80600360006101000a81548173ffffffffffffffffffffffffffffffffffffffff021916908373ffffffffffffffffffffffffffffffffffffffff16021790555050565b62000380620001fc60201b60201c565b73ffffffffffffffffffffffffffffffffffffffff16620003a66200040160201b60201c565b73ffffffffffffffffffffffffffffffffffffffff1614620003ff576040517f08c379a0000000000000000000000000000000000000000000000000000000008152600401620003f690620005b1565b60405180910390fd5b565b60008060009054906101000a900473ffffffffffffffffffffffffffffffffffffffff16905090565b8280548282559060005260206000209081019282156200046e579160200282015b828111156200046d578251829060ff169055916020019190600101906200044b565b5b5090506200047d919062000481565b5090565b5b808211156200049c57600081600090555060010162000482565b5090565b600080fd5b600073ffffffffffffffffffffffffffffffffffffffff82169050919050565b6000620004d282620004a5565b9050919050565b6000620004e682620004c5565b9050919050565b620004f881620004d9565b81146200050457600080fd5b50565b6000815190506200051881620004ed565b92915050565b600060208284031215620005375762000536620004a0565b5b6000620005478482850162000507565b91505092915050565b600082825260208201905092915050565b7f4f776e61626c653a2063616c6c6572206973206e6f7420746865206f776e6572600082015250565b60006200059960208362000550565b9150620005a68262000561565b602082019050919050565b60006020820190508181036000830152620005cc816200058a565b9050919050565b61395880620005e36000396000f3fe6080604052600436106102885760003560e01c8063853828b61161015a578063a637f973116100c1578063d3cf00a31161007a578063d3cf00a314610978578063df477ead146109a3578063f26748e2146109ce578063f2fde38b146109ea578063f4cde4c014610a13578063fbfa77cf14610a3e57610288565b8063a637f97314610880578063ae6b6dae146108a9578063b9a43f2e146108d2578063c2774dac146108fd578063cc644fd214610926578063cef582831461094f57610288565b806393cb41471161011357806393cb41471461077057806396c9f88b1461079b5780639727151a146107d85780639b68a6ef146108015780639f0664b51461082c578063a0e52f891461085557610288565b8063853828b61461068657806385535cc51461069d5780638c6d8ef6146106c65780638d56a17b146106f15780638da5cb5b1461071c57806391b7f5ed1461074757610288565b80633e97414f116101fe5780635242a493116101b75780635242a493146105785780635fcd80a6146105a35780636e1a1a60146105cc578063715018a6146105f5578063772d3be01461060c578063792a77d91461064957610288565b80633e97414f14610487578063411d13f7146104b257806346bf289f146104db57806348fae23b146105065780634e054c39146105315780634ed1eb241461054d57610288565b8063260c088611610250578063260c0886146103745780632701b3251461039d578063294548a4146103da5780632ce82a71146104175780632e1a7d4d1461044257806333a5a99f1461046b57610288565b8063158ae2981461028d5780631af3ba81146102ca5780631c7f4a02146102f5578063205ed382146103205780632560e37614610349575b600080fd5b34801561029957600080fd5b506102b460048036038101906102af9190612569565b610a69565b6040516102c191906125a5565b60405180910390f35b3480156102d657600080fd5b506102df610a81565b6040516102ec91906125a5565b60405180910390f35b34801561030157600080fd5b5061030a610a87565b60405161031791906125d9565b60405180910390f35b34801561032c57600080fd5b5061034760048036038101906103429190612569565b610a8d565b005b34801561035557600080fd5b5061035e610ade565b60405161036b91906125d9565b60405180910390f35b34801561038057600080fd5b5061039b60048036038101906103969190612569565b610ae4565b005b3480156103a957600080fd5b506103c460048036038101906103bf9190612569565b610af6565b6040516103d191906125a5565b60405180910390f35b3480156103e657600080fd5b5061040160048036038101906103fc9190612652565b610b03565b60405161040e91906125a5565b60405180910390f35b34801561042357600080fd5b5061042c610b28565b6040516104399190612750565b60405180910390f35b34801561044e57600080fd5b5061046960048036038101906104649190612569565b610d26565b005b610485600480360381019061048091906127fc565b610e00565b005b34801561049357600080fd5b5061049c61102f565b6040516104a9919061289f565b60405180910390f35b3480156104be57600080fd5b506104d960048036038101906104d491906128e6565b61103c565b005b3480156104e757600080fd5b506104f061104e565b6040516104fd91906125a5565b60405180910390f35b34801561051257600080fd5b5061051b611147565b60405161052891906125a5565b60405180910390f35b61054b600480360381019061054691906127fc565b611228565b005b34801561055957600080fd5b506105626114f3565b60405161056f91906125d9565b60405180910390f35b34801561058457600080fd5b5061058d6114f9565b60405161059a91906125a5565b60405180910390f35b3480156105af57600080fd5b506105ca60048036038101906105c59190612569565b6114ff565b005b3480156105d857600080fd5b506105f360048036038101906105ee9190612569565b611511565b005b34801561060157600080fd5b5061060a611523565b005b34801561061857600080fd5b50610633600480360381019061062e9190612652565b611537565b60405161064091906125a5565b60405180910390f35b34801561065557600080fd5b50610670600480360381019061066b9190612913565b61155c565b60405161067d919061289f565b60405180910390f35b34801561069257600080fd5b5061069b611659565b005b3480156106a957600080fd5b506106c460048036038101906106bf91906129c5565b611732565b005b3480156106d257600080fd5b506106db61177e565b6040516106e8919061289f565b60405180910390f35b3480156106fd57600080fd5b5061070661178b565b60405161071391906125a5565b60405180910390f35b34801561072857600080fd5b50610731611791565b60405161073e9190612a01565b60405180910390f35b34801561075357600080fd5b5061076e60048036038101906107699190612569565b6117ba565b005b34801561077c57600080fd5b5061078561180b565b604051610792919061289f565b60405180910390f35b3480156107a757600080fd5b506107c260048036038101906107bd9190612569565b611818565b6040516107cf91906125a5565b60405180910390f35b3480156107e457600080fd5b506107ff60048036038101906107fa9190612a5a565b61183c565b005b34801561080d57600080fd5b5061081661192d565b6040516108239190612af9565b60405180910390f35b34801561083857600080fd5b50610853600480360381019061084e9190612bc0565b611953565b005b34801561086157600080fd5b5061086a611a23565b60405161087791906125a5565b60405180910390f35b34801561088c57600080fd5b506108a760048036038101906108a29190612569565b611a2d565b005b3480156108b557600080fd5b506108d060048036038101906108cb9190612c7f565b611a7e565b005b3480156108de57600080fd5b506108e7611aca565b6040516108f491906125a5565b60405180910390f35b34801561090957600080fd5b50610924600480360381019061091f91906128e6565b611be8565b005b34801561093257600080fd5b5061094d60048036038101906109489190612d02565b611bfa565b005b34801561095b57600080fd5b50610976600480360381019061097191906128e6565b611ca5565b005b34801561098457600080fd5b5061098d611cb7565b60405161099a91906125a5565b60405180910390f35b3480156109af57600080fd5b506109b8611cbd565b6040516109c591906125a5565b60405180910390f35b6109e860048036038101906109e39190612d4f565b611cc7565b005b3480156109f657600080fd5b50610a116004803603810190610a0c9190612d8f565b611d7a565b005b348015610a1f57600080fd5b50610a28611dfd565b604051610a3591906125a5565b60405180910390f35b348015610a4a57600080fd5b50610a53611e03565b604051610a609190612dcb565b60405180910390f35b600f6020528060005260406000206000915090505481565b60085481565b600d5481565b610a95611e29565b610a9d61180b565b15610ad4576040517ff2a84b6300000000000000000000000000000000000000000000000000000000815260040160405180910390fd5b8060048190555050565b600e5481565b610aec611e29565b80600b8190555050565b600060ff82169050919050565b6011602052816000526040600020602052806000526040600020600091509150505481565b60606000600867ffffffffffffffff811115610b4757610b46612de6565b5b604051908082528060200260200182016040528015610b755781602001602082028036833780820191505090505b509050600f60008081526020019081526020016000205481600081518110610ba057610b9f612e15565b5b602002602001018181525050600f6000600181526020019081526020016000205481600181518110610bd557610bd4612e15565b5b602002602001018181525050600f6000600281526020019081526020016000205481600281518110610c0a57610c09612e15565b5b602002602001018181525050600f6000600381526020019081526020016000205481600381518110610c3f57610c3e612e15565b5b602002602001018181525050600f6000600481526020019081526020016000205481600481518110610c7457610c73612e15565b5b602002602001018181525050600f6000600581526020019081526020016000205481600581518110610ca957610ca8612e15565b5b602002602001018181525050600f6000600681526020019081526020016000205481600681518110610cde57610cdd612e15565b5b602002602001018181525050600f6000600781526020019081526020016000205481600781518110610d1357610d12612e15565b5b6020026020010181815250508091505090565b610d2e611e29565b6000600360009054906101000a900473ffffffffffffffffffffffffffffffffffffffff1673ffffffffffffffffffffffffffffffffffffffff1682604051610d7690612e75565b60006040518083038185875af1925050503d8060008114610db3576040519150601f19603f3d011682016040523d82523d6000602084013e610db8565b606091505b5050905080610dfc576040517f08c379a0000000000000000000000000000000000000000000000000000000008152600401610df390612ee7565b60405180910390fd5b5050565b610e08611ea7565b610e1061102f565b610e5557600b54426040517f66803fc1000000000000000000000000000000000000000000000000000000008152600401610e4c929190612f07565b60405180910390fd5b600033866007811115610e6b57610e6a612f30565b5b85604051602001610e7e9392919061301f565b604051602081830303815290604052805190602001209050610ee4838380806020026020016040519081016040528093929190818152602001838360200280828437600081840152601f19601f82011690508083019250505050505050600e5483611ef6565b610f23576040517f08c379a0000000000000000000000000000000000000000000000000000000008152600401610f1a906130be565b60405180910390fd5b6000601160003373ffffffffffffffffffffffffffffffffffffffff1673ffffffffffffffffffffffffffffffffffffffff168152602001908152602001600020905084868260008a6007811115610f7e57610f7d612f30565b5b815260200190815260200160002054610f97919061310d565b1115610fd8576040517f08c379a0000000000000000000000000000000000000000000000000000000008152600401610fcf9061318d565b60405180910390fd5b85816000896007811115610fef57610fee612f30565b5b8152602001908152602001600020600082825461100c919061310d565b9250508190555061101e878733611f0d565b505061102861207c565b5050505050565b6000600b54421015905090565b611044611e29565b80600e8190555050565b600080600f60006007815260200190815260200160002054600f60006006815260200190815260200160002054600f60006005815260200190815260200160002054600f60006004815260200190815260200160002054600f60006003815260200190815260200160002054600f60006002815260200190815260200160002054600f60006001815260200190815260200160002054600f600080815260200190815260200160002054611102919061310d565b61110c919061310d565b611116919061310d565b611120919061310d565b61112a919061310d565b611134919061310d565b61113e919061310d565b90508091505090565b6000806000606460014361115b91906131ad565b4060001c6111699190613210565b9050600181611178919061310d565b9050600080600560008154811061119257611191612e15565b5b906000526020600020015490508083116111ab57600093505b6000600190505b60058054905081101561121d57819250600581815481106111d6576111d5612e15565b5b9060005260206000200154826111ec919061310d565b915082841180156111fd5750818411155b1561120a5780945061121d565b808061121590613241565b9150506111b2565b508394505050505090565b611230611ea7565b61123861180b565b61127d57600a54426040517f66803fc1000000000000000000000000000000000000000000000000000000008152600401611274929190612f07565b60405180910390fd5b60008411158061128d5750601484115b156112c4576040517fca02d6eb00000000000000000000000000000000000000000000000000000000815260040160405180910390fd5b6000338660078111156112da576112d9612f30565b5b856040516020016112ed9392919061301f565b604051602081830303815290604052805190602001209050611353838380806020026020016040519081016040528093929190818152602001838360200280828437600081840152601f19601f82011690508083019250505050505050600c5483611ef6565b806113a857506113a7838380806020026020016040519081016040528093929190818152602001838360200280828437600081840152601f19601f82011690508083019250505050505050600d5483611ef6565b5b6113e7576040517f08c379a00000000000000000000000000000000000000000000000000000000081526004016113de906130be565b60405180910390fd5b6000601060003373ffffffffffffffffffffffffffffffffffffffff1673ffffffffffffffffffffffffffffffffffffffff168152602001908152602001600020905084868260008a600781111561144257611441612f30565b5b81526020019081526020016000205461145b919061310d565b111561149c576040517f08c379a0000000000000000000000000000000000000000000000000000000008152600401611493906132d5565b60405180910390fd5b858160008960078111156114b3576114b2612f30565b5b815260200190815260200160002060008282546114d0919061310d565b925050819055506114e2878733612085565b50506114ec61207c565b5050505050565b600c5481565b60075481565b611507611e29565b8060098190555050565b611519611e29565b80600a8190555050565b61152b611e29565b6115356000612120565b565b6010602052816000526040600020602052806000526040600020600091509150505481565b6000808560405160200161157091906132f5565b604051602081830303815290604052805190602001209050848114611599576000915050611651565b6115e7848480806020026020016040519081016040528093929190818152602001838360200280828437600081840152601f19601f82011690508083019250505050505050600c5487611ef6565b8061163c575061163b848480806020026020016040519081016040528093929190818152602001838360200280828437600081840152601f19601f82011690508083019250505050505050600d5487611ef6565b5b1561164b576001915050611651565b60009150505b949350505050565b611661611e29565b6000600360009054906101000a900473ffffffffffffffffffffffffffffffffffffffff1673ffffffffffffffffffffffffffffffffffffffff16476040516116a990612e75565b60006040518083038185875af1925050503d80600081146116e6576040519150601f19603f3d011682016040523d82523d6000602084013e6116eb565b606091505b505090508061172f576040517f08c379a00000000000000000000000000000000000000000000000000000000081526004016117269061335c565b60405180910390fd5b50565b61173a611e29565b80600360006101000a81548173ffffffffffffffffffffffffffffffffffffffff021916908373ffffffffffffffffffffffffffffffffffffffff16021790555050565b6000600954421015905090565b600b5481565b60008060009054906101000a900473ffffffffffffffffffffffffffffffffffffffff16905090565b6117c2611e29565b6117ca61180b565b15611801576040517ff2a84b6300000000000000000000000000000000000000000000000000000000815260040160405180910390fd5b8060088190555050565b6000600a54421015905090565b6006818154811061182857600080fd5b906000526020600020016000915090505481565b611844611e29565b600073ffffffffffffffffffffffffffffffffffffffff163373ffffffffffffffffffffffffffffffffffffffff16036118aa576040517f48ac165200000000000000000000000000000000000000000000000000000000815260040160405180910390fd5b8173ffffffffffffffffffffffffffffffffffffffff1663a9059cbb33836040518363ffffffff1660e01b81526004016118e592919061337c565b6020604051808303816000875af1158015611904573d6000803e3d6000fd5b505050506040513d601f19601f8201168201806040525081019061192891906133d1565b505050565b600260009054906101000a900473ffffffffffffffffffffffffffffffffffffffff1681565b61195b611e29565b8181905084849050146119a3576040517f08c379a000000000000000000000000000000000000000000000000000000000815260040161199a90613470565b60405180910390fd5b60005b82829050811015611a1c57611a0b8585838181106119c7576119c6612e15565b5b90506020020160208101906119dc9190613490565b60018585858181106119f1576119f0612e15565b5b9050602002016020810190611a069190612d8f565b611f0d565b80611a1590613241565b90506119a6565b5050505050565b6000600854905090565b611a35611e29565b611a3d61180b565b15611a74576040517ff2a84b6300000000000000000000000000000000000000000000000000000000815260040160405180910390fd5b8060078190555050565b611a86611e29565b80600260006101000a81548173ffffffffffffffffffffffffffffffffffffffff021916908373ffffffffffffffffffffffffffffffffffffffff16021790555050565b6000806004549050600f60008081526020019081526020016000205481611af191906131ad565b9050600f6000600181526020019081526020016000205481611b1391906131ad565b9050600f6000600281526020019081526020016000205481611b3591906131ad565b9050600f6000600381526020019081526020016000205481611b5791906131ad565b9050600f6000600481526020019081526020016000205481611b7991906131ad565b9050600f6000600581526020019081526020016000205481611b9b91906131ad565b9050600f6000600681526020019081526020016000205481611bbd91906131ad565b9050600f6000600781526020019081526020016000205481611bdf91906131ad565b90508091505090565b611bf0611e29565b80600d8190555050565b611c02611e29565b60088282905014611c50578181905060086040517f485d33a2000000000000000000000000000000000000000000000000000000008152600401611c479291906134f8565b60405180910390fd5b611c5861180b565b15611c8f576040517ff2a84b6300000000000000000000000000000000000000000000000000000000815260040160405180910390fd5b818160069190611ca09291906124bf565b505050565b611cad611e29565b80600c8190555050565b60095481565b6000600454905090565b611ccf611ea7565b611cd761177e565b611d1c57600954426040517f66803fc1000000000000000000000000000000000000000000000000000000008152600401611d13929190612f07565b60405180910390fd5b600081111580611d2c5750601481115b15611d63576040517fca02d6eb00000000000000000000000000000000000000000000000000000000815260040160405180910390fd5b611d6e828233612085565b611d7661207c565b5050565b611d82611e29565b600073ffffffffffffffffffffffffffffffffffffffff168173ffffffffffffffffffffffffffffffffffffffff1603611df1576040517f08c379a0000000000000000000000000000000000000000000000000000000008152600401611de890613593565b60405180910390fd5b611dfa81612120565b50565b600a5481565b600360009054906101000a900473ffffffffffffffffffffffffffffffffffffffff1681565b611e316121e4565b73ffffffffffffffffffffffffffffffffffffffff16611e4f611791565b73ffffffffffffffffffffffffffffffffffffffff1614611ea5576040517f08c379a0000000000000000000000000000000000000000000000000000000008152600401611e9c906135ff565b60405180910390fd5b565b600260015403611eec576040517f08c379a0000000000000000000000000000000000000000000000000000000008152600401611ee39061366b565b60405180910390fd5b6002600181905550565b600082611f0385846121ec565b1490509392505050565b60045482600f6000866007811115611f2857611f27612f30565b5b815260200190815260200160002054611f41919061310d565b1115611f82576040517f08c379a0000000000000000000000000000000000000000000000000000000008152600401611f79906136d7565b60405180910390fd5b60005b82811015612076576000611f9885612242565b9050600f6000866007811115611fb157611fb0612f30565b5b815260200190815260200160002060008154611fcc90613241565b91905081905550600260009054906101000a900473ffffffffffffffffffffffffffffffffffffffff1673ffffffffffffffffffffffffffffffffffffffff166386ebf0108483886040518463ffffffff1660e01b81526004016120329392919061373f565b600060405180830381600087803b15801561204c57600080fd5b505af1158015612060573d6000803e3d6000fd5b50505050508061206f90613241565b9050611f85565b50505050565b60018081905550565b6000600854116120c1576040517fc5fadba600000000000000000000000000000000000000000000000000000000815260040160405180910390fd5b816008546120cf9190613776565b3414612110576040517f08c379a00000000000000000000000000000000000000000000000000000000081526004016121079061382a565b60405180910390fd5b61211b838383611f0d565b505050565b60008060009054906101000a900473ffffffffffffffffffffffffffffffffffffffff169050816000806101000a81548173ffffffffffffffffffffffffffffffffffffffff021916908373ffffffffffffffffffffffffffffffffffffffff1602179055508173ffffffffffffffffffffffffffffffffffffffff168173ffffffffffffffffffffffffffffffffffffffff167f8be0079c531659141344cd1fd0a4f28419497f9722a3daafe3b4186f6b6457e060405160405180910390a35050565b600033905090565b60008082905060005b8451811015612237576122228286838151811061221557612214612e15565b5b602002602001015161247d565b9150808061222f90613241565b9150506121f5565b508091505092915050565b600080600754600f60006007815260200190815260200160002054600f60006006815260200190815260200160002054600f60006005815260200190815260200160002054600f60006004815260200190815260200160002054600f60006003815260200190815260200160002054600f60006002815260200190815260200160002054600f60006001815260200190815260200160002054600f6000808152602001908152602001600020546122f9919061310d565b612303919061310d565b61230d919061310d565b612317919061310d565b612321919061310d565b61232b919061310d565b612335919061310d565b61233f919061310d565b90506000600684600781111561235857612357612f30565b5b8154811061236957612368612e15565b5b9060005260206000200154600f600086600781111561238b5761238a612f30565b5b8152602001908152602001600020546123a4919061310d565b905063ffffffff8111156123ed576040517f08c379a00000000000000000000000000000000000000000000000000000000081526004016123e490613896565b60405180910390fd5b60ff84600781111561240257612401612f30565b5b1115612443576040517f08c379a000000000000000000000000000000000000000000000000000000000815260040161243a90613902565b60405180910390fd5b83600781111561245657612455612f30565b5b600882901b602884901b61246a919061310d565b612474919061310d565b92505050919050565b60008183106124955761249082846124a8565b6124a0565b61249f83836124a8565b5b905092915050565b600082600052816020526040600020905092915050565b8280548282559060005260206000209081019282156124fb579160200282015b828111156124fa5782358255916020019190600101906124df565b5b509050612508919061250c565b5090565b5b8082111561252557600081600090555060010161250d565b5090565b600080fd5b600080fd5b6000819050919050565b61254681612533565b811461255157600080fd5b50565b6000813590506125638161253d565b92915050565b60006020828403121561257f5761257e612529565b5b600061258d84828501612554565b91505092915050565b61259f81612533565b82525050565b60006020820190506125ba6000830184612596565b92915050565b6000819050919050565b6125d3816125c0565b82525050565b60006020820190506125ee60008301846125ca565b92915050565b600073ffffffffffffffffffffffffffffffffffffffff82169050919050565b600061261f826125f4565b9050919050565b61262f81612614565b811461263a57600080fd5b50565b60008135905061264c81612626565b92915050565b6000806040838503121561266957612668612529565b5b60006126778582860161263d565b925050602061268885828601612554565b9150509250929050565b600081519050919050565b600082825260208201905092915050565b6000819050602082019050919050565b6126c781612533565b82525050565b60006126d983836126be565b60208301905092915050565b6000602082019050919050565b60006126fd82612692565b612707818561269d565b9350612712836126ae565b8060005b8381101561274357815161272a88826126cd565b9750612735836126e5565b925050600181019050612716565b5085935050505092915050565b6000602082019050818103600083015261276a81846126f2565b905092915050565b6008811061277f57600080fd5b50565b60008135905061279181612772565b92915050565b600080fd5b600080fd5b600080fd5b60008083601f8401126127bc576127bb612797565b5b8235905067ffffffffffffffff8111156127d9576127d861279c565b5b6020830191508360208202830111156127f5576127f46127a1565b5b9250929050565b60008060008060006080868803121561281857612817612529565b5b600061282688828901612782565b955050602061283788828901612554565b945050604061284888828901612554565b935050606086013567ffffffffffffffff8111156128695761286861252e565b5b612875888289016127a6565b92509250509295509295909350565b60008115159050919050565b61289981612884565b82525050565b60006020820190506128b46000830184612890565b92915050565b6128c3816125c0565b81146128ce57600080fd5b50565b6000813590506128e0816128ba565b92915050565b6000602082840312156128fc576128fb612529565b5b600061290a848285016128d1565b91505092915050565b6000806000806060858703121561292d5761292c612529565b5b600061293b8782880161263d565b945050602061294c878288016128d1565b935050604085013567ffffffffffffffff81111561296d5761296c61252e565b5b612979878288016127a6565b925092505092959194509250565b6000612992826125f4565b9050919050565b6129a281612987565b81146129ad57600080fd5b50565b6000813590506129bf81612999565b92915050565b6000602082840312156129db576129da612529565b5b60006129e9848285016129b0565b91505092915050565b6129fb81612614565b82525050565b6000602082019050612a1660008301846129f2565b92915050565b6000612a2782612614565b9050919050565b612a3781612a1c565b8114612a4257600080fd5b50565b600081359050612a5481612a2e565b92915050565b60008060408385031215612a7157612a70612529565b5b6000612a7f85828601612a45565b9250506020612a9085828601612554565b9150509250929050565b6000819050919050565b6000612abf612aba612ab5846125f4565b612a9a565b6125f4565b9050919050565b6000612ad182612aa4565b9050919050565b6000612ae382612ac6565b9050919050565b612af381612ad8565b82525050565b6000602082019050612b0e6000830184612aea565b92915050565b60008083601f840112612b2a57612b29612797565b5b8235905067ffffffffffffffff811115612b4757612b4661279c565b5b602083019150836020820283011115612b6357612b626127a1565b5b9250929050565b60008083601f840112612b8057612b7f612797565b5b8235905067ffffffffffffffff811115612b9d57612b9c61279c565b5b602083019150836020820283011115612bb957612bb86127a1565b5b9250929050565b60008060008060408587031215612bda57612bd9612529565b5b600085013567ffffffffffffffff811115612bf857612bf761252e565b5b612c0487828801612b14565b9450945050602085013567ffffffffffffffff811115612c2757612c2661252e565b5b612c3387828801612b6a565b925092505092959194509250565b6000612c4c82612614565b9050919050565b612c5c81612c41565b8114612c6757600080fd5b50565b600081359050612c7981612c53565b92915050565b600060208284031215612c9557612c94612529565b5b6000612ca384828501612c6a565b91505092915050565b60008083601f840112612cc257612cc1612797565b5b8235905067ffffffffffffffff811115612cdf57612cde61279c565b5b602083019150836020820283011115612cfb57612cfa6127a1565b5b9250929050565b60008060208385031215612d1957612d18612529565b5b600083013567ffffffffffffffff811115612d3757612d3661252e565b5b612d4385828601612cac565b92509250509250929050565b60008060408385031215612d6657612d65612529565b5b6000612d7485828601612782565b9250506020612d8585828601612554565b9150509250929050565b600060208284031215612da557612da4612529565b5b6000612db38482850161263d565b91505092915050565b612dc581612987565b82525050565b6000602082019050612de06000830184612dbc565b92915050565b7f4e487b7100000000000000000000000000000000000000000000000000000000600052604160045260246000fd5b7f4e487b7100000000000000000000000000000000000000000000000000000000600052603260045260246000fd5b600081905092915050565b50565b6000612e5f600083612e44565b9150612e6a82612e4f565b600082019050919050565b6000612e8082612e52565b9150819050919050565b600082825260208201905092915050565b7f776974686472617720776173206e6f742073756363657366756c6c0000000000600082015250565b6000612ed1601b83612e8a565b9150612edc82612e9b565b602082019050919050565b60006020820190508181036000830152612f0081612ec4565b9050919050565b6000604082019050612f1c6000830185612596565b612f296020830184612596565b9392505050565b7f4e487b7100000000000000000000000000000000000000000000000000000000600052602160045260246000fd5b60008160601b9050919050565b6000612f7782612f5f565b9050919050565b6000612f8982612f6c565b9050919050565b612fa1612f9c82612614565b612f7e565b82525050565b600081905092915050565b7f3a00000000000000000000000000000000000000000000000000000000000000600082015250565b6000612fe8600183612fa7565b9150612ff382612fb2565b600182019050919050565b6000819050919050565b61301961301482612533565b612ffe565b82525050565b600061302b8286612f90565b60148201915061303a82612fdb565b91506130468285613008565b60208201915061305582612fdb565b91506130618284613008565b602082019150819050949350505050565b7f496e76616c69642070726f6f662e000000000000000000000000000000000000600082015250565b60006130a8600e83612e8a565b91506130b382613072565b602082019050919050565b600060208201905081810360008301526130d78161309b565b9050919050565b7f4e487b7100000000000000000000000000000000000000000000000000000000600052601160045260246000fd5b600061311882612533565b915061312383612533565b925082820190508082111561313b5761313a6130de565b5b92915050565b7f436c61696d696e67206d6f7265207468616e20616c6c6f7765642e0000000000600082015250565b6000613177601b83612e8a565b915061318282613141565b602082019050919050565b600060208201905081810360008301526131a68161316a565b9050919050565b60006131b882612533565b91506131c383612533565b92508282039050818111156131db576131da6130de565b5b92915050565b7f4e487b7100000000000000000000000000000000000000000000000000000000600052601260045260246000fd5b600061321b82612533565b915061322683612533565b925082613236576132356131e1565b5b828206905092915050565b600061324c82612533565b91507fffffffffffffffffffffffffffffffffffffffffffffffffffffffffffffffff820361327e5761327d6130de565b5b600182019050919050565b7f4d696e74696e67206d6f7265207468616e20616c6c6f7765642e000000000000600082015250565b60006132bf601a83612e8a565b91506132ca82613289565b602082019050919050565b600060208201905081810360008301526132ee816132b2565b9050919050565b60006133018284612f90565b60148201915081905092915050565b7f776974686472617720616c6c20776173206e6f742073756363657366756c6c00600082015250565b6000613346601f83612e8a565b915061335182613310565b602082019050919050565b6000602082019050818103600083015261337581613339565b9050919050565b600060408201905061339160008301856129f2565b61339e6020830184612596565b9392505050565b6133ae81612884565b81146133b957600080fd5b50565b6000815190506133cb816133a5565b92915050565b6000602082840312156133e7576133e6612529565b5b60006133f5848285016133bc565b91505092915050565b7f4172726179732073686f756c642068617665207468652073616d652073697a6560008201527f2e00000000000000000000000000000000000000000000000000000000000000602082015250565b600061345a602183612e8a565b9150613465826133fe565b604082019050919050565b600060208201905081810360008301526134898161344d565b9050919050565b6000602082840312156134a6576134a5612529565b5b60006134b484828501612782565b91505092915050565b6000819050919050565b60006134e26134dd6134d8846134bd565b612a9a565b612533565b9050919050565b6134f2816134c7565b82525050565b600060408201905061350d6000830185612596565b61351a60208301846134e9565b9392505050565b7f4f776e61626c653a206e6577206f776e657220697320746865207a65726f206160008201527f6464726573730000000000000000000000000000000000000000000000000000602082015250565b600061357d602683612e8a565b915061358882613521565b604082019050919050565b600060208201905081810360008301526135ac81613570565b9050919050565b7f4f776e61626c653a2063616c6c6572206973206e6f7420746865206f776e6572600082015250565b60006135e9602083612e8a565b91506135f4826135b3565b602082019050919050565b60006020820190508181036000830152613618816135dc565b9050919050565b7f5265656e7472616e637947756172643a207265656e7472616e742063616c6c00600082015250565b6000613655601f83612e8a565b91506136608261361f565b602082019050919050565b6000602082019050818103600083015261368481613648565b9050919050565b7f547279696e6720746f206d696e7420746f6f206d616e792072696e67732e0000600082015250565b60006136c1601e83612e8a565b91506136cc8261368b565b602082019050919050565b600060208201905081810360008301526136f0816136b4565b9050919050565b6008811061370857613707612f30565b5b50565b6000819050613719826136f7565b919050565b60006137298261370b565b9050919050565b6137398161371e565b82525050565b600060608201905061375460008301866129f2565b6137616020830185612596565b61376e6040830184613730565b949350505050565b600061378182612533565b915061378c83612533565b925082820261379a81612533565b915082820484148315176137b1576137b06130de565b5b5092915050565b7f45746865722076616c75652073656e74206973206e6f7420616363757261746560008201527f2e00000000000000000000000000000000000000000000000000000000000000602082015250565b6000613814602183612e8a565b915061381f826137b8565b604082019050919050565b6000602082019050818103600083015261384381613807565b9050919050565b7f4c6f63616c20696e646578206f766572666c6f772e0000000000000000000000600082015250565b6000613880601583612e8a565b915061388b8261384a565b602082019050919050565b600060208201905081810360008301526138af81613873565b9050919050565b7f52696e6720696e646578206f766572666c6f772e000000000000000000000000600082015250565b60006138ec601483612e8a565b91506138f7826138b6565b602082019050919050565b6000602082019050818103600083015261391b816138df565b905091905056fea26469706673582212209d15c6cbe87e6f15451ae6f1afc835fe9b7ab078912378e8594716769af687a264736f6c63430008120033","opcodes":"PUSH1 0x80 PUSH1 0x40 MSTORE PUSH2 0x2710 PUSH1 0x4 SSTORE PUSH1 0x40 MLOAD DUP1 PUSH2 0x100 ADD PUSH1 0x40 MSTORE DUP1 PUSH1 0xE PUSH1 0xFF AND DUP2 MSTORE PUSH1 0x20 ADD PUSH1 0xE PUSH1 0xFF AND DUP2 MSTORE PUSH1 0x20 ADD PUSH1 0xE PUSH1 0xFF AND DUP2 MSTORE PUSH1 0x20 ADD PUSH1 0xE PUSH1 0xFF AND DUP2 MSTORE PUSH1 0x20 ADD PUSH1 0xE PUSH1 0xFF AND DUP2 MSTORE PUSH1 0x20 ADD PUSH1 0xE PUSH1 0xFF AND DUP2 MSTORE PUSH1 0x20 ADD PUSH1 0xE PUSH1 0xFF AND DUP2 MSTORE PUSH1 0x20 ADD PUSH1 0x2 PUSH1 0xFF AND DUP2 MSTORE POP PUSH1 0x5 SWAP1 PUSH1 0x8 PUSH3 0x76 SWAP3 SWAP2 SWAP1 PUSH3 0x42A JUMP JUMPDEST POP PUSH1 0x40 MLOAD DUP1 PUSH2 0x100 ADD PUSH1 0x40 MSTORE DUP1 PUSH1 0x1 PUSH1 0xFF AND DUP2 MSTORE PUSH1 0x20 ADD PUSH1 0x1 PUSH1 0xFF AND DUP2 MSTORE PUSH1 0x20 ADD PUSH1 0x1 PUSH1 0xFF AND DUP2 MSTORE PUSH1 0x20 ADD PUSH1 0x1 PUSH1 0xFF AND DUP2 MSTORE PUSH1 0x20 ADD PUSH1 0x1 PUSH1 0xFF AND DUP2 MSTORE PUSH1 0x20 ADD PUSH1 0x1 PUSH1 0xFF AND DUP2 MSTORE PUSH1 0x20 ADD PUSH1 0x1 PUSH1 0xFF AND DUP2 MSTORE PUSH1 0x20 ADD PUSH1 0x1 PUSH1 0xFF AND DUP2 MSTORE POP PUSH1 0x6 SWAP1 PUSH1 0x8 PUSH3 0xE3 SWAP3 SWAP2 SWAP1 PUSH3 0x42A JUMP JUMPDEST POP PUSH1 0x1 PUSH1 0x7 SSTORE PUSH32 0xFFFFFFFFFFFFFFFFFFFFFFFFFFFFFFFFFFFFFFFFFFFFFFFFFFFFFFFFFFFFFFFF PUSH1 0x8 SSTORE PUSH32 0xFFFFFFFFFFFFFFFFFFFFFFFFFFFFFFFFFFFFFFFFFFFFFFFFFFFFFFFFFFFFFFFF PUSH1 0x9 SSTORE PUSH32 0xFFFFFFFFFFFFFFFFFFFFFFFFFFFFFFFFFFFFFFFFFFFFFFFFFFFFFFFFFFFFFFFF PUSH1 0xA SSTORE PUSH32 0xFFFFFFFFFFFFFFFFFFFFFFFFFFFFFFFFFFFFFFFFFFFFFFFFFFFFFFFFFFFFFFFF PUSH1 0xB SSTORE CALLVALUE DUP1 ISZERO PUSH3 0x186 JUMPI PUSH1 0x0 DUP1 REVERT JUMPDEST POP PUSH1 0x40 MLOAD PUSH3 0x3F3B CODESIZE SUB DUP1 PUSH3 0x3F3B DUP4 CODECOPY DUP2 DUP2 ADD PUSH1 0x40 MSTORE DUP2 ADD SWAP1 PUSH3 0x1AC SWAP2 SWAP1 PUSH3 0x51E JUMP JUMPDEST PUSH3 0x1CC PUSH3 0x1C0 PUSH3 0x1FC PUSH1 0x20 SHL PUSH1 0x20 SHR JUMP JUMPDEST PUSH3 0x204 PUSH1 0x20 SHL PUSH1 0x20 SHR JUMP JUMPDEST PUSH1 0x1 DUP1 DUP2 SWAP1 SSTORE POP PUSH3 0x1E4 DUP2 PUSH3 0x2C8 PUSH1 0x20 SHL PUSH1 0x20 SHR JUMP JUMPDEST PUSH3 0x1F5 CALLER PUSH3 0x31C PUSH1 0x20 SHL PUSH1 0x20 SHR JUMP JUMPDEST POP PUSH3 0x5D3 JUMP JUMPDEST PUSH1 0x0 CALLER SWAP1 POP SWAP1 JUMP JUMPDEST PUSH1 0x0 DUP1 PUSH1 0x0 SWAP1 SLOAD SWAP1 PUSH2 0x100 EXP SWAP1 DIV PUSH20 0xFFFFFFFFFFFFFFFFFFFFFFFFFFFFFFFFFFFFFFFF AND SWAP1 POP DUP2 PUSH1 0x0 DUP1 PUSH2 0x100 EXP DUP2 SLOAD DUP2 PUSH20 0xFFFFFFFFFFFFFFFFFFFFFFFFFFFFFFFFFFFFFFFF MUL NOT AND SWAP1 DUP4 PUSH20 0xFFFFFFFFFFFFFFFFFFFFFFFFFFFFFFFFFFFFFFFF AND MUL OR SWAP1 SSTORE POP DUP2 PUSH20 0xFFFFFFFFFFFFFFFFFFFFFFFFFFFFFFFFFFFFFFFF AND DUP2 PUSH20 0xFFFFFFFFFFFFFFFFFFFFFFFFFFFFFFFFFFFFFFFF AND PUSH32 0x8BE0079C531659141344CD1FD0A4F28419497F9722A3DAAFE3B4186F6B6457E0 PUSH1 0x40 MLOAD PUSH1 0x40 MLOAD DUP1 SWAP2 SUB SWAP1 LOG3 POP POP JUMP JUMPDEST PUSH3 0x2D8 PUSH3 0x370 PUSH1 0x20 SHL PUSH1 0x20 SHR JUMP JUMPDEST DUP1 PUSH1 0x2 PUSH1 0x0 PUSH2 0x100 EXP DUP2 SLOAD DUP2 PUSH20 0xFFFFFFFFFFFFFFFFFFFFFFFFFFFFFFFFFFFFFFFF MUL NOT AND SWAP1 DUP4 PUSH20 0xFFFFFFFFFFFFFFFFFFFFFFFFFFFFFFFFFFFFFFFF AND MUL OR SWAP1 SSTORE POP POP JUMP JUMPDEST PUSH3 0x32C PUSH3 0x370 PUSH1 0x20 SHL PUSH1 0x20 SHR JUMP JUMPDEST DUP1 PUSH1 0x3 PUSH1 0x0 PUSH2 0x100 EXP DUP2 SLOAD DUP2 PUSH20 0xFFFFFFFFFFFFFFFFFFFFFFFFFFFFFFFFFFFFFFFF MUL NOT AND SWAP1 DUP4 PUSH20 0xFFFFFFFFFFFFFFFFFFFFFFFFFFFFFFFFFFFFFFFF AND MUL OR SWAP1 SSTORE POP POP JUMP JUMPDEST PUSH3 0x380 PUSH3 0x1FC PUSH1 0x20 SHL PUSH1 0x20 SHR JUMP JUMPDEST PUSH20 0xFFFFFFFFFFFFFFFFFFFFFFFFFFFFFFFFFFFFFFFF AND PUSH3 0x3A6 PUSH3 0x401 PUSH1 0x20 SHL PUSH1 0x20 SHR JUMP JUMPDEST PUSH20 0xFFFFFFFFFFFFFFFFFFFFFFFFFFFFFFFFFFFFFFFF AND EQ PUSH3 0x3FF JUMPI PUSH1 0x40 MLOAD PUSH32 0x8C379A000000000000000000000000000000000000000000000000000000000 DUP2 MSTORE PUSH1 0x4 ADD PUSH3 0x3F6 SWAP1 PUSH3 0x5B1 JUMP JUMPDEST PUSH1 0x40 MLOAD DUP1 SWAP2 SUB SWAP1 REVERT JUMPDEST JUMP JUMPDEST PUSH1 0x0 DUP1 PUSH1 0x0 SWAP1 SLOAD SWAP1 PUSH2 0x100 EXP SWAP1 DIV PUSH20 0xFFFFFFFFFFFFFFFFFFFFFFFFFFFFFFFFFFFFFFFF AND SWAP1 POP SWAP1 JUMP JUMPDEST DUP3 DUP1 SLOAD DUP3 DUP3 SSTORE SWAP1 PUSH1 0x0 MSTORE PUSH1 0x20 PUSH1 0x0 KECCAK256 SWAP1 DUP2 ADD SWAP3 DUP3 ISZERO PUSH3 0x46E JUMPI SWAP2 PUSH1 0x20 MUL DUP3 ADD JUMPDEST DUP3 DUP2 GT ISZERO PUSH3 0x46D JUMPI DUP3 MLOAD DUP3 SWAP1 PUSH1 0xFF AND SWAP1 SSTORE SWAP2 PUSH1 0x20 ADD SWAP2 SWAP1 PUSH1 0x1 ADD SWAP1 PUSH3 0x44B JUMP JUMPDEST JUMPDEST POP SWAP1 POP PUSH3 0x47D SWAP2 SWAP1 PUSH3 0x481 JUMP JUMPDEST POP SWAP1 JUMP JUMPDEST JUMPDEST DUP1 DUP3 GT ISZERO PUSH3 0x49C JUMPI PUSH1 0x0 DUP2 PUSH1 0x0 SWAP1 SSTORE POP PUSH1 0x1 ADD PUSH3 0x482 JUMP JUMPDEST POP SWAP1 JUMP JUMPDEST PUSH1 0x0 DUP1 REVERT JUMPDEST PUSH1 0x0 PUSH20 0xFFFFFFFFFFFFFFFFFFFFFFFFFFFFFFFFFFFFFFFF DUP3 AND SWAP1 POP SWAP2 SWAP1 POP JUMP JUMPDEST PUSH1 0x0 PUSH3 0x4D2 DUP3 PUSH3 0x4A5 JUMP JUMPDEST SWAP1 POP SWAP2 SWAP1 POP JUMP JUMPDEST PUSH1 0x0 PUSH3 0x4E6 DUP3 PUSH3 0x4C5 JUMP JUMPDEST SWAP1 POP SWAP2 SWAP1 POP JUMP JUMPDEST PUSH3 0x4F8 DUP2 PUSH3 0x4D9 JUMP JUMPDEST DUP2 EQ PUSH3 0x504 JUMPI PUSH1 0x0 DUP1 REVERT JUMPDEST POP JUMP JUMPDEST PUSH1 0x0 DUP2 MLOAD SWAP1 POP PUSH3 0x518 DUP2 PUSH3 0x4ED JUMP JUMPDEST SWAP3 SWAP2 POP POP JUMP JUMPDEST PUSH1 0x0 PUSH1 0x20 DUP3 DUP5 SUB SLT ISZERO PUSH3 0x537 JUMPI PUSH3 0x536 PUSH3 0x4A0 JUMP JUMPDEST JUMPDEST PUSH1 0x0 PUSH3 0x547 DUP5 DUP3 DUP6 ADD PUSH3 0x507 JUMP JUMPDEST SWAP2 POP POP SWAP3 SWAP2 POP POP JUMP JUMPDEST PUSH1 0x0 DUP3 DUP3 MSTORE PUSH1 0x20 DUP3 ADD SWAP1 POP SWAP3 SWAP2 POP POP JUMP JUMPDEST PUSH32 0x4F776E61626C653A2063616C6C6572206973206E6F7420746865206F776E6572 PUSH1 0x0 DUP3 ADD MSTORE POP JUMP JUMPDEST PUSH1 0x0 PUSH3 0x599 PUSH1 0x20 DUP4 PUSH3 0x550 JUMP JUMPDEST SWAP2 POP PUSH3 0x5A6 DUP3 PUSH3 0x561 JUMP JUMPDEST PUSH1 0x20 DUP3 ADD SWAP1 POP SWAP2 SWAP1 POP JUMP JUMPDEST PUSH1 0x0 PUSH1 0x20 DUP3 ADD SWAP1 POP DUP2 DUP2 SUB PUSH1 0x0 DUP4 ADD MSTORE PUSH3 0x5CC DUP2 PUSH3 0x58A JUMP JUMPDEST SWAP1 POP SWAP2 SWAP1 POP JUMP JUMPDEST PUSH2 0x3958 DUP1 PUSH3 0x5E3 PUSH1 0x0 CODECOPY PUSH1 0x0 RETURN INVALID PUSH1 0x80 PUSH1 0x40 MSTORE PUSH1 0x4 CALLDATASIZE LT PUSH2 0x288 JUMPI PUSH1 0x0 CALLDATALOAD PUSH1 0xE0 SHR DUP1 PUSH4 0x853828B6 GT PUSH2 0x15A JUMPI DUP1 PUSH4 0xA637F973 GT PUSH2 0xC1 JUMPI DUP1 PUSH4 0xD3CF00A3 GT PUSH2 0x7A JUMPI DUP1 PUSH4 0xD3CF00A3 EQ PUSH2 0x978 JUMPI DUP1 PUSH4 0xDF477EAD EQ PUSH2 0x9A3 JUMPI DUP1 PUSH4 0xF26748E2 EQ PUSH2 0x9CE JUMPI DUP1 PUSH4 0xF2FDE38B EQ PUSH2 0x9EA JUMPI DUP1 PUSH4 0xF4CDE4C0 EQ PUSH2 0xA13 JUMPI DUP1 PUSH4 0xFBFA77CF EQ PUSH2 0xA3E JUMPI PUSH2 0x288 JUMP JUMPDEST DUP1 PUSH4 0xA637F973 EQ PUSH2 0x880 JUMPI DUP1 PUSH4 0xAE6B6DAE EQ PUSH2 0x8A9 JUMPI DUP1 PUSH4 0xB9A43F2E EQ PUSH2 0x8D2 JUMPI DUP1 PUSH4 0xC2774DAC EQ PUSH2 0x8FD JUMPI DUP1 PUSH4 0xCC644FD2 EQ PUSH2 0x926 JUMPI DUP1 PUSH4 0xCEF58283 EQ PUSH2 0x94F JUMPI PUSH2 0x288 JUMP JUMPDEST DUP1 PUSH4 0x93CB4147 GT PUSH2 0x113 JUMPI DUP1 PUSH4 0x93CB4147 EQ PUSH2 0x770 JUMPI DUP1 PUSH4 0x96C9F88B EQ PUSH2 0x79B JUMPI DUP1 PUSH4 0x9727151A EQ PUSH2 0x7D8 JUMPI DUP1 PUSH4 0x9B68A6EF EQ PUSH2 0x801 JUMPI DUP1 PUSH4 0x9F0664B5 EQ PUSH2 0x82C JUMPI DUP1 PUSH4 0xA0E52F89 EQ PUSH2 0x855 JUMPI PUSH2 0x288 JUMP JUMPDEST DUP1 PUSH4 0x853828B6 EQ PUSH2 0x686 JUMPI DUP1 PUSH4 0x85535CC5 EQ PUSH2 0x69D JUMPI DUP1 PUSH4 0x8C6D8EF6 EQ PUSH2 0x6C6 JUMPI DUP1 PUSH4 0x8D56A17B EQ PUSH2 0x6F1 JUMPI DUP1 PUSH4 0x8DA5CB5B EQ PUSH2 0x71C JUMPI DUP1 PUSH4 0x91B7F5ED EQ PUSH2 0x747 JUMPI PUSH2 0x288 JUMP JUMPDEST DUP1 PUSH4 0x3E97414F GT PUSH2 0x1FE JUMPI DUP1 PUSH4 0x5242A493 GT PUSH2 0x1B7 JUMPI DUP1 PUSH4 0x5242A493 EQ PUSH2 0x578 JUMPI DUP1 PUSH4 0x5FCD80A6 EQ PUSH2 0x5A3 JUMPI DUP1 PUSH4 0x6E1A1A60 EQ PUSH2 0x5CC JUMPI DUP1 PUSH4 0x715018A6 EQ PUSH2 0x5F5 JUMPI DUP1 PUSH4 0x772D3BE0 EQ PUSH2 0x60C JUMPI DUP1 PUSH4 0x792A77D9 EQ PUSH2 0x649 JUMPI PUSH2 0x288 JUMP JUMPDEST DUP1 PUSH4 0x3E97414F EQ PUSH2 0x487 JUMPI DUP1 PUSH4 0x411D13F7 EQ PUSH2 0x4B2 JUMPI DUP1 PUSH4 0x46BF289F EQ PUSH2 0x4DB JUMPI DUP1 PUSH4 0x48FAE23B EQ PUSH2 0x506 JUMPI DUP1 PUSH4 0x4E054C39 EQ PUSH2 0x531 JUMPI DUP1 PUSH4 0x4ED1EB24 EQ PUSH2 0x54D JUMPI PUSH2 0x288 JUMP JUMPDEST DUP1 PUSH4 0x260C0886 GT PUSH2 0x250 JUMPI DUP1 PUSH4 0x260C0886 EQ PUSH2 0x374 JUMPI DUP1 PUSH4 0x2701B325 EQ PUSH2 0x39D JUMPI DUP1 PUSH4 0x294548A4 EQ PUSH2 0x3DA JUMPI DUP1 PUSH4 0x2CE82A71 EQ PUSH2 0x417 JUMPI DUP1 PUSH4 0x2E1A7D4D EQ PUSH2 0x442 JUMPI DUP1 PUSH4 0x33A5A99F EQ PUSH2 0x46B JUMPI PUSH2 0x288 JUMP JUMPDEST DUP1 PUSH4 0x158AE298 EQ PUSH2 0x28D JUMPI DUP1 PUSH4 0x1AF3BA81 EQ PUSH2 0x2CA JUMPI DUP1 PUSH4 0x1C7F4A02 EQ PUSH2 0x2F5 JUMPI DUP1 PUSH4 0x205ED382 EQ PUSH2 0x320 JUMPI DUP1 PUSH4 0x2560E376 EQ PUSH2 0x349 JUMPI JUMPDEST PUSH1 0x0 DUP1 REVERT JUMPDEST CALLVALUE DUP1 ISZERO PUSH2 0x299 JUMPI PUSH1 0x0 DUP1 REVERT JUMPDEST POP PUSH2 0x2B4 PUSH1 0x4 DUP1 CALLDATASIZE SUB DUP2 ADD SWAP1 PUSH2 0x2AF SWAP2 SWAP1 PUSH2 0x2569 JUMP JUMPDEST PUSH2 0xA69 JUMP JUMPDEST PUSH1 0x40 MLOAD PUSH2 0x2C1 SWAP2 SWAP1 PUSH2 0x25A5 JUMP JUMPDEST PUSH1 0x40 MLOAD DUP1 SWAP2 SUB SWAP1 RETURN JUMPDEST CALLVALUE DUP1 ISZERO PUSH2 0x2D6 JUMPI PUSH1 0x0 DUP1 REVERT JUMPDEST POP PUSH2 0x2DF PUSH2 0xA81 JUMP JUMPDEST PUSH1 0x40 MLOAD PUSH2 0x2EC SWAP2 SWAP1 PUSH2 0x25A5 JUMP JUMPDEST PUSH1 0x40 MLOAD DUP1 SWAP2 SUB SWAP1 RETURN JUMPDEST CALLVALUE DUP1 ISZERO PUSH2 0x301 JUMPI PUSH1 0x0 DUP1 REVERT JUMPDEST POP PUSH2 0x30A PUSH2 0xA87 JUMP JUMPDEST PUSH1 0x40 MLOAD PUSH2 0x317 SWAP2 SWAP1 PUSH2 0x25D9 JUMP JUMPDEST PUSH1 0x40 MLOAD DUP1 SWAP2 SUB SWAP1 RETURN JUMPDEST CALLVALUE DUP1 ISZERO PUSH2 0x32C JUMPI PUSH1 0x0 DUP1 REVERT JUMPDEST POP PUSH2 0x347 PUSH1 0x4 DUP1 CALLDATASIZE SUB DUP2 ADD SWAP1 PUSH2 0x342 SWAP2 SWAP1 PUSH2 0x2569 JUMP JUMPDEST PUSH2 0xA8D JUMP JUMPDEST STOP JUMPDEST CALLVALUE DUP1 ISZERO PUSH2 0x355 JUMPI PUSH1 0x0 DUP1 REVERT JUMPDEST POP PUSH2 0x35E PUSH2 0xADE JUMP JUMPDEST PUSH1 0x40 MLOAD PUSH2 0x36B SWAP2 SWAP1 PUSH2 0x25D9 JUMP JUMPDEST PUSH1 0x40 MLOAD DUP1 SWAP2 SUB SWAP1 RETURN JUMPDEST CALLVALUE DUP1 ISZERO PUSH2 0x380 JUMPI PUSH1 0x0 DUP1 REVERT JUMPDEST POP PUSH2 0x39B PUSH1 0x4 DUP1 CALLDATASIZE SUB DUP2 ADD SWAP1 PUSH2 0x396 SWAP2 SWAP1 PUSH2 0x2569 JUMP JUMPDEST PUSH2 0xAE4 JUMP JUMPDEST STOP JUMPDEST CALLVALUE DUP1 ISZERO PUSH2 0x3A9 JUMPI PUSH1 0x0 DUP1 REVERT JUMPDEST POP PUSH2 0x3C4 PUSH1 0x4 DUP1 CALLDATASIZE SUB DUP2 ADD SWAP1 PUSH2 0x3BF SWAP2 SWAP1 PUSH2 0x2569 JUMP JUMPDEST PUSH2 0xAF6 JUMP JUMPDEST PUSH1 0x40 MLOAD PUSH2 0x3D1 SWAP2 SWAP1 PUSH2 0x25A5 JUMP JUMPDEST PUSH1 0x40 MLOAD DUP1 SWAP2 SUB SWAP1 RETURN JUMPDEST CALLVALUE DUP1 ISZERO PUSH2 0x3E6 JUMPI PUSH1 0x0 DUP1 REVERT JUMPDEST POP PUSH2 0x401 PUSH1 0x4 DUP1 CALLDATASIZE SUB DUP2 ADD SWAP1 PUSH2 0x3FC SWAP2 SWAP1 PUSH2 0x2652 JUMP JUMPDEST PUSH2 0xB03 JUMP JUMPDEST PUSH1 0x40 MLOAD PUSH2 0x40E SWAP2 SWAP1 PUSH2 0x25A5 JUMP JUMPDEST PUSH1 0x40 MLOAD DUP1 SWAP2 SUB SWAP1 RETURN JUMPDEST CALLVALUE DUP1 ISZERO PUSH2 0x423 JUMPI PUSH1 0x0 DUP1 REVERT JUMPDEST POP PUSH2 0x42C PUSH2 0xB28 JUMP JUMPDEST PUSH1 0x40 MLOAD PUSH2 0x439 SWAP2 SWAP1 PUSH2 0x2750 JUMP JUMPDEST PUSH1 0x40 MLOAD DUP1 SWAP2 SUB SWAP1 RETURN JUMPDEST CALLVALUE DUP1 ISZERO PUSH2 0x44E JUMPI PUSH1 0x0 DUP1 REVERT JUMPDEST POP PUSH2 0x469 PUSH1 0x4 DUP1 CALLDATASIZE SUB DUP2 ADD SWAP1 PUSH2 0x464 SWAP2 SWAP1 PUSH2 0x2569 JUMP JUMPDEST PUSH2 0xD26 JUMP JUMPDEST STOP JUMPDEST PUSH2 0x485 PUSH1 0x4 DUP1 CALLDATASIZE SUB DUP2 ADD SWAP1 PUSH2 0x480 SWAP2 SWAP1 PUSH2 0x27FC JUMP JUMPDEST PUSH2 0xE00 JUMP JUMPDEST STOP JUMPDEST CALLVALUE DUP1 ISZERO PUSH2 0x493 JUMPI PUSH1 0x0 DUP1 REVERT JUMPDEST POP PUSH2 0x49C PUSH2 0x102F JUMP JUMPDEST PUSH1 0x40 MLOAD PUSH2 0x4A9 SWAP2 SWAP1 PUSH2 0x289F JUMP JUMPDEST PUSH1 0x40 MLOAD DUP1 SWAP2 SUB SWAP1 RETURN JUMPDEST CALLVALUE DUP1 ISZERO PUSH2 0x4BE JUMPI PUSH1 0x0 DUP1 REVERT JUMPDEST POP PUSH2 0x4D9 PUSH1 0x4 DUP1 CALLDATASIZE SUB DUP2 ADD SWAP1 PUSH2 0x4D4 SWAP2 SWAP1 PUSH2 0x28E6 JUMP JUMPDEST PUSH2 0x103C JUMP JUMPDEST STOP JUMPDEST CALLVALUE DUP1 ISZERO PUSH2 0x4E7 JUMPI PUSH1 0x0 DUP1 REVERT JUMPDEST POP PUSH2 0x4F0 PUSH2 0x104E JUMP JUMPDEST PUSH1 0x40 MLOAD PUSH2 0x4FD SWAP2 SWAP1 PUSH2 0x25A5 JUMP JUMPDEST PUSH1 0x40 MLOAD DUP1 SWAP2 SUB SWAP1 RETURN JUMPDEST CALLVALUE DUP1 ISZERO PUSH2 0x512 JUMPI PUSH1 0x0 DUP1 REVERT JUMPDEST POP PUSH2 0x51B PUSH2 0x1147 JUMP JUMPDEST PUSH1 0x40 MLOAD PUSH2 0x528 SWAP2 SWAP1 PUSH2 0x25A5 JUMP JUMPDEST PUSH1 0x40 MLOAD DUP1 SWAP2 SUB SWAP1 RETURN JUMPDEST PUSH2 0x54B PUSH1 0x4 DUP1 CALLDATASIZE SUB DUP2 ADD SWAP1 PUSH2 0x546 SWAP2 SWAP1 PUSH2 0x27FC JUMP JUMPDEST PUSH2 0x1228 JUMP JUMPDEST STOP JUMPDEST CALLVALUE DUP1 ISZERO PUSH2 0x559 JUMPI PUSH1 0x0 DUP1 REVERT JUMPDEST POP PUSH2 0x562 PUSH2 0x14F3 JUMP JUMPDEST PUSH1 0x40 MLOAD PUSH2 0x56F SWAP2 SWAP1 PUSH2 0x25D9 JUMP JUMPDEST PUSH1 0x40 MLOAD DUP1 SWAP2 SUB SWAP1 RETURN JUMPDEST CALLVALUE DUP1 ISZERO PUSH2 0x584 JUMPI PUSH1 0x0 DUP1 REVERT JUMPDEST POP PUSH2 0x58D PUSH2 0x14F9 JUMP JUMPDEST PUSH1 0x40 MLOAD PUSH2 0x59A SWAP2 SWAP1 PUSH2 0x25A5 JUMP JUMPDEST PUSH1 0x40 MLOAD DUP1 SWAP2 SUB SWAP1 RETURN JUMPDEST CALLVALUE DUP1 ISZERO PUSH2 0x5AF JUMPI PUSH1 0x0 DUP1 REVERT JUMPDEST POP PUSH2 0x5CA PUSH1 0x4 DUP1 CALLDATASIZE SUB DUP2 ADD SWAP1 PUSH2 0x5C5 SWAP2 SWAP1 PUSH2 0x2569 JUMP JUMPDEST PUSH2 0x14FF JUMP JUMPDEST STOP JUMPDEST CALLVALUE DUP1 ISZERO PUSH2 0x5D8 JUMPI PUSH1 0x0 DUP1 REVERT JUMPDEST POP PUSH2 0x5F3 PUSH1 0x4 DUP1 CALLDATASIZE SUB DUP2 ADD SWAP1 PUSH2 0x5EE SWAP2 SWAP1 PUSH2 0x2569 JUMP JUMPDEST PUSH2 0x1511 JUMP JUMPDEST STOP JUMPDEST CALLVALUE DUP1 ISZERO PUSH2 0x601 JUMPI PUSH1 0x0 DUP1 REVERT JUMPDEST POP PUSH2 0x60A PUSH2 0x1523 JUMP JUMPDEST STOP JUMPDEST CALLVALUE DUP1 ISZERO PUSH2 0x618 JUMPI PUSH1 0x0 DUP1 REVERT JUMPDEST POP PUSH2 0x633 PUSH1 0x4 DUP1 CALLDATASIZE SUB DUP2 ADD SWAP1 PUSH2 0x62E SWAP2 SWAP1 PUSH2 0x2652 JUMP JUMPDEST PUSH2 0x1537 JUMP JUMPDEST PUSH1 0x40 MLOAD PUSH2 0x640 SWAP2 SWAP1 PUSH2 0x25A5 JUMP JUMPDEST PUSH1 0x40 MLOAD DUP1 SWAP2 SUB SWAP1 RETURN JUMPDEST CALLVALUE DUP1 ISZERO PUSH2 0x655 JUMPI PUSH1 0x0 DUP1 REVERT JUMPDEST POP PUSH2 0x670 PUSH1 0x4 DUP1 CALLDATASIZE SUB DUP2 ADD SWAP1 PUSH2 0x66B SWAP2 SWAP1 PUSH2 0x2913 JUMP JUMPDEST PUSH2 0x155C JUMP JUMPDEST PUSH1 0x40 MLOAD PUSH2 0x67D SWAP2 SWAP1 PUSH2 0x289F JUMP JUMPDEST PUSH1 0x40 MLOAD DUP1 SWAP2 SUB SWAP1 RETURN JUMPDEST CALLVALUE DUP1 ISZERO PUSH2 0x692 JUMPI PUSH1 0x0 DUP1 REVERT JUMPDEST POP PUSH2 0x69B PUSH2 0x1659 JUMP JUMPDEST STOP JUMPDEST CALLVALUE DUP1 ISZERO PUSH2 0x6A9 JUMPI PUSH1 0x0 DUP1 REVERT JUMPDEST POP PUSH2 0x6C4 PUSH1 0x4 DUP1 CALLDATASIZE SUB DUP2 ADD SWAP1 PUSH2 0x6BF SWAP2 SWAP1 PUSH2 0x29C5 JUMP JUMPDEST PUSH2 0x1732 JUMP JUMPDEST STOP JUMPDEST CALLVALUE DUP1 ISZERO PUSH2 0x6D2 JUMPI PUSH1 0x0 DUP1 REVERT JUMPDEST POP PUSH2 0x6DB PUSH2 0x177E JUMP JUMPDEST PUSH1 0x40 MLOAD PUSH2 0x6E8 SWAP2 SWAP1 PUSH2 0x289F JUMP JUMPDEST PUSH1 0x40 MLOAD DUP1 SWAP2 SUB SWAP1 RETURN JUMPDEST CALLVALUE DUP1 ISZERO PUSH2 0x6FD JUMPI PUSH1 0x0 DUP1 REVERT JUMPDEST POP PUSH2 0x706 PUSH2 0x178B JUMP JUMPDEST PUSH1 0x40 MLOAD PUSH2 0x713 SWAP2 SWAP1 PUSH2 0x25A5 JUMP JUMPDEST PUSH1 0x40 MLOAD DUP1 SWAP2 SUB SWAP1 RETURN JUMPDEST CALLVALUE DUP1 ISZERO PUSH2 0x728 JUMPI PUSH1 0x0 DUP1 REVERT JUMPDEST POP PUSH2 0x731 PUSH2 0x1791 JUMP JUMPDEST PUSH1 0x40 MLOAD PUSH2 0x73E SWAP2 SWAP1 PUSH2 0x2A01 JUMP JUMPDEST PUSH1 0x40 MLOAD DUP1 SWAP2 SUB SWAP1 RETURN JUMPDEST CALLVALUE DUP1 ISZERO PUSH2 0x753 JUMPI PUSH1 0x0 DUP1 REVERT JUMPDEST POP PUSH2 0x76E PUSH1 0x4 DUP1 CALLDATASIZE SUB DUP2 ADD SWAP1 PUSH2 0x769 SWAP2 SWAP1 PUSH2 0x2569 JUMP JUMPDEST PUSH2 0x17BA JUMP JUMPDEST STOP JUMPDEST CALLVALUE DUP1 ISZERO PUSH2 0x77C JUMPI PUSH1 0x0 DUP1 REVERT JUMPDEST POP PUSH2 0x785 PUSH2 0x180B JUMP JUMPDEST PUSH1 0x40 MLOAD PUSH2 0x792 SWAP2 SWAP1 PUSH2 0x289F JUMP JUMPDEST PUSH1 0x40 MLOAD DUP1 SWAP2 SUB SWAP1 RETURN JUMPDEST CALLVALUE DUP1 ISZERO PUSH2 0x7A7 JUMPI PUSH1 0x0 DUP1 REVERT JUMPDEST POP PUSH2 0x7C2 PUSH1 0x4 DUP1 CALLDATASIZE SUB DUP2 ADD SWAP1 PUSH2 0x7BD SWAP2 SWAP1 PUSH2 0x2569 JUMP JUMPDEST PUSH2 0x1818 JUMP JUMPDEST PUSH1 0x40 MLOAD PUSH2 0x7CF SWAP2 SWAP1 PUSH2 0x25A5 JUMP JUMPDEST PUSH1 0x40 MLOAD DUP1 SWAP2 SUB SWAP1 RETURN JUMPDEST CALLVALUE DUP1 ISZERO PUSH2 0x7E4 JUMPI PUSH1 0x0 DUP1 REVERT JUMPDEST POP PUSH2 0x7FF PUSH1 0x4 DUP1 CALLDATASIZE SUB DUP2 ADD SWAP1 PUSH2 0x7FA SWAP2 SWAP1 PUSH2 0x2A5A JUMP JUMPDEST PUSH2 0x183C JUMP JUMPDEST STOP JUMPDEST CALLVALUE DUP1 ISZERO PUSH2 0x80D JUMPI PUSH1 0x0 DUP1 REVERT JUMPDEST POP PUSH2 0x816 PUSH2 0x192D JUMP JUMPDEST PUSH1 0x40 MLOAD PUSH2 0x823 SWAP2 SWAP1 PUSH2 0x2AF9 JUMP JUMPDEST PUSH1 0x40 MLOAD DUP1 SWAP2 SUB SWAP1 RETURN JUMPDEST CALLVALUE DUP1 ISZERO PUSH2 0x838 JUMPI PUSH1 0x0 DUP1 REVERT JUMPDEST POP PUSH2 0x853 PUSH1 0x4 DUP1 CALLDATASIZE SUB DUP2 ADD SWAP1 PUSH2 0x84E SWAP2 SWAP1 PUSH2 0x2BC0 JUMP JUMPDEST PUSH2 0x1953 JUMP JUMPDEST STOP JUMPDEST CALLVALUE DUP1 ISZERO PUSH2 0x861 JUMPI PUSH1 0x0 DUP1 REVERT JUMPDEST POP PUSH2 0x86A PUSH2 0x1A23 JUMP JUMPDEST PUSH1 0x40 MLOAD PUSH2 0x877 SWAP2 SWAP1 PUSH2 0x25A5 JUMP JUMPDEST PUSH1 0x40 MLOAD DUP1 SWAP2 SUB SWAP1 RETURN JUMPDEST CALLVALUE DUP1 ISZERO PUSH2 0x88C JUMPI PUSH1 0x0 DUP1 REVERT JUMPDEST POP PUSH2 0x8A7 PUSH1 0x4 DUP1 CALLDATASIZE SUB DUP2 ADD SWAP1 PUSH2 0x8A2 SWAP2 SWAP1 PUSH2 0x2569 JUMP JUMPDEST PUSH2 0x1A2D JUMP JUMPDEST STOP JUMPDEST CALLVALUE DUP1 ISZERO PUSH2 0x8B5 JUMPI PUSH1 0x0 DUP1 REVERT JUMPDEST POP PUSH2 0x8D0 PUSH1 0x4 DUP1 CALLDATASIZE SUB DUP2 ADD SWAP1 PUSH2 0x8CB SWAP2 SWAP1 PUSH2 0x2C7F JUMP JUMPDEST PUSH2 0x1A7E JUMP JUMPDEST STOP JUMPDEST CALLVALUE DUP1 ISZERO PUSH2 0x8DE JUMPI PUSH1 0x0 DUP1 REVERT JUMPDEST POP PUSH2 0x8E7 PUSH2 0x1ACA JUMP JUMPDEST PUSH1 0x40 MLOAD PUSH2 0x8F4 SWAP2 SWAP1 PUSH2 0x25A5 JUMP JUMPDEST PUSH1 0x40 MLOAD DUP1 SWAP2 SUB SWAP1 RETURN JUMPDEST CALLVALUE DUP1 ISZERO PUSH2 0x909 JUMPI PUSH1 0x0 DUP1 REVERT JUMPDEST POP PUSH2 0x924 PUSH1 0x4 DUP1 CALLDATASIZE SUB DUP2 ADD SWAP1 PUSH2 0x91F SWAP2 SWAP1 PUSH2 0x28E6 JUMP JUMPDEST PUSH2 0x1BE8 JUMP JUMPDEST STOP JUMPDEST CALLVALUE DUP1 ISZERO PUSH2 0x932 JUMPI PUSH1 0x0 DUP1 REVERT JUMPDEST POP PUSH2 0x94D PUSH1 0x4 DUP1 CALLDATASIZE SUB DUP2 ADD SWAP1 PUSH2 0x948 SWAP2 SWAP1 PUSH2 0x2D02 JUMP JUMPDEST PUSH2 0x1BFA JUMP JUMPDEST STOP JUMPDEST CALLVALUE DUP1 ISZERO PUSH2 0x95B JUMPI PUSH1 0x0 DUP1 REVERT JUMPDEST POP PUSH2 0x976 PUSH1 0x4 DUP1 CALLDATASIZE SUB DUP2 ADD SWAP1 PUSH2 0x971 SWAP2 SWAP1 PUSH2 0x28E6 JUMP JUMPDEST PUSH2 0x1CA5 JUMP JUMPDEST STOP JUMPDEST CALLVALUE DUP1 ISZERO PUSH2 0x984 JUMPI PUSH1 0x0 DUP1 REVERT JUMPDEST POP PUSH2 0x98D PUSH2 0x1CB7 JUMP JUMPDEST PUSH1 0x40 MLOAD PUSH2 0x99A SWAP2 SWAP1 PUSH2 0x25A5 JUMP JUMPDEST PUSH1 0x40 MLOAD DUP1 SWAP2 SUB SWAP1 RETURN JUMPDEST CALLVALUE DUP1 ISZERO PUSH2 0x9AF JUMPI PUSH1 0x0 DUP1 REVERT JUMPDEST POP PUSH2 0x9B8 PUSH2 0x1CBD JUMP JUMPDEST PUSH1 0x40 MLOAD PUSH2 0x9C5 SWAP2 SWAP1 PUSH2 0x25A5 JUMP JUMPDEST PUSH1 0x40 MLOAD DUP1 SWAP2 SUB SWAP1 RETURN JUMPDEST PUSH2 0x9E8 PUSH1 0x4 DUP1 CALLDATASIZE SUB DUP2 ADD SWAP1 PUSH2 0x9E3 SWAP2 SWAP1 PUSH2 0x2D4F JUMP JUMPDEST PUSH2 0x1CC7 JUMP JUMPDEST STOP JUMPDEST CALLVALUE DUP1 ISZERO PUSH2 0x9F6 JUMPI PUSH1 0x0 DUP1 REVERT JUMPDEST POP PUSH2 0xA11 PUSH1 0x4 DUP1 CALLDATASIZE SUB DUP2 ADD SWAP1 PUSH2 0xA0C SWAP2 SWAP1 PUSH2 0x2D8F JUMP JUMPDEST PUSH2 0x1D7A JUMP JUMPDEST STOP JUMPDEST CALLVALUE DUP1 ISZERO PUSH2 0xA1F JUMPI PUSH1 0x0 DUP1 REVERT JUMPDEST POP PUSH2 0xA28 PUSH2 0x1DFD JUMP JUMPDEST PUSH1 0x40 MLOAD PUSH2 0xA35 SWAP2 SWAP1 PUSH2 0x25A5 JUMP JUMPDEST PUSH1 0x40 MLOAD DUP1 SWAP2 SUB SWAP1 RETURN JUMPDEST CALLVALUE DUP1 ISZERO PUSH2 0xA4A JUMPI PUSH1 0x0 DUP1 REVERT JUMPDEST POP PUSH2 0xA53 PUSH2 0x1E03 JUMP JUMPDEST PUSH1 0x40 MLOAD PUSH2 0xA60 SWAP2 SWAP1 PUSH2 0x2DCB JUMP JUMPDEST PUSH1 0x40 MLOAD DUP1 SWAP2 SUB SWAP1 RETURN JUMPDEST PUSH1 0xF PUSH1 0x20 MSTORE DUP1 PUSH1 0x0 MSTORE PUSH1 0x40 PUSH1 0x0 KECCAK256 PUSH1 0x0 SWAP2 POP SWAP1 POP SLOAD DUP2 JUMP JUMPDEST PUSH1 0x8 SLOAD DUP2 JUMP JUMPDEST PUSH1 0xD SLOAD DUP2 JUMP JUMPDEST PUSH2 0xA95 PUSH2 0x1E29 JUMP JUMPDEST PUSH2 0xA9D PUSH2 0x180B JUMP JUMPDEST ISZERO PUSH2 0xAD4 JUMPI PUSH1 0x40 MLOAD PUSH32 0xF2A84B6300000000000000000000000000000000000000000000000000000000 DUP2 MSTORE PUSH1 0x4 ADD PUSH1 0x40 MLOAD DUP1 SWAP2 SUB SWAP1 REVERT JUMPDEST DUP1 PUSH1 0x4 DUP2 SWAP1 SSTORE POP POP JUMP JUMPDEST PUSH1 0xE SLOAD DUP2 JUMP JUMPDEST PUSH2 0xAEC PUSH2 0x1E29 JUMP JUMPDEST DUP1 PUSH1 0xB DUP2 SWAP1 SSTORE POP POP JUMP JUMPDEST PUSH1 0x0 PUSH1 0xFF DUP3 AND SWAP1 POP SWAP2 SWAP1 POP JUMP JUMPDEST PUSH1 0x11 PUSH1 0x20 MSTORE DUP2 PUSH1 0x0 MSTORE PUSH1 0x40 PUSH1 0x0 KECCAK256 PUSH1 0x20 MSTORE DUP1 PUSH1 0x0 MSTORE PUSH1 0x40 PUSH1 0x0 KECCAK256 PUSH1 0x0 SWAP2 POP SWAP2 POP POP SLOAD DUP2 JUMP JUMPDEST PUSH1 0x60 PUSH1 0x0 PUSH1 0x8 PUSH8 0xFFFFFFFFFFFFFFFF DUP2 GT ISZERO PUSH2 0xB47 JUMPI PUSH2 0xB46 PUSH2 0x2DE6 JUMP JUMPDEST JUMPDEST PUSH1 0x40 MLOAD SWAP1 DUP1 DUP3 MSTORE DUP1 PUSH1 0x20 MUL PUSH1 0x20 ADD DUP3 ADD PUSH1 0x40 MSTORE DUP1 ISZERO PUSH2 0xB75 JUMPI DUP2 PUSH1 0x20 ADD PUSH1 0x20 DUP3 MUL DUP1 CALLDATASIZE DUP4 CALLDATACOPY DUP1 DUP3 ADD SWAP2 POP POP SWAP1 POP JUMPDEST POP SWAP1 POP PUSH1 0xF PUSH1 0x0 DUP1 DUP2 MSTORE PUSH1 0x20 ADD SWAP1 DUP2 MSTORE PUSH1 0x20 ADD PUSH1 0x0 KECCAK256 SLOAD DUP2 PUSH1 0x0 DUP2 MLOAD DUP2 LT PUSH2 0xBA0 JUMPI PUSH2 0xB9F PUSH2 0x2E15 JUMP JUMPDEST JUMPDEST PUSH1 0x20 MUL PUSH1 0x20 ADD ADD DUP2 DUP2 MSTORE POP POP PUSH1 0xF PUSH1 0x0 PUSH1 0x1 DUP2 MSTORE PUSH1 0x20 ADD SWAP1 DUP2 MSTORE PUSH1 0x20 ADD PUSH1 0x0 KECCAK256 SLOAD DUP2 PUSH1 0x1 DUP2 MLOAD DUP2 LT PUSH2 0xBD5 JUMPI PUSH2 0xBD4 PUSH2 0x2E15 JUMP JUMPDEST JUMPDEST PUSH1 0x20 MUL PUSH1 0x20 ADD ADD DUP2 DUP2 MSTORE POP POP PUSH1 0xF PUSH1 0x0 PUSH1 0x2 DUP2 MSTORE PUSH1 0x20 ADD SWAP1 DUP2 MSTORE PUSH1 0x20 ADD PUSH1 0x0 KECCAK256 SLOAD DUP2 PUSH1 0x2 DUP2 MLOAD DUP2 LT PUSH2 0xC0A JUMPI PUSH2 0xC09 PUSH2 0x2E15 JUMP JUMPDEST JUMPDEST PUSH1 0x20 MUL PUSH1 0x20 ADD ADD DUP2 DUP2 MSTORE POP POP PUSH1 0xF PUSH1 0x0 PUSH1 0x3 DUP2 MSTORE PUSH1 0x20 ADD SWAP1 DUP2 MSTORE PUSH1 0x20 ADD PUSH1 0x0 KECCAK256 SLOAD DUP2 PUSH1 0x3 DUP2 MLOAD DUP2 LT PUSH2 0xC3F JUMPI PUSH2 0xC3E PUSH2 0x2E15 JUMP JUMPDEST JUMPDEST PUSH1 0x20 MUL PUSH1 0x20 ADD ADD DUP2 DUP2 MSTORE POP POP PUSH1 0xF PUSH1 0x0 PUSH1 0x4 DUP2 MSTORE PUSH1 0x20 ADD SWAP1 DUP2 MSTORE PUSH1 0x20 ADD PUSH1 0x0 KECCAK256 SLOAD DUP2 PUSH1 0x4 DUP2 MLOAD DUP2 LT PUSH2 0xC74 JUMPI PUSH2 0xC73 PUSH2 0x2E15 JUMP JUMPDEST JUMPDEST PUSH1 0x20 MUL PUSH1 0x20 ADD ADD DUP2 DUP2 MSTORE POP POP PUSH1 0xF PUSH1 0x0 PUSH1 0x5 DUP2 MSTORE PUSH1 0x20 ADD SWAP1 DUP2 MSTORE PUSH1 0x20 ADD PUSH1 0x0 KECCAK256 SLOAD DUP2 PUSH1 0x5 DUP2 MLOAD DUP2 LT PUSH2 0xCA9 JUMPI PUSH2 0xCA8 PUSH2 0x2E15 JUMP JUMPDEST JUMPDEST PUSH1 0x20 MUL PUSH1 0x20 ADD ADD DUP2 DUP2 MSTORE POP POP PUSH1 0xF PUSH1 0x0 PUSH1 0x6 DUP2 MSTORE PUSH1 0x20 ADD SWAP1 DUP2 MSTORE PUSH1 0x20 ADD PUSH1 0x0 KECCAK256 SLOAD DUP2 PUSH1 0x6 DUP2 MLOAD DUP2 LT PUSH2 0xCDE JUMPI PUSH2 0xCDD PUSH2 0x2E15 JUMP JUMPDEST JUMPDEST PUSH1 0x20 MUL PUSH1 0x20 ADD ADD DUP2 DUP2 MSTORE POP POP PUSH1 0xF PUSH1 0x0 PUSH1 0x7 DUP2 MSTORE PUSH1 0x20 ADD SWAP1 DUP2 MSTORE PUSH1 0x20 ADD PUSH1 0x0 KECCAK256 SLOAD DUP2 PUSH1 0x7 DUP2 MLOAD DUP2 LT PUSH2 0xD13 JUMPI PUSH2 0xD12 PUSH2 0x2E15 JUMP JUMPDEST JUMPDEST PUSH1 0x20 MUL PUSH1 0x20 ADD ADD DUP2 DUP2 MSTORE POP POP DUP1 SWAP2 POP POP SWAP1 JUMP JUMPDEST PUSH2 0xD2E PUSH2 0x1E29 JUMP JUMPDEST PUSH1 0x0 PUSH1 0x3 PUSH1 0x0 SWAP1 SLOAD SWAP1 PUSH2 0x100 EXP SWAP1 DIV PUSH20 0xFFFFFFFFFFFFFFFFFFFFFFFFFFFFFFFFFFFFFFFF AND PUSH20 0xFFFFFFFFFFFFFFFFFFFFFFFFFFFFFFFFFFFFFFFF AND DUP3 PUSH1 0x40 MLOAD PUSH2 0xD76 SWAP1 PUSH2 0x2E75 JUMP JUMPDEST PUSH1 0x0 PUSH1 0x40 MLOAD DUP1 DUP4 SUB DUP2 DUP6 DUP8 GAS CALL SWAP3 POP POP POP RETURNDATASIZE DUP1 PUSH1 0x0 DUP2 EQ PUSH2 0xDB3 JUMPI PUSH1 0x40 MLOAD SWAP2 POP PUSH1 0x1F NOT PUSH1 0x3F RETURNDATASIZE ADD AND DUP3 ADD PUSH1 0x40 MSTORE RETURNDATASIZE DUP3 MSTORE RETURNDATASIZE PUSH1 0x0 PUSH1 0x20 DUP5 ADD RETURNDATACOPY PUSH2 0xDB8 JUMP JUMPDEST PUSH1 0x60 SWAP2 POP JUMPDEST POP POP SWAP1 POP DUP1 PUSH2 0xDFC JUMPI PUSH1 0x40 MLOAD PUSH32 0x8C379A000000000000000000000000000000000000000000000000000000000 DUP2 MSTORE PUSH1 0x4 ADD PUSH2 0xDF3 SWAP1 PUSH2 0x2EE7 JUMP JUMPDEST PUSH1 0x40 MLOAD DUP1 SWAP2 SUB SWAP1 REVERT JUMPDEST POP POP JUMP JUMPDEST PUSH2 0xE08 PUSH2 0x1EA7 JUMP JUMPDEST PUSH2 0xE10 PUSH2 0x102F JUMP JUMPDEST PUSH2 0xE55 JUMPI PUSH1 0xB SLOAD TIMESTAMP PUSH1 0x40 MLOAD PUSH32 0x66803FC100000000000000000000000000000000000000000000000000000000 DUP2 MSTORE PUSH1 0x4 ADD PUSH2 0xE4C SWAP3 SWAP2 SWAP1 PUSH2 0x2F07 JUMP JUMPDEST PUSH1 0x40 MLOAD DUP1 SWAP2 SUB SWAP1 REVERT JUMPDEST PUSH1 0x0 CALLER DUP7 PUSH1 0x7 DUP2 GT ISZERO PUSH2 0xE6B JUMPI PUSH2 0xE6A PUSH2 0x2F30 JUMP JUMPDEST JUMPDEST DUP6 PUSH1 0x40 MLOAD PUSH1 0x20 ADD PUSH2 0xE7E SWAP4 SWAP3 SWAP2 SWAP1 PUSH2 0x301F JUMP JUMPDEST PUSH1 0x40 MLOAD PUSH1 0x20 DUP2 DUP4 SUB SUB DUP2 MSTORE SWAP1 PUSH1 0x40 MSTORE DUP1 MLOAD SWAP1 PUSH1 0x20 ADD KECCAK256 SWAP1 POP PUSH2 0xEE4 DUP4 DUP4 DUP1 DUP1 PUSH1 0x20 MUL PUSH1 0x20 ADD PUSH1 0x40 MLOAD SWAP1 DUP2 ADD PUSH1 0x40 MSTORE DUP1 SWAP4 SWAP3 SWAP2 SWAP1 DUP2 DUP2 MSTORE PUSH1 0x20 ADD DUP4 DUP4 PUSH1 0x20 MUL DUP1 DUP3 DUP5 CALLDATACOPY PUSH1 0x0 DUP2 DUP5 ADD MSTORE PUSH1 0x1F NOT PUSH1 0x1F DUP3 ADD AND SWAP1 POP DUP1 DUP4 ADD SWAP3 POP POP POP POP POP POP POP PUSH1 0xE SLOAD DUP4 PUSH2 0x1EF6 JUMP JUMPDEST PUSH2 0xF23 JUMPI PUSH1 0x40 MLOAD PUSH32 0x8C379A000000000000000000000000000000000000000000000000000000000 DUP2 MSTORE PUSH1 0x4 ADD PUSH2 0xF1A SWAP1 PUSH2 0x30BE JUMP JUMPDEST PUSH1 0x40 MLOAD DUP1 SWAP2 SUB SWAP1 REVERT JUMPDEST PUSH1 0x0 PUSH1 0x11 PUSH1 0x0 CALLER PUSH20 0xFFFFFFFFFFFFFFFFFFFFFFFFFFFFFFFFFFFFFFFF AND PUSH20 0xFFFFFFFFFFFFFFFFFFFFFFFFFFFFFFFFFFFFFFFF AND DUP2 MSTORE PUSH1 0x20 ADD SWAP1 DUP2 MSTORE PUSH1 0x20 ADD PUSH1 0x0 KECCAK256 SWAP1 POP DUP5 DUP7 DUP3 PUSH1 0x0 DUP11 PUSH1 0x7 DUP2 GT ISZERO PUSH2 0xF7E JUMPI PUSH2 0xF7D PUSH2 0x2F30 JUMP JUMPDEST JUMPDEST DUP2 MSTORE PUSH1 0x20 ADD SWAP1 DUP2 MSTORE PUSH1 0x20 ADD PUSH1 0x0 KECCAK256 SLOAD PUSH2 0xF97 SWAP2 SWAP1 PUSH2 0x310D JUMP JUMPDEST GT ISZERO PUSH2 0xFD8 JUMPI PUSH1 0x40 MLOAD PUSH32 0x8C379A000000000000000000000000000000000000000000000000000000000 DUP2 MSTORE PUSH1 0x4 ADD PUSH2 0xFCF SWAP1 PUSH2 0x318D JUMP JUMPDEST PUSH1 0x40 MLOAD DUP1 SWAP2 SUB SWAP1 REVERT JUMPDEST DUP6 DUP2 PUSH1 0x0 DUP10 PUSH1 0x7 DUP2 GT ISZERO PUSH2 0xFEF JUMPI PUSH2 0xFEE PUSH2 0x2F30 JUMP JUMPDEST JUMPDEST DUP2 MSTORE PUSH1 0x20 ADD SWAP1 DUP2 MSTORE PUSH1 0x20 ADD PUSH1 0x0 KECCAK256 PUSH1 0x0 DUP3 DUP3 SLOAD PUSH2 0x100C SWAP2 SWAP1 PUSH2 0x310D JUMP JUMPDEST SWAP3 POP POP DUP2 SWAP1 SSTORE POP PUSH2 0x101E DUP8 DUP8 CALLER PUSH2 0x1F0D JUMP JUMPDEST POP POP PUSH2 0x1028 PUSH2 0x207C JUMP JUMPDEST POP POP POP POP POP JUMP JUMPDEST PUSH1 0x0 PUSH1 0xB SLOAD TIMESTAMP LT ISZERO SWAP1 POP SWAP1 JUMP JUMPDEST PUSH2 0x1044 PUSH2 0x1E29 JUMP JUMPDEST DUP1 PUSH1 0xE DUP2 SWAP1 SSTORE POP POP JUMP JUMPDEST PUSH1 0x0 DUP1 PUSH1 0xF PUSH1 0x0 PUSH1 0x7 DUP2 MSTORE PUSH1 0x20 ADD SWAP1 DUP2 MSTORE PUSH1 0x20 ADD PUSH1 0x0 KECCAK256 SLOAD PUSH1 0xF PUSH1 0x0 PUSH1 0x6 DUP2 MSTORE PUSH1 0x20 ADD SWAP1 DUP2 MSTORE PUSH1 0x20 ADD PUSH1 0x0 KECCAK256 SLOAD PUSH1 0xF PUSH1 0x0 PUSH1 0x5 DUP2 MSTORE PUSH1 0x20 ADD SWAP1 DUP2 MSTORE PUSH1 0x20 ADD PUSH1 0x0 KECCAK256 SLOAD PUSH1 0xF PUSH1 0x0 PUSH1 0x4 DUP2 MSTORE PUSH1 0x20 ADD SWAP1 DUP2 MSTORE PUSH1 0x20 ADD PUSH1 0x0 KECCAK256 SLOAD PUSH1 0xF PUSH1 0x0 PUSH1 0x3 DUP2 MSTORE PUSH1 0x20 ADD SWAP1 DUP2 MSTORE PUSH1 0x20 ADD PUSH1 0x0 KECCAK256 SLOAD PUSH1 0xF PUSH1 0x0 PUSH1 0x2 DUP2 MSTORE PUSH1 0x20 ADD SWAP1 DUP2 MSTORE PUSH1 0x20 ADD PUSH1 0x0 KECCAK256 SLOAD PUSH1 0xF PUSH1 0x0 PUSH1 0x1 DUP2 MSTORE PUSH1 0x20 ADD SWAP1 DUP2 MSTORE PUSH1 0x20 ADD PUSH1 0x0 KECCAK256 SLOAD PUSH1 0xF PUSH1 0x0 DUP1 DUP2 MSTORE PUSH1 0x20 ADD SWAP1 DUP2 MSTORE PUSH1 0x20 ADD PUSH1 0x0 KECCAK256 SLOAD PUSH2 0x1102 SWAP2 SWAP1 PUSH2 0x310D JUMP JUMPDEST PUSH2 0x110C SWAP2 SWAP1 PUSH2 0x310D JUMP JUMPDEST PUSH2 0x1116 SWAP2 SWAP1 PUSH2 0x310D JUMP JUMPDEST PUSH2 0x1120 SWAP2 SWAP1 PUSH2 0x310D JUMP JUMPDEST PUSH2 0x112A SWAP2 SWAP1 PUSH2 0x310D JUMP JUMPDEST PUSH2 0x1134 SWAP2 SWAP1 PUSH2 0x310D JUMP JUMPDEST PUSH2 0x113E SWAP2 SWAP1 PUSH2 0x310D JUMP JUMPDEST SWAP1 POP DUP1 SWAP2 POP POP SWAP1 JUMP JUMPDEST PUSH1 0x0 DUP1 PUSH1 0x0 PUSH1 0x64 PUSH1 0x1 NUMBER PUSH2 0x115B SWAP2 SWAP1 PUSH2 0x31AD JUMP JUMPDEST BLOCKHASH PUSH1 0x0 SHR PUSH2 0x1169 SWAP2 SWAP1 PUSH2 0x3210 JUMP JUMPDEST SWAP1 POP PUSH1 0x1 DUP2 PUSH2 0x1178 SWAP2 SWAP1 PUSH2 0x310D JUMP JUMPDEST SWAP1 POP PUSH1 0x0 DUP1 PUSH1 0x5 PUSH1 0x0 DUP2 SLOAD DUP2 LT PUSH2 0x1192 JUMPI PUSH2 0x1191 PUSH2 0x2E15 JUMP JUMPDEST JUMPDEST SWAP1 PUSH1 0x0 MSTORE PUSH1 0x20 PUSH1 0x0 KECCAK256 ADD SLOAD SWAP1 POP DUP1 DUP4 GT PUSH2 0x11AB JUMPI PUSH1 0x0 SWAP4 POP JUMPDEST PUSH1 0x0 PUSH1 0x1 SWAP1 POP JUMPDEST PUSH1 0x5 DUP1 SLOAD SWAP1 POP DUP2 LT ISZERO PUSH2 0x121D JUMPI DUP2 SWAP3 POP PUSH1 0x5 DUP2 DUP2 SLOAD DUP2 LT PUSH2 0x11D6 JUMPI PUSH2 0x11D5 PUSH2 0x2E15 JUMP JUMPDEST JUMPDEST SWAP1 PUSH1 0x0 MSTORE PUSH1 0x20 PUSH1 0x0 KECCAK256 ADD SLOAD DUP3 PUSH2 0x11EC SWAP2 SWAP1 PUSH2 0x310D JUMP JUMPDEST SWAP2 POP DUP3 DUP5 GT DUP1 ISZERO PUSH2 0x11FD JUMPI POP DUP2 DUP5 GT ISZERO JUMPDEST ISZERO PUSH2 0x120A JUMPI DUP1 SWAP5 POP PUSH2 0x121D JUMP JUMPDEST DUP1 DUP1 PUSH2 0x1215 SWAP1 PUSH2 0x3241 JUMP JUMPDEST SWAP2 POP POP PUSH2 0x11B2 JUMP JUMPDEST POP DUP4 SWAP5 POP POP POP POP POP SWAP1 JUMP JUMPDEST PUSH2 0x1230 PUSH2 0x1EA7 JUMP JUMPDEST PUSH2 0x1238 PUSH2 0x180B JUMP JUMPDEST PUSH2 0x127D JUMPI PUSH1 0xA SLOAD TIMESTAMP PUSH1 0x40 MLOAD PUSH32 0x66803FC100000000000000000000000000000000000000000000000000000000 DUP2 MSTORE PUSH1 0x4 ADD PUSH2 0x1274 SWAP3 SWAP2 SWAP1 PUSH2 0x2F07 JUMP JUMPDEST PUSH1 0x40 MLOAD DUP1 SWAP2 SUB SWAP1 REVERT JUMPDEST PUSH1 0x0 DUP5 GT ISZERO DUP1 PUSH2 0x128D JUMPI POP PUSH1 0x14 DUP5 GT JUMPDEST ISZERO PUSH2 0x12C4 JUMPI PUSH1 0x40 MLOAD PUSH32 0xCA02D6EB00000000000000000000000000000000000000000000000000000000 DUP2 MSTORE PUSH1 0x4 ADD PUSH1 0x40 MLOAD DUP1 SWAP2 SUB SWAP1 REVERT JUMPDEST PUSH1 0x0 CALLER DUP7 PUSH1 0x7 DUP2 GT ISZERO PUSH2 0x12DA JUMPI PUSH2 0x12D9 PUSH2 0x2F30 JUMP JUMPDEST JUMPDEST DUP6 PUSH1 0x40 MLOAD PUSH1 0x20 ADD PUSH2 0x12ED SWAP4 SWAP3 SWAP2 SWAP1 PUSH2 0x301F JUMP JUMPDEST PUSH1 0x40 MLOAD PUSH1 0x20 DUP2 DUP4 SUB SUB DUP2 MSTORE SWAP1 PUSH1 0x40 MSTORE DUP1 MLOAD SWAP1 PUSH1 0x20 ADD KECCAK256 SWAP1 POP PUSH2 0x1353 DUP4 DUP4 DUP1 DUP1 PUSH1 0x20 MUL PUSH1 0x20 ADD PUSH1 0x40 MLOAD SWAP1 DUP2 ADD PUSH1 0x40 MSTORE DUP1 SWAP4 SWAP3 SWAP2 SWAP1 DUP2 DUP2 MSTORE PUSH1 0x20 ADD DUP4 DUP4 PUSH1 0x20 MUL DUP1 DUP3 DUP5 CALLDATACOPY PUSH1 0x0 DUP2 DUP5 ADD MSTORE PUSH1 0x1F NOT PUSH1 0x1F DUP3 ADD AND SWAP1 POP DUP1 DUP4 ADD SWAP3 POP POP POP POP POP POP POP PUSH1 0xC SLOAD DUP4 PUSH2 0x1EF6 JUMP JUMPDEST DUP1 PUSH2 0x13A8 JUMPI POP PUSH2 0x13A7 DUP4 DUP4 DUP1 DUP1 PUSH1 0x20 MUL PUSH1 0x20 ADD PUSH1 0x40 MLOAD SWAP1 DUP2 ADD PUSH1 0x40 MSTORE DUP1 SWAP4 SWAP3 SWAP2 SWAP1 DUP2 DUP2 MSTORE PUSH1 0x20 ADD DUP4 DUP4 PUSH1 0x20 MUL DUP1 DUP3 DUP5 CALLDATACOPY PUSH1 0x0 DUP2 DUP5 ADD MSTORE PUSH1 0x1F NOT PUSH1 0x1F DUP3 ADD AND SWAP1 POP DUP1 DUP4 ADD SWAP3 POP POP POP POP POP POP POP PUSH1 0xD SLOAD DUP4 PUSH2 0x1EF6 JUMP JUMPDEST JUMPDEST PUSH2 0x13E7 JUMPI PUSH1 0x40 MLOAD PUSH32 0x8C379A000000000000000000000000000000000000000000000000000000000 DUP2 MSTORE PUSH1 0x4 ADD PUSH2 0x13DE SWAP1 PUSH2 0x30BE JUMP JUMPDEST PUSH1 0x40 MLOAD DUP1 SWAP2 SUB SWAP1 REVERT JUMPDEST PUSH1 0x0 PUSH1 0x10 PUSH1 0x0 CALLER PUSH20 0xFFFFFFFFFFFFFFFFFFFFFFFFFFFFFFFFFFFFFFFF AND PUSH20 0xFFFFFFFFFFFFFFFFFFFFFFFFFFFFFFFFFFFFFFFF AND DUP2 MSTORE PUSH1 0x20 ADD SWAP1 DUP2 MSTORE PUSH1 0x20 ADD PUSH1 0x0 KECCAK256 SWAP1 POP DUP5 DUP7 DUP3 PUSH1 0x0 DUP11 PUSH1 0x7 DUP2 GT ISZERO PUSH2 0x1442 JUMPI PUSH2 0x1441 PUSH2 0x2F30 JUMP JUMPDEST JUMPDEST DUP2 MSTORE PUSH1 0x20 ADD SWAP1 DUP2 MSTORE PUSH1 0x20 ADD PUSH1 0x0 KECCAK256 SLOAD PUSH2 0x145B SWAP2 SWAP1 PUSH2 0x310D JUMP JUMPDEST GT ISZERO PUSH2 0x149C JUMPI PUSH1 0x40 MLOAD PUSH32 0x8C379A000000000000000000000000000000000000000000000000000000000 DUP2 MSTORE PUSH1 0x4 ADD PUSH2 0x1493 SWAP1 PUSH2 0x32D5 JUMP JUMPDEST PUSH1 0x40 MLOAD DUP1 SWAP2 SUB SWAP1 REVERT JUMPDEST DUP6 DUP2 PUSH1 0x0 DUP10 PUSH1 0x7 DUP2 GT ISZERO PUSH2 0x14B3 JUMPI PUSH2 0x14B2 PUSH2 0x2F30 JUMP JUMPDEST JUMPDEST DUP2 MSTORE PUSH1 0x20 ADD SWAP1 DUP2 MSTORE PUSH1 0x20 ADD PUSH1 0x0 KECCAK256 PUSH1 0x0 DUP3 DUP3 SLOAD PUSH2 0x14D0 SWAP2 SWAP1 PUSH2 0x310D JUMP JUMPDEST SWAP3 POP POP DUP2 SWAP1 SSTORE POP PUSH2 0x14E2 DUP8 DUP8 CALLER PUSH2 0x2085 JUMP JUMPDEST POP POP PUSH2 0x14EC PUSH2 0x207C JUMP JUMPDEST POP POP POP POP POP JUMP JUMPDEST PUSH1 0xC SLOAD DUP2 JUMP JUMPDEST PUSH1 0x7 SLOAD DUP2 JUMP JUMPDEST PUSH2 0x1507 PUSH2 0x1E29 JUMP JUMPDEST DUP1 PUSH1 0x9 DUP2 SWAP1 SSTORE POP POP JUMP JUMPDEST PUSH2 0x1519 PUSH2 0x1E29 JUMP JUMPDEST DUP1 PUSH1 0xA DUP2 SWAP1 SSTORE POP POP JUMP JUMPDEST PUSH2 0x152B PUSH2 0x1E29 JUMP JUMPDEST PUSH2 0x1535 PUSH1 0x0 PUSH2 0x2120 JUMP JUMPDEST JUMP JUMPDEST PUSH1 0x10 PUSH1 0x20 MSTORE DUP2 PUSH1 0x0 MSTORE PUSH1 0x40 PUSH1 0x0 KECCAK256 PUSH1 0x20 MSTORE DUP1 PUSH1 0x0 MSTORE PUSH1 0x40 PUSH1 0x0 KECCAK256 PUSH1 0x0 SWAP2 POP SWAP2 POP POP SLOAD DUP2 JUMP JUMPDEST PUSH1 0x0 DUP1 DUP6 PUSH1 0x40 MLOAD PUSH1 0x20 ADD PUSH2 0x1570 SWAP2 SWAP1 PUSH2 0x32F5 JUMP JUMPDEST PUSH1 0x40 MLOAD PUSH1 0x20 DUP2 DUP4 SUB SUB DUP2 MSTORE SWAP1 PUSH1 0x40 MSTORE DUP1 MLOAD SWAP1 PUSH1 0x20 ADD KECCAK256 SWAP1 POP DUP5 DUP2 EQ PUSH2 0x1599 JUMPI PUSH1 0x0 SWAP2 POP POP PUSH2 0x1651 JUMP JUMPDEST PUSH2 0x15E7 DUP5 DUP5 DUP1 DUP1 PUSH1 0x20 MUL PUSH1 0x20 ADD PUSH1 0x40 MLOAD SWAP1 DUP2 ADD PUSH1 0x40 MSTORE DUP1 SWAP4 SWAP3 SWAP2 SWAP1 DUP2 DUP2 MSTORE PUSH1 0x20 ADD DUP4 DUP4 PUSH1 0x20 MUL DUP1 DUP3 DUP5 CALLDATACOPY PUSH1 0x0 DUP2 DUP5 ADD MSTORE PUSH1 0x1F NOT PUSH1 0x1F DUP3 ADD AND SWAP1 POP DUP1 DUP4 ADD SWAP3 POP POP POP POP POP POP POP PUSH1 0xC SLOAD DUP8 PUSH2 0x1EF6 JUMP JUMPDEST DUP1 PUSH2 0x163C JUMPI POP PUSH2 0x163B DUP5 DUP5 DUP1 DUP1 PUSH1 0x20 MUL PUSH1 0x20 ADD PUSH1 0x40 MLOAD SWAP1 DUP2 ADD PUSH1 0x40 MSTORE DUP1 SWAP4 SWAP3 SWAP2 SWAP1 DUP2 DUP2 MSTORE PUSH1 0x20 ADD DUP4 DUP4 PUSH1 0x20 MUL DUP1 DUP3 DUP5 CALLDATACOPY PUSH1 0x0 DUP2 DUP5 ADD MSTORE PUSH1 0x1F NOT PUSH1 0x1F DUP3 ADD AND SWAP1 POP DUP1 DUP4 ADD SWAP3 POP POP POP POP POP POP POP PUSH1 0xD SLOAD DUP8 PUSH2 0x1EF6 JUMP JUMPDEST JUMPDEST ISZERO PUSH2 0x164B JUMPI PUSH1 0x1 SWAP2 POP POP PUSH2 0x1651 JUMP JUMPDEST PUSH1 0x0 SWAP2 POP POP JUMPDEST SWAP5 SWAP4 POP POP POP POP JUMP JUMPDEST PUSH2 0x1661 PUSH2 0x1E29 JUMP JUMPDEST PUSH1 0x0 PUSH1 0x3 PUSH1 0x0 SWAP1 SLOAD SWAP1 PUSH2 0x100 EXP SWAP1 DIV PUSH20 0xFFFFFFFFFFFFFFFFFFFFFFFFFFFFFFFFFFFFFFFF AND PUSH20 0xFFFFFFFFFFFFFFFFFFFFFFFFFFFFFFFFFFFFFFFF AND SELFBALANCE PUSH1 0x40 MLOAD PUSH2 0x16A9 SWAP1 PUSH2 0x2E75 JUMP JUMPDEST PUSH1 0x0 PUSH1 0x40 MLOAD DUP1 DUP4 SUB DUP2 DUP6 DUP8 GAS CALL SWAP3 POP POP POP RETURNDATASIZE DUP1 PUSH1 0x0 DUP2 EQ PUSH2 0x16E6 JUMPI PUSH1 0x40 MLOAD SWAP2 POP PUSH1 0x1F NOT PUSH1 0x3F RETURNDATASIZE ADD AND DUP3 ADD PUSH1 0x40 MSTORE RETURNDATASIZE DUP3 MSTORE RETURNDATASIZE PUSH1 0x0 PUSH1 0x20 DUP5 ADD RETURNDATACOPY PUSH2 0x16EB JUMP JUMPDEST PUSH1 0x60 SWAP2 POP JUMPDEST POP POP SWAP1 POP DUP1 PUSH2 0x172F JUMPI PUSH1 0x40 MLOAD PUSH32 0x8C379A000000000000000000000000000000000000000000000000000000000 DUP2 MSTORE PUSH1 0x4 ADD PUSH2 0x1726 SWAP1 PUSH2 0x335C JUMP JUMPDEST PUSH1 0x40 MLOAD DUP1 SWAP2 SUB SWAP1 REVERT JUMPDEST POP JUMP JUMPDEST PUSH2 0x173A PUSH2 0x1E29 JUMP JUMPDEST DUP1 PUSH1 0x3 PUSH1 0x0 PUSH2 0x100 EXP DUP2 SLOAD DUP2 PUSH20 0xFFFFFFFFFFFFFFFFFFFFFFFFFFFFFFFFFFFFFFFF MUL NOT AND SWAP1 DUP4 PUSH20 0xFFFFFFFFFFFFFFFFFFFFFFFFFFFFFFFFFFFFFFFF AND MUL OR SWAP1 SSTORE POP POP JUMP JUMPDEST PUSH1 0x0 PUSH1 0x9 SLOAD TIMESTAMP LT ISZERO SWAP1 POP SWAP1 JUMP JUMPDEST PUSH1 0xB SLOAD DUP2 JUMP JUMPDEST PUSH1 0x0 DUP1 PUSH1 0x0 SWAP1 SLOAD SWAP1 PUSH2 0x100 EXP SWAP1 DIV PUSH20 0xFFFFFFFFFFFFFFFFFFFFFFFFFFFFFFFFFFFFFFFF AND SWAP1 POP SWAP1 JUMP JUMPDEST PUSH2 0x17C2 PUSH2 0x1E29 JUMP JUMPDEST PUSH2 0x17CA PUSH2 0x180B JUMP JUMPDEST ISZERO PUSH2 0x1801 JUMPI PUSH1 0x40 MLOAD PUSH32 0xF2A84B6300000000000000000000000000000000000000000000000000000000 DUP2 MSTORE PUSH1 0x4 ADD PUSH1 0x40 MLOAD DUP1 SWAP2 SUB SWAP1 REVERT JUMPDEST DUP1 PUSH1 0x8 DUP2 SWAP1 SSTORE POP POP JUMP JUMPDEST PUSH1 0x0 PUSH1 0xA SLOAD TIMESTAMP LT ISZERO SWAP1 POP SWAP1 JUMP JUMPDEST PUSH1 0x6 DUP2 DUP2 SLOAD DUP2 LT PUSH2 0x1828 JUMPI PUSH1 0x0 DUP1 REVERT JUMPDEST SWAP1 PUSH1 0x0 MSTORE PUSH1 0x20 PUSH1 0x0 KECCAK256 ADD PUSH1 0x0 SWAP2 POP SWAP1 POP SLOAD DUP2 JUMP JUMPDEST PUSH2 0x1844 PUSH2 0x1E29 JUMP JUMPDEST PUSH1 0x0 PUSH20 0xFFFFFFFFFFFFFFFFFFFFFFFFFFFFFFFFFFFFFFFF AND CALLER PUSH20 0xFFFFFFFFFFFFFFFFFFFFFFFFFFFFFFFFFFFFFFFF AND SUB PUSH2 0x18AA JUMPI PUSH1 0x40 MLOAD PUSH32 0x48AC165200000000000000000000000000000000000000000000000000000000 DUP2 MSTORE PUSH1 0x4 ADD PUSH1 0x40 MLOAD DUP1 SWAP2 SUB SWAP1 REVERT JUMPDEST DUP2 PUSH20 0xFFFFFFFFFFFFFFFFFFFFFFFFFFFFFFFFFFFFFFFF AND PUSH4 0xA9059CBB CALLER DUP4 PUSH1 0x40 MLOAD DUP4 PUSH4 0xFFFFFFFF AND PUSH1 0xE0 SHL DUP2 MSTORE PUSH1 0x4 ADD PUSH2 0x18E5 SWAP3 SWAP2 SWAP1 PUSH2 0x337C JUMP JUMPDEST PUSH1 0x20 PUSH1 0x40 MLOAD DUP1 DUP4 SUB DUP2 PUSH1 0x0 DUP8 GAS CALL ISZERO DUP1 ISZERO PUSH2 0x1904 JUMPI RETURNDATASIZE PUSH1 0x0 DUP1 RETURNDATACOPY RETURNDATASIZE PUSH1 0x0 REVERT JUMPDEST POP POP POP POP PUSH1 0x40 MLOAD RETURNDATASIZE PUSH1 0x1F NOT PUSH1 0x1F DUP3 ADD AND DUP3 ADD DUP1 PUSH1 0x40 MSTORE POP DUP2 ADD SWAP1 PUSH2 0x1928 SWAP2 SWAP1 PUSH2 0x33D1 JUMP JUMPDEST POP POP POP JUMP JUMPDEST PUSH1 0x2 PUSH1 0x0 SWAP1 SLOAD SWAP1 PUSH2 0x100 EXP SWAP1 DIV PUSH20 0xFFFFFFFFFFFFFFFFFFFFFFFFFFFFFFFFFFFFFFFF AND DUP2 JUMP JUMPDEST PUSH2 0x195B PUSH2 0x1E29 JUMP JUMPDEST DUP2 DUP2 SWAP1 POP DUP5 DUP5 SWAP1 POP EQ PUSH2 0x19A3 JUMPI PUSH1 0x40 MLOAD PUSH32 0x8C379A000000000000000000000000000000000000000000000000000000000 DUP2 MSTORE PUSH1 0x4 ADD PUSH2 0x199A SWAP1 PUSH2 0x3470 JUMP JUMPDEST PUSH1 0x40 MLOAD DUP1 SWAP2 SUB SWAP1 REVERT JUMPDEST PUSH1 0x0 JUMPDEST DUP3 DUP3 SWAP1 POP DUP2 LT ISZERO PUSH2 0x1A1C JUMPI PUSH2 0x1A0B DUP6 DUP6 DUP4 DUP2 DUP2 LT PUSH2 0x19C7 JUMPI PUSH2 0x19C6 PUSH2 0x2E15 JUMP JUMPDEST JUMPDEST SWAP1 POP PUSH1 0x20 MUL ADD PUSH1 0x20 DUP2 ADD SWAP1 PUSH2 0x19DC SWAP2 SWAP1 PUSH2 0x3490 JUMP JUMPDEST PUSH1 0x1 DUP6 DUP6 DUP6 DUP2 DUP2 LT PUSH2 0x19F1 JUMPI PUSH2 0x19F0 PUSH2 0x2E15 JUMP JUMPDEST JUMPDEST SWAP1 POP PUSH1 0x20 MUL ADD PUSH1 0x20 DUP2 ADD SWAP1 PUSH2 0x1A06 SWAP2 SWAP1 PUSH2 0x2D8F JUMP JUMPDEST PUSH2 0x1F0D JUMP JUMPDEST DUP1 PUSH2 0x1A15 SWAP1 PUSH2 0x3241 JUMP JUMPDEST SWAP1 POP PUSH2 0x19A6 JUMP JUMPDEST POP POP POP POP POP JUMP JUMPDEST PUSH1 0x0 PUSH1 0x8 SLOAD SWAP1 POP SWAP1 JUMP JUMPDEST PUSH2 0x1A35 PUSH2 0x1E29 JUMP JUMPDEST PUSH2 0x1A3D PUSH2 0x180B JUMP JUMPDEST ISZERO PUSH2 0x1A74 JUMPI PUSH1 0x40 MLOAD PUSH32 0xF2A84B6300000000000000000000000000000000000000000000000000000000 DUP2 MSTORE PUSH1 0x4 ADD PUSH1 0x40 MLOAD DUP1 SWAP2 SUB SWAP1 REVERT JUMPDEST DUP1 PUSH1 0x7 DUP2 SWAP1 SSTORE POP POP JUMP JUMPDEST PUSH2 0x1A86 PUSH2 0x1E29 JUMP JUMPDEST DUP1 PUSH1 0x2 PUSH1 0x0 PUSH2 0x100 EXP DUP2 SLOAD DUP2 PUSH20 0xFFFFFFFFFFFFFFFFFFFFFFFFFFFFFFFFFFFFFFFF MUL NOT AND SWAP1 DUP4 PUSH20 0xFFFFFFFFFFFFFFFFFFFFFFFFFFFFFFFFFFFFFFFF AND MUL OR SWAP1 SSTORE POP POP JUMP JUMPDEST PUSH1 0x0 DUP1 PUSH1 0x4 SLOAD SWAP1 POP PUSH1 0xF PUSH1 0x0 DUP1 DUP2 MSTORE PUSH1 0x20 ADD SWAP1 DUP2 MSTORE PUSH1 0x20 ADD PUSH1 0x0 KECCAK256 SLOAD DUP2 PUSH2 0x1AF1 SWAP2 SWAP1 PUSH2 0x31AD JUMP JUMPDEST SWAP1 POP PUSH1 0xF PUSH1 0x0 PUSH1 0x1 DUP2 MSTORE PUSH1 0x20 ADD SWAP1 DUP2 MSTORE PUSH1 0x20 ADD PUSH1 0x0 KECCAK256 SLOAD DUP2 PUSH2 0x1B13 SWAP2 SWAP1 PUSH2 0x31AD JUMP JUMPDEST SWAP1 POP PUSH1 0xF PUSH1 0x0 PUSH1 0x2 DUP2 MSTORE PUSH1 0x20 ADD SWAP1 DUP2 MSTORE PUSH1 0x20 ADD PUSH1 0x0 KECCAK256 SLOAD DUP2 PUSH2 0x1B35 SWAP2 SWAP1 PUSH2 0x31AD JUMP JUMPDEST SWAP1 POP PUSH1 0xF PUSH1 0x0 PUSH1 0x3 DUP2 MSTORE PUSH1 0x20 ADD SWAP1 DUP2 MSTORE PUSH1 0x20 ADD PUSH1 0x0 KECCAK256 SLOAD DUP2 PUSH2 0x1B57 SWAP2 SWAP1 PUSH2 0x31AD JUMP JUMPDEST SWAP1 POP PUSH1 0xF PUSH1 0x0 PUSH1 0x4 DUP2 MSTORE PUSH1 0x20 ADD SWAP1 DUP2 MSTORE PUSH1 0x20 ADD PUSH1 0x0 KECCAK256 SLOAD DUP2 PUSH2 0x1B79 SWAP2 SWAP1 PUSH2 0x31AD JUMP JUMPDEST SWAP1 POP PUSH1 0xF PUSH1 0x0 PUSH1 0x5 DUP2 MSTORE PUSH1 0x20 ADD SWAP1 DUP2 MSTORE PUSH1 0x20 ADD PUSH1 0x0 KECCAK256 SLOAD DUP2 PUSH2 0x1B9B SWAP2 SWAP1 PUSH2 0x31AD JUMP JUMPDEST SWAP1 POP PUSH1 0xF PUSH1 0x0 PUSH1 0x6 DUP2 MSTORE PUSH1 0x20 ADD SWAP1 DUP2 MSTORE PUSH1 0x20 ADD PUSH1 0x0 KECCAK256 SLOAD DUP2 PUSH2 0x1BBD SWAP2 SWAP1 PUSH2 0x31AD JUMP JUMPDEST SWAP1 POP PUSH1 0xF PUSH1 0x0 PUSH1 0x7 DUP2 MSTORE PUSH1 0x20 ADD SWAP1 DUP2 MSTORE PUSH1 0x20 ADD PUSH1 0x0 KECCAK256 SLOAD DUP2 PUSH2 0x1BDF SWAP2 SWAP1 PUSH2 0x31AD JUMP JUMPDEST SWAP1 POP DUP1 SWAP2 POP POP SWAP1 JUMP JUMPDEST PUSH2 0x1BF0 PUSH2 0x1E29 JUMP JUMPDEST DUP1 PUSH1 0xD DUP2 SWAP1 SSTORE POP POP JUMP JUMPDEST PUSH2 0x1C02 PUSH2 0x1E29 JUMP JUMPDEST PUSH1 0x8 DUP3 DUP3 SWAP1 POP EQ PUSH2 0x1C50 JUMPI DUP2 DUP2 SWAP1 POP PUSH1 0x8 PUSH1 0x40 MLOAD PUSH32 0x485D33A200000000000000000000000000000000000000000000000000000000 DUP2 MSTORE PUSH1 0x4 ADD PUSH2 0x1C47 SWAP3 SWAP2 SWAP1 PUSH2 0x34F8 JUMP JUMPDEST PUSH1 0x40 MLOAD DUP1 SWAP2 SUB SWAP1 REVERT JUMPDEST PUSH2 0x1C58 PUSH2 0x180B JUMP JUMPDEST ISZERO PUSH2 0x1C8F JUMPI PUSH1 0x40 MLOAD PUSH32 0xF2A84B6300000000000000000000000000000000000000000000000000000000 DUP2 MSTORE PUSH1 0x4 ADD PUSH1 0x40 MLOAD DUP1 SWAP2 SUB SWAP1 REVERT JUMPDEST DUP2 DUP2 PUSH1 0x6 SWAP2 SWAP1 PUSH2 0x1CA0 SWAP3 SWAP2 SWAP1 PUSH2 0x24BF JUMP JUMPDEST POP POP POP JUMP JUMPDEST PUSH2 0x1CAD PUSH2 0x1E29 JUMP JUMPDEST DUP1 PUSH1 0xC DUP2 SWAP1 SSTORE POP POP JUMP JUMPDEST PUSH1 0x9 SLOAD DUP2 JUMP JUMPDEST PUSH1 0x0 PUSH1 0x4 SLOAD SWAP1 POP SWAP1 JUMP JUMPDEST PUSH2 0x1CCF PUSH2 0x1EA7 JUMP JUMPDEST PUSH2 0x1CD7 PUSH2 0x177E JUMP JUMPDEST PUSH2 0x1D1C JUMPI PUSH1 0x9 SLOAD TIMESTAMP PUSH1 0x40 MLOAD PUSH32 0x66803FC100000000000000000000000000000000000000000000000000000000 DUP2 MSTORE PUSH1 0x4 ADD PUSH2 0x1D13 SWAP3 SWAP2 SWAP1 PUSH2 0x2F07 JUMP JUMPDEST PUSH1 0x40 MLOAD DUP1 SWAP2 SUB SWAP1 REVERT JUMPDEST PUSH1 0x0 DUP2 GT ISZERO DUP1 PUSH2 0x1D2C JUMPI POP PUSH1 0x14 DUP2 GT JUMPDEST ISZERO PUSH2 0x1D63 JUMPI PUSH1 0x40 MLOAD PUSH32 0xCA02D6EB00000000000000000000000000000000000000000000000000000000 DUP2 MSTORE PUSH1 0x4 ADD PUSH1 0x40 MLOAD DUP1 SWAP2 SUB SWAP1 REVERT JUMPDEST PUSH2 0x1D6E DUP3 DUP3 CALLER PUSH2 0x2085 JUMP JUMPDEST PUSH2 0x1D76 PUSH2 0x207C JUMP JUMPDEST POP POP JUMP JUMPDEST PUSH2 0x1D82 PUSH2 0x1E29 JUMP JUMPDEST PUSH1 0x0 PUSH20 0xFFFFFFFFFFFFFFFFFFFFFFFFFFFFFFFFFFFFFFFF AND DUP2 PUSH20 0xFFFFFFFFFFFFFFFFFFFFFFFFFFFFFFFFFFFFFFFF AND SUB PUSH2 0x1DF1 JUMPI PUSH1 0x40 MLOAD PUSH32 0x8C379A000000000000000000000000000000000000000000000000000000000 DUP2 MSTORE PUSH1 0x4 ADD PUSH2 0x1DE8 SWAP1 PUSH2 0x3593 JUMP JUMPDEST PUSH1 0x40 MLOAD DUP1 SWAP2 SUB SWAP1 REVERT JUMPDEST PUSH2 0x1DFA DUP2 PUSH2 0x2120 JUMP JUMPDEST POP JUMP JUMPDEST PUSH1 0xA SLOAD DUP2 JUMP JUMPDEST PUSH1 0x3 PUSH1 0x0 SWAP1 SLOAD SWAP1 PUSH2 0x100 EXP SWAP1 DIV PUSH20 0xFFFFFFFFFFFFFFFFFFFFFFFFFFFFFFFFFFFFFFFF AND DUP2 JUMP JUMPDEST PUSH2 0x1E31 PUSH2 0x21E4 JUMP JUMPDEST PUSH20 0xFFFFFFFFFFFFFFFFFFFFFFFFFFFFFFFFFFFFFFFF AND PUSH2 0x1E4F PUSH2 0x1791 JUMP JUMPDEST PUSH20 0xFFFFFFFFFFFFFFFFFFFFFFFFFFFFFFFFFFFFFFFF AND EQ PUSH2 0x1EA5 JUMPI PUSH1 0x40 MLOAD PUSH32 0x8C379A000000000000000000000000000000000000000000000000000000000 DUP2 MSTORE PUSH1 0x4 ADD PUSH2 0x1E9C SWAP1 PUSH2 0x35FF JUMP JUMPDEST PUSH1 0x40 MLOAD DUP1 SWAP2 SUB SWAP1 REVERT JUMPDEST JUMP JUMPDEST PUSH1 0x2 PUSH1 0x1 SLOAD SUB PUSH2 0x1EEC JUMPI PUSH1 0x40 MLOAD PUSH32 0x8C379A000000000000000000000000000000000000000000000000000000000 DUP2 MSTORE PUSH1 0x4 ADD PUSH2 0x1EE3 SWAP1 PUSH2 0x366B JUMP JUMPDEST PUSH1 0x40 MLOAD DUP1 SWAP2 SUB SWAP1 REVERT JUMPDEST PUSH1 0x2 PUSH1 0x1 DUP2 SWAP1 SSTORE POP JUMP JUMPDEST PUSH1 0x0 DUP3 PUSH2 0x1F03 DUP6 DUP5 PUSH2 0x21EC JUMP JUMPDEST EQ SWAP1 POP SWAP4 SWAP3 POP POP POP JUMP JUMPDEST PUSH1 0x4 SLOAD DUP3 PUSH1 0xF PUSH1 0x0 DUP7 PUSH1 0x7 DUP2 GT ISZERO PUSH2 0x1F28 JUMPI PUSH2 0x1F27 PUSH2 0x2F30 JUMP JUMPDEST JUMPDEST DUP2 MSTORE PUSH1 0x20 ADD SWAP1 DUP2 MSTORE PUSH1 0x20 ADD PUSH1 0x0 KECCAK256 SLOAD PUSH2 0x1F41 SWAP2 SWAP1 PUSH2 0x310D JUMP JUMPDEST GT ISZERO PUSH2 0x1F82 JUMPI PUSH1 0x40 MLOAD PUSH32 0x8C379A000000000000000000000000000000000000000000000000000000000 DUP2 MSTORE PUSH1 0x4 ADD PUSH2 0x1F79 SWAP1 PUSH2 0x36D7 JUMP JUMPDEST PUSH1 0x40 MLOAD DUP1 SWAP2 SUB SWAP1 REVERT JUMPDEST PUSH1 0x0 JUMPDEST DUP3 DUP2 LT ISZERO PUSH2 0x2076 JUMPI PUSH1 0x0 PUSH2 0x1F98 DUP6 PUSH2 0x2242 JUMP JUMPDEST SWAP1 POP PUSH1 0xF PUSH1 0x0 DUP7 PUSH1 0x7 DUP2 GT ISZERO PUSH2 0x1FB1 JUMPI PUSH2 0x1FB0 PUSH2 0x2F30 JUMP JUMPDEST JUMPDEST DUP2 MSTORE PUSH1 0x20 ADD SWAP1 DUP2 MSTORE PUSH1 0x20 ADD PUSH1 0x0 KECCAK256 PUSH1 0x0 DUP2 SLOAD PUSH2 0x1FCC SWAP1 PUSH2 0x3241 JUMP JUMPDEST SWAP2 SWAP1 POP DUP2 SWAP1 SSTORE POP PUSH1 0x2 PUSH1 0x0 SWAP1 SLOAD SWAP1 PUSH2 0x100 EXP SWAP1 DIV PUSH20 0xFFFFFFFFFFFFFFFFFFFFFFFFFFFFFFFFFFFFFFFF AND PUSH20 0xFFFFFFFFFFFFFFFFFFFFFFFFFFFFFFFFFFFFFFFF AND PUSH4 0x86EBF010 DUP5 DUP4 DUP9 PUSH1 0x40 MLOAD DUP5 PUSH4 0xFFFFFFFF AND PUSH1 0xE0 SHL DUP2 MSTORE PUSH1 0x4 ADD PUSH2 0x2032 SWAP4 SWAP3 SWAP2 SWAP1 PUSH2 0x373F JUMP JUMPDEST PUSH1 0x0 PUSH1 0x40 MLOAD DUP1 DUP4 SUB DUP2 PUSH1 0x0 DUP8 DUP1 EXTCODESIZE ISZERO DUP1 ISZERO PUSH2 0x204C JUMPI PUSH1 0x0 DUP1 REVERT JUMPDEST POP GAS CALL ISZERO DUP1 ISZERO PUSH2 0x2060 JUMPI RETURNDATASIZE PUSH1 0x0 DUP1 RETURNDATACOPY RETURNDATASIZE PUSH1 0x0 REVERT JUMPDEST POP POP POP POP POP DUP1 PUSH2 0x206F SWAP1 PUSH2 0x3241 JUMP JUMPDEST SWAP1 POP PUSH2 0x1F85 JUMP JUMPDEST POP POP POP POP JUMP JUMPDEST PUSH1 0x1 DUP1 DUP2 SWAP1 SSTORE POP JUMP JUMPDEST PUSH1 0x0 PUSH1 0x8 SLOAD GT PUSH2 0x20C1 JUMPI PUSH1 0x40 MLOAD PUSH32 0xC5FADBA600000000000000000000000000000000000000000000000000000000 DUP2 MSTORE PUSH1 0x4 ADD PUSH1 0x40 MLOAD DUP1 SWAP2 SUB SWAP1 REVERT JUMPDEST DUP2 PUSH1 0x8 SLOAD PUSH2 0x20CF SWAP2 SWAP1 PUSH2 0x3776 JUMP JUMPDEST CALLVALUE EQ PUSH2 0x2110 JUMPI PUSH1 0x40 MLOAD PUSH32 0x8C379A000000000000000000000000000000000000000000000000000000000 DUP2 MSTORE PUSH1 0x4 ADD PUSH2 0x2107 SWAP1 PUSH2 0x382A JUMP JUMPDEST PUSH1 0x40 MLOAD DUP1 SWAP2 SUB SWAP1 REVERT JUMPDEST PUSH2 0x211B DUP4 DUP4 DUP4 PUSH2 0x1F0D JUMP JUMPDEST POP POP POP JUMP JUMPDEST PUSH1 0x0 DUP1 PUSH1 0x0 SWAP1 SLOAD SWAP1 PUSH2 0x100 EXP SWAP1 DIV PUSH20 0xFFFFFFFFFFFFFFFFFFFFFFFFFFFFFFFFFFFFFFFF AND SWAP1 POP DUP2 PUSH1 0x0 DUP1 PUSH2 0x100 EXP DUP2 SLOAD DUP2 PUSH20 0xFFFFFFFFFFFFFFFFFFFFFFFFFFFFFFFFFFFFFFFF MUL NOT AND SWAP1 DUP4 PUSH20 0xFFFFFFFFFFFFFFFFFFFFFFFFFFFFFFFFFFFFFFFF AND MUL OR SWAP1 SSTORE POP DUP2 PUSH20 0xFFFFFFFFFFFFFFFFFFFFFFFFFFFFFFFFFFFFFFFF AND DUP2 PUSH20 0xFFFFFFFFFFFFFFFFFFFFFFFFFFFFFFFFFFFFFFFF AND PUSH32 0x8BE0079C531659141344CD1FD0A4F28419497F9722A3DAAFE3B4186F6B6457E0 PUSH1 0x40 MLOAD PUSH1 0x40 MLOAD DUP1 SWAP2 SUB SWAP1 LOG3 POP POP JUMP JUMPDEST PUSH1 0x0 CALLER SWAP1 POP SWAP1 JUMP JUMPDEST PUSH1 0x0 DUP1 DUP3 SWAP1 POP PUSH1 0x0 JUMPDEST DUP5 MLOAD DUP2 LT ISZERO PUSH2 0x2237 JUMPI PUSH2 0x2222 DUP3 DUP7 DUP4 DUP2 MLOAD DUP2 LT PUSH2 0x2215 JUMPI PUSH2 0x2214 PUSH2 0x2E15 JUMP JUMPDEST JUMPDEST PUSH1 0x20 MUL PUSH1 0x20 ADD ADD MLOAD PUSH2 0x247D JUMP JUMPDEST SWAP2 POP DUP1 DUP1 PUSH2 0x222F SWAP1 PUSH2 0x3241 JUMP JUMPDEST SWAP2 POP POP PUSH2 0x21F5 JUMP JUMPDEST POP DUP1 SWAP2 POP POP SWAP3 SWAP2 POP POP JUMP JUMPDEST PUSH1 0x0 DUP1 PUSH1 0x7 SLOAD PUSH1 0xF PUSH1 0x0 PUSH1 0x7 DUP2 MSTORE PUSH1 0x20 ADD SWAP1 DUP2 MSTORE PUSH1 0x20 ADD PUSH1 0x0 KECCAK256 SLOAD PUSH1 0xF PUSH1 0x0 PUSH1 0x6 DUP2 MSTORE PUSH1 0x20 ADD SWAP1 DUP2 MSTORE PUSH1 0x20 ADD PUSH1 0x0 KECCAK256 SLOAD PUSH1 0xF PUSH1 0x0 PUSH1 0x5 DUP2 MSTORE PUSH1 0x20 ADD SWAP1 DUP2 MSTORE PUSH1 0x20 ADD PUSH1 0x0 KECCAK256 SLOAD PUSH1 0xF PUSH1 0x0 PUSH1 0x4 DUP2 MSTORE PUSH1 0x20 ADD SWAP1 DUP2 MSTORE PUSH1 0x20 ADD PUSH1 0x0 KECCAK256 SLOAD PUSH1 0xF PUSH1 0x0 PUSH1 0x3 DUP2 MSTORE PUSH1 0x20 ADD SWAP1 DUP2 MSTORE PUSH1 0x20 ADD PUSH1 0x0 KECCAK256 SLOAD PUSH1 0xF PUSH1 0x0 PUSH1 0x2 DUP2 MSTORE PUSH1 0x20 ADD SWAP1 DUP2 MSTORE PUSH1 0x20 ADD PUSH1 0x0 KECCAK256 SLOAD PUSH1 0xF PUSH1 0x0 PUSH1 0x1 DUP2 MSTORE PUSH1 0x20 ADD SWAP1 DUP2 MSTORE PUSH1 0x20 ADD PUSH1 0x0 KECCAK256 SLOAD PUSH1 0xF PUSH1 0x0 DUP1 DUP2 MSTORE PUSH1 0x20 ADD SWAP1 DUP2 MSTORE PUSH1 0x20 ADD PUSH1 0x0 KECCAK256 SLOAD PUSH2 0x22F9 SWAP2 SWAP1 PUSH2 0x310D JUMP JUMPDEST PUSH2 0x2303 SWAP2 SWAP1 PUSH2 0x310D JUMP JUMPDEST PUSH2 0x230D SWAP2 SWAP1 PUSH2 0x310D JUMP JUMPDEST PUSH2 0x2317 SWAP2 SWAP1 PUSH2 0x310D JUMP JUMPDEST PUSH2 0x2321 SWAP2 SWAP1 PUSH2 0x310D JUMP JUMPDEST PUSH2 0x232B SWAP2 SWAP1 PUSH2 0x310D JUMP JUMPDEST PUSH2 0x2335 SWAP2 SWAP1 PUSH2 0x310D JUMP JUMPDEST PUSH2 0x233F SWAP2 SWAP1 PUSH2 0x310D JUMP JUMPDEST SWAP1 POP PUSH1 0x0 PUSH1 0x6 DUP5 PUSH1 0x7 DUP2 GT ISZERO PUSH2 0x2358 JUMPI PUSH2 0x2357 PUSH2 0x2F30 JUMP JUMPDEST JUMPDEST DUP2 SLOAD DUP2 LT PUSH2 0x2369 JUMPI PUSH2 0x2368 PUSH2 0x2E15 JUMP JUMPDEST JUMPDEST SWAP1 PUSH1 0x0 MSTORE PUSH1 0x20 PUSH1 0x0 KECCAK256 ADD SLOAD PUSH1 0xF PUSH1 0x0 DUP7 PUSH1 0x7 DUP2 GT ISZERO PUSH2 0x238B JUMPI PUSH2 0x238A PUSH2 0x2F30 JUMP JUMPDEST JUMPDEST DUP2 MSTORE PUSH1 0x20 ADD SWAP1 DUP2 MSTORE PUSH1 0x20 ADD PUSH1 0x0 KECCAK256 SLOAD PUSH2 0x23A4 SWAP2 SWAP1 PUSH2 0x310D JUMP JUMPDEST SWAP1 POP PUSH4 0xFFFFFFFF DUP2 GT ISZERO PUSH2 0x23ED JUMPI PUSH1 0x40 MLOAD PUSH32 0x8C379A000000000000000000000000000000000000000000000000000000000 DUP2 MSTORE PUSH1 0x4 ADD PUSH2 0x23E4 SWAP1 PUSH2 0x3896 JUMP JUMPDEST PUSH1 0x40 MLOAD DUP1 SWAP2 SUB SWAP1 REVERT JUMPDEST PUSH1 0xFF DUP5 PUSH1 0x7 DUP2 GT ISZERO PUSH2 0x2402 JUMPI PUSH2 0x2401 PUSH2 0x2F30 JUMP JUMPDEST JUMPDEST GT ISZERO PUSH2 0x2443 JUMPI PUSH1 0x40 MLOAD PUSH32 0x8C379A000000000000000000000000000000000000000000000000000000000 DUP2 MSTORE PUSH1 0x4 ADD PUSH2 0x243A SWAP1 PUSH2 0x3902 JUMP JUMPDEST PUSH1 0x40 MLOAD DUP1 SWAP2 SUB SWAP1 REVERT JUMPDEST DUP4 PUSH1 0x7 DUP2 GT ISZERO PUSH2 0x2456 JUMPI PUSH2 0x2455 PUSH2 0x2F30 JUMP JUMPDEST JUMPDEST PUSH1 0x8 DUP3 SWAP1 SHL PUSH1 0x28 DUP5 SWAP1 SHL PUSH2 0x246A SWAP2 SWAP1 PUSH2 0x310D JUMP JUMPDEST PUSH2 0x2474 SWAP2 SWAP1 PUSH2 0x310D JUMP JUMPDEST SWAP3 POP POP POP SWAP2 SWAP1 POP JUMP JUMPDEST PUSH1 0x0 DUP2 DUP4 LT PUSH2 0x2495 JUMPI PUSH2 0x2490 DUP3 DUP5 PUSH2 0x24A8 JUMP JUMPDEST PUSH2 0x24A0 JUMP JUMPDEST PUSH2 0x249F DUP4 DUP4 PUSH2 0x24A8 JUMP JUMPDEST JUMPDEST SWAP1 POP SWAP3 SWAP2 POP POP JUMP JUMPDEST PUSH1 0x0 DUP3 PUSH1 0x0 MSTORE DUP2 PUSH1 0x20 MSTORE PUSH1 0x40 PUSH1 0x0 KECCAK256 SWAP1 POP SWAP3 SWAP2 POP POP JUMP JUMPDEST DUP3 DUP1 SLOAD DUP3 DUP3 SSTORE SWAP1 PUSH1 0x0 MSTORE PUSH1 0x20 PUSH1 0x0 KECCAK256 SWAP1 DUP2 ADD SWAP3 DUP3 ISZERO PUSH2 0x24FB JUMPI SWAP2 PUSH1 0x20 MUL DUP3 ADD JUMPDEST DUP3 DUP2 GT ISZERO PUSH2 0x24FA JUMPI DUP3 CALLDATALOAD DUP3 SSTORE SWAP2 PUSH1 0x20 ADD SWAP2 SWAP1 PUSH1 0x1 ADD SWAP1 PUSH2 0x24DF JUMP JUMPDEST JUMPDEST POP SWAP1 POP PUSH2 0x2508 SWAP2 SWAP1 PUSH2 0x250C JUMP JUMPDEST POP SWAP1 JUMP JUMPDEST JUMPDEST DUP1 DUP3 GT ISZERO PUSH2 0x2525 JUMPI PUSH1 0x0 DUP2 PUSH1 0x0 SWAP1 SSTORE POP PUSH1 0x1 ADD PUSH2 0x250D JUMP JUMPDEST POP SWAP1 JUMP JUMPDEST PUSH1 0x0 DUP1 REVERT JUMPDEST PUSH1 0x0 DUP1 REVERT JUMPDEST PUSH1 0x0 DUP2 SWAP1 POP SWAP2 SWAP1 POP JUMP JUMPDEST PUSH2 0x2546 DUP2 PUSH2 0x2533 JUMP JUMPDEST DUP2 EQ PUSH2 0x2551 JUMPI PUSH1 0x0 DUP1 REVERT JUMPDEST POP JUMP JUMPDEST PUSH1 0x0 DUP2 CALLDATALOAD SWAP1 POP PUSH2 0x2563 DUP2 PUSH2 0x253D JUMP JUMPDEST SWAP3 SWAP2 POP POP JUMP JUMPDEST PUSH1 0x0 PUSH1 0x20 DUP3 DUP5 SUB SLT ISZERO PUSH2 0x257F JUMPI PUSH2 0x257E PUSH2 0x2529 JUMP JUMPDEST JUMPDEST PUSH1 0x0 PUSH2 0x258D DUP5 DUP3 DUP6 ADD PUSH2 0x2554 JUMP JUMPDEST SWAP2 POP POP SWAP3 SWAP2 POP POP JUMP JUMPDEST PUSH2 0x259F DUP2 PUSH2 0x2533 JUMP JUMPDEST DUP3 MSTORE POP POP JUMP JUMPDEST PUSH1 0x0 PUSH1 0x20 DUP3 ADD SWAP1 POP PUSH2 0x25BA PUSH1 0x0 DUP4 ADD DUP5 PUSH2 0x2596 JUMP JUMPDEST SWAP3 SWAP2 POP POP JUMP JUMPDEST PUSH1 0x0 DUP2 SWAP1 POP SWAP2 SWAP1 POP JUMP JUMPDEST PUSH2 0x25D3 DUP2 PUSH2 0x25C0 JUMP JUMPDEST DUP3 MSTORE POP POP JUMP JUMPDEST PUSH1 0x0 PUSH1 0x20 DUP3 ADD SWAP1 POP PUSH2 0x25EE PUSH1 0x0 DUP4 ADD DUP5 PUSH2 0x25CA JUMP JUMPDEST SWAP3 SWAP2 POP POP JUMP JUMPDEST PUSH1 0x0 PUSH20 0xFFFFFFFFFFFFFFFFFFFFFFFFFFFFFFFFFFFFFFFF DUP3 AND SWAP1 POP SWAP2 SWAP1 POP JUMP JUMPDEST PUSH1 0x0 PUSH2 0x261F DUP3 PUSH2 0x25F4 JUMP JUMPDEST SWAP1 POP SWAP2 SWAP1 POP JUMP JUMPDEST PUSH2 0x262F DUP2 PUSH2 0x2614 JUMP JUMPDEST DUP2 EQ PUSH2 0x263A JUMPI PUSH1 0x0 DUP1 REVERT JUMPDEST POP JUMP JUMPDEST PUSH1 0x0 DUP2 CALLDATALOAD SWAP1 POP PUSH2 0x264C DUP2 PUSH2 0x2626 JUMP JUMPDEST SWAP3 SWAP2 POP POP JUMP JUMPDEST PUSH1 0x0 DUP1 PUSH1 0x40 DUP4 DUP6 SUB SLT ISZERO PUSH2 0x2669 JUMPI PUSH2 0x2668 PUSH2 0x2529 JUMP JUMPDEST JUMPDEST PUSH1 0x0 PUSH2 0x2677 DUP6 DUP3 DUP7 ADD PUSH2 0x263D JUMP JUMPDEST SWAP3 POP POP PUSH1 0x20 PUSH2 0x2688 DUP6 DUP3 DUP7 ADD PUSH2 0x2554 JUMP JUMPDEST SWAP2 POP POP SWAP3 POP SWAP3 SWAP1 POP JUMP JUMPDEST PUSH1 0x0 DUP2 MLOAD SWAP1 POP SWAP2 SWAP1 POP JUMP JUMPDEST PUSH1 0x0 DUP3 DUP3 MSTORE PUSH1 0x20 DUP3 ADD SWAP1 POP SWAP3 SWAP2 POP POP JUMP JUMPDEST PUSH1 0x0 DUP2 SWAP1 POP PUSH1 0x20 DUP3 ADD SWAP1 POP SWAP2 SWAP1 POP JUMP JUMPDEST PUSH2 0x26C7 DUP2 PUSH2 0x2533 JUMP JUMPDEST DUP3 MSTORE POP POP JUMP JUMPDEST PUSH1 0x0 PUSH2 0x26D9 DUP4 DUP4 PUSH2 0x26BE JUMP JUMPDEST PUSH1 0x20 DUP4 ADD SWAP1 POP SWAP3 SWAP2 POP POP JUMP JUMPDEST PUSH1 0x0 PUSH1 0x20 DUP3 ADD SWAP1 POP SWAP2 SWAP1 POP JUMP JUMPDEST PUSH1 0x0 PUSH2 0x26FD DUP3 PUSH2 0x2692 JUMP JUMPDEST PUSH2 0x2707 DUP2 DUP6 PUSH2 0x269D JUMP JUMPDEST SWAP4 POP PUSH2 0x2712 DUP4 PUSH2 0x26AE JUMP JUMPDEST DUP1 PUSH1 0x0 JUMPDEST DUP4 DUP2 LT ISZERO PUSH2 0x2743 JUMPI DUP2 MLOAD PUSH2 0x272A DUP9 DUP3 PUSH2 0x26CD JUMP JUMPDEST SWAP8 POP PUSH2 0x2735 DUP4 PUSH2 0x26E5 JUMP JUMPDEST SWAP3 POP POP PUSH1 0x1 DUP2 ADD SWAP1 POP PUSH2 0x2716 JUMP JUMPDEST POP DUP6 SWAP4 POP POP POP POP SWAP3 SWAP2 POP POP JUMP JUMPDEST PUSH1 0x0 PUSH1 0x20 DUP3 ADD SWAP1 POP DUP2 DUP2 SUB PUSH1 0x0 DUP4 ADD MSTORE PUSH2 0x276A DUP2 DUP5 PUSH2 0x26F2 JUMP JUMPDEST SWAP1 POP SWAP3 SWAP2 POP POP JUMP JUMPDEST PUSH1 0x8 DUP2 LT PUSH2 0x277F JUMPI PUSH1 0x0 DUP1 REVERT JUMPDEST POP JUMP JUMPDEST PUSH1 0x0 DUP2 CALLDATALOAD SWAP1 POP PUSH2 0x2791 DUP2 PUSH2 0x2772 JUMP JUMPDEST SWAP3 SWAP2 POP POP JUMP JUMPDEST PUSH1 0x0 DUP1 REVERT JUMPDEST PUSH1 0x0 DUP1 REVERT JUMPDEST PUSH1 0x0 DUP1 REVERT JUMPDEST PUSH1 0x0 DUP1 DUP4 PUSH1 0x1F DUP5 ADD SLT PUSH2 0x27BC JUMPI PUSH2 0x27BB PUSH2 0x2797 JUMP JUMPDEST JUMPDEST DUP3 CALLDATALOAD SWAP1 POP PUSH8 0xFFFFFFFFFFFFFFFF DUP2 GT ISZERO PUSH2 0x27D9 JUMPI PUSH2 0x27D8 PUSH2 0x279C JUMP JUMPDEST JUMPDEST PUSH1 0x20 DUP4 ADD SWAP2 POP DUP4 PUSH1 0x20 DUP3 MUL DUP4 ADD GT ISZERO PUSH2 0x27F5 JUMPI PUSH2 0x27F4 PUSH2 0x27A1 JUMP JUMPDEST JUMPDEST SWAP3 POP SWAP3 SWAP1 POP JUMP JUMPDEST PUSH1 0x0 DUP1 PUSH1 0x0 DUP1 PUSH1 0x0 PUSH1 0x80 DUP7 DUP9 SUB SLT ISZERO PUSH2 0x2818 JUMPI PUSH2 0x2817 PUSH2 0x2529 JUMP JUMPDEST JUMPDEST PUSH1 0x0 PUSH2 0x2826 DUP9 DUP3 DUP10 ADD PUSH2 0x2782 JUMP JUMPDEST SWAP6 POP POP PUSH1 0x20 PUSH2 0x2837 DUP9 DUP3 DUP10 ADD PUSH2 0x2554 JUMP JUMPDEST SWAP5 POP POP PUSH1 0x40 PUSH2 0x2848 DUP9 DUP3 DUP10 ADD PUSH2 0x2554 JUMP JUMPDEST SWAP4 POP POP PUSH1 0x60 DUP7 ADD CALLDATALOAD PUSH8 0xFFFFFFFFFFFFFFFF DUP2 GT ISZERO PUSH2 0x2869 JUMPI PUSH2 0x2868 PUSH2 0x252E JUMP JUMPDEST JUMPDEST PUSH2 0x2875 DUP9 DUP3 DUP10 ADD PUSH2 0x27A6 JUMP JUMPDEST SWAP3 POP SWAP3 POP POP SWAP3 SWAP6 POP SWAP3 SWAP6 SWAP1 SWAP4 POP JUMP JUMPDEST PUSH1 0x0 DUP2 ISZERO ISZERO SWAP1 POP SWAP2 SWAP1 POP JUMP JUMPDEST PUSH2 0x2899 DUP2 PUSH2 0x2884 JUMP JUMPDEST DUP3 MSTORE POP POP JUMP JUMPDEST PUSH1 0x0 PUSH1 0x20 DUP3 ADD SWAP1 POP PUSH2 0x28B4 PUSH1 0x0 DUP4 ADD DUP5 PUSH2 0x2890 JUMP JUMPDEST SWAP3 SWAP2 POP POP JUMP JUMPDEST PUSH2 0x28C3 DUP2 PUSH2 0x25C0 JUMP JUMPDEST DUP2 EQ PUSH2 0x28CE JUMPI PUSH1 0x0 DUP1 REVERT JUMPDEST POP JUMP JUMPDEST PUSH1 0x0 DUP2 CALLDATALOAD SWAP1 POP PUSH2 0x28E0 DUP2 PUSH2 0x28BA JUMP JUMPDEST SWAP3 SWAP2 POP POP JUMP JUMPDEST PUSH1 0x0 PUSH1 0x20 DUP3 DUP5 SUB SLT ISZERO PUSH2 0x28FC JUMPI PUSH2 0x28FB PUSH2 0x2529 JUMP JUMPDEST JUMPDEST PUSH1 0x0 PUSH2 0x290A DUP5 DUP3 DUP6 ADD PUSH2 0x28D1 JUMP JUMPDEST SWAP2 POP POP SWAP3 SWAP2 POP POP JUMP JUMPDEST PUSH1 0x0 DUP1 PUSH1 0x0 DUP1 PUSH1 0x60 DUP6 DUP8 SUB SLT ISZERO PUSH2 0x292D JUMPI PUSH2 0x292C PUSH2 0x2529 JUMP JUMPDEST JUMPDEST PUSH1 0x0 PUSH2 0x293B DUP8 DUP3 DUP9 ADD PUSH2 0x263D JUMP JUMPDEST SWAP5 POP POP PUSH1 0x20 PUSH2 0x294C DUP8 DUP3 DUP9 ADD PUSH2 0x28D1 JUMP JUMPDEST SWAP4 POP POP PUSH1 0x40 DUP6 ADD CALLDATALOAD PUSH8 0xFFFFFFFFFFFFFFFF DUP2 GT ISZERO PUSH2 0x296D JUMPI PUSH2 0x296C PUSH2 0x252E JUMP JUMPDEST JUMPDEST PUSH2 0x2979 DUP8 DUP3 DUP9 ADD PUSH2 0x27A6 JUMP JUMPDEST SWAP3 POP SWAP3 POP POP SWAP3 SWAP6 SWAP2 SWAP5 POP SWAP3 POP JUMP JUMPDEST PUSH1 0x0 PUSH2 0x2992 DUP3 PUSH2 0x25F4 JUMP JUMPDEST SWAP1 POP SWAP2 SWAP1 POP JUMP JUMPDEST PUSH2 0x29A2 DUP2 PUSH2 0x2987 JUMP JUMPDEST DUP2 EQ PUSH2 0x29AD JUMPI PUSH1 0x0 DUP1 REVERT JUMPDEST POP JUMP JUMPDEST PUSH1 0x0 DUP2 CALLDATALOAD SWAP1 POP PUSH2 0x29BF DUP2 PUSH2 0x2999 JUMP JUMPDEST SWAP3 SWAP2 POP POP JUMP JUMPDEST PUSH1 0x0 PUSH1 0x20 DUP3 DUP5 SUB SLT ISZERO PUSH2 0x29DB JUMPI PUSH2 0x29DA PUSH2 0x2529 JUMP JUMPDEST JUMPDEST PUSH1 0x0 PUSH2 0x29E9 DUP5 DUP3 DUP6 ADD PUSH2 0x29B0 JUMP JUMPDEST SWAP2 POP POP SWAP3 SWAP2 POP POP JUMP JUMPDEST PUSH2 0x29FB DUP2 PUSH2 0x2614 JUMP JUMPDEST DUP3 MSTORE POP POP JUMP JUMPDEST PUSH1 0x0 PUSH1 0x20 DUP3 ADD SWAP1 POP PUSH2 0x2A16 PUSH1 0x0 DUP4 ADD DUP5 PUSH2 0x29F2 JUMP JUMPDEST SWAP3 SWAP2 POP POP JUMP JUMPDEST PUSH1 0x0 PUSH2 0x2A27 DUP3 PUSH2 0x2614 JUMP JUMPDEST SWAP1 POP SWAP2 SWAP1 POP JUMP JUMPDEST PUSH2 0x2A37 DUP2 PUSH2 0x2A1C JUMP JUMPDEST DUP2 EQ PUSH2 0x2A42 JUMPI PUSH1 0x0 DUP1 REVERT JUMPDEST POP JUMP JUMPDEST PUSH1 0x0 DUP2 CALLDATALOAD SWAP1 POP PUSH2 0x2A54 DUP2 PUSH2 0x2A2E JUMP JUMPDEST SWAP3 SWAP2 POP POP JUMP JUMPDEST PUSH1 0x0 DUP1 PUSH1 0x40 DUP4 DUP6 SUB SLT ISZERO PUSH2 0x2A71 JUMPI PUSH2 0x2A70 PUSH2 0x2529 JUMP JUMPDEST JUMPDEST PUSH1 0x0 PUSH2 0x2A7F DUP6 DUP3 DUP7 ADD PUSH2 0x2A45 JUMP JUMPDEST SWAP3 POP POP PUSH1 0x20 PUSH2 0x2A90 DUP6 DUP3 DUP7 ADD PUSH2 0x2554 JUMP JUMPDEST SWAP2 POP POP SWAP3 POP SWAP3 SWAP1 POP JUMP JUMPDEST PUSH1 0x0 DUP2 SWAP1 POP SWAP2 SWAP1 POP JUMP JUMPDEST PUSH1 0x0 PUSH2 0x2ABF PUSH2 0x2ABA PUSH2 0x2AB5 DUP5 PUSH2 0x25F4 JUMP JUMPDEST PUSH2 0x2A9A JUMP JUMPDEST PUSH2 0x25F4 JUMP JUMPDEST SWAP1 POP SWAP2 SWAP1 POP JUMP JUMPDEST PUSH1 0x0 PUSH2 0x2AD1 DUP3 PUSH2 0x2AA4 JUMP JUMPDEST SWAP1 POP SWAP2 SWAP1 POP JUMP JUMPDEST PUSH1 0x0 PUSH2 0x2AE3 DUP3 PUSH2 0x2AC6 JUMP JUMPDEST SWAP1 POP SWAP2 SWAP1 POP JUMP JUMPDEST PUSH2 0x2AF3 DUP2 PUSH2 0x2AD8 JUMP JUMPDEST DUP3 MSTORE POP POP JUMP JUMPDEST PUSH1 0x0 PUSH1 0x20 DUP3 ADD SWAP1 POP PUSH2 0x2B0E PUSH1 0x0 DUP4 ADD DUP5 PUSH2 0x2AEA JUMP JUMPDEST SWAP3 SWAP2 POP POP JUMP JUMPDEST PUSH1 0x0 DUP1 DUP4 PUSH1 0x1F DUP5 ADD SLT PUSH2 0x2B2A JUMPI PUSH2 0x2B29 PUSH2 0x2797 JUMP JUMPDEST JUMPDEST DUP3 CALLDATALOAD SWAP1 POP PUSH8 0xFFFFFFFFFFFFFFFF DUP2 GT ISZERO PUSH2 0x2B47 JUMPI PUSH2 0x2B46 PUSH2 0x279C JUMP JUMPDEST JUMPDEST PUSH1 0x20 DUP4 ADD SWAP2 POP DUP4 PUSH1 0x20 DUP3 MUL DUP4 ADD GT ISZERO PUSH2 0x2B63 JUMPI PUSH2 0x2B62 PUSH2 0x27A1 JUMP JUMPDEST JUMPDEST SWAP3 POP SWAP3 SWAP1 POP JUMP JUMPDEST PUSH1 0x0 DUP1 DUP4 PUSH1 0x1F DUP5 ADD SLT PUSH2 0x2B80 JUMPI PUSH2 0x2B7F PUSH2 0x2797 JUMP JUMPDEST JUMPDEST DUP3 CALLDATALOAD SWAP1 POP PUSH8 0xFFFFFFFFFFFFFFFF DUP2 GT ISZERO PUSH2 0x2B9D JUMPI PUSH2 0x2B9C PUSH2 0x279C JUMP JUMPDEST JUMPDEST PUSH1 0x20 DUP4 ADD SWAP2 POP DUP4 PUSH1 0x20 DUP3 MUL DUP4 ADD GT ISZERO PUSH2 0x2BB9 JUMPI PUSH2 0x2BB8 PUSH2 0x27A1 JUMP JUMPDEST JUMPDEST SWAP3 POP SWAP3 SWAP1 POP JUMP JUMPDEST PUSH1 0x0 DUP1 PUSH1 0x0 DUP1 PUSH1 0x40 DUP6 DUP8 SUB SLT ISZERO PUSH2 0x2BDA JUMPI PUSH2 0x2BD9 PUSH2 0x2529 JUMP JUMPDEST JUMPDEST PUSH1 0x0 DUP6 ADD CALLDATALOAD PUSH8 0xFFFFFFFFFFFFFFFF DUP2 GT ISZERO PUSH2 0x2BF8 JUMPI PUSH2 0x2BF7 PUSH2 0x252E JUMP JUMPDEST JUMPDEST PUSH2 0x2C04 DUP8 DUP3 DUP9 ADD PUSH2 0x2B14 JUMP JUMPDEST SWAP5 POP SWAP5 POP POP PUSH1 0x20 DUP6 ADD CALLDATALOAD PUSH8 0xFFFFFFFFFFFFFFFF DUP2 GT ISZERO PUSH2 0x2C27 JUMPI PUSH2 0x2C26 PUSH2 0x252E JUMP JUMPDEST JUMPDEST PUSH2 0x2C33 DUP8 DUP3 DUP9 ADD PUSH2 0x2B6A JUMP JUMPDEST SWAP3 POP SWAP3 POP POP SWAP3 SWAP6 SWAP2 SWAP5 POP SWAP3 POP JUMP JUMPDEST PUSH1 0x0 PUSH2 0x2C4C DUP3 PUSH2 0x2614 JUMP JUMPDEST SWAP1 POP SWAP2 SWAP1 POP JUMP JUMPDEST PUSH2 0x2C5C DUP2 PUSH2 0x2C41 JUMP JUMPDEST DUP2 EQ PUSH2 0x2C67 JUMPI PUSH1 0x0 DUP1 REVERT JUMPDEST POP JUMP JUMPDEST PUSH1 0x0 DUP2 CALLDATALOAD SWAP1 POP PUSH2 0x2C79 DUP2 PUSH2 0x2C53 JUMP JUMPDEST SWAP3 SWAP2 POP POP JUMP JUMPDEST PUSH1 0x0 PUSH1 0x20 DUP3 DUP5 SUB SLT ISZERO PUSH2 0x2C95 JUMPI PUSH2 0x2C94 PUSH2 0x2529 JUMP JUMPDEST JUMPDEST PUSH1 0x0 PUSH2 0x2CA3 DUP5 DUP3 DUP6 ADD PUSH2 0x2C6A JUMP JUMPDEST SWAP2 POP POP SWAP3 SWAP2 POP POP JUMP JUMPDEST PUSH1 0x0 DUP1 DUP4 PUSH1 0x1F DUP5 ADD SLT PUSH2 0x2CC2 JUMPI PUSH2 0x2CC1 PUSH2 0x2797 JUMP JUMPDEST JUMPDEST DUP3 CALLDATALOAD SWAP1 POP PUSH8 0xFFFFFFFFFFFFFFFF DUP2 GT ISZERO PUSH2 0x2CDF JUMPI PUSH2 0x2CDE PUSH2 0x279C JUMP JUMPDEST JUMPDEST PUSH1 0x20 DUP4 ADD SWAP2 POP DUP4 PUSH1 0x20 DUP3 MUL DUP4 ADD GT ISZERO PUSH2 0x2CFB JUMPI PUSH2 0x2CFA PUSH2 0x27A1 JUMP JUMPDEST JUMPDEST SWAP3 POP SWAP3 SWAP1 POP JUMP JUMPDEST PUSH1 0x0 DUP1 PUSH1 0x20 DUP4 DUP6 SUB SLT ISZERO PUSH2 0x2D19 JUMPI PUSH2 0x2D18 PUSH2 0x2529 JUMP JUMPDEST JUMPDEST PUSH1 0x0 DUP4 ADD CALLDATALOAD PUSH8 0xFFFFFFFFFFFFFFFF DUP2 GT ISZERO PUSH2 0x2D37 JUMPI PUSH2 0x2D36 PUSH2 0x252E JUMP JUMPDEST JUMPDEST PUSH2 0x2D43 DUP6 DUP3 DUP7 ADD PUSH2 0x2CAC JUMP JUMPDEST SWAP3 POP SWAP3 POP POP SWAP3 POP SWAP3 SWAP1 POP JUMP JUMPDEST PUSH1 0x0 DUP1 PUSH1 0x40 DUP4 DUP6 SUB SLT ISZERO PUSH2 0x2D66 JUMPI PUSH2 0x2D65 PUSH2 0x2529 JUMP JUMPDEST JUMPDEST PUSH1 0x0 PUSH2 0x2D74 DUP6 DUP3 DUP7 ADD PUSH2 0x2782 JUMP JUMPDEST SWAP3 POP POP PUSH1 0x20 PUSH2 0x2D85 DUP6 DUP3 DUP7 ADD PUSH2 0x2554 JUMP JUMPDEST SWAP2 POP POP SWAP3 POP SWAP3 SWAP1 POP JUMP JUMPDEST PUSH1 0x0 PUSH1 0x20 DUP3 DUP5 SUB SLT ISZERO PUSH2 0x2DA5 JUMPI PUSH2 0x2DA4 PUSH2 0x2529 JUMP JUMPDEST JUMPDEST PUSH1 0x0 PUSH2 0x2DB3 DUP5 DUP3 DUP6 ADD PUSH2 0x263D JUMP JUMPDEST SWAP2 POP POP SWAP3 SWAP2 POP POP JUMP JUMPDEST PUSH2 0x2DC5 DUP2 PUSH2 0x2987 JUMP JUMPDEST DUP3 MSTORE POP POP JUMP JUMPDEST PUSH1 0x0 PUSH1 0x20 DUP3 ADD SWAP1 POP PUSH2 0x2DE0 PUSH1 0x0 DUP4 ADD DUP5 PUSH2 0x2DBC JUMP JUMPDEST SWAP3 SWAP2 POP POP JUMP JUMPDEST PUSH32 0x4E487B7100000000000000000000000000000000000000000000000000000000 PUSH1 0x0 MSTORE PUSH1 0x41 PUSH1 0x4 MSTORE PUSH1 0x24 PUSH1 0x0 REVERT JUMPDEST PUSH32 0x4E487B7100000000000000000000000000000000000000000000000000000000 PUSH1 0x0 MSTORE PUSH1 0x32 PUSH1 0x4 MSTORE PUSH1 0x24 PUSH1 0x0 REVERT JUMPDEST PUSH1 0x0 DUP2 SWAP1 POP SWAP3 SWAP2 POP POP JUMP JUMPDEST POP JUMP JUMPDEST PUSH1 0x0 PUSH2 0x2E5F PUSH1 0x0 DUP4 PUSH2 0x2E44 JUMP JUMPDEST SWAP2 POP PUSH2 0x2E6A DUP3 PUSH2 0x2E4F JUMP JUMPDEST PUSH1 0x0 DUP3 ADD SWAP1 POP SWAP2 SWAP1 POP JUMP JUMPDEST PUSH1 0x0 PUSH2 0x2E80 DUP3 PUSH2 0x2E52 JUMP JUMPDEST SWAP2 POP DUP2 SWAP1 POP SWAP2 SWAP1 POP JUMP JUMPDEST PUSH1 0x0 DUP3 DUP3 MSTORE PUSH1 0x20 DUP3 ADD SWAP1 POP SWAP3 SWAP2 POP POP JUMP JUMPDEST PUSH32 0x776974686472617720776173206E6F742073756363657366756C6C0000000000 PUSH1 0x0 DUP3 ADD MSTORE POP JUMP JUMPDEST PUSH1 0x0 PUSH2 0x2ED1 PUSH1 0x1B DUP4 PUSH2 0x2E8A JUMP JUMPDEST SWAP2 POP PUSH2 0x2EDC DUP3 PUSH2 0x2E9B JUMP JUMPDEST PUSH1 0x20 DUP3 ADD SWAP1 POP SWAP2 SWAP1 POP JUMP JUMPDEST PUSH1 0x0 PUSH1 0x20 DUP3 ADD SWAP1 POP DUP2 DUP2 SUB PUSH1 0x0 DUP4 ADD MSTORE PUSH2 0x2F00 DUP2 PUSH2 0x2EC4 JUMP JUMPDEST SWAP1 POP SWAP2 SWAP1 POP JUMP JUMPDEST PUSH1 0x0 PUSH1 0x40 DUP3 ADD SWAP1 POP PUSH2 0x2F1C PUSH1 0x0 DUP4 ADD DUP6 PUSH2 0x2596 JUMP JUMPDEST PUSH2 0x2F29 PUSH1 0x20 DUP4 ADD DUP5 PUSH2 0x2596 JUMP JUMPDEST SWAP4 SWAP3 POP POP POP JUMP JUMPDEST PUSH32 0x4E487B7100000000000000000000000000000000000000000000000000000000 PUSH1 0x0 MSTORE PUSH1 0x21 PUSH1 0x4 MSTORE PUSH1 0x24 PUSH1 0x0 REVERT JUMPDEST PUSH1 0x0 DUP2 PUSH1 0x60 SHL SWAP1 POP SWAP2 SWAP1 POP JUMP JUMPDEST PUSH1 0x0 PUSH2 0x2F77 DUP3 PUSH2 0x2F5F JUMP JUMPDEST SWAP1 POP SWAP2 SWAP1 POP JUMP JUMPDEST PUSH1 0x0 PUSH2 0x2F89 DUP3 PUSH2 0x2F6C JUMP JUMPDEST SWAP1 POP SWAP2 SWAP1 POP JUMP JUMPDEST PUSH2 0x2FA1 PUSH2 0x2F9C DUP3 PUSH2 0x2614 JUMP JUMPDEST PUSH2 0x2F7E JUMP JUMPDEST DUP3 MSTORE POP POP JUMP JUMPDEST PUSH1 0x0 DUP2 SWAP1 POP SWAP3 SWAP2 POP POP JUMP JUMPDEST PUSH32 0x3A00000000000000000000000000000000000000000000000000000000000000 PUSH1 0x0 DUP3 ADD MSTORE POP JUMP JUMPDEST PUSH1 0x0 PUSH2 0x2FE8 PUSH1 0x1 DUP4 PUSH2 0x2FA7 JUMP JUMPDEST SWAP2 POP PUSH2 0x2FF3 DUP3 PUSH2 0x2FB2 JUMP JUMPDEST PUSH1 0x1 DUP3 ADD SWAP1 POP SWAP2 SWAP1 POP JUMP JUMPDEST PUSH1 0x0 DUP2 SWAP1 POP SWAP2 SWAP1 POP JUMP JUMPDEST PUSH2 0x3019 PUSH2 0x3014 DUP3 PUSH2 0x2533 JUMP JUMPDEST PUSH2 0x2FFE JUMP JUMPDEST DUP3 MSTORE POP POP JUMP JUMPDEST PUSH1 0x0 PUSH2 0x302B DUP3 DUP7 PUSH2 0x2F90 JUMP JUMPDEST PUSH1 0x14 DUP3 ADD SWAP2 POP PUSH2 0x303A DUP3 PUSH2 0x2FDB JUMP JUMPDEST SWAP2 POP PUSH2 0x3046 DUP3 DUP6 PUSH2 0x3008 JUMP JUMPDEST PUSH1 0x20 DUP3 ADD SWAP2 POP PUSH2 0x3055 DUP3 PUSH2 0x2FDB JUMP JUMPDEST SWAP2 POP PUSH2 0x3061 DUP3 DUP5 PUSH2 0x3008 JUMP JUMPDEST PUSH1 0x20 DUP3 ADD SWAP2 POP DUP2 SWAP1 POP SWAP5 SWAP4 POP POP POP POP JUMP JUMPDEST PUSH32 0x496E76616C69642070726F6F662E000000000000000000000000000000000000 PUSH1 0x0 DUP3 ADD MSTORE POP JUMP JUMPDEST PUSH1 0x0 PUSH2 0x30A8 PUSH1 0xE DUP4 PUSH2 0x2E8A JUMP JUMPDEST SWAP2 POP PUSH2 0x30B3 DUP3 PUSH2 0x3072 JUMP JUMPDEST PUSH1 0x20 DUP3 ADD SWAP1 POP SWAP2 SWAP1 POP JUMP JUMPDEST PUSH1 0x0 PUSH1 0x20 DUP3 ADD SWAP1 POP DUP2 DUP2 SUB PUSH1 0x0 DUP4 ADD MSTORE PUSH2 0x30D7 DUP2 PUSH2 0x309B JUMP JUMPDEST SWAP1 POP SWAP2 SWAP1 POP JUMP JUMPDEST PUSH32 0x4E487B7100000000000000000000000000000000000000000000000000000000 PUSH1 0x0 MSTORE PUSH1 0x11 PUSH1 0x4 MSTORE PUSH1 0x24 PUSH1 0x0 REVERT JUMPDEST PUSH1 0x0 PUSH2 0x3118 DUP3 PUSH2 0x2533 JUMP JUMPDEST SWAP2 POP PUSH2 0x3123 DUP4 PUSH2 0x2533 JUMP JUMPDEST SWAP3 POP DUP3 DUP3 ADD SWAP1 POP DUP1 DUP3 GT ISZERO PUSH2 0x313B JUMPI PUSH2 0x313A PUSH2 0x30DE JUMP JUMPDEST JUMPDEST SWAP3 SWAP2 POP POP JUMP JUMPDEST PUSH32 0x436C61696D696E67206D6F7265207468616E20616C6C6F7765642E0000000000 PUSH1 0x0 DUP3 ADD MSTORE POP JUMP JUMPDEST PUSH1 0x0 PUSH2 0x3177 PUSH1 0x1B DUP4 PUSH2 0x2E8A JUMP JUMPDEST SWAP2 POP PUSH2 0x3182 DUP3 PUSH2 0x3141 JUMP JUMPDEST PUSH1 0x20 DUP3 ADD SWAP1 POP SWAP2 SWAP1 POP JUMP JUMPDEST PUSH1 0x0 PUSH1 0x20 DUP3 ADD SWAP1 POP DUP2 DUP2 SUB PUSH1 0x0 DUP4 ADD MSTORE PUSH2 0x31A6 DUP2 PUSH2 0x316A JUMP JUMPDEST SWAP1 POP SWAP2 SWAP1 POP JUMP JUMPDEST PUSH1 0x0 PUSH2 0x31B8 DUP3 PUSH2 0x2533 JUMP JUMPDEST SWAP2 POP PUSH2 0x31C3 DUP4 PUSH2 0x2533 JUMP JUMPDEST SWAP3 POP DUP3 DUP3 SUB SWAP1 POP DUP2 DUP2 GT ISZERO PUSH2 0x31DB JUMPI PUSH2 0x31DA PUSH2 0x30DE JUMP JUMPDEST JUMPDEST SWAP3 SWAP2 POP POP JUMP JUMPDEST PUSH32 0x4E487B7100000000000000000000000000000000000000000000000000000000 PUSH1 0x0 MSTORE PUSH1 0x12 PUSH1 0x4 MSTORE PUSH1 0x24 PUSH1 0x0 REVERT JUMPDEST PUSH1 0x0 PUSH2 0x321B DUP3 PUSH2 0x2533 JUMP JUMPDEST SWAP2 POP PUSH2 0x3226 DUP4 PUSH2 0x2533 JUMP JUMPDEST SWAP3 POP DUP3 PUSH2 0x3236 JUMPI PUSH2 0x3235 PUSH2 0x31E1 JUMP JUMPDEST JUMPDEST DUP3 DUP3 MOD SWAP1 POP SWAP3 SWAP2 POP POP JUMP JUMPDEST PUSH1 0x0 PUSH2 0x324C DUP3 PUSH2 0x2533 JUMP JUMPDEST SWAP2 POP PUSH32 0xFFFFFFFFFFFFFFFFFFFFFFFFFFFFFFFFFFFFFFFFFFFFFFFFFFFFFFFFFFFFFFFF DUP3 SUB PUSH2 0x327E JUMPI PUSH2 0x327D PUSH2 0x30DE JUMP JUMPDEST JUMPDEST PUSH1 0x1 DUP3 ADD SWAP1 POP SWAP2 SWAP1 POP JUMP JUMPDEST PUSH32 0x4D696E74696E67206D6F7265207468616E20616C6C6F7765642E000000000000 PUSH1 0x0 DUP3 ADD MSTORE POP JUMP JUMPDEST PUSH1 0x0 PUSH2 0x32BF PUSH1 0x1A DUP4 PUSH2 0x2E8A JUMP JUMPDEST SWAP2 POP PUSH2 0x32CA DUP3 PUSH2 0x3289 JUMP JUMPDEST PUSH1 0x20 DUP3 ADD SWAP1 POP SWAP2 SWAP1 POP JUMP JUMPDEST PUSH1 0x0 PUSH1 0x20 DUP3 ADD SWAP1 POP DUP2 DUP2 SUB PUSH1 0x0 DUP4 ADD MSTORE PUSH2 0x32EE DUP2 PUSH2 0x32B2 JUMP JUMPDEST SWAP1 POP SWAP2 SWAP1 POP JUMP JUMPDEST PUSH1 0x0 PUSH2 0x3301 DUP3 DUP5 PUSH2 0x2F90 JUMP JUMPDEST PUSH1 0x14 DUP3 ADD SWAP2 POP DUP2 SWAP1 POP SWAP3 SWAP2 POP POP JUMP JUMPDEST PUSH32 0x776974686472617720616C6C20776173206E6F742073756363657366756C6C00 PUSH1 0x0 DUP3 ADD MSTORE POP JUMP JUMPDEST PUSH1 0x0 PUSH2 0x3346 PUSH1 0x1F DUP4 PUSH2 0x2E8A JUMP JUMPDEST SWAP2 POP PUSH2 0x3351 DUP3 PUSH2 0x3310 JUMP JUMPDEST PUSH1 0x20 DUP3 ADD SWAP1 POP SWAP2 SWAP1 POP JUMP JUMPDEST PUSH1 0x0 PUSH1 0x20 DUP3 ADD SWAP1 POP DUP2 DUP2 SUB PUSH1 0x0 DUP4 ADD MSTORE PUSH2 0x3375 DUP2 PUSH2 0x3339 JUMP JUMPDEST SWAP1 POP SWAP2 SWAP1 POP JUMP JUMPDEST PUSH1 0x0 PUSH1 0x40 DUP3 ADD SWAP1 POP PUSH2 0x3391 PUSH1 0x0 DUP4 ADD DUP6 PUSH2 0x29F2 JUMP JUMPDEST PUSH2 0x339E PUSH1 0x20 DUP4 ADD DUP5 PUSH2 0x2596 JUMP JUMPDEST SWAP4 SWAP3 POP POP POP JUMP JUMPDEST PUSH2 0x33AE DUP2 PUSH2 0x2884 JUMP JUMPDEST DUP2 EQ PUSH2 0x33B9 JUMPI PUSH1 0x0 DUP1 REVERT JUMPDEST POP JUMP JUMPDEST PUSH1 0x0 DUP2 MLOAD SWAP1 POP PUSH2 0x33CB DUP2 PUSH2 0x33A5 JUMP JUMPDEST SWAP3 SWAP2 POP POP JUMP JUMPDEST PUSH1 0x0 PUSH1 0x20 DUP3 DUP5 SUB SLT ISZERO PUSH2 0x33E7 JUMPI PUSH2 0x33E6 PUSH2 0x2529 JUMP JUMPDEST JUMPDEST PUSH1 0x0 PUSH2 0x33F5 DUP5 DUP3 DUP6 ADD PUSH2 0x33BC JUMP JUMPDEST SWAP2 POP POP SWAP3 SWAP2 POP POP JUMP JUMPDEST PUSH32 0x4172726179732073686F756C642068617665207468652073616D652073697A65 PUSH1 0x0 DUP3 ADD MSTORE PUSH32 0x2E00000000000000000000000000000000000000000000000000000000000000 PUSH1 0x20 DUP3 ADD MSTORE POP JUMP JUMPDEST PUSH1 0x0 PUSH2 0x345A PUSH1 0x21 DUP4 PUSH2 0x2E8A JUMP JUMPDEST SWAP2 POP PUSH2 0x3465 DUP3 PUSH2 0x33FE JUMP JUMPDEST PUSH1 0x40 DUP3 ADD SWAP1 POP SWAP2 SWAP1 POP JUMP JUMPDEST PUSH1 0x0 PUSH1 0x20 DUP3 ADD SWAP1 POP DUP2 DUP2 SUB PUSH1 0x0 DUP4 ADD MSTORE PUSH2 0x3489 DUP2 PUSH2 0x344D JUMP JUMPDEST SWAP1 POP SWAP2 SWAP1 POP JUMP JUMPDEST PUSH1 0x0 PUSH1 0x20 DUP3 DUP5 SUB SLT ISZERO PUSH2 0x34A6 JUMPI PUSH2 0x34A5 PUSH2 0x2529 JUMP JUMPDEST JUMPDEST PUSH1 0x0 PUSH2 0x34B4 DUP5 DUP3 DUP6 ADD PUSH2 0x2782 JUMP JUMPDEST SWAP2 POP POP SWAP3 SWAP2 POP POP JUMP JUMPDEST PUSH1 0x0 DUP2 SWAP1 POP SWAP2 SWAP1 POP JUMP JUMPDEST PUSH1 0x0 PUSH2 0x34E2 PUSH2 0x34DD PUSH2 0x34D8 DUP5 PUSH2 0x34BD JUMP JUMPDEST PUSH2 0x2A9A JUMP JUMPDEST PUSH2 0x2533 JUMP JUMPDEST SWAP1 POP SWAP2 SWAP1 POP JUMP JUMPDEST PUSH2 0x34F2 DUP2 PUSH2 0x34C7 JUMP JUMPDEST DUP3 MSTORE POP POP JUMP JUMPDEST PUSH1 0x0 PUSH1 0x40 DUP3 ADD SWAP1 POP PUSH2 0x350D PUSH1 0x0 DUP4 ADD DUP6 PUSH2 0x2596 JUMP JUMPDEST PUSH2 0x351A PUSH1 0x20 DUP4 ADD DUP5 PUSH2 0x34E9 JUMP JUMPDEST SWAP4 SWAP3 POP POP POP JUMP JUMPDEST PUSH32 0x4F776E61626C653A206E6577206F776E657220697320746865207A65726F2061 PUSH1 0x0 DUP3 ADD MSTORE PUSH32 0x6464726573730000000000000000000000000000000000000000000000000000 PUSH1 0x20 DUP3 ADD MSTORE POP JUMP JUMPDEST PUSH1 0x0 PUSH2 0x357D PUSH1 0x26 DUP4 PUSH2 0x2E8A JUMP JUMPDEST SWAP2 POP PUSH2 0x3588 DUP3 PUSH2 0x3521 JUMP JUMPDEST PUSH1 0x40 DUP3 ADD SWAP1 POP SWAP2 SWAP1 POP JUMP JUMPDEST PUSH1 0x0 PUSH1 0x20 DUP3 ADD SWAP1 POP DUP2 DUP2 SUB PUSH1 0x0 DUP4 ADD MSTORE PUSH2 0x35AC DUP2 PUSH2 0x3570 JUMP JUMPDEST SWAP1 POP SWAP2 SWAP1 POP JUMP JUMPDEST PUSH32 0x4F776E61626C653A2063616C6C6572206973206E6F7420746865206F776E6572 PUSH1 0x0 DUP3 ADD MSTORE POP JUMP JUMPDEST PUSH1 0x0 PUSH2 0x35E9 PUSH1 0x20 DUP4 PUSH2 0x2E8A JUMP JUMPDEST SWAP2 POP PUSH2 0x35F4 DUP3 PUSH2 0x35B3 JUMP JUMPDEST PUSH1 0x20 DUP3 ADD SWAP1 POP SWAP2 SWAP1 POP JUMP JUMPDEST PUSH1 0x0 PUSH1 0x20 DUP3 ADD SWAP1 POP DUP2 DUP2 SUB PUSH1 0x0 DUP4 ADD MSTORE PUSH2 0x3618 DUP2 PUSH2 0x35DC JUMP JUMPDEST SWAP1 POP SWAP2 SWAP1 POP JUMP JUMPDEST PUSH32 0x5265656E7472616E637947756172643A207265656E7472616E742063616C6C00 PUSH1 0x0 DUP3 ADD MSTORE POP JUMP JUMPDEST PUSH1 0x0 PUSH2 0x3655 PUSH1 0x1F DUP4 PUSH2 0x2E8A JUMP JUMPDEST SWAP2 POP PUSH2 0x3660 DUP3 PUSH2 0x361F JUMP JUMPDEST PUSH1 0x20 DUP3 ADD SWAP1 POP SWAP2 SWAP1 POP JUMP JUMPDEST PUSH1 0x0 PUSH1 0x20 DUP3 ADD SWAP1 POP DUP2 DUP2 SUB PUSH1 0x0 DUP4 ADD MSTORE PUSH2 0x3684 DUP2 PUSH2 0x3648 JUMP JUMPDEST SWAP1 POP SWAP2 SWAP1 POP JUMP JUMPDEST PUSH32 0x547279696E6720746F206D696E7420746F6F206D616E792072696E67732E0000 PUSH1 0x0 DUP3 ADD MSTORE POP JUMP JUMPDEST PUSH1 0x0 PUSH2 0x36C1 PUSH1 0x1E DUP4 PUSH2 0x2E8A JUMP JUMPDEST SWAP2 POP PUSH2 0x36CC DUP3 PUSH2 0x368B JUMP JUMPDEST PUSH1 0x20 DUP3 ADD SWAP1 POP SWAP2 SWAP1 POP JUMP JUMPDEST PUSH1 0x0 PUSH1 0x20 DUP3 ADD SWAP1 POP DUP2 DUP2 SUB PUSH1 0x0 DUP4 ADD MSTORE PUSH2 0x36F0 DUP2 PUSH2 0x36B4 JUMP JUMPDEST SWAP1 POP SWAP2 SWAP1 POP JUMP JUMPDEST PUSH1 0x8 DUP2 LT PUSH2 0x3708 JUMPI PUSH2 0x3707 PUSH2 0x2F30 JUMP JUMPDEST JUMPDEST POP JUMP JUMPDEST PUSH1 0x0 DUP2 SWAP1 POP PUSH2 0x3719 DUP3 PUSH2 0x36F7 JUMP JUMPDEST SWAP2 SWAP1 POP JUMP JUMPDEST PUSH1 0x0 PUSH2 0x3729 DUP3 PUSH2 0x370B JUMP JUMPDEST SWAP1 POP SWAP2 SWAP1 POP JUMP JUMPDEST PUSH2 0x3739 DUP2 PUSH2 0x371E JUMP JUMPDEST DUP3 MSTORE POP POP JUMP JUMPDEST PUSH1 0x0 PUSH1 0x60 DUP3 ADD SWAP1 POP PUSH2 0x3754 PUSH1 0x0 DUP4 ADD DUP7 PUSH2 0x29F2 JUMP JUMPDEST PUSH2 0x3761 PUSH1 0x20 DUP4 ADD DUP6 PUSH2 0x2596 JUMP JUMPDEST PUSH2 0x376E PUSH1 0x40 DUP4 ADD DUP5 PUSH2 0x3730 JUMP JUMPDEST SWAP5 SWAP4 POP POP POP POP JUMP JUMPDEST PUSH1 0x0 PUSH2 0x3781 DUP3 PUSH2 0x2533 JUMP JUMPDEST SWAP2 POP PUSH2 0x378C DUP4 PUSH2 0x2533 JUMP JUMPDEST SWAP3 POP DUP3 DUP3 MUL PUSH2 0x379A DUP2 PUSH2 0x2533 JUMP JUMPDEST SWAP2 POP DUP3 DUP3 DIV DUP5 EQ DUP4 ISZERO OR PUSH2 0x37B1 JUMPI PUSH2 0x37B0 PUSH2 0x30DE JUMP JUMPDEST JUMPDEST POP SWAP3 SWAP2 POP POP JUMP JUMPDEST PUSH32 0x45746865722076616C75652073656E74206973206E6F74206163637572617465 PUSH1 0x0 DUP3 ADD MSTORE PUSH32 0x2E00000000000000000000000000000000000000000000000000000000000000 PUSH1 0x20 DUP3 ADD MSTORE POP JUMP JUMPDEST PUSH1 0x0 PUSH2 0x3814 PUSH1 0x21 DUP4 PUSH2 0x2E8A JUMP JUMPDEST SWAP2 POP PUSH2 0x381F DUP3 PUSH2 0x37B8 JUMP JUMPDEST PUSH1 0x40 DUP3 ADD SWAP1 POP SWAP2 SWAP1 POP JUMP JUMPDEST PUSH1 0x0 PUSH1 0x20 DUP3 ADD SWAP1 POP DUP2 DUP2 SUB PUSH1 0x0 DUP4 ADD MSTORE PUSH2 0x3843 DUP2 PUSH2 0x3807 JUMP JUMPDEST SWAP1 POP SWAP2 SWAP1 POP JUMP JUMPDEST PUSH32 0x4C6F63616C20696E646578206F766572666C6F772E0000000000000000000000 PUSH1 0x0 DUP3 ADD MSTORE POP JUMP JUMPDEST PUSH1 0x0 PUSH2 0x3880 PUSH1 0x15 DUP4 PUSH2 0x2E8A JUMP JUMPDEST SWAP2 POP PUSH2 0x388B DUP3 PUSH2 0x384A JUMP JUMPDEST PUSH1 0x20 DUP3 ADD SWAP1 POP SWAP2 SWAP1 POP JUMP JUMPDEST PUSH1 0x0 PUSH1 0x20 DUP3 ADD SWAP1 POP DUP2 DUP2 SUB PUSH1 0x0 DUP4 ADD MSTORE PUSH2 0x38AF DUP2 PUSH2 0x3873 JUMP JUMPDEST SWAP1 POP SWAP2 SWAP1 POP JUMP JUMPDEST PUSH32 0x52696E6720696E646578206F766572666C6F772E000000000000000000000000 PUSH1 0x0 DUP3 ADD MSTORE POP JUMP JUMPDEST PUSH1 0x0 PUSH2 0x38EC PUSH1 0x14 DUP4 PUSH2 0x2E8A JUMP JUMPDEST SWAP2 POP PUSH2 0x38F7 DUP3 PUSH2 0x38B6 JUMP JUMPDEST PUSH1 0x20 DUP3 ADD SWAP1 POP SWAP2 SWAP1 POP JUMP JUMPDEST PUSH1 0x0 PUSH1 0x20 DUP3 ADD SWAP1 POP DUP2 DUP2 SUB PUSH1 0x0 DUP4 ADD MSTORE PUSH2 0x391B DUP2 PUSH2 0x38DF JUMP JUMPDEST SWAP1 POP SWAP2 SWAP1 POP JUMP INVALID LOG2 PUSH5 0x6970667358 0x22 SLT KECCAK256 SWAP14 ISZERO 0xC6 0xCB 0xE8 PUSH31 0x6F15451AE6F1AFC835FE9B7AB078912378E8594716769AF687A264736F6C63 NUMBER STOP ADDMOD SLT STOP CALLER "},"methodIdentifiers":{"claimlistMerkleRoot()":"2560e376","claimlistMint(uint8,uint256,uint256,bytes32[])":"33a5a99f","claimlistMintedPerType(address,uint256)":"294548a4","claimsStartTime()":"8d56a17b","claimsStarted()":"3e97414f","forwardERC20s(address,uint256)":"9727151a","fundersRing()":"9b68a6ef","generateRing()":"48fae23b","getAvailableRings()":"b9a43f2e","getInitialRings()":"df477ead","getRingPrice()":"a0e52f89","getTokenIdRingType(uint256)":"2701b325","getTotalMintedRings()":"46bf289f","getTotalMintedRingsByType()":"2ce82a71","mint(uint8,uint256)":"f26748e2","mintlistMerkleRoot1()":"4ed1eb24","mintlistMerkleRoot2()":"1c7f4a02","mintlistMint(uint8,uint256,uint256,bytes32[])":"4e054c39","mintlistMintedPerType(address,uint256)":"772d3be0","mintlistStartTime()":"f4cde4c0","mintlistStarted()":"93cb4147","mintlisted(address,bytes32,bytes32[])":"792a77d9","owner()":"8da5cb5b","ownerMint(uint8[],address[])":"9f0664b5","publicMintStartTime()":"d3cf00a3","publicStarted()":"8c6d8ef6","renounceOwnership()":"715018a6","ringGlobalOffset()":"5242a493","ringPrice()":"1af3ba81","ringTypeLocalOffset(uint256)":"96c9f88b","ringsMinted(uint256)":"158ae298","setClaimlistMerkleRoot(bytes32)":"411d13f7","setClaimsStartTime(uint256)":"260c0886","setFundersRing(address)":"ae6b6dae","setGlobalIdOffset(uint256)":"a637f973","setLocalIdOffsets(uint256[])":"cc644fd2","setMintlistMerkleRoot1(bytes32)":"cef58283","setMintlistMerkleRoot2(bytes32)":"c2774dac","setMintlistStartTime(uint256)":"6e1a1a60","setPrice(uint256)":"91b7f5ed","setPublicMintStartTime(uint256)":"5fcd80a6","setRingsAvailable(uint256)":"205ed382","setVaultAddress(address)":"85535cc5","transferOwnership(address)":"f2fde38b","vault()":"fbfa77cf","withdraw(uint256)":"2e1a7d4d","withdrawAll()":"853828b6"}}}}}