{"contracts/ERC721PresetMinterPauserAutoIdCustomized.sol":{"ERC721PresetMinterPauserAutoIdCustomized":{"abi":[{"inputs":[{"internalType":"string","name":"name","type":"string"},{"internalType":"string","name":"symbol","type":"string"},{"internalType":"string","name":"baseTokenURI","type":"string"}],"stateMutability":"nonpayable","type":"constructor"},{"anonymous":false,"inputs":[{"indexed":true,"internalType":"address","name":"owner","type":"address"},{"indexed":true,"internalType":"address","name":"approved","type":"address"},{"indexed":true,"internalType":"uint256","name":"tokenId","type":"uint256"}],"name":"Approval","type":"event"},{"anonymous":false,"inputs":[{"indexed":true,"internalType":"address","name":"owner","type":"address"},{"indexed":true,"internalType":"address","name":"operator","type":"address"},{"indexed":false,"internalType":"bool","name":"approved","type":"bool"}],"name":"ApprovalForAll","type":"event"},{"anonymous":false,"inputs":[{"indexed":false,"internalType":"address","name":"account","type":"address"}],"name":"Paused","type":"event"},{"anonymous":false,"inputs":[{"indexed":true,"internalType":"bytes32","name":"role","type":"bytes32"},{"indexed":true,"internalType":"bytes32","name":"previousAdminRole","type":"bytes32"},{"indexed":true,"internalType":"bytes32","name":"newAdminRole","type":"bytes32"}],"name":"RoleAdminChanged","type":"event"},{"anonymous":false,"inputs":[{"indexed":true,"internalType":"bytes32","name":"role","type":"bytes32"},{"indexed":true,"internalType":"address","name":"account","type":"address"},{"indexed":true,"internalType":"address","name":"sender","type":"address"}],"name":"RoleGranted","type":"event"},{"anonymous":false,"inputs":[{"indexed":true,"internalType":"bytes32","name":"role","type":"bytes32"},{"indexed":true,"internalType":"address","name":"account","type":"address"},{"indexed":true,"internalType":"address","name":"sender","type":"address"}],"name":"RoleRevoked","type":"event"},{"anonymous":false,"inputs":[{"indexed":true,"internalType":"address","name":"from","type":"address"},{"indexed":true,"internalType":"address","name":"to","type":"address"},{"indexed":true,"internalType":"uint256","name":"tokenId","type":"uint256"}],"name":"Transfer","type":"event"},{"anonymous":false,"inputs":[{"indexed":false,"internalType":"address","name":"account","type":"address"}],"name":"Unpaused","type":"event"},{"inputs":[],"name":"DEFAULT_ADMIN_ROLE","outputs":[{"internalType":"bytes32","name":"","type":"bytes32"}],"stateMutability":"view","type":"function"},{"inputs":[],"name":"MINTER_ROLE","outputs":[{"internalType":"bytes32","name":"","type":"bytes32"}],"stateMutability":"view","type":"function"},{"inputs":[],"name":"PAUSER_ROLE","outputs":[{"internalType":"bytes32","name":"","type":"bytes32"}],"stateMutability":"view","type":"function"},{"inputs":[{"internalType":"address","name":"to","type":"address"},{"internalType":"uint256","name":"tokenId","type":"uint256"}],"name":"approve","outputs":[],"stateMutability":"nonpayable","type":"function"},{"inputs":[{"internalType":"address","name":"owner","type":"address"}],"name":"balanceOf","outputs":[{"internalType":"uint256","name":"","type":"uint256"}],"stateMutability":"view","type":"function"},{"inputs":[{"internalType":"uint256","name":"tokenId","type":"uint256"}],"name":"burn","outputs":[],"stateMutability":"nonpayable","type":"function"},{"inputs":[{"internalType":"uint256","name":"tokenId","type":"uint256"}],"name":"getApproved","outputs":[{"internalType":"address","name":"","type":"address"}],"stateMutability":"view","type":"function"},{"inputs":[{"internalType":"bytes32","name":"role","type":"bytes32"}],"name":"getRoleAdmin","outputs":[{"internalType":"bytes32","name":"","type":"bytes32"}],"stateMutability":"view","type":"function"},{"inputs":[{"internalType":"bytes32","name":"role","type":"bytes32"},{"internalType":"uint256","name":"index","type":"uint256"}],"name":"getRoleMember","outputs":[{"internalType":"address","name":"","type":"address"}],"stateMutability":"view","type":"function"},{"inputs":[{"internalType":"bytes32","name":"role","type":"bytes32"}],"name":"getRoleMemberCount","outputs":[{"internalType":"uint256","name":"","type":"uint256"}],"stateMutability":"view","type":"function"},{"inputs":[{"internalType":"bytes32","name":"role","type":"bytes32"},{"internalType":"address","name":"account","type":"address"}],"name":"grantRole","outputs":[],"stateMutability":"nonpayable","type":"function"},{"inputs":[{"internalType":"bytes32","name":"role","type":"bytes32"},{"internalType":"address","name":"account","type":"address"}],"name":"hasRole","outputs":[{"internalType":"bool","name":"","type":"bool"}],"stateMutability":"view","type":"function"},{"inputs":[{"internalType":"address","name":"owner","type":"address"},{"internalType":"address","name":"operator","type":"address"}],"name":"isApprovedForAll","outputs":[{"internalType":"bool","name":"","type":"bool"}],"stateMutability":"view","type":"function"},{"inputs":[{"internalType":"address","name":"to","type":"address"}],"name":"mint","outputs":[{"internalType":"uint256","name":"_tokenId","type":"uint256"}],"stateMutability":"nonpayable","type":"function"},{"inputs":[],"name":"name","outputs":[{"internalType":"string","name":"","type":"string"}],"stateMutability":"view","type":"function"},{"inputs":[{"internalType":"uint256","name":"tokenId","type":"uint256"}],"name":"ownerOf","outputs":[{"internalType":"address","name":"","type":"address"}],"stateMutability":"view","type":"function"},{"inputs":[],"name":"pause","outputs":[],"stateMutability":"nonpayable","type":"function"},{"inputs":[],"name":"paused","outputs":[{"internalType":"bool","name":"","type":"bool"}],"stateMutability":"view","type":"function"},{"inputs":[{"internalType":"bytes32","name":"role","type":"bytes32"},{"internalType":"address","name":"account","type":"address"}],"name":"renounceRole","outputs":[],"stateMutability":"nonpayable","type":"function"},{"inputs":[{"internalType":"bytes32","name":"role","type":"bytes32"},{"internalType":"address","name":"account","type":"address"}],"name":"revokeRole","outputs":[],"stateMutability":"nonpayable","type":"function"},{"inputs":[{"internalType":"address","name":"from","type":"address"},{"internalType":"address","name":"to","type":"address"},{"internalType":"uint256","name":"tokenId","type":"uint256"}],"name":"safeTransferFrom","outputs":[],"stateMutability":"nonpayable","type":"function"},{"inputs":[{"internalType":"address","name":"from","type":"address"},{"internalType":"address","name":"to","type":"address"},{"internalType":"uint256","name":"tokenId","type":"uint256"},{"internalType":"bytes","name":"data","type":"bytes"}],"name":"safeTransferFrom","outputs":[],"stateMutability":"nonpayable","type":"function"},{"inputs":[{"internalType":"address","name":"operator","type":"address"},{"internalType":"bool","name":"approved","type":"bool"}],"name":"setApprovalForAll","outputs":[],"stateMutability":"nonpayable","type":"function"},{"inputs":[{"internalType":"string","name":"baseTokenURI","type":"string"}],"name":"setBaseURI","outputs":[],"stateMutability":"nonpayable","type":"function"},{"inputs":[{"internalType":"bytes4","name":"interfaceId","type":"bytes4"}],"name":"supportsInterface","outputs":[{"internalType":"bool","name":"","type":"bool"}],"stateMutability":"view","type":"function"},{"inputs":[],"name":"symbol","outputs":[{"internalType":"string","name":"","type":"string"}],"stateMutability":"view","type":"function"},{"inputs":[{"internalType":"uint256","name":"index","type":"uint256"}],"name":"tokenByIndex","outputs":[{"internalType":"uint256","name":"","type":"uint256"}],"stateMutability":"view","type":"function"},{"inputs":[{"internalType":"address","name":"owner","type":"address"},{"internalType":"uint256","name":"index","type":"uint256"}],"name":"tokenOfOwnerByIndex","outputs":[{"internalType":"uint256","name":"","type":"uint256"}],"stateMutability":"view","type":"function"},{"inputs":[{"internalType":"uint256","name":"tokenId","type":"uint256"}],"name":"tokenURI","outputs":[{"internalType":"string","name":"","type":"string"}],"stateMutability":"view","type":"function"},{"inputs":[],"name":"totalSupply","outputs":[{"internalType":"uint256","name":"","type":"uint256"}],"stateMutability":"view","type":"function"},{"inputs":[{"internalType":"address","name":"from","type":"address"},{"internalType":"address","name":"to","type":"address"},{"internalType":"uint256","name":"tokenId","type":"uint256"}],"name":"transferFrom","outputs":[],"stateMutability":"nonpayable","type":"function"},{"inputs":[],"name":"unpause","outputs":[],"stateMutability":"nonpayable","type":"function"}],"evm":{"bytecode":{"linkReferences":{},"object":"60806040523480156200001157600080fd5b506040516200549338038062005493833981810160405281019062000037919062000582565b828281600290816200004a919062000886565b5080600390816200005c919062000886565b5050506000600c60006101000a81548160ff02191690831515021790555080600e90816200008b919062000886565b50620000b06000801b620000a46200014d60201b60201c565b6200015560201b60201c565b620000f17f9f2df0fed2c77648de5860a4cc508cd0818c85b8b8a1ab4ceeef8d981c8956a6620000e56200014d60201b60201c565b6200015560201b60201c565b620001327f65d7a28e3265b37a6474929f336521b332c1681b933f6cb9f3376673440d862a620001266200014d60201b60201c565b6200015560201b60201c565b62000144600d6200016b60201b60201c565b5050506200096d565b600033905090565b6200016782826200018160201b60201c565b5050565b6001816000016000828254019250508190555050565b620001938282620001bf60201b60201c565b620001ba8160016000858152602001908152602001600020620002b060201b90919060201c565b505050565b620001d18282620002e860201b60201c565b620002ac57600160008084815260200190815260200160002060000160008373ffffffffffffffffffffffffffffffffffffffff1673ffffffffffffffffffffffffffffffffffffffff16815260200190815260200160002060006101000a81548160ff021916908315150217905550620002516200014d60201b60201c565b73ffffffffffffffffffffffffffffffffffffffff168173ffffffffffffffffffffffffffffffffffffffff16837f2f8788117e7eff1d82e926ec794901d17c78024a50270940304540a733656f0d60405160405180910390a45b5050565b6000620002e0836000018373ffffffffffffffffffffffffffffffffffffffff1660001b6200035260201b60201c565b905092915050565b600080600084815260200190815260200160002060000160008373ffffffffffffffffffffffffffffffffffffffff1673ffffffffffffffffffffffffffffffffffffffff16815260200190815260200160002060009054906101000a900460ff16905092915050565b6000620003668383620003cc60201b60201c565b620003c1578260000182908060018154018082558091505060019003906000526020600020016000909190919091505582600001805490508360010160008481526020019081526020016000208190555060019050620003c6565b600090505b92915050565b600080836001016000848152602001908152602001600020541415905092915050565b6000604051905090565b600080fd5b600080fd5b600080fd5b600080fd5b6000601f19601f8301169050919050565b7f4e487b7100000000000000000000000000000000000000000000000000000000600052604160045260246000fd5b62000458826200040d565b810181811067ffffffffffffffff821117156200047a57620004796200041e565b5b80604052505050565b60006200048f620003ef565b90506200049d82826200044d565b919050565b600067ffffffffffffffff821115620004c057620004bf6200041e565b5b620004cb826200040d565b9050602081019050919050565b60005b83811015620004f8578082015181840152602081019050620004db565b60008484015250505050565b60006200051b6200051584620004a2565b62000483565b9050828152602081018484840111156200053a576200053962000408565b5b62000547848285620004d8565b509392505050565b600082601f83011262000567576200056662000403565b5b81516200057984826020860162000504565b91505092915050565b6000806000606084860312156200059e576200059d620003f9565b5b600084015167ffffffffffffffff811115620005bf57620005be620003fe565b5b620005cd868287016200054f565b935050602084015167ffffffffffffffff811115620005f157620005f0620003fe565b5b620005ff868287016200054f565b925050604084015167ffffffffffffffff811115620006235762000622620003fe565b5b62000631868287016200054f565b9150509250925092565b600081519050919050565b7f4e487b7100000000000000000000000000000000000000000000000000000000600052602260045260246000fd5b600060028204905060018216806200068e57607f821691505b602082108103620006a457620006a362000646565b5b50919050565b60008190508160005260206000209050919050565b60006020601f8301049050919050565b600082821b905092915050565b6000600883026200070e7fffffffffffffffffffffffffffffffffffffffffffffffffffffffffffffffff82620006cf565b6200071a8683620006cf565b95508019841693508086168417925050509392505050565b6000819050919050565b6000819050919050565b600062000767620007616200075b8462000732565b6200073c565b62000732565b9050919050565b6000819050919050565b620007838362000746565b6200079b62000792826200076e565b848454620006dc565b825550505050565b600090565b620007b2620007a3565b620007bf81848462000778565b505050565b5b81811015620007e757620007db600082620007a8565b600181019050620007c5565b5050565b601f82111562000836576200080081620006aa565b6200080b84620006bf565b810160208510156200081b578190505b620008336200082a85620006bf565b830182620007c4565b50505b505050565b600082821c905092915050565b60006200085b600019846008026200083b565b1980831691505092915050565b600062000876838362000848565b9150826002028217905092915050565b62000891826200063b565b67ffffffffffffffff811115620008ad57620008ac6200041e565b5b620008b9825462000675565b620008c6828285620007eb565b600060209050601f831160018114620008fe5760008415620008e9578287015190505b620008f5858262000868565b86555062000965565b601f1984166200090e86620006aa565b60005b82811015620009385784890151825560018201915060208501945060208101905062000911565b8683101562000958578489015162000954601f89168262000848565b8355505b6001600288020188555050505b505050505050565b614b16806200097d6000396000f3fe608060405234801561001057600080fd5b50600436106101f05760003560e01c80636352211e1161010f578063a22cb465116100a2578063d539139311610071578063d5391393146105db578063d547741f146105f9578063e63ab1e914610615578063e985e9c514610633576101f0565b8063a22cb46514610543578063b88d4fde1461055f578063c87b56dd1461057b578063ca15c873146105ab576101f0565b80639010d07c116100de5780639010d07c146104a757806391d14854146104d757806395d89b4114610507578063a217fddf14610525576101f0565b80636352211e1461040d5780636a6278421461043d57806370a082311461046d5780638456cb591461049d576101f0565b80632f745c591161018757806342966c681161015657806342966c68146103875780634f6ccce7146103a357806355f804b3146103d35780635c975abb146103ef576101f0565b80632f745c591461031557806336568abe146103455780633f4ba83a1461036157806342842e0e1461036b576101f0565b806318160ddd116101c357806318160ddd1461028f57806323b872dd146102ad578063248a9ca3146102c95780632f2ff15d146102f9576101f0565b806301ffc9a7146101f557806306fdde0314610225578063081812fc14610243578063095ea7b314610273575b600080fd5b61020f600480360381019061020a9190613197565b610663565b60405161021c91906131df565b60405180910390f35b61022d6106dd565b60405161023a919061328a565b60405180910390f35b61025d600480360381019061025891906132e2565b61076f565b60405161026a9190613350565b60405180910390f35b61028d60048036038101906102889190613397565b6107b5565b005b6102976108cc565b6040516102a491906133e6565b60405180910390f35b6102c760048036038101906102c29190613401565b6108d9565b005b6102e360048036038101906102de919061348a565b610939565b6040516102f091906134c6565b60405180910390f35b610313600480360381019061030e91906134e1565b610958565b005b61032f600480360381019061032a9190613397565b610979565b60405161033c91906133e6565b60405180910390f35b61035f600480360381019061035a91906134e1565b610a1e565b005b610369610aa1565b005b61038560048036038101906103809190613401565b610b1b565b005b6103a1600480360381019061039c91906132e2565b610b3b565b005b6103bd60048036038101906103b891906132e2565b610b97565b6040516103ca91906133e6565b60405180910390f35b6103ed60048036038101906103e89190613656565b610c08565b005b6103f7610c29565b60405161040491906131df565b60405180910390f35b610427600480360381019061042291906132e2565b610c40565b6040516104349190613350565b60405180910390f35b6104576004803603810190610452919061369f565b610cc6565b60405161046491906133e6565b60405180910390f35b6104876004803603810190610482919061369f565b610d48565b60405161049491906133e6565b60405180910390f35b6104a5610dff565b005b6104c160048036038101906104bc91906136cc565b610e79565b6040516104ce9190613350565b60405180910390f35b6104f160048036038101906104ec91906134e1565b610ea8565b6040516104fe91906131df565b60405180910390f35b61050f610f12565b60405161051c919061328a565b60405180910390f35b61052d610fa4565b60405161053a91906134c6565b60405180910390f35b61055d60048036038101906105589190613738565b610fab565b005b61057960048036038101906105749190613819565b610fc1565b005b610595600480360381019061059091906132e2565b611023565b6040516105a2919061328a565b60405180910390f35b6105c560048036038101906105c0919061348a565b61108b565b6040516105d291906133e6565b60405180910390f35b6105e36110af565b6040516105f091906134c6565b60405180910390f35b610613600480360381019061060e91906134e1565b6110d3565b005b61061d6110f4565b60405161062a91906134c6565b60405180910390f35b61064d6004803603810190610648919061389c565b611118565b60405161065a91906131df565b60405180910390f35b60007fd17f1b21000000000000000000000000000000000000000000000000000000007bffffffffffffffffffffffffffffffffffffffffffffffffffffffff1916827bffffffffffffffffffffffffffffffffffffffffffffffffffffffff191614806106d657506106d5826111ac565b5b9050919050565b6060600280546106ec9061390b565b80601f01602080910402602001604051908101604052809291908181526020018280546107189061390b565b80156107655780601f1061073a57610100808354040283529160200191610765565b820191906000526020600020905b81548152906001019060200180831161074857829003601f168201915b5050505050905090565b600061077a82611226565b6006600083815260200190815260200160002060009054906101000a900473ffffffffffffffffffffffffffffffffffffffff169050919050565b60006107c082610c40565b90508073ffffffffffffffffffffffffffffffffffffffff168373ffffffffffffffffffffffffffffffffffffffff1603610830576040517f08c379a0000000000000000000000000000000000000000000000000000000008152600401610827906139ae565b60405180910390fd5b8073ffffffffffffffffffffffffffffffffffffffff1661084f611271565b73ffffffffffffffffffffffffffffffffffffffff16148061087e575061087d81610878611271565b611118565b5b6108bd576040517f08c379a00000000000000000000000000000000000000000000000000000000081526004016108b490613a40565b60405180910390fd5b6108c78383611279565b505050565b6000600a80549050905090565b6108ea6108e4611271565b82611332565b610929576040517f08c379a000000000000000000000000000000000000000000000000000000000815260040161092090613ad2565b60405180910390fd5b6109348383836113c7565b505050565b6000806000838152602001908152602001600020600101549050919050565b61096182610939565b61096a816116c0565b61097483836116d4565b505050565b600061098483610d48565b82106109c5576040517f08c379a00000000000000000000000000000000000000000000000000000000081526004016109bc90613b64565b60405180910390fd5b600860008473ffffffffffffffffffffffffffffffffffffffff1673ffffffffffffffffffffffffffffffffffffffff168152602001908152602001600020600083815260200190815260200160002054905092915050565b610a26611271565b73ffffffffffffffffffffffffffffffffffffffff168173ffffffffffffffffffffffffffffffffffffffff1614610a93576040517f08c379a0000000000000000000000000000000000000000000000000000000008152600401610a8a90613bf6565b60405180910390fd5b610a9d8282611708565b5050565b610ad27f65d7a28e3265b37a6474929f336521b332c1681b933f6cb9f3376673440d862a610acd611271565b610ea8565b610b11576040517f08c379a0000000000000000000000000000000000000000000000000000000008152600401610b0890613c88565b60405180910390fd5b610b1961173c565b565b610b3683838360405180602001604052806000815250610fc1565b505050565b610b4c610b46611271565b82611332565b610b8b576040517f08c379a0000000000000000000000000000000000000000000000000000000008152600401610b8290613ad2565b60405180910390fd5b610b948161179f565b50565b6000610ba16108cc565b8210610be2576040517f08c379a0000000000000000000000000000000000000000000000000000000008152600401610bd990613d1a565b60405180910390fd5b600a8281548110610bf657610bf5613d3a565b5b90600052602060002001549050919050565b6000801b610c15816116c0565b81600e9081610c249190613f15565b505050565b6000600c60009054906101000a900460ff16905090565b600080610c4c836118ed565b9050600073ffffffffffffffffffffffffffffffffffffffff168173ffffffffffffffffffffffffffffffffffffffff1603610cbd576040517f08c379a0000000000000000000000000000000000000000000000000000000008152600401610cb490614033565b60405180910390fd5b80915050919050565b6000610cf97f9f2df0fed2c77648de5860a4cc508cd0818c85b8b8a1ab4ceeef8d981c8956a6610cf4611271565b610ea8565b610d38576040517f08c379a0000000000000000000000000000000000000000000000000000000008152600401610d2f906140c5565b60405180910390fd5b610d418261192a565b9050919050565b60008073ffffffffffffffffffffffffffffffffffffffff168273ffffffffffffffffffffffffffffffffffffffff1603610db8576040517f08c379a0000000000000000000000000000000000000000000000000000000008152600401610daf90614157565b60405180910390fd5b600560008373ffffffffffffffffffffffffffffffffffffffff1673ffffffffffffffffffffffffffffffffffffffff168152602001908152602001600020549050919050565b610e307f65d7a28e3265b37a6474929f336521b332c1681b933f6cb9f3376673440d862a610e2b611271565b610ea8565b610e6f576040517f08c379a0000000000000000000000000000000000000000000000000000000008152600401610e66906141e9565b60405180910390fd5b610e77611951565b565b6000610ea082600160008681526020019081526020016000206119b490919063ffffffff16565b905092915050565b600080600084815260200190815260200160002060000160008373ffffffffffffffffffffffffffffffffffffffff1673ffffffffffffffffffffffffffffffffffffffff16815260200190815260200160002060009054906101000a900460ff16905092915050565b606060038054610f219061390b565b80601f0160208091040260200160405190810160405280929190818152602001828054610f4d9061390b565b8015610f9a5780601f10610f6f57610100808354040283529160200191610f9a565b820191906000526020600020905b815481529060010190602001808311610f7d57829003601f168201915b5050505050905090565b6000801b81565b610fbd610fb6611271565b83836119ce565b5050565b610fd2610fcc611271565b83611332565b611011576040517f08c379a000000000000000000000000000000000000000000000000000000000815260040161100890613ad2565b60405180910390fd5b61101d84848484611b3a565b50505050565b606061102e82611226565b6000611038611b96565b905060008151116110585760405180602001604052806000815250611083565b8061106284611c28565b604051602001611073929190614245565b6040516020818303038152906040525b915050919050565b60006110a860016000848152602001908152602001600020611cf6565b9050919050565b7f9f2df0fed2c77648de5860a4cc508cd0818c85b8b8a1ab4ceeef8d981c8956a681565b6110dc82610939565b6110e5816116c0565b6110ef8383611708565b505050565b7f65d7a28e3265b37a6474929f336521b332c1681b933f6cb9f3376673440d862a81565b6000600760008473ffffffffffffffffffffffffffffffffffffffff1673ffffffffffffffffffffffffffffffffffffffff16815260200190815260200160002060008373ffffffffffffffffffffffffffffffffffffffff1673ffffffffffffffffffffffffffffffffffffffff16815260200190815260200160002060009054906101000a900460ff16905092915050565b60007f780e9d63000000000000000000000000000000000000000000000000000000007bffffffffffffffffffffffffffffffffffffffffffffffffffffffff1916827bffffffffffffffffffffffffffffffffffffffffffffffffffffffff1916148061121f575061121e82611d0b565b5b9050919050565b61122f81611ded565b61126e576040517f08c379a000000000000000000000000000000000000000000000000000000000815260040161126590614033565b60405180910390fd5b50565b600033905090565b816006600083815260200190815260200160002060006101000a81548173ffffffffffffffffffffffffffffffffffffffff021916908373ffffffffffffffffffffffffffffffffffffffff160217905550808273ffffffffffffffffffffffffffffffffffffffff166112ec83610c40565b73ffffffffffffffffffffffffffffffffffffffff167f8c5be1e5ebec7d5bd14f71427d1e84f3dd0314c0f7b2291e5b200ac8c7c3b92560405160405180910390a45050565b60008061133e83610c40565b90508073ffffffffffffffffffffffffffffffffffffffff168473ffffffffffffffffffffffffffffffffffffffff161480611380575061137f8185611118565b5b806113be57508373ffffffffffffffffffffffffffffffffffffffff166113a68461076f565b73ffffffffffffffffffffffffffffffffffffffff16145b91505092915050565b8273ffffffffffffffffffffffffffffffffffffffff166113e782610c40565b73ffffffffffffffffffffffffffffffffffffffff161461143d576040517f08c379a0000000000000000000000000000000000000000000000000000000008152600401611434906142db565b60405180910390fd5b600073ffffffffffffffffffffffffffffffffffffffff168273ffffffffffffffffffffffffffffffffffffffff16036114ac576040517f08c379a00000000000000000000000000000000000000000000000000000000081526004016114a39061436d565b60405180910390fd5b6114b98383836001611e2e565b8273ffffffffffffffffffffffffffffffffffffffff166114d982610c40565b73ffffffffffffffffffffffffffffffffffffffff161461152f576040517f08c379a0000000000000000000000000000000000000000000000000000000008152600401611526906142db565b60405180910390fd5b6006600082815260200190815260200160002060006101000a81549073ffffffffffffffffffffffffffffffffffffffff02191690556001600560008573ffffffffffffffffffffffffffffffffffffffff1673ffffffffffffffffffffffffffffffffffffffff168152602001908152602001600020600082825403925050819055506001600560008473ffffffffffffffffffffffffffffffffffffffff1673ffffffffffffffffffffffffffffffffffffffff16815260200190815260200160002060008282540192505081905550816004600083815260200190815260200160002060006101000a81548173ffffffffffffffffffffffffffffffffffffffff021916908373ffffffffffffffffffffffffffffffffffffffff160217905550808273ffffffffffffffffffffffffffffffffffffffff168473ffffffffffffffffffffffffffffffffffffffff167fddf252ad1be2c89b69c2b068fc378daa952ba7f163c4a11628f55a4df523b3ef60405160405180910390a46116bb8383836001611e40565b505050565b6116d1816116cc611271565b611e46565b50565b6116de8282611ecb565b6117038160016000858152602001908152602001600020611fab90919063ffffffff16565b505050565b6117128282611fdb565b61173781600160008581526020019081526020016000206120bc90919063ffffffff16565b505050565b6117446120ec565b6000600c60006101000a81548160ff0219169083151502179055507f5db9ee0a495bf2e6ff9c91a7834c1ba4fdd244a5e8aa4e537bd38aeae4b073aa611788611271565b6040516117959190613350565b60405180910390a1565b60006117aa82610c40565b90506117ba816000846001611e2e565b6117c382610c40565b90506006600083815260200190815260200160002060006101000a81549073ffffffffffffffffffffffffffffffffffffffff02191690556001600560008373ffffffffffffffffffffffffffffffffffffffff1673ffffffffffffffffffffffffffffffffffffffff168152602001908152602001600020600082825403925050819055506004600083815260200190815260200160002060006101000a81549073ffffffffffffffffffffffffffffffffffffffff021916905581600073ffffffffffffffffffffffffffffffffffffffff168273ffffffffffffffffffffffffffffffffffffffff167fddf252ad1be2c89b69c2b068fc378daa952ba7f163c4a11628f55a4df523b3ef60405160405180910390a46118e9816000846001611e40565b5050565b60006004600083815260200190815260200160002060009054906101000a900473ffffffffffffffffffffffffffffffffffffffff169050919050565b6000611936600d612135565b90506119428282612143565b61194c600d612360565b919050565b611959612376565b6001600c60006101000a81548160ff0219169083151502179055507f62e78cea01bee320cd4e420270b5ea74000d11b0c9f74754ebdbfc544b05a25861199d611271565b6040516119aa9190613350565b60405180910390a1565b60006119c383600001836123c0565b60001c905092915050565b8173ffffffffffffffffffffffffffffffffffffffff168373ffffffffffffffffffffffffffffffffffffffff1603611a3c576040517f08c379a0000000000000000000000000000000000000000000000000000000008152600401611a33906143d9565b60405180910390fd5b80600760008573ffffffffffffffffffffffffffffffffffffffff1673ffffffffffffffffffffffffffffffffffffffff16815260200190815260200160002060008473ffffffffffffffffffffffffffffffffffffffff1673ffffffffffffffffffffffffffffffffffffffff16815260200190815260200160002060006101000a81548160ff0219169083151502179055508173ffffffffffffffffffffffffffffffffffffffff168373ffffffffffffffffffffffffffffffffffffffff167f17307eab39ab6107e8899845ad3d59bd9653f200f220920489ca2b5937696c3183604051611b2d91906131df565b60405180910390a3505050565b611b458484846113c7565b611b51848484846123eb565b611b90576040517f08c379a0000000000000000000000000000000000000000000000000000000008152600401611b879061446b565b60405180910390fd5b50505050565b6060600e8054611ba59061390b565b80601f0160208091040260200160405190810160405280929190818152602001828054611bd19061390b565b8015611c1e5780601f10611bf357610100808354040283529160200191611c1e565b820191906000526020600020905b815481529060010190602001808311611c0157829003601f168201915b5050505050905090565b606060006001611c3784612572565b01905060008167ffffffffffffffff811115611c5657611c5561352b565b5b6040519080825280601f01601f191660200182016040528015611c885781602001600182028036833780820191505090505b509050600082602001820190505b600115611ceb578080600190039150507f3031323334353637383961626364656600000000000000000000000000000000600a86061a8153600a8581611cdf57611cde61448b565b5b04945060008503611c96575b819350505050919050565b6000611d04826000016126c5565b9050919050565b60007f80ac58cd000000000000000000000000000000000000000000000000000000007bffffffffffffffffffffffffffffffffffffffffffffffffffffffff1916827bffffffffffffffffffffffffffffffffffffffffffffffffffffffff19161480611dd657507f5b5e139f000000000000000000000000000000000000000000000000000000007bffffffffffffffffffffffffffffffffffffffffffffffffffffffff1916827bffffffffffffffffffffffffffffffffffffffffffffffffffffffff1916145b80611de65750611de5826126d6565b5b9050919050565b60008073ffffffffffffffffffffffffffffffffffffffff16611e0f836118ed565b73ffffffffffffffffffffffffffffffffffffffff1614159050919050565b611e3a84848484612750565b50505050565b50505050565b611e508282610ea8565b611ec757611e5d816127aa565b611e6b8360001c60206127d7565b604051602001611e7c929190614552565b6040516020818303038152906040526040517f08c379a0000000000000000000000000000000000000000000000000000000008152600401611ebe919061328a565b60405180910390fd5b5050565b611ed58282610ea8565b611fa757600160008084815260200190815260200160002060000160008373ffffffffffffffffffffffffffffffffffffffff1673ffffffffffffffffffffffffffffffffffffffff16815260200190815260200160002060006101000a81548160ff021916908315150217905550611f4c611271565b73ffffffffffffffffffffffffffffffffffffffff168173ffffffffffffffffffffffffffffffffffffffff16837f2f8788117e7eff1d82e926ec794901d17c78024a50270940304540a733656f0d60405160405180910390a45b5050565b6000611fd3836000018373ffffffffffffffffffffffffffffffffffffffff1660001b612a13565b905092915050565b611fe58282610ea8565b156120b857600080600084815260200190815260200160002060000160008373ffffffffffffffffffffffffffffffffffffffff1673ffffffffffffffffffffffffffffffffffffffff16815260200190815260200160002060006101000a81548160ff02191690831515021790555061205d611271565b73ffffffffffffffffffffffffffffffffffffffff168173ffffffffffffffffffffffffffffffffffffffff16837ff6391f5c32d9c69d2a47ea670b442974b53935d1edc7fd64eb21e047a839171b60405160405180910390a45b5050565b60006120e4836000018373ffffffffffffffffffffffffffffffffffffffff1660001b612a83565b905092915050565b6120f4610c29565b612133576040517f08c379a000000000000000000000000000000000000000000000000000000000815260040161212a906145d8565b60405180910390fd5b565b600081600001549050919050565b600073ffffffffffffffffffffffffffffffffffffffff168273ffffffffffffffffffffffffffffffffffffffff16036121b2576040517f08c379a00000000000000000000000000000000000000000000000000000000081526004016121a990614644565b60405180910390fd5b6121bb81611ded565b156121fb576040517f08c379a00000000000000000000000000000000000000000000000000000000081526004016121f2906146b0565b60405180910390fd5b612209600083836001611e2e565b61221281611ded565b15612252576040517f08c379a0000000000000000000000000000000000000000000000000000000008152600401612249906146b0565b60405180910390fd5b6001600560008473ffffffffffffffffffffffffffffffffffffffff1673ffffffffffffffffffffffffffffffffffffffff16815260200190815260200160002060008282540192505081905550816004600083815260200190815260200160002060006101000a81548173ffffffffffffffffffffffffffffffffffffffff021916908373ffffffffffffffffffffffffffffffffffffffff160217905550808273ffffffffffffffffffffffffffffffffffffffff16600073ffffffffffffffffffffffffffffffffffffffff167fddf252ad1be2c89b69c2b068fc378daa952ba7f163c4a11628f55a4df523b3ef60405160405180910390a461235c600083836001611e40565b5050565b6001816000016000828254019250508190555050565b61237e610c29565b156123be576040517f08c379a00000000000000000000000000000000000000000000000000000000081526004016123b59061471c565b60405180910390fd5b565b60008260000182815481106123d8576123d7613d3a565b5b9060005260206000200154905092915050565b600061240c8473ffffffffffffffffffffffffffffffffffffffff16612b97565b15612565578373ffffffffffffffffffffffffffffffffffffffff1663150b7a02612435611271565b8786866040518563ffffffff1660e01b81526004016124579493929190614791565b6020604051808303816000875af192505050801561249357506040513d601f19601f8201168201806040525081019061249091906147f2565b60015b612515573d80600081146124c3576040519150601f19603f3d011682016040523d82523d6000602084013e6124c8565b606091505b50600081510361250d576040517f08c379a00000000000000000000000000000000000000000000000000000000081526004016125049061446b565b60405180910390fd5b805181602001fd5b63150b7a0260e01b7bffffffffffffffffffffffffffffffffffffffffffffffffffffffff1916817bffffffffffffffffffffffffffffffffffffffffffffffffffffffff19161491505061256a565b600190505b949350505050565b600080600090507a184f03e93ff9f4daa797ed6e38ed64bf6a1f01000000000000000083106125d0577a184f03e93ff9f4daa797ed6e38ed64bf6a1f01000000000000000083816125c6576125c561448b565b5b0492506040810190505b6d04ee2d6d415b85acef8100000000831061260d576d04ee2d6d415b85acef810000000083816126035761260261448b565b5b0492506020810190505b662386f26fc10000831061263c57662386f26fc1000083816126325761263161448b565b5b0492506010810190505b6305f5e1008310612665576305f5e100838161265b5761265a61448b565b5b0492506008810190505b612710831061268a5761271083816126805761267f61448b565b5b0492506004810190505b606483106126ad57606483816126a3576126a261448b565b5b0492506002810190505b600a83106126bc576001810190505b80915050919050565b600081600001805490509050919050565b60007f5a05180f000000000000000000000000000000000000000000000000000000007bffffffffffffffffffffffffffffffffffffffffffffffffffffffff1916827bffffffffffffffffffffffffffffffffffffffffffffffffffffffff19161480612749575061274882612bba565b5b9050919050565b61275c84848484612c34565b612764610c29565b156127a4576040517f08c379a000000000000000000000000000000000000000000000000000000000815260040161279b90614891565b60405180910390fd5b50505050565b60606127d08273ffffffffffffffffffffffffffffffffffffffff16601460ff166127d7565b9050919050565b6060600060028360026127ea91906148e0565b6127f49190614922565b67ffffffffffffffff81111561280d5761280c61352b565b5b6040519080825280601f01601f19166020018201604052801561283f5781602001600182028036833780820191505090505b5090507f30000000000000000000000000000000000000000000000000000000000000008160008151811061287757612876613d3a565b5b60200101907effffffffffffffffffffffffffffffffffffffffffffffffffffffffffffff1916908160001a9053507f7800000000000000000000000000000000000000000000000000000000000000816001815181106128db576128da613d3a565b5b60200101907effffffffffffffffffffffffffffffffffffffffffffffffffffffffffffff1916908160001a9053506000600184600261291b91906148e0565b6129259190614922565b90505b60018111156129c5577f3031323334353637383961626364656600000000000000000000000000000000600f86166010811061296757612966613d3a565b5b1a60f81b82828151811061297e5761297d613d3a565b5b60200101907effffffffffffffffffffffffffffffffffffffffffffffffffffffffffffff1916908160001a905350600485901c9450806129be90614956565b9050612928565b5060008414612a09576040517f08c379a0000000000000000000000000000000000000000000000000000000008152600401612a00906149cb565b60405180910390fd5b8091505092915050565b6000612a1f8383612d92565b612a78578260000182908060018154018082558091505060019003906000526020600020016000909190919091505582600001805490508360010160008481526020019081526020016000208190555060019050612a7d565b600090505b92915050565b60008083600101600084815260200190815260200160002054905060008114612b8b576000600182612ab591906149eb565b9050600060018660000180549050612acd91906149eb565b9050818114612b3c576000866000018281548110612aee57612aed613d3a565b5b9060005260206000200154905080876000018481548110612b1257612b11613d3a565b5b90600052602060002001819055508387600101600083815260200190815260200160002081905550505b85600001805480612b5057612b4f614a1f565b5b600190038181906000526020600020016000905590558560010160008681526020019081526020016000206000905560019350505050612b91565b60009150505b92915050565b6000808273ffffffffffffffffffffffffffffffffffffffff163b119050919050565b60007f7965db0b000000000000000000000000000000000000000000000000000000007bffffffffffffffffffffffffffffffffffffffffffffffffffffffff1916827bffffffffffffffffffffffffffffffffffffffffffffffffffffffff19161480612c2d5750612c2c82612db5565b5b9050919050565b612c4084848484612e1f565b6001811115612c84576040517f08c379a0000000000000000000000000000000000000000000000000000000008152600401612c7b90614ac0565b60405180910390fd5b6000829050600073ffffffffffffffffffffffffffffffffffffffff168573ffffffffffffffffffffffffffffffffffffffff1603612ccb57612cc681612e25565b612d0a565b8373ffffffffffffffffffffffffffffffffffffffff168573ffffffffffffffffffffffffffffffffffffffff1614612d0957612d088582612e6e565b5b5b600073ffffffffffffffffffffffffffffffffffffffff168473ffffffffffffffffffffffffffffffffffffffff1603612d4c57612d4781612fdb565b612d8b565b8473ffffffffffffffffffffffffffffffffffffffff168473ffffffffffffffffffffffffffffffffffffffff1614612d8a57612d8984826130ac565b5b5b5050505050565b600080836001016000848152602001908152602001600020541415905092915050565b60007f01ffc9a7000000000000000000000000000000000000000000000000000000007bffffffffffffffffffffffffffffffffffffffffffffffffffffffff1916827bffffffffffffffffffffffffffffffffffffffffffffffffffffffff1916149050919050565b50505050565b600a80549050600b600083815260200190815260200160002081905550600a81908060018154018082558091505060019003906000526020600020016000909190919091505550565b60006001612e7b84610d48565b612e8591906149eb565b9050600060096000848152602001908152602001600020549050818114612f6a576000600860008673ffffffffffffffffffffffffffffffffffffffff1673ffffffffffffffffffffffffffffffffffffffff168152602001908152602001600020600084815260200190815260200160002054905080600860008773ffffffffffffffffffffffffffffffffffffffff1673ffffffffffffffffffffffffffffffffffffffff168152602001908152602001600020600084815260200190815260200160002081905550816009600083815260200190815260200160002081905550505b6009600084815260200190815260200160002060009055600860008573ffffffffffffffffffffffffffffffffffffffff1673ffffffffffffffffffffffffffffffffffffffff16815260200190815260200160002060008381526020019081526020016000206000905550505050565b60006001600a80549050612fef91906149eb565b90506000600b60008481526020019081526020016000205490506000600a838154811061301f5761301e613d3a565b5b9060005260206000200154905080600a838154811061304157613040613d3a565b5b906000526020600020018190555081600b600083815260200190815260200160002081905550600b600085815260200190815260200160002060009055600a8054806130905761308f614a1f565b5b6001900381819060005260206000200160009055905550505050565b60006130b783610d48565b905081600860008573ffffffffffffffffffffffffffffffffffffffff1673ffffffffffffffffffffffffffffffffffffffff168152602001908152602001600020600083815260200190815260200160002081905550806009600084815260200190815260200160002081905550505050565b6000604051905090565b600080fd5b600080fd5b60007fffffffff0000000000000000000000000000000000000000000000000000000082169050919050565b6131748161313f565b811461317f57600080fd5b50565b6000813590506131918161316b565b92915050565b6000602082840312156131ad576131ac613135565b5b60006131bb84828501613182565b91505092915050565b60008115159050919050565b6131d9816131c4565b82525050565b60006020820190506131f460008301846131d0565b92915050565b600081519050919050565b600082825260208201905092915050565b60005b83811015613234578082015181840152602081019050613219565b60008484015250505050565b6000601f19601f8301169050919050565b600061325c826131fa565b6132668185613205565b9350613276818560208601613216565b61327f81613240565b840191505092915050565b600060208201905081810360008301526132a48184613251565b905092915050565b6000819050919050565b6132bf816132ac565b81146132ca57600080fd5b50565b6000813590506132dc816132b6565b92915050565b6000602082840312156132f8576132f7613135565b5b6000613306848285016132cd565b91505092915050565b600073ffffffffffffffffffffffffffffffffffffffff82169050919050565b600061333a8261330f565b9050919050565b61334a8161332f565b82525050565b60006020820190506133656000830184613341565b92915050565b6133748161332f565b811461337f57600080fd5b50565b6000813590506133918161336b565b92915050565b600080604083850312156133ae576133ad613135565b5b60006133bc85828601613382565b92505060206133cd858286016132cd565b9150509250929050565b6133e0816132ac565b82525050565b60006020820190506133fb60008301846133d7565b92915050565b60008060006060848603121561341a57613419613135565b5b600061342886828701613382565b935050602061343986828701613382565b925050604061344a868287016132cd565b9150509250925092565b6000819050919050565b61346781613454565b811461347257600080fd5b50565b6000813590506134848161345e565b92915050565b6000602082840312156134a05761349f613135565b5b60006134ae84828501613475565b91505092915050565b6134c081613454565b82525050565b60006020820190506134db60008301846134b7565b92915050565b600080604083850312156134f8576134f7613135565b5b600061350685828601613475565b925050602061351785828601613382565b9150509250929050565b600080fd5b600080fd5b7f4e487b7100000000000000000000000000000000000000000000000000000000600052604160045260246000fd5b61356382613240565b810181811067ffffffffffffffff821117156135825761358161352b565b5b80604052505050565b600061359561312b565b90506135a1828261355a565b919050565b600067ffffffffffffffff8211156135c1576135c061352b565b5b6135ca82613240565b9050602081019050919050565b82818337600083830152505050565b60006135f96135f4846135a6565b61358b565b90508281526020810184848401111561361557613614613526565b5b6136208482856135d7565b509392505050565b600082601f83011261363d5761363c613521565b5b813561364d8482602086016135e6565b91505092915050565b60006020828403121561366c5761366b613135565b5b600082013567ffffffffffffffff81111561368a5761368961313a565b5b61369684828501613628565b91505092915050565b6000602082840312156136b5576136b4613135565b5b60006136c384828501613382565b91505092915050565b600080604083850312156136e3576136e2613135565b5b60006136f185828601613475565b9250506020613702858286016132cd565b9150509250929050565b613715816131c4565b811461372057600080fd5b50565b6000813590506137328161370c565b92915050565b6000806040838503121561374f5761374e613135565b5b600061375d85828601613382565b925050602061376e85828601613723565b9150509250929050565b600067ffffffffffffffff8211156137935761379261352b565b5b61379c82613240565b9050602081019050919050565b60006137bc6137b784613778565b61358b565b9050828152602081018484840111156137d8576137d7613526565b5b6137e38482856135d7565b509392505050565b600082601f830112613800576137ff613521565b5b81356138108482602086016137a9565b91505092915050565b6000806000806080858703121561383357613832613135565b5b600061384187828801613382565b945050602061385287828801613382565b9350506040613863878288016132cd565b925050606085013567ffffffffffffffff8111156138845761388361313a565b5b613890878288016137eb565b91505092959194509250565b600080604083850312156138b3576138b2613135565b5b60006138c185828601613382565b92505060206138d285828601613382565b9150509250929050565b7f4e487b7100000000000000000000000000000000000000000000000000000000600052602260045260246000fd5b6000600282049050600182168061392357607f821691505b602082108103613936576139356138dc565b5b50919050565b7f4552433732313a20617070726f76616c20746f2063757272656e74206f776e6560008201527f7200000000000000000000000000000000000000000000000000000000000000602082015250565b6000613998602183613205565b91506139a38261393c565b604082019050919050565b600060208201905081810360008301526139c78161398b565b9050919050565b7f4552433732313a20617070726f76652063616c6c6572206973206e6f7420746f60008201527f6b656e206f776e6572206f7220617070726f76656420666f7220616c6c000000602082015250565b6000613a2a603d83613205565b9150613a35826139ce565b604082019050919050565b60006020820190508181036000830152613a5981613a1d565b9050919050565b7f4552433732313a2063616c6c6572206973206e6f7420746f6b656e206f776e6560008201527f72206f7220617070726f76656400000000000000000000000000000000000000602082015250565b6000613abc602d83613205565b9150613ac782613a60565b604082019050919050565b60006020820190508181036000830152613aeb81613aaf565b9050919050565b7f455243373231456e756d657261626c653a206f776e657220696e646578206f7560008201527f74206f6620626f756e6473000000000000000000000000000000000000000000602082015250565b6000613b4e602b83613205565b9150613b5982613af2565b604082019050919050565b60006020820190508181036000830152613b7d81613b41565b9050919050565b7f416363657373436f6e74726f6c3a2063616e206f6e6c792072656e6f756e636560008201527f20726f6c657320666f722073656c660000000000000000000000000000000000602082015250565b6000613be0602f83613205565b9150613beb82613b84565b604082019050919050565b60006020820190508181036000830152613c0f81613bd3565b9050919050565b7f4552433732315072657365744d696e7465725061757365724175746f49643a2060008201527f6d75737420686176652070617573657220726f6c6520746f20756e7061757365602082015250565b6000613c72604083613205565b9150613c7d82613c16565b604082019050919050565b60006020820190508181036000830152613ca181613c65565b9050919050565b7f455243373231456e756d657261626c653a20676c6f62616c20696e646578206f60008201527f7574206f6620626f756e64730000000000000000000000000000000000000000602082015250565b6000613d04602c83613205565b9150613d0f82613ca8565b604082019050919050565b60006020820190508181036000830152613d3381613cf7565b9050919050565b7f4e487b7100000000000000000000000000000000000000000000000000000000600052603260045260246000fd5b60008190508160005260206000209050919050565b60006020601f8301049050919050565b600082821b905092915050565b600060088302613dcb7fffffffffffffffffffffffffffffffffffffffffffffffffffffffffffffffff82613d8e565b613dd58683613d8e565b95508019841693508086168417925050509392505050565b6000819050919050565b6000613e12613e0d613e08846132ac565b613ded565b6132ac565b9050919050565b6000819050919050565b613e2c83613df7565b613e40613e3882613e19565b848454613d9b565b825550505050565b600090565b613e55613e48565b613e60818484613e23565b505050565b5b81811015613e8457613e79600082613e4d565b600181019050613e66565b5050565b601f821115613ec957613e9a81613d69565b613ea384613d7e565b81016020851015613eb2578190505b613ec6613ebe85613d7e565b830182613e65565b50505b505050565b600082821c905092915050565b6000613eec60001984600802613ece565b1980831691505092915050565b6000613f058383613edb565b9150826002028217905092915050565b613f1e826131fa565b67ffffffffffffffff811115613f3757613f3661352b565b5b613f41825461390b565b613f4c828285613e88565b600060209050601f831160018114613f7f5760008415613f6d578287015190505b613f778582613ef9565b865550613fdf565b601f198416613f8d86613d69565b60005b82811015613fb557848901518255600182019150602085019450602081019050613f90565b86831015613fd25784890151613fce601f891682613edb565b8355505b6001600288020188555050505b505050505050565b7f4552433732313a20696e76616c696420746f6b656e2049440000000000000000600082015250565b600061401d601883613205565b915061402882613fe7565b602082019050919050565b6000602082019050818103600083015261404c81614010565b9050919050565b7f4552433732315072657365744d696e7465725061757365724175746f49643a2060008201527f6d7573742068617665206d696e74657220726f6c6520746f206d696e74000000602082015250565b60006140af603d83613205565b91506140ba82614053565b604082019050919050565b600060208201905081810360008301526140de816140a2565b9050919050565b7f4552433732313a2061646472657373207a65726f206973206e6f74206120766160008201527f6c6964206f776e65720000000000000000000000000000000000000000000000602082015250565b6000614141602983613205565b915061414c826140e5565b604082019050919050565b6000602082019050818103600083015261417081614134565b9050919050565b7f4552433732315072657365744d696e7465725061757365724175746f49643a2060008201527f6d75737420686176652070617573657220726f6c6520746f2070617573650000602082015250565b60006141d3603e83613205565b91506141de82614177565b604082019050919050565b60006020820190508181036000830152614202816141c6565b9050919050565b600081905092915050565b600061421f826131fa565b6142298185614209565b9350614239818560208601613216565b80840191505092915050565b60006142518285614214565b915061425d8284614214565b91508190509392505050565b7f4552433732313a207472616e736665722066726f6d20696e636f72726563742060008201527f6f776e6572000000000000000000000000000000000000000000000000000000602082015250565b60006142c5602583613205565b91506142d082614269565b604082019050919050565b600060208201905081810360008301526142f4816142b8565b9050919050565b7f4552433732313a207472616e7366657220746f20746865207a65726f2061646460008201527f7265737300000000000000000000000000000000000000000000000000000000602082015250565b6000614357602483613205565b9150614362826142fb565b604082019050919050565b600060208201905081810360008301526143868161434a565b9050919050565b7f4552433732313a20617070726f766520746f2063616c6c657200000000000000600082015250565b60006143c3601983613205565b91506143ce8261438d565b602082019050919050565b600060208201905081810360008301526143f2816143b6565b9050919050565b7f4552433732313a207472616e7366657220746f206e6f6e20455243373231526560008201527f63656976657220696d706c656d656e7465720000000000000000000000000000602082015250565b6000614455603283613205565b9150614460826143f9565b604082019050919050565b6000602082019050818103600083015261448481614448565b9050919050565b7f4e487b7100000000000000000000000000000000000000000000000000000000600052601260045260246000fd5b7f416363657373436f6e74726f6c3a206163636f756e7420000000000000000000600082015250565b60006144f0601783614209565b91506144fb826144ba565b601782019050919050565b7f206973206d697373696e6720726f6c6520000000000000000000000000000000600082015250565b600061453c601183614209565b915061454782614506565b601182019050919050565b600061455d826144e3565b91506145698285614214565b91506145748261452f565b91506145808284614214565b91508190509392505050565b7f5061757361626c653a206e6f7420706175736564000000000000000000000000600082015250565b60006145c2601483613205565b91506145cd8261458c565b602082019050919050565b600060208201905081810360008301526145f1816145b5565b9050919050565b7f4552433732313a206d696e7420746f20746865207a65726f2061646472657373600082015250565b600061462e602083613205565b9150614639826145f8565b602082019050919050565b6000602082019050818103600083015261465d81614621565b9050919050565b7f4552433732313a20746f6b656e20616c7265616479206d696e74656400000000600082015250565b600061469a601c83613205565b91506146a582614664565b602082019050919050565b600060208201905081810360008301526146c98161468d565b9050919050565b7f5061757361626c653a2070617573656400000000000000000000000000000000600082015250565b6000614706601083613205565b9150614711826146d0565b602082019050919050565b60006020820190508181036000830152614735816146f9565b9050919050565b600081519050919050565b600082825260208201905092915050565b60006147638261473c565b61476d8185614747565b935061477d818560208601613216565b61478681613240565b840191505092915050565b60006080820190506147a66000830187613341565b6147b36020830186613341565b6147c060408301856133d7565b81810360608301526147d28184614758565b905095945050505050565b6000815190506147ec8161316b565b92915050565b60006020828403121561480857614807613135565b5b6000614816848285016147dd565b91505092915050565b7f4552433732315061757361626c653a20746f6b656e207472616e73666572207760008201527f68696c6520706175736564000000000000000000000000000000000000000000602082015250565b600061487b602b83613205565b91506148868261481f565b604082019050919050565b600060208201905081810360008301526148aa8161486e565b9050919050565b7f4e487b7100000000000000000000000000000000000000000000000000000000600052601160045260246000fd5b60006148eb826132ac565b91506148f6836132ac565b9250828202614904816132ac565b9150828204841483151761491b5761491a6148b1565b5b5092915050565b600061492d826132ac565b9150614938836132ac565b92508282019050808211156149505761494f6148b1565b5b92915050565b6000614961826132ac565b915060008203614974576149736148b1565b5b600182039050919050565b7f537472696e67733a20686578206c656e67746820696e73756666696369656e74600082015250565b60006149b5602083613205565b91506149c08261497f565b602082019050919050565b600060208201905081810360008301526149e4816149a8565b9050919050565b60006149f6826132ac565b9150614a01836132ac565b9250828203905081811115614a1957614a186148b1565b5b92915050565b7f4e487b7100000000000000000000000000000000000000000000000000000000600052603160045260246000fd5b7f455243373231456e756d657261626c653a20636f6e736563757469766520747260008201527f616e7366657273206e6f7420737570706f727465640000000000000000000000602082015250565b6000614aaa603583613205565b9150614ab582614a4e565b604082019050919050565b60006020820190508181036000830152614ad981614a9d565b905091905056fea2646970667358221220e9e7b3e7f5a32bcf094371347b238c136b84b1544398fc43fcb5505f219b705b64736f6c63430008130033","opcodes":"PUSH1 0x80 PUSH1 0x40 MSTORE CALLVALUE DUP1 ISZERO PUSH3 0x11 JUMPI PUSH1 0x0 DUP1 REVERT JUMPDEST POP PUSH1 0x40 MLOAD PUSH3 0x5493 CODESIZE SUB DUP1 PUSH3 0x5493 DUP4 CODECOPY DUP2 DUP2 ADD PUSH1 0x40 MSTORE DUP2 ADD SWAP1 PUSH3 0x37 SWAP2 SWAP1 PUSH3 0x582 JUMP JUMPDEST DUP3 DUP3 DUP2 PUSH1 0x2 SWAP1 DUP2 PUSH3 0x4A SWAP2 SWAP1 PUSH3 0x886 JUMP JUMPDEST POP DUP1 PUSH1 0x3 SWAP1 DUP2 PUSH3 0x5C SWAP2 SWAP1 PUSH3 0x886 JUMP JUMPDEST POP POP POP PUSH1 0x0 PUSH1 0xC PUSH1 0x0 PUSH2 0x100 EXP DUP2 SLOAD DUP2 PUSH1 0xFF MUL NOT AND SWAP1 DUP4 ISZERO ISZERO MUL OR SWAP1 SSTORE POP DUP1 PUSH1 0xE SWAP1 DUP2 PUSH3 0x8B SWAP2 SWAP1 PUSH3 0x886 JUMP JUMPDEST POP PUSH3 0xB0 PUSH1 0x0 DUP1 SHL PUSH3 0xA4 PUSH3 0x14D PUSH1 0x20 SHL PUSH1 0x20 SHR JUMP JUMPDEST PUSH3 0x155 PUSH1 0x20 SHL PUSH1 0x20 SHR JUMP JUMPDEST PUSH3 0xF1 PUSH32 0x9F2DF0FED2C77648DE5860A4CC508CD0818C85B8B8A1AB4CEEEF8D981C8956A6 PUSH3 0xE5 PUSH3 0x14D PUSH1 0x20 SHL PUSH1 0x20 SHR JUMP JUMPDEST PUSH3 0x155 PUSH1 0x20 SHL PUSH1 0x20 SHR JUMP JUMPDEST PUSH3 0x132 PUSH32 0x65D7A28E3265B37A6474929F336521B332C1681B933F6CB9F3376673440D862A PUSH3 0x126 PUSH3 0x14D PUSH1 0x20 SHL PUSH1 0x20 SHR JUMP JUMPDEST PUSH3 0x155 PUSH1 0x20 SHL PUSH1 0x20 SHR JUMP JUMPDEST PUSH3 0x144 PUSH1 0xD PUSH3 0x16B PUSH1 0x20 SHL PUSH1 0x20 SHR JUMP JUMPDEST POP POP POP PUSH3 0x96D JUMP JUMPDEST PUSH1 0x0 CALLER SWAP1 POP SWAP1 JUMP JUMPDEST PUSH3 0x167 DUP3 DUP3 PUSH3 0x181 PUSH1 0x20 SHL PUSH1 0x20 SHR JUMP JUMPDEST POP POP JUMP JUMPDEST PUSH1 0x1 DUP2 PUSH1 0x0 ADD PUSH1 0x0 DUP3 DUP3 SLOAD ADD SWAP3 POP POP DUP2 SWAP1 SSTORE POP POP JUMP JUMPDEST PUSH3 0x193 DUP3 DUP3 PUSH3 0x1BF PUSH1 0x20 SHL PUSH1 0x20 SHR JUMP JUMPDEST PUSH3 0x1BA DUP2 PUSH1 0x1 PUSH1 0x0 DUP6 DUP2 MSTORE PUSH1 0x20 ADD SWAP1 DUP2 MSTORE PUSH1 0x20 ADD PUSH1 0x0 KECCAK256 PUSH3 0x2B0 PUSH1 0x20 SHL SWAP1 SWAP2 SWAP1 PUSH1 0x20 SHR JUMP JUMPDEST POP POP POP JUMP JUMPDEST PUSH3 0x1D1 DUP3 DUP3 PUSH3 0x2E8 PUSH1 0x20 SHL PUSH1 0x20 SHR JUMP JUMPDEST PUSH3 0x2AC JUMPI PUSH1 0x1 PUSH1 0x0 DUP1 DUP5 DUP2 MSTORE PUSH1 0x20 ADD SWAP1 DUP2 MSTORE PUSH1 0x20 ADD PUSH1 0x0 KECCAK256 PUSH1 0x0 ADD PUSH1 0x0 DUP4 PUSH20 0xFFFFFFFFFFFFFFFFFFFFFFFFFFFFFFFFFFFFFFFF AND PUSH20 0xFFFFFFFFFFFFFFFFFFFFFFFFFFFFFFFFFFFFFFFF AND DUP2 MSTORE PUSH1 0x20 ADD SWAP1 DUP2 MSTORE PUSH1 0x20 ADD PUSH1 0x0 KECCAK256 PUSH1 0x0 PUSH2 0x100 EXP DUP2 SLOAD DUP2 PUSH1 0xFF MUL NOT AND SWAP1 DUP4 ISZERO ISZERO MUL OR SWAP1 SSTORE POP PUSH3 0x251 PUSH3 0x14D PUSH1 0x20 SHL PUSH1 0x20 SHR JUMP JUMPDEST PUSH20 0xFFFFFFFFFFFFFFFFFFFFFFFFFFFFFFFFFFFFFFFF AND DUP2 PUSH20 0xFFFFFFFFFFFFFFFFFFFFFFFFFFFFFFFFFFFFFFFF AND DUP4 PUSH32 0x2F8788117E7EFF1D82E926EC794901D17C78024A50270940304540A733656F0D PUSH1 0x40 MLOAD PUSH1 0x40 MLOAD DUP1 SWAP2 SUB SWAP1 LOG4 JUMPDEST POP POP JUMP JUMPDEST PUSH1 0x0 PUSH3 0x2E0 DUP4 PUSH1 0x0 ADD DUP4 PUSH20 0xFFFFFFFFFFFFFFFFFFFFFFFFFFFFFFFFFFFFFFFF AND PUSH1 0x0 SHL PUSH3 0x352 PUSH1 0x20 SHL PUSH1 0x20 SHR JUMP JUMPDEST SWAP1 POP SWAP3 SWAP2 POP POP JUMP JUMPDEST PUSH1 0x0 DUP1 PUSH1 0x0 DUP5 DUP2 MSTORE PUSH1 0x20 ADD SWAP1 DUP2 MSTORE PUSH1 0x20 ADD PUSH1 0x0 KECCAK256 PUSH1 0x0 ADD PUSH1 0x0 DUP4 PUSH20 0xFFFFFFFFFFFFFFFFFFFFFFFFFFFFFFFFFFFFFFFF AND PUSH20 0xFFFFFFFFFFFFFFFFFFFFFFFFFFFFFFFFFFFFFFFF AND DUP2 MSTORE PUSH1 0x20 ADD SWAP1 DUP2 MSTORE PUSH1 0x20 ADD PUSH1 0x0 KECCAK256 PUSH1 0x0 SWAP1 SLOAD SWAP1 PUSH2 0x100 EXP SWAP1 DIV PUSH1 0xFF AND SWAP1 POP SWAP3 SWAP2 POP POP JUMP JUMPDEST PUSH1 0x0 PUSH3 0x366 DUP4 DUP4 PUSH3 0x3CC PUSH1 0x20 SHL PUSH1 0x20 SHR JUMP JUMPDEST PUSH3 0x3C1 JUMPI DUP3 PUSH1 0x0 ADD DUP3 SWAP1 DUP1 PUSH1 0x1 DUP2 SLOAD ADD DUP1 DUP3 SSTORE DUP1 SWAP2 POP POP PUSH1 0x1 SWAP1 SUB SWAP1 PUSH1 0x0 MSTORE PUSH1 0x20 PUSH1 0x0 KECCAK256 ADD PUSH1 0x0 SWAP1 SWAP2 SWAP1 SWAP2 SWAP1 SWAP2 POP SSTORE DUP3 PUSH1 0x0 ADD DUP1 SLOAD SWAP1 POP DUP4 PUSH1 0x1 ADD PUSH1 0x0 DUP5 DUP2 MSTORE PUSH1 0x20 ADD SWAP1 DUP2 MSTORE PUSH1 0x20 ADD PUSH1 0x0 KECCAK256 DUP2 SWAP1 SSTORE POP PUSH1 0x1 SWAP1 POP PUSH3 0x3C6 JUMP JUMPDEST PUSH1 0x0 SWAP1 POP JUMPDEST SWAP3 SWAP2 POP POP JUMP JUMPDEST PUSH1 0x0 DUP1 DUP4 PUSH1 0x1 ADD PUSH1 0x0 DUP5 DUP2 MSTORE PUSH1 0x20 ADD SWAP1 DUP2 MSTORE PUSH1 0x20 ADD PUSH1 0x0 KECCAK256 SLOAD EQ ISZERO SWAP1 POP SWAP3 SWAP2 POP POP JUMP JUMPDEST PUSH1 0x0 PUSH1 0x40 MLOAD SWAP1 POP SWAP1 JUMP JUMPDEST PUSH1 0x0 DUP1 REVERT JUMPDEST PUSH1 0x0 DUP1 REVERT JUMPDEST PUSH1 0x0 DUP1 REVERT JUMPDEST PUSH1 0x0 DUP1 REVERT JUMPDEST PUSH1 0x0 PUSH1 0x1F NOT PUSH1 0x1F DUP4 ADD AND SWAP1 POP SWAP2 SWAP1 POP JUMP JUMPDEST PUSH32 0x4E487B7100000000000000000000000000000000000000000000000000000000 PUSH1 0x0 MSTORE PUSH1 0x41 PUSH1 0x4 MSTORE PUSH1 0x24 PUSH1 0x0 REVERT JUMPDEST PUSH3 0x458 DUP3 PUSH3 0x40D JUMP JUMPDEST DUP2 ADD DUP2 DUP2 LT PUSH8 0xFFFFFFFFFFFFFFFF DUP3 GT OR ISZERO PUSH3 0x47A JUMPI PUSH3 0x479 PUSH3 0x41E JUMP JUMPDEST JUMPDEST DUP1 PUSH1 0x40 MSTORE POP POP POP JUMP JUMPDEST PUSH1 0x0 PUSH3 0x48F PUSH3 0x3EF JUMP JUMPDEST SWAP1 POP PUSH3 0x49D DUP3 DUP3 PUSH3 0x44D JUMP JUMPDEST SWAP2 SWAP1 POP JUMP JUMPDEST PUSH1 0x0 PUSH8 0xFFFFFFFFFFFFFFFF DUP3 GT ISZERO PUSH3 0x4C0 JUMPI PUSH3 0x4BF PUSH3 0x41E JUMP JUMPDEST JUMPDEST PUSH3 0x4CB DUP3 PUSH3 0x40D JUMP JUMPDEST SWAP1 POP PUSH1 0x20 DUP2 ADD SWAP1 POP SWAP2 SWAP1 POP JUMP JUMPDEST PUSH1 0x0 JUMPDEST DUP4 DUP2 LT ISZERO PUSH3 0x4F8 JUMPI DUP1 DUP3 ADD MLOAD DUP2 DUP5 ADD MSTORE PUSH1 0x20 DUP2 ADD SWAP1 POP PUSH3 0x4DB JUMP JUMPDEST PUSH1 0x0 DUP5 DUP5 ADD MSTORE POP POP POP POP JUMP JUMPDEST PUSH1 0x0 PUSH3 0x51B PUSH3 0x515 DUP5 PUSH3 0x4A2 JUMP JUMPDEST PUSH3 0x483 JUMP JUMPDEST SWAP1 POP DUP3 DUP2 MSTORE PUSH1 0x20 DUP2 ADD DUP5 DUP5 DUP5 ADD GT ISZERO PUSH3 0x53A JUMPI PUSH3 0x539 PUSH3 0x408 JUMP JUMPDEST JUMPDEST PUSH3 0x547 DUP5 DUP3 DUP6 PUSH3 0x4D8 JUMP JUMPDEST POP SWAP4 SWAP3 POP POP POP JUMP JUMPDEST PUSH1 0x0 DUP3 PUSH1 0x1F DUP4 ADD SLT PUSH3 0x567 JUMPI PUSH3 0x566 PUSH3 0x403 JUMP JUMPDEST JUMPDEST DUP2 MLOAD PUSH3 0x579 DUP5 DUP3 PUSH1 0x20 DUP7 ADD PUSH3 0x504 JUMP JUMPDEST SWAP2 POP POP SWAP3 SWAP2 POP POP JUMP JUMPDEST PUSH1 0x0 DUP1 PUSH1 0x0 PUSH1 0x60 DUP5 DUP7 SUB SLT ISZERO PUSH3 0x59E JUMPI PUSH3 0x59D PUSH3 0x3F9 JUMP JUMPDEST JUMPDEST PUSH1 0x0 DUP5 ADD MLOAD PUSH8 0xFFFFFFFFFFFFFFFF DUP2 GT ISZERO PUSH3 0x5BF JUMPI PUSH3 0x5BE PUSH3 0x3FE JUMP JUMPDEST JUMPDEST PUSH3 0x5CD DUP7 DUP3 DUP8 ADD PUSH3 0x54F JUMP JUMPDEST SWAP4 POP POP PUSH1 0x20 DUP5 ADD MLOAD PUSH8 0xFFFFFFFFFFFFFFFF DUP2 GT ISZERO PUSH3 0x5F1 JUMPI PUSH3 0x5F0 PUSH3 0x3FE JUMP JUMPDEST JUMPDEST PUSH3 0x5FF DUP7 DUP3 DUP8 ADD PUSH3 0x54F JUMP JUMPDEST SWAP3 POP POP PUSH1 0x40 DUP5 ADD MLOAD PUSH8 0xFFFFFFFFFFFFFFFF DUP2 GT ISZERO PUSH3 0x623 JUMPI PUSH3 0x622 PUSH3 0x3FE JUMP JUMPDEST JUMPDEST PUSH3 0x631 DUP7 DUP3 DUP8 ADD PUSH3 0x54F JUMP JUMPDEST SWAP2 POP POP SWAP3 POP SWAP3 POP SWAP3 JUMP JUMPDEST PUSH1 0x0 DUP2 MLOAD SWAP1 POP SWAP2 SWAP1 POP JUMP JUMPDEST PUSH32 0x4E487B7100000000000000000000000000000000000000000000000000000000 PUSH1 0x0 MSTORE PUSH1 0x22 PUSH1 0x4 MSTORE PUSH1 0x24 PUSH1 0x0 REVERT JUMPDEST PUSH1 0x0 PUSH1 0x2 DUP3 DIV SWAP1 POP PUSH1 0x1 DUP3 AND DUP1 PUSH3 0x68E JUMPI PUSH1 0x7F DUP3 AND SWAP2 POP JUMPDEST PUSH1 0x20 DUP3 LT DUP2 SUB PUSH3 0x6A4 JUMPI PUSH3 0x6A3 PUSH3 0x646 JUMP JUMPDEST JUMPDEST POP SWAP2 SWAP1 POP JUMP JUMPDEST PUSH1 0x0 DUP2 SWAP1 POP DUP2 PUSH1 0x0 MSTORE PUSH1 0x20 PUSH1 0x0 KECCAK256 SWAP1 POP SWAP2 SWAP1 POP JUMP JUMPDEST PUSH1 0x0 PUSH1 0x20 PUSH1 0x1F DUP4 ADD DIV SWAP1 POP SWAP2 SWAP1 POP JUMP JUMPDEST PUSH1 0x0 DUP3 DUP3 SHL SWAP1 POP SWAP3 SWAP2 POP POP JUMP JUMPDEST PUSH1 0x0 PUSH1 0x8 DUP4 MUL PUSH3 0x70E PUSH32 0xFFFFFFFFFFFFFFFFFFFFFFFFFFFFFFFFFFFFFFFFFFFFFFFFFFFFFFFFFFFFFFFF DUP3 PUSH3 0x6CF JUMP JUMPDEST PUSH3 0x71A DUP7 DUP4 PUSH3 0x6CF JUMP JUMPDEST SWAP6 POP DUP1 NOT DUP5 AND SWAP4 POP DUP1 DUP7 AND DUP5 OR SWAP3 POP POP POP SWAP4 SWAP3 POP POP POP JUMP JUMPDEST PUSH1 0x0 DUP2 SWAP1 POP SWAP2 SWAP1 POP JUMP JUMPDEST PUSH1 0x0 DUP2 SWAP1 POP SWAP2 SWAP1 POP JUMP JUMPDEST PUSH1 0x0 PUSH3 0x767 PUSH3 0x761 PUSH3 0x75B DUP5 PUSH3 0x732 JUMP JUMPDEST PUSH3 0x73C JUMP JUMPDEST PUSH3 0x732 JUMP JUMPDEST SWAP1 POP SWAP2 SWAP1 POP JUMP JUMPDEST PUSH1 0x0 DUP2 SWAP1 POP SWAP2 SWAP1 POP JUMP JUMPDEST PUSH3 0x783 DUP4 PUSH3 0x746 JUMP JUMPDEST PUSH3 0x79B PUSH3 0x792 DUP3 PUSH3 0x76E JUMP JUMPDEST DUP5 DUP5 SLOAD PUSH3 0x6DC JUMP JUMPDEST DUP3 SSTORE POP POP POP POP JUMP JUMPDEST PUSH1 0x0 SWAP1 JUMP JUMPDEST PUSH3 0x7B2 PUSH3 0x7A3 JUMP JUMPDEST PUSH3 0x7BF DUP2 DUP5 DUP5 PUSH3 0x778 JUMP JUMPDEST POP POP POP JUMP JUMPDEST JUMPDEST DUP2 DUP2 LT ISZERO PUSH3 0x7E7 JUMPI PUSH3 0x7DB PUSH1 0x0 DUP3 PUSH3 0x7A8 JUMP JUMPDEST PUSH1 0x1 DUP2 ADD SWAP1 POP PUSH3 0x7C5 JUMP JUMPDEST POP POP JUMP JUMPDEST PUSH1 0x1F DUP3 GT ISZERO PUSH3 0x836 JUMPI PUSH3 0x800 DUP2 PUSH3 0x6AA JUMP JUMPDEST PUSH3 0x80B DUP5 PUSH3 0x6BF JUMP JUMPDEST DUP2 ADD PUSH1 0x20 DUP6 LT ISZERO PUSH3 0x81B JUMPI DUP2 SWAP1 POP JUMPDEST PUSH3 0x833 PUSH3 0x82A DUP6 PUSH3 0x6BF JUMP JUMPDEST DUP4 ADD DUP3 PUSH3 0x7C4 JUMP JUMPDEST POP POP JUMPDEST POP POP POP JUMP JUMPDEST PUSH1 0x0 DUP3 DUP3 SHR SWAP1 POP SWAP3 SWAP2 POP POP JUMP JUMPDEST PUSH1 0x0 PUSH3 0x85B PUSH1 0x0 NOT DUP5 PUSH1 0x8 MUL PUSH3 0x83B JUMP JUMPDEST NOT DUP1 DUP4 AND SWAP2 POP POP SWAP3 SWAP2 POP POP JUMP JUMPDEST PUSH1 0x0 PUSH3 0x876 DUP4 DUP4 PUSH3 0x848 JUMP JUMPDEST SWAP2 POP DUP3 PUSH1 0x2 MUL DUP3 OR SWAP1 POP SWAP3 SWAP2 POP POP JUMP JUMPDEST PUSH3 0x891 DUP3 PUSH3 0x63B JUMP JUMPDEST PUSH8 0xFFFFFFFFFFFFFFFF DUP2 GT ISZERO PUSH3 0x8AD JUMPI PUSH3 0x8AC PUSH3 0x41E JUMP JUMPDEST JUMPDEST PUSH3 0x8B9 DUP3 SLOAD PUSH3 0x675 JUMP JUMPDEST PUSH3 0x8C6 DUP3 DUP3 DUP6 PUSH3 0x7EB JUMP JUMPDEST PUSH1 0x0 PUSH1 0x20 SWAP1 POP PUSH1 0x1F DUP4 GT PUSH1 0x1 DUP2 EQ PUSH3 0x8FE JUMPI PUSH1 0x0 DUP5 ISZERO PUSH3 0x8E9 JUMPI DUP3 DUP8 ADD MLOAD SWAP1 POP JUMPDEST PUSH3 0x8F5 DUP6 DUP3 PUSH3 0x868 JUMP JUMPDEST DUP7 SSTORE POP PUSH3 0x965 JUMP JUMPDEST PUSH1 0x1F NOT DUP5 AND PUSH3 0x90E DUP7 PUSH3 0x6AA JUMP JUMPDEST PUSH1 0x0 JUMPDEST DUP3 DUP2 LT ISZERO PUSH3 0x938 JUMPI DUP5 DUP10 ADD MLOAD DUP3 SSTORE PUSH1 0x1 DUP3 ADD SWAP2 POP PUSH1 0x20 DUP6 ADD SWAP5 POP PUSH1 0x20 DUP2 ADD SWAP1 POP PUSH3 0x911 JUMP JUMPDEST DUP7 DUP4 LT ISZERO PUSH3 0x958 JUMPI DUP5 DUP10 ADD MLOAD PUSH3 0x954 PUSH1 0x1F DUP10 AND DUP3 PUSH3 0x848 JUMP JUMPDEST DUP4 SSTORE POP JUMPDEST PUSH1 0x1 PUSH1 0x2 DUP9 MUL ADD DUP9 SSTORE POP POP POP JUMPDEST POP POP POP POP POP POP JUMP JUMPDEST PUSH2 0x4B16 DUP1 PUSH3 0x97D PUSH1 0x0 CODECOPY PUSH1 0x0 RETURN INVALID PUSH1 0x80 PUSH1 0x40 MSTORE CALLVALUE DUP1 ISZERO PUSH2 0x10 JUMPI PUSH1 0x0 DUP1 REVERT JUMPDEST POP PUSH1 0x4 CALLDATASIZE LT PUSH2 0x1F0 JUMPI PUSH1 0x0 CALLDATALOAD PUSH1 0xE0 SHR DUP1 PUSH4 0x6352211E GT PUSH2 0x10F JUMPI DUP1 PUSH4 0xA22CB465 GT PUSH2 0xA2 JUMPI DUP1 PUSH4 0xD5391393 GT PUSH2 0x71 JUMPI DUP1 PUSH4 0xD5391393 EQ PUSH2 0x5DB JUMPI DUP1 PUSH4 0xD547741F EQ PUSH2 0x5F9 JUMPI DUP1 PUSH4 0xE63AB1E9 EQ PUSH2 0x615 JUMPI DUP1 PUSH4 0xE985E9C5 EQ PUSH2 0x633 JUMPI PUSH2 0x1F0 JUMP JUMPDEST DUP1 PUSH4 0xA22CB465 EQ PUSH2 0x543 JUMPI DUP1 PUSH4 0xB88D4FDE EQ PUSH2 0x55F JUMPI DUP1 PUSH4 0xC87B56DD EQ PUSH2 0x57B JUMPI DUP1 PUSH4 0xCA15C873 EQ PUSH2 0x5AB JUMPI PUSH2 0x1F0 JUMP JUMPDEST DUP1 PUSH4 0x9010D07C GT PUSH2 0xDE JUMPI DUP1 PUSH4 0x9010D07C EQ PUSH2 0x4A7 JUMPI DUP1 PUSH4 0x91D14854 EQ PUSH2 0x4D7 JUMPI DUP1 PUSH4 0x95D89B41 EQ PUSH2 0x507 JUMPI DUP1 PUSH4 0xA217FDDF EQ PUSH2 0x525 JUMPI PUSH2 0x1F0 JUMP JUMPDEST DUP1 PUSH4 0x6352211E EQ PUSH2 0x40D JUMPI DUP1 PUSH4 0x6A627842 EQ PUSH2 0x43D JUMPI DUP1 PUSH4 0x70A08231 EQ PUSH2 0x46D JUMPI DUP1 PUSH4 0x8456CB59 EQ PUSH2 0x49D JUMPI PUSH2 0x1F0 JUMP JUMPDEST DUP1 PUSH4 0x2F745C59 GT PUSH2 0x187 JUMPI DUP1 PUSH4 0x42966C68 GT PUSH2 0x156 JUMPI DUP1 PUSH4 0x42966C68 EQ PUSH2 0x387 JUMPI DUP1 PUSH4 0x4F6CCCE7 EQ PUSH2 0x3A3 JUMPI DUP1 PUSH4 0x55F804B3 EQ PUSH2 0x3D3 JUMPI DUP1 PUSH4 0x5C975ABB EQ PUSH2 0x3EF JUMPI PUSH2 0x1F0 JUMP JUMPDEST DUP1 PUSH4 0x2F745C59 EQ PUSH2 0x315 JUMPI DUP1 PUSH4 0x36568ABE EQ PUSH2 0x345 JUMPI DUP1 PUSH4 0x3F4BA83A EQ PUSH2 0x361 JUMPI DUP1 PUSH4 0x42842E0E EQ PUSH2 0x36B JUMPI PUSH2 0x1F0 JUMP JUMPDEST DUP1 PUSH4 0x18160DDD GT PUSH2 0x1C3 JUMPI DUP1 PUSH4 0x18160DDD EQ PUSH2 0x28F JUMPI DUP1 PUSH4 0x23B872DD EQ PUSH2 0x2AD JUMPI DUP1 PUSH4 0x248A9CA3 EQ PUSH2 0x2C9 JUMPI DUP1 PUSH4 0x2F2FF15D EQ PUSH2 0x2F9 JUMPI PUSH2 0x1F0 JUMP JUMPDEST DUP1 PUSH4 0x1FFC9A7 EQ PUSH2 0x1F5 JUMPI DUP1 PUSH4 0x6FDDE03 EQ PUSH2 0x225 JUMPI DUP1 PUSH4 0x81812FC EQ PUSH2 0x243 JUMPI DUP1 PUSH4 0x95EA7B3 EQ PUSH2 0x273 JUMPI JUMPDEST PUSH1 0x0 DUP1 REVERT JUMPDEST PUSH2 0x20F PUSH1 0x4 DUP1 CALLDATASIZE SUB DUP2 ADD SWAP1 PUSH2 0x20A SWAP2 SWAP1 PUSH2 0x3197 JUMP JUMPDEST PUSH2 0x663 JUMP JUMPDEST PUSH1 0x40 MLOAD PUSH2 0x21C SWAP2 SWAP1 PUSH2 0x31DF JUMP JUMPDEST PUSH1 0x40 MLOAD DUP1 SWAP2 SUB SWAP1 RETURN JUMPDEST PUSH2 0x22D PUSH2 0x6DD JUMP JUMPDEST PUSH1 0x40 MLOAD PUSH2 0x23A SWAP2 SWAP1 PUSH2 0x328A JUMP JUMPDEST PUSH1 0x40 MLOAD DUP1 SWAP2 SUB SWAP1 RETURN JUMPDEST PUSH2 0x25D PUSH1 0x4 DUP1 CALLDATASIZE SUB DUP2 ADD SWAP1 PUSH2 0x258 SWAP2 SWAP1 PUSH2 0x32E2 JUMP JUMPDEST PUSH2 0x76F JUMP JUMPDEST PUSH1 0x40 MLOAD PUSH2 0x26A SWAP2 SWAP1 PUSH2 0x3350 JUMP JUMPDEST PUSH1 0x40 MLOAD DUP1 SWAP2 SUB SWAP1 RETURN JUMPDEST PUSH2 0x28D PUSH1 0x4 DUP1 CALLDATASIZE SUB DUP2 ADD SWAP1 PUSH2 0x288 SWAP2 SWAP1 PUSH2 0x3397 JUMP JUMPDEST PUSH2 0x7B5 JUMP JUMPDEST STOP JUMPDEST PUSH2 0x297 PUSH2 0x8CC JUMP JUMPDEST PUSH1 0x40 MLOAD PUSH2 0x2A4 SWAP2 SWAP1 PUSH2 0x33E6 JUMP JUMPDEST PUSH1 0x40 MLOAD DUP1 SWAP2 SUB SWAP1 RETURN JUMPDEST PUSH2 0x2C7 PUSH1 0x4 DUP1 CALLDATASIZE SUB DUP2 ADD SWAP1 PUSH2 0x2C2 SWAP2 SWAP1 PUSH2 0x3401 JUMP JUMPDEST PUSH2 0x8D9 JUMP JUMPDEST STOP JUMPDEST PUSH2 0x2E3 PUSH1 0x4 DUP1 CALLDATASIZE SUB DUP2 ADD SWAP1 PUSH2 0x2DE SWAP2 SWAP1 PUSH2 0x348A JUMP JUMPDEST PUSH2 0x939 JUMP JUMPDEST PUSH1 0x40 MLOAD PUSH2 0x2F0 SWAP2 SWAP1 PUSH2 0x34C6 JUMP JUMPDEST PUSH1 0x40 MLOAD DUP1 SWAP2 SUB SWAP1 RETURN JUMPDEST PUSH2 0x313 PUSH1 0x4 DUP1 CALLDATASIZE SUB DUP2 ADD SWAP1 PUSH2 0x30E SWAP2 SWAP1 PUSH2 0x34E1 JUMP JUMPDEST PUSH2 0x958 JUMP JUMPDEST STOP JUMPDEST PUSH2 0x32F PUSH1 0x4 DUP1 CALLDATASIZE SUB DUP2 ADD SWAP1 PUSH2 0x32A SWAP2 SWAP1 PUSH2 0x3397 JUMP JUMPDEST PUSH2 0x979 JUMP JUMPDEST PUSH1 0x40 MLOAD PUSH2 0x33C SWAP2 SWAP1 PUSH2 0x33E6 JUMP JUMPDEST PUSH1 0x40 MLOAD DUP1 SWAP2 SUB SWAP1 RETURN JUMPDEST PUSH2 0x35F PUSH1 0x4 DUP1 CALLDATASIZE SUB DUP2 ADD SWAP1 PUSH2 0x35A SWAP2 SWAP1 PUSH2 0x34E1 JUMP JUMPDEST PUSH2 0xA1E JUMP JUMPDEST STOP JUMPDEST PUSH2 0x369 PUSH2 0xAA1 JUMP JUMPDEST STOP JUMPDEST PUSH2 0x385 PUSH1 0x4 DUP1 CALLDATASIZE SUB DUP2 ADD SWAP1 PUSH2 0x380 SWAP2 SWAP1 PUSH2 0x3401 JUMP JUMPDEST PUSH2 0xB1B JUMP JUMPDEST STOP JUMPDEST PUSH2 0x3A1 PUSH1 0x4 DUP1 CALLDATASIZE SUB DUP2 ADD SWAP1 PUSH2 0x39C SWAP2 SWAP1 PUSH2 0x32E2 JUMP JUMPDEST PUSH2 0xB3B JUMP JUMPDEST STOP JUMPDEST PUSH2 0x3BD PUSH1 0x4 DUP1 CALLDATASIZE SUB DUP2 ADD SWAP1 PUSH2 0x3B8 SWAP2 SWAP1 PUSH2 0x32E2 JUMP JUMPDEST PUSH2 0xB97 JUMP JUMPDEST PUSH1 0x40 MLOAD PUSH2 0x3CA SWAP2 SWAP1 PUSH2 0x33E6 JUMP JUMPDEST PUSH1 0x40 MLOAD DUP1 SWAP2 SUB SWAP1 RETURN JUMPDEST PUSH2 0x3ED PUSH1 0x4 DUP1 CALLDATASIZE SUB DUP2 ADD SWAP1 PUSH2 0x3E8 SWAP2 SWAP1 PUSH2 0x3656 JUMP JUMPDEST PUSH2 0xC08 JUMP JUMPDEST STOP JUMPDEST PUSH2 0x3F7 PUSH2 0xC29 JUMP JUMPDEST PUSH1 0x40 MLOAD PUSH2 0x404 SWAP2 SWAP1 PUSH2 0x31DF JUMP JUMPDEST PUSH1 0x40 MLOAD DUP1 SWAP2 SUB SWAP1 RETURN JUMPDEST PUSH2 0x427 PUSH1 0x4 DUP1 CALLDATASIZE SUB DUP2 ADD SWAP1 PUSH2 0x422 SWAP2 SWAP1 PUSH2 0x32E2 JUMP JUMPDEST PUSH2 0xC40 JUMP JUMPDEST PUSH1 0x40 MLOAD PUSH2 0x434 SWAP2 SWAP1 PUSH2 0x3350 JUMP JUMPDEST PUSH1 0x40 MLOAD DUP1 SWAP2 SUB SWAP1 RETURN JUMPDEST PUSH2 0x457 PUSH1 0x4 DUP1 CALLDATASIZE SUB DUP2 ADD SWAP1 PUSH2 0x452 SWAP2 SWAP1 PUSH2 0x369F JUMP JUMPDEST PUSH2 0xCC6 JUMP JUMPDEST PUSH1 0x40 MLOAD PUSH2 0x464 SWAP2 SWAP1 PUSH2 0x33E6 JUMP JUMPDEST PUSH1 0x40 MLOAD DUP1 SWAP2 SUB SWAP1 RETURN JUMPDEST PUSH2 0x487 PUSH1 0x4 DUP1 CALLDATASIZE SUB DUP2 ADD SWAP1 PUSH2 0x482 SWAP2 SWAP1 PUSH2 0x369F JUMP JUMPDEST PUSH2 0xD48 JUMP JUMPDEST PUSH1 0x40 MLOAD PUSH2 0x494 SWAP2 SWAP1 PUSH2 0x33E6 JUMP JUMPDEST PUSH1 0x40 MLOAD DUP1 SWAP2 SUB SWAP1 RETURN JUMPDEST PUSH2 0x4A5 PUSH2 0xDFF JUMP JUMPDEST STOP JUMPDEST PUSH2 0x4C1 PUSH1 0x4 DUP1 CALLDATASIZE SUB DUP2 ADD SWAP1 PUSH2 0x4BC SWAP2 SWAP1 PUSH2 0x36CC JUMP JUMPDEST PUSH2 0xE79 JUMP JUMPDEST PUSH1 0x40 MLOAD PUSH2 0x4CE SWAP2 SWAP1 PUSH2 0x3350 JUMP JUMPDEST PUSH1 0x40 MLOAD DUP1 SWAP2 SUB SWAP1 RETURN JUMPDEST PUSH2 0x4F1 PUSH1 0x4 DUP1 CALLDATASIZE SUB DUP2 ADD SWAP1 PUSH2 0x4EC SWAP2 SWAP1 PUSH2 0x34E1 JUMP JUMPDEST PUSH2 0xEA8 JUMP JUMPDEST PUSH1 0x40 MLOAD PUSH2 0x4FE SWAP2 SWAP1 PUSH2 0x31DF JUMP JUMPDEST PUSH1 0x40 MLOAD DUP1 SWAP2 SUB SWAP1 RETURN JUMPDEST PUSH2 0x50F PUSH2 0xF12 JUMP JUMPDEST PUSH1 0x40 MLOAD PUSH2 0x51C SWAP2 SWAP1 PUSH2 0x328A JUMP JUMPDEST PUSH1 0x40 MLOAD DUP1 SWAP2 SUB SWAP1 RETURN JUMPDEST PUSH2 0x52D PUSH2 0xFA4 JUMP JUMPDEST PUSH1 0x40 MLOAD PUSH2 0x53A SWAP2 SWAP1 PUSH2 0x34C6 JUMP JUMPDEST PUSH1 0x40 MLOAD DUP1 SWAP2 SUB SWAP1 RETURN JUMPDEST PUSH2 0x55D PUSH1 0x4 DUP1 CALLDATASIZE SUB DUP2 ADD SWAP1 PUSH2 0x558 SWAP2 SWAP1 PUSH2 0x3738 JUMP JUMPDEST PUSH2 0xFAB JUMP JUMPDEST STOP JUMPDEST PUSH2 0x579 PUSH1 0x4 DUP1 CALLDATASIZE SUB DUP2 ADD SWAP1 PUSH2 0x574 SWAP2 SWAP1 PUSH2 0x3819 JUMP JUMPDEST PUSH2 0xFC1 JUMP JUMPDEST STOP JUMPDEST PUSH2 0x595 PUSH1 0x4 DUP1 CALLDATASIZE SUB DUP2 ADD SWAP1 PUSH2 0x590 SWAP2 SWAP1 PUSH2 0x32E2 JUMP JUMPDEST PUSH2 0x1023 JUMP JUMPDEST PUSH1 0x40 MLOAD PUSH2 0x5A2 SWAP2 SWAP1 PUSH2 0x328A JUMP JUMPDEST PUSH1 0x40 MLOAD DUP1 SWAP2 SUB SWAP1 RETURN JUMPDEST PUSH2 0x5C5 PUSH1 0x4 DUP1 CALLDATASIZE SUB DUP2 ADD SWAP1 PUSH2 0x5C0 SWAP2 SWAP1 PUSH2 0x348A JUMP JUMPDEST PUSH2 0x108B JUMP JUMPDEST PUSH1 0x40 MLOAD PUSH2 0x5D2 SWAP2 SWAP1 PUSH2 0x33E6 JUMP JUMPDEST PUSH1 0x40 MLOAD DUP1 SWAP2 SUB SWAP1 RETURN JUMPDEST PUSH2 0x5E3 PUSH2 0x10AF JUMP JUMPDEST PUSH1 0x40 MLOAD PUSH2 0x5F0 SWAP2 SWAP1 PUSH2 0x34C6 JUMP JUMPDEST PUSH1 0x40 MLOAD DUP1 SWAP2 SUB SWAP1 RETURN JUMPDEST PUSH2 0x613 PUSH1 0x4 DUP1 CALLDATASIZE SUB DUP2 ADD SWAP1 PUSH2 0x60E SWAP2 SWAP1 PUSH2 0x34E1 JUMP JUMPDEST PUSH2 0x10D3 JUMP JUMPDEST STOP JUMPDEST PUSH2 0x61D PUSH2 0x10F4 JUMP JUMPDEST PUSH1 0x40 MLOAD PUSH2 0x62A SWAP2 SWAP1 PUSH2 0x34C6 JUMP JUMPDEST PUSH1 0x40 MLOAD DUP1 SWAP2 SUB SWAP1 RETURN JUMPDEST PUSH2 0x64D PUSH1 0x4 DUP1 CALLDATASIZE SUB DUP2 ADD SWAP1 PUSH2 0x648 SWAP2 SWAP1 PUSH2 0x389C JUMP JUMPDEST PUSH2 0x1118 JUMP JUMPDEST PUSH1 0x40 MLOAD PUSH2 0x65A SWAP2 SWAP1 PUSH2 0x31DF JUMP JUMPDEST PUSH1 0x40 MLOAD DUP1 SWAP2 SUB SWAP1 RETURN JUMPDEST PUSH1 0x0 PUSH32 0xD17F1B2100000000000000000000000000000000000000000000000000000000 PUSH28 0xFFFFFFFFFFFFFFFFFFFFFFFFFFFFFFFFFFFFFFFFFFFFFFFFFFFFFFFF NOT AND DUP3 PUSH28 0xFFFFFFFFFFFFFFFFFFFFFFFFFFFFFFFFFFFFFFFFFFFFFFFFFFFFFFFF NOT AND EQ DUP1 PUSH2 0x6D6 JUMPI POP PUSH2 0x6D5 DUP3 PUSH2 0x11AC JUMP JUMPDEST JUMPDEST SWAP1 POP SWAP2 SWAP1 POP JUMP JUMPDEST PUSH1 0x60 PUSH1 0x2 DUP1 SLOAD PUSH2 0x6EC SWAP1 PUSH2 0x390B JUMP JUMPDEST DUP1 PUSH1 0x1F ADD PUSH1 0x20 DUP1 SWAP2 DIV MUL PUSH1 0x20 ADD PUSH1 0x40 MLOAD SWAP1 DUP2 ADD PUSH1 0x40 MSTORE DUP1 SWAP3 SWAP2 SWAP1 DUP2 DUP2 MSTORE PUSH1 0x20 ADD DUP3 DUP1 SLOAD PUSH2 0x718 SWAP1 PUSH2 0x390B JUMP JUMPDEST DUP1 ISZERO PUSH2 0x765 JUMPI DUP1 PUSH1 0x1F LT PUSH2 0x73A JUMPI PUSH2 0x100 DUP1 DUP4 SLOAD DIV MUL DUP4 MSTORE SWAP2 PUSH1 0x20 ADD SWAP2 PUSH2 0x765 JUMP JUMPDEST DUP3 ADD SWAP2 SWAP1 PUSH1 0x0 MSTORE PUSH1 0x20 PUSH1 0x0 KECCAK256 SWAP1 JUMPDEST DUP2 SLOAD DUP2 MSTORE SWAP1 PUSH1 0x1 ADD SWAP1 PUSH1 0x20 ADD DUP1 DUP4 GT PUSH2 0x748 JUMPI DUP3 SWAP1 SUB PUSH1 0x1F AND DUP3 ADD SWAP2 JUMPDEST POP POP POP POP POP SWAP1 POP SWAP1 JUMP JUMPDEST PUSH1 0x0 PUSH2 0x77A DUP3 PUSH2 0x1226 JUMP JUMPDEST PUSH1 0x6 PUSH1 0x0 DUP4 DUP2 MSTORE PUSH1 0x20 ADD SWAP1 DUP2 MSTORE PUSH1 0x20 ADD PUSH1 0x0 KECCAK256 PUSH1 0x0 SWAP1 SLOAD SWAP1 PUSH2 0x100 EXP SWAP1 DIV PUSH20 0xFFFFFFFFFFFFFFFFFFFFFFFFFFFFFFFFFFFFFFFF AND SWAP1 POP SWAP2 SWAP1 POP JUMP JUMPDEST PUSH1 0x0 PUSH2 0x7C0 DUP3 PUSH2 0xC40 JUMP JUMPDEST SWAP1 POP DUP1 PUSH20 0xFFFFFFFFFFFFFFFFFFFFFFFFFFFFFFFFFFFFFFFF AND DUP4 PUSH20 0xFFFFFFFFFFFFFFFFFFFFFFFFFFFFFFFFFFFFFFFF AND SUB PUSH2 0x830 JUMPI PUSH1 0x40 MLOAD PUSH32 0x8C379A000000000000000000000000000000000000000000000000000000000 DUP2 MSTORE PUSH1 0x4 ADD PUSH2 0x827 SWAP1 PUSH2 0x39AE JUMP JUMPDEST PUSH1 0x40 MLOAD DUP1 SWAP2 SUB SWAP1 REVERT JUMPDEST DUP1 PUSH20 0xFFFFFFFFFFFFFFFFFFFFFFFFFFFFFFFFFFFFFFFF AND PUSH2 0x84F PUSH2 0x1271 JUMP JUMPDEST PUSH20 0xFFFFFFFFFFFFFFFFFFFFFFFFFFFFFFFFFFFFFFFF AND EQ DUP1 PUSH2 0x87E JUMPI POP PUSH2 0x87D DUP2 PUSH2 0x878 PUSH2 0x1271 JUMP JUMPDEST PUSH2 0x1118 JUMP JUMPDEST JUMPDEST PUSH2 0x8BD JUMPI PUSH1 0x40 MLOAD PUSH32 0x8C379A000000000000000000000000000000000000000000000000000000000 DUP2 MSTORE PUSH1 0x4 ADD PUSH2 0x8B4 SWAP1 PUSH2 0x3A40 JUMP JUMPDEST PUSH1 0x40 MLOAD DUP1 SWAP2 SUB SWAP1 REVERT JUMPDEST PUSH2 0x8C7 DUP4 DUP4 PUSH2 0x1279 JUMP JUMPDEST POP POP POP JUMP JUMPDEST PUSH1 0x0 PUSH1 0xA DUP1 SLOAD SWAP1 POP SWAP1 POP SWAP1 JUMP JUMPDEST PUSH2 0x8EA PUSH2 0x8E4 PUSH2 0x1271 JUMP JUMPDEST DUP3 PUSH2 0x1332 JUMP JUMPDEST PUSH2 0x929 JUMPI PUSH1 0x40 MLOAD PUSH32 0x8C379A000000000000000000000000000000000000000000000000000000000 DUP2 MSTORE PUSH1 0x4 ADD PUSH2 0x920 SWAP1 PUSH2 0x3AD2 JUMP JUMPDEST PUSH1 0x40 MLOAD DUP1 SWAP2 SUB SWAP1 REVERT JUMPDEST PUSH2 0x934 DUP4 DUP4 DUP4 PUSH2 0x13C7 JUMP JUMPDEST POP POP POP JUMP JUMPDEST PUSH1 0x0 DUP1 PUSH1 0x0 DUP4 DUP2 MSTORE PUSH1 0x20 ADD SWAP1 DUP2 MSTORE PUSH1 0x20 ADD PUSH1 0x0 KECCAK256 PUSH1 0x1 ADD SLOAD SWAP1 POP SWAP2 SWAP1 POP JUMP JUMPDEST PUSH2 0x961 DUP3 PUSH2 0x939 JUMP JUMPDEST PUSH2 0x96A DUP2 PUSH2 0x16C0 JUMP JUMPDEST PUSH2 0x974 DUP4 DUP4 PUSH2 0x16D4 JUMP JUMPDEST POP POP POP JUMP JUMPDEST PUSH1 0x0 PUSH2 0x984 DUP4 PUSH2 0xD48 JUMP JUMPDEST DUP3 LT PUSH2 0x9C5 JUMPI PUSH1 0x40 MLOAD PUSH32 0x8C379A000000000000000000000000000000000000000000000000000000000 DUP2 MSTORE PUSH1 0x4 ADD PUSH2 0x9BC SWAP1 PUSH2 0x3B64 JUMP JUMPDEST PUSH1 0x40 MLOAD DUP1 SWAP2 SUB SWAP1 REVERT JUMPDEST PUSH1 0x8 PUSH1 0x0 DUP5 PUSH20 0xFFFFFFFFFFFFFFFFFFFFFFFFFFFFFFFFFFFFFFFF AND PUSH20 0xFFFFFFFFFFFFFFFFFFFFFFFFFFFFFFFFFFFFFFFF AND DUP2 MSTORE PUSH1 0x20 ADD SWAP1 DUP2 MSTORE PUSH1 0x20 ADD PUSH1 0x0 KECCAK256 PUSH1 0x0 DUP4 DUP2 MSTORE PUSH1 0x20 ADD SWAP1 DUP2 MSTORE PUSH1 0x20 ADD PUSH1 0x0 KECCAK256 SLOAD SWAP1 POP SWAP3 SWAP2 POP POP JUMP JUMPDEST PUSH2 0xA26 PUSH2 0x1271 JUMP JUMPDEST PUSH20 0xFFFFFFFFFFFFFFFFFFFFFFFFFFFFFFFFFFFFFFFF AND DUP2 PUSH20 0xFFFFFFFFFFFFFFFFFFFFFFFFFFFFFFFFFFFFFFFF AND EQ PUSH2 0xA93 JUMPI PUSH1 0x40 MLOAD PUSH32 0x8C379A000000000000000000000000000000000000000000000000000000000 DUP2 MSTORE PUSH1 0x4 ADD PUSH2 0xA8A SWAP1 PUSH2 0x3BF6 JUMP JUMPDEST PUSH1 0x40 MLOAD DUP1 SWAP2 SUB SWAP1 REVERT JUMPDEST PUSH2 0xA9D DUP3 DUP3 PUSH2 0x1708 JUMP JUMPDEST POP POP JUMP JUMPDEST PUSH2 0xAD2 PUSH32 0x65D7A28E3265B37A6474929F336521B332C1681B933F6CB9F3376673440D862A PUSH2 0xACD PUSH2 0x1271 JUMP JUMPDEST PUSH2 0xEA8 JUMP JUMPDEST PUSH2 0xB11 JUMPI PUSH1 0x40 MLOAD PUSH32 0x8C379A000000000000000000000000000000000000000000000000000000000 DUP2 MSTORE PUSH1 0x4 ADD PUSH2 0xB08 SWAP1 PUSH2 0x3C88 JUMP JUMPDEST PUSH1 0x40 MLOAD DUP1 SWAP2 SUB SWAP1 REVERT JUMPDEST PUSH2 0xB19 PUSH2 0x173C JUMP JUMPDEST JUMP JUMPDEST PUSH2 0xB36 DUP4 DUP4 DUP4 PUSH1 0x40 MLOAD DUP1 PUSH1 0x20 ADD PUSH1 0x40 MSTORE DUP1 PUSH1 0x0 DUP2 MSTORE POP PUSH2 0xFC1 JUMP JUMPDEST POP POP POP JUMP JUMPDEST PUSH2 0xB4C PUSH2 0xB46 PUSH2 0x1271 JUMP JUMPDEST DUP3 PUSH2 0x1332 JUMP JUMPDEST PUSH2 0xB8B JUMPI PUSH1 0x40 MLOAD PUSH32 0x8C379A000000000000000000000000000000000000000000000000000000000 DUP2 MSTORE PUSH1 0x4 ADD PUSH2 0xB82 SWAP1 PUSH2 0x3AD2 JUMP JUMPDEST PUSH1 0x40 MLOAD DUP1 SWAP2 SUB SWAP1 REVERT JUMPDEST PUSH2 0xB94 DUP2 PUSH2 0x179F JUMP JUMPDEST POP JUMP JUMPDEST PUSH1 0x0 PUSH2 0xBA1 PUSH2 0x8CC JUMP JUMPDEST DUP3 LT PUSH2 0xBE2 JUMPI PUSH1 0x40 MLOAD PUSH32 0x8C379A000000000000000000000000000000000000000000000000000000000 DUP2 MSTORE PUSH1 0x4 ADD PUSH2 0xBD9 SWAP1 PUSH2 0x3D1A JUMP JUMPDEST PUSH1 0x40 MLOAD DUP1 SWAP2 SUB SWAP1 REVERT JUMPDEST PUSH1 0xA DUP3 DUP2 SLOAD DUP2 LT PUSH2 0xBF6 JUMPI PUSH2 0xBF5 PUSH2 0x3D3A JUMP JUMPDEST JUMPDEST SWAP1 PUSH1 0x0 MSTORE PUSH1 0x20 PUSH1 0x0 KECCAK256 ADD SLOAD SWAP1 POP SWAP2 SWAP1 POP JUMP JUMPDEST PUSH1 0x0 DUP1 SHL PUSH2 0xC15 DUP2 PUSH2 0x16C0 JUMP JUMPDEST DUP2 PUSH1 0xE SWAP1 DUP2 PUSH2 0xC24 SWAP2 SWAP1 PUSH2 0x3F15 JUMP JUMPDEST POP POP POP JUMP JUMPDEST PUSH1 0x0 PUSH1 0xC PUSH1 0x0 SWAP1 SLOAD SWAP1 PUSH2 0x100 EXP SWAP1 DIV PUSH1 0xFF AND SWAP1 POP SWAP1 JUMP JUMPDEST PUSH1 0x0 DUP1 PUSH2 0xC4C DUP4 PUSH2 0x18ED JUMP JUMPDEST SWAP1 POP PUSH1 0x0 PUSH20 0xFFFFFFFFFFFFFFFFFFFFFFFFFFFFFFFFFFFFFFFF AND DUP2 PUSH20 0xFFFFFFFFFFFFFFFFFFFFFFFFFFFFFFFFFFFFFFFF AND SUB PUSH2 0xCBD JUMPI PUSH1 0x40 MLOAD PUSH32 0x8C379A000000000000000000000000000000000000000000000000000000000 DUP2 MSTORE PUSH1 0x4 ADD PUSH2 0xCB4 SWAP1 PUSH2 0x4033 JUMP JUMPDEST PUSH1 0x40 MLOAD DUP1 SWAP2 SUB SWAP1 REVERT JUMPDEST DUP1 SWAP2 POP POP SWAP2 SWAP1 POP JUMP JUMPDEST PUSH1 0x0 PUSH2 0xCF9 PUSH32 0x9F2DF0FED2C77648DE5860A4CC508CD0818C85B8B8A1AB4CEEEF8D981C8956A6 PUSH2 0xCF4 PUSH2 0x1271 JUMP JUMPDEST PUSH2 0xEA8 JUMP JUMPDEST PUSH2 0xD38 JUMPI PUSH1 0x40 MLOAD PUSH32 0x8C379A000000000000000000000000000000000000000000000000000000000 DUP2 MSTORE PUSH1 0x4 ADD PUSH2 0xD2F SWAP1 PUSH2 0x40C5 JUMP JUMPDEST PUSH1 0x40 MLOAD DUP1 SWAP2 SUB SWAP1 REVERT JUMPDEST PUSH2 0xD41 DUP3 PUSH2 0x192A JUMP JUMPDEST SWAP1 POP SWAP2 SWAP1 POP JUMP JUMPDEST PUSH1 0x0 DUP1 PUSH20 0xFFFFFFFFFFFFFFFFFFFFFFFFFFFFFFFFFFFFFFFF AND DUP3 PUSH20 0xFFFFFFFFFFFFFFFFFFFFFFFFFFFFFFFFFFFFFFFF AND SUB PUSH2 0xDB8 JUMPI PUSH1 0x40 MLOAD PUSH32 0x8C379A000000000000000000000000000000000000000000000000000000000 DUP2 MSTORE PUSH1 0x4 ADD PUSH2 0xDAF SWAP1 PUSH2 0x4157 JUMP JUMPDEST PUSH1 0x40 MLOAD DUP1 SWAP2 SUB SWAP1 REVERT JUMPDEST PUSH1 0x5 PUSH1 0x0 DUP4 PUSH20 0xFFFFFFFFFFFFFFFFFFFFFFFFFFFFFFFFFFFFFFFF AND PUSH20 0xFFFFFFFFFFFFFFFFFFFFFFFFFFFFFFFFFFFFFFFF AND DUP2 MSTORE PUSH1 0x20 ADD SWAP1 DUP2 MSTORE PUSH1 0x20 ADD PUSH1 0x0 KECCAK256 SLOAD SWAP1 POP SWAP2 SWAP1 POP JUMP JUMPDEST PUSH2 0xE30 PUSH32 0x65D7A28E3265B37A6474929F336521B332C1681B933F6CB9F3376673440D862A PUSH2 0xE2B PUSH2 0x1271 JUMP JUMPDEST PUSH2 0xEA8 JUMP JUMPDEST PUSH2 0xE6F JUMPI PUSH1 0x40 MLOAD PUSH32 0x8C379A000000000000000000000000000000000000000000000000000000000 DUP2 MSTORE PUSH1 0x4 ADD PUSH2 0xE66 SWAP1 PUSH2 0x41E9 JUMP JUMPDEST PUSH1 0x40 MLOAD DUP1 SWAP2 SUB SWAP1 REVERT JUMPDEST PUSH2 0xE77 PUSH2 0x1951 JUMP JUMPDEST JUMP JUMPDEST PUSH1 0x0 PUSH2 0xEA0 DUP3 PUSH1 0x1 PUSH1 0x0 DUP7 DUP2 MSTORE PUSH1 0x20 ADD SWAP1 DUP2 MSTORE PUSH1 0x20 ADD PUSH1 0x0 KECCAK256 PUSH2 0x19B4 SWAP1 SWAP2 SWAP1 PUSH4 0xFFFFFFFF AND JUMP JUMPDEST SWAP1 POP SWAP3 SWAP2 POP POP JUMP JUMPDEST PUSH1 0x0 DUP1 PUSH1 0x0 DUP5 DUP2 MSTORE PUSH1 0x20 ADD SWAP1 DUP2 MSTORE PUSH1 0x20 ADD PUSH1 0x0 KECCAK256 PUSH1 0x0 ADD PUSH1 0x0 DUP4 PUSH20 0xFFFFFFFFFFFFFFFFFFFFFFFFFFFFFFFFFFFFFFFF AND PUSH20 0xFFFFFFFFFFFFFFFFFFFFFFFFFFFFFFFFFFFFFFFF AND DUP2 MSTORE PUSH1 0x20 ADD SWAP1 DUP2 MSTORE PUSH1 0x20 ADD PUSH1 0x0 KECCAK256 PUSH1 0x0 SWAP1 SLOAD SWAP1 PUSH2 0x100 EXP SWAP1 DIV PUSH1 0xFF AND SWAP1 POP SWAP3 SWAP2 POP POP JUMP JUMPDEST PUSH1 0x60 PUSH1 0x3 DUP1 SLOAD PUSH2 0xF21 SWAP1 PUSH2 0x390B JUMP JUMPDEST DUP1 PUSH1 0x1F ADD PUSH1 0x20 DUP1 SWAP2 DIV MUL PUSH1 0x20 ADD PUSH1 0x40 MLOAD SWAP1 DUP2 ADD PUSH1 0x40 MSTORE DUP1 SWAP3 SWAP2 SWAP1 DUP2 DUP2 MSTORE PUSH1 0x20 ADD DUP3 DUP1 SLOAD PUSH2 0xF4D SWAP1 PUSH2 0x390B JUMP JUMPDEST DUP1 ISZERO PUSH2 0xF9A JUMPI DUP1 PUSH1 0x1F LT PUSH2 0xF6F JUMPI PUSH2 0x100 DUP1 DUP4 SLOAD DIV MUL DUP4 MSTORE SWAP2 PUSH1 0x20 ADD SWAP2 PUSH2 0xF9A JUMP JUMPDEST DUP3 ADD SWAP2 SWAP1 PUSH1 0x0 MSTORE PUSH1 0x20 PUSH1 0x0 KECCAK256 SWAP1 JUMPDEST DUP2 SLOAD DUP2 MSTORE SWAP1 PUSH1 0x1 ADD SWAP1 PUSH1 0x20 ADD DUP1 DUP4 GT PUSH2 0xF7D JUMPI DUP3 SWAP1 SUB PUSH1 0x1F AND DUP3 ADD SWAP2 JUMPDEST POP POP POP POP POP SWAP1 POP SWAP1 JUMP JUMPDEST PUSH1 0x0 DUP1 SHL DUP2 JUMP JUMPDEST PUSH2 0xFBD PUSH2 0xFB6 PUSH2 0x1271 JUMP JUMPDEST DUP4 DUP4 PUSH2 0x19CE JUMP JUMPDEST POP POP JUMP JUMPDEST PUSH2 0xFD2 PUSH2 0xFCC PUSH2 0x1271 JUMP JUMPDEST DUP4 PUSH2 0x1332 JUMP JUMPDEST PUSH2 0x1011 JUMPI PUSH1 0x40 MLOAD PUSH32 0x8C379A000000000000000000000000000000000000000000000000000000000 DUP2 MSTORE PUSH1 0x4 ADD PUSH2 0x1008 SWAP1 PUSH2 0x3AD2 JUMP JUMPDEST PUSH1 0x40 MLOAD DUP1 SWAP2 SUB SWAP1 REVERT JUMPDEST PUSH2 0x101D DUP5 DUP5 DUP5 DUP5 PUSH2 0x1B3A JUMP JUMPDEST POP POP POP POP JUMP JUMPDEST PUSH1 0x60 PUSH2 0x102E DUP3 PUSH2 0x1226 JUMP JUMPDEST PUSH1 0x0 PUSH2 0x1038 PUSH2 0x1B96 JUMP JUMPDEST SWAP1 POP PUSH1 0x0 DUP2 MLOAD GT PUSH2 0x1058 JUMPI PUSH1 0x40 MLOAD DUP1 PUSH1 0x20 ADD PUSH1 0x40 MSTORE DUP1 PUSH1 0x0 DUP2 MSTORE POP PUSH2 0x1083 JUMP JUMPDEST DUP1 PUSH2 0x1062 DUP5 PUSH2 0x1C28 JUMP JUMPDEST PUSH1 0x40 MLOAD PUSH1 0x20 ADD PUSH2 0x1073 SWAP3 SWAP2 SWAP1 PUSH2 0x4245 JUMP JUMPDEST PUSH1 0x40 MLOAD PUSH1 0x20 DUP2 DUP4 SUB SUB DUP2 MSTORE SWAP1 PUSH1 0x40 MSTORE JUMPDEST SWAP2 POP POP SWAP2 SWAP1 POP JUMP JUMPDEST PUSH1 0x0 PUSH2 0x10A8 PUSH1 0x1 PUSH1 0x0 DUP5 DUP2 MSTORE PUSH1 0x20 ADD SWAP1 DUP2 MSTORE PUSH1 0x20 ADD PUSH1 0x0 KECCAK256 PUSH2 0x1CF6 JUMP JUMPDEST SWAP1 POP SWAP2 SWAP1 POP JUMP JUMPDEST PUSH32 0x9F2DF0FED2C77648DE5860A4CC508CD0818C85B8B8A1AB4CEEEF8D981C8956A6 DUP2 JUMP JUMPDEST PUSH2 0x10DC DUP3 PUSH2 0x939 JUMP JUMPDEST PUSH2 0x10E5 DUP2 PUSH2 0x16C0 JUMP JUMPDEST PUSH2 0x10EF DUP4 DUP4 PUSH2 0x1708 JUMP JUMPDEST POP POP POP JUMP JUMPDEST PUSH32 0x65D7A28E3265B37A6474929F336521B332C1681B933F6CB9F3376673440D862A DUP2 JUMP JUMPDEST PUSH1 0x0 PUSH1 0x7 PUSH1 0x0 DUP5 PUSH20 0xFFFFFFFFFFFFFFFFFFFFFFFFFFFFFFFFFFFFFFFF AND PUSH20 0xFFFFFFFFFFFFFFFFFFFFFFFFFFFFFFFFFFFFFFFF AND DUP2 MSTORE PUSH1 0x20 ADD SWAP1 DUP2 MSTORE PUSH1 0x20 ADD PUSH1 0x0 KECCAK256 PUSH1 0x0 DUP4 PUSH20 0xFFFFFFFFFFFFFFFFFFFFFFFFFFFFFFFFFFFFFFFF AND PUSH20 0xFFFFFFFFFFFFFFFFFFFFFFFFFFFFFFFFFFFFFFFF AND DUP2 MSTORE PUSH1 0x20 ADD SWAP1 DUP2 MSTORE PUSH1 0x20 ADD PUSH1 0x0 KECCAK256 PUSH1 0x0 SWAP1 SLOAD SWAP1 PUSH2 0x100 EXP SWAP1 DIV PUSH1 0xFF AND SWAP1 POP SWAP3 SWAP2 POP POP JUMP JUMPDEST PUSH1 0x0 PUSH32 0x780E9D6300000000000000000000000000000000000000000000000000000000 PUSH28 0xFFFFFFFFFFFFFFFFFFFFFFFFFFFFFFFFFFFFFFFFFFFFFFFFFFFFFFFF NOT AND DUP3 PUSH28 0xFFFFFFFFFFFFFFFFFFFFFFFFFFFFFFFFFFFFFFFFFFFFFFFFFFFFFFFF NOT AND EQ DUP1 PUSH2 0x121F JUMPI POP PUSH2 0x121E DUP3 PUSH2 0x1D0B JUMP JUMPDEST JUMPDEST SWAP1 POP SWAP2 SWAP1 POP JUMP JUMPDEST PUSH2 0x122F DUP2 PUSH2 0x1DED JUMP JUMPDEST PUSH2 0x126E JUMPI PUSH1 0x40 MLOAD PUSH32 0x8C379A000000000000000000000000000000000000000000000000000000000 DUP2 MSTORE PUSH1 0x4 ADD PUSH2 0x1265 SWAP1 PUSH2 0x4033 JUMP JUMPDEST PUSH1 0x40 MLOAD DUP1 SWAP2 SUB SWAP1 REVERT JUMPDEST POP JUMP JUMPDEST PUSH1 0x0 CALLER SWAP1 POP SWAP1 JUMP JUMPDEST DUP2 PUSH1 0x6 PUSH1 0x0 DUP4 DUP2 MSTORE PUSH1 0x20 ADD SWAP1 DUP2 MSTORE PUSH1 0x20 ADD PUSH1 0x0 KECCAK256 PUSH1 0x0 PUSH2 0x100 EXP DUP2 SLOAD DUP2 PUSH20 0xFFFFFFFFFFFFFFFFFFFFFFFFFFFFFFFFFFFFFFFF MUL NOT AND SWAP1 DUP4 PUSH20 0xFFFFFFFFFFFFFFFFFFFFFFFFFFFFFFFFFFFFFFFF AND MUL OR SWAP1 SSTORE POP DUP1 DUP3 PUSH20 0xFFFFFFFFFFFFFFFFFFFFFFFFFFFFFFFFFFFFFFFF AND PUSH2 0x12EC DUP4 PUSH2 0xC40 JUMP JUMPDEST PUSH20 0xFFFFFFFFFFFFFFFFFFFFFFFFFFFFFFFFFFFFFFFF AND PUSH32 0x8C5BE1E5EBEC7D5BD14F71427D1E84F3DD0314C0F7B2291E5B200AC8C7C3B925 PUSH1 0x40 MLOAD PUSH1 0x40 MLOAD DUP1 SWAP2 SUB SWAP1 LOG4 POP POP JUMP JUMPDEST PUSH1 0x0 DUP1 PUSH2 0x133E DUP4 PUSH2 0xC40 JUMP JUMPDEST SWAP1 POP DUP1 PUSH20 0xFFFFFFFFFFFFFFFFFFFFFFFFFFFFFFFFFFFFFFFF AND DUP5 PUSH20 0xFFFFFFFFFFFFFFFFFFFFFFFFFFFFFFFFFFFFFFFF AND EQ DUP1 PUSH2 0x1380 JUMPI POP PUSH2 0x137F DUP2 DUP6 PUSH2 0x1118 JUMP JUMPDEST JUMPDEST DUP1 PUSH2 0x13BE JUMPI POP DUP4 PUSH20 0xFFFFFFFFFFFFFFFFFFFFFFFFFFFFFFFFFFFFFFFF AND PUSH2 0x13A6 DUP5 PUSH2 0x76F JUMP JUMPDEST PUSH20 0xFFFFFFFFFFFFFFFFFFFFFFFFFFFFFFFFFFFFFFFF AND EQ JUMPDEST SWAP2 POP POP SWAP3 SWAP2 POP POP JUMP JUMPDEST DUP3 PUSH20 0xFFFFFFFFFFFFFFFFFFFFFFFFFFFFFFFFFFFFFFFF AND PUSH2 0x13E7 DUP3 PUSH2 0xC40 JUMP JUMPDEST PUSH20 0xFFFFFFFFFFFFFFFFFFFFFFFFFFFFFFFFFFFFFFFF AND EQ PUSH2 0x143D JUMPI PUSH1 0x40 MLOAD PUSH32 0x8C379A000000000000000000000000000000000000000000000000000000000 DUP2 MSTORE PUSH1 0x4 ADD PUSH2 0x1434 SWAP1 PUSH2 0x42DB JUMP JUMPDEST PUSH1 0x40 MLOAD DUP1 SWAP2 SUB SWAP1 REVERT JUMPDEST PUSH1 0x0 PUSH20 0xFFFFFFFFFFFFFFFFFFFFFFFFFFFFFFFFFFFFFFFF AND DUP3 PUSH20 0xFFFFFFFFFFFFFFFFFFFFFFFFFFFFFFFFFFFFFFFF AND SUB PUSH2 0x14AC JUMPI PUSH1 0x40 MLOAD PUSH32 0x8C379A000000000000000000000000000000000000000000000000000000000 DUP2 MSTORE PUSH1 0x4 ADD PUSH2 0x14A3 SWAP1 PUSH2 0x436D JUMP JUMPDEST PUSH1 0x40 MLOAD DUP1 SWAP2 SUB SWAP1 REVERT JUMPDEST PUSH2 0x14B9 DUP4 DUP4 DUP4 PUSH1 0x1 PUSH2 0x1E2E JUMP JUMPDEST DUP3 PUSH20 0xFFFFFFFFFFFFFFFFFFFFFFFFFFFFFFFFFFFFFFFF AND PUSH2 0x14D9 DUP3 PUSH2 0xC40 JUMP JUMPDEST PUSH20 0xFFFFFFFFFFFFFFFFFFFFFFFFFFFFFFFFFFFFFFFF AND EQ PUSH2 0x152F JUMPI PUSH1 0x40 MLOAD PUSH32 0x8C379A000000000000000000000000000000000000000000000000000000000 DUP2 MSTORE PUSH1 0x4 ADD PUSH2 0x1526 SWAP1 PUSH2 0x42DB JUMP JUMPDEST PUSH1 0x40 MLOAD DUP1 SWAP2 SUB SWAP1 REVERT JUMPDEST PUSH1 0x6 PUSH1 0x0 DUP3 DUP2 MSTORE PUSH1 0x20 ADD SWAP1 DUP2 MSTORE PUSH1 0x20 ADD PUSH1 0x0 KECCAK256 PUSH1 0x0 PUSH2 0x100 EXP DUP2 SLOAD SWAP1 PUSH20 0xFFFFFFFFFFFFFFFFFFFFFFFFFFFFFFFFFFFFFFFF MUL NOT AND SWAP1 SSTORE PUSH1 0x1 PUSH1 0x5 PUSH1 0x0 DUP6 PUSH20 0xFFFFFFFFFFFFFFFFFFFFFFFFFFFFFFFFFFFFFFFF AND PUSH20 0xFFFFFFFFFFFFFFFFFFFFFFFFFFFFFFFFFFFFFFFF AND DUP2 MSTORE PUSH1 0x20 ADD SWAP1 DUP2 MSTORE PUSH1 0x20 ADD PUSH1 0x0 KECCAK256 PUSH1 0x0 DUP3 DUP3 SLOAD SUB SWAP3 POP POP DUP2 SWAP1 SSTORE POP PUSH1 0x1 PUSH1 0x5 PUSH1 0x0 DUP5 PUSH20 0xFFFFFFFFFFFFFFFFFFFFFFFFFFFFFFFFFFFFFFFF AND PUSH20 0xFFFFFFFFFFFFFFFFFFFFFFFFFFFFFFFFFFFFFFFF AND DUP2 MSTORE PUSH1 0x20 ADD SWAP1 DUP2 MSTORE PUSH1 0x20 ADD PUSH1 0x0 KECCAK256 PUSH1 0x0 DUP3 DUP3 SLOAD ADD SWAP3 POP POP DUP2 SWAP1 SSTORE POP DUP2 PUSH1 0x4 PUSH1 0x0 DUP4 DUP2 MSTORE PUSH1 0x20 ADD SWAP1 DUP2 MSTORE PUSH1 0x20 ADD PUSH1 0x0 KECCAK256 PUSH1 0x0 PUSH2 0x100 EXP DUP2 SLOAD DUP2 PUSH20 0xFFFFFFFFFFFFFFFFFFFFFFFFFFFFFFFFFFFFFFFF MUL NOT AND SWAP1 DUP4 PUSH20 0xFFFFFFFFFFFFFFFFFFFFFFFFFFFFFFFFFFFFFFFF AND MUL OR SWAP1 SSTORE POP DUP1 DUP3 PUSH20 0xFFFFFFFFFFFFFFFFFFFFFFFFFFFFFFFFFFFFFFFF AND DUP5 PUSH20 0xFFFFFFFFFFFFFFFFFFFFFFFFFFFFFFFFFFFFFFFF AND PUSH32 0xDDF252AD1BE2C89B69C2B068FC378DAA952BA7F163C4A11628F55A4DF523B3EF PUSH1 0x40 MLOAD PUSH1 0x40 MLOAD DUP1 SWAP2 SUB SWAP1 LOG4 PUSH2 0x16BB DUP4 DUP4 DUP4 PUSH1 0x1 PUSH2 0x1E40 JUMP JUMPDEST POP POP POP JUMP JUMPDEST PUSH2 0x16D1 DUP2 PUSH2 0x16CC PUSH2 0x1271 JUMP JUMPDEST PUSH2 0x1E46 JUMP JUMPDEST POP JUMP JUMPDEST PUSH2 0x16DE DUP3 DUP3 PUSH2 0x1ECB JUMP JUMPDEST PUSH2 0x1703 DUP2 PUSH1 0x1 PUSH1 0x0 DUP6 DUP2 MSTORE PUSH1 0x20 ADD SWAP1 DUP2 MSTORE PUSH1 0x20 ADD PUSH1 0x0 KECCAK256 PUSH2 0x1FAB SWAP1 SWAP2 SWAP1 PUSH4 0xFFFFFFFF AND JUMP JUMPDEST POP POP POP JUMP JUMPDEST PUSH2 0x1712 DUP3 DUP3 PUSH2 0x1FDB JUMP JUMPDEST PUSH2 0x1737 DUP2 PUSH1 0x1 PUSH1 0x0 DUP6 DUP2 MSTORE PUSH1 0x20 ADD SWAP1 DUP2 MSTORE PUSH1 0x20 ADD PUSH1 0x0 KECCAK256 PUSH2 0x20BC SWAP1 SWAP2 SWAP1 PUSH4 0xFFFFFFFF AND JUMP JUMPDEST POP POP POP JUMP JUMPDEST PUSH2 0x1744 PUSH2 0x20EC JUMP JUMPDEST PUSH1 0x0 PUSH1 0xC PUSH1 0x0 PUSH2 0x100 EXP DUP2 SLOAD DUP2 PUSH1 0xFF MUL NOT AND SWAP1 DUP4 ISZERO ISZERO MUL OR SWAP1 SSTORE POP PUSH32 0x5DB9EE0A495BF2E6FF9C91A7834C1BA4FDD244A5E8AA4E537BD38AEAE4B073AA PUSH2 0x1788 PUSH2 0x1271 JUMP JUMPDEST PUSH1 0x40 MLOAD PUSH2 0x1795 SWAP2 SWAP1 PUSH2 0x3350 JUMP JUMPDEST PUSH1 0x40 MLOAD DUP1 SWAP2 SUB SWAP1 LOG1 JUMP JUMPDEST PUSH1 0x0 PUSH2 0x17AA DUP3 PUSH2 0xC40 JUMP JUMPDEST SWAP1 POP PUSH2 0x17BA DUP2 PUSH1 0x0 DUP5 PUSH1 0x1 PUSH2 0x1E2E JUMP JUMPDEST PUSH2 0x17C3 DUP3 PUSH2 0xC40 JUMP JUMPDEST SWAP1 POP PUSH1 0x6 PUSH1 0x0 DUP4 DUP2 MSTORE PUSH1 0x20 ADD SWAP1 DUP2 MSTORE PUSH1 0x20 ADD PUSH1 0x0 KECCAK256 PUSH1 0x0 PUSH2 0x100 EXP DUP2 SLOAD SWAP1 PUSH20 0xFFFFFFFFFFFFFFFFFFFFFFFFFFFFFFFFFFFFFFFF MUL NOT AND SWAP1 SSTORE PUSH1 0x1 PUSH1 0x5 PUSH1 0x0 DUP4 PUSH20 0xFFFFFFFFFFFFFFFFFFFFFFFFFFFFFFFFFFFFFFFF AND PUSH20 0xFFFFFFFFFFFFFFFFFFFFFFFFFFFFFFFFFFFFFFFF AND DUP2 MSTORE PUSH1 0x20 ADD SWAP1 DUP2 MSTORE PUSH1 0x20 ADD PUSH1 0x0 KECCAK256 PUSH1 0x0 DUP3 DUP3 SLOAD SUB SWAP3 POP POP DUP2 SWAP1 SSTORE POP PUSH1 0x4 PUSH1 0x0 DUP4 DUP2 MSTORE PUSH1 0x20 ADD SWAP1 DUP2 MSTORE PUSH1 0x20 ADD PUSH1 0x0 KECCAK256 PUSH1 0x0 PUSH2 0x100 EXP DUP2 SLOAD SWAP1 PUSH20 0xFFFFFFFFFFFFFFFFFFFFFFFFFFFFFFFFFFFFFFFF MUL NOT AND SWAP1 SSTORE DUP2 PUSH1 0x0 PUSH20 0xFFFFFFFFFFFFFFFFFFFFFFFFFFFFFFFFFFFFFFFF AND DUP3 PUSH20 0xFFFFFFFFFFFFFFFFFFFFFFFFFFFFFFFFFFFFFFFF AND PUSH32 0xDDF252AD1BE2C89B69C2B068FC378DAA952BA7F163C4A11628F55A4DF523B3EF PUSH1 0x40 MLOAD PUSH1 0x40 MLOAD DUP1 SWAP2 SUB SWAP1 LOG4 PUSH2 0x18E9 DUP2 PUSH1 0x0 DUP5 PUSH1 0x1 PUSH2 0x1E40 JUMP JUMPDEST POP POP JUMP JUMPDEST PUSH1 0x0 PUSH1 0x4 PUSH1 0x0 DUP4 DUP2 MSTORE PUSH1 0x20 ADD SWAP1 DUP2 MSTORE PUSH1 0x20 ADD PUSH1 0x0 KECCAK256 PUSH1 0x0 SWAP1 SLOAD SWAP1 PUSH2 0x100 EXP SWAP1 DIV PUSH20 0xFFFFFFFFFFFFFFFFFFFFFFFFFFFFFFFFFFFFFFFF AND SWAP1 POP SWAP2 SWAP1 POP JUMP JUMPDEST PUSH1 0x0 PUSH2 0x1936 PUSH1 0xD PUSH2 0x2135 JUMP JUMPDEST SWAP1 POP PUSH2 0x1942 DUP3 DUP3 PUSH2 0x2143 JUMP JUMPDEST PUSH2 0x194C PUSH1 0xD PUSH2 0x2360 JUMP JUMPDEST SWAP2 SWAP1 POP JUMP JUMPDEST PUSH2 0x1959 PUSH2 0x2376 JUMP JUMPDEST PUSH1 0x1 PUSH1 0xC PUSH1 0x0 PUSH2 0x100 EXP DUP2 SLOAD DUP2 PUSH1 0xFF MUL NOT AND SWAP1 DUP4 ISZERO ISZERO MUL OR SWAP1 SSTORE POP PUSH32 0x62E78CEA01BEE320CD4E420270B5EA74000D11B0C9F74754EBDBFC544B05A258 PUSH2 0x199D PUSH2 0x1271 JUMP JUMPDEST PUSH1 0x40 MLOAD PUSH2 0x19AA SWAP2 SWAP1 PUSH2 0x3350 JUMP JUMPDEST PUSH1 0x40 MLOAD DUP1 SWAP2 SUB SWAP1 LOG1 JUMP JUMPDEST PUSH1 0x0 PUSH2 0x19C3 DUP4 PUSH1 0x0 ADD DUP4 PUSH2 0x23C0 JUMP JUMPDEST PUSH1 0x0 SHR SWAP1 POP SWAP3 SWAP2 POP POP JUMP JUMPDEST DUP2 PUSH20 0xFFFFFFFFFFFFFFFFFFFFFFFFFFFFFFFFFFFFFFFF AND DUP4 PUSH20 0xFFFFFFFFFFFFFFFFFFFFFFFFFFFFFFFFFFFFFFFF AND SUB PUSH2 0x1A3C JUMPI PUSH1 0x40 MLOAD PUSH32 0x8C379A000000000000000000000000000000000000000000000000000000000 DUP2 MSTORE PUSH1 0x4 ADD PUSH2 0x1A33 SWAP1 PUSH2 0x43D9 JUMP JUMPDEST PUSH1 0x40 MLOAD DUP1 SWAP2 SUB SWAP1 REVERT JUMPDEST DUP1 PUSH1 0x7 PUSH1 0x0 DUP6 PUSH20 0xFFFFFFFFFFFFFFFFFFFFFFFFFFFFFFFFFFFFFFFF AND PUSH20 0xFFFFFFFFFFFFFFFFFFFFFFFFFFFFFFFFFFFFFFFF AND DUP2 MSTORE PUSH1 0x20 ADD SWAP1 DUP2 MSTORE PUSH1 0x20 ADD PUSH1 0x0 KECCAK256 PUSH1 0x0 DUP5 PUSH20 0xFFFFFFFFFFFFFFFFFFFFFFFFFFFFFFFFFFFFFFFF AND PUSH20 0xFFFFFFFFFFFFFFFFFFFFFFFFFFFFFFFFFFFFFFFF AND DUP2 MSTORE PUSH1 0x20 ADD SWAP1 DUP2 MSTORE PUSH1 0x20 ADD PUSH1 0x0 KECCAK256 PUSH1 0x0 PUSH2 0x100 EXP DUP2 SLOAD DUP2 PUSH1 0xFF MUL NOT AND SWAP1 DUP4 ISZERO ISZERO MUL OR SWAP1 SSTORE POP DUP2 PUSH20 0xFFFFFFFFFFFFFFFFFFFFFFFFFFFFFFFFFFFFFFFF AND DUP4 PUSH20 0xFFFFFFFFFFFFFFFFFFFFFFFFFFFFFFFFFFFFFFFF AND PUSH32 0x17307EAB39AB6107E8899845AD3D59BD9653F200F220920489CA2B5937696C31 DUP4 PUSH1 0x40 MLOAD PUSH2 0x1B2D SWAP2 SWAP1 PUSH2 0x31DF JUMP JUMPDEST PUSH1 0x40 MLOAD DUP1 SWAP2 SUB SWAP1 LOG3 POP POP POP JUMP JUMPDEST PUSH2 0x1B45 DUP5 DUP5 DUP5 PUSH2 0x13C7 JUMP JUMPDEST PUSH2 0x1B51 DUP5 DUP5 DUP5 DUP5 PUSH2 0x23EB JUMP JUMPDEST PUSH2 0x1B90 JUMPI PUSH1 0x40 MLOAD PUSH32 0x8C379A000000000000000000000000000000000000000000000000000000000 DUP2 MSTORE PUSH1 0x4 ADD PUSH2 0x1B87 SWAP1 PUSH2 0x446B JUMP JUMPDEST PUSH1 0x40 MLOAD DUP1 SWAP2 SUB SWAP1 REVERT JUMPDEST POP POP POP POP JUMP JUMPDEST PUSH1 0x60 PUSH1 0xE DUP1 SLOAD PUSH2 0x1BA5 SWAP1 PUSH2 0x390B JUMP JUMPDEST DUP1 PUSH1 0x1F ADD PUSH1 0x20 DUP1 SWAP2 DIV MUL PUSH1 0x20 ADD PUSH1 0x40 MLOAD SWAP1 DUP2 ADD PUSH1 0x40 MSTORE DUP1 SWAP3 SWAP2 SWAP1 DUP2 DUP2 MSTORE PUSH1 0x20 ADD DUP3 DUP1 SLOAD PUSH2 0x1BD1 SWAP1 PUSH2 0x390B JUMP JUMPDEST DUP1 ISZERO PUSH2 0x1C1E JUMPI DUP1 PUSH1 0x1F LT PUSH2 0x1BF3 JUMPI PUSH2 0x100 DUP1 DUP4 SLOAD DIV MUL DUP4 MSTORE SWAP2 PUSH1 0x20 ADD SWAP2 PUSH2 0x1C1E JUMP JUMPDEST DUP3 ADD SWAP2 SWAP1 PUSH1 0x0 MSTORE PUSH1 0x20 PUSH1 0x0 KECCAK256 SWAP1 JUMPDEST DUP2 SLOAD DUP2 MSTORE SWAP1 PUSH1 0x1 ADD SWAP1 PUSH1 0x20 ADD DUP1 DUP4 GT PUSH2 0x1C01 JUMPI DUP3 SWAP1 SUB PUSH1 0x1F AND DUP3 ADD SWAP2 JUMPDEST POP POP POP POP POP SWAP1 POP SWAP1 JUMP JUMPDEST PUSH1 0x60 PUSH1 0x0 PUSH1 0x1 PUSH2 0x1C37 DUP5 PUSH2 0x2572 JUMP JUMPDEST ADD SWAP1 POP PUSH1 0x0 DUP2 PUSH8 0xFFFFFFFFFFFFFFFF DUP2 GT ISZERO PUSH2 0x1C56 JUMPI PUSH2 0x1C55 PUSH2 0x352B JUMP JUMPDEST JUMPDEST PUSH1 0x40 MLOAD SWAP1 DUP1 DUP3 MSTORE DUP1 PUSH1 0x1F ADD PUSH1 0x1F NOT AND PUSH1 0x20 ADD DUP3 ADD PUSH1 0x40 MSTORE DUP1 ISZERO PUSH2 0x1C88 JUMPI DUP2 PUSH1 0x20 ADD PUSH1 0x1 DUP3 MUL DUP1 CALLDATASIZE DUP4 CALLDATACOPY DUP1 DUP3 ADD SWAP2 POP POP SWAP1 POP JUMPDEST POP SWAP1 POP PUSH1 0x0 DUP3 PUSH1 0x20 ADD DUP3 ADD SWAP1 POP JUMPDEST PUSH1 0x1 ISZERO PUSH2 0x1CEB JUMPI DUP1 DUP1 PUSH1 0x1 SWAP1 SUB SWAP2 POP POP PUSH32 0x3031323334353637383961626364656600000000000000000000000000000000 PUSH1 0xA DUP7 MOD BYTE DUP2 MSTORE8 PUSH1 0xA DUP6 DUP2 PUSH2 0x1CDF JUMPI PUSH2 0x1CDE PUSH2 0x448B JUMP JUMPDEST JUMPDEST DIV SWAP5 POP PUSH1 0x0 DUP6 SUB PUSH2 0x1C96 JUMPI JUMPDEST DUP2 SWAP4 POP POP POP POP SWAP2 SWAP1 POP JUMP JUMPDEST PUSH1 0x0 PUSH2 0x1D04 DUP3 PUSH1 0x0 ADD PUSH2 0x26C5 JUMP JUMPDEST SWAP1 POP SWAP2 SWAP1 POP JUMP JUMPDEST PUSH1 0x0 PUSH32 0x80AC58CD00000000000000000000000000000000000000000000000000000000 PUSH28 0xFFFFFFFFFFFFFFFFFFFFFFFFFFFFFFFFFFFFFFFFFFFFFFFFFFFFFFFF NOT AND DUP3 PUSH28 0xFFFFFFFFFFFFFFFFFFFFFFFFFFFFFFFFFFFFFFFFFFFFFFFFFFFFFFFF NOT AND EQ DUP1 PUSH2 0x1DD6 JUMPI POP PUSH32 0x5B5E139F00000000000000000000000000000000000000000000000000000000 PUSH28 0xFFFFFFFFFFFFFFFFFFFFFFFFFFFFFFFFFFFFFFFFFFFFFFFFFFFFFFFF NOT AND DUP3 PUSH28 0xFFFFFFFFFFFFFFFFFFFFFFFFFFFFFFFFFFFFFFFFFFFFFFFFFFFFFFFF NOT AND EQ JUMPDEST DUP1 PUSH2 0x1DE6 JUMPI POP PUSH2 0x1DE5 DUP3 PUSH2 0x26D6 JUMP JUMPDEST JUMPDEST SWAP1 POP SWAP2 SWAP1 POP JUMP JUMPDEST PUSH1 0x0 DUP1 PUSH20 0xFFFFFFFFFFFFFFFFFFFFFFFFFFFFFFFFFFFFFFFF AND PUSH2 0x1E0F DUP4 PUSH2 0x18ED JUMP JUMPDEST PUSH20 0xFFFFFFFFFFFFFFFFFFFFFFFFFFFFFFFFFFFFFFFF AND EQ ISZERO SWAP1 POP SWAP2 SWAP1 POP JUMP JUMPDEST PUSH2 0x1E3A DUP5 DUP5 DUP5 DUP5 PUSH2 0x2750 JUMP JUMPDEST POP POP POP POP JUMP JUMPDEST POP POP POP POP JUMP JUMPDEST PUSH2 0x1E50 DUP3 DUP3 PUSH2 0xEA8 JUMP JUMPDEST PUSH2 0x1EC7 JUMPI PUSH2 0x1E5D DUP2 PUSH2 0x27AA JUMP JUMPDEST PUSH2 0x1E6B DUP4 PUSH1 0x0 SHR PUSH1 0x20 PUSH2 0x27D7 JUMP JUMPDEST PUSH1 0x40 MLOAD PUSH1 0x20 ADD PUSH2 0x1E7C SWAP3 SWAP2 SWAP1 PUSH2 0x4552 JUMP JUMPDEST PUSH1 0x40 MLOAD PUSH1 0x20 DUP2 DUP4 SUB SUB DUP2 MSTORE SWAP1 PUSH1 0x40 MSTORE PUSH1 0x40 MLOAD PUSH32 0x8C379A000000000000000000000000000000000000000000000000000000000 DUP2 MSTORE PUSH1 0x4 ADD PUSH2 0x1EBE SWAP2 SWAP1 PUSH2 0x328A JUMP JUMPDEST PUSH1 0x40 MLOAD DUP1 SWAP2 SUB SWAP1 REVERT JUMPDEST POP POP JUMP JUMPDEST PUSH2 0x1ED5 DUP3 DUP3 PUSH2 0xEA8 JUMP JUMPDEST PUSH2 0x1FA7 JUMPI PUSH1 0x1 PUSH1 0x0 DUP1 DUP5 DUP2 MSTORE PUSH1 0x20 ADD SWAP1 DUP2 MSTORE PUSH1 0x20 ADD PUSH1 0x0 KECCAK256 PUSH1 0x0 ADD PUSH1 0x0 DUP4 PUSH20 0xFFFFFFFFFFFFFFFFFFFFFFFFFFFFFFFFFFFFFFFF AND PUSH20 0xFFFFFFFFFFFFFFFFFFFFFFFFFFFFFFFFFFFFFFFF AND DUP2 MSTORE PUSH1 0x20 ADD SWAP1 DUP2 MSTORE PUSH1 0x20 ADD PUSH1 0x0 KECCAK256 PUSH1 0x0 PUSH2 0x100 EXP DUP2 SLOAD DUP2 PUSH1 0xFF MUL NOT AND SWAP1 DUP4 ISZERO ISZERO MUL OR SWAP1 SSTORE POP PUSH2 0x1F4C PUSH2 0x1271 JUMP JUMPDEST PUSH20 0xFFFFFFFFFFFFFFFFFFFFFFFFFFFFFFFFFFFFFFFF AND DUP2 PUSH20 0xFFFFFFFFFFFFFFFFFFFFFFFFFFFFFFFFFFFFFFFF AND DUP4 PUSH32 0x2F8788117E7EFF1D82E926EC794901D17C78024A50270940304540A733656F0D PUSH1 0x40 MLOAD PUSH1 0x40 MLOAD DUP1 SWAP2 SUB SWAP1 LOG4 JUMPDEST POP POP JUMP JUMPDEST PUSH1 0x0 PUSH2 0x1FD3 DUP4 PUSH1 0x0 ADD DUP4 PUSH20 0xFFFFFFFFFFFFFFFFFFFFFFFFFFFFFFFFFFFFFFFF AND PUSH1 0x0 SHL PUSH2 0x2A13 JUMP JUMPDEST SWAP1 POP SWAP3 SWAP2 POP POP JUMP JUMPDEST PUSH2 0x1FE5 DUP3 DUP3 PUSH2 0xEA8 JUMP JUMPDEST ISZERO PUSH2 0x20B8 JUMPI PUSH1 0x0 DUP1 PUSH1 0x0 DUP5 DUP2 MSTORE PUSH1 0x20 ADD SWAP1 DUP2 MSTORE PUSH1 0x20 ADD PUSH1 0x0 KECCAK256 PUSH1 0x0 ADD PUSH1 0x0 DUP4 PUSH20 0xFFFFFFFFFFFFFFFFFFFFFFFFFFFFFFFFFFFFFFFF AND PUSH20 0xFFFFFFFFFFFFFFFFFFFFFFFFFFFFFFFFFFFFFFFF AND DUP2 MSTORE PUSH1 0x20 ADD SWAP1 DUP2 MSTORE PUSH1 0x20 ADD PUSH1 0x0 KECCAK256 PUSH1 0x0 PUSH2 0x100 EXP DUP2 SLOAD DUP2 PUSH1 0xFF MUL NOT AND SWAP1 DUP4 ISZERO ISZERO MUL OR SWAP1 SSTORE POP PUSH2 0x205D PUSH2 0x1271 JUMP JUMPDEST PUSH20 0xFFFFFFFFFFFFFFFFFFFFFFFFFFFFFFFFFFFFFFFF AND DUP2 PUSH20 0xFFFFFFFFFFFFFFFFFFFFFFFFFFFFFFFFFFFFFFFF AND DUP4 PUSH32 0xF6391F5C32D9C69D2A47EA670B442974B53935D1EDC7FD64EB21E047A839171B PUSH1 0x40 MLOAD PUSH1 0x40 MLOAD DUP1 SWAP2 SUB SWAP1 LOG4 JUMPDEST POP POP JUMP JUMPDEST PUSH1 0x0 PUSH2 0x20E4 DUP4 PUSH1 0x0 ADD DUP4 PUSH20 0xFFFFFFFFFFFFFFFFFFFFFFFFFFFFFFFFFFFFFFFF AND PUSH1 0x0 SHL PUSH2 0x2A83 JUMP JUMPDEST SWAP1 POP SWAP3 SWAP2 POP POP JUMP JUMPDEST PUSH2 0x20F4 PUSH2 0xC29 JUMP JUMPDEST PUSH2 0x2133 JUMPI PUSH1 0x40 MLOAD PUSH32 0x8C379A000000000000000000000000000000000000000000000000000000000 DUP2 MSTORE PUSH1 0x4 ADD PUSH2 0x212A SWAP1 PUSH2 0x45D8 JUMP JUMPDEST PUSH1 0x40 MLOAD DUP1 SWAP2 SUB SWAP1 REVERT JUMPDEST JUMP JUMPDEST PUSH1 0x0 DUP2 PUSH1 0x0 ADD SLOAD SWAP1 POP SWAP2 SWAP1 POP JUMP JUMPDEST PUSH1 0x0 PUSH20 0xFFFFFFFFFFFFFFFFFFFFFFFFFFFFFFFFFFFFFFFF AND DUP3 PUSH20 0xFFFFFFFFFFFFFFFFFFFFFFFFFFFFFFFFFFFFFFFF AND SUB PUSH2 0x21B2 JUMPI PUSH1 0x40 MLOAD PUSH32 0x8C379A000000000000000000000000000000000000000000000000000000000 DUP2 MSTORE PUSH1 0x4 ADD PUSH2 0x21A9 SWAP1 PUSH2 0x4644 JUMP JUMPDEST PUSH1 0x40 MLOAD DUP1 SWAP2 SUB SWAP1 REVERT JUMPDEST PUSH2 0x21BB DUP2 PUSH2 0x1DED JUMP JUMPDEST ISZERO PUSH2 0x21FB JUMPI PUSH1 0x40 MLOAD PUSH32 0x8C379A000000000000000000000000000000000000000000000000000000000 DUP2 MSTORE PUSH1 0x4 ADD PUSH2 0x21F2 SWAP1 PUSH2 0x46B0 JUMP JUMPDEST PUSH1 0x40 MLOAD DUP1 SWAP2 SUB SWAP1 REVERT JUMPDEST PUSH2 0x2209 PUSH1 0x0 DUP4 DUP4 PUSH1 0x1 PUSH2 0x1E2E JUMP JUMPDEST PUSH2 0x2212 DUP2 PUSH2 0x1DED JUMP JUMPDEST ISZERO PUSH2 0x2252 JUMPI PUSH1 0x40 MLOAD PUSH32 0x8C379A000000000000000000000000000000000000000000000000000000000 DUP2 MSTORE PUSH1 0x4 ADD PUSH2 0x2249 SWAP1 PUSH2 0x46B0 JUMP JUMPDEST PUSH1 0x40 MLOAD DUP1 SWAP2 SUB SWAP1 REVERT JUMPDEST PUSH1 0x1 PUSH1 0x5 PUSH1 0x0 DUP5 PUSH20 0xFFFFFFFFFFFFFFFFFFFFFFFFFFFFFFFFFFFFFFFF AND PUSH20 0xFFFFFFFFFFFFFFFFFFFFFFFFFFFFFFFFFFFFFFFF AND DUP2 MSTORE PUSH1 0x20 ADD SWAP1 DUP2 MSTORE PUSH1 0x20 ADD PUSH1 0x0 KECCAK256 PUSH1 0x0 DUP3 DUP3 SLOAD ADD SWAP3 POP POP DUP2 SWAP1 SSTORE POP DUP2 PUSH1 0x4 PUSH1 0x0 DUP4 DUP2 MSTORE PUSH1 0x20 ADD SWAP1 DUP2 MSTORE PUSH1 0x20 ADD PUSH1 0x0 KECCAK256 PUSH1 0x0 PUSH2 0x100 EXP DUP2 SLOAD DUP2 PUSH20 0xFFFFFFFFFFFFFFFFFFFFFFFFFFFFFFFFFFFFFFFF MUL NOT AND SWAP1 DUP4 PUSH20 0xFFFFFFFFFFFFFFFFFFFFFFFFFFFFFFFFFFFFFFFF AND MUL OR SWAP1 SSTORE POP DUP1 DUP3 PUSH20 0xFFFFFFFFFFFFFFFFFFFFFFFFFFFFFFFFFFFFFFFF AND PUSH1 0x0 PUSH20 0xFFFFFFFFFFFFFFFFFFFFFFFFFFFFFFFFFFFFFFFF AND PUSH32 0xDDF252AD1BE2C89B69C2B068FC378DAA952BA7F163C4A11628F55A4DF523B3EF PUSH1 0x40 MLOAD PUSH1 0x40 MLOAD DUP1 SWAP2 SUB SWAP1 LOG4 PUSH2 0x235C PUSH1 0x0 DUP4 DUP4 PUSH1 0x1 PUSH2 0x1E40 JUMP JUMPDEST POP POP JUMP JUMPDEST PUSH1 0x1 DUP2 PUSH1 0x0 ADD PUSH1 0x0 DUP3 DUP3 SLOAD ADD SWAP3 POP POP DUP2 SWAP1 SSTORE POP POP JUMP JUMPDEST PUSH2 0x237E PUSH2 0xC29 JUMP JUMPDEST ISZERO PUSH2 0x23BE JUMPI PUSH1 0x40 MLOAD PUSH32 0x8C379A000000000000000000000000000000000000000000000000000000000 DUP2 MSTORE PUSH1 0x4 ADD PUSH2 0x23B5 SWAP1 PUSH2 0x471C JUMP JUMPDEST PUSH1 0x40 MLOAD DUP1 SWAP2 SUB SWAP1 REVERT JUMPDEST JUMP JUMPDEST PUSH1 0x0 DUP3 PUSH1 0x0 ADD DUP3 DUP2 SLOAD DUP2 LT PUSH2 0x23D8 JUMPI PUSH2 0x23D7 PUSH2 0x3D3A JUMP JUMPDEST JUMPDEST SWAP1 PUSH1 0x0 MSTORE PUSH1 0x20 PUSH1 0x0 KECCAK256 ADD SLOAD SWAP1 POP SWAP3 SWAP2 POP POP JUMP JUMPDEST PUSH1 0x0 PUSH2 0x240C DUP5 PUSH20 0xFFFFFFFFFFFFFFFFFFFFFFFFFFFFFFFFFFFFFFFF AND PUSH2 0x2B97 JUMP JUMPDEST ISZERO PUSH2 0x2565 JUMPI DUP4 PUSH20 0xFFFFFFFFFFFFFFFFFFFFFFFFFFFFFFFFFFFFFFFF AND PUSH4 0x150B7A02 PUSH2 0x2435 PUSH2 0x1271 JUMP JUMPDEST DUP8 DUP7 DUP7 PUSH1 0x40 MLOAD DUP6 PUSH4 0xFFFFFFFF AND PUSH1 0xE0 SHL DUP2 MSTORE PUSH1 0x4 ADD PUSH2 0x2457 SWAP5 SWAP4 SWAP3 SWAP2 SWAP1 PUSH2 0x4791 JUMP JUMPDEST PUSH1 0x20 PUSH1 0x40 MLOAD DUP1 DUP4 SUB DUP2 PUSH1 0x0 DUP8 GAS CALL SWAP3 POP POP POP DUP1 ISZERO PUSH2 0x2493 JUMPI POP PUSH1 0x40 MLOAD RETURNDATASIZE PUSH1 0x1F NOT PUSH1 0x1F DUP3 ADD AND DUP3 ADD DUP1 PUSH1 0x40 MSTORE POP DUP2 ADD SWAP1 PUSH2 0x2490 SWAP2 SWAP1 PUSH2 0x47F2 JUMP JUMPDEST PUSH1 0x1 JUMPDEST PUSH2 0x2515 JUMPI RETURNDATASIZE DUP1 PUSH1 0x0 DUP2 EQ PUSH2 0x24C3 JUMPI PUSH1 0x40 MLOAD SWAP2 POP PUSH1 0x1F NOT PUSH1 0x3F RETURNDATASIZE ADD AND DUP3 ADD PUSH1 0x40 MSTORE RETURNDATASIZE DUP3 MSTORE RETURNDATASIZE PUSH1 0x0 PUSH1 0x20 DUP5 ADD RETURNDATACOPY PUSH2 0x24C8 JUMP JUMPDEST PUSH1 0x60 SWAP2 POP JUMPDEST POP PUSH1 0x0 DUP2 MLOAD SUB PUSH2 0x250D JUMPI PUSH1 0x40 MLOAD PUSH32 0x8C379A000000000000000000000000000000000000000000000000000000000 DUP2 MSTORE PUSH1 0x4 ADD PUSH2 0x2504 SWAP1 PUSH2 0x446B JUMP JUMPDEST PUSH1 0x40 MLOAD DUP1 SWAP2 SUB SWAP1 REVERT JUMPDEST DUP1 MLOAD DUP2 PUSH1 0x20 ADD REVERT JUMPDEST PUSH4 0x150B7A02 PUSH1 0xE0 SHL PUSH28 0xFFFFFFFFFFFFFFFFFFFFFFFFFFFFFFFFFFFFFFFFFFFFFFFFFFFFFFFF NOT AND DUP2 PUSH28 0xFFFFFFFFFFFFFFFFFFFFFFFFFFFFFFFFFFFFFFFFFFFFFFFFFFFFFFFF NOT AND EQ SWAP2 POP POP PUSH2 0x256A JUMP JUMPDEST PUSH1 0x1 SWAP1 POP JUMPDEST SWAP5 SWAP4 POP POP POP POP JUMP JUMPDEST PUSH1 0x0 DUP1 PUSH1 0x0 SWAP1 POP PUSH27 0x184F03E93FF9F4DAA797ED6E38ED64BF6A1F010000000000000000 DUP4 LT PUSH2 0x25D0 JUMPI PUSH27 0x184F03E93FF9F4DAA797ED6E38ED64BF6A1F010000000000000000 DUP4 DUP2 PUSH2 0x25C6 JUMPI PUSH2 0x25C5 PUSH2 0x448B JUMP JUMPDEST JUMPDEST DIV SWAP3 POP PUSH1 0x40 DUP2 ADD SWAP1 POP JUMPDEST PUSH14 0x4EE2D6D415B85ACEF8100000000 DUP4 LT PUSH2 0x260D JUMPI PUSH14 0x4EE2D6D415B85ACEF8100000000 DUP4 DUP2 PUSH2 0x2603 JUMPI PUSH2 0x2602 PUSH2 0x448B JUMP JUMPDEST JUMPDEST DIV SWAP3 POP PUSH1 0x20 DUP2 ADD SWAP1 POP JUMPDEST PUSH7 0x2386F26FC10000 DUP4 LT PUSH2 0x263C JUMPI PUSH7 0x2386F26FC10000 DUP4 DUP2 PUSH2 0x2632 JUMPI PUSH2 0x2631 PUSH2 0x448B JUMP JUMPDEST JUMPDEST DIV SWAP3 POP PUSH1 0x10 DUP2 ADD SWAP1 POP JUMPDEST PUSH4 0x5F5E100 DUP4 LT PUSH2 0x2665 JUMPI PUSH4 0x5F5E100 DUP4 DUP2 PUSH2 0x265B JUMPI PUSH2 0x265A PUSH2 0x448B JUMP JUMPDEST JUMPDEST DIV SWAP3 POP PUSH1 0x8 DUP2 ADD SWAP1 POP JUMPDEST PUSH2 0x2710 DUP4 LT PUSH2 0x268A JUMPI PUSH2 0x2710 DUP4 DUP2 PUSH2 0x2680 JUMPI PUSH2 0x267F PUSH2 0x448B JUMP JUMPDEST JUMPDEST DIV SWAP3 POP PUSH1 0x4 DUP2 ADD SWAP1 POP JUMPDEST PUSH1 0x64 DUP4 LT PUSH2 0x26AD JUMPI PUSH1 0x64 DUP4 DUP2 PUSH2 0x26A3 JUMPI PUSH2 0x26A2 PUSH2 0x448B JUMP JUMPDEST JUMPDEST DIV SWAP3 POP PUSH1 0x2 DUP2 ADD SWAP1 POP JUMPDEST PUSH1 0xA DUP4 LT PUSH2 0x26BC JUMPI PUSH1 0x1 DUP2 ADD SWAP1 POP JUMPDEST DUP1 SWAP2 POP POP SWAP2 SWAP1 POP JUMP JUMPDEST PUSH1 0x0 DUP2 PUSH1 0x0 ADD DUP1 SLOAD SWAP1 POP SWAP1 POP SWAP2 SWAP1 POP JUMP JUMPDEST PUSH1 0x0 PUSH32 0x5A05180F00000000000000000000000000000000000000000000000000000000 PUSH28 0xFFFFFFFFFFFFFFFFFFFFFFFFFFFFFFFFFFFFFFFFFFFFFFFFFFFFFFFF NOT AND DUP3 PUSH28 0xFFFFFFFFFFFFFFFFFFFFFFFFFFFFFFFFFFFFFFFFFFFFFFFFFFFFFFFF NOT AND EQ DUP1 PUSH2 0x2749 JUMPI POP PUSH2 0x2748 DUP3 PUSH2 0x2BBA JUMP JUMPDEST JUMPDEST SWAP1 POP SWAP2 SWAP1 POP JUMP JUMPDEST PUSH2 0x275C DUP5 DUP5 DUP5 DUP5 PUSH2 0x2C34 JUMP JUMPDEST PUSH2 0x2764 PUSH2 0xC29 JUMP JUMPDEST ISZERO PUSH2 0x27A4 JUMPI PUSH1 0x40 MLOAD PUSH32 0x8C379A000000000000000000000000000000000000000000000000000000000 DUP2 MSTORE PUSH1 0x4 ADD PUSH2 0x279B SWAP1 PUSH2 0x4891 JUMP JUMPDEST PUSH1 0x40 MLOAD DUP1 SWAP2 SUB SWAP1 REVERT JUMPDEST POP POP POP POP JUMP JUMPDEST PUSH1 0x60 PUSH2 0x27D0 DUP3 PUSH20 0xFFFFFFFFFFFFFFFFFFFFFFFFFFFFFFFFFFFFFFFF AND PUSH1 0x14 PUSH1 0xFF AND PUSH2 0x27D7 JUMP JUMPDEST SWAP1 POP SWAP2 SWAP1 POP JUMP JUMPDEST PUSH1 0x60 PUSH1 0x0 PUSH1 0x2 DUP4 PUSH1 0x2 PUSH2 0x27EA SWAP2 SWAP1 PUSH2 0x48E0 JUMP JUMPDEST PUSH2 0x27F4 SWAP2 SWAP1 PUSH2 0x4922 JUMP JUMPDEST PUSH8 0xFFFFFFFFFFFFFFFF DUP2 GT ISZERO PUSH2 0x280D JUMPI PUSH2 0x280C PUSH2 0x352B JUMP JUMPDEST JUMPDEST PUSH1 0x40 MLOAD SWAP1 DUP1 DUP3 MSTORE DUP1 PUSH1 0x1F ADD PUSH1 0x1F NOT AND PUSH1 0x20 ADD DUP3 ADD PUSH1 0x40 MSTORE DUP1 ISZERO PUSH2 0x283F JUMPI DUP2 PUSH1 0x20 ADD PUSH1 0x1 DUP3 MUL DUP1 CALLDATASIZE DUP4 CALLDATACOPY DUP1 DUP3 ADD SWAP2 POP POP SWAP1 POP JUMPDEST POP SWAP1 POP PUSH32 0x3000000000000000000000000000000000000000000000000000000000000000 DUP2 PUSH1 0x0 DUP2 MLOAD DUP2 LT PUSH2 0x2877 JUMPI PUSH2 0x2876 PUSH2 0x3D3A JUMP JUMPDEST JUMPDEST PUSH1 0x20 ADD ADD SWAP1 PUSH31 0xFFFFFFFFFFFFFFFFFFFFFFFFFFFFFFFFFFFFFFFFFFFFFFFFFFFFFFFFFFFFFF NOT AND SWAP1 DUP2 PUSH1 0x0 BYTE SWAP1 MSTORE8 POP PUSH32 0x7800000000000000000000000000000000000000000000000000000000000000 DUP2 PUSH1 0x1 DUP2 MLOAD DUP2 LT PUSH2 0x28DB JUMPI PUSH2 0x28DA PUSH2 0x3D3A JUMP JUMPDEST JUMPDEST PUSH1 0x20 ADD ADD SWAP1 PUSH31 0xFFFFFFFFFFFFFFFFFFFFFFFFFFFFFFFFFFFFFFFFFFFFFFFFFFFFFFFFFFFFFF NOT AND SWAP1 DUP2 PUSH1 0x0 BYTE SWAP1 MSTORE8 POP PUSH1 0x0 PUSH1 0x1 DUP5 PUSH1 0x2 PUSH2 0x291B SWAP2 SWAP1 PUSH2 0x48E0 JUMP JUMPDEST PUSH2 0x2925 SWAP2 SWAP1 PUSH2 0x4922 JUMP JUMPDEST SWAP1 POP JUMPDEST PUSH1 0x1 DUP2 GT ISZERO PUSH2 0x29C5 JUMPI PUSH32 0x3031323334353637383961626364656600000000000000000000000000000000 PUSH1 0xF DUP7 AND PUSH1 0x10 DUP2 LT PUSH2 0x2967 JUMPI PUSH2 0x2966 PUSH2 0x3D3A JUMP JUMPDEST JUMPDEST BYTE PUSH1 0xF8 SHL DUP3 DUP3 DUP2 MLOAD DUP2 LT PUSH2 0x297E JUMPI PUSH2 0x297D PUSH2 0x3D3A JUMP JUMPDEST JUMPDEST PUSH1 0x20 ADD ADD SWAP1 PUSH31 0xFFFFFFFFFFFFFFFFFFFFFFFFFFFFFFFFFFFFFFFFFFFFFFFFFFFFFFFFFFFFFF NOT AND SWAP1 DUP2 PUSH1 0x0 BYTE SWAP1 MSTORE8 POP PUSH1 0x4 DUP6 SWAP1 SHR SWAP5 POP DUP1 PUSH2 0x29BE SWAP1 PUSH2 0x4956 JUMP JUMPDEST SWAP1 POP PUSH2 0x2928 JUMP JUMPDEST POP PUSH1 0x0 DUP5 EQ PUSH2 0x2A09 JUMPI PUSH1 0x40 MLOAD PUSH32 0x8C379A000000000000000000000000000000000000000000000000000000000 DUP2 MSTORE PUSH1 0x4 ADD PUSH2 0x2A00 SWAP1 PUSH2 0x49CB JUMP JUMPDEST PUSH1 0x40 MLOAD DUP1 SWAP2 SUB SWAP1 REVERT JUMPDEST DUP1 SWAP2 POP POP SWAP3 SWAP2 POP POP JUMP JUMPDEST PUSH1 0x0 PUSH2 0x2A1F DUP4 DUP4 PUSH2 0x2D92 JUMP JUMPDEST PUSH2 0x2A78 JUMPI DUP3 PUSH1 0x0 ADD DUP3 SWAP1 DUP1 PUSH1 0x1 DUP2 SLOAD ADD DUP1 DUP3 SSTORE DUP1 SWAP2 POP POP PUSH1 0x1 SWAP1 SUB SWAP1 PUSH1 0x0 MSTORE PUSH1 0x20 PUSH1 0x0 KECCAK256 ADD PUSH1 0x0 SWAP1 SWAP2 SWAP1 SWAP2 SWAP1 SWAP2 POP SSTORE DUP3 PUSH1 0x0 ADD DUP1 SLOAD SWAP1 POP DUP4 PUSH1 0x1 ADD PUSH1 0x0 DUP5 DUP2 MSTORE PUSH1 0x20 ADD SWAP1 DUP2 MSTORE PUSH1 0x20 ADD PUSH1 0x0 KECCAK256 DUP2 SWAP1 SSTORE POP PUSH1 0x1 SWAP1 POP PUSH2 0x2A7D JUMP JUMPDEST PUSH1 0x0 SWAP1 POP JUMPDEST SWAP3 SWAP2 POP POP JUMP JUMPDEST PUSH1 0x0 DUP1 DUP4 PUSH1 0x1 ADD PUSH1 0x0 DUP5 DUP2 MSTORE PUSH1 0x20 ADD SWAP1 DUP2 MSTORE PUSH1 0x20 ADD PUSH1 0x0 KECCAK256 SLOAD SWAP1 POP PUSH1 0x0 DUP2 EQ PUSH2 0x2B8B JUMPI PUSH1 0x0 PUSH1 0x1 DUP3 PUSH2 0x2AB5 SWAP2 SWAP1 PUSH2 0x49EB JUMP JUMPDEST SWAP1 POP PUSH1 0x0 PUSH1 0x1 DUP7 PUSH1 0x0 ADD DUP1 SLOAD SWAP1 POP PUSH2 0x2ACD SWAP2 SWAP1 PUSH2 0x49EB JUMP JUMPDEST SWAP1 POP DUP2 DUP2 EQ PUSH2 0x2B3C JUMPI PUSH1 0x0 DUP7 PUSH1 0x0 ADD DUP3 DUP2 SLOAD DUP2 LT PUSH2 0x2AEE JUMPI PUSH2 0x2AED PUSH2 0x3D3A JUMP JUMPDEST JUMPDEST SWAP1 PUSH1 0x0 MSTORE PUSH1 0x20 PUSH1 0x0 KECCAK256 ADD SLOAD SWAP1 POP DUP1 DUP8 PUSH1 0x0 ADD DUP5 DUP2 SLOAD DUP2 LT PUSH2 0x2B12 JUMPI PUSH2 0x2B11 PUSH2 0x3D3A JUMP JUMPDEST JUMPDEST SWAP1 PUSH1 0x0 MSTORE PUSH1 0x20 PUSH1 0x0 KECCAK256 ADD DUP2 SWAP1 SSTORE POP DUP4 DUP8 PUSH1 0x1 ADD PUSH1 0x0 DUP4 DUP2 MSTORE PUSH1 0x20 ADD SWAP1 DUP2 MSTORE PUSH1 0x20 ADD PUSH1 0x0 KECCAK256 DUP2 SWAP1 SSTORE POP POP JUMPDEST DUP6 PUSH1 0x0 ADD DUP1 SLOAD DUP1 PUSH2 0x2B50 JUMPI PUSH2 0x2B4F PUSH2 0x4A1F JUMP JUMPDEST JUMPDEST PUSH1 0x1 SWAP1 SUB DUP2 DUP2 SWAP1 PUSH1 0x0 MSTORE PUSH1 0x20 PUSH1 0x0 KECCAK256 ADD PUSH1 0x0 SWAP1 SSTORE SWAP1 SSTORE DUP6 PUSH1 0x1 ADD PUSH1 0x0 DUP7 DUP2 MSTORE PUSH1 0x20 ADD SWAP1 DUP2 MSTORE PUSH1 0x20 ADD PUSH1 0x0 KECCAK256 PUSH1 0x0 SWAP1 SSTORE PUSH1 0x1 SWAP4 POP POP POP POP PUSH2 0x2B91 JUMP JUMPDEST PUSH1 0x0 SWAP2 POP POP JUMPDEST SWAP3 SWAP2 POP POP JUMP JUMPDEST PUSH1 0x0 DUP1 DUP3 PUSH20 0xFFFFFFFFFFFFFFFFFFFFFFFFFFFFFFFFFFFFFFFF AND EXTCODESIZE GT SWAP1 POP SWAP2 SWAP1 POP JUMP JUMPDEST PUSH1 0x0 PUSH32 0x7965DB0B00000000000000000000000000000000000000000000000000000000 PUSH28 0xFFFFFFFFFFFFFFFFFFFFFFFFFFFFFFFFFFFFFFFFFFFFFFFFFFFFFFFF NOT AND DUP3 PUSH28 0xFFFFFFFFFFFFFFFFFFFFFFFFFFFFFFFFFFFFFFFFFFFFFFFFFFFFFFFF NOT AND EQ DUP1 PUSH2 0x2C2D JUMPI POP PUSH2 0x2C2C DUP3 PUSH2 0x2DB5 JUMP JUMPDEST JUMPDEST SWAP1 POP SWAP2 SWAP1 POP JUMP JUMPDEST PUSH2 0x2C40 DUP5 DUP5 DUP5 DUP5 PUSH2 0x2E1F JUMP JUMPDEST PUSH1 0x1 DUP2 GT ISZERO PUSH2 0x2C84 JUMPI PUSH1 0x40 MLOAD PUSH32 0x8C379A000000000000000000000000000000000000000000000000000000000 DUP2 MSTORE PUSH1 0x4 ADD PUSH2 0x2C7B SWAP1 PUSH2 0x4AC0 JUMP JUMPDEST PUSH1 0x40 MLOAD DUP1 SWAP2 SUB SWAP1 REVERT JUMPDEST PUSH1 0x0 DUP3 SWAP1 POP PUSH1 0x0 PUSH20 0xFFFFFFFFFFFFFFFFFFFFFFFFFFFFFFFFFFFFFFFF AND DUP6 PUSH20 0xFFFFFFFFFFFFFFFFFFFFFFFFFFFFFFFFFFFFFFFF AND SUB PUSH2 0x2CCB JUMPI PUSH2 0x2CC6 DUP2 PUSH2 0x2E25 JUMP JUMPDEST PUSH2 0x2D0A JUMP JUMPDEST DUP4 PUSH20 0xFFFFFFFFFFFFFFFFFFFFFFFFFFFFFFFFFFFFFFFF AND DUP6 PUSH20 0xFFFFFFFFFFFFFFFFFFFFFFFFFFFFFFFFFFFFFFFF AND EQ PUSH2 0x2D09 JUMPI PUSH2 0x2D08 DUP6 DUP3 PUSH2 0x2E6E JUMP JUMPDEST JUMPDEST JUMPDEST PUSH1 0x0 PUSH20 0xFFFFFFFFFFFFFFFFFFFFFFFFFFFFFFFFFFFFFFFF AND DUP5 PUSH20 0xFFFFFFFFFFFFFFFFFFFFFFFFFFFFFFFFFFFFFFFF AND SUB PUSH2 0x2D4C JUMPI PUSH2 0x2D47 DUP2 PUSH2 0x2FDB JUMP JUMPDEST PUSH2 0x2D8B JUMP JUMPDEST DUP5 PUSH20 0xFFFFFFFFFFFFFFFFFFFFFFFFFFFFFFFFFFFFFFFF AND DUP5 PUSH20 0xFFFFFFFFFFFFFFFFFFFFFFFFFFFFFFFFFFFFFFFF AND EQ PUSH2 0x2D8A JUMPI PUSH2 0x2D89 DUP5 DUP3 PUSH2 0x30AC JUMP JUMPDEST JUMPDEST JUMPDEST POP POP POP POP POP JUMP JUMPDEST PUSH1 0x0 DUP1 DUP4 PUSH1 0x1 ADD PUSH1 0x0 DUP5 DUP2 MSTORE PUSH1 0x20 ADD SWAP1 DUP2 MSTORE PUSH1 0x20 ADD PUSH1 0x0 KECCAK256 SLOAD EQ ISZERO SWAP1 POP SWAP3 SWAP2 POP POP JUMP JUMPDEST PUSH1 0x0 PUSH32 0x1FFC9A700000000000000000000000000000000000000000000000000000000 PUSH28 0xFFFFFFFFFFFFFFFFFFFFFFFFFFFFFFFFFFFFFFFFFFFFFFFFFFFFFFFF NOT AND DUP3 PUSH28 0xFFFFFFFFFFFFFFFFFFFFFFFFFFFFFFFFFFFFFFFFFFFFFFFFFFFFFFFF NOT AND EQ SWAP1 POP SWAP2 SWAP1 POP JUMP JUMPDEST POP POP POP POP JUMP JUMPDEST PUSH1 0xA DUP1 SLOAD SWAP1 POP PUSH1 0xB PUSH1 0x0 DUP4 DUP2 MSTORE PUSH1 0x20 ADD SWAP1 DUP2 MSTORE PUSH1 0x20 ADD PUSH1 0x0 KECCAK256 DUP2 SWAP1 SSTORE POP PUSH1 0xA DUP2 SWAP1 DUP1 PUSH1 0x1 DUP2 SLOAD ADD DUP1 DUP3 SSTORE DUP1 SWAP2 POP POP PUSH1 0x1 SWAP1 SUB SWAP1 PUSH1 0x0 MSTORE PUSH1 0x20 PUSH1 0x0 KECCAK256 ADD PUSH1 0x0 SWAP1 SWAP2 SWAP1 SWAP2 SWAP1 SWAP2 POP SSTORE POP JUMP JUMPDEST PUSH1 0x0 PUSH1 0x1 PUSH2 0x2E7B DUP5 PUSH2 0xD48 JUMP JUMPDEST PUSH2 0x2E85 SWAP2 SWAP1 PUSH2 0x49EB JUMP JUMPDEST SWAP1 POP PUSH1 0x0 PUSH1 0x9 PUSH1 0x0 DUP5 DUP2 MSTORE PUSH1 0x20 ADD SWAP1 DUP2 MSTORE PUSH1 0x20 ADD PUSH1 0x0 KECCAK256 SLOAD SWAP1 POP DUP2 DUP2 EQ PUSH2 0x2F6A JUMPI PUSH1 0x0 PUSH1 0x8 PUSH1 0x0 DUP7 PUSH20 0xFFFFFFFFFFFFFFFFFFFFFFFFFFFFFFFFFFFFFFFF AND PUSH20 0xFFFFFFFFFFFFFFFFFFFFFFFFFFFFFFFFFFFFFFFF AND DUP2 MSTORE PUSH1 0x20 ADD SWAP1 DUP2 MSTORE PUSH1 0x20 ADD PUSH1 0x0 KECCAK256 PUSH1 0x0 DUP5 DUP2 MSTORE PUSH1 0x20 ADD SWAP1 DUP2 MSTORE PUSH1 0x20 ADD PUSH1 0x0 KECCAK256 SLOAD SWAP1 POP DUP1 PUSH1 0x8 PUSH1 0x0 DUP8 PUSH20 0xFFFFFFFFFFFFFFFFFFFFFFFFFFFFFFFFFFFFFFFF AND PUSH20 0xFFFFFFFFFFFFFFFFFFFFFFFFFFFFFFFFFFFFFFFF AND DUP2 MSTORE PUSH1 0x20 ADD SWAP1 DUP2 MSTORE PUSH1 0x20 ADD PUSH1 0x0 KECCAK256 PUSH1 0x0 DUP5 DUP2 MSTORE PUSH1 0x20 ADD SWAP1 DUP2 MSTORE PUSH1 0x20 ADD PUSH1 0x0 KECCAK256 DUP2 SWAP1 SSTORE POP DUP2 PUSH1 0x9 PUSH1 0x0 DUP4 DUP2 MSTORE PUSH1 0x20 ADD SWAP1 DUP2 MSTORE PUSH1 0x20 ADD PUSH1 0x0 KECCAK256 DUP2 SWAP1 SSTORE POP POP JUMPDEST PUSH1 0x9 PUSH1 0x0 DUP5 DUP2 MSTORE PUSH1 0x20 ADD SWAP1 DUP2 MSTORE PUSH1 0x20 ADD PUSH1 0x0 KECCAK256 PUSH1 0x0 SWAP1 SSTORE PUSH1 0x8 PUSH1 0x0 DUP6 PUSH20 0xFFFFFFFFFFFFFFFFFFFFFFFFFFFFFFFFFFFFFFFF AND PUSH20 0xFFFFFFFFFFFFFFFFFFFFFFFFFFFFFFFFFFFFFFFF AND DUP2 MSTORE PUSH1 0x20 ADD SWAP1 DUP2 MSTORE PUSH1 0x20 ADD PUSH1 0x0 KECCAK256 PUSH1 0x0 DUP4 DUP2 MSTORE PUSH1 0x20 ADD SWAP1 DUP2 MSTORE PUSH1 0x20 ADD PUSH1 0x0 KECCAK256 PUSH1 0x0 SWAP1 SSTORE POP POP POP POP JUMP JUMPDEST PUSH1 0x0 PUSH1 0x1 PUSH1 0xA DUP1 SLOAD SWAP1 POP PUSH2 0x2FEF SWAP2 SWAP1 PUSH2 0x49EB JUMP JUMPDEST SWAP1 POP PUSH1 0x0 PUSH1 0xB PUSH1 0x0 DUP5 DUP2 MSTORE PUSH1 0x20 ADD SWAP1 DUP2 MSTORE PUSH1 0x20 ADD PUSH1 0x0 KECCAK256 SLOAD SWAP1 POP PUSH1 0x0 PUSH1 0xA DUP4 DUP2 SLOAD DUP2 LT PUSH2 0x301F JUMPI PUSH2 0x301E PUSH2 0x3D3A JUMP JUMPDEST JUMPDEST SWAP1 PUSH1 0x0 MSTORE PUSH1 0x20 PUSH1 0x0 KECCAK256 ADD SLOAD SWAP1 POP DUP1 PUSH1 0xA DUP4 DUP2 SLOAD DUP2 LT PUSH2 0x3041 JUMPI PUSH2 0x3040 PUSH2 0x3D3A JUMP JUMPDEST JUMPDEST SWAP1 PUSH1 0x0 MSTORE PUSH1 0x20 PUSH1 0x0 KECCAK256 ADD DUP2 SWAP1 SSTORE POP DUP2 PUSH1 0xB PUSH1 0x0 DUP4 DUP2 MSTORE PUSH1 0x20 ADD SWAP1 DUP2 MSTORE PUSH1 0x20 ADD PUSH1 0x0 KECCAK256 DUP2 SWAP1 SSTORE POP PUSH1 0xB PUSH1 0x0 DUP6 DUP2 MSTORE PUSH1 0x20 ADD SWAP1 DUP2 MSTORE PUSH1 0x20 ADD PUSH1 0x0 KECCAK256 PUSH1 0x0 SWAP1 SSTORE PUSH1 0xA DUP1 SLOAD DUP1 PUSH2 0x3090 JUMPI PUSH2 0x308F PUSH2 0x4A1F JUMP JUMPDEST JUMPDEST PUSH1 0x1 SWAP1 SUB DUP2 DUP2 SWAP1 PUSH1 0x0 MSTORE PUSH1 0x20 PUSH1 0x0 KECCAK256 ADD PUSH1 0x0 SWAP1 SSTORE SWAP1 SSTORE POP POP POP POP JUMP JUMPDEST PUSH1 0x0 PUSH2 0x30B7 DUP4 PUSH2 0xD48 JUMP JUMPDEST SWAP1 POP DUP2 PUSH1 0x8 PUSH1 0x0 DUP6 PUSH20 0xFFFFFFFFFFFFFFFFFFFFFFFFFFFFFFFFFFFFFFFF AND PUSH20 0xFFFFFFFFFFFFFFFFFFFFFFFFFFFFFFFFFFFFFFFF AND DUP2 MSTORE PUSH1 0x20 ADD SWAP1 DUP2 MSTORE PUSH1 0x20 ADD PUSH1 0x0 KECCAK256 PUSH1 0x0 DUP4 DUP2 MSTORE PUSH1 0x20 ADD SWAP1 DUP2 MSTORE PUSH1 0x20 ADD PUSH1 0x0 KECCAK256 DUP2 SWAP1 SSTORE POP DUP1 PUSH1 0x9 PUSH1 0x0 DUP5 DUP2 MSTORE PUSH1 0x20 ADD SWAP1 DUP2 MSTORE PUSH1 0x20 ADD PUSH1 0x0 KECCAK256 DUP2 SWAP1 SSTORE POP POP POP POP JUMP JUMPDEST PUSH1 0x0 PUSH1 0x40 MLOAD SWAP1 POP SWAP1 JUMP JUMPDEST PUSH1 0x0 DUP1 REVERT JUMPDEST PUSH1 0x0 DUP1 REVERT JUMPDEST PUSH1 0x0 PUSH32 0xFFFFFFFF00000000000000000000000000000000000000000000000000000000 DUP3 AND SWAP1 POP SWAP2 SWAP1 POP JUMP JUMPDEST PUSH2 0x3174 DUP2 PUSH2 0x313F JUMP JUMPDEST DUP2 EQ PUSH2 0x317F JUMPI PUSH1 0x0 DUP1 REVERT JUMPDEST POP JUMP JUMPDEST PUSH1 0x0 DUP2 CALLDATALOAD SWAP1 POP PUSH2 0x3191 DUP2 PUSH2 0x316B JUMP JUMPDEST SWAP3 SWAP2 POP POP JUMP JUMPDEST PUSH1 0x0 PUSH1 0x20 DUP3 DUP5 SUB SLT ISZERO PUSH2 0x31AD JUMPI PUSH2 0x31AC PUSH2 0x3135 JUMP JUMPDEST JUMPDEST PUSH1 0x0 PUSH2 0x31BB DUP5 DUP3 DUP6 ADD PUSH2 0x3182 JUMP JUMPDEST SWAP2 POP POP SWAP3 SWAP2 POP POP JUMP JUMPDEST PUSH1 0x0 DUP2 ISZERO ISZERO SWAP1 POP SWAP2 SWAP1 POP JUMP JUMPDEST PUSH2 0x31D9 DUP2 PUSH2 0x31C4 JUMP JUMPDEST DUP3 MSTORE POP POP JUMP JUMPDEST PUSH1 0x0 PUSH1 0x20 DUP3 ADD SWAP1 POP PUSH2 0x31F4 PUSH1 0x0 DUP4 ADD DUP5 PUSH2 0x31D0 JUMP JUMPDEST SWAP3 SWAP2 POP POP JUMP JUMPDEST PUSH1 0x0 DUP2 MLOAD SWAP1 POP SWAP2 SWAP1 POP JUMP JUMPDEST PUSH1 0x0 DUP3 DUP3 MSTORE PUSH1 0x20 DUP3 ADD SWAP1 POP SWAP3 SWAP2 POP POP JUMP JUMPDEST PUSH1 0x0 JUMPDEST DUP4 DUP2 LT ISZERO PUSH2 0x3234 JUMPI DUP1 DUP3 ADD MLOAD DUP2 DUP5 ADD MSTORE PUSH1 0x20 DUP2 ADD SWAP1 POP PUSH2 0x3219 JUMP JUMPDEST PUSH1 0x0 DUP5 DUP5 ADD MSTORE POP POP POP POP JUMP JUMPDEST PUSH1 0x0 PUSH1 0x1F NOT PUSH1 0x1F DUP4 ADD AND SWAP1 POP SWAP2 SWAP1 POP JUMP JUMPDEST PUSH1 0x0 PUSH2 0x325C DUP3 PUSH2 0x31FA JUMP JUMPDEST PUSH2 0x3266 DUP2 DUP6 PUSH2 0x3205 JUMP JUMPDEST SWAP4 POP PUSH2 0x3276 DUP2 DUP6 PUSH1 0x20 DUP7 ADD PUSH2 0x3216 JUMP JUMPDEST PUSH2 0x327F DUP2 PUSH2 0x3240 JUMP JUMPDEST DUP5 ADD SWAP2 POP POP SWAP3 SWAP2 POP POP JUMP JUMPDEST PUSH1 0x0 PUSH1 0x20 DUP3 ADD SWAP1 POP DUP2 DUP2 SUB PUSH1 0x0 DUP4 ADD MSTORE PUSH2 0x32A4 DUP2 DUP5 PUSH2 0x3251 JUMP JUMPDEST SWAP1 POP SWAP3 SWAP2 POP POP JUMP JUMPDEST PUSH1 0x0 DUP2 SWAP1 POP SWAP2 SWAP1 POP JUMP JUMPDEST PUSH2 0x32BF DUP2 PUSH2 0x32AC JUMP JUMPDEST DUP2 EQ PUSH2 0x32CA JUMPI PUSH1 0x0 DUP1 REVERT JUMPDEST POP JUMP JUMPDEST PUSH1 0x0 DUP2 CALLDATALOAD SWAP1 POP PUSH2 0x32DC DUP2 PUSH2 0x32B6 JUMP JUMPDEST SWAP3 SWAP2 POP POP JUMP JUMPDEST PUSH1 0x0 PUSH1 0x20 DUP3 DUP5 SUB SLT ISZERO PUSH2 0x32F8 JUMPI PUSH2 0x32F7 PUSH2 0x3135 JUMP JUMPDEST JUMPDEST PUSH1 0x0 PUSH2 0x3306 DUP5 DUP3 DUP6 ADD PUSH2 0x32CD JUMP JUMPDEST SWAP2 POP POP SWAP3 SWAP2 POP POP JUMP JUMPDEST PUSH1 0x0 PUSH20 0xFFFFFFFFFFFFFFFFFFFFFFFFFFFFFFFFFFFFFFFF DUP3 AND SWAP1 POP SWAP2 SWAP1 POP JUMP JUMPDEST PUSH1 0x0 PUSH2 0x333A DUP3 PUSH2 0x330F JUMP JUMPDEST SWAP1 POP SWAP2 SWAP1 POP JUMP JUMPDEST PUSH2 0x334A DUP2 PUSH2 0x332F JUMP JUMPDEST DUP3 MSTORE POP POP JUMP JUMPDEST PUSH1 0x0 PUSH1 0x20 DUP3 ADD SWAP1 POP PUSH2 0x3365 PUSH1 0x0 DUP4 ADD DUP5 PUSH2 0x3341 JUMP JUMPDEST SWAP3 SWAP2 POP POP JUMP JUMPDEST PUSH2 0x3374 DUP2 PUSH2 0x332F JUMP JUMPDEST DUP2 EQ PUSH2 0x337F JUMPI PUSH1 0x0 DUP1 REVERT JUMPDEST POP JUMP JUMPDEST PUSH1 0x0 DUP2 CALLDATALOAD SWAP1 POP PUSH2 0x3391 DUP2 PUSH2 0x336B JUMP JUMPDEST SWAP3 SWAP2 POP POP JUMP JUMPDEST PUSH1 0x0 DUP1 PUSH1 0x40 DUP4 DUP6 SUB SLT ISZERO PUSH2 0x33AE JUMPI PUSH2 0x33AD PUSH2 0x3135 JUMP JUMPDEST JUMPDEST PUSH1 0x0 PUSH2 0x33BC DUP6 DUP3 DUP7 ADD PUSH2 0x3382 JUMP JUMPDEST SWAP3 POP POP PUSH1 0x20 PUSH2 0x33CD DUP6 DUP3 DUP7 ADD PUSH2 0x32CD JUMP JUMPDEST SWAP2 POP POP SWAP3 POP SWAP3 SWAP1 POP JUMP JUMPDEST PUSH2 0x33E0 DUP2 PUSH2 0x32AC JUMP JUMPDEST DUP3 MSTORE POP POP JUMP JUMPDEST PUSH1 0x0 PUSH1 0x20 DUP3 ADD SWAP1 POP PUSH2 0x33FB PUSH1 0x0 DUP4 ADD DUP5 PUSH2 0x33D7 JUMP JUMPDEST SWAP3 SWAP2 POP POP JUMP JUMPDEST PUSH1 0x0 DUP1 PUSH1 0x0 PUSH1 0x60 DUP5 DUP7 SUB SLT ISZERO PUSH2 0x341A JUMPI PUSH2 0x3419 PUSH2 0x3135 JUMP JUMPDEST JUMPDEST PUSH1 0x0 PUSH2 0x3428 DUP7 DUP3 DUP8 ADD PUSH2 0x3382 JUMP JUMPDEST SWAP4 POP POP PUSH1 0x20 PUSH2 0x3439 DUP7 DUP3 DUP8 ADD PUSH2 0x3382 JUMP JUMPDEST SWAP3 POP POP PUSH1 0x40 PUSH2 0x344A DUP7 DUP3 DUP8 ADD PUSH2 0x32CD JUMP JUMPDEST SWAP2 POP POP SWAP3 POP SWAP3 POP SWAP3 JUMP JUMPDEST PUSH1 0x0 DUP2 SWAP1 POP SWAP2 SWAP1 POP JUMP JUMPDEST PUSH2 0x3467 DUP2 PUSH2 0x3454 JUMP JUMPDEST DUP2 EQ PUSH2 0x3472 JUMPI PUSH1 0x0 DUP1 REVERT JUMPDEST POP JUMP JUMPDEST PUSH1 0x0 DUP2 CALLDATALOAD SWAP1 POP PUSH2 0x3484 DUP2 PUSH2 0x345E JUMP JUMPDEST SWAP3 SWAP2 POP POP JUMP JUMPDEST PUSH1 0x0 PUSH1 0x20 DUP3 DUP5 SUB SLT ISZERO PUSH2 0x34A0 JUMPI PUSH2 0x349F PUSH2 0x3135 JUMP JUMPDEST JUMPDEST PUSH1 0x0 PUSH2 0x34AE DUP5 DUP3 DUP6 ADD PUSH2 0x3475 JUMP JUMPDEST SWAP2 POP POP SWAP3 SWAP2 POP POP JUMP JUMPDEST PUSH2 0x34C0 DUP2 PUSH2 0x3454 JUMP JUMPDEST DUP3 MSTORE POP POP JUMP JUMPDEST PUSH1 0x0 PUSH1 0x20 DUP3 ADD SWAP1 POP PUSH2 0x34DB PUSH1 0x0 DUP4 ADD DUP5 PUSH2 0x34B7 JUMP JUMPDEST SWAP3 SWAP2 POP POP JUMP JUMPDEST PUSH1 0x0 DUP1 PUSH1 0x40 DUP4 DUP6 SUB SLT ISZERO PUSH2 0x34F8 JUMPI PUSH2 0x34F7 PUSH2 0x3135 JUMP JUMPDEST JUMPDEST PUSH1 0x0 PUSH2 0x3506 DUP6 DUP3 DUP7 ADD PUSH2 0x3475 JUMP JUMPDEST SWAP3 POP POP PUSH1 0x20 PUSH2 0x3517 DUP6 DUP3 DUP7 ADD PUSH2 0x3382 JUMP JUMPDEST SWAP2 POP POP SWAP3 POP SWAP3 SWAP1 POP JUMP JUMPDEST PUSH1 0x0 DUP1 REVERT JUMPDEST PUSH1 0x0 DUP1 REVERT JUMPDEST PUSH32 0x4E487B7100000000000000000000000000000000000000000000000000000000 PUSH1 0x0 MSTORE PUSH1 0x41 PUSH1 0x4 MSTORE PUSH1 0x24 PUSH1 0x0 REVERT JUMPDEST PUSH2 0x3563 DUP3 PUSH2 0x3240 JUMP JUMPDEST DUP2 ADD DUP2 DUP2 LT PUSH8 0xFFFFFFFFFFFFFFFF DUP3 GT OR ISZERO PUSH2 0x3582 JUMPI PUSH2 0x3581 PUSH2 0x352B JUMP JUMPDEST JUMPDEST DUP1 PUSH1 0x40 MSTORE POP POP POP JUMP JUMPDEST PUSH1 0x0 PUSH2 0x3595 PUSH2 0x312B JUMP JUMPDEST SWAP1 POP PUSH2 0x35A1 DUP3 DUP3 PUSH2 0x355A JUMP JUMPDEST SWAP2 SWAP1 POP JUMP JUMPDEST PUSH1 0x0 PUSH8 0xFFFFFFFFFFFFFFFF DUP3 GT ISZERO PUSH2 0x35C1 JUMPI PUSH2 0x35C0 PUSH2 0x352B JUMP JUMPDEST JUMPDEST PUSH2 0x35CA DUP3 PUSH2 0x3240 JUMP JUMPDEST SWAP1 POP PUSH1 0x20 DUP2 ADD SWAP1 POP SWAP2 SWAP1 POP JUMP JUMPDEST DUP3 DUP2 DUP4 CALLDATACOPY PUSH1 0x0 DUP4 DUP4 ADD MSTORE POP POP POP JUMP JUMPDEST PUSH1 0x0 PUSH2 0x35F9 PUSH2 0x35F4 DUP5 PUSH2 0x35A6 JUMP JUMPDEST PUSH2 0x358B JUMP JUMPDEST SWAP1 POP DUP3 DUP2 MSTORE PUSH1 0x20 DUP2 ADD DUP5 DUP5 DUP5 ADD GT ISZERO PUSH2 0x3615 JUMPI PUSH2 0x3614 PUSH2 0x3526 JUMP JUMPDEST JUMPDEST PUSH2 0x3620 DUP5 DUP3 DUP6 PUSH2 0x35D7 JUMP JUMPDEST POP SWAP4 SWAP3 POP POP POP JUMP JUMPDEST PUSH1 0x0 DUP3 PUSH1 0x1F DUP4 ADD SLT PUSH2 0x363D JUMPI PUSH2 0x363C PUSH2 0x3521 JUMP JUMPDEST JUMPDEST DUP2 CALLDATALOAD PUSH2 0x364D DUP5 DUP3 PUSH1 0x20 DUP7 ADD PUSH2 0x35E6 JUMP JUMPDEST SWAP2 POP POP SWAP3 SWAP2 POP POP JUMP JUMPDEST PUSH1 0x0 PUSH1 0x20 DUP3 DUP5 SUB SLT ISZERO PUSH2 0x366C JUMPI PUSH2 0x366B PUSH2 0x3135 JUMP JUMPDEST JUMPDEST PUSH1 0x0 DUP3 ADD CALLDATALOAD PUSH8 0xFFFFFFFFFFFFFFFF DUP2 GT ISZERO PUSH2 0x368A JUMPI PUSH2 0x3689 PUSH2 0x313A JUMP JUMPDEST JUMPDEST PUSH2 0x3696 DUP5 DUP3 DUP6 ADD PUSH2 0x3628 JUMP JUMPDEST SWAP2 POP POP SWAP3 SWAP2 POP POP JUMP JUMPDEST PUSH1 0x0 PUSH1 0x20 DUP3 DUP5 SUB SLT ISZERO PUSH2 0x36B5 JUMPI PUSH2 0x36B4 PUSH2 0x3135 JUMP JUMPDEST JUMPDEST PUSH1 0x0 PUSH2 0x36C3 DUP5 DUP3 DUP6 ADD PUSH2 0x3382 JUMP JUMPDEST SWAP2 POP POP SWAP3 SWAP2 POP POP JUMP JUMPDEST PUSH1 0x0 DUP1 PUSH1 0x40 DUP4 DUP6 SUB SLT ISZERO PUSH2 0x36E3 JUMPI PUSH2 0x36E2 PUSH2 0x3135 JUMP JUMPDEST JUMPDEST PUSH1 0x0 PUSH2 0x36F1 DUP6 DUP3 DUP7 ADD PUSH2 0x3475 JUMP JUMPDEST SWAP3 POP POP PUSH1 0x20 PUSH2 0x3702 DUP6 DUP3 DUP7 ADD PUSH2 0x32CD JUMP JUMPDEST SWAP2 POP POP SWAP3 POP SWAP3 SWAP1 POP JUMP JUMPDEST PUSH2 0x3715 DUP2 PUSH2 0x31C4 JUMP JUMPDEST DUP2 EQ PUSH2 0x3720 JUMPI PUSH1 0x0 DUP1 REVERT JUMPDEST POP JUMP JUMPDEST PUSH1 0x0 DUP2 CALLDATALOAD SWAP1 POP PUSH2 0x3732 DUP2 PUSH2 0x370C JUMP JUMPDEST SWAP3 SWAP2 POP POP JUMP JUMPDEST PUSH1 0x0 DUP1 PUSH1 0x40 DUP4 DUP6 SUB SLT ISZERO PUSH2 0x374F JUMPI PUSH2 0x374E PUSH2 0x3135 JUMP JUMPDEST JUMPDEST PUSH1 0x0 PUSH2 0x375D DUP6 DUP3 DUP7 ADD PUSH2 0x3382 JUMP JUMPDEST SWAP3 POP POP PUSH1 0x20 PUSH2 0x376E DUP6 DUP3 DUP7 ADD PUSH2 0x3723 JUMP JUMPDEST SWAP2 POP POP SWAP3 POP SWAP3 SWAP1 POP JUMP JUMPDEST PUSH1 0x0 PUSH8 0xFFFFFFFFFFFFFFFF DUP3 GT ISZERO PUSH2 0x3793 JUMPI PUSH2 0x3792 PUSH2 0x352B JUMP JUMPDEST JUMPDEST PUSH2 0x379C DUP3 PUSH2 0x3240 JUMP JUMPDEST SWAP1 POP PUSH1 0x20 DUP2 ADD SWAP1 POP SWAP2 SWAP1 POP JUMP JUMPDEST PUSH1 0x0 PUSH2 0x37BC PUSH2 0x37B7 DUP5 PUSH2 0x3778 JUMP JUMPDEST PUSH2 0x358B JUMP JUMPDEST SWAP1 POP DUP3 DUP2 MSTORE PUSH1 0x20 DUP2 ADD DUP5 DUP5 DUP5 ADD GT ISZERO PUSH2 0x37D8 JUMPI PUSH2 0x37D7 PUSH2 0x3526 JUMP JUMPDEST JUMPDEST PUSH2 0x37E3 DUP5 DUP3 DUP6 PUSH2 0x35D7 JUMP JUMPDEST POP SWAP4 SWAP3 POP POP POP JUMP JUMPDEST PUSH1 0x0 DUP3 PUSH1 0x1F DUP4 ADD SLT PUSH2 0x3800 JUMPI PUSH2 0x37FF PUSH2 0x3521 JUMP JUMPDEST JUMPDEST DUP2 CALLDATALOAD PUSH2 0x3810 DUP5 DUP3 PUSH1 0x20 DUP7 ADD PUSH2 0x37A9 JUMP JUMPDEST SWAP2 POP POP SWAP3 SWAP2 POP POP JUMP JUMPDEST PUSH1 0x0 DUP1 PUSH1 0x0 DUP1 PUSH1 0x80 DUP6 DUP8 SUB SLT ISZERO PUSH2 0x3833 JUMPI PUSH2 0x3832 PUSH2 0x3135 JUMP JUMPDEST JUMPDEST PUSH1 0x0 PUSH2 0x3841 DUP8 DUP3 DUP9 ADD PUSH2 0x3382 JUMP JUMPDEST SWAP5 POP POP PUSH1 0x20 PUSH2 0x3852 DUP8 DUP3 DUP9 ADD PUSH2 0x3382 JUMP JUMPDEST SWAP4 POP POP PUSH1 0x40 PUSH2 0x3863 DUP8 DUP3 DUP9 ADD PUSH2 0x32CD JUMP JUMPDEST SWAP3 POP POP PUSH1 0x60 DUP6 ADD CALLDATALOAD PUSH8 0xFFFFFFFFFFFFFFFF DUP2 GT ISZERO PUSH2 0x3884 JUMPI PUSH2 0x3883 PUSH2 0x313A JUMP JUMPDEST JUMPDEST PUSH2 0x3890 DUP8 DUP3 DUP9 ADD PUSH2 0x37EB JUMP JUMPDEST SWAP2 POP POP SWAP3 SWAP6 SWAP2 SWAP5 POP SWAP3 POP JUMP JUMPDEST PUSH1 0x0 DUP1 PUSH1 0x40 DUP4 DUP6 SUB SLT ISZERO PUSH2 0x38B3 JUMPI PUSH2 0x38B2 PUSH2 0x3135 JUMP JUMPDEST JUMPDEST PUSH1 0x0 PUSH2 0x38C1 DUP6 DUP3 DUP7 ADD PUSH2 0x3382 JUMP JUMPDEST SWAP3 POP POP PUSH1 0x20 PUSH2 0x38D2 DUP6 DUP3 DUP7 ADD PUSH2 0x3382 JUMP JUMPDEST SWAP2 POP POP SWAP3 POP SWAP3 SWAP1 POP JUMP JUMPDEST PUSH32 0x4E487B7100000000000000000000000000000000000000000000000000000000 PUSH1 0x0 MSTORE PUSH1 0x22 PUSH1 0x4 MSTORE PUSH1 0x24 PUSH1 0x0 REVERT JUMPDEST PUSH1 0x0 PUSH1 0x2 DUP3 DIV SWAP1 POP PUSH1 0x1 DUP3 AND DUP1 PUSH2 0x3923 JUMPI PUSH1 0x7F DUP3 AND SWAP2 POP JUMPDEST PUSH1 0x20 DUP3 LT DUP2 SUB PUSH2 0x3936 JUMPI PUSH2 0x3935 PUSH2 0x38DC JUMP JUMPDEST JUMPDEST POP SWAP2 SWAP1 POP JUMP JUMPDEST PUSH32 0x4552433732313A20617070726F76616C20746F2063757272656E74206F776E65 PUSH1 0x0 DUP3 ADD MSTORE PUSH32 0x7200000000000000000000000000000000000000000000000000000000000000 PUSH1 0x20 DUP3 ADD MSTORE POP JUMP JUMPDEST PUSH1 0x0 PUSH2 0x3998 PUSH1 0x21 DUP4 PUSH2 0x3205 JUMP JUMPDEST SWAP2 POP PUSH2 0x39A3 DUP3 PUSH2 0x393C JUMP JUMPDEST PUSH1 0x40 DUP3 ADD SWAP1 POP SWAP2 SWAP1 POP JUMP JUMPDEST PUSH1 0x0 PUSH1 0x20 DUP3 ADD SWAP1 POP DUP2 DUP2 SUB PUSH1 0x0 DUP4 ADD MSTORE PUSH2 0x39C7 DUP2 PUSH2 0x398B JUMP JUMPDEST SWAP1 POP SWAP2 SWAP1 POP JUMP JUMPDEST PUSH32 0x4552433732313A20617070726F76652063616C6C6572206973206E6F7420746F PUSH1 0x0 DUP3 ADD MSTORE PUSH32 0x6B656E206F776E6572206F7220617070726F76656420666F7220616C6C000000 PUSH1 0x20 DUP3 ADD MSTORE POP JUMP JUMPDEST PUSH1 0x0 PUSH2 0x3A2A PUSH1 0x3D DUP4 PUSH2 0x3205 JUMP JUMPDEST SWAP2 POP PUSH2 0x3A35 DUP3 PUSH2 0x39CE JUMP JUMPDEST PUSH1 0x40 DUP3 ADD SWAP1 POP SWAP2 SWAP1 POP JUMP JUMPDEST PUSH1 0x0 PUSH1 0x20 DUP3 ADD SWAP1 POP DUP2 DUP2 SUB PUSH1 0x0 DUP4 ADD MSTORE PUSH2 0x3A59 DUP2 PUSH2 0x3A1D JUMP JUMPDEST SWAP1 POP SWAP2 SWAP1 POP JUMP JUMPDEST PUSH32 0x4552433732313A2063616C6C6572206973206E6F7420746F6B656E206F776E65 PUSH1 0x0 DUP3 ADD MSTORE PUSH32 0x72206F7220617070726F76656400000000000000000000000000000000000000 PUSH1 0x20 DUP3 ADD MSTORE POP JUMP JUMPDEST PUSH1 0x0 PUSH2 0x3ABC PUSH1 0x2D DUP4 PUSH2 0x3205 JUMP JUMPDEST SWAP2 POP PUSH2 0x3AC7 DUP3 PUSH2 0x3A60 JUMP JUMPDEST PUSH1 0x40 DUP3 ADD SWAP1 POP SWAP2 SWAP1 POP JUMP JUMPDEST PUSH1 0x0 PUSH1 0x20 DUP3 ADD SWAP1 POP DUP2 DUP2 SUB PUSH1 0x0 DUP4 ADD MSTORE PUSH2 0x3AEB DUP2 PUSH2 0x3AAF JUMP JUMPDEST SWAP1 POP SWAP2 SWAP1 POP JUMP JUMPDEST PUSH32 0x455243373231456E756D657261626C653A206F776E657220696E646578206F75 PUSH1 0x0 DUP3 ADD MSTORE PUSH32 0x74206F6620626F756E6473000000000000000000000000000000000000000000 PUSH1 0x20 DUP3 ADD MSTORE POP JUMP JUMPDEST PUSH1 0x0 PUSH2 0x3B4E PUSH1 0x2B DUP4 PUSH2 0x3205 JUMP JUMPDEST SWAP2 POP PUSH2 0x3B59 DUP3 PUSH2 0x3AF2 JUMP JUMPDEST PUSH1 0x40 DUP3 ADD SWAP1 POP SWAP2 SWAP1 POP JUMP JUMPDEST PUSH1 0x0 PUSH1 0x20 DUP3 ADD SWAP1 POP DUP2 DUP2 SUB PUSH1 0x0 DUP4 ADD MSTORE PUSH2 0x3B7D DUP2 PUSH2 0x3B41 JUMP JUMPDEST SWAP1 POP SWAP2 SWAP1 POP JUMP JUMPDEST PUSH32 0x416363657373436F6E74726F6C3A2063616E206F6E6C792072656E6F756E6365 PUSH1 0x0 DUP3 ADD MSTORE PUSH32 0x20726F6C657320666F722073656C660000000000000000000000000000000000 PUSH1 0x20 DUP3 ADD MSTORE POP JUMP JUMPDEST PUSH1 0x0 PUSH2 0x3BE0 PUSH1 0x2F DUP4 PUSH2 0x3205 JUMP JUMPDEST SWAP2 POP PUSH2 0x3BEB DUP3 PUSH2 0x3B84 JUMP JUMPDEST PUSH1 0x40 DUP3 ADD SWAP1 POP SWAP2 SWAP1 POP JUMP JUMPDEST PUSH1 0x0 PUSH1 0x20 DUP3 ADD SWAP1 POP DUP2 DUP2 SUB PUSH1 0x0 DUP4 ADD MSTORE PUSH2 0x3C0F DUP2 PUSH2 0x3BD3 JUMP JUMPDEST SWAP1 POP SWAP2 SWAP1 POP JUMP JUMPDEST PUSH32 0x4552433732315072657365744D696E7465725061757365724175746F49643A20 PUSH1 0x0 DUP3 ADD MSTORE PUSH32 0x6D75737420686176652070617573657220726F6C6520746F20756E7061757365 PUSH1 0x20 DUP3 ADD MSTORE POP JUMP JUMPDEST PUSH1 0x0 PUSH2 0x3C72 PUSH1 0x40 DUP4 PUSH2 0x3205 JUMP JUMPDEST SWAP2 POP PUSH2 0x3C7D DUP3 PUSH2 0x3C16 JUMP JUMPDEST PUSH1 0x40 DUP3 ADD SWAP1 POP SWAP2 SWAP1 POP JUMP JUMPDEST PUSH1 0x0 PUSH1 0x20 DUP3 ADD SWAP1 POP DUP2 DUP2 SUB PUSH1 0x0 DUP4 ADD MSTORE PUSH2 0x3CA1 DUP2 PUSH2 0x3C65 JUMP JUMPDEST SWAP1 POP SWAP2 SWAP1 POP JUMP JUMPDEST PUSH32 0x455243373231456E756D657261626C653A20676C6F62616C20696E646578206F PUSH1 0x0 DUP3 ADD MSTORE PUSH32 0x7574206F6620626F756E64730000000000000000000000000000000000000000 PUSH1 0x20 DUP3 ADD MSTORE POP JUMP JUMPDEST PUSH1 0x0 PUSH2 0x3D04 PUSH1 0x2C DUP4 PUSH2 0x3205 JUMP JUMPDEST SWAP2 POP PUSH2 0x3D0F DUP3 PUSH2 0x3CA8 JUMP JUMPDEST PUSH1 0x40 DUP3 ADD SWAP1 POP SWAP2 SWAP1 POP JUMP JUMPDEST PUSH1 0x0 PUSH1 0x20 DUP3 ADD SWAP1 POP DUP2 DUP2 SUB PUSH1 0x0 DUP4 ADD MSTORE PUSH2 0x3D33 DUP2 PUSH2 0x3CF7 JUMP JUMPDEST SWAP1 POP SWAP2 SWAP1 POP JUMP JUMPDEST PUSH32 0x4E487B7100000000000000000000000000000000000000000000000000000000 PUSH1 0x0 MSTORE PUSH1 0x32 PUSH1 0x4 MSTORE PUSH1 0x24 PUSH1 0x0 REVERT JUMPDEST PUSH1 0x0 DUP2 SWAP1 POP DUP2 PUSH1 0x0 MSTORE PUSH1 0x20 PUSH1 0x0 KECCAK256 SWAP1 POP SWAP2 SWAP1 POP JUMP JUMPDEST PUSH1 0x0 PUSH1 0x20 PUSH1 0x1F DUP4 ADD DIV SWAP1 POP SWAP2 SWAP1 POP JUMP JUMPDEST PUSH1 0x0 DUP3 DUP3 SHL SWAP1 POP SWAP3 SWAP2 POP POP JUMP JUMPDEST PUSH1 0x0 PUSH1 0x8 DUP4 MUL PUSH2 0x3DCB PUSH32 0xFFFFFFFFFFFFFFFFFFFFFFFFFFFFFFFFFFFFFFFFFFFFFFFFFFFFFFFFFFFFFFFF DUP3 PUSH2 0x3D8E JUMP JUMPDEST PUSH2 0x3DD5 DUP7 DUP4 PUSH2 0x3D8E JUMP JUMPDEST SWAP6 POP DUP1 NOT DUP5 AND SWAP4 POP DUP1 DUP7 AND DUP5 OR SWAP3 POP POP POP SWAP4 SWAP3 POP POP POP JUMP JUMPDEST PUSH1 0x0 DUP2 SWAP1 POP SWAP2 SWAP1 POP JUMP JUMPDEST PUSH1 0x0 PUSH2 0x3E12 PUSH2 0x3E0D PUSH2 0x3E08 DUP5 PUSH2 0x32AC JUMP JUMPDEST PUSH2 0x3DED JUMP JUMPDEST PUSH2 0x32AC JUMP JUMPDEST SWAP1 POP SWAP2 SWAP1 POP JUMP JUMPDEST PUSH1 0x0 DUP2 SWAP1 POP SWAP2 SWAP1 POP JUMP JUMPDEST PUSH2 0x3E2C DUP4 PUSH2 0x3DF7 JUMP JUMPDEST PUSH2 0x3E40 PUSH2 0x3E38 DUP3 PUSH2 0x3E19 JUMP JUMPDEST DUP5 DUP5 SLOAD PUSH2 0x3D9B JUMP JUMPDEST DUP3 SSTORE POP POP POP POP JUMP JUMPDEST PUSH1 0x0 SWAP1 JUMP JUMPDEST PUSH2 0x3E55 PUSH2 0x3E48 JUMP JUMPDEST PUSH2 0x3E60 DUP2 DUP5 DUP5 PUSH2 0x3E23 JUMP JUMPDEST POP POP POP JUMP JUMPDEST JUMPDEST DUP2 DUP2 LT ISZERO PUSH2 0x3E84 JUMPI PUSH2 0x3E79 PUSH1 0x0 DUP3 PUSH2 0x3E4D JUMP JUMPDEST PUSH1 0x1 DUP2 ADD SWAP1 POP PUSH2 0x3E66 JUMP JUMPDEST POP POP JUMP JUMPDEST PUSH1 0x1F DUP3 GT ISZERO PUSH2 0x3EC9 JUMPI PUSH2 0x3E9A DUP2 PUSH2 0x3D69 JUMP JUMPDEST PUSH2 0x3EA3 DUP5 PUSH2 0x3D7E JUMP JUMPDEST DUP2 ADD PUSH1 0x20 DUP6 LT ISZERO PUSH2 0x3EB2 JUMPI DUP2 SWAP1 POP JUMPDEST PUSH2 0x3EC6 PUSH2 0x3EBE DUP6 PUSH2 0x3D7E JUMP JUMPDEST DUP4 ADD DUP3 PUSH2 0x3E65 JUMP JUMPDEST POP POP JUMPDEST POP POP POP JUMP JUMPDEST PUSH1 0x0 DUP3 DUP3 SHR SWAP1 POP SWAP3 SWAP2 POP POP JUMP JUMPDEST PUSH1 0x0 PUSH2 0x3EEC PUSH1 0x0 NOT DUP5 PUSH1 0x8 MUL PUSH2 0x3ECE JUMP JUMPDEST NOT DUP1 DUP4 AND SWAP2 POP POP SWAP3 SWAP2 POP POP JUMP JUMPDEST PUSH1 0x0 PUSH2 0x3F05 DUP4 DUP4 PUSH2 0x3EDB JUMP JUMPDEST SWAP2 POP DUP3 PUSH1 0x2 MUL DUP3 OR SWAP1 POP SWAP3 SWAP2 POP POP JUMP JUMPDEST PUSH2 0x3F1E DUP3 PUSH2 0x31FA JUMP JUMPDEST PUSH8 0xFFFFFFFFFFFFFFFF DUP2 GT ISZERO PUSH2 0x3F37 JUMPI PUSH2 0x3F36 PUSH2 0x352B JUMP JUMPDEST JUMPDEST PUSH2 0x3F41 DUP3 SLOAD PUSH2 0x390B JUMP JUMPDEST PUSH2 0x3F4C DUP3 DUP3 DUP6 PUSH2 0x3E88 JUMP JUMPDEST PUSH1 0x0 PUSH1 0x20 SWAP1 POP PUSH1 0x1F DUP4 GT PUSH1 0x1 DUP2 EQ PUSH2 0x3F7F JUMPI PUSH1 0x0 DUP5 ISZERO PUSH2 0x3F6D JUMPI DUP3 DUP8 ADD MLOAD SWAP1 POP JUMPDEST PUSH2 0x3F77 DUP6 DUP3 PUSH2 0x3EF9 JUMP JUMPDEST DUP7 SSTORE POP PUSH2 0x3FDF JUMP JUMPDEST PUSH1 0x1F NOT DUP5 AND PUSH2 0x3F8D DUP7 PUSH2 0x3D69 JUMP JUMPDEST PUSH1 0x0 JUMPDEST DUP3 DUP2 LT ISZERO PUSH2 0x3FB5 JUMPI DUP5 DUP10 ADD MLOAD DUP3 SSTORE PUSH1 0x1 DUP3 ADD SWAP2 POP PUSH1 0x20 DUP6 ADD SWAP5 POP PUSH1 0x20 DUP2 ADD SWAP1 POP PUSH2 0x3F90 JUMP JUMPDEST DUP7 DUP4 LT ISZERO PUSH2 0x3FD2 JUMPI DUP5 DUP10 ADD MLOAD PUSH2 0x3FCE PUSH1 0x1F DUP10 AND DUP3 PUSH2 0x3EDB JUMP JUMPDEST DUP4 SSTORE POP JUMPDEST PUSH1 0x1 PUSH1 0x2 DUP9 MUL ADD DUP9 SSTORE POP POP POP JUMPDEST POP POP POP POP POP POP JUMP JUMPDEST PUSH32 0x4552433732313A20696E76616C696420746F6B656E2049440000000000000000 PUSH1 0x0 DUP3 ADD MSTORE POP JUMP JUMPDEST PUSH1 0x0 PUSH2 0x401D PUSH1 0x18 DUP4 PUSH2 0x3205 JUMP JUMPDEST SWAP2 POP PUSH2 0x4028 DUP3 PUSH2 0x3FE7 JUMP JUMPDEST PUSH1 0x20 DUP3 ADD SWAP1 POP SWAP2 SWAP1 POP JUMP JUMPDEST PUSH1 0x0 PUSH1 0x20 DUP3 ADD SWAP1 POP DUP2 DUP2 SUB PUSH1 0x0 DUP4 ADD MSTORE PUSH2 0x404C DUP2 PUSH2 0x4010 JUMP JUMPDEST SWAP1 POP SWAP2 SWAP1 POP JUMP JUMPDEST PUSH32 0x4552433732315072657365744D696E7465725061757365724175746F49643A20 PUSH1 0x0 DUP3 ADD MSTORE PUSH32 0x6D7573742068617665206D696E74657220726F6C6520746F206D696E74000000 PUSH1 0x20 DUP3 ADD MSTORE POP JUMP JUMPDEST PUSH1 0x0 PUSH2 0x40AF PUSH1 0x3D DUP4 PUSH2 0x3205 JUMP JUMPDEST SWAP2 POP PUSH2 0x40BA DUP3 PUSH2 0x4053 JUMP JUMPDEST PUSH1 0x40 DUP3 ADD SWAP1 POP SWAP2 SWAP1 POP JUMP JUMPDEST PUSH1 0x0 PUSH1 0x20 DUP3 ADD SWAP1 POP DUP2 DUP2 SUB PUSH1 0x0 DUP4 ADD MSTORE PUSH2 0x40DE DUP2 PUSH2 0x40A2 JUMP JUMPDEST SWAP1 POP SWAP2 SWAP1 POP JUMP JUMPDEST PUSH32 0x4552433732313A2061646472657373207A65726F206973206E6F742061207661 PUSH1 0x0 DUP3 ADD MSTORE PUSH32 0x6C6964206F776E65720000000000000000000000000000000000000000000000 PUSH1 0x20 DUP3 ADD MSTORE POP JUMP JUMPDEST PUSH1 0x0 PUSH2 0x4141 PUSH1 0x29 DUP4 PUSH2 0x3205 JUMP JUMPDEST SWAP2 POP PUSH2 0x414C DUP3 PUSH2 0x40E5 JUMP JUMPDEST PUSH1 0x40 DUP3 ADD SWAP1 POP SWAP2 SWAP1 POP JUMP JUMPDEST PUSH1 0x0 PUSH1 0x20 DUP3 ADD SWAP1 POP DUP2 DUP2 SUB PUSH1 0x0 DUP4 ADD MSTORE PUSH2 0x4170 DUP2 PUSH2 0x4134 JUMP JUMPDEST SWAP1 POP SWAP2 SWAP1 POP JUMP JUMPDEST PUSH32 0x4552433732315072657365744D696E7465725061757365724175746F49643A20 PUSH1 0x0 DUP3 ADD MSTORE PUSH32 0x6D75737420686176652070617573657220726F6C6520746F2070617573650000 PUSH1 0x20 DUP3 ADD MSTORE POP JUMP JUMPDEST PUSH1 0x0 PUSH2 0x41D3 PUSH1 0x3E DUP4 PUSH2 0x3205 JUMP JUMPDEST SWAP2 POP PUSH2 0x41DE DUP3 PUSH2 0x4177 JUMP JUMPDEST PUSH1 0x40 DUP3 ADD SWAP1 POP SWAP2 SWAP1 POP JUMP JUMPDEST PUSH1 0x0 PUSH1 0x20 DUP3 ADD SWAP1 POP DUP2 DUP2 SUB PUSH1 0x0 DUP4 ADD MSTORE PUSH2 0x4202 DUP2 PUSH2 0x41C6 JUMP JUMPDEST SWAP1 POP SWAP2 SWAP1 POP JUMP JUMPDEST PUSH1 0x0 DUP2 SWAP1 POP SWAP3 SWAP2 POP POP JUMP JUMPDEST PUSH1 0x0 PUSH2 0x421F DUP3 PUSH2 0x31FA JUMP JUMPDEST PUSH2 0x4229 DUP2 DUP6 PUSH2 0x4209 JUMP JUMPDEST SWAP4 POP PUSH2 0x4239 DUP2 DUP6 PUSH1 0x20 DUP7 ADD PUSH2 0x3216 JUMP JUMPDEST DUP1 DUP5 ADD SWAP2 POP POP SWAP3 SWAP2 POP POP JUMP JUMPDEST PUSH1 0x0 PUSH2 0x4251 DUP3 DUP6 PUSH2 0x4214 JUMP JUMPDEST SWAP2 POP PUSH2 0x425D DUP3 DUP5 PUSH2 0x4214 JUMP JUMPDEST SWAP2 POP DUP2 SWAP1 POP SWAP4 SWAP3 POP POP POP JUMP JUMPDEST PUSH32 0x4552433732313A207472616E736665722066726F6D20696E636F727265637420 PUSH1 0x0 DUP3 ADD MSTORE PUSH32 0x6F776E6572000000000000000000000000000000000000000000000000000000 PUSH1 0x20 DUP3 ADD MSTORE POP JUMP JUMPDEST PUSH1 0x0 PUSH2 0x42C5 PUSH1 0x25 DUP4 PUSH2 0x3205 JUMP JUMPDEST SWAP2 POP PUSH2 0x42D0 DUP3 PUSH2 0x4269 JUMP JUMPDEST PUSH1 0x40 DUP3 ADD SWAP1 POP SWAP2 SWAP1 POP JUMP JUMPDEST PUSH1 0x0 PUSH1 0x20 DUP3 ADD SWAP1 POP DUP2 DUP2 SUB PUSH1 0x0 DUP4 ADD MSTORE PUSH2 0x42F4 DUP2 PUSH2 0x42B8 JUMP JUMPDEST SWAP1 POP SWAP2 SWAP1 POP JUMP JUMPDEST PUSH32 0x4552433732313A207472616E7366657220746F20746865207A65726F20616464 PUSH1 0x0 DUP3 ADD MSTORE PUSH32 0x7265737300000000000000000000000000000000000000000000000000000000 PUSH1 0x20 DUP3 ADD MSTORE POP JUMP JUMPDEST PUSH1 0x0 PUSH2 0x4357 PUSH1 0x24 DUP4 PUSH2 0x3205 JUMP JUMPDEST SWAP2 POP PUSH2 0x4362 DUP3 PUSH2 0x42FB JUMP JUMPDEST PUSH1 0x40 DUP3 ADD SWAP1 POP SWAP2 SWAP1 POP JUMP JUMPDEST PUSH1 0x0 PUSH1 0x20 DUP3 ADD SWAP1 POP DUP2 DUP2 SUB PUSH1 0x0 DUP4 ADD MSTORE PUSH2 0x4386 DUP2 PUSH2 0x434A JUMP JUMPDEST SWAP1 POP SWAP2 SWAP1 POP JUMP JUMPDEST PUSH32 0x4552433732313A20617070726F766520746F2063616C6C657200000000000000 PUSH1 0x0 DUP3 ADD MSTORE POP JUMP JUMPDEST PUSH1 0x0 PUSH2 0x43C3 PUSH1 0x19 DUP4 PUSH2 0x3205 JUMP JUMPDEST SWAP2 POP PUSH2 0x43CE DUP3 PUSH2 0x438D JUMP JUMPDEST PUSH1 0x20 DUP3 ADD SWAP1 POP SWAP2 SWAP1 POP JUMP JUMPDEST PUSH1 0x0 PUSH1 0x20 DUP3 ADD SWAP1 POP DUP2 DUP2 SUB PUSH1 0x0 DUP4 ADD MSTORE PUSH2 0x43F2 DUP2 PUSH2 0x43B6 JUMP JUMPDEST SWAP1 POP SWAP2 SWAP1 POP JUMP JUMPDEST PUSH32 0x4552433732313A207472616E7366657220746F206E6F6E204552433732315265 PUSH1 0x0 DUP3 ADD MSTORE PUSH32 0x63656976657220696D706C656D656E7465720000000000000000000000000000 PUSH1 0x20 DUP3 ADD MSTORE POP JUMP JUMPDEST PUSH1 0x0 PUSH2 0x4455 PUSH1 0x32 DUP4 PUSH2 0x3205 JUMP JUMPDEST SWAP2 POP PUSH2 0x4460 DUP3 PUSH2 0x43F9 JUMP JUMPDEST PUSH1 0x40 DUP3 ADD SWAP1 POP SWAP2 SWAP1 POP JUMP JUMPDEST PUSH1 0x0 PUSH1 0x20 DUP3 ADD SWAP1 POP DUP2 DUP2 SUB PUSH1 0x0 DUP4 ADD MSTORE PUSH2 0x4484 DUP2 PUSH2 0x4448 JUMP JUMPDEST SWAP1 POP SWAP2 SWAP1 POP JUMP JUMPDEST PUSH32 0x4E487B7100000000000000000000000000000000000000000000000000000000 PUSH1 0x0 MSTORE PUSH1 0x12 PUSH1 0x4 MSTORE PUSH1 0x24 PUSH1 0x0 REVERT JUMPDEST PUSH32 0x416363657373436F6E74726F6C3A206163636F756E7420000000000000000000 PUSH1 0x0 DUP3 ADD MSTORE POP JUMP JUMPDEST PUSH1 0x0 PUSH2 0x44F0 PUSH1 0x17 DUP4 PUSH2 0x4209 JUMP JUMPDEST SWAP2 POP PUSH2 0x44FB DUP3 PUSH2 0x44BA JUMP JUMPDEST PUSH1 0x17 DUP3 ADD SWAP1 POP SWAP2 SWAP1 POP JUMP JUMPDEST PUSH32 0x206973206D697373696E6720726F6C6520000000000000000000000000000000 PUSH1 0x0 DUP3 ADD MSTORE POP JUMP JUMPDEST PUSH1 0x0 PUSH2 0x453C PUSH1 0x11 DUP4 PUSH2 0x4209 JUMP JUMPDEST SWAP2 POP PUSH2 0x4547 DUP3 PUSH2 0x4506 JUMP JUMPDEST PUSH1 0x11 DUP3 ADD SWAP1 POP SWAP2 SWAP1 POP JUMP JUMPDEST PUSH1 0x0 PUSH2 0x455D DUP3 PUSH2 0x44E3 JUMP JUMPDEST SWAP2 POP PUSH2 0x4569 DUP3 DUP6 PUSH2 0x4214 JUMP JUMPDEST SWAP2 POP PUSH2 0x4574 DUP3 PUSH2 0x452F JUMP JUMPDEST SWAP2 POP PUSH2 0x4580 DUP3 DUP5 PUSH2 0x4214 JUMP JUMPDEST SWAP2 POP DUP2 SWAP1 POP SWAP4 SWAP3 POP POP POP JUMP JUMPDEST PUSH32 0x5061757361626C653A206E6F7420706175736564000000000000000000000000 PUSH1 0x0 DUP3 ADD MSTORE POP JUMP JUMPDEST PUSH1 0x0 PUSH2 0x45C2 PUSH1 0x14 DUP4 PUSH2 0x3205 JUMP JUMPDEST SWAP2 POP PUSH2 0x45CD DUP3 PUSH2 0x458C JUMP JUMPDEST PUSH1 0x20 DUP3 ADD SWAP1 POP SWAP2 SWAP1 POP JUMP JUMPDEST PUSH1 0x0 PUSH1 0x20 DUP3 ADD SWAP1 POP DUP2 DUP2 SUB PUSH1 0x0 DUP4 ADD MSTORE PUSH2 0x45F1 DUP2 PUSH2 0x45B5 JUMP JUMPDEST SWAP1 POP SWAP2 SWAP1 POP JUMP JUMPDEST PUSH32 0x4552433732313A206D696E7420746F20746865207A65726F2061646472657373 PUSH1 0x0 DUP3 ADD MSTORE POP JUMP JUMPDEST PUSH1 0x0 PUSH2 0x462E PUSH1 0x20 DUP4 PUSH2 0x3205 JUMP JUMPDEST SWAP2 POP PUSH2 0x4639 DUP3 PUSH2 0x45F8 JUMP JUMPDEST PUSH1 0x20 DUP3 ADD SWAP1 POP SWAP2 SWAP1 POP JUMP JUMPDEST PUSH1 0x0 PUSH1 0x20 DUP3 ADD SWAP1 POP DUP2 DUP2 SUB PUSH1 0x0 DUP4 ADD MSTORE PUSH2 0x465D DUP2 PUSH2 0x4621 JUMP JUMPDEST SWAP1 POP SWAP2 SWAP1 POP JUMP JUMPDEST PUSH32 0x4552433732313A20746F6B656E20616C7265616479206D696E74656400000000 PUSH1 0x0 DUP3 ADD MSTORE POP JUMP JUMPDEST PUSH1 0x0 PUSH2 0x469A PUSH1 0x1C DUP4 PUSH2 0x3205 JUMP JUMPDEST SWAP2 POP PUSH2 0x46A5 DUP3 PUSH2 0x4664 JUMP JUMPDEST PUSH1 0x20 DUP3 ADD SWAP1 POP SWAP2 SWAP1 POP JUMP JUMPDEST PUSH1 0x0 PUSH1 0x20 DUP3 ADD SWAP1 POP DUP2 DUP2 SUB PUSH1 0x0 DUP4 ADD MSTORE PUSH2 0x46C9 DUP2 PUSH2 0x468D JUMP JUMPDEST SWAP1 POP SWAP2 SWAP1 POP JUMP JUMPDEST PUSH32 0x5061757361626C653A2070617573656400000000000000000000000000000000 PUSH1 0x0 DUP3 ADD MSTORE POP JUMP JUMPDEST PUSH1 0x0 PUSH2 0x4706 PUSH1 0x10 DUP4 PUSH2 0x3205 JUMP JUMPDEST SWAP2 POP PUSH2 0x4711 DUP3 PUSH2 0x46D0 JUMP JUMPDEST PUSH1 0x20 DUP3 ADD SWAP1 POP SWAP2 SWAP1 POP JUMP JUMPDEST PUSH1 0x0 PUSH1 0x20 DUP3 ADD SWAP1 POP DUP2 DUP2 SUB PUSH1 0x0 DUP4 ADD MSTORE PUSH2 0x4735 DUP2 PUSH2 0x46F9 JUMP JUMPDEST SWAP1 POP SWAP2 SWAP1 POP JUMP JUMPDEST PUSH1 0x0 DUP2 MLOAD SWAP1 POP SWAP2 SWAP1 POP JUMP JUMPDEST PUSH1 0x0 DUP3 DUP3 MSTORE PUSH1 0x20 DUP3 ADD SWAP1 POP SWAP3 SWAP2 POP POP JUMP JUMPDEST PUSH1 0x0 PUSH2 0x4763 DUP3 PUSH2 0x473C JUMP JUMPDEST PUSH2 0x476D DUP2 DUP6 PUSH2 0x4747 JUMP JUMPDEST SWAP4 POP PUSH2 0x477D DUP2 DUP6 PUSH1 0x20 DUP7 ADD PUSH2 0x3216 JUMP JUMPDEST PUSH2 0x4786 DUP2 PUSH2 0x3240 JUMP JUMPDEST DUP5 ADD SWAP2 POP POP SWAP3 SWAP2 POP POP JUMP JUMPDEST PUSH1 0x0 PUSH1 0x80 DUP3 ADD SWAP1 POP PUSH2 0x47A6 PUSH1 0x0 DUP4 ADD DUP8 PUSH2 0x3341 JUMP JUMPDEST PUSH2 0x47B3 PUSH1 0x20 DUP4 ADD DUP7 PUSH2 0x3341 JUMP JUMPDEST PUSH2 0x47C0 PUSH1 0x40 DUP4 ADD DUP6 PUSH2 0x33D7 JUMP JUMPDEST DUP2 DUP2 SUB PUSH1 0x60 DUP4 ADD MSTORE PUSH2 0x47D2 DUP2 DUP5 PUSH2 0x4758 JUMP JUMPDEST SWAP1 POP SWAP6 SWAP5 POP POP POP POP POP JUMP JUMPDEST PUSH1 0x0 DUP2 MLOAD SWAP1 POP PUSH2 0x47EC DUP2 PUSH2 0x316B JUMP JUMPDEST SWAP3 SWAP2 POP POP JUMP JUMPDEST PUSH1 0x0 PUSH1 0x20 DUP3 DUP5 SUB SLT ISZERO PUSH2 0x4808 JUMPI PUSH2 0x4807 PUSH2 0x3135 JUMP JUMPDEST JUMPDEST PUSH1 0x0 PUSH2 0x4816 DUP5 DUP3 DUP6 ADD PUSH2 0x47DD JUMP JUMPDEST SWAP2 POP POP SWAP3 SWAP2 POP POP JUMP JUMPDEST PUSH32 0x4552433732315061757361626C653A20746F6B656E207472616E736665722077 PUSH1 0x0 DUP3 ADD MSTORE PUSH32 0x68696C6520706175736564000000000000000000000000000000000000000000 PUSH1 0x20 DUP3 ADD MSTORE POP JUMP JUMPDEST PUSH1 0x0 PUSH2 0x487B PUSH1 0x2B DUP4 PUSH2 0x3205 JUMP JUMPDEST SWAP2 POP PUSH2 0x4886 DUP3 PUSH2 0x481F JUMP JUMPDEST PUSH1 0x40 DUP3 ADD SWAP1 POP SWAP2 SWAP1 POP JUMP JUMPDEST PUSH1 0x0 PUSH1 0x20 DUP3 ADD SWAP1 POP DUP2 DUP2 SUB PUSH1 0x0 DUP4 ADD MSTORE PUSH2 0x48AA DUP2 PUSH2 0x486E JUMP JUMPDEST SWAP1 POP SWAP2 SWAP1 POP JUMP JUMPDEST PUSH32 0x4E487B7100000000000000000000000000000000000000000000000000000000 PUSH1 0x0 MSTORE PUSH1 0x11 PUSH1 0x4 MSTORE PUSH1 0x24 PUSH1 0x0 REVERT JUMPDEST PUSH1 0x0 PUSH2 0x48EB DUP3 PUSH2 0x32AC JUMP JUMPDEST SWAP2 POP PUSH2 0x48F6 DUP4 PUSH2 0x32AC JUMP JUMPDEST SWAP3 POP DUP3 DUP3 MUL PUSH2 0x4904 DUP2 PUSH2 0x32AC JUMP JUMPDEST SWAP2 POP DUP3 DUP3 DIV DUP5 EQ DUP4 ISZERO OR PUSH2 0x491B JUMPI PUSH2 0x491A PUSH2 0x48B1 JUMP JUMPDEST JUMPDEST POP SWAP3 SWAP2 POP POP JUMP JUMPDEST PUSH1 0x0 PUSH2 0x492D DUP3 PUSH2 0x32AC JUMP JUMPDEST SWAP2 POP PUSH2 0x4938 DUP4 PUSH2 0x32AC JUMP JUMPDEST SWAP3 POP DUP3 DUP3 ADD SWAP1 POP DUP1 DUP3 GT ISZERO PUSH2 0x4950 JUMPI PUSH2 0x494F PUSH2 0x48B1 JUMP JUMPDEST JUMPDEST SWAP3 SWAP2 POP POP JUMP JUMPDEST PUSH1 0x0 PUSH2 0x4961 DUP3 PUSH2 0x32AC JUMP JUMPDEST SWAP2 POP PUSH1 0x0 DUP3 SUB PUSH2 0x4974 JUMPI PUSH2 0x4973 PUSH2 0x48B1 JUMP JUMPDEST JUMPDEST PUSH1 0x1 DUP3 SUB SWAP1 POP SWAP2 SWAP1 POP JUMP JUMPDEST PUSH32 0x537472696E67733A20686578206C656E67746820696E73756666696369656E74 PUSH1 0x0 DUP3 ADD MSTORE POP JUMP JUMPDEST PUSH1 0x0 PUSH2 0x49B5 PUSH1 0x20 DUP4 PUSH2 0x3205 JUMP JUMPDEST SWAP2 POP PUSH2 0x49C0 DUP3 PUSH2 0x497F JUMP JUMPDEST PUSH1 0x20 DUP3 ADD SWAP1 POP SWAP2 SWAP1 POP JUMP JUMPDEST PUSH1 0x0 PUSH1 0x20 DUP3 ADD SWAP1 POP DUP2 DUP2 SUB PUSH1 0x0 DUP4 ADD MSTORE PUSH2 0x49E4 DUP2 PUSH2 0x49A8 JUMP JUMPDEST SWAP1 POP SWAP2 SWAP1 POP JUMP JUMPDEST PUSH1 0x0 PUSH2 0x49F6 DUP3 PUSH2 0x32AC JUMP JUMPDEST SWAP2 POP PUSH2 0x4A01 DUP4 PUSH2 0x32AC JUMP JUMPDEST SWAP3 POP DUP3 DUP3 SUB SWAP1 POP DUP2 DUP2 GT ISZERO PUSH2 0x4A19 JUMPI PUSH2 0x4A18 PUSH2 0x48B1 JUMP JUMPDEST JUMPDEST SWAP3 SWAP2 POP POP JUMP JUMPDEST PUSH32 0x4E487B7100000000000000000000000000000000000000000000000000000000 PUSH1 0x0 MSTORE PUSH1 0x31 PUSH1 0x4 MSTORE PUSH1 0x24 PUSH1 0x0 REVERT JUMPDEST PUSH32 0x455243373231456E756D657261626C653A20636F6E7365637574697665207472 PUSH1 0x0 DUP3 ADD MSTORE PUSH32 0x616E7366657273206E6F7420737570706F727465640000000000000000000000 PUSH1 0x20 DUP3 ADD MSTORE POP JUMP JUMPDEST PUSH1 0x0 PUSH2 0x4AAA PUSH1 0x35 DUP4 PUSH2 0x3205 JUMP JUMPDEST SWAP2 POP PUSH2 0x4AB5 DUP3 PUSH2 0x4A4E JUMP JUMPDEST PUSH1 0x40 DUP3 ADD SWAP1 POP SWAP2 SWAP1 POP JUMP JUMPDEST PUSH1 0x0 PUSH1 0x20 DUP3 ADD SWAP1 POP DUP2 DUP2 SUB PUSH1 0x0 DUP4 ADD MSTORE PUSH2 0x4AD9 DUP2 PUSH2 0x4A9D JUMP JUMPDEST SWAP1 POP SWAP2 SWAP1 POP JUMP INVALID LOG2 PUSH5 0x6970667358 0x22 SLT KECCAK256 0xE9 0xE7 0xB3 0xE7 CREATE2 LOG3 0x2B 0xCF MULMOD NUMBER PUSH18 0x347B238C136B84B1544398FC43FCB5505F21 SWAP12 PUSH17 0x5B64736F6C634300081300330000000000 "},"methodIdentifiers":{"DEFAULT_ADMIN_ROLE()":"a217fddf","MINTER_ROLE()":"d5391393","PAUSER_ROLE()":"e63ab1e9","approve(address,uint256)":"095ea7b3","balanceOf(address)":"70a08231","burn(uint256)":"42966c68","getApproved(uint256)":"081812fc","getRoleAdmin(bytes32)":"248a9ca3","getRoleMember(bytes32,uint256)":"9010d07c","getRoleMemberCount(bytes32)":"ca15c873","grantRole(bytes32,address)":"2f2ff15d","hasRole(bytes32,address)":"91d14854","isApprovedForAll(address,address)":"e985e9c5","mint(address)":"6a627842","name()":"06fdde03","ownerOf(uint256)":"6352211e","pause()":"8456cb59","paused()":"5c975abb","renounceRole(bytes32,address)":"36568abe","revokeRole(bytes32,address)":"d547741f","safeTransferFrom(address,address,uint256)":"42842e0e","safeTransferFrom(address,address,uint256,bytes)":"b88d4fde","setApprovalForAll(address,bool)":"a22cb465","setBaseURI(string)":"55f804b3","supportsInterface(bytes4)":"01ffc9a7","symbol()":"95d89b41","tokenByIndex(uint256)":"4f6ccce7","tokenOfOwnerByIndex(address,uint256)":"2f745c59","tokenURI(uint256)":"c87b56dd","totalSupply()":"18160ddd","transferFrom(address,address,uint256)":"23b872dd","unpause()":"3f4ba83a"}}}}}