{"contracts/WatchersRingMinter.sol":{"WatchersRingMinter":{"abi":[{"inputs":[{"internalType":"contract IWatchersRing","name":"_watchersRing","type":"address"}],"stateMutability":"nonpayable","type":"constructor"},{"inputs":[],"name":"Address0Error","type":"error"},{"inputs":[],"name":"ClaimWithoutPurchase","type":"error"},{"inputs":[],"name":"DeniedProcessDuringMinting","type":"error"},{"inputs":[{"internalType":"uint256","name":"sended_values","type":"uint256"},{"internalType":"uint256","name":"expected","type":"uint256"}],"name":"GivenValuesNotValid","type":"error"},{"inputs":[],"name":"IncorrectPurchaseLimit","type":"error"},{"inputs":[],"name":"MisconfiguredPrices","type":"error"},{"inputs":[{"internalType":"uint256","name":"correct_date","type":"uint256"},{"internalType":"uint256","name":"current_date","type":"uint256"}],"name":"WrongDateForProcess","type":"error"},{"anonymous":false,"inputs":[{"indexed":true,"internalType":"address","name":"previousOwner","type":"address"},{"indexed":true,"internalType":"address","name":"newOwner","type":"address"}],"name":"OwnershipTransferred","type":"event"},{"inputs":[],"name":"claimlistMerkleRoot","outputs":[{"internalType":"bytes32","name":"","type":"bytes32"}],"stateMutability":"view","type":"function"},{"inputs":[{"internalType":"uint256","name":"numRings","type":"uint256"},{"internalType":"uint256","name":"claimedMaxRings","type":"uint256"},{"internalType":"bytes32[]","name":"_merkleProof","type":"bytes32[]"}],"name":"claimlistMint","outputs":[],"stateMutability":"payable","type":"function"},{"inputs":[{"internalType":"address","name":"","type":"address"}],"name":"claimlistMinted","outputs":[{"internalType":"uint256","name":"","type":"uint256"}],"stateMutability":"view","type":"function"},{"inputs":[],"name":"claimsStartTime","outputs":[{"internalType":"uint256","name":"","type":"uint256"}],"stateMutability":"view","type":"function"},{"inputs":[],"name":"claimsStarted","outputs":[{"internalType":"bool","name":"","type":"bool"}],"stateMutability":"view","type":"function"},{"inputs":[{"internalType":"contract IERC20","name":"_token","type":"address"},{"internalType":"uint256","name":"_amount","type":"uint256"}],"name":"forwardERC20s","outputs":[],"stateMutability":"nonpayable","type":"function"},{"inputs":[],"name":"getAddressesWhoMinted","outputs":[{"internalType":"address[]","name":"","type":"address[]"}],"stateMutability":"view","type":"function"},{"inputs":[],"name":"getAvailableRings","outputs":[{"internalType":"uint256","name":"","type":"uint256"}],"stateMutability":"view","type":"function"},{"inputs":[],"name":"getInitialRings","outputs":[{"internalType":"uint256","name":"","type":"uint256"}],"stateMutability":"view","type":"function"},{"inputs":[],"name":"getProbabilities","outputs":[{"internalType":"uint256[]","name":"","type":"uint256[]"}],"stateMutability":"view","type":"function"},{"inputs":[],"name":"getRingPrice","outputs":[{"internalType":"uint256","name":"","type":"uint256"}],"stateMutability":"view","type":"function"},{"inputs":[{"internalType":"uint256","name":"tokenId","type":"uint256"}],"name":"getTokenIdRingType","outputs":[{"internalType":"uint256","name":"","type":"uint256"}],"stateMutability":"pure","type":"function"},{"inputs":[],"name":"getTotalMintedRings","outputs":[{"internalType":"uint256","name":"","type":"uint256"}],"stateMutability":"view","type":"function"},{"inputs":[],"name":"getTotalMintedRingsByType","outputs":[{"internalType":"uint256[]","name":"","type":"uint256[]"}],"stateMutability":"view","type":"function"},{"inputs":[{"internalType":"uint256","name":"numRings","type":"uint256"}],"name":"mint","outputs":[],"stateMutability":"payable","type":"function"},{"inputs":[],"name":"mintlistMerkleRoot1","outputs":[{"internalType":"bytes32","name":"","type":"bytes32"}],"stateMutability":"view","type":"function"},{"inputs":[],"name":"mintlistMerkleRoot2","outputs":[{"internalType":"bytes32","name":"","type":"bytes32"}],"stateMutability":"view","type":"function"},{"inputs":[{"internalType":"uint256","name":"numRings","type":"uint256"},{"internalType":"uint256","name":"claimedMaxRings","type":"uint256"},{"internalType":"bytes32[]","name":"_merkleProof","type":"bytes32[]"}],"name":"mintlistMint","outputs":[],"stateMutability":"payable","type":"function"},{"inputs":[{"internalType":"address","name":"","type":"address"}],"name":"mintlistMinted","outputs":[{"internalType":"uint256","name":"","type":"uint256"}],"stateMutability":"view","type":"function"},{"inputs":[],"name":"mintlistStartTime","outputs":[{"internalType":"uint256","name":"","type":"uint256"}],"stateMutability":"view","type":"function"},{"inputs":[],"name":"mintlistStarted","outputs":[{"internalType":"bool","name":"","type":"bool"}],"stateMutability":"view","type":"function"},{"inputs":[],"name":"owner","outputs":[{"internalType":"address","name":"","type":"address"}],"stateMutability":"view","type":"function"},{"inputs":[{"internalType":"enum IWatchersRing.WatchersRingType[]","name":"ringTypes","type":"uint8[]"},{"internalType":"address[]","name":"recipients","type":"address[]"}],"name":"ownerMint","outputs":[],"stateMutability":"nonpayable","type":"function"},{"inputs":[],"name":"publicMintStartTime","outputs":[{"internalType":"uint256","name":"","type":"uint256"}],"stateMutability":"view","type":"function"},{"inputs":[],"name":"publicStarted","outputs":[{"internalType":"bool","name":"","type":"bool"}],"stateMutability":"view","type":"function"},{"inputs":[],"name":"renounceOwnership","outputs":[],"stateMutability":"nonpayable","type":"function"},{"inputs":[],"name":"ringGlobalOffset","outputs":[{"internalType":"uint256","name":"","type":"uint256"}],"stateMutability":"view","type":"function"},{"inputs":[],"name":"ringPrice","outputs":[{"internalType":"uint256","name":"","type":"uint256"}],"stateMutability":"view","type":"function"},{"inputs":[{"internalType":"uint256","name":"","type":"uint256"}],"name":"ringTypeLocalOffset","outputs":[{"internalType":"uint256","name":"","type":"uint256"}],"stateMutability":"view","type":"function"},{"inputs":[{"internalType":"uint256","name":"","type":"uint256"}],"name":"ringsMinted","outputs":[{"internalType":"uint256","name":"","type":"uint256"}],"stateMutability":"view","type":"function"},{"inputs":[{"internalType":"bytes32","name":"newMerkleRoot","type":"bytes32"}],"name":"setClaimlistMerkleRoot","outputs":[],"stateMutability":"nonpayable","type":"function"},{"inputs":[{"internalType":"uint256","name":"_newClaimsStartTime","type":"uint256"}],"name":"setClaimsStartTime","outputs":[],"stateMutability":"nonpayable","type":"function"},{"inputs":[{"internalType":"uint256","name":"_newGlobalIdOffset","type":"uint256"}],"name":"setGlobalIdOffset","outputs":[],"stateMutability":"nonpayable","type":"function"},{"inputs":[{"internalType":"uint256[]","name":"_newRingTypeLocalOffset","type":"uint256[]"}],"name":"setLocalIdOffsets","outputs":[],"stateMutability":"nonpayable","type":"function"},{"inputs":[{"internalType":"bytes32","name":"newMerkleRoot","type":"bytes32"}],"name":"setMintlistMerkleRoot1","outputs":[],"stateMutability":"nonpayable","type":"function"},{"inputs":[{"internalType":"bytes32","name":"newMerkleRoot","type":"bytes32"}],"name":"setMintlistMerkleRoot2","outputs":[],"stateMutability":"nonpayable","type":"function"},{"inputs":[{"internalType":"uint256","name":"_newAllowlistMintStartTime","type":"uint256"}],"name":"setMintlistStartTime","outputs":[],"stateMutability":"nonpayable","type":"function"},{"inputs":[{"internalType":"uint256","name":"_newPrice","type":"uint256"}],"name":"setPrice","outputs":[],"stateMutability":"nonpayable","type":"function"},{"inputs":[{"internalType":"uint256[]","name":"_newProbabilities","type":"uint256[]"}],"name":"setProbabilities","outputs":[],"stateMutability":"nonpayable","type":"function"},{"inputs":[{"internalType":"uint256","name":"_newPublicMintStartTime","type":"uint256"}],"name":"setPublicMintStartTime","outputs":[],"stateMutability":"nonpayable","type":"function"},{"inputs":[{"internalType":"uint256","name":"_newRingsAvailable","type":"uint256"}],"name":"setRingsAvailable","outputs":[],"stateMutability":"nonpayable","type":"function"},{"inputs":[{"internalType":"address payable","name":"_newVaultAddress","type":"address"}],"name":"setVaultAddress","outputs":[],"stateMutability":"nonpayable","type":"function"},{"inputs":[{"internalType":"contract IWatchersRing","name":"_newWatchersRingAddress","type":"address"}],"name":"setWatchersRing","outputs":[],"stateMutability":"nonpayable","type":"function"},{"inputs":[{"internalType":"address","name":"newOwner","type":"address"}],"name":"transferOwnership","outputs":[],"stateMutability":"nonpayable","type":"function"},{"inputs":[],"name":"vault","outputs":[{"internalType":"address payable","name":"","type":"address"}],"stateMutability":"view","type":"function"},{"inputs":[],"name":"watchersRing","outputs":[{"internalType":"contract IWatchersRing","name":"","type":"address"}],"stateMutability":"view","type":"function"},{"inputs":[{"internalType":"uint256","name":"_amount","type":"uint256"}],"name":"withdraw","outputs":[],"stateMutability":"nonpayable","type":"function"},{"inputs":[],"name":"withdrawAll","outputs":[],"stateMutability":"nonpayable","type":"function"}],"evm":{"bytecode":{"linkReferences":{},"object":"60806040526102bc6004556000600555604051806101000160405280600e60ff168152602001600e60ff168152602001600e60ff168152602001600e60ff168152602001600e60ff168152602001600e60ff168152602001600e60ff168152602001600260ff1681525060069060086200007b9291906200042f565b50604051806101000160405280600160ff168152602001600160ff168152602001600160ff168152602001600160ff168152602001600160ff168152602001600160ff168152602001600160ff168152602001600160ff168152506007906008620000e89291906200042f565b5060016008557fffffffffffffffffffffffffffffffffffffffffffffffffffffffffffffffff6009557fffffffffffffffffffffffffffffffffffffffffffffffffffffffffffffffff600a557fffffffffffffffffffffffffffffffffffffffffffffffffffffffffffffffff600b557fffffffffffffffffffffffffffffffffffffffffffffffffffffffffffffffff600c553480156200018b57600080fd5b5060405162004552380380620045528339818101604052810190620001b1919062000523565b620001d1620001c56200020160201b60201c565b6200020960201b60201c565b60018081905550620001e981620002cd60201b60201c565b620001fa336200032160201b60201c565b50620005d8565b600033905090565b60008060009054906101000a900473ffffffffffffffffffffffffffffffffffffffff169050816000806101000a81548173ffffffffffffffffffffffffffffffffffffffff021916908373ffffffffffffffffffffffffffffffffffffffff1602179055508173ffffffffffffffffffffffffffffffffffffffff168173ffffffffffffffffffffffffffffffffffffffff167f8be0079c531659141344cd1fd0a4f28419497f9722a3daafe3b4186f6b6457e060405160405180910390a35050565b620002dd6200037560201b60201c565b80600260006101000a81548173ffffffffffffffffffffffffffffffffffffffff021916908373ffffffffffffffffffffffffffffffffffffffff16021790555050565b620003316200037560201b60201c565b80600360006101000a81548173ffffffffffffffffffffffffffffffffffffffff021916908373ffffffffffffffffffffffffffffffffffffffff16021790555050565b620003856200020160201b60201c565b73ffffffffffffffffffffffffffffffffffffffff16620003ab6200040660201b60201c565b73ffffffffffffffffffffffffffffffffffffffff161462000404576040517f08c379a0000000000000000000000000000000000000000000000000000000008152600401620003fb90620005b6565b60405180910390fd5b565b60008060009054906101000a900473ffffffffffffffffffffffffffffffffffffffff16905090565b82805482825590600052602060002090810192821562000473579160200282015b8281111562000472578251829060ff1690559160200191906001019062000450565b5b50905062000482919062000486565b5090565b5b80821115620004a157600081600090555060010162000487565b5090565b600080fd5b600073ffffffffffffffffffffffffffffffffffffffff82169050919050565b6000620004d782620004aa565b9050919050565b6000620004eb82620004ca565b9050919050565b620004fd81620004de565b81146200050957600080fd5b50565b6000815190506200051d81620004f2565b92915050565b6000602082840312156200053c576200053b620004a5565b5b60006200054c848285016200050c565b91505092915050565b600082825260208201905092915050565b7f4f776e61626c653a2063616c6c6572206973206e6f7420746865206f776e6572600082015250565b60006200059e60208362000555565b9150620005ab8262000566565b602082019050919050565b60006020820190508181036000830152620005d1816200058f565b9050919050565b613f6a80620005e86000396000f3fe6080604052600436106102935760003560e01c80638d56a17b1161015a578063cc644fd2116100c1578063df477ead1161007a578063df477ead14610979578063e49618c1146109a4578063f0c821de146109e1578063f2fde38b14610a0c578063f4cde4c014610a35578063fbfa77cf14610a6057610293565b8063cc644fd21461088e578063cef58283146108b7578063d012468f146108e0578063d3cf00a3146108fc578063d6117b3e14610927578063dc37dc641461095057610293565b80639f0664b5116101135780639f0664b5146107a1578063a0712d68146107ca578063a0e52f89146107e6578063a637f97314610811578063b9a43f2e1461083a578063c2774dac1461086557610293565b80638d56a17b146106915780638da5cb5b146106bc57806391b7f5ed146106e757806393cb41471461071057806396c9f88b1461073b5780639727151a1461077857610293565b806346bf289f116101fe5780636138f236116101b75780636138f236146105a95780636e1a1a60146105e6578063715018a61461060f578063853828b61461062657806385535cc51461063d5780638c6d8ef61461066657610293565b806346bf289f146104b85780634907fc0c146104e35780634c3db84d1461050e5780634ed1eb241461052a5780635242a493146105555780635fcd80a61461058057610293565b8063260c088611610250578063260c0886146103aa5780632701b325146103d35780632ce82a71146104105780632e1a7d4d1461043b5780633e97414f14610464578063411d13f71461048f57610293565b8063062f7b8c14610298578063158ae298146102c35780631af3ba81146103005780631c7f4a021461032b578063205ed382146103565780632560e3761461037f575b600080fd5b3480156102a457600080fd5b506102ad610a8b565b6040516102ba9190612b13565b60405180910390f35b3480156102cf57600080fd5b506102ea60048036038101906102e59190612b6b565b610ae3565b6040516102f79190612ba7565b60405180910390f35b34801561030c57600080fd5b50610315610afb565b6040516103229190612ba7565b60405180910390f35b34801561033757600080fd5b50610340610b01565b60405161034d9190612bdb565b60405180910390f35b34801561036257600080fd5b5061037d60048036038101906103789190612b6b565b610b07565b005b34801561038b57600080fd5b50610394610b58565b6040516103a19190612bdb565b60405180910390f35b3480156103b657600080fd5b506103d160048036038101906103cc9190612b6b565b610b5e565b005b3480156103df57600080fd5b506103fa60048036038101906103f59190612b6b565b610b70565b6040516104079190612ba7565b60405180910390f35b34801561041c57600080fd5b50610425610b7d565b6040516104329190612b13565b60405180910390f35b34801561044757600080fd5b50610462600480360381019061045d9190612b6b565b610d7b565b005b34801561047057600080fd5b50610479610e55565b6040516104869190612c11565b60405180910390f35b34801561049b57600080fd5b506104b660048036038101906104b19190612c58565b610e62565b005b3480156104c457600080fd5b506104cd610e74565b6040516104da9190612ba7565b60405180910390f35b3480156104ef57600080fd5b506104f8610f6d565b6040516105059190612d75565b60405180910390f35b61052860048036038101906105239190612dfc565b611003565b005b34801561053657600080fd5b5061053f611214565b60405161054c9190612bdb565b60405180910390f35b34801561056157600080fd5b5061056a61121a565b6040516105779190612ba7565b60405180910390f35b34801561058c57600080fd5b506105a760048036038101906105a29190612b6b565b611220565b005b3480156105b557600080fd5b506105d060048036038101906105cb9190612e9c565b611232565b6040516105dd9190612ba7565b60405180910390f35b3480156105f257600080fd5b5061060d60048036038101906106089190612b6b565b61124a565b005b34801561061b57600080fd5b5061062461125c565b005b34801561063257600080fd5b5061063b611270565b005b34801561064957600080fd5b50610664600480360381019061065f9190612f07565b611349565b005b34801561067257600080fd5b5061067b611395565b6040516106889190612c11565b60405180910390f35b34801561069d57600080fd5b506106a66113a2565b6040516106b39190612ba7565b60405180910390f35b3480156106c857600080fd5b506106d16113a8565b6040516106de9190612f43565b60405180910390f35b3480156106f357600080fd5b5061070e60048036038101906107099190612b6b565b6113d1565b005b34801561071c57600080fd5b50610725611422565b6040516107329190612c11565b60405180910390f35b34801561074757600080fd5b50610762600480360381019061075d9190612b6b565b61142f565b60405161076f9190612ba7565b60405180910390f35b34801561078457600080fd5b5061079f600480360381019061079a9190612f9c565b611453565b005b3480156107ad57600080fd5b506107c860048036038101906107c39190613088565b611544565b005b6107e460048036038101906107df9190612b6b565b61182e565b005b3480156107f257600080fd5b506107fb61184a565b6040516108089190612ba7565b60405180910390f35b34801561081d57600080fd5b5061083860048036038101906108339190612b6b565b611854565b005b34801561084657600080fd5b5061084f6118a5565b60405161085c9190612ba7565b60405180910390f35b34801561087157600080fd5b5061088c60048036038101906108879190612c58565b6119ae565b005b34801561089a57600080fd5b506108b560048036038101906108b0919061315f565b6119c0565b005b3480156108c357600080fd5b506108de60048036038101906108d99190612c58565b611a6b565b005b6108fa60048036038101906108f59190612dfc565b611a7d565b005b34801561090857600080fd5b50610911611d2a565b60405161091e9190612ba7565b60405180910390f35b34801561093357600080fd5b5061094e6004803603810190610949919061315f565b611d30565b005b34801561095c57600080fd5b50610977600480360381019061097291906131ea565b611e6e565b005b34801561098557600080fd5b5061098e611eba565b60405161099b9190612ba7565b60405180910390f35b3480156109b057600080fd5b506109cb60048036038101906109c69190612e9c565b611ec4565b6040516109d89190612ba7565b60405180910390f35b3480156109ed57600080fd5b506109f6611edc565b604051610a039190613276565b60405180910390f35b348015610a1857600080fd5b50610a336004803603810190610a2e9190612e9c565b611f02565b005b348015610a4157600080fd5b50610a4a611f85565b604051610a579190612ba7565b60405180910390f35b348015610a6c57600080fd5b50610a75611f8b565b604051610a8291906132a0565b60405180910390f35b60606006805480602002602001604051908101604052809291908181526020018280548015610ad957602002820191906000526020600020905b815481526020019060010190808311610ac5575b5050505050905090565b60106020528060005260406000206000915090505481565b60095481565b600e5481565b610b0f611fb1565b610b17611422565b15610b4e576040517ff2a84b6300000000000000000000000000000000000000000000000000000000815260040160405180910390fd5b8060048190555050565b600f5481565b610b66611fb1565b80600c8190555050565b600060ff82169050919050565b60606000600867ffffffffffffffff811115610b9c57610b9b6132bb565b5b604051908082528060200260200182016040528015610bca5781602001602082028036833780820191505090505b509050601060008081526020019081526020016000205481600081518110610bf557610bf46132ea565b5b60200260200101818152505060106000600181526020019081526020016000205481600181518110610c2a57610c296132ea565b5b60200260200101818152505060106000600281526020019081526020016000205481600281518110610c5f57610c5e6132ea565b5b60200260200101818152505060106000600381526020019081526020016000205481600381518110610c9457610c936132ea565b5b60200260200101818152505060106000600481526020019081526020016000205481600481518110610cc957610cc86132ea565b5b60200260200101818152505060106000600581526020019081526020016000205481600581518110610cfe57610cfd6132ea565b5b60200260200101818152505060106000600681526020019081526020016000205481600681518110610d3357610d326132ea565b5b60200260200101818152505060106000600781526020019081526020016000205481600781518110610d6857610d676132ea565b5b6020026020010181815250508091505090565b610d83611fb1565b6000600360009054906101000a900473ffffffffffffffffffffffffffffffffffffffff1673ffffffffffffffffffffffffffffffffffffffff1682604051610dcb9061334a565b60006040518083038185875af1925050503d8060008114610e08576040519150601f19603f3d011682016040523d82523d6000602084013e610e0d565b606091505b5050905080610e51576040517f08c379a0000000000000000000000000000000000000000000000000000000008152600401610e48906133bc565b60405180910390fd5b5050565b6000600c54421015905090565b610e6a611fb1565b80600f8190555050565b6000806010600060078152602001908152602001600020546010600060068152602001908152602001600020546010600060058152602001908152602001600020546010600060048152602001908152602001600020546010600060038152602001908152602001600020546010600060028152602001908152602001600020546010600060018152602001908152602001600020546010600080815260200190815260200160002054610f28919061340b565b610f32919061340b565b610f3c919061340b565b610f46919061340b565b610f50919061340b565b610f5a919061340b565b610f64919061340b565b90508091505090565b6060610f77611fb1565b6013805480602002602001604051908101604052809291908181526020018280548015610ff957602002820191906000526020600020905b8160009054906101000a900473ffffffffffffffffffffffffffffffffffffffff1673ffffffffffffffffffffffffffffffffffffffff1681526020019060010190808311610faf575b5050505050905090565b61100b61202f565b611013610e55565b61105857600c54426040517f66803fc100000000000000000000000000000000000000000000000000000000815260040161104f92919061343f565b60405180910390fd5b6000338460405160200161106d929190613528565b6040516020818303038152906040528051906020012090506110d3838380806020026020016040519081016040528093929190818152602001838360200280828437600081840152601f19601f82011690508083019250505050505050600f548361207e565b611112576040517f08c379a0000000000000000000000000000000000000000000000000000000008152600401611109906135ab565b60405180910390fd5b6000601260003373ffffffffffffffffffffffffffffffffffffffff1673ffffffffffffffffffffffffffffffffffffffff168152602001908152602001600020549050848682611163919061340b565b11156111a4576040517f08c379a000000000000000000000000000000000000000000000000000000000815260040161119b90613617565b60405180910390fd5b85601260003373ffffffffffffffffffffffffffffffffffffffff1673ffffffffffffffffffffffffffffffffffffffff16815260200190815260200160002060008282546111f3919061340b565b925050819055506112048633612095565b505061120e61237d565b50505050565b600d5481565b60085481565b611228611fb1565b80600a8190555050565b60126020528060005260406000206000915090505481565b611252611fb1565b80600b8190555050565b611264611fb1565b61126e6000612386565b565b611278611fb1565b6000600360009054906101000a900473ffffffffffffffffffffffffffffffffffffffff1673ffffffffffffffffffffffffffffffffffffffff16476040516112c09061334a565b60006040518083038185875af1925050503d80600081146112fd576040519150601f19603f3d011682016040523d82523d6000602084013e611302565b606091505b5050905080611346576040517f08c379a000000000000000000000000000000000000000000000000000000000815260040161133d90613683565b60405180910390fd5b50565b611351611fb1565b80600360006101000a81548173ffffffffffffffffffffffffffffffffffffffff021916908373ffffffffffffffffffffffffffffffffffffffff16021790555050565b6000600a54421015905090565b600c5481565b60008060009054906101000a900473ffffffffffffffffffffffffffffffffffffffff16905090565b6113d9611fb1565b6113e1611422565b15611418576040517ff2a84b6300000000000000000000000000000000000000000000000000000000815260040160405180910390fd5b8060098190555050565b6000600b54421015905090565b6007818154811061143f57600080fd5b906000526020600020016000915090505481565b61145b611fb1565b600073ffffffffffffffffffffffffffffffffffffffff163373ffffffffffffffffffffffffffffffffffffffff16036114c1576040517f48ac165200000000000000000000000000000000000000000000000000000000815260040160405180910390fd5b8173ffffffffffffffffffffffffffffffffffffffff1663a9059cbb33836040518363ffffffff1660e01b81526004016114fc9291906136a3565b6020604051808303816000875af115801561151b573d6000803e3d6000fd5b505050506040513d601f19601f8201168201806040525081019061153f91906136f8565b505050565b61154c611fb1565b818190508484905014611594576040517f08c379a000000000000000000000000000000000000000000000000000000000815260040161158b90613797565b60405180910390fd5b60005b8282905081101561182757600015156115d68484848181106115bc576115bb6132ea565b5b90506020020160208101906115d19190612e9c565b61244a565b151514611618576040517f08c379a000000000000000000000000000000000000000000000000000000000815260040161160f90613803565b60405180910390fd5b600061164a8686848181106116305761162f6132ea565b5b90506020020160208101906116459190613848565b6124f8565b905060106000878785818110611663576116626132ea565b5b90506020020160208101906116789190613848565b600781111561168a57611689613875565b5b8152602001908152602001600020600081546116a5906138a4565b91905081905550600260009054906101000a900473ffffffffffffffffffffffffffffffffffffffff1673ffffffffffffffffffffffffffffffffffffffff166386ebf0108585858181106116fd576116fc6132ea565b5b90506020020160208101906117129190612e9c565b83898987818110611726576117256132ea565b5b905060200201602081019061173b9190613848565b6040518463ffffffff1660e01b815260040161175993929190613934565b600060405180830381600087803b15801561177357600080fd5b505af1158015611787573d6000803e3d6000fd5b5050505060138484848181106117a05761179f6132ea565b5b90506020020160208101906117b59190612e9c565b9080600181540180825580915050600190039060005260206000200160009091909190916101000a81548173ffffffffffffffffffffffffffffffffffffffff021916908373ffffffffffffffffffffffffffffffffffffffff1602179055505080611820906138a4565b9050611597565b5050505050565b61183661202f565b61183f81612733565b61184761237d565b50565b6000600954905090565b61185c611fb1565b611864611422565b1561189b576040517ff2a84b6300000000000000000000000000000000000000000000000000000000815260040160405180910390fd5b8060088190555050565b6000806004549050601060006007815260200190815260200160002054601060006006815260200190815260200160002054601060006005815260200190815260200160002054601060006004815260200190815260200160002054601060006003815260200190815260200160002054601060006002815260200190815260200160002054601060006001815260200190815260200160002054601060008081526020019081526020016000205461195e919061340b565b611968919061340b565b611972919061340b565b61197c919061340b565b611986919061340b565b611990919061340b565b61199a919061340b565b816119a5919061396b565b90508091505090565b6119b6611fb1565b80600e8190555050565b6119c8611fb1565b60088282905014611a16578181905060086040517f485d33a2000000000000000000000000000000000000000000000000000000008152600401611a0d9291906139da565b60405180910390fd5b611a1e611422565b15611a55576040517ff2a84b6300000000000000000000000000000000000000000000000000000000815260040160405180910390fd5b818160079190611a669291906129e1565b505050565b611a73611fb1565b80600d8190555050565b611a8561202f565b611a8d611422565b611ad257600b54426040517f66803fc1000000000000000000000000000000000000000000000000000000008152600401611ac992919061343f565b60405180910390fd5b600084111580611ae25750601484115b15611b19576040517fca02d6eb00000000000000000000000000000000000000000000000000000000815260040160405180910390fd5b60003384604051602001611b2e929190613528565b604051602081830303815290604052805190602001209050611b94838380806020026020016040519081016040528093929190818152602001838360200280828437600081840152601f19601f82011690508083019250505050505050600d548361207e565b80611be95750611be8838380806020026020016040519081016040528093929190818152602001838360200280828437600081840152601f19601f82011690508083019250505050505050600e548361207e565b5b611c28576040517f08c379a0000000000000000000000000000000000000000000000000000000008152600401611c1f906135ab565b60405180910390fd5b6000601160003373ffffffffffffffffffffffffffffffffffffffff1673ffffffffffffffffffffffffffffffffffffffff168152602001908152602001600020549050848682611c79919061340b565b1115611cba576040517f08c379a0000000000000000000000000000000000000000000000000000000008152600401611cb190613a4f565b60405180910390fd5b85601160003373ffffffffffffffffffffffffffffffffffffffff1673ffffffffffffffffffffffffffffffffffffffff1681526020019081526020016000206000828254611d09919061340b565b92505081905550611d1a86336127d4565b5050611d2461237d565b50505050565b600a5481565b611d38611fb1565b6000805b83839050811015611d8157838382818110611d5a57611d596132ea565b5b9050602002013582611d6c919061340b565b91508080611d79906138a4565b915050611d3c565b5060648114611dca578060646040517f485d33a2000000000000000000000000000000000000000000000000000000008152600401611dc1929190613aaa565b60405180910390fd5b60088383905014611e18578282905060086040517f485d33a2000000000000000000000000000000000000000000000000000000008152600401611e0f9291906139da565b60405180910390fd5b611e20611422565b15611e57576040517ff2a84b6300000000000000000000000000000000000000000000000000000000815260040160405180910390fd5b828260069190611e689291906129e1565b50505050565b611e76611fb1565b80600260006101000a81548173ffffffffffffffffffffffffffffffffffffffff021916908373ffffffffffffffffffffffffffffffffffffffff16021790555050565b6000600454905090565b60116020528060005260406000206000915090505481565b600260009054906101000a900473ffffffffffffffffffffffffffffffffffffffff1681565b611f0a611fb1565b600073ffffffffffffffffffffffffffffffffffffffff168173ffffffffffffffffffffffffffffffffffffffff1603611f79576040517f08c379a0000000000000000000000000000000000000000000000000000000008152600401611f7090613b45565b60405180910390fd5b611f8281612386565b50565b600b5481565b600360009054906101000a900473ffffffffffffffffffffffffffffffffffffffff1681565b611fb961286d565b73ffffffffffffffffffffffffffffffffffffffff16611fd76113a8565b73ffffffffffffffffffffffffffffffffffffffff161461202d576040517f08c379a000000000000000000000000000000000000000000000000000000000815260040161202490613bb1565b60405180910390fd5b565b600260015403612074576040517f08c379a000000000000000000000000000000000000000000000000000000000815260040161206b90613c1d565b60405180910390fd5b6002600181905550565b60008261208b8584612875565b1490509392505050565b3073ffffffffffffffffffffffffffffffffffffffff1663b9a43f2e6040518163ffffffff1660e01b8152600401602060405180830381865afa1580156120e0573d6000803e3d6000fd5b505050506040513d601f19601f820116820180604052508101906121049190613c52565b823073ffffffffffffffffffffffffffffffffffffffff166346bf289f6040518163ffffffff1660e01b8152600401602060405180830381865afa158015612150573d6000803e3d6000fd5b505050506040513d601f19601f820116820180604052508101906121749190613c52565b61217e919061340b565b11156121bf576040517f08c379a00000000000000000000000000000000000000000000000000000000081526004016121b690613ccb565b60405180910390fd5b60005b8281101561237857600015156121d78361244a565b151514612219576040517f08c379a000000000000000000000000000000000000000000000000000000000815260040161221090613803565b60405180910390fd5b60006122236128cb565b9050600081600781111561223a57612239613875565b5b90506000612247826124f8565b90506010600084815260200190815260200160002060008154612269906138a4565b91905081905550600260009054906101000a900473ffffffffffffffffffffffffffffffffffffffff1673ffffffffffffffffffffffffffffffffffffffff166386ebf0108683856040518463ffffffff1660e01b81526004016122cf93929190613934565b600060405180830381600087803b1580156122e957600080fd5b505af11580156122fd573d6000803e3d6000fd5b505050506013859080600181540180825580915050600190039060005260206000200160009091909190916101000a81548173ffffffffffffffffffffffffffffffffffffffff021916908373ffffffffffffffffffffffffffffffffffffffff16021790555050505080612371906138a4565b90506121c2565b505050565b60018081905550565b60008060009054906101000a900473ffffffffffffffffffffffffffffffffffffffff169050816000806101000a81548173ffffffffffffffffffffffffffffffffffffffff021916908373ffffffffffffffffffffffffffffffffffffffff1602179055508173ffffffffffffffffffffffffffffffffffffffff168173ffffffffffffffffffffffffffffffffffffffff167f8be0079c531659141344cd1fd0a4f28419497f9722a3daafe3b4186f6b6457e060405160405180910390a35050565b6000806000905060005b6013805490508110156124ee5760138181548110612475576124746132ea565b5b9060005260206000200160009054906101000a900473ffffffffffffffffffffffffffffffffffffffff1673ffffffffffffffffffffffffffffffffffffffff168473ffffffffffffffffffffffffffffffffffffffff16036124db57600191506124ee565b80806124e6906138a4565b915050612454565b5080915050919050565b60008060085460106000600781526020019081526020016000205460106000600681526020019081526020016000205460106000600581526020019081526020016000205460106000600481526020019081526020016000205460106000600381526020019081526020016000205460106000600281526020019081526020016000205460106000600181526020019081526020016000205460106000808152602001908152602001600020546125af919061340b565b6125b9919061340b565b6125c3919061340b565b6125cd919061340b565b6125d7919061340b565b6125e1919061340b565b6125eb919061340b565b6125f5919061340b565b90506000600784600781111561260e5761260d613875565b5b8154811061261f5761261e6132ea565b5b90600052602060002001546010600086600781111561264157612640613875565b5b81526020019081526020016000205461265a919061340b565b905063ffffffff8111156126a3576040517f08c379a000000000000000000000000000000000000000000000000000000000815260040161269a90613d37565b60405180910390fd5b60ff8460078111156126b8576126b7613875565b5b11156126f9576040517f08c379a00000000000000000000000000000000000000000000000000000000081526004016126f090613da3565b60405180910390fd5b83600781111561270c5761270b613875565b5b600882901b602884901b612720919061340b565b61272a919061340b565b92505050919050565b61273b611395565b61278057600a54426040517f66803fc100000000000000000000000000000000000000000000000000000000815260040161277792919061343f565b60405180910390fd5b6000811115806127905750601481115b156127c7576040517fca02d6eb00000000000000000000000000000000000000000000000000000000815260040160405180910390fd5b6127d181336127d4565b50565b600060095411612810576040517fc5fadba600000000000000000000000000000000000000000000000000000000815260040160405180910390fd5b8160095461281e9190613dc3565b341461285f576040517f08c379a000000000000000000000000000000000000000000000000000000000815260040161285690613e77565b60405180910390fd5b6128698282612095565b5050565b600033905090565b60008082905060005b84518110156128c0576128ab8286838151811061289e5761289d6132ea565b5b602002602001015161299f565b915080806128b8906138a4565b91505061287e565b508091505092915050565b60008060009050600560008154809291906128e5906138a4565b9190505550600060016064423360055460405160200161290793929190613e97565b6040516020818303038152906040528051906020012060001c61292a9190613f03565b612934919061340b565b90506000805b600680549050811015612995576006818154811061295b5761295a6132ea565b5b906000526020600020015482612971919061340b565b915081831161298257809350612995565b808061298d906138a4565b91505061293a565b5082935050505090565b60008183106129b7576129b282846129ca565b6129c2565b6129c183836129ca565b5b905092915050565b600082600052816020526040600020905092915050565b828054828255906000526020600020908101928215612a1d579160200282015b82811115612a1c578235825591602001919060010190612a01565b5b509050612a2a9190612a2e565b5090565b5b80821115612a47576000816000905550600101612a2f565b5090565b600081519050919050565b600082825260208201905092915050565b6000819050602082019050919050565b6000819050919050565b612a8a81612a77565b82525050565b6000612a9c8383612a81565b60208301905092915050565b6000602082019050919050565b6000612ac082612a4b565b612aca8185612a56565b9350612ad583612a67565b8060005b83811015612b06578151612aed8882612a90565b9750612af883612aa8565b925050600181019050612ad9565b5085935050505092915050565b60006020820190508181036000830152612b2d8184612ab5565b905092915050565b600080fd5b600080fd5b612b4881612a77565b8114612b5357600080fd5b50565b600081359050612b6581612b3f565b92915050565b600060208284031215612b8157612b80612b35565b5b6000612b8f84828501612b56565b91505092915050565b612ba181612a77565b82525050565b6000602082019050612bbc6000830184612b98565b92915050565b6000819050919050565b612bd581612bc2565b82525050565b6000602082019050612bf06000830184612bcc565b92915050565b60008115159050919050565b612c0b81612bf6565b82525050565b6000602082019050612c266000830184612c02565b92915050565b612c3581612bc2565b8114612c4057600080fd5b50565b600081359050612c5281612c2c565b92915050565b600060208284031215612c6e57612c6d612b35565b5b6000612c7c84828501612c43565b91505092915050565b600081519050919050565b600082825260208201905092915050565b6000819050602082019050919050565b600073ffffffffffffffffffffffffffffffffffffffff82169050919050565b6000612cdc82612cb1565b9050919050565b612cec81612cd1565b82525050565b6000612cfe8383612ce3565b60208301905092915050565b6000602082019050919050565b6000612d2282612c85565b612d2c8185612c90565b9350612d3783612ca1565b8060005b83811015612d68578151612d4f8882612cf2565b9750612d5a83612d0a565b925050600181019050612d3b565b5085935050505092915050565b60006020820190508181036000830152612d8f8184612d17565b905092915050565b600080fd5b600080fd5b600080fd5b60008083601f840112612dbc57612dbb612d97565b5b8235905067ffffffffffffffff811115612dd957612dd8612d9c565b5b602083019150836020820283011115612df557612df4612da1565b5b9250929050565b60008060008060608587031215612e1657612e15612b35565b5b6000612e2487828801612b56565b9450506020612e3587828801612b56565b935050604085013567ffffffffffffffff811115612e5657612e55612b3a565b5b612e6287828801612da6565b925092505092959194509250565b612e7981612cd1565b8114612e8457600080fd5b50565b600081359050612e9681612e70565b92915050565b600060208284031215612eb257612eb1612b35565b5b6000612ec084828501612e87565b91505092915050565b6000612ed482612cb1565b9050919050565b612ee481612ec9565b8114612eef57600080fd5b50565b600081359050612f0181612edb565b92915050565b600060208284031215612f1d57612f1c612b35565b5b6000612f2b84828501612ef2565b91505092915050565b612f3d81612cd1565b82525050565b6000602082019050612f586000830184612f34565b92915050565b6000612f6982612cd1565b9050919050565b612f7981612f5e565b8114612f8457600080fd5b50565b600081359050612f9681612f70565b92915050565b60008060408385031215612fb357612fb2612b35565b5b6000612fc185828601612f87565b9250506020612fd285828601612b56565b9150509250929050565b60008083601f840112612ff257612ff1612d97565b5b8235905067ffffffffffffffff81111561300f5761300e612d9c565b5b60208301915083602082028301111561302b5761302a612da1565b5b9250929050565b60008083601f84011261304857613047612d97565b5b8235905067ffffffffffffffff81111561306557613064612d9c565b5b60208301915083602082028301111561308157613080612da1565b5b9250929050565b600080600080604085870312156130a2576130a1612b35565b5b600085013567ffffffffffffffff8111156130c0576130bf612b3a565b5b6130cc87828801612fdc565b9450945050602085013567ffffffffffffffff8111156130ef576130ee612b3a565b5b6130fb87828801613032565b925092505092959194509250565b60008083601f84011261311f5761311e612d97565b5b8235905067ffffffffffffffff81111561313c5761313b612d9c565b5b60208301915083602082028301111561315857613157612da1565b5b9250929050565b6000806020838503121561317657613175612b35565b5b600083013567ffffffffffffffff81111561319457613193612b3a565b5b6131a085828601613109565b92509250509250929050565b60006131b782612cd1565b9050919050565b6131c7816131ac565b81146131d257600080fd5b50565b6000813590506131e4816131be565b92915050565b600060208284031215613200576131ff612b35565b5b600061320e848285016131d5565b91505092915050565b6000819050919050565b600061323c61323761323284612cb1565b613217565b612cb1565b9050919050565b600061324e82613221565b9050919050565b600061326082613243565b9050919050565b61327081613255565b82525050565b600060208201905061328b6000830184613267565b92915050565b61329a81612ec9565b82525050565b60006020820190506132b56000830184613291565b92915050565b7f4e487b7100000000000000000000000000000000000000000000000000000000600052604160045260246000fd5b7f4e487b7100000000000000000000000000000000000000000000000000000000600052603260045260246000fd5b600081905092915050565b50565b6000613334600083613319565b915061333f82613324565b600082019050919050565b600061335582613327565b9150819050919050565b600082825260208201905092915050565b7f776974686472617720776173206e6f742073756363657366756c6c0000000000600082015250565b60006133a6601b8361335f565b91506133b182613370565b602082019050919050565b600060208201905081810360008301526133d581613399565b9050919050565b7f4e487b7100000000000000000000000000000000000000000000000000000000600052601160045260246000fd5b600061341682612a77565b915061342183612a77565b9250828201905080821115613439576134386133dc565b5b92915050565b60006040820190506134546000830185612b98565b6134616020830184612b98565b9392505050565b60008160601b9050919050565b600061348082613468565b9050919050565b600061349282613475565b9050919050565b6134aa6134a582612cd1565b613487565b82525050565b600081905092915050565b7f3a00000000000000000000000000000000000000000000000000000000000000600082015250565b60006134f16001836134b0565b91506134fc826134bb565b600182019050919050565b6000819050919050565b61352261351d82612a77565b613507565b82525050565b60006135348285613499565b601482019150613543826134e4565b915061354f8284613511565b6020820191508190509392505050565b7f496e76616c69642070726f6f662e000000000000000000000000000000000000600082015250565b6000613595600e8361335f565b91506135a08261355f565b602082019050919050565b600060208201905081810360008301526135c481613588565b9050919050565b7f436c61696d696e67206d6f7265207468616e20616c6c6f7765642e0000000000600082015250565b6000613601601b8361335f565b915061360c826135cb565b602082019050919050565b60006020820190508181036000830152613630816135f4565b9050919050565b7f776974686472617720616c6c20776173206e6f742073756363657366756c6c00600082015250565b600061366d601f8361335f565b915061367882613637565b602082019050919050565b6000602082019050818103600083015261369c81613660565b9050919050565b60006040820190506136b86000830185612f34565b6136c56020830184612b98565b9392505050565b6136d581612bf6565b81146136e057600080fd5b50565b6000815190506136f2816136cc565b92915050565b60006020828403121561370e5761370d612b35565b5b600061371c848285016136e3565b91505092915050565b7f4172726179732073686f756c642068617665207468652073616d652073697a6560008201527f2e00000000000000000000000000000000000000000000000000000000000000602082015250565b600061378160218361335f565b915061378c82613725565b604082019050919050565b600060208201905081810360008301526137b081613774565b9050919050565b7f4164647265737320616c72656479206d696e74656420612072696e672e000000600082015250565b60006137ed601d8361335f565b91506137f8826137b7565b602082019050919050565b6000602082019050818103600083015261381c816137e0565b9050919050565b6008811061383057600080fd5b50565b60008135905061384281613823565b92915050565b60006020828403121561385e5761385d612b35565b5b600061386c84828501613833565b91505092915050565b7f4e487b7100000000000000000000000000000000000000000000000000000000600052602160045260246000fd5b60006138af82612a77565b91507fffffffffffffffffffffffffffffffffffffffffffffffffffffffffffffffff82036138e1576138e06133dc565b5b600182019050919050565b600881106138fd576138fc613875565b5b50565b600081905061390e826138ec565b919050565b600061391e82613900565b9050919050565b61392e81613913565b82525050565b60006060820190506139496000830186612f34565b6139566020830185612b98565b6139636040830184613925565b949350505050565b600061397682612a77565b915061398183612a77565b9250828203905081811115613999576139986133dc565b5b92915050565b6000819050919050565b60006139c46139bf6139ba8461399f565b613217565b612a77565b9050919050565b6139d4816139a9565b82525050565b60006040820190506139ef6000830185612b98565b6139fc60208301846139cb565b9392505050565b7f4d696e74696e67206d6f7265207468616e20616c6c6f7765642e000000000000600082015250565b6000613a39601a8361335f565b9150613a4482613a03565b602082019050919050565b60006020820190508181036000830152613a6881613a2c565b9050919050565b6000819050919050565b6000613a94613a8f613a8a84613a6f565b613217565b612a77565b9050919050565b613aa481613a79565b82525050565b6000604082019050613abf6000830185612b98565b613acc6020830184613a9b565b9392505050565b7f4f776e61626c653a206e6577206f776e657220697320746865207a65726f206160008201527f6464726573730000000000000000000000000000000000000000000000000000602082015250565b6000613b2f60268361335f565b9150613b3a82613ad3565b604082019050919050565b60006020820190508181036000830152613b5e81613b22565b9050919050565b7f4f776e61626c653a2063616c6c6572206973206e6f7420746865206f776e6572600082015250565b6000613b9b60208361335f565b9150613ba682613b65565b602082019050919050565b60006020820190508181036000830152613bca81613b8e565b9050919050565b7f5265656e7472616e637947756172643a207265656e7472616e742063616c6c00600082015250565b6000613c07601f8361335f565b9150613c1282613bd1565b602082019050919050565b60006020820190508181036000830152613c3681613bfa565b9050919050565b600081519050613c4c81612b3f565b92915050565b600060208284031215613c6857613c67612b35565b5b6000613c7684828501613c3d565b91505092915050565b7f547279696e6720746f206d696e7420746f6f206d616e792072696e67732e0000600082015250565b6000613cb5601e8361335f565b9150613cc082613c7f565b602082019050919050565b60006020820190508181036000830152613ce481613ca8565b9050919050565b7f4c6f63616c20696e646578206f766572666c6f772e0000000000000000000000600082015250565b6000613d2160158361335f565b9150613d2c82613ceb565b602082019050919050565b60006020820190508181036000830152613d5081613d14565b9050919050565b7f52696e6720696e646578206f766572666c6f772e000000000000000000000000600082015250565b6000613d8d60148361335f565b9150613d9882613d57565b602082019050919050565b60006020820190508181036000830152613dbc81613d80565b9050919050565b6000613dce82612a77565b9150613dd983612a77565b9250828202613de781612a77565b91508282048414831517613dfe57613dfd6133dc565b5b5092915050565b7f45746865722076616c75652073656e74206973206e6f7420616363757261746560008201527f2e00000000000000000000000000000000000000000000000000000000000000602082015250565b6000613e6160218361335f565b9150613e6c82613e05565b604082019050919050565b60006020820190508181036000830152613e9081613e54565b9050919050565b6000613ea38286613511565b602082019150613eb38285613499565b601482019150613ec38284613511565b602082019150819050949350505050565b7f4e487b7100000000000000000000000000000000000000000000000000000000600052601260045260246000fd5b6000613f0e82612a77565b9150613f1983612a77565b925082613f2957613f28613ed4565b5b82820690509291505056fea264697066735822122056891793d1fdbf1e8e45e28dd53717e1ca7dda272f6d5018c5d7507d940464ec64736f6c63430008120033","opcodes":"PUSH1 0x80 PUSH1 0x40 MSTORE PUSH2 0x2BC PUSH1 0x4 SSTORE PUSH1 0x0 PUSH1 0x5 SSTORE PUSH1 0x40 MLOAD DUP1 PUSH2 0x100 ADD PUSH1 0x40 MSTORE DUP1 PUSH1 0xE PUSH1 0xFF AND DUP2 MSTORE PUSH1 0x20 ADD PUSH1 0xE PUSH1 0xFF AND DUP2 MSTORE PUSH1 0x20 ADD PUSH1 0xE PUSH1 0xFF AND DUP2 MSTORE PUSH1 0x20 ADD PUSH1 0xE PUSH1 0xFF AND DUP2 MSTORE PUSH1 0x20 ADD PUSH1 0xE PUSH1 0xFF AND DUP2 MSTORE PUSH1 0x20 ADD PUSH1 0xE PUSH1 0xFF AND DUP2 MSTORE PUSH1 0x20 ADD PUSH1 0xE PUSH1 0xFF AND DUP2 MSTORE PUSH1 0x20 ADD PUSH1 0x2 PUSH1 0xFF AND DUP2 MSTORE POP PUSH1 0x6 SWAP1 PUSH1 0x8 PUSH3 0x7B SWAP3 SWAP2 SWAP1 PUSH3 0x42F JUMP JUMPDEST POP PUSH1 0x40 MLOAD DUP1 PUSH2 0x100 ADD PUSH1 0x40 MSTORE DUP1 PUSH1 0x1 PUSH1 0xFF AND DUP2 MSTORE PUSH1 0x20 ADD PUSH1 0x1 PUSH1 0xFF AND DUP2 MSTORE PUSH1 0x20 ADD PUSH1 0x1 PUSH1 0xFF AND DUP2 MSTORE PUSH1 0x20 ADD PUSH1 0x1 PUSH1 0xFF AND DUP2 MSTORE PUSH1 0x20 ADD PUSH1 0x1 PUSH1 0xFF AND DUP2 MSTORE PUSH1 0x20 ADD PUSH1 0x1 PUSH1 0xFF AND DUP2 MSTORE PUSH1 0x20 ADD PUSH1 0x1 PUSH1 0xFF AND DUP2 MSTORE PUSH1 0x20 ADD PUSH1 0x1 PUSH1 0xFF AND DUP2 MSTORE POP PUSH1 0x7 SWAP1 PUSH1 0x8 PUSH3 0xE8 SWAP3 SWAP2 SWAP1 PUSH3 0x42F JUMP JUMPDEST POP PUSH1 0x1 PUSH1 0x8 SSTORE PUSH32 0xFFFFFFFFFFFFFFFFFFFFFFFFFFFFFFFFFFFFFFFFFFFFFFFFFFFFFFFFFFFFFFFF PUSH1 0x9 SSTORE PUSH32 0xFFFFFFFFFFFFFFFFFFFFFFFFFFFFFFFFFFFFFFFFFFFFFFFFFFFFFFFFFFFFFFFF PUSH1 0xA SSTORE PUSH32 0xFFFFFFFFFFFFFFFFFFFFFFFFFFFFFFFFFFFFFFFFFFFFFFFFFFFFFFFFFFFFFFFF PUSH1 0xB SSTORE PUSH32 0xFFFFFFFFFFFFFFFFFFFFFFFFFFFFFFFFFFFFFFFFFFFFFFFFFFFFFFFFFFFFFFFF PUSH1 0xC SSTORE CALLVALUE DUP1 ISZERO PUSH3 0x18B JUMPI PUSH1 0x0 DUP1 REVERT JUMPDEST POP PUSH1 0x40 MLOAD PUSH3 0x4552 CODESIZE SUB DUP1 PUSH3 0x4552 DUP4 CODECOPY DUP2 DUP2 ADD PUSH1 0x40 MSTORE DUP2 ADD SWAP1 PUSH3 0x1B1 SWAP2 SWAP1 PUSH3 0x523 JUMP JUMPDEST PUSH3 0x1D1 PUSH3 0x1C5 PUSH3 0x201 PUSH1 0x20 SHL PUSH1 0x20 SHR JUMP JUMPDEST PUSH3 0x209 PUSH1 0x20 SHL PUSH1 0x20 SHR JUMP JUMPDEST PUSH1 0x1 DUP1 DUP2 SWAP1 SSTORE POP PUSH3 0x1E9 DUP2 PUSH3 0x2CD PUSH1 0x20 SHL PUSH1 0x20 SHR JUMP JUMPDEST PUSH3 0x1FA CALLER PUSH3 0x321 PUSH1 0x20 SHL PUSH1 0x20 SHR JUMP JUMPDEST POP PUSH3 0x5D8 JUMP JUMPDEST PUSH1 0x0 CALLER SWAP1 POP SWAP1 JUMP JUMPDEST PUSH1 0x0 DUP1 PUSH1 0x0 SWAP1 SLOAD SWAP1 PUSH2 0x100 EXP SWAP1 DIV PUSH20 0xFFFFFFFFFFFFFFFFFFFFFFFFFFFFFFFFFFFFFFFF AND SWAP1 POP DUP2 PUSH1 0x0 DUP1 PUSH2 0x100 EXP DUP2 SLOAD DUP2 PUSH20 0xFFFFFFFFFFFFFFFFFFFFFFFFFFFFFFFFFFFFFFFF MUL NOT AND SWAP1 DUP4 PUSH20 0xFFFFFFFFFFFFFFFFFFFFFFFFFFFFFFFFFFFFFFFF AND MUL OR SWAP1 SSTORE POP DUP2 PUSH20 0xFFFFFFFFFFFFFFFFFFFFFFFFFFFFFFFFFFFFFFFF AND DUP2 PUSH20 0xFFFFFFFFFFFFFFFFFFFFFFFFFFFFFFFFFFFFFFFF AND PUSH32 0x8BE0079C531659141344CD1FD0A4F28419497F9722A3DAAFE3B4186F6B6457E0 PUSH1 0x40 MLOAD PUSH1 0x40 MLOAD DUP1 SWAP2 SUB SWAP1 LOG3 POP POP JUMP JUMPDEST PUSH3 0x2DD PUSH3 0x375 PUSH1 0x20 SHL PUSH1 0x20 SHR JUMP JUMPDEST DUP1 PUSH1 0x2 PUSH1 0x0 PUSH2 0x100 EXP DUP2 SLOAD DUP2 PUSH20 0xFFFFFFFFFFFFFFFFFFFFFFFFFFFFFFFFFFFFFFFF MUL NOT AND SWAP1 DUP4 PUSH20 0xFFFFFFFFFFFFFFFFFFFFFFFFFFFFFFFFFFFFFFFF AND MUL OR SWAP1 SSTORE POP POP JUMP JUMPDEST PUSH3 0x331 PUSH3 0x375 PUSH1 0x20 SHL PUSH1 0x20 SHR JUMP JUMPDEST DUP1 PUSH1 0x3 PUSH1 0x0 PUSH2 0x100 EXP DUP2 SLOAD DUP2 PUSH20 0xFFFFFFFFFFFFFFFFFFFFFFFFFFFFFFFFFFFFFFFF MUL NOT AND SWAP1 DUP4 PUSH20 0xFFFFFFFFFFFFFFFFFFFFFFFFFFFFFFFFFFFFFFFF AND MUL OR SWAP1 SSTORE POP POP JUMP JUMPDEST PUSH3 0x385 PUSH3 0x201 PUSH1 0x20 SHL PUSH1 0x20 SHR JUMP JUMPDEST PUSH20 0xFFFFFFFFFFFFFFFFFFFFFFFFFFFFFFFFFFFFFFFF AND PUSH3 0x3AB PUSH3 0x406 PUSH1 0x20 SHL PUSH1 0x20 SHR JUMP JUMPDEST PUSH20 0xFFFFFFFFFFFFFFFFFFFFFFFFFFFFFFFFFFFFFFFF AND EQ PUSH3 0x404 JUMPI PUSH1 0x40 MLOAD PUSH32 0x8C379A000000000000000000000000000000000000000000000000000000000 DUP2 MSTORE PUSH1 0x4 ADD PUSH3 0x3FB SWAP1 PUSH3 0x5B6 JUMP JUMPDEST PUSH1 0x40 MLOAD DUP1 SWAP2 SUB SWAP1 REVERT JUMPDEST JUMP JUMPDEST PUSH1 0x0 DUP1 PUSH1 0x0 SWAP1 SLOAD SWAP1 PUSH2 0x100 EXP SWAP1 DIV PUSH20 0xFFFFFFFFFFFFFFFFFFFFFFFFFFFFFFFFFFFFFFFF AND SWAP1 POP SWAP1 JUMP JUMPDEST DUP3 DUP1 SLOAD DUP3 DUP3 SSTORE SWAP1 PUSH1 0x0 MSTORE PUSH1 0x20 PUSH1 0x0 KECCAK256 SWAP1 DUP2 ADD SWAP3 DUP3 ISZERO PUSH3 0x473 JUMPI SWAP2 PUSH1 0x20 MUL DUP3 ADD JUMPDEST DUP3 DUP2 GT ISZERO PUSH3 0x472 JUMPI DUP3 MLOAD DUP3 SWAP1 PUSH1 0xFF AND SWAP1 SSTORE SWAP2 PUSH1 0x20 ADD SWAP2 SWAP1 PUSH1 0x1 ADD SWAP1 PUSH3 0x450 JUMP JUMPDEST JUMPDEST POP SWAP1 POP PUSH3 0x482 SWAP2 SWAP1 PUSH3 0x486 JUMP JUMPDEST POP SWAP1 JUMP JUMPDEST JUMPDEST DUP1 DUP3 GT ISZERO PUSH3 0x4A1 JUMPI PUSH1 0x0 DUP2 PUSH1 0x0 SWAP1 SSTORE POP PUSH1 0x1 ADD PUSH3 0x487 JUMP JUMPDEST POP SWAP1 JUMP JUMPDEST PUSH1 0x0 DUP1 REVERT JUMPDEST PUSH1 0x0 PUSH20 0xFFFFFFFFFFFFFFFFFFFFFFFFFFFFFFFFFFFFFFFF DUP3 AND SWAP1 POP SWAP2 SWAP1 POP JUMP JUMPDEST PUSH1 0x0 PUSH3 0x4D7 DUP3 PUSH3 0x4AA JUMP JUMPDEST SWAP1 POP SWAP2 SWAP1 POP JUMP JUMPDEST PUSH1 0x0 PUSH3 0x4EB DUP3 PUSH3 0x4CA JUMP JUMPDEST SWAP1 POP SWAP2 SWAP1 POP JUMP JUMPDEST PUSH3 0x4FD DUP2 PUSH3 0x4DE JUMP JUMPDEST DUP2 EQ PUSH3 0x509 JUMPI PUSH1 0x0 DUP1 REVERT JUMPDEST POP JUMP JUMPDEST PUSH1 0x0 DUP2 MLOAD SWAP1 POP PUSH3 0x51D DUP2 PUSH3 0x4F2 JUMP JUMPDEST SWAP3 SWAP2 POP POP JUMP JUMPDEST PUSH1 0x0 PUSH1 0x20 DUP3 DUP5 SUB SLT ISZERO PUSH3 0x53C JUMPI PUSH3 0x53B PUSH3 0x4A5 JUMP JUMPDEST JUMPDEST PUSH1 0x0 PUSH3 0x54C DUP5 DUP3 DUP6 ADD PUSH3 0x50C JUMP JUMPDEST SWAP2 POP POP SWAP3 SWAP2 POP POP JUMP JUMPDEST PUSH1 0x0 DUP3 DUP3 MSTORE PUSH1 0x20 DUP3 ADD SWAP1 POP SWAP3 SWAP2 POP POP JUMP JUMPDEST PUSH32 0x4F776E61626C653A2063616C6C6572206973206E6F7420746865206F776E6572 PUSH1 0x0 DUP3 ADD MSTORE POP JUMP JUMPDEST PUSH1 0x0 PUSH3 0x59E PUSH1 0x20 DUP4 PUSH3 0x555 JUMP JUMPDEST SWAP2 POP PUSH3 0x5AB DUP3 PUSH3 0x566 JUMP JUMPDEST PUSH1 0x20 DUP3 ADD SWAP1 POP SWAP2 SWAP1 POP JUMP JUMPDEST PUSH1 0x0 PUSH1 0x20 DUP3 ADD SWAP1 POP DUP2 DUP2 SUB PUSH1 0x0 DUP4 ADD MSTORE PUSH3 0x5D1 DUP2 PUSH3 0x58F JUMP JUMPDEST SWAP1 POP SWAP2 SWAP1 POP JUMP JUMPDEST PUSH2 0x3F6A DUP1 PUSH3 0x5E8 PUSH1 0x0 CODECOPY PUSH1 0x0 RETURN INVALID PUSH1 0x80 PUSH1 0x40 MSTORE PUSH1 0x4 CALLDATASIZE LT PUSH2 0x293 JUMPI PUSH1 0x0 CALLDATALOAD PUSH1 0xE0 SHR DUP1 PUSH4 0x8D56A17B GT PUSH2 0x15A JUMPI DUP1 PUSH4 0xCC644FD2 GT PUSH2 0xC1 JUMPI DUP1 PUSH4 0xDF477EAD GT PUSH2 0x7A JUMPI DUP1 PUSH4 0xDF477EAD EQ PUSH2 0x979 JUMPI DUP1 PUSH4 0xE49618C1 EQ PUSH2 0x9A4 JUMPI DUP1 PUSH4 0xF0C821DE EQ PUSH2 0x9E1 JUMPI DUP1 PUSH4 0xF2FDE38B EQ PUSH2 0xA0C JUMPI DUP1 PUSH4 0xF4CDE4C0 EQ PUSH2 0xA35 JUMPI DUP1 PUSH4 0xFBFA77CF EQ PUSH2 0xA60 JUMPI PUSH2 0x293 JUMP JUMPDEST DUP1 PUSH4 0xCC644FD2 EQ PUSH2 0x88E JUMPI DUP1 PUSH4 0xCEF58283 EQ PUSH2 0x8B7 JUMPI DUP1 PUSH4 0xD012468F EQ PUSH2 0x8E0 JUMPI DUP1 PUSH4 0xD3CF00A3 EQ PUSH2 0x8FC JUMPI DUP1 PUSH4 0xD6117B3E EQ PUSH2 0x927 JUMPI DUP1 PUSH4 0xDC37DC64 EQ PUSH2 0x950 JUMPI PUSH2 0x293 JUMP JUMPDEST DUP1 PUSH4 0x9F0664B5 GT PUSH2 0x113 JUMPI DUP1 PUSH4 0x9F0664B5 EQ PUSH2 0x7A1 JUMPI DUP1 PUSH4 0xA0712D68 EQ PUSH2 0x7CA JUMPI DUP1 PUSH4 0xA0E52F89 EQ PUSH2 0x7E6 JUMPI DUP1 PUSH4 0xA637F973 EQ PUSH2 0x811 JUMPI DUP1 PUSH4 0xB9A43F2E EQ PUSH2 0x83A JUMPI DUP1 PUSH4 0xC2774DAC EQ PUSH2 0x865 JUMPI PUSH2 0x293 JUMP JUMPDEST DUP1 PUSH4 0x8D56A17B EQ PUSH2 0x691 JUMPI DUP1 PUSH4 0x8DA5CB5B EQ PUSH2 0x6BC JUMPI DUP1 PUSH4 0x91B7F5ED EQ PUSH2 0x6E7 JUMPI DUP1 PUSH4 0x93CB4147 EQ PUSH2 0x710 JUMPI DUP1 PUSH4 0x96C9F88B EQ PUSH2 0x73B JUMPI DUP1 PUSH4 0x9727151A EQ PUSH2 0x778 JUMPI PUSH2 0x293 JUMP JUMPDEST DUP1 PUSH4 0x46BF289F GT PUSH2 0x1FE JUMPI DUP1 PUSH4 0x6138F236 GT PUSH2 0x1B7 JUMPI DUP1 PUSH4 0x6138F236 EQ PUSH2 0x5A9 JUMPI DUP1 PUSH4 0x6E1A1A60 EQ PUSH2 0x5E6 JUMPI DUP1 PUSH4 0x715018A6 EQ PUSH2 0x60F JUMPI DUP1 PUSH4 0x853828B6 EQ PUSH2 0x626 JUMPI DUP1 PUSH4 0x85535CC5 EQ PUSH2 0x63D JUMPI DUP1 PUSH4 0x8C6D8EF6 EQ PUSH2 0x666 JUMPI PUSH2 0x293 JUMP JUMPDEST DUP1 PUSH4 0x46BF289F EQ PUSH2 0x4B8 JUMPI DUP1 PUSH4 0x4907FC0C EQ PUSH2 0x4E3 JUMPI DUP1 PUSH4 0x4C3DB84D EQ PUSH2 0x50E JUMPI DUP1 PUSH4 0x4ED1EB24 EQ PUSH2 0x52A JUMPI DUP1 PUSH4 0x5242A493 EQ PUSH2 0x555 JUMPI DUP1 PUSH4 0x5FCD80A6 EQ PUSH2 0x580 JUMPI PUSH2 0x293 JUMP JUMPDEST DUP1 PUSH4 0x260C0886 GT PUSH2 0x250 JUMPI DUP1 PUSH4 0x260C0886 EQ PUSH2 0x3AA JUMPI DUP1 PUSH4 0x2701B325 EQ PUSH2 0x3D3 JUMPI DUP1 PUSH4 0x2CE82A71 EQ PUSH2 0x410 JUMPI DUP1 PUSH4 0x2E1A7D4D EQ PUSH2 0x43B JUMPI DUP1 PUSH4 0x3E97414F EQ PUSH2 0x464 JUMPI DUP1 PUSH4 0x411D13F7 EQ PUSH2 0x48F JUMPI PUSH2 0x293 JUMP JUMPDEST DUP1 PUSH4 0x62F7B8C EQ PUSH2 0x298 JUMPI DUP1 PUSH4 0x158AE298 EQ PUSH2 0x2C3 JUMPI DUP1 PUSH4 0x1AF3BA81 EQ PUSH2 0x300 JUMPI DUP1 PUSH4 0x1C7F4A02 EQ PUSH2 0x32B JUMPI DUP1 PUSH4 0x205ED382 EQ PUSH2 0x356 JUMPI DUP1 PUSH4 0x2560E376 EQ PUSH2 0x37F JUMPI JUMPDEST PUSH1 0x0 DUP1 REVERT JUMPDEST CALLVALUE DUP1 ISZERO PUSH2 0x2A4 JUMPI PUSH1 0x0 DUP1 REVERT JUMPDEST POP PUSH2 0x2AD PUSH2 0xA8B JUMP JUMPDEST PUSH1 0x40 MLOAD PUSH2 0x2BA SWAP2 SWAP1 PUSH2 0x2B13 JUMP JUMPDEST PUSH1 0x40 MLOAD DUP1 SWAP2 SUB SWAP1 RETURN JUMPDEST CALLVALUE DUP1 ISZERO PUSH2 0x2CF JUMPI PUSH1 0x0 DUP1 REVERT JUMPDEST POP PUSH2 0x2EA PUSH1 0x4 DUP1 CALLDATASIZE SUB DUP2 ADD SWAP1 PUSH2 0x2E5 SWAP2 SWAP1 PUSH2 0x2B6B JUMP JUMPDEST PUSH2 0xAE3 JUMP JUMPDEST PUSH1 0x40 MLOAD PUSH2 0x2F7 SWAP2 SWAP1 PUSH2 0x2BA7 JUMP JUMPDEST PUSH1 0x40 MLOAD DUP1 SWAP2 SUB SWAP1 RETURN JUMPDEST CALLVALUE DUP1 ISZERO PUSH2 0x30C JUMPI PUSH1 0x0 DUP1 REVERT JUMPDEST POP PUSH2 0x315 PUSH2 0xAFB JUMP JUMPDEST PUSH1 0x40 MLOAD PUSH2 0x322 SWAP2 SWAP1 PUSH2 0x2BA7 JUMP JUMPDEST PUSH1 0x40 MLOAD DUP1 SWAP2 SUB SWAP1 RETURN JUMPDEST CALLVALUE DUP1 ISZERO PUSH2 0x337 JUMPI PUSH1 0x0 DUP1 REVERT JUMPDEST POP PUSH2 0x340 PUSH2 0xB01 JUMP JUMPDEST PUSH1 0x40 MLOAD PUSH2 0x34D SWAP2 SWAP1 PUSH2 0x2BDB JUMP JUMPDEST PUSH1 0x40 MLOAD DUP1 SWAP2 SUB SWAP1 RETURN JUMPDEST CALLVALUE DUP1 ISZERO PUSH2 0x362 JUMPI PUSH1 0x0 DUP1 REVERT JUMPDEST POP PUSH2 0x37D PUSH1 0x4 DUP1 CALLDATASIZE SUB DUP2 ADD SWAP1 PUSH2 0x378 SWAP2 SWAP1 PUSH2 0x2B6B JUMP JUMPDEST PUSH2 0xB07 JUMP JUMPDEST STOP JUMPDEST CALLVALUE DUP1 ISZERO PUSH2 0x38B JUMPI PUSH1 0x0 DUP1 REVERT JUMPDEST POP PUSH2 0x394 PUSH2 0xB58 JUMP JUMPDEST PUSH1 0x40 MLOAD PUSH2 0x3A1 SWAP2 SWAP1 PUSH2 0x2BDB JUMP JUMPDEST PUSH1 0x40 MLOAD DUP1 SWAP2 SUB SWAP1 RETURN JUMPDEST CALLVALUE DUP1 ISZERO PUSH2 0x3B6 JUMPI PUSH1 0x0 DUP1 REVERT JUMPDEST POP PUSH2 0x3D1 PUSH1 0x4 DUP1 CALLDATASIZE SUB DUP2 ADD SWAP1 PUSH2 0x3CC SWAP2 SWAP1 PUSH2 0x2B6B JUMP JUMPDEST PUSH2 0xB5E JUMP JUMPDEST STOP JUMPDEST CALLVALUE DUP1 ISZERO PUSH2 0x3DF JUMPI PUSH1 0x0 DUP1 REVERT JUMPDEST POP PUSH2 0x3FA PUSH1 0x4 DUP1 CALLDATASIZE SUB DUP2 ADD SWAP1 PUSH2 0x3F5 SWAP2 SWAP1 PUSH2 0x2B6B JUMP JUMPDEST PUSH2 0xB70 JUMP JUMPDEST PUSH1 0x40 MLOAD PUSH2 0x407 SWAP2 SWAP1 PUSH2 0x2BA7 JUMP JUMPDEST PUSH1 0x40 MLOAD DUP1 SWAP2 SUB SWAP1 RETURN JUMPDEST CALLVALUE DUP1 ISZERO PUSH2 0x41C JUMPI PUSH1 0x0 DUP1 REVERT JUMPDEST POP PUSH2 0x425 PUSH2 0xB7D JUMP JUMPDEST PUSH1 0x40 MLOAD PUSH2 0x432 SWAP2 SWAP1 PUSH2 0x2B13 JUMP JUMPDEST PUSH1 0x40 MLOAD DUP1 SWAP2 SUB SWAP1 RETURN JUMPDEST CALLVALUE DUP1 ISZERO PUSH2 0x447 JUMPI PUSH1 0x0 DUP1 REVERT JUMPDEST POP PUSH2 0x462 PUSH1 0x4 DUP1 CALLDATASIZE SUB DUP2 ADD SWAP1 PUSH2 0x45D SWAP2 SWAP1 PUSH2 0x2B6B JUMP JUMPDEST PUSH2 0xD7B JUMP JUMPDEST STOP JUMPDEST CALLVALUE DUP1 ISZERO PUSH2 0x470 JUMPI PUSH1 0x0 DUP1 REVERT JUMPDEST POP PUSH2 0x479 PUSH2 0xE55 JUMP JUMPDEST PUSH1 0x40 MLOAD PUSH2 0x486 SWAP2 SWAP1 PUSH2 0x2C11 JUMP JUMPDEST PUSH1 0x40 MLOAD DUP1 SWAP2 SUB SWAP1 RETURN JUMPDEST CALLVALUE DUP1 ISZERO PUSH2 0x49B JUMPI PUSH1 0x0 DUP1 REVERT JUMPDEST POP PUSH2 0x4B6 PUSH1 0x4 DUP1 CALLDATASIZE SUB DUP2 ADD SWAP1 PUSH2 0x4B1 SWAP2 SWAP1 PUSH2 0x2C58 JUMP JUMPDEST PUSH2 0xE62 JUMP JUMPDEST STOP JUMPDEST CALLVALUE DUP1 ISZERO PUSH2 0x4C4 JUMPI PUSH1 0x0 DUP1 REVERT JUMPDEST POP PUSH2 0x4CD PUSH2 0xE74 JUMP JUMPDEST PUSH1 0x40 MLOAD PUSH2 0x4DA SWAP2 SWAP1 PUSH2 0x2BA7 JUMP JUMPDEST PUSH1 0x40 MLOAD DUP1 SWAP2 SUB SWAP1 RETURN JUMPDEST CALLVALUE DUP1 ISZERO PUSH2 0x4EF JUMPI PUSH1 0x0 DUP1 REVERT JUMPDEST POP PUSH2 0x4F8 PUSH2 0xF6D JUMP JUMPDEST PUSH1 0x40 MLOAD PUSH2 0x505 SWAP2 SWAP1 PUSH2 0x2D75 JUMP JUMPDEST PUSH1 0x40 MLOAD DUP1 SWAP2 SUB SWAP1 RETURN JUMPDEST PUSH2 0x528 PUSH1 0x4 DUP1 CALLDATASIZE SUB DUP2 ADD SWAP1 PUSH2 0x523 SWAP2 SWAP1 PUSH2 0x2DFC JUMP JUMPDEST PUSH2 0x1003 JUMP JUMPDEST STOP JUMPDEST CALLVALUE DUP1 ISZERO PUSH2 0x536 JUMPI PUSH1 0x0 DUP1 REVERT JUMPDEST POP PUSH2 0x53F PUSH2 0x1214 JUMP JUMPDEST PUSH1 0x40 MLOAD PUSH2 0x54C SWAP2 SWAP1 PUSH2 0x2BDB JUMP JUMPDEST PUSH1 0x40 MLOAD DUP1 SWAP2 SUB SWAP1 RETURN JUMPDEST CALLVALUE DUP1 ISZERO PUSH2 0x561 JUMPI PUSH1 0x0 DUP1 REVERT JUMPDEST POP PUSH2 0x56A PUSH2 0x121A JUMP JUMPDEST PUSH1 0x40 MLOAD PUSH2 0x577 SWAP2 SWAP1 PUSH2 0x2BA7 JUMP JUMPDEST PUSH1 0x40 MLOAD DUP1 SWAP2 SUB SWAP1 RETURN JUMPDEST CALLVALUE DUP1 ISZERO PUSH2 0x58C JUMPI PUSH1 0x0 DUP1 REVERT JUMPDEST POP PUSH2 0x5A7 PUSH1 0x4 DUP1 CALLDATASIZE SUB DUP2 ADD SWAP1 PUSH2 0x5A2 SWAP2 SWAP1 PUSH2 0x2B6B JUMP JUMPDEST PUSH2 0x1220 JUMP JUMPDEST STOP JUMPDEST CALLVALUE DUP1 ISZERO PUSH2 0x5B5 JUMPI PUSH1 0x0 DUP1 REVERT JUMPDEST POP PUSH2 0x5D0 PUSH1 0x4 DUP1 CALLDATASIZE SUB DUP2 ADD SWAP1 PUSH2 0x5CB SWAP2 SWAP1 PUSH2 0x2E9C JUMP JUMPDEST PUSH2 0x1232 JUMP JUMPDEST PUSH1 0x40 MLOAD PUSH2 0x5DD SWAP2 SWAP1 PUSH2 0x2BA7 JUMP JUMPDEST PUSH1 0x40 MLOAD DUP1 SWAP2 SUB SWAP1 RETURN JUMPDEST CALLVALUE DUP1 ISZERO PUSH2 0x5F2 JUMPI PUSH1 0x0 DUP1 REVERT JUMPDEST POP PUSH2 0x60D PUSH1 0x4 DUP1 CALLDATASIZE SUB DUP2 ADD SWAP1 PUSH2 0x608 SWAP2 SWAP1 PUSH2 0x2B6B JUMP JUMPDEST PUSH2 0x124A JUMP JUMPDEST STOP JUMPDEST CALLVALUE DUP1 ISZERO PUSH2 0x61B JUMPI PUSH1 0x0 DUP1 REVERT JUMPDEST POP PUSH2 0x624 PUSH2 0x125C JUMP JUMPDEST STOP JUMPDEST CALLVALUE DUP1 ISZERO PUSH2 0x632 JUMPI PUSH1 0x0 DUP1 REVERT JUMPDEST POP PUSH2 0x63B PUSH2 0x1270 JUMP JUMPDEST STOP JUMPDEST CALLVALUE DUP1 ISZERO PUSH2 0x649 JUMPI PUSH1 0x0 DUP1 REVERT JUMPDEST POP PUSH2 0x664 PUSH1 0x4 DUP1 CALLDATASIZE SUB DUP2 ADD SWAP1 PUSH2 0x65F SWAP2 SWAP1 PUSH2 0x2F07 JUMP JUMPDEST PUSH2 0x1349 JUMP JUMPDEST STOP JUMPDEST CALLVALUE DUP1 ISZERO PUSH2 0x672 JUMPI PUSH1 0x0 DUP1 REVERT JUMPDEST POP PUSH2 0x67B PUSH2 0x1395 JUMP JUMPDEST PUSH1 0x40 MLOAD PUSH2 0x688 SWAP2 SWAP1 PUSH2 0x2C11 JUMP JUMPDEST PUSH1 0x40 MLOAD DUP1 SWAP2 SUB SWAP1 RETURN JUMPDEST CALLVALUE DUP1 ISZERO PUSH2 0x69D JUMPI PUSH1 0x0 DUP1 REVERT JUMPDEST POP PUSH2 0x6A6 PUSH2 0x13A2 JUMP JUMPDEST PUSH1 0x40 MLOAD PUSH2 0x6B3 SWAP2 SWAP1 PUSH2 0x2BA7 JUMP JUMPDEST PUSH1 0x40 MLOAD DUP1 SWAP2 SUB SWAP1 RETURN JUMPDEST CALLVALUE DUP1 ISZERO PUSH2 0x6C8 JUMPI PUSH1 0x0 DUP1 REVERT JUMPDEST POP PUSH2 0x6D1 PUSH2 0x13A8 JUMP JUMPDEST PUSH1 0x40 MLOAD PUSH2 0x6DE SWAP2 SWAP1 PUSH2 0x2F43 JUMP JUMPDEST PUSH1 0x40 MLOAD DUP1 SWAP2 SUB SWAP1 RETURN JUMPDEST CALLVALUE DUP1 ISZERO PUSH2 0x6F3 JUMPI PUSH1 0x0 DUP1 REVERT JUMPDEST POP PUSH2 0x70E PUSH1 0x4 DUP1 CALLDATASIZE SUB DUP2 ADD SWAP1 PUSH2 0x709 SWAP2 SWAP1 PUSH2 0x2B6B JUMP JUMPDEST PUSH2 0x13D1 JUMP JUMPDEST STOP JUMPDEST CALLVALUE DUP1 ISZERO PUSH2 0x71C JUMPI PUSH1 0x0 DUP1 REVERT JUMPDEST POP PUSH2 0x725 PUSH2 0x1422 JUMP JUMPDEST PUSH1 0x40 MLOAD PUSH2 0x732 SWAP2 SWAP1 PUSH2 0x2C11 JUMP JUMPDEST PUSH1 0x40 MLOAD DUP1 SWAP2 SUB SWAP1 RETURN JUMPDEST CALLVALUE DUP1 ISZERO PUSH2 0x747 JUMPI PUSH1 0x0 DUP1 REVERT JUMPDEST POP PUSH2 0x762 PUSH1 0x4 DUP1 CALLDATASIZE SUB DUP2 ADD SWAP1 PUSH2 0x75D SWAP2 SWAP1 PUSH2 0x2B6B JUMP JUMPDEST PUSH2 0x142F JUMP JUMPDEST PUSH1 0x40 MLOAD PUSH2 0x76F SWAP2 SWAP1 PUSH2 0x2BA7 JUMP JUMPDEST PUSH1 0x40 MLOAD DUP1 SWAP2 SUB SWAP1 RETURN JUMPDEST CALLVALUE DUP1 ISZERO PUSH2 0x784 JUMPI PUSH1 0x0 DUP1 REVERT JUMPDEST POP PUSH2 0x79F PUSH1 0x4 DUP1 CALLDATASIZE SUB DUP2 ADD SWAP1 PUSH2 0x79A SWAP2 SWAP1 PUSH2 0x2F9C JUMP JUMPDEST PUSH2 0x1453 JUMP JUMPDEST STOP JUMPDEST CALLVALUE DUP1 ISZERO PUSH2 0x7AD JUMPI PUSH1 0x0 DUP1 REVERT JUMPDEST POP PUSH2 0x7C8 PUSH1 0x4 DUP1 CALLDATASIZE SUB DUP2 ADD SWAP1 PUSH2 0x7C3 SWAP2 SWAP1 PUSH2 0x3088 JUMP JUMPDEST PUSH2 0x1544 JUMP JUMPDEST STOP JUMPDEST PUSH2 0x7E4 PUSH1 0x4 DUP1 CALLDATASIZE SUB DUP2 ADD SWAP1 PUSH2 0x7DF SWAP2 SWAP1 PUSH2 0x2B6B JUMP JUMPDEST PUSH2 0x182E JUMP JUMPDEST STOP JUMPDEST CALLVALUE DUP1 ISZERO PUSH2 0x7F2 JUMPI PUSH1 0x0 DUP1 REVERT JUMPDEST POP PUSH2 0x7FB PUSH2 0x184A JUMP JUMPDEST PUSH1 0x40 MLOAD PUSH2 0x808 SWAP2 SWAP1 PUSH2 0x2BA7 JUMP JUMPDEST PUSH1 0x40 MLOAD DUP1 SWAP2 SUB SWAP1 RETURN JUMPDEST CALLVALUE DUP1 ISZERO PUSH2 0x81D JUMPI PUSH1 0x0 DUP1 REVERT JUMPDEST POP PUSH2 0x838 PUSH1 0x4 DUP1 CALLDATASIZE SUB DUP2 ADD SWAP1 PUSH2 0x833 SWAP2 SWAP1 PUSH2 0x2B6B JUMP JUMPDEST PUSH2 0x1854 JUMP JUMPDEST STOP JUMPDEST CALLVALUE DUP1 ISZERO PUSH2 0x846 JUMPI PUSH1 0x0 DUP1 REVERT JUMPDEST POP PUSH2 0x84F PUSH2 0x18A5 JUMP JUMPDEST PUSH1 0x40 MLOAD PUSH2 0x85C SWAP2 SWAP1 PUSH2 0x2BA7 JUMP JUMPDEST PUSH1 0x40 MLOAD DUP1 SWAP2 SUB SWAP1 RETURN JUMPDEST CALLVALUE DUP1 ISZERO PUSH2 0x871 JUMPI PUSH1 0x0 DUP1 REVERT JUMPDEST POP PUSH2 0x88C PUSH1 0x4 DUP1 CALLDATASIZE SUB DUP2 ADD SWAP1 PUSH2 0x887 SWAP2 SWAP1 PUSH2 0x2C58 JUMP JUMPDEST PUSH2 0x19AE JUMP JUMPDEST STOP JUMPDEST CALLVALUE DUP1 ISZERO PUSH2 0x89A JUMPI PUSH1 0x0 DUP1 REVERT JUMPDEST POP PUSH2 0x8B5 PUSH1 0x4 DUP1 CALLDATASIZE SUB DUP2 ADD SWAP1 PUSH2 0x8B0 SWAP2 SWAP1 PUSH2 0x315F JUMP JUMPDEST PUSH2 0x19C0 JUMP JUMPDEST STOP JUMPDEST CALLVALUE DUP1 ISZERO PUSH2 0x8C3 JUMPI PUSH1 0x0 DUP1 REVERT JUMPDEST POP PUSH2 0x8DE PUSH1 0x4 DUP1 CALLDATASIZE SUB DUP2 ADD SWAP1 PUSH2 0x8D9 SWAP2 SWAP1 PUSH2 0x2C58 JUMP JUMPDEST PUSH2 0x1A6B JUMP JUMPDEST STOP JUMPDEST PUSH2 0x8FA PUSH1 0x4 DUP1 CALLDATASIZE SUB DUP2 ADD SWAP1 PUSH2 0x8F5 SWAP2 SWAP1 PUSH2 0x2DFC JUMP JUMPDEST PUSH2 0x1A7D JUMP JUMPDEST STOP JUMPDEST CALLVALUE DUP1 ISZERO PUSH2 0x908 JUMPI PUSH1 0x0 DUP1 REVERT JUMPDEST POP PUSH2 0x911 PUSH2 0x1D2A JUMP JUMPDEST PUSH1 0x40 MLOAD PUSH2 0x91E SWAP2 SWAP1 PUSH2 0x2BA7 JUMP JUMPDEST PUSH1 0x40 MLOAD DUP1 SWAP2 SUB SWAP1 RETURN JUMPDEST CALLVALUE DUP1 ISZERO PUSH2 0x933 JUMPI PUSH1 0x0 DUP1 REVERT JUMPDEST POP PUSH2 0x94E PUSH1 0x4 DUP1 CALLDATASIZE SUB DUP2 ADD SWAP1 PUSH2 0x949 SWAP2 SWAP1 PUSH2 0x315F JUMP JUMPDEST PUSH2 0x1D30 JUMP JUMPDEST STOP JUMPDEST CALLVALUE DUP1 ISZERO PUSH2 0x95C JUMPI PUSH1 0x0 DUP1 REVERT JUMPDEST POP PUSH2 0x977 PUSH1 0x4 DUP1 CALLDATASIZE SUB DUP2 ADD SWAP1 PUSH2 0x972 SWAP2 SWAP1 PUSH2 0x31EA JUMP JUMPDEST PUSH2 0x1E6E JUMP JUMPDEST STOP JUMPDEST CALLVALUE DUP1 ISZERO PUSH2 0x985 JUMPI PUSH1 0x0 DUP1 REVERT JUMPDEST POP PUSH2 0x98E PUSH2 0x1EBA JUMP JUMPDEST PUSH1 0x40 MLOAD PUSH2 0x99B SWAP2 SWAP1 PUSH2 0x2BA7 JUMP JUMPDEST PUSH1 0x40 MLOAD DUP1 SWAP2 SUB SWAP1 RETURN JUMPDEST CALLVALUE DUP1 ISZERO PUSH2 0x9B0 JUMPI PUSH1 0x0 DUP1 REVERT JUMPDEST POP PUSH2 0x9CB PUSH1 0x4 DUP1 CALLDATASIZE SUB DUP2 ADD SWAP1 PUSH2 0x9C6 SWAP2 SWAP1 PUSH2 0x2E9C JUMP JUMPDEST PUSH2 0x1EC4 JUMP JUMPDEST PUSH1 0x40 MLOAD PUSH2 0x9D8 SWAP2 SWAP1 PUSH2 0x2BA7 JUMP JUMPDEST PUSH1 0x40 MLOAD DUP1 SWAP2 SUB SWAP1 RETURN JUMPDEST CALLVALUE DUP1 ISZERO PUSH2 0x9ED JUMPI PUSH1 0x0 DUP1 REVERT JUMPDEST POP PUSH2 0x9F6 PUSH2 0x1EDC JUMP JUMPDEST PUSH1 0x40 MLOAD PUSH2 0xA03 SWAP2 SWAP1 PUSH2 0x3276 JUMP JUMPDEST PUSH1 0x40 MLOAD DUP1 SWAP2 SUB SWAP1 RETURN JUMPDEST CALLVALUE DUP1 ISZERO PUSH2 0xA18 JUMPI PUSH1 0x0 DUP1 REVERT JUMPDEST POP PUSH2 0xA33 PUSH1 0x4 DUP1 CALLDATASIZE SUB DUP2 ADD SWAP1 PUSH2 0xA2E SWAP2 SWAP1 PUSH2 0x2E9C JUMP JUMPDEST PUSH2 0x1F02 JUMP JUMPDEST STOP JUMPDEST CALLVALUE DUP1 ISZERO PUSH2 0xA41 JUMPI PUSH1 0x0 DUP1 REVERT JUMPDEST POP PUSH2 0xA4A PUSH2 0x1F85 JUMP JUMPDEST PUSH1 0x40 MLOAD PUSH2 0xA57 SWAP2 SWAP1 PUSH2 0x2BA7 JUMP JUMPDEST PUSH1 0x40 MLOAD DUP1 SWAP2 SUB SWAP1 RETURN JUMPDEST CALLVALUE DUP1 ISZERO PUSH2 0xA6C JUMPI PUSH1 0x0 DUP1 REVERT JUMPDEST POP PUSH2 0xA75 PUSH2 0x1F8B JUMP JUMPDEST PUSH1 0x40 MLOAD PUSH2 0xA82 SWAP2 SWAP1 PUSH2 0x32A0 JUMP JUMPDEST PUSH1 0x40 MLOAD DUP1 SWAP2 SUB SWAP1 RETURN JUMPDEST PUSH1 0x60 PUSH1 0x6 DUP1 SLOAD DUP1 PUSH1 0x20 MUL PUSH1 0x20 ADD PUSH1 0x40 MLOAD SWAP1 DUP2 ADD PUSH1 0x40 MSTORE DUP1 SWAP3 SWAP2 SWAP1 DUP2 DUP2 MSTORE PUSH1 0x20 ADD DUP3 DUP1 SLOAD DUP1 ISZERO PUSH2 0xAD9 JUMPI PUSH1 0x20 MUL DUP3 ADD SWAP2 SWAP1 PUSH1 0x0 MSTORE PUSH1 0x20 PUSH1 0x0 KECCAK256 SWAP1 JUMPDEST DUP2 SLOAD DUP2 MSTORE PUSH1 0x20 ADD SWAP1 PUSH1 0x1 ADD SWAP1 DUP1 DUP4 GT PUSH2 0xAC5 JUMPI JUMPDEST POP POP POP POP POP SWAP1 POP SWAP1 JUMP JUMPDEST PUSH1 0x10 PUSH1 0x20 MSTORE DUP1 PUSH1 0x0 MSTORE PUSH1 0x40 PUSH1 0x0 KECCAK256 PUSH1 0x0 SWAP2 POP SWAP1 POP SLOAD DUP2 JUMP JUMPDEST PUSH1 0x9 SLOAD DUP2 JUMP JUMPDEST PUSH1 0xE SLOAD DUP2 JUMP JUMPDEST PUSH2 0xB0F PUSH2 0x1FB1 JUMP JUMPDEST PUSH2 0xB17 PUSH2 0x1422 JUMP JUMPDEST ISZERO PUSH2 0xB4E JUMPI PUSH1 0x40 MLOAD PUSH32 0xF2A84B6300000000000000000000000000000000000000000000000000000000 DUP2 MSTORE PUSH1 0x4 ADD PUSH1 0x40 MLOAD DUP1 SWAP2 SUB SWAP1 REVERT JUMPDEST DUP1 PUSH1 0x4 DUP2 SWAP1 SSTORE POP POP JUMP JUMPDEST PUSH1 0xF SLOAD DUP2 JUMP JUMPDEST PUSH2 0xB66 PUSH2 0x1FB1 JUMP JUMPDEST DUP1 PUSH1 0xC DUP2 SWAP1 SSTORE POP POP JUMP JUMPDEST PUSH1 0x0 PUSH1 0xFF DUP3 AND SWAP1 POP SWAP2 SWAP1 POP JUMP JUMPDEST PUSH1 0x60 PUSH1 0x0 PUSH1 0x8 PUSH8 0xFFFFFFFFFFFFFFFF DUP2 GT ISZERO PUSH2 0xB9C JUMPI PUSH2 0xB9B PUSH2 0x32BB JUMP JUMPDEST JUMPDEST PUSH1 0x40 MLOAD SWAP1 DUP1 DUP3 MSTORE DUP1 PUSH1 0x20 MUL PUSH1 0x20 ADD DUP3 ADD PUSH1 0x40 MSTORE DUP1 ISZERO PUSH2 0xBCA JUMPI DUP2 PUSH1 0x20 ADD PUSH1 0x20 DUP3 MUL DUP1 CALLDATASIZE DUP4 CALLDATACOPY DUP1 DUP3 ADD SWAP2 POP POP SWAP1 POP JUMPDEST POP SWAP1 POP PUSH1 0x10 PUSH1 0x0 DUP1 DUP2 MSTORE PUSH1 0x20 ADD SWAP1 DUP2 MSTORE PUSH1 0x20 ADD PUSH1 0x0 KECCAK256 SLOAD DUP2 PUSH1 0x0 DUP2 MLOAD DUP2 LT PUSH2 0xBF5 JUMPI PUSH2 0xBF4 PUSH2 0x32EA JUMP JUMPDEST JUMPDEST PUSH1 0x20 MUL PUSH1 0x20 ADD ADD DUP2 DUP2 MSTORE POP POP PUSH1 0x10 PUSH1 0x0 PUSH1 0x1 DUP2 MSTORE PUSH1 0x20 ADD SWAP1 DUP2 MSTORE PUSH1 0x20 ADD PUSH1 0x0 KECCAK256 SLOAD DUP2 PUSH1 0x1 DUP2 MLOAD DUP2 LT PUSH2 0xC2A JUMPI PUSH2 0xC29 PUSH2 0x32EA JUMP JUMPDEST JUMPDEST PUSH1 0x20 MUL PUSH1 0x20 ADD ADD DUP2 DUP2 MSTORE POP POP PUSH1 0x10 PUSH1 0x0 PUSH1 0x2 DUP2 MSTORE PUSH1 0x20 ADD SWAP1 DUP2 MSTORE PUSH1 0x20 ADD PUSH1 0x0 KECCAK256 SLOAD DUP2 PUSH1 0x2 DUP2 MLOAD DUP2 LT PUSH2 0xC5F JUMPI PUSH2 0xC5E PUSH2 0x32EA JUMP JUMPDEST JUMPDEST PUSH1 0x20 MUL PUSH1 0x20 ADD ADD DUP2 DUP2 MSTORE POP POP PUSH1 0x10 PUSH1 0x0 PUSH1 0x3 DUP2 MSTORE PUSH1 0x20 ADD SWAP1 DUP2 MSTORE PUSH1 0x20 ADD PUSH1 0x0 KECCAK256 SLOAD DUP2 PUSH1 0x3 DUP2 MLOAD DUP2 LT PUSH2 0xC94 JUMPI PUSH2 0xC93 PUSH2 0x32EA JUMP JUMPDEST JUMPDEST PUSH1 0x20 MUL PUSH1 0x20 ADD ADD DUP2 DUP2 MSTORE POP POP PUSH1 0x10 PUSH1 0x0 PUSH1 0x4 DUP2 MSTORE PUSH1 0x20 ADD SWAP1 DUP2 MSTORE PUSH1 0x20 ADD PUSH1 0x0 KECCAK256 SLOAD DUP2 PUSH1 0x4 DUP2 MLOAD DUP2 LT PUSH2 0xCC9 JUMPI PUSH2 0xCC8 PUSH2 0x32EA JUMP JUMPDEST JUMPDEST PUSH1 0x20 MUL PUSH1 0x20 ADD ADD DUP2 DUP2 MSTORE POP POP PUSH1 0x10 PUSH1 0x0 PUSH1 0x5 DUP2 MSTORE PUSH1 0x20 ADD SWAP1 DUP2 MSTORE PUSH1 0x20 ADD PUSH1 0x0 KECCAK256 SLOAD DUP2 PUSH1 0x5 DUP2 MLOAD DUP2 LT PUSH2 0xCFE JUMPI PUSH2 0xCFD PUSH2 0x32EA JUMP JUMPDEST JUMPDEST PUSH1 0x20 MUL PUSH1 0x20 ADD ADD DUP2 DUP2 MSTORE POP POP PUSH1 0x10 PUSH1 0x0 PUSH1 0x6 DUP2 MSTORE PUSH1 0x20 ADD SWAP1 DUP2 MSTORE PUSH1 0x20 ADD PUSH1 0x0 KECCAK256 SLOAD DUP2 PUSH1 0x6 DUP2 MLOAD DUP2 LT PUSH2 0xD33 JUMPI PUSH2 0xD32 PUSH2 0x32EA JUMP JUMPDEST JUMPDEST PUSH1 0x20 MUL PUSH1 0x20 ADD ADD DUP2 DUP2 MSTORE POP POP PUSH1 0x10 PUSH1 0x0 PUSH1 0x7 DUP2 MSTORE PUSH1 0x20 ADD SWAP1 DUP2 MSTORE PUSH1 0x20 ADD PUSH1 0x0 KECCAK256 SLOAD DUP2 PUSH1 0x7 DUP2 MLOAD DUP2 LT PUSH2 0xD68 JUMPI PUSH2 0xD67 PUSH2 0x32EA JUMP JUMPDEST JUMPDEST PUSH1 0x20 MUL PUSH1 0x20 ADD ADD DUP2 DUP2 MSTORE POP POP DUP1 SWAP2 POP POP SWAP1 JUMP JUMPDEST PUSH2 0xD83 PUSH2 0x1FB1 JUMP JUMPDEST PUSH1 0x0 PUSH1 0x3 PUSH1 0x0 SWAP1 SLOAD SWAP1 PUSH2 0x100 EXP SWAP1 DIV PUSH20 0xFFFFFFFFFFFFFFFFFFFFFFFFFFFFFFFFFFFFFFFF AND PUSH20 0xFFFFFFFFFFFFFFFFFFFFFFFFFFFFFFFFFFFFFFFF AND DUP3 PUSH1 0x40 MLOAD PUSH2 0xDCB SWAP1 PUSH2 0x334A JUMP JUMPDEST PUSH1 0x0 PUSH1 0x40 MLOAD DUP1 DUP4 SUB DUP2 DUP6 DUP8 GAS CALL SWAP3 POP POP POP RETURNDATASIZE DUP1 PUSH1 0x0 DUP2 EQ PUSH2 0xE08 JUMPI PUSH1 0x40 MLOAD SWAP2 POP PUSH1 0x1F NOT PUSH1 0x3F RETURNDATASIZE ADD AND DUP3 ADD PUSH1 0x40 MSTORE RETURNDATASIZE DUP3 MSTORE RETURNDATASIZE PUSH1 0x0 PUSH1 0x20 DUP5 ADD RETURNDATACOPY PUSH2 0xE0D JUMP JUMPDEST PUSH1 0x60 SWAP2 POP JUMPDEST POP POP SWAP1 POP DUP1 PUSH2 0xE51 JUMPI PUSH1 0x40 MLOAD PUSH32 0x8C379A000000000000000000000000000000000000000000000000000000000 DUP2 MSTORE PUSH1 0x4 ADD PUSH2 0xE48 SWAP1 PUSH2 0x33BC JUMP JUMPDEST PUSH1 0x40 MLOAD DUP1 SWAP2 SUB SWAP1 REVERT JUMPDEST POP POP JUMP JUMPDEST PUSH1 0x0 PUSH1 0xC SLOAD TIMESTAMP LT ISZERO SWAP1 POP SWAP1 JUMP JUMPDEST PUSH2 0xE6A PUSH2 0x1FB1 JUMP JUMPDEST DUP1 PUSH1 0xF DUP2 SWAP1 SSTORE POP POP JUMP JUMPDEST PUSH1 0x0 DUP1 PUSH1 0x10 PUSH1 0x0 PUSH1 0x7 DUP2 MSTORE PUSH1 0x20 ADD SWAP1 DUP2 MSTORE PUSH1 0x20 ADD PUSH1 0x0 KECCAK256 SLOAD PUSH1 0x10 PUSH1 0x0 PUSH1 0x6 DUP2 MSTORE PUSH1 0x20 ADD SWAP1 DUP2 MSTORE PUSH1 0x20 ADD PUSH1 0x0 KECCAK256 SLOAD PUSH1 0x10 PUSH1 0x0 PUSH1 0x5 DUP2 MSTORE PUSH1 0x20 ADD SWAP1 DUP2 MSTORE PUSH1 0x20 ADD PUSH1 0x0 KECCAK256 SLOAD PUSH1 0x10 PUSH1 0x0 PUSH1 0x4 DUP2 MSTORE PUSH1 0x20 ADD SWAP1 DUP2 MSTORE PUSH1 0x20 ADD PUSH1 0x0 KECCAK256 SLOAD PUSH1 0x10 PUSH1 0x0 PUSH1 0x3 DUP2 MSTORE PUSH1 0x20 ADD SWAP1 DUP2 MSTORE PUSH1 0x20 ADD PUSH1 0x0 KECCAK256 SLOAD PUSH1 0x10 PUSH1 0x0 PUSH1 0x2 DUP2 MSTORE PUSH1 0x20 ADD SWAP1 DUP2 MSTORE PUSH1 0x20 ADD PUSH1 0x0 KECCAK256 SLOAD PUSH1 0x10 PUSH1 0x0 PUSH1 0x1 DUP2 MSTORE PUSH1 0x20 ADD SWAP1 DUP2 MSTORE PUSH1 0x20 ADD PUSH1 0x0 KECCAK256 SLOAD PUSH1 0x10 PUSH1 0x0 DUP1 DUP2 MSTORE PUSH1 0x20 ADD SWAP1 DUP2 MSTORE PUSH1 0x20 ADD PUSH1 0x0 KECCAK256 SLOAD PUSH2 0xF28 SWAP2 SWAP1 PUSH2 0x340B JUMP JUMPDEST PUSH2 0xF32 SWAP2 SWAP1 PUSH2 0x340B JUMP JUMPDEST PUSH2 0xF3C SWAP2 SWAP1 PUSH2 0x340B JUMP JUMPDEST PUSH2 0xF46 SWAP2 SWAP1 PUSH2 0x340B JUMP JUMPDEST PUSH2 0xF50 SWAP2 SWAP1 PUSH2 0x340B JUMP JUMPDEST PUSH2 0xF5A SWAP2 SWAP1 PUSH2 0x340B JUMP JUMPDEST PUSH2 0xF64 SWAP2 SWAP1 PUSH2 0x340B JUMP JUMPDEST SWAP1 POP DUP1 SWAP2 POP POP SWAP1 JUMP JUMPDEST PUSH1 0x60 PUSH2 0xF77 PUSH2 0x1FB1 JUMP JUMPDEST PUSH1 0x13 DUP1 SLOAD DUP1 PUSH1 0x20 MUL PUSH1 0x20 ADD PUSH1 0x40 MLOAD SWAP1 DUP2 ADD PUSH1 0x40 MSTORE DUP1 SWAP3 SWAP2 SWAP1 DUP2 DUP2 MSTORE PUSH1 0x20 ADD DUP3 DUP1 SLOAD DUP1 ISZERO PUSH2 0xFF9 JUMPI PUSH1 0x20 MUL DUP3 ADD SWAP2 SWAP1 PUSH1 0x0 MSTORE PUSH1 0x20 PUSH1 0x0 KECCAK256 SWAP1 JUMPDEST DUP2 PUSH1 0x0 SWAP1 SLOAD SWAP1 PUSH2 0x100 EXP SWAP1 DIV PUSH20 0xFFFFFFFFFFFFFFFFFFFFFFFFFFFFFFFFFFFFFFFF AND PUSH20 0xFFFFFFFFFFFFFFFFFFFFFFFFFFFFFFFFFFFFFFFF AND DUP2 MSTORE PUSH1 0x20 ADD SWAP1 PUSH1 0x1 ADD SWAP1 DUP1 DUP4 GT PUSH2 0xFAF JUMPI JUMPDEST POP POP POP POP POP SWAP1 POP SWAP1 JUMP JUMPDEST PUSH2 0x100B PUSH2 0x202F JUMP JUMPDEST PUSH2 0x1013 PUSH2 0xE55 JUMP JUMPDEST PUSH2 0x1058 JUMPI PUSH1 0xC SLOAD TIMESTAMP PUSH1 0x40 MLOAD PUSH32 0x66803FC100000000000000000000000000000000000000000000000000000000 DUP2 MSTORE PUSH1 0x4 ADD PUSH2 0x104F SWAP3 SWAP2 SWAP1 PUSH2 0x343F JUMP JUMPDEST PUSH1 0x40 MLOAD DUP1 SWAP2 SUB SWAP1 REVERT JUMPDEST PUSH1 0x0 CALLER DUP5 PUSH1 0x40 MLOAD PUSH1 0x20 ADD PUSH2 0x106D SWAP3 SWAP2 SWAP1 PUSH2 0x3528 JUMP JUMPDEST PUSH1 0x40 MLOAD PUSH1 0x20 DUP2 DUP4 SUB SUB DUP2 MSTORE SWAP1 PUSH1 0x40 MSTORE DUP1 MLOAD SWAP1 PUSH1 0x20 ADD KECCAK256 SWAP1 POP PUSH2 0x10D3 DUP4 DUP4 DUP1 DUP1 PUSH1 0x20 MUL PUSH1 0x20 ADD PUSH1 0x40 MLOAD SWAP1 DUP2 ADD PUSH1 0x40 MSTORE DUP1 SWAP4 SWAP3 SWAP2 SWAP1 DUP2 DUP2 MSTORE PUSH1 0x20 ADD DUP4 DUP4 PUSH1 0x20 MUL DUP1 DUP3 DUP5 CALLDATACOPY PUSH1 0x0 DUP2 DUP5 ADD MSTORE PUSH1 0x1F NOT PUSH1 0x1F DUP3 ADD AND SWAP1 POP DUP1 DUP4 ADD SWAP3 POP POP POP POP POP POP POP PUSH1 0xF SLOAD DUP4 PUSH2 0x207E JUMP JUMPDEST PUSH2 0x1112 JUMPI PUSH1 0x40 MLOAD PUSH32 0x8C379A000000000000000000000000000000000000000000000000000000000 DUP2 MSTORE PUSH1 0x4 ADD PUSH2 0x1109 SWAP1 PUSH2 0x35AB JUMP JUMPDEST PUSH1 0x40 MLOAD DUP1 SWAP2 SUB SWAP1 REVERT JUMPDEST PUSH1 0x0 PUSH1 0x12 PUSH1 0x0 CALLER PUSH20 0xFFFFFFFFFFFFFFFFFFFFFFFFFFFFFFFFFFFFFFFF AND PUSH20 0xFFFFFFFFFFFFFFFFFFFFFFFFFFFFFFFFFFFFFFFF AND DUP2 MSTORE PUSH1 0x20 ADD SWAP1 DUP2 MSTORE PUSH1 0x20 ADD PUSH1 0x0 KECCAK256 SLOAD SWAP1 POP DUP5 DUP7 DUP3 PUSH2 0x1163 SWAP2 SWAP1 PUSH2 0x340B JUMP JUMPDEST GT ISZERO PUSH2 0x11A4 JUMPI PUSH1 0x40 MLOAD PUSH32 0x8C379A000000000000000000000000000000000000000000000000000000000 DUP2 MSTORE PUSH1 0x4 ADD PUSH2 0x119B SWAP1 PUSH2 0x3617 JUMP JUMPDEST PUSH1 0x40 MLOAD DUP1 SWAP2 SUB SWAP1 REVERT JUMPDEST DUP6 PUSH1 0x12 PUSH1 0x0 CALLER PUSH20 0xFFFFFFFFFFFFFFFFFFFFFFFFFFFFFFFFFFFFFFFF AND PUSH20 0xFFFFFFFFFFFFFFFFFFFFFFFFFFFFFFFFFFFFFFFF AND DUP2 MSTORE PUSH1 0x20 ADD SWAP1 DUP2 MSTORE PUSH1 0x20 ADD PUSH1 0x0 KECCAK256 PUSH1 0x0 DUP3 DUP3 SLOAD PUSH2 0x11F3 SWAP2 SWAP1 PUSH2 0x340B JUMP JUMPDEST SWAP3 POP POP DUP2 SWAP1 SSTORE POP PUSH2 0x1204 DUP7 CALLER PUSH2 0x2095 JUMP JUMPDEST POP POP PUSH2 0x120E PUSH2 0x237D JUMP JUMPDEST POP POP POP POP JUMP JUMPDEST PUSH1 0xD SLOAD DUP2 JUMP JUMPDEST PUSH1 0x8 SLOAD DUP2 JUMP JUMPDEST PUSH2 0x1228 PUSH2 0x1FB1 JUMP JUMPDEST DUP1 PUSH1 0xA DUP2 SWAP1 SSTORE POP POP JUMP JUMPDEST PUSH1 0x12 PUSH1 0x20 MSTORE DUP1 PUSH1 0x0 MSTORE PUSH1 0x40 PUSH1 0x0 KECCAK256 PUSH1 0x0 SWAP2 POP SWAP1 POP SLOAD DUP2 JUMP JUMPDEST PUSH2 0x1252 PUSH2 0x1FB1 JUMP JUMPDEST DUP1 PUSH1 0xB DUP2 SWAP1 SSTORE POP POP JUMP JUMPDEST PUSH2 0x1264 PUSH2 0x1FB1 JUMP JUMPDEST PUSH2 0x126E PUSH1 0x0 PUSH2 0x2386 JUMP JUMPDEST JUMP JUMPDEST PUSH2 0x1278 PUSH2 0x1FB1 JUMP JUMPDEST PUSH1 0x0 PUSH1 0x3 PUSH1 0x0 SWAP1 SLOAD SWAP1 PUSH2 0x100 EXP SWAP1 DIV PUSH20 0xFFFFFFFFFFFFFFFFFFFFFFFFFFFFFFFFFFFFFFFF AND PUSH20 0xFFFFFFFFFFFFFFFFFFFFFFFFFFFFFFFFFFFFFFFF AND SELFBALANCE PUSH1 0x40 MLOAD PUSH2 0x12C0 SWAP1 PUSH2 0x334A JUMP JUMPDEST PUSH1 0x0 PUSH1 0x40 MLOAD DUP1 DUP4 SUB DUP2 DUP6 DUP8 GAS CALL SWAP3 POP POP POP RETURNDATASIZE DUP1 PUSH1 0x0 DUP2 EQ PUSH2 0x12FD JUMPI PUSH1 0x40 MLOAD SWAP2 POP PUSH1 0x1F NOT PUSH1 0x3F RETURNDATASIZE ADD AND DUP3 ADD PUSH1 0x40 MSTORE RETURNDATASIZE DUP3 MSTORE RETURNDATASIZE PUSH1 0x0 PUSH1 0x20 DUP5 ADD RETURNDATACOPY PUSH2 0x1302 JUMP JUMPDEST PUSH1 0x60 SWAP2 POP JUMPDEST POP POP SWAP1 POP DUP1 PUSH2 0x1346 JUMPI PUSH1 0x40 MLOAD PUSH32 0x8C379A000000000000000000000000000000000000000000000000000000000 DUP2 MSTORE PUSH1 0x4 ADD PUSH2 0x133D SWAP1 PUSH2 0x3683 JUMP JUMPDEST PUSH1 0x40 MLOAD DUP1 SWAP2 SUB SWAP1 REVERT JUMPDEST POP JUMP JUMPDEST PUSH2 0x1351 PUSH2 0x1FB1 JUMP JUMPDEST DUP1 PUSH1 0x3 PUSH1 0x0 PUSH2 0x100 EXP DUP2 SLOAD DUP2 PUSH20 0xFFFFFFFFFFFFFFFFFFFFFFFFFFFFFFFFFFFFFFFF MUL NOT AND SWAP1 DUP4 PUSH20 0xFFFFFFFFFFFFFFFFFFFFFFFFFFFFFFFFFFFFFFFF AND MUL OR SWAP1 SSTORE POP POP JUMP JUMPDEST PUSH1 0x0 PUSH1 0xA SLOAD TIMESTAMP LT ISZERO SWAP1 POP SWAP1 JUMP JUMPDEST PUSH1 0xC SLOAD DUP2 JUMP JUMPDEST PUSH1 0x0 DUP1 PUSH1 0x0 SWAP1 SLOAD SWAP1 PUSH2 0x100 EXP SWAP1 DIV PUSH20 0xFFFFFFFFFFFFFFFFFFFFFFFFFFFFFFFFFFFFFFFF AND SWAP1 POP SWAP1 JUMP JUMPDEST PUSH2 0x13D9 PUSH2 0x1FB1 JUMP JUMPDEST PUSH2 0x13E1 PUSH2 0x1422 JUMP JUMPDEST ISZERO PUSH2 0x1418 JUMPI PUSH1 0x40 MLOAD PUSH32 0xF2A84B6300000000000000000000000000000000000000000000000000000000 DUP2 MSTORE PUSH1 0x4 ADD PUSH1 0x40 MLOAD DUP1 SWAP2 SUB SWAP1 REVERT JUMPDEST DUP1 PUSH1 0x9 DUP2 SWAP1 SSTORE POP POP JUMP JUMPDEST PUSH1 0x0 PUSH1 0xB SLOAD TIMESTAMP LT ISZERO SWAP1 POP SWAP1 JUMP JUMPDEST PUSH1 0x7 DUP2 DUP2 SLOAD DUP2 LT PUSH2 0x143F JUMPI PUSH1 0x0 DUP1 REVERT JUMPDEST SWAP1 PUSH1 0x0 MSTORE PUSH1 0x20 PUSH1 0x0 KECCAK256 ADD PUSH1 0x0 SWAP2 POP SWAP1 POP SLOAD DUP2 JUMP JUMPDEST PUSH2 0x145B PUSH2 0x1FB1 JUMP JUMPDEST PUSH1 0x0 PUSH20 0xFFFFFFFFFFFFFFFFFFFFFFFFFFFFFFFFFFFFFFFF AND CALLER PUSH20 0xFFFFFFFFFFFFFFFFFFFFFFFFFFFFFFFFFFFFFFFF AND SUB PUSH2 0x14C1 JUMPI PUSH1 0x40 MLOAD PUSH32 0x48AC165200000000000000000000000000000000000000000000000000000000 DUP2 MSTORE PUSH1 0x4 ADD PUSH1 0x40 MLOAD DUP1 SWAP2 SUB SWAP1 REVERT JUMPDEST DUP2 PUSH20 0xFFFFFFFFFFFFFFFFFFFFFFFFFFFFFFFFFFFFFFFF AND PUSH4 0xA9059CBB CALLER DUP4 PUSH1 0x40 MLOAD DUP4 PUSH4 0xFFFFFFFF AND PUSH1 0xE0 SHL DUP2 MSTORE PUSH1 0x4 ADD PUSH2 0x14FC SWAP3 SWAP2 SWAP1 PUSH2 0x36A3 JUMP JUMPDEST PUSH1 0x20 PUSH1 0x40 MLOAD DUP1 DUP4 SUB DUP2 PUSH1 0x0 DUP8 GAS CALL ISZERO DUP1 ISZERO PUSH2 0x151B JUMPI RETURNDATASIZE PUSH1 0x0 DUP1 RETURNDATACOPY RETURNDATASIZE PUSH1 0x0 REVERT JUMPDEST POP POP POP POP PUSH1 0x40 MLOAD RETURNDATASIZE PUSH1 0x1F NOT PUSH1 0x1F DUP3 ADD AND DUP3 ADD DUP1 PUSH1 0x40 MSTORE POP DUP2 ADD SWAP1 PUSH2 0x153F SWAP2 SWAP1 PUSH2 0x36F8 JUMP JUMPDEST POP POP POP JUMP JUMPDEST PUSH2 0x154C PUSH2 0x1FB1 JUMP JUMPDEST DUP2 DUP2 SWAP1 POP DUP5 DUP5 SWAP1 POP EQ PUSH2 0x1594 JUMPI PUSH1 0x40 MLOAD PUSH32 0x8C379A000000000000000000000000000000000000000000000000000000000 DUP2 MSTORE PUSH1 0x4 ADD PUSH2 0x158B SWAP1 PUSH2 0x3797 JUMP JUMPDEST PUSH1 0x40 MLOAD DUP1 SWAP2 SUB SWAP1 REVERT JUMPDEST PUSH1 0x0 JUMPDEST DUP3 DUP3 SWAP1 POP DUP2 LT ISZERO PUSH2 0x1827 JUMPI PUSH1 0x0 ISZERO ISZERO PUSH2 0x15D6 DUP5 DUP5 DUP5 DUP2 DUP2 LT PUSH2 0x15BC JUMPI PUSH2 0x15BB PUSH2 0x32EA JUMP JUMPDEST JUMPDEST SWAP1 POP PUSH1 0x20 MUL ADD PUSH1 0x20 DUP2 ADD SWAP1 PUSH2 0x15D1 SWAP2 SWAP1 PUSH2 0x2E9C JUMP JUMPDEST PUSH2 0x244A JUMP JUMPDEST ISZERO ISZERO EQ PUSH2 0x1618 JUMPI PUSH1 0x40 MLOAD PUSH32 0x8C379A000000000000000000000000000000000000000000000000000000000 DUP2 MSTORE PUSH1 0x4 ADD PUSH2 0x160F SWAP1 PUSH2 0x3803 JUMP JUMPDEST PUSH1 0x40 MLOAD DUP1 SWAP2 SUB SWAP1 REVERT JUMPDEST PUSH1 0x0 PUSH2 0x164A DUP7 DUP7 DUP5 DUP2 DUP2 LT PUSH2 0x1630 JUMPI PUSH2 0x162F PUSH2 0x32EA JUMP JUMPDEST JUMPDEST SWAP1 POP PUSH1 0x20 MUL ADD PUSH1 0x20 DUP2 ADD SWAP1 PUSH2 0x1645 SWAP2 SWAP1 PUSH2 0x3848 JUMP JUMPDEST PUSH2 0x24F8 JUMP JUMPDEST SWAP1 POP PUSH1 0x10 PUSH1 0x0 DUP8 DUP8 DUP6 DUP2 DUP2 LT PUSH2 0x1663 JUMPI PUSH2 0x1662 PUSH2 0x32EA JUMP JUMPDEST JUMPDEST SWAP1 POP PUSH1 0x20 MUL ADD PUSH1 0x20 DUP2 ADD SWAP1 PUSH2 0x1678 SWAP2 SWAP1 PUSH2 0x3848 JUMP JUMPDEST PUSH1 0x7 DUP2 GT ISZERO PUSH2 0x168A JUMPI PUSH2 0x1689 PUSH2 0x3875 JUMP JUMPDEST JUMPDEST DUP2 MSTORE PUSH1 0x20 ADD SWAP1 DUP2 MSTORE PUSH1 0x20 ADD PUSH1 0x0 KECCAK256 PUSH1 0x0 DUP2 SLOAD PUSH2 0x16A5 SWAP1 PUSH2 0x38A4 JUMP JUMPDEST SWAP2 SWAP1 POP DUP2 SWAP1 SSTORE POP PUSH1 0x2 PUSH1 0x0 SWAP1 SLOAD SWAP1 PUSH2 0x100 EXP SWAP1 DIV PUSH20 0xFFFFFFFFFFFFFFFFFFFFFFFFFFFFFFFFFFFFFFFF AND PUSH20 0xFFFFFFFFFFFFFFFFFFFFFFFFFFFFFFFFFFFFFFFF AND PUSH4 0x86EBF010 DUP6 DUP6 DUP6 DUP2 DUP2 LT PUSH2 0x16FD JUMPI PUSH2 0x16FC PUSH2 0x32EA JUMP JUMPDEST JUMPDEST SWAP1 POP PUSH1 0x20 MUL ADD PUSH1 0x20 DUP2 ADD SWAP1 PUSH2 0x1712 SWAP2 SWAP1 PUSH2 0x2E9C JUMP JUMPDEST DUP4 DUP10 DUP10 DUP8 DUP2 DUP2 LT PUSH2 0x1726 JUMPI PUSH2 0x1725 PUSH2 0x32EA JUMP JUMPDEST JUMPDEST SWAP1 POP PUSH1 0x20 MUL ADD PUSH1 0x20 DUP2 ADD SWAP1 PUSH2 0x173B SWAP2 SWAP1 PUSH2 0x3848 JUMP JUMPDEST PUSH1 0x40 MLOAD DUP5 PUSH4 0xFFFFFFFF AND PUSH1 0xE0 SHL DUP2 MSTORE PUSH1 0x4 ADD PUSH2 0x1759 SWAP4 SWAP3 SWAP2 SWAP1 PUSH2 0x3934 JUMP JUMPDEST PUSH1 0x0 PUSH1 0x40 MLOAD DUP1 DUP4 SUB DUP2 PUSH1 0x0 DUP8 DUP1 EXTCODESIZE ISZERO DUP1 ISZERO PUSH2 0x1773 JUMPI PUSH1 0x0 DUP1 REVERT JUMPDEST POP GAS CALL ISZERO DUP1 ISZERO PUSH2 0x1787 JUMPI RETURNDATASIZE PUSH1 0x0 DUP1 RETURNDATACOPY RETURNDATASIZE PUSH1 0x0 REVERT JUMPDEST POP POP POP POP PUSH1 0x13 DUP5 DUP5 DUP5 DUP2 DUP2 LT PUSH2 0x17A0 JUMPI PUSH2 0x179F PUSH2 0x32EA JUMP JUMPDEST JUMPDEST SWAP1 POP PUSH1 0x20 MUL ADD PUSH1 0x20 DUP2 ADD SWAP1 PUSH2 0x17B5 SWAP2 SWAP1 PUSH2 0x2E9C JUMP JUMPDEST SWAP1 DUP1 PUSH1 0x1 DUP2 SLOAD ADD DUP1 DUP3 SSTORE DUP1 SWAP2 POP POP PUSH1 0x1 SWAP1 SUB SWAP1 PUSH1 0x0 MSTORE PUSH1 0x20 PUSH1 0x0 KECCAK256 ADD PUSH1 0x0 SWAP1 SWAP2 SWAP1 SWAP2 SWAP1 SWAP2 PUSH2 0x100 EXP DUP2 SLOAD DUP2 PUSH20 0xFFFFFFFFFFFFFFFFFFFFFFFFFFFFFFFFFFFFFFFF MUL NOT AND SWAP1 DUP4 PUSH20 0xFFFFFFFFFFFFFFFFFFFFFFFFFFFFFFFFFFFFFFFF AND MUL OR SWAP1 SSTORE POP POP DUP1 PUSH2 0x1820 SWAP1 PUSH2 0x38A4 JUMP JUMPDEST SWAP1 POP PUSH2 0x1597 JUMP JUMPDEST POP POP POP POP POP JUMP JUMPDEST PUSH2 0x1836 PUSH2 0x202F JUMP JUMPDEST PUSH2 0x183F DUP2 PUSH2 0x2733 JUMP JUMPDEST PUSH2 0x1847 PUSH2 0x237D JUMP JUMPDEST POP JUMP JUMPDEST PUSH1 0x0 PUSH1 0x9 SLOAD SWAP1 POP SWAP1 JUMP JUMPDEST PUSH2 0x185C PUSH2 0x1FB1 JUMP JUMPDEST PUSH2 0x1864 PUSH2 0x1422 JUMP JUMPDEST ISZERO PUSH2 0x189B JUMPI PUSH1 0x40 MLOAD PUSH32 0xF2A84B6300000000000000000000000000000000000000000000000000000000 DUP2 MSTORE PUSH1 0x4 ADD PUSH1 0x40 MLOAD DUP1 SWAP2 SUB SWAP1 REVERT JUMPDEST DUP1 PUSH1 0x8 DUP2 SWAP1 SSTORE POP POP JUMP JUMPDEST PUSH1 0x0 DUP1 PUSH1 0x4 SLOAD SWAP1 POP PUSH1 0x10 PUSH1 0x0 PUSH1 0x7 DUP2 MSTORE PUSH1 0x20 ADD SWAP1 DUP2 MSTORE PUSH1 0x20 ADD PUSH1 0x0 KECCAK256 SLOAD PUSH1 0x10 PUSH1 0x0 PUSH1 0x6 DUP2 MSTORE PUSH1 0x20 ADD SWAP1 DUP2 MSTORE PUSH1 0x20 ADD PUSH1 0x0 KECCAK256 SLOAD PUSH1 0x10 PUSH1 0x0 PUSH1 0x5 DUP2 MSTORE PUSH1 0x20 ADD SWAP1 DUP2 MSTORE PUSH1 0x20 ADD PUSH1 0x0 KECCAK256 SLOAD PUSH1 0x10 PUSH1 0x0 PUSH1 0x4 DUP2 MSTORE PUSH1 0x20 ADD SWAP1 DUP2 MSTORE PUSH1 0x20 ADD PUSH1 0x0 KECCAK256 SLOAD PUSH1 0x10 PUSH1 0x0 PUSH1 0x3 DUP2 MSTORE PUSH1 0x20 ADD SWAP1 DUP2 MSTORE PUSH1 0x20 ADD PUSH1 0x0 KECCAK256 SLOAD PUSH1 0x10 PUSH1 0x0 PUSH1 0x2 DUP2 MSTORE PUSH1 0x20 ADD SWAP1 DUP2 MSTORE PUSH1 0x20 ADD PUSH1 0x0 KECCAK256 SLOAD PUSH1 0x10 PUSH1 0x0 PUSH1 0x1 DUP2 MSTORE PUSH1 0x20 ADD SWAP1 DUP2 MSTORE PUSH1 0x20 ADD PUSH1 0x0 KECCAK256 SLOAD PUSH1 0x10 PUSH1 0x0 DUP1 DUP2 MSTORE PUSH1 0x20 ADD SWAP1 DUP2 MSTORE PUSH1 0x20 ADD PUSH1 0x0 KECCAK256 SLOAD PUSH2 0x195E SWAP2 SWAP1 PUSH2 0x340B JUMP JUMPDEST PUSH2 0x1968 SWAP2 SWAP1 PUSH2 0x340B JUMP JUMPDEST PUSH2 0x1972 SWAP2 SWAP1 PUSH2 0x340B JUMP JUMPDEST PUSH2 0x197C SWAP2 SWAP1 PUSH2 0x340B JUMP JUMPDEST PUSH2 0x1986 SWAP2 SWAP1 PUSH2 0x340B JUMP JUMPDEST PUSH2 0x1990 SWAP2 SWAP1 PUSH2 0x340B JUMP JUMPDEST PUSH2 0x199A SWAP2 SWAP1 PUSH2 0x340B JUMP JUMPDEST DUP2 PUSH2 0x19A5 SWAP2 SWAP1 PUSH2 0x396B JUMP JUMPDEST SWAP1 POP DUP1 SWAP2 POP POP SWAP1 JUMP JUMPDEST PUSH2 0x19B6 PUSH2 0x1FB1 JUMP JUMPDEST DUP1 PUSH1 0xE DUP2 SWAP1 SSTORE POP POP JUMP JUMPDEST PUSH2 0x19C8 PUSH2 0x1FB1 JUMP JUMPDEST PUSH1 0x8 DUP3 DUP3 SWAP1 POP EQ PUSH2 0x1A16 JUMPI DUP2 DUP2 SWAP1 POP PUSH1 0x8 PUSH1 0x40 MLOAD PUSH32 0x485D33A200000000000000000000000000000000000000000000000000000000 DUP2 MSTORE PUSH1 0x4 ADD PUSH2 0x1A0D SWAP3 SWAP2 SWAP1 PUSH2 0x39DA JUMP JUMPDEST PUSH1 0x40 MLOAD DUP1 SWAP2 SUB SWAP1 REVERT JUMPDEST PUSH2 0x1A1E PUSH2 0x1422 JUMP JUMPDEST ISZERO PUSH2 0x1A55 JUMPI PUSH1 0x40 MLOAD PUSH32 0xF2A84B6300000000000000000000000000000000000000000000000000000000 DUP2 MSTORE PUSH1 0x4 ADD PUSH1 0x40 MLOAD DUP1 SWAP2 SUB SWAP1 REVERT JUMPDEST DUP2 DUP2 PUSH1 0x7 SWAP2 SWAP1 PUSH2 0x1A66 SWAP3 SWAP2 SWAP1 PUSH2 0x29E1 JUMP JUMPDEST POP POP POP JUMP JUMPDEST PUSH2 0x1A73 PUSH2 0x1FB1 JUMP JUMPDEST DUP1 PUSH1 0xD DUP2 SWAP1 SSTORE POP POP JUMP JUMPDEST PUSH2 0x1A85 PUSH2 0x202F JUMP JUMPDEST PUSH2 0x1A8D PUSH2 0x1422 JUMP JUMPDEST PUSH2 0x1AD2 JUMPI PUSH1 0xB SLOAD TIMESTAMP PUSH1 0x40 MLOAD PUSH32 0x66803FC100000000000000000000000000000000000000000000000000000000 DUP2 MSTORE PUSH1 0x4 ADD PUSH2 0x1AC9 SWAP3 SWAP2 SWAP1 PUSH2 0x343F JUMP JUMPDEST PUSH1 0x40 MLOAD DUP1 SWAP2 SUB SWAP1 REVERT JUMPDEST PUSH1 0x0 DUP5 GT ISZERO DUP1 PUSH2 0x1AE2 JUMPI POP PUSH1 0x14 DUP5 GT JUMPDEST ISZERO PUSH2 0x1B19 JUMPI PUSH1 0x40 MLOAD PUSH32 0xCA02D6EB00000000000000000000000000000000000000000000000000000000 DUP2 MSTORE PUSH1 0x4 ADD PUSH1 0x40 MLOAD DUP1 SWAP2 SUB SWAP1 REVERT JUMPDEST PUSH1 0x0 CALLER DUP5 PUSH1 0x40 MLOAD PUSH1 0x20 ADD PUSH2 0x1B2E SWAP3 SWAP2 SWAP1 PUSH2 0x3528 JUMP JUMPDEST PUSH1 0x40 MLOAD PUSH1 0x20 DUP2 DUP4 SUB SUB DUP2 MSTORE SWAP1 PUSH1 0x40 MSTORE DUP1 MLOAD SWAP1 PUSH1 0x20 ADD KECCAK256 SWAP1 POP PUSH2 0x1B94 DUP4 DUP4 DUP1 DUP1 PUSH1 0x20 MUL PUSH1 0x20 ADD PUSH1 0x40 MLOAD SWAP1 DUP2 ADD PUSH1 0x40 MSTORE DUP1 SWAP4 SWAP3 SWAP2 SWAP1 DUP2 DUP2 MSTORE PUSH1 0x20 ADD DUP4 DUP4 PUSH1 0x20 MUL DUP1 DUP3 DUP5 CALLDATACOPY PUSH1 0x0 DUP2 DUP5 ADD MSTORE PUSH1 0x1F NOT PUSH1 0x1F DUP3 ADD AND SWAP1 POP DUP1 DUP4 ADD SWAP3 POP POP POP POP POP POP POP PUSH1 0xD SLOAD DUP4 PUSH2 0x207E JUMP JUMPDEST DUP1 PUSH2 0x1BE9 JUMPI POP PUSH2 0x1BE8 DUP4 DUP4 DUP1 DUP1 PUSH1 0x20 MUL PUSH1 0x20 ADD PUSH1 0x40 MLOAD SWAP1 DUP2 ADD PUSH1 0x40 MSTORE DUP1 SWAP4 SWAP3 SWAP2 SWAP1 DUP2 DUP2 MSTORE PUSH1 0x20 ADD DUP4 DUP4 PUSH1 0x20 MUL DUP1 DUP3 DUP5 CALLDATACOPY PUSH1 0x0 DUP2 DUP5 ADD MSTORE PUSH1 0x1F NOT PUSH1 0x1F DUP3 ADD AND SWAP1 POP DUP1 DUP4 ADD SWAP3 POP POP POP POP POP POP POP PUSH1 0xE SLOAD DUP4 PUSH2 0x207E JUMP JUMPDEST JUMPDEST PUSH2 0x1C28 JUMPI PUSH1 0x40 MLOAD PUSH32 0x8C379A000000000000000000000000000000000000000000000000000000000 DUP2 MSTORE PUSH1 0x4 ADD PUSH2 0x1C1F SWAP1 PUSH2 0x35AB JUMP JUMPDEST PUSH1 0x40 MLOAD DUP1 SWAP2 SUB SWAP1 REVERT JUMPDEST PUSH1 0x0 PUSH1 0x11 PUSH1 0x0 CALLER PUSH20 0xFFFFFFFFFFFFFFFFFFFFFFFFFFFFFFFFFFFFFFFF AND PUSH20 0xFFFFFFFFFFFFFFFFFFFFFFFFFFFFFFFFFFFFFFFF AND DUP2 MSTORE PUSH1 0x20 ADD SWAP1 DUP2 MSTORE PUSH1 0x20 ADD PUSH1 0x0 KECCAK256 SLOAD SWAP1 POP DUP5 DUP7 DUP3 PUSH2 0x1C79 SWAP2 SWAP1 PUSH2 0x340B JUMP JUMPDEST GT ISZERO PUSH2 0x1CBA JUMPI PUSH1 0x40 MLOAD PUSH32 0x8C379A000000000000000000000000000000000000000000000000000000000 DUP2 MSTORE PUSH1 0x4 ADD PUSH2 0x1CB1 SWAP1 PUSH2 0x3A4F JUMP JUMPDEST PUSH1 0x40 MLOAD DUP1 SWAP2 SUB SWAP1 REVERT JUMPDEST DUP6 PUSH1 0x11 PUSH1 0x0 CALLER PUSH20 0xFFFFFFFFFFFFFFFFFFFFFFFFFFFFFFFFFFFFFFFF AND PUSH20 0xFFFFFFFFFFFFFFFFFFFFFFFFFFFFFFFFFFFFFFFF AND DUP2 MSTORE PUSH1 0x20 ADD SWAP1 DUP2 MSTORE PUSH1 0x20 ADD PUSH1 0x0 KECCAK256 PUSH1 0x0 DUP3 DUP3 SLOAD PUSH2 0x1D09 SWAP2 SWAP1 PUSH2 0x340B JUMP JUMPDEST SWAP3 POP POP DUP2 SWAP1 SSTORE POP PUSH2 0x1D1A DUP7 CALLER PUSH2 0x27D4 JUMP JUMPDEST POP POP PUSH2 0x1D24 PUSH2 0x237D JUMP JUMPDEST POP POP POP POP JUMP JUMPDEST PUSH1 0xA SLOAD DUP2 JUMP JUMPDEST PUSH2 0x1D38 PUSH2 0x1FB1 JUMP JUMPDEST PUSH1 0x0 DUP1 JUMPDEST DUP4 DUP4 SWAP1 POP DUP2 LT ISZERO PUSH2 0x1D81 JUMPI DUP4 DUP4 DUP3 DUP2 DUP2 LT PUSH2 0x1D5A JUMPI PUSH2 0x1D59 PUSH2 0x32EA JUMP JUMPDEST JUMPDEST SWAP1 POP PUSH1 0x20 MUL ADD CALLDATALOAD DUP3 PUSH2 0x1D6C SWAP2 SWAP1 PUSH2 0x340B JUMP JUMPDEST SWAP2 POP DUP1 DUP1 PUSH2 0x1D79 SWAP1 PUSH2 0x38A4 JUMP JUMPDEST SWAP2 POP POP PUSH2 0x1D3C JUMP JUMPDEST POP PUSH1 0x64 DUP2 EQ PUSH2 0x1DCA JUMPI DUP1 PUSH1 0x64 PUSH1 0x40 MLOAD PUSH32 0x485D33A200000000000000000000000000000000000000000000000000000000 DUP2 MSTORE PUSH1 0x4 ADD PUSH2 0x1DC1 SWAP3 SWAP2 SWAP1 PUSH2 0x3AAA JUMP JUMPDEST PUSH1 0x40 MLOAD DUP1 SWAP2 SUB SWAP1 REVERT JUMPDEST PUSH1 0x8 DUP4 DUP4 SWAP1 POP EQ PUSH2 0x1E18 JUMPI DUP3 DUP3 SWAP1 POP PUSH1 0x8 PUSH1 0x40 MLOAD PUSH32 0x485D33A200000000000000000000000000000000000000000000000000000000 DUP2 MSTORE PUSH1 0x4 ADD PUSH2 0x1E0F SWAP3 SWAP2 SWAP1 PUSH2 0x39DA JUMP JUMPDEST PUSH1 0x40 MLOAD DUP1 SWAP2 SUB SWAP1 REVERT JUMPDEST PUSH2 0x1E20 PUSH2 0x1422 JUMP JUMPDEST ISZERO PUSH2 0x1E57 JUMPI PUSH1 0x40 MLOAD PUSH32 0xF2A84B6300000000000000000000000000000000000000000000000000000000 DUP2 MSTORE PUSH1 0x4 ADD PUSH1 0x40 MLOAD DUP1 SWAP2 SUB SWAP1 REVERT JUMPDEST DUP3 DUP3 PUSH1 0x6 SWAP2 SWAP1 PUSH2 0x1E68 SWAP3 SWAP2 SWAP1 PUSH2 0x29E1 JUMP JUMPDEST POP POP POP POP JUMP JUMPDEST PUSH2 0x1E76 PUSH2 0x1FB1 JUMP JUMPDEST DUP1 PUSH1 0x2 PUSH1 0x0 PUSH2 0x100 EXP DUP2 SLOAD DUP2 PUSH20 0xFFFFFFFFFFFFFFFFFFFFFFFFFFFFFFFFFFFFFFFF MUL NOT AND SWAP1 DUP4 PUSH20 0xFFFFFFFFFFFFFFFFFFFFFFFFFFFFFFFFFFFFFFFF AND MUL OR SWAP1 SSTORE POP POP JUMP JUMPDEST PUSH1 0x0 PUSH1 0x4 SLOAD SWAP1 POP SWAP1 JUMP JUMPDEST PUSH1 0x11 PUSH1 0x20 MSTORE DUP1 PUSH1 0x0 MSTORE PUSH1 0x40 PUSH1 0x0 KECCAK256 PUSH1 0x0 SWAP2 POP SWAP1 POP SLOAD DUP2 JUMP JUMPDEST PUSH1 0x2 PUSH1 0x0 SWAP1 SLOAD SWAP1 PUSH2 0x100 EXP SWAP1 DIV PUSH20 0xFFFFFFFFFFFFFFFFFFFFFFFFFFFFFFFFFFFFFFFF AND DUP2 JUMP JUMPDEST PUSH2 0x1F0A PUSH2 0x1FB1 JUMP JUMPDEST PUSH1 0x0 PUSH20 0xFFFFFFFFFFFFFFFFFFFFFFFFFFFFFFFFFFFFFFFF AND DUP2 PUSH20 0xFFFFFFFFFFFFFFFFFFFFFFFFFFFFFFFFFFFFFFFF AND SUB PUSH2 0x1F79 JUMPI PUSH1 0x40 MLOAD PUSH32 0x8C379A000000000000000000000000000000000000000000000000000000000 DUP2 MSTORE PUSH1 0x4 ADD PUSH2 0x1F70 SWAP1 PUSH2 0x3B45 JUMP JUMPDEST PUSH1 0x40 MLOAD DUP1 SWAP2 SUB SWAP1 REVERT JUMPDEST PUSH2 0x1F82 DUP2 PUSH2 0x2386 JUMP JUMPDEST POP JUMP JUMPDEST PUSH1 0xB SLOAD DUP2 JUMP JUMPDEST PUSH1 0x3 PUSH1 0x0 SWAP1 SLOAD SWAP1 PUSH2 0x100 EXP SWAP1 DIV PUSH20 0xFFFFFFFFFFFFFFFFFFFFFFFFFFFFFFFFFFFFFFFF AND DUP2 JUMP JUMPDEST PUSH2 0x1FB9 PUSH2 0x286D JUMP JUMPDEST PUSH20 0xFFFFFFFFFFFFFFFFFFFFFFFFFFFFFFFFFFFFFFFF AND PUSH2 0x1FD7 PUSH2 0x13A8 JUMP JUMPDEST PUSH20 0xFFFFFFFFFFFFFFFFFFFFFFFFFFFFFFFFFFFFFFFF AND EQ PUSH2 0x202D JUMPI PUSH1 0x40 MLOAD PUSH32 0x8C379A000000000000000000000000000000000000000000000000000000000 DUP2 MSTORE PUSH1 0x4 ADD PUSH2 0x2024 SWAP1 PUSH2 0x3BB1 JUMP JUMPDEST PUSH1 0x40 MLOAD DUP1 SWAP2 SUB SWAP1 REVERT JUMPDEST JUMP JUMPDEST PUSH1 0x2 PUSH1 0x1 SLOAD SUB PUSH2 0x2074 JUMPI PUSH1 0x40 MLOAD PUSH32 0x8C379A000000000000000000000000000000000000000000000000000000000 DUP2 MSTORE PUSH1 0x4 ADD PUSH2 0x206B SWAP1 PUSH2 0x3C1D JUMP JUMPDEST PUSH1 0x40 MLOAD DUP1 SWAP2 SUB SWAP1 REVERT JUMPDEST PUSH1 0x2 PUSH1 0x1 DUP2 SWAP1 SSTORE POP JUMP JUMPDEST PUSH1 0x0 DUP3 PUSH2 0x208B DUP6 DUP5 PUSH2 0x2875 JUMP JUMPDEST EQ SWAP1 POP SWAP4 SWAP3 POP POP POP JUMP JUMPDEST ADDRESS PUSH20 0xFFFFFFFFFFFFFFFFFFFFFFFFFFFFFFFFFFFFFFFF AND PUSH4 0xB9A43F2E PUSH1 0x40 MLOAD DUP2 PUSH4 0xFFFFFFFF AND PUSH1 0xE0 SHL DUP2 MSTORE PUSH1 0x4 ADD PUSH1 0x20 PUSH1 0x40 MLOAD DUP1 DUP4 SUB DUP2 DUP7 GAS STATICCALL ISZERO DUP1 ISZERO PUSH2 0x20E0 JUMPI RETURNDATASIZE PUSH1 0x0 DUP1 RETURNDATACOPY RETURNDATASIZE PUSH1 0x0 REVERT JUMPDEST POP POP POP POP PUSH1 0x40 MLOAD RETURNDATASIZE PUSH1 0x1F NOT PUSH1 0x1F DUP3 ADD AND DUP3 ADD DUP1 PUSH1 0x40 MSTORE POP DUP2 ADD SWAP1 PUSH2 0x2104 SWAP2 SWAP1 PUSH2 0x3C52 JUMP JUMPDEST DUP3 ADDRESS PUSH20 0xFFFFFFFFFFFFFFFFFFFFFFFFFFFFFFFFFFFFFFFF AND PUSH4 0x46BF289F PUSH1 0x40 MLOAD DUP2 PUSH4 0xFFFFFFFF AND PUSH1 0xE0 SHL DUP2 MSTORE PUSH1 0x4 ADD PUSH1 0x20 PUSH1 0x40 MLOAD DUP1 DUP4 SUB DUP2 DUP7 GAS STATICCALL ISZERO DUP1 ISZERO PUSH2 0x2150 JUMPI RETURNDATASIZE PUSH1 0x0 DUP1 RETURNDATACOPY RETURNDATASIZE PUSH1 0x0 REVERT JUMPDEST POP POP POP POP PUSH1 0x40 MLOAD RETURNDATASIZE PUSH1 0x1F NOT PUSH1 0x1F DUP3 ADD AND DUP3 ADD DUP1 PUSH1 0x40 MSTORE POP DUP2 ADD SWAP1 PUSH2 0x2174 SWAP2 SWAP1 PUSH2 0x3C52 JUMP JUMPDEST PUSH2 0x217E SWAP2 SWAP1 PUSH2 0x340B JUMP JUMPDEST GT ISZERO PUSH2 0x21BF JUMPI PUSH1 0x40 MLOAD PUSH32 0x8C379A000000000000000000000000000000000000000000000000000000000 DUP2 MSTORE PUSH1 0x4 ADD PUSH2 0x21B6 SWAP1 PUSH2 0x3CCB JUMP JUMPDEST PUSH1 0x40 MLOAD DUP1 SWAP2 SUB SWAP1 REVERT JUMPDEST PUSH1 0x0 JUMPDEST DUP3 DUP2 LT ISZERO PUSH2 0x2378 JUMPI PUSH1 0x0 ISZERO ISZERO PUSH2 0x21D7 DUP4 PUSH2 0x244A JUMP JUMPDEST ISZERO ISZERO EQ PUSH2 0x2219 JUMPI PUSH1 0x40 MLOAD PUSH32 0x8C379A000000000000000000000000000000000000000000000000000000000 DUP2 MSTORE PUSH1 0x4 ADD PUSH2 0x2210 SWAP1 PUSH2 0x3803 JUMP JUMPDEST PUSH1 0x40 MLOAD DUP1 SWAP2 SUB SWAP1 REVERT JUMPDEST PUSH1 0x0 PUSH2 0x2223 PUSH2 0x28CB JUMP JUMPDEST SWAP1 POP PUSH1 0x0 DUP2 PUSH1 0x7 DUP2 GT ISZERO PUSH2 0x223A JUMPI PUSH2 0x2239 PUSH2 0x3875 JUMP JUMPDEST JUMPDEST SWAP1 POP PUSH1 0x0 PUSH2 0x2247 DUP3 PUSH2 0x24F8 JUMP JUMPDEST SWAP1 POP PUSH1 0x10 PUSH1 0x0 DUP5 DUP2 MSTORE PUSH1 0x20 ADD SWAP1 DUP2 MSTORE PUSH1 0x20 ADD PUSH1 0x0 KECCAK256 PUSH1 0x0 DUP2 SLOAD PUSH2 0x2269 SWAP1 PUSH2 0x38A4 JUMP JUMPDEST SWAP2 SWAP1 POP DUP2 SWAP1 SSTORE POP PUSH1 0x2 PUSH1 0x0 SWAP1 SLOAD SWAP1 PUSH2 0x100 EXP SWAP1 DIV PUSH20 0xFFFFFFFFFFFFFFFFFFFFFFFFFFFFFFFFFFFFFFFF AND PUSH20 0xFFFFFFFFFFFFFFFFFFFFFFFFFFFFFFFFFFFFFFFF AND PUSH4 0x86EBF010 DUP7 DUP4 DUP6 PUSH1 0x40 MLOAD DUP5 PUSH4 0xFFFFFFFF AND PUSH1 0xE0 SHL DUP2 MSTORE PUSH1 0x4 ADD PUSH2 0x22CF SWAP4 SWAP3 SWAP2 SWAP1 PUSH2 0x3934 JUMP JUMPDEST PUSH1 0x0 PUSH1 0x40 MLOAD DUP1 DUP4 SUB DUP2 PUSH1 0x0 DUP8 DUP1 EXTCODESIZE ISZERO DUP1 ISZERO PUSH2 0x22E9 JUMPI PUSH1 0x0 DUP1 REVERT JUMPDEST POP GAS CALL ISZERO DUP1 ISZERO PUSH2 0x22FD JUMPI RETURNDATASIZE PUSH1 0x0 DUP1 RETURNDATACOPY RETURNDATASIZE PUSH1 0x0 REVERT JUMPDEST POP POP POP POP PUSH1 0x13 DUP6 SWAP1 DUP1 PUSH1 0x1 DUP2 SLOAD ADD DUP1 DUP3 SSTORE DUP1 SWAP2 POP POP PUSH1 0x1 SWAP1 SUB SWAP1 PUSH1 0x0 MSTORE PUSH1 0x20 PUSH1 0x0 KECCAK256 ADD PUSH1 0x0 SWAP1 SWAP2 SWAP1 SWAP2 SWAP1 SWAP2 PUSH2 0x100 EXP DUP2 SLOAD DUP2 PUSH20 0xFFFFFFFFFFFFFFFFFFFFFFFFFFFFFFFFFFFFFFFF MUL NOT AND SWAP1 DUP4 PUSH20 0xFFFFFFFFFFFFFFFFFFFFFFFFFFFFFFFFFFFFFFFF AND MUL OR SWAP1 SSTORE POP POP POP POP DUP1 PUSH2 0x2371 SWAP1 PUSH2 0x38A4 JUMP JUMPDEST SWAP1 POP PUSH2 0x21C2 JUMP JUMPDEST POP POP POP JUMP JUMPDEST PUSH1 0x1 DUP1 DUP2 SWAP1 SSTORE POP JUMP JUMPDEST PUSH1 0x0 DUP1 PUSH1 0x0 SWAP1 SLOAD SWAP1 PUSH2 0x100 EXP SWAP1 DIV PUSH20 0xFFFFFFFFFFFFFFFFFFFFFFFFFFFFFFFFFFFFFFFF AND SWAP1 POP DUP2 PUSH1 0x0 DUP1 PUSH2 0x100 EXP DUP2 SLOAD DUP2 PUSH20 0xFFFFFFFFFFFFFFFFFFFFFFFFFFFFFFFFFFFFFFFF MUL NOT AND SWAP1 DUP4 PUSH20 0xFFFFFFFFFFFFFFFFFFFFFFFFFFFFFFFFFFFFFFFF AND MUL OR SWAP1 SSTORE POP DUP2 PUSH20 0xFFFFFFFFFFFFFFFFFFFFFFFFFFFFFFFFFFFFFFFF AND DUP2 PUSH20 0xFFFFFFFFFFFFFFFFFFFFFFFFFFFFFFFFFFFFFFFF AND PUSH32 0x8BE0079C531659141344CD1FD0A4F28419497F9722A3DAAFE3B4186F6B6457E0 PUSH1 0x40 MLOAD PUSH1 0x40 MLOAD DUP1 SWAP2 SUB SWAP1 LOG3 POP POP JUMP JUMPDEST PUSH1 0x0 DUP1 PUSH1 0x0 SWAP1 POP PUSH1 0x0 JUMPDEST PUSH1 0x13 DUP1 SLOAD SWAP1 POP DUP2 LT ISZERO PUSH2 0x24EE JUMPI PUSH1 0x13 DUP2 DUP2 SLOAD DUP2 LT PUSH2 0x2475 JUMPI PUSH2 0x2474 PUSH2 0x32EA JUMP JUMPDEST JUMPDEST SWAP1 PUSH1 0x0 MSTORE PUSH1 0x20 PUSH1 0x0 KECCAK256 ADD PUSH1 0x0 SWAP1 SLOAD SWAP1 PUSH2 0x100 EXP SWAP1 DIV PUSH20 0xFFFFFFFFFFFFFFFFFFFFFFFFFFFFFFFFFFFFFFFF AND PUSH20 0xFFFFFFFFFFFFFFFFFFFFFFFFFFFFFFFFFFFFFFFF AND DUP5 PUSH20 0xFFFFFFFFFFFFFFFFFFFFFFFFFFFFFFFFFFFFFFFF AND SUB PUSH2 0x24DB JUMPI PUSH1 0x1 SWAP2 POP PUSH2 0x24EE JUMP JUMPDEST DUP1 DUP1 PUSH2 0x24E6 SWAP1 PUSH2 0x38A4 JUMP JUMPDEST SWAP2 POP POP PUSH2 0x2454 JUMP JUMPDEST POP DUP1 SWAP2 POP POP SWAP2 SWAP1 POP JUMP JUMPDEST PUSH1 0x0 DUP1 PUSH1 0x8 SLOAD PUSH1 0x10 PUSH1 0x0 PUSH1 0x7 DUP2 MSTORE PUSH1 0x20 ADD SWAP1 DUP2 MSTORE PUSH1 0x20 ADD PUSH1 0x0 KECCAK256 SLOAD PUSH1 0x10 PUSH1 0x0 PUSH1 0x6 DUP2 MSTORE PUSH1 0x20 ADD SWAP1 DUP2 MSTORE PUSH1 0x20 ADD PUSH1 0x0 KECCAK256 SLOAD PUSH1 0x10 PUSH1 0x0 PUSH1 0x5 DUP2 MSTORE PUSH1 0x20 ADD SWAP1 DUP2 MSTORE PUSH1 0x20 ADD PUSH1 0x0 KECCAK256 SLOAD PUSH1 0x10 PUSH1 0x0 PUSH1 0x4 DUP2 MSTORE PUSH1 0x20 ADD SWAP1 DUP2 MSTORE PUSH1 0x20 ADD PUSH1 0x0 KECCAK256 SLOAD PUSH1 0x10 PUSH1 0x0 PUSH1 0x3 DUP2 MSTORE PUSH1 0x20 ADD SWAP1 DUP2 MSTORE PUSH1 0x20 ADD PUSH1 0x0 KECCAK256 SLOAD PUSH1 0x10 PUSH1 0x0 PUSH1 0x2 DUP2 MSTORE PUSH1 0x20 ADD SWAP1 DUP2 MSTORE PUSH1 0x20 ADD PUSH1 0x0 KECCAK256 SLOAD PUSH1 0x10 PUSH1 0x0 PUSH1 0x1 DUP2 MSTORE PUSH1 0x20 ADD SWAP1 DUP2 MSTORE PUSH1 0x20 ADD PUSH1 0x0 KECCAK256 SLOAD PUSH1 0x10 PUSH1 0x0 DUP1 DUP2 MSTORE PUSH1 0x20 ADD SWAP1 DUP2 MSTORE PUSH1 0x20 ADD PUSH1 0x0 KECCAK256 SLOAD PUSH2 0x25AF SWAP2 SWAP1 PUSH2 0x340B JUMP JUMPDEST PUSH2 0x25B9 SWAP2 SWAP1 PUSH2 0x340B JUMP JUMPDEST PUSH2 0x25C3 SWAP2 SWAP1 PUSH2 0x340B JUMP JUMPDEST PUSH2 0x25CD SWAP2 SWAP1 PUSH2 0x340B JUMP JUMPDEST PUSH2 0x25D7 SWAP2 SWAP1 PUSH2 0x340B JUMP JUMPDEST PUSH2 0x25E1 SWAP2 SWAP1 PUSH2 0x340B JUMP JUMPDEST PUSH2 0x25EB SWAP2 SWAP1 PUSH2 0x340B JUMP JUMPDEST PUSH2 0x25F5 SWAP2 SWAP1 PUSH2 0x340B JUMP JUMPDEST SWAP1 POP PUSH1 0x0 PUSH1 0x7 DUP5 PUSH1 0x7 DUP2 GT ISZERO PUSH2 0x260E JUMPI PUSH2 0x260D PUSH2 0x3875 JUMP JUMPDEST JUMPDEST DUP2 SLOAD DUP2 LT PUSH2 0x261F JUMPI PUSH2 0x261E PUSH2 0x32EA JUMP JUMPDEST JUMPDEST SWAP1 PUSH1 0x0 MSTORE PUSH1 0x20 PUSH1 0x0 KECCAK256 ADD SLOAD PUSH1 0x10 PUSH1 0x0 DUP7 PUSH1 0x7 DUP2 GT ISZERO PUSH2 0x2641 JUMPI PUSH2 0x2640 PUSH2 0x3875 JUMP JUMPDEST JUMPDEST DUP2 MSTORE PUSH1 0x20 ADD SWAP1 DUP2 MSTORE PUSH1 0x20 ADD PUSH1 0x0 KECCAK256 SLOAD PUSH2 0x265A SWAP2 SWAP1 PUSH2 0x340B JUMP JUMPDEST SWAP1 POP PUSH4 0xFFFFFFFF DUP2 GT ISZERO PUSH2 0x26A3 JUMPI PUSH1 0x40 MLOAD PUSH32 0x8C379A000000000000000000000000000000000000000000000000000000000 DUP2 MSTORE PUSH1 0x4 ADD PUSH2 0x269A SWAP1 PUSH2 0x3D37 JUMP JUMPDEST PUSH1 0x40 MLOAD DUP1 SWAP2 SUB SWAP1 REVERT JUMPDEST PUSH1 0xFF DUP5 PUSH1 0x7 DUP2 GT ISZERO PUSH2 0x26B8 JUMPI PUSH2 0x26B7 PUSH2 0x3875 JUMP JUMPDEST JUMPDEST GT ISZERO PUSH2 0x26F9 JUMPI PUSH1 0x40 MLOAD PUSH32 0x8C379A000000000000000000000000000000000000000000000000000000000 DUP2 MSTORE PUSH1 0x4 ADD PUSH2 0x26F0 SWAP1 PUSH2 0x3DA3 JUMP JUMPDEST PUSH1 0x40 MLOAD DUP1 SWAP2 SUB SWAP1 REVERT JUMPDEST DUP4 PUSH1 0x7 DUP2 GT ISZERO PUSH2 0x270C JUMPI PUSH2 0x270B PUSH2 0x3875 JUMP JUMPDEST JUMPDEST PUSH1 0x8 DUP3 SWAP1 SHL PUSH1 0x28 DUP5 SWAP1 SHL PUSH2 0x2720 SWAP2 SWAP1 PUSH2 0x340B JUMP JUMPDEST PUSH2 0x272A SWAP2 SWAP1 PUSH2 0x340B JUMP JUMPDEST SWAP3 POP POP POP SWAP2 SWAP1 POP JUMP JUMPDEST PUSH2 0x273B PUSH2 0x1395 JUMP JUMPDEST PUSH2 0x2780 JUMPI PUSH1 0xA SLOAD TIMESTAMP PUSH1 0x40 MLOAD PUSH32 0x66803FC100000000000000000000000000000000000000000000000000000000 DUP2 MSTORE PUSH1 0x4 ADD PUSH2 0x2777 SWAP3 SWAP2 SWAP1 PUSH2 0x343F JUMP JUMPDEST PUSH1 0x40 MLOAD DUP1 SWAP2 SUB SWAP1 REVERT JUMPDEST PUSH1 0x0 DUP2 GT ISZERO DUP1 PUSH2 0x2790 JUMPI POP PUSH1 0x14 DUP2 GT JUMPDEST ISZERO PUSH2 0x27C7 JUMPI PUSH1 0x40 MLOAD PUSH32 0xCA02D6EB00000000000000000000000000000000000000000000000000000000 DUP2 MSTORE PUSH1 0x4 ADD PUSH1 0x40 MLOAD DUP1 SWAP2 SUB SWAP1 REVERT JUMPDEST PUSH2 0x27D1 DUP2 CALLER PUSH2 0x27D4 JUMP JUMPDEST POP JUMP JUMPDEST PUSH1 0x0 PUSH1 0x9 SLOAD GT PUSH2 0x2810 JUMPI PUSH1 0x40 MLOAD PUSH32 0xC5FADBA600000000000000000000000000000000000000000000000000000000 DUP2 MSTORE PUSH1 0x4 ADD PUSH1 0x40 MLOAD DUP1 SWAP2 SUB SWAP1 REVERT JUMPDEST DUP2 PUSH1 0x9 SLOAD PUSH2 0x281E SWAP2 SWAP1 PUSH2 0x3DC3 JUMP JUMPDEST CALLVALUE EQ PUSH2 0x285F JUMPI PUSH1 0x40 MLOAD PUSH32 0x8C379A000000000000000000000000000000000000000000000000000000000 DUP2 MSTORE PUSH1 0x4 ADD PUSH2 0x2856 SWAP1 PUSH2 0x3E77 JUMP JUMPDEST PUSH1 0x40 MLOAD DUP1 SWAP2 SUB SWAP1 REVERT JUMPDEST PUSH2 0x2869 DUP3 DUP3 PUSH2 0x2095 JUMP JUMPDEST POP POP JUMP JUMPDEST PUSH1 0x0 CALLER SWAP1 POP SWAP1 JUMP JUMPDEST PUSH1 0x0 DUP1 DUP3 SWAP1 POP PUSH1 0x0 JUMPDEST DUP5 MLOAD DUP2 LT ISZERO PUSH2 0x28C0 JUMPI PUSH2 0x28AB DUP3 DUP7 DUP4 DUP2 MLOAD DUP2 LT PUSH2 0x289E JUMPI PUSH2 0x289D PUSH2 0x32EA JUMP JUMPDEST JUMPDEST PUSH1 0x20 MUL PUSH1 0x20 ADD ADD MLOAD PUSH2 0x299F JUMP JUMPDEST SWAP2 POP DUP1 DUP1 PUSH2 0x28B8 SWAP1 PUSH2 0x38A4 JUMP JUMPDEST SWAP2 POP POP PUSH2 0x287E JUMP JUMPDEST POP DUP1 SWAP2 POP POP SWAP3 SWAP2 POP POP JUMP JUMPDEST PUSH1 0x0 DUP1 PUSH1 0x0 SWAP1 POP PUSH1 0x5 PUSH1 0x0 DUP2 SLOAD DUP1 SWAP3 SWAP2 SWAP1 PUSH2 0x28E5 SWAP1 PUSH2 0x38A4 JUMP JUMPDEST SWAP2 SWAP1 POP SSTORE POP PUSH1 0x0 PUSH1 0x1 PUSH1 0x64 TIMESTAMP CALLER PUSH1 0x5 SLOAD PUSH1 0x40 MLOAD PUSH1 0x20 ADD PUSH2 0x2907 SWAP4 SWAP3 SWAP2 SWAP1 PUSH2 0x3E97 JUMP JUMPDEST PUSH1 0x40 MLOAD PUSH1 0x20 DUP2 DUP4 SUB SUB DUP2 MSTORE SWAP1 PUSH1 0x40 MSTORE DUP1 MLOAD SWAP1 PUSH1 0x20 ADD KECCAK256 PUSH1 0x0 SHR PUSH2 0x292A SWAP2 SWAP1 PUSH2 0x3F03 JUMP JUMPDEST PUSH2 0x2934 SWAP2 SWAP1 PUSH2 0x340B JUMP JUMPDEST SWAP1 POP PUSH1 0x0 DUP1 JUMPDEST PUSH1 0x6 DUP1 SLOAD SWAP1 POP DUP2 LT ISZERO PUSH2 0x2995 JUMPI PUSH1 0x6 DUP2 DUP2 SLOAD DUP2 LT PUSH2 0x295B JUMPI PUSH2 0x295A PUSH2 0x32EA JUMP JUMPDEST JUMPDEST SWAP1 PUSH1 0x0 MSTORE PUSH1 0x20 PUSH1 0x0 KECCAK256 ADD SLOAD DUP3 PUSH2 0x2971 SWAP2 SWAP1 PUSH2 0x340B JUMP JUMPDEST SWAP2 POP DUP2 DUP4 GT PUSH2 0x2982 JUMPI DUP1 SWAP4 POP PUSH2 0x2995 JUMP JUMPDEST DUP1 DUP1 PUSH2 0x298D SWAP1 PUSH2 0x38A4 JUMP JUMPDEST SWAP2 POP POP PUSH2 0x293A JUMP JUMPDEST POP DUP3 SWAP4 POP POP POP POP SWAP1 JUMP JUMPDEST PUSH1 0x0 DUP2 DUP4 LT PUSH2 0x29B7 JUMPI PUSH2 0x29B2 DUP3 DUP5 PUSH2 0x29CA JUMP JUMPDEST PUSH2 0x29C2 JUMP JUMPDEST PUSH2 0x29C1 DUP4 DUP4 PUSH2 0x29CA JUMP JUMPDEST JUMPDEST SWAP1 POP SWAP3 SWAP2 POP POP JUMP JUMPDEST PUSH1 0x0 DUP3 PUSH1 0x0 MSTORE DUP2 PUSH1 0x20 MSTORE PUSH1 0x40 PUSH1 0x0 KECCAK256 SWAP1 POP SWAP3 SWAP2 POP POP JUMP JUMPDEST DUP3 DUP1 SLOAD DUP3 DUP3 SSTORE SWAP1 PUSH1 0x0 MSTORE PUSH1 0x20 PUSH1 0x0 KECCAK256 SWAP1 DUP2 ADD SWAP3 DUP3 ISZERO PUSH2 0x2A1D JUMPI SWAP2 PUSH1 0x20 MUL DUP3 ADD JUMPDEST DUP3 DUP2 GT ISZERO PUSH2 0x2A1C JUMPI DUP3 CALLDATALOAD DUP3 SSTORE SWAP2 PUSH1 0x20 ADD SWAP2 SWAP1 PUSH1 0x1 ADD SWAP1 PUSH2 0x2A01 JUMP JUMPDEST JUMPDEST POP SWAP1 POP PUSH2 0x2A2A SWAP2 SWAP1 PUSH2 0x2A2E JUMP JUMPDEST POP SWAP1 JUMP JUMPDEST JUMPDEST DUP1 DUP3 GT ISZERO PUSH2 0x2A47 JUMPI PUSH1 0x0 DUP2 PUSH1 0x0 SWAP1 SSTORE POP PUSH1 0x1 ADD PUSH2 0x2A2F JUMP JUMPDEST POP SWAP1 JUMP JUMPDEST PUSH1 0x0 DUP2 MLOAD SWAP1 POP SWAP2 SWAP1 POP JUMP JUMPDEST PUSH1 0x0 DUP3 DUP3 MSTORE PUSH1 0x20 DUP3 ADD SWAP1 POP SWAP3 SWAP2 POP POP JUMP JUMPDEST PUSH1 0x0 DUP2 SWAP1 POP PUSH1 0x20 DUP3 ADD SWAP1 POP SWAP2 SWAP1 POP JUMP JUMPDEST PUSH1 0x0 DUP2 SWAP1 POP SWAP2 SWAP1 POP JUMP JUMPDEST PUSH2 0x2A8A DUP2 PUSH2 0x2A77 JUMP JUMPDEST DUP3 MSTORE POP POP JUMP JUMPDEST PUSH1 0x0 PUSH2 0x2A9C DUP4 DUP4 PUSH2 0x2A81 JUMP JUMPDEST PUSH1 0x20 DUP4 ADD SWAP1 POP SWAP3 SWAP2 POP POP JUMP JUMPDEST PUSH1 0x0 PUSH1 0x20 DUP3 ADD SWAP1 POP SWAP2 SWAP1 POP JUMP JUMPDEST PUSH1 0x0 PUSH2 0x2AC0 DUP3 PUSH2 0x2A4B JUMP JUMPDEST PUSH2 0x2ACA DUP2 DUP6 PUSH2 0x2A56 JUMP JUMPDEST SWAP4 POP PUSH2 0x2AD5 DUP4 PUSH2 0x2A67 JUMP JUMPDEST DUP1 PUSH1 0x0 JUMPDEST DUP4 DUP2 LT ISZERO PUSH2 0x2B06 JUMPI DUP2 MLOAD PUSH2 0x2AED DUP9 DUP3 PUSH2 0x2A90 JUMP JUMPDEST SWAP8 POP PUSH2 0x2AF8 DUP4 PUSH2 0x2AA8 JUMP JUMPDEST SWAP3 POP POP PUSH1 0x1 DUP2 ADD SWAP1 POP PUSH2 0x2AD9 JUMP JUMPDEST POP DUP6 SWAP4 POP POP POP POP SWAP3 SWAP2 POP POP JUMP JUMPDEST PUSH1 0x0 PUSH1 0x20 DUP3 ADD SWAP1 POP DUP2 DUP2 SUB PUSH1 0x0 DUP4 ADD MSTORE PUSH2 0x2B2D DUP2 DUP5 PUSH2 0x2AB5 JUMP JUMPDEST SWAP1 POP SWAP3 SWAP2 POP POP JUMP JUMPDEST PUSH1 0x0 DUP1 REVERT JUMPDEST PUSH1 0x0 DUP1 REVERT JUMPDEST PUSH2 0x2B48 DUP2 PUSH2 0x2A77 JUMP JUMPDEST DUP2 EQ PUSH2 0x2B53 JUMPI PUSH1 0x0 DUP1 REVERT JUMPDEST POP JUMP JUMPDEST PUSH1 0x0 DUP2 CALLDATALOAD SWAP1 POP PUSH2 0x2B65 DUP2 PUSH2 0x2B3F JUMP JUMPDEST SWAP3 SWAP2 POP POP JUMP JUMPDEST PUSH1 0x0 PUSH1 0x20 DUP3 DUP5 SUB SLT ISZERO PUSH2 0x2B81 JUMPI PUSH2 0x2B80 PUSH2 0x2B35 JUMP JUMPDEST JUMPDEST PUSH1 0x0 PUSH2 0x2B8F DUP5 DUP3 DUP6 ADD PUSH2 0x2B56 JUMP JUMPDEST SWAP2 POP POP SWAP3 SWAP2 POP POP JUMP JUMPDEST PUSH2 0x2BA1 DUP2 PUSH2 0x2A77 JUMP JUMPDEST DUP3 MSTORE POP POP JUMP JUMPDEST PUSH1 0x0 PUSH1 0x20 DUP3 ADD SWAP1 POP PUSH2 0x2BBC PUSH1 0x0 DUP4 ADD DUP5 PUSH2 0x2B98 JUMP JUMPDEST SWAP3 SWAP2 POP POP JUMP JUMPDEST PUSH1 0x0 DUP2 SWAP1 POP SWAP2 SWAP1 POP JUMP JUMPDEST PUSH2 0x2BD5 DUP2 PUSH2 0x2BC2 JUMP JUMPDEST DUP3 MSTORE POP POP JUMP JUMPDEST PUSH1 0x0 PUSH1 0x20 DUP3 ADD SWAP1 POP PUSH2 0x2BF0 PUSH1 0x0 DUP4 ADD DUP5 PUSH2 0x2BCC JUMP JUMPDEST SWAP3 SWAP2 POP POP JUMP JUMPDEST PUSH1 0x0 DUP2 ISZERO ISZERO SWAP1 POP SWAP2 SWAP1 POP JUMP JUMPDEST PUSH2 0x2C0B DUP2 PUSH2 0x2BF6 JUMP JUMPDEST DUP3 MSTORE POP POP JUMP JUMPDEST PUSH1 0x0 PUSH1 0x20 DUP3 ADD SWAP1 POP PUSH2 0x2C26 PUSH1 0x0 DUP4 ADD DUP5 PUSH2 0x2C02 JUMP JUMPDEST SWAP3 SWAP2 POP POP JUMP JUMPDEST PUSH2 0x2C35 DUP2 PUSH2 0x2BC2 JUMP JUMPDEST DUP2 EQ PUSH2 0x2C40 JUMPI PUSH1 0x0 DUP1 REVERT JUMPDEST POP JUMP JUMPDEST PUSH1 0x0 DUP2 CALLDATALOAD SWAP1 POP PUSH2 0x2C52 DUP2 PUSH2 0x2C2C JUMP JUMPDEST SWAP3 SWAP2 POP POP JUMP JUMPDEST PUSH1 0x0 PUSH1 0x20 DUP3 DUP5 SUB SLT ISZERO PUSH2 0x2C6E JUMPI PUSH2 0x2C6D PUSH2 0x2B35 JUMP JUMPDEST JUMPDEST PUSH1 0x0 PUSH2 0x2C7C DUP5 DUP3 DUP6 ADD PUSH2 0x2C43 JUMP JUMPDEST SWAP2 POP POP SWAP3 SWAP2 POP POP JUMP JUMPDEST PUSH1 0x0 DUP2 MLOAD SWAP1 POP SWAP2 SWAP1 POP JUMP JUMPDEST PUSH1 0x0 DUP3 DUP3 MSTORE PUSH1 0x20 DUP3 ADD SWAP1 POP SWAP3 SWAP2 POP POP JUMP JUMPDEST PUSH1 0x0 DUP2 SWAP1 POP PUSH1 0x20 DUP3 ADD SWAP1 POP SWAP2 SWAP1 POP JUMP JUMPDEST PUSH1 0x0 PUSH20 0xFFFFFFFFFFFFFFFFFFFFFFFFFFFFFFFFFFFFFFFF DUP3 AND SWAP1 POP SWAP2 SWAP1 POP JUMP JUMPDEST PUSH1 0x0 PUSH2 0x2CDC DUP3 PUSH2 0x2CB1 JUMP JUMPDEST SWAP1 POP SWAP2 SWAP1 POP JUMP JUMPDEST PUSH2 0x2CEC DUP2 PUSH2 0x2CD1 JUMP JUMPDEST DUP3 MSTORE POP POP JUMP JUMPDEST PUSH1 0x0 PUSH2 0x2CFE DUP4 DUP4 PUSH2 0x2CE3 JUMP JUMPDEST PUSH1 0x20 DUP4 ADD SWAP1 POP SWAP3 SWAP2 POP POP JUMP JUMPDEST PUSH1 0x0 PUSH1 0x20 DUP3 ADD SWAP1 POP SWAP2 SWAP1 POP JUMP JUMPDEST PUSH1 0x0 PUSH2 0x2D22 DUP3 PUSH2 0x2C85 JUMP JUMPDEST PUSH2 0x2D2C DUP2 DUP6 PUSH2 0x2C90 JUMP JUMPDEST SWAP4 POP PUSH2 0x2D37 DUP4 PUSH2 0x2CA1 JUMP JUMPDEST DUP1 PUSH1 0x0 JUMPDEST DUP4 DUP2 LT ISZERO PUSH2 0x2D68 JUMPI DUP2 MLOAD PUSH2 0x2D4F DUP9 DUP3 PUSH2 0x2CF2 JUMP JUMPDEST SWAP8 POP PUSH2 0x2D5A DUP4 PUSH2 0x2D0A JUMP JUMPDEST SWAP3 POP POP PUSH1 0x1 DUP2 ADD SWAP1 POP PUSH2 0x2D3B JUMP JUMPDEST POP DUP6 SWAP4 POP POP POP POP SWAP3 SWAP2 POP POP JUMP JUMPDEST PUSH1 0x0 PUSH1 0x20 DUP3 ADD SWAP1 POP DUP2 DUP2 SUB PUSH1 0x0 DUP4 ADD MSTORE PUSH2 0x2D8F DUP2 DUP5 PUSH2 0x2D17 JUMP JUMPDEST SWAP1 POP SWAP3 SWAP2 POP POP JUMP JUMPDEST PUSH1 0x0 DUP1 REVERT JUMPDEST PUSH1 0x0 DUP1 REVERT JUMPDEST PUSH1 0x0 DUP1 REVERT JUMPDEST PUSH1 0x0 DUP1 DUP4 PUSH1 0x1F DUP5 ADD SLT PUSH2 0x2DBC JUMPI PUSH2 0x2DBB PUSH2 0x2D97 JUMP JUMPDEST JUMPDEST DUP3 CALLDATALOAD SWAP1 POP PUSH8 0xFFFFFFFFFFFFFFFF DUP2 GT ISZERO PUSH2 0x2DD9 JUMPI PUSH2 0x2DD8 PUSH2 0x2D9C JUMP JUMPDEST JUMPDEST PUSH1 0x20 DUP4 ADD SWAP2 POP DUP4 PUSH1 0x20 DUP3 MUL DUP4 ADD GT ISZERO PUSH2 0x2DF5 JUMPI PUSH2 0x2DF4 PUSH2 0x2DA1 JUMP JUMPDEST JUMPDEST SWAP3 POP SWAP3 SWAP1 POP JUMP JUMPDEST PUSH1 0x0 DUP1 PUSH1 0x0 DUP1 PUSH1 0x60 DUP6 DUP8 SUB SLT ISZERO PUSH2 0x2E16 JUMPI PUSH2 0x2E15 PUSH2 0x2B35 JUMP JUMPDEST JUMPDEST PUSH1 0x0 PUSH2 0x2E24 DUP8 DUP3 DUP9 ADD PUSH2 0x2B56 JUMP JUMPDEST SWAP5 POP POP PUSH1 0x20 PUSH2 0x2E35 DUP8 DUP3 DUP9 ADD PUSH2 0x2B56 JUMP JUMPDEST SWAP4 POP POP PUSH1 0x40 DUP6 ADD CALLDATALOAD PUSH8 0xFFFFFFFFFFFFFFFF DUP2 GT ISZERO PUSH2 0x2E56 JUMPI PUSH2 0x2E55 PUSH2 0x2B3A JUMP JUMPDEST JUMPDEST PUSH2 0x2E62 DUP8 DUP3 DUP9 ADD PUSH2 0x2DA6 JUMP JUMPDEST SWAP3 POP SWAP3 POP POP SWAP3 SWAP6 SWAP2 SWAP5 POP SWAP3 POP JUMP JUMPDEST PUSH2 0x2E79 DUP2 PUSH2 0x2CD1 JUMP JUMPDEST DUP2 EQ PUSH2 0x2E84 JUMPI PUSH1 0x0 DUP1 REVERT JUMPDEST POP JUMP JUMPDEST PUSH1 0x0 DUP2 CALLDATALOAD SWAP1 POP PUSH2 0x2E96 DUP2 PUSH2 0x2E70 JUMP JUMPDEST SWAP3 SWAP2 POP POP JUMP JUMPDEST PUSH1 0x0 PUSH1 0x20 DUP3 DUP5 SUB SLT ISZERO PUSH2 0x2EB2 JUMPI PUSH2 0x2EB1 PUSH2 0x2B35 JUMP JUMPDEST JUMPDEST PUSH1 0x0 PUSH2 0x2EC0 DUP5 DUP3 DUP6 ADD PUSH2 0x2E87 JUMP JUMPDEST SWAP2 POP POP SWAP3 SWAP2 POP POP JUMP JUMPDEST PUSH1 0x0 PUSH2 0x2ED4 DUP3 PUSH2 0x2CB1 JUMP JUMPDEST SWAP1 POP SWAP2 SWAP1 POP JUMP JUMPDEST PUSH2 0x2EE4 DUP2 PUSH2 0x2EC9 JUMP JUMPDEST DUP2 EQ PUSH2 0x2EEF JUMPI PUSH1 0x0 DUP1 REVERT JUMPDEST POP JUMP JUMPDEST PUSH1 0x0 DUP2 CALLDATALOAD SWAP1 POP PUSH2 0x2F01 DUP2 PUSH2 0x2EDB JUMP JUMPDEST SWAP3 SWAP2 POP POP JUMP JUMPDEST PUSH1 0x0 PUSH1 0x20 DUP3 DUP5 SUB SLT ISZERO PUSH2 0x2F1D JUMPI PUSH2 0x2F1C PUSH2 0x2B35 JUMP JUMPDEST JUMPDEST PUSH1 0x0 PUSH2 0x2F2B DUP5 DUP3 DUP6 ADD PUSH2 0x2EF2 JUMP JUMPDEST SWAP2 POP POP SWAP3 SWAP2 POP POP JUMP JUMPDEST PUSH2 0x2F3D DUP2 PUSH2 0x2CD1 JUMP JUMPDEST DUP3 MSTORE POP POP JUMP JUMPDEST PUSH1 0x0 PUSH1 0x20 DUP3 ADD SWAP1 POP PUSH2 0x2F58 PUSH1 0x0 DUP4 ADD DUP5 PUSH2 0x2F34 JUMP JUMPDEST SWAP3 SWAP2 POP POP JUMP JUMPDEST PUSH1 0x0 PUSH2 0x2F69 DUP3 PUSH2 0x2CD1 JUMP JUMPDEST SWAP1 POP SWAP2 SWAP1 POP JUMP JUMPDEST PUSH2 0x2F79 DUP2 PUSH2 0x2F5E JUMP JUMPDEST DUP2 EQ PUSH2 0x2F84 JUMPI PUSH1 0x0 DUP1 REVERT JUMPDEST POP JUMP JUMPDEST PUSH1 0x0 DUP2 CALLDATALOAD SWAP1 POP PUSH2 0x2F96 DUP2 PUSH2 0x2F70 JUMP JUMPDEST SWAP3 SWAP2 POP POP JUMP JUMPDEST PUSH1 0x0 DUP1 PUSH1 0x40 DUP4 DUP6 SUB SLT ISZERO PUSH2 0x2FB3 JUMPI PUSH2 0x2FB2 PUSH2 0x2B35 JUMP JUMPDEST JUMPDEST PUSH1 0x0 PUSH2 0x2FC1 DUP6 DUP3 DUP7 ADD PUSH2 0x2F87 JUMP JUMPDEST SWAP3 POP POP PUSH1 0x20 PUSH2 0x2FD2 DUP6 DUP3 DUP7 ADD PUSH2 0x2B56 JUMP JUMPDEST SWAP2 POP POP SWAP3 POP SWAP3 SWAP1 POP JUMP JUMPDEST PUSH1 0x0 DUP1 DUP4 PUSH1 0x1F DUP5 ADD SLT PUSH2 0x2FF2 JUMPI PUSH2 0x2FF1 PUSH2 0x2D97 JUMP JUMPDEST JUMPDEST DUP3 CALLDATALOAD SWAP1 POP PUSH8 0xFFFFFFFFFFFFFFFF DUP2 GT ISZERO PUSH2 0x300F JUMPI PUSH2 0x300E PUSH2 0x2D9C JUMP JUMPDEST JUMPDEST PUSH1 0x20 DUP4 ADD SWAP2 POP DUP4 PUSH1 0x20 DUP3 MUL DUP4 ADD GT ISZERO PUSH2 0x302B JUMPI PUSH2 0x302A PUSH2 0x2DA1 JUMP JUMPDEST JUMPDEST SWAP3 POP SWAP3 SWAP1 POP JUMP JUMPDEST PUSH1 0x0 DUP1 DUP4 PUSH1 0x1F DUP5 ADD SLT PUSH2 0x3048 JUMPI PUSH2 0x3047 PUSH2 0x2D97 JUMP JUMPDEST JUMPDEST DUP3 CALLDATALOAD SWAP1 POP PUSH8 0xFFFFFFFFFFFFFFFF DUP2 GT ISZERO PUSH2 0x3065 JUMPI PUSH2 0x3064 PUSH2 0x2D9C JUMP JUMPDEST JUMPDEST PUSH1 0x20 DUP4 ADD SWAP2 POP DUP4 PUSH1 0x20 DUP3 MUL DUP4 ADD GT ISZERO PUSH2 0x3081 JUMPI PUSH2 0x3080 PUSH2 0x2DA1 JUMP JUMPDEST JUMPDEST SWAP3 POP SWAP3 SWAP1 POP JUMP JUMPDEST PUSH1 0x0 DUP1 PUSH1 0x0 DUP1 PUSH1 0x40 DUP6 DUP8 SUB SLT ISZERO PUSH2 0x30A2 JUMPI PUSH2 0x30A1 PUSH2 0x2B35 JUMP JUMPDEST JUMPDEST PUSH1 0x0 DUP6 ADD CALLDATALOAD PUSH8 0xFFFFFFFFFFFFFFFF DUP2 GT ISZERO PUSH2 0x30C0 JUMPI PUSH2 0x30BF PUSH2 0x2B3A JUMP JUMPDEST JUMPDEST PUSH2 0x30CC DUP8 DUP3 DUP9 ADD PUSH2 0x2FDC JUMP JUMPDEST SWAP5 POP SWAP5 POP POP PUSH1 0x20 DUP6 ADD CALLDATALOAD PUSH8 0xFFFFFFFFFFFFFFFF DUP2 GT ISZERO PUSH2 0x30EF JUMPI PUSH2 0x30EE PUSH2 0x2B3A JUMP JUMPDEST JUMPDEST PUSH2 0x30FB DUP8 DUP3 DUP9 ADD PUSH2 0x3032 JUMP JUMPDEST SWAP3 POP SWAP3 POP POP SWAP3 SWAP6 SWAP2 SWAP5 POP SWAP3 POP JUMP JUMPDEST PUSH1 0x0 DUP1 DUP4 PUSH1 0x1F DUP5 ADD SLT PUSH2 0x311F JUMPI PUSH2 0x311E PUSH2 0x2D97 JUMP JUMPDEST JUMPDEST DUP3 CALLDATALOAD SWAP1 POP PUSH8 0xFFFFFFFFFFFFFFFF DUP2 GT ISZERO PUSH2 0x313C JUMPI PUSH2 0x313B PUSH2 0x2D9C JUMP JUMPDEST JUMPDEST PUSH1 0x20 DUP4 ADD SWAP2 POP DUP4 PUSH1 0x20 DUP3 MUL DUP4 ADD GT ISZERO PUSH2 0x3158 JUMPI PUSH2 0x3157 PUSH2 0x2DA1 JUMP JUMPDEST JUMPDEST SWAP3 POP SWAP3 SWAP1 POP JUMP JUMPDEST PUSH1 0x0 DUP1 PUSH1 0x20 DUP4 DUP6 SUB SLT ISZERO PUSH2 0x3176 JUMPI PUSH2 0x3175 PUSH2 0x2B35 JUMP JUMPDEST JUMPDEST PUSH1 0x0 DUP4 ADD CALLDATALOAD PUSH8 0xFFFFFFFFFFFFFFFF DUP2 GT ISZERO PUSH2 0x3194 JUMPI PUSH2 0x3193 PUSH2 0x2B3A JUMP JUMPDEST JUMPDEST PUSH2 0x31A0 DUP6 DUP3 DUP7 ADD PUSH2 0x3109 JUMP JUMPDEST SWAP3 POP SWAP3 POP POP SWAP3 POP SWAP3 SWAP1 POP JUMP JUMPDEST PUSH1 0x0 PUSH2 0x31B7 DUP3 PUSH2 0x2CD1 JUMP JUMPDEST SWAP1 POP SWAP2 SWAP1 POP JUMP JUMPDEST PUSH2 0x31C7 DUP2 PUSH2 0x31AC JUMP JUMPDEST DUP2 EQ PUSH2 0x31D2 JUMPI PUSH1 0x0 DUP1 REVERT JUMPDEST POP JUMP JUMPDEST PUSH1 0x0 DUP2 CALLDATALOAD SWAP1 POP PUSH2 0x31E4 DUP2 PUSH2 0x31BE JUMP JUMPDEST SWAP3 SWAP2 POP POP JUMP JUMPDEST PUSH1 0x0 PUSH1 0x20 DUP3 DUP5 SUB SLT ISZERO PUSH2 0x3200 JUMPI PUSH2 0x31FF PUSH2 0x2B35 JUMP JUMPDEST JUMPDEST PUSH1 0x0 PUSH2 0x320E DUP5 DUP3 DUP6 ADD PUSH2 0x31D5 JUMP JUMPDEST SWAP2 POP POP SWAP3 SWAP2 POP POP JUMP JUMPDEST PUSH1 0x0 DUP2 SWAP1 POP SWAP2 SWAP1 POP JUMP JUMPDEST PUSH1 0x0 PUSH2 0x323C PUSH2 0x3237 PUSH2 0x3232 DUP5 PUSH2 0x2CB1 JUMP JUMPDEST PUSH2 0x3217 JUMP JUMPDEST PUSH2 0x2CB1 JUMP JUMPDEST SWAP1 POP SWAP2 SWAP1 POP JUMP JUMPDEST PUSH1 0x0 PUSH2 0x324E DUP3 PUSH2 0x3221 JUMP JUMPDEST SWAP1 POP SWAP2 SWAP1 POP JUMP JUMPDEST PUSH1 0x0 PUSH2 0x3260 DUP3 PUSH2 0x3243 JUMP JUMPDEST SWAP1 POP SWAP2 SWAP1 POP JUMP JUMPDEST PUSH2 0x3270 DUP2 PUSH2 0x3255 JUMP JUMPDEST DUP3 MSTORE POP POP JUMP JUMPDEST PUSH1 0x0 PUSH1 0x20 DUP3 ADD SWAP1 POP PUSH2 0x328B PUSH1 0x0 DUP4 ADD DUP5 PUSH2 0x3267 JUMP JUMPDEST SWAP3 SWAP2 POP POP JUMP JUMPDEST PUSH2 0x329A DUP2 PUSH2 0x2EC9 JUMP JUMPDEST DUP3 MSTORE POP POP JUMP JUMPDEST PUSH1 0x0 PUSH1 0x20 DUP3 ADD SWAP1 POP PUSH2 0x32B5 PUSH1 0x0 DUP4 ADD DUP5 PUSH2 0x3291 JUMP JUMPDEST SWAP3 SWAP2 POP POP JUMP JUMPDEST PUSH32 0x4E487B7100000000000000000000000000000000000000000000000000000000 PUSH1 0x0 MSTORE PUSH1 0x41 PUSH1 0x4 MSTORE PUSH1 0x24 PUSH1 0x0 REVERT JUMPDEST PUSH32 0x4E487B7100000000000000000000000000000000000000000000000000000000 PUSH1 0x0 MSTORE PUSH1 0x32 PUSH1 0x4 MSTORE PUSH1 0x24 PUSH1 0x0 REVERT JUMPDEST PUSH1 0x0 DUP2 SWAP1 POP SWAP3 SWAP2 POP POP JUMP JUMPDEST POP JUMP JUMPDEST PUSH1 0x0 PUSH2 0x3334 PUSH1 0x0 DUP4 PUSH2 0x3319 JUMP JUMPDEST SWAP2 POP PUSH2 0x333F DUP3 PUSH2 0x3324 JUMP JUMPDEST PUSH1 0x0 DUP3 ADD SWAP1 POP SWAP2 SWAP1 POP JUMP JUMPDEST PUSH1 0x0 PUSH2 0x3355 DUP3 PUSH2 0x3327 JUMP JUMPDEST SWAP2 POP DUP2 SWAP1 POP SWAP2 SWAP1 POP JUMP JUMPDEST PUSH1 0x0 DUP3 DUP3 MSTORE PUSH1 0x20 DUP3 ADD SWAP1 POP SWAP3 SWAP2 POP POP JUMP JUMPDEST PUSH32 0x776974686472617720776173206E6F742073756363657366756C6C0000000000 PUSH1 0x0 DUP3 ADD MSTORE POP JUMP JUMPDEST PUSH1 0x0 PUSH2 0x33A6 PUSH1 0x1B DUP4 PUSH2 0x335F JUMP JUMPDEST SWAP2 POP PUSH2 0x33B1 DUP3 PUSH2 0x3370 JUMP JUMPDEST PUSH1 0x20 DUP3 ADD SWAP1 POP SWAP2 SWAP1 POP JUMP JUMPDEST PUSH1 0x0 PUSH1 0x20 DUP3 ADD SWAP1 POP DUP2 DUP2 SUB PUSH1 0x0 DUP4 ADD MSTORE PUSH2 0x33D5 DUP2 PUSH2 0x3399 JUMP JUMPDEST SWAP1 POP SWAP2 SWAP1 POP JUMP JUMPDEST PUSH32 0x4E487B7100000000000000000000000000000000000000000000000000000000 PUSH1 0x0 MSTORE PUSH1 0x11 PUSH1 0x4 MSTORE PUSH1 0x24 PUSH1 0x0 REVERT JUMPDEST PUSH1 0x0 PUSH2 0x3416 DUP3 PUSH2 0x2A77 JUMP JUMPDEST SWAP2 POP PUSH2 0x3421 DUP4 PUSH2 0x2A77 JUMP JUMPDEST SWAP3 POP DUP3 DUP3 ADD SWAP1 POP DUP1 DUP3 GT ISZERO PUSH2 0x3439 JUMPI PUSH2 0x3438 PUSH2 0x33DC JUMP JUMPDEST JUMPDEST SWAP3 SWAP2 POP POP JUMP JUMPDEST PUSH1 0x0 PUSH1 0x40 DUP3 ADD SWAP1 POP PUSH2 0x3454 PUSH1 0x0 DUP4 ADD DUP6 PUSH2 0x2B98 JUMP JUMPDEST PUSH2 0x3461 PUSH1 0x20 DUP4 ADD DUP5 PUSH2 0x2B98 JUMP JUMPDEST SWAP4 SWAP3 POP POP POP JUMP JUMPDEST PUSH1 0x0 DUP2 PUSH1 0x60 SHL SWAP1 POP SWAP2 SWAP1 POP JUMP JUMPDEST PUSH1 0x0 PUSH2 0x3480 DUP3 PUSH2 0x3468 JUMP JUMPDEST SWAP1 POP SWAP2 SWAP1 POP JUMP JUMPDEST PUSH1 0x0 PUSH2 0x3492 DUP3 PUSH2 0x3475 JUMP JUMPDEST SWAP1 POP SWAP2 SWAP1 POP JUMP JUMPDEST PUSH2 0x34AA PUSH2 0x34A5 DUP3 PUSH2 0x2CD1 JUMP JUMPDEST PUSH2 0x3487 JUMP JUMPDEST DUP3 MSTORE POP POP JUMP JUMPDEST PUSH1 0x0 DUP2 SWAP1 POP SWAP3 SWAP2 POP POP JUMP JUMPDEST PUSH32 0x3A00000000000000000000000000000000000000000000000000000000000000 PUSH1 0x0 DUP3 ADD MSTORE POP JUMP JUMPDEST PUSH1 0x0 PUSH2 0x34F1 PUSH1 0x1 DUP4 PUSH2 0x34B0 JUMP JUMPDEST SWAP2 POP PUSH2 0x34FC DUP3 PUSH2 0x34BB JUMP JUMPDEST PUSH1 0x1 DUP3 ADD SWAP1 POP SWAP2 SWAP1 POP JUMP JUMPDEST PUSH1 0x0 DUP2 SWAP1 POP SWAP2 SWAP1 POP JUMP JUMPDEST PUSH2 0x3522 PUSH2 0x351D DUP3 PUSH2 0x2A77 JUMP JUMPDEST PUSH2 0x3507 JUMP JUMPDEST DUP3 MSTORE POP POP JUMP JUMPDEST PUSH1 0x0 PUSH2 0x3534 DUP3 DUP6 PUSH2 0x3499 JUMP JUMPDEST PUSH1 0x14 DUP3 ADD SWAP2 POP PUSH2 0x3543 DUP3 PUSH2 0x34E4 JUMP JUMPDEST SWAP2 POP PUSH2 0x354F DUP3 DUP5 PUSH2 0x3511 JUMP JUMPDEST PUSH1 0x20 DUP3 ADD SWAP2 POP DUP2 SWAP1 POP SWAP4 SWAP3 POP POP POP JUMP JUMPDEST PUSH32 0x496E76616C69642070726F6F662E000000000000000000000000000000000000 PUSH1 0x0 DUP3 ADD MSTORE POP JUMP JUMPDEST PUSH1 0x0 PUSH2 0x3595 PUSH1 0xE DUP4 PUSH2 0x335F JUMP JUMPDEST SWAP2 POP PUSH2 0x35A0 DUP3 PUSH2 0x355F JUMP JUMPDEST PUSH1 0x20 DUP3 ADD SWAP1 POP SWAP2 SWAP1 POP JUMP JUMPDEST PUSH1 0x0 PUSH1 0x20 DUP3 ADD SWAP1 POP DUP2 DUP2 SUB PUSH1 0x0 DUP4 ADD MSTORE PUSH2 0x35C4 DUP2 PUSH2 0x3588 JUMP JUMPDEST SWAP1 POP SWAP2 SWAP1 POP JUMP JUMPDEST PUSH32 0x436C61696D696E67206D6F7265207468616E20616C6C6F7765642E0000000000 PUSH1 0x0 DUP3 ADD MSTORE POP JUMP JUMPDEST PUSH1 0x0 PUSH2 0x3601 PUSH1 0x1B DUP4 PUSH2 0x335F JUMP JUMPDEST SWAP2 POP PUSH2 0x360C DUP3 PUSH2 0x35CB JUMP JUMPDEST PUSH1 0x20 DUP3 ADD SWAP1 POP SWAP2 SWAP1 POP JUMP JUMPDEST PUSH1 0x0 PUSH1 0x20 DUP3 ADD SWAP1 POP DUP2 DUP2 SUB PUSH1 0x0 DUP4 ADD MSTORE PUSH2 0x3630 DUP2 PUSH2 0x35F4 JUMP JUMPDEST SWAP1 POP SWAP2 SWAP1 POP JUMP JUMPDEST PUSH32 0x776974686472617720616C6C20776173206E6F742073756363657366756C6C00 PUSH1 0x0 DUP3 ADD MSTORE POP JUMP JUMPDEST PUSH1 0x0 PUSH2 0x366D PUSH1 0x1F DUP4 PUSH2 0x335F JUMP JUMPDEST SWAP2 POP PUSH2 0x3678 DUP3 PUSH2 0x3637 JUMP JUMPDEST PUSH1 0x20 DUP3 ADD SWAP1 POP SWAP2 SWAP1 POP JUMP JUMPDEST PUSH1 0x0 PUSH1 0x20 DUP3 ADD SWAP1 POP DUP2 DUP2 SUB PUSH1 0x0 DUP4 ADD MSTORE PUSH2 0x369C DUP2 PUSH2 0x3660 JUMP JUMPDEST SWAP1 POP SWAP2 SWAP1 POP JUMP JUMPDEST PUSH1 0x0 PUSH1 0x40 DUP3 ADD SWAP1 POP PUSH2 0x36B8 PUSH1 0x0 DUP4 ADD DUP6 PUSH2 0x2F34 JUMP JUMPDEST PUSH2 0x36C5 PUSH1 0x20 DUP4 ADD DUP5 PUSH2 0x2B98 JUMP JUMPDEST SWAP4 SWAP3 POP POP POP JUMP JUMPDEST PUSH2 0x36D5 DUP2 PUSH2 0x2BF6 JUMP JUMPDEST DUP2 EQ PUSH2 0x36E0 JUMPI PUSH1 0x0 DUP1 REVERT JUMPDEST POP JUMP JUMPDEST PUSH1 0x0 DUP2 MLOAD SWAP1 POP PUSH2 0x36F2 DUP2 PUSH2 0x36CC JUMP JUMPDEST SWAP3 SWAP2 POP POP JUMP JUMPDEST PUSH1 0x0 PUSH1 0x20 DUP3 DUP5 SUB SLT ISZERO PUSH2 0x370E JUMPI PUSH2 0x370D PUSH2 0x2B35 JUMP JUMPDEST JUMPDEST PUSH1 0x0 PUSH2 0x371C DUP5 DUP3 DUP6 ADD PUSH2 0x36E3 JUMP JUMPDEST SWAP2 POP POP SWAP3 SWAP2 POP POP JUMP JUMPDEST PUSH32 0x4172726179732073686F756C642068617665207468652073616D652073697A65 PUSH1 0x0 DUP3 ADD MSTORE PUSH32 0x2E00000000000000000000000000000000000000000000000000000000000000 PUSH1 0x20 DUP3 ADD MSTORE POP JUMP JUMPDEST PUSH1 0x0 PUSH2 0x3781 PUSH1 0x21 DUP4 PUSH2 0x335F JUMP JUMPDEST SWAP2 POP PUSH2 0x378C DUP3 PUSH2 0x3725 JUMP JUMPDEST PUSH1 0x40 DUP3 ADD SWAP1 POP SWAP2 SWAP1 POP JUMP JUMPDEST PUSH1 0x0 PUSH1 0x20 DUP3 ADD SWAP1 POP DUP2 DUP2 SUB PUSH1 0x0 DUP4 ADD MSTORE PUSH2 0x37B0 DUP2 PUSH2 0x3774 JUMP JUMPDEST SWAP1 POP SWAP2 SWAP1 POP JUMP JUMPDEST PUSH32 0x4164647265737320616C72656479206D696E74656420612072696E672E000000 PUSH1 0x0 DUP3 ADD MSTORE POP JUMP JUMPDEST PUSH1 0x0 PUSH2 0x37ED PUSH1 0x1D DUP4 PUSH2 0x335F JUMP JUMPDEST SWAP2 POP PUSH2 0x37F8 DUP3 PUSH2 0x37B7 JUMP JUMPDEST PUSH1 0x20 DUP3 ADD SWAP1 POP SWAP2 SWAP1 POP JUMP JUMPDEST PUSH1 0x0 PUSH1 0x20 DUP3 ADD SWAP1 POP DUP2 DUP2 SUB PUSH1 0x0 DUP4 ADD MSTORE PUSH2 0x381C DUP2 PUSH2 0x37E0 JUMP JUMPDEST SWAP1 POP SWAP2 SWAP1 POP JUMP JUMPDEST PUSH1 0x8 DUP2 LT PUSH2 0x3830 JUMPI PUSH1 0x0 DUP1 REVERT JUMPDEST POP JUMP JUMPDEST PUSH1 0x0 DUP2 CALLDATALOAD SWAP1 POP PUSH2 0x3842 DUP2 PUSH2 0x3823 JUMP JUMPDEST SWAP3 SWAP2 POP POP JUMP JUMPDEST PUSH1 0x0 PUSH1 0x20 DUP3 DUP5 SUB SLT ISZERO PUSH2 0x385E JUMPI PUSH2 0x385D PUSH2 0x2B35 JUMP JUMPDEST JUMPDEST PUSH1 0x0 PUSH2 0x386C DUP5 DUP3 DUP6 ADD PUSH2 0x3833 JUMP JUMPDEST SWAP2 POP POP SWAP3 SWAP2 POP POP JUMP JUMPDEST PUSH32 0x4E487B7100000000000000000000000000000000000000000000000000000000 PUSH1 0x0 MSTORE PUSH1 0x21 PUSH1 0x4 MSTORE PUSH1 0x24 PUSH1 0x0 REVERT JUMPDEST PUSH1 0x0 PUSH2 0x38AF DUP3 PUSH2 0x2A77 JUMP JUMPDEST SWAP2 POP PUSH32 0xFFFFFFFFFFFFFFFFFFFFFFFFFFFFFFFFFFFFFFFFFFFFFFFFFFFFFFFFFFFFFFFF DUP3 SUB PUSH2 0x38E1 JUMPI PUSH2 0x38E0 PUSH2 0x33DC JUMP JUMPDEST JUMPDEST PUSH1 0x1 DUP3 ADD SWAP1 POP SWAP2 SWAP1 POP JUMP JUMPDEST PUSH1 0x8 DUP2 LT PUSH2 0x38FD JUMPI PUSH2 0x38FC PUSH2 0x3875 JUMP JUMPDEST JUMPDEST POP JUMP JUMPDEST PUSH1 0x0 DUP2 SWAP1 POP PUSH2 0x390E DUP3 PUSH2 0x38EC JUMP JUMPDEST SWAP2 SWAP1 POP JUMP JUMPDEST PUSH1 0x0 PUSH2 0x391E DUP3 PUSH2 0x3900 JUMP JUMPDEST SWAP1 POP SWAP2 SWAP1 POP JUMP JUMPDEST PUSH2 0x392E DUP2 PUSH2 0x3913 JUMP JUMPDEST DUP3 MSTORE POP POP JUMP JUMPDEST PUSH1 0x0 PUSH1 0x60 DUP3 ADD SWAP1 POP PUSH2 0x3949 PUSH1 0x0 DUP4 ADD DUP7 PUSH2 0x2F34 JUMP JUMPDEST PUSH2 0x3956 PUSH1 0x20 DUP4 ADD DUP6 PUSH2 0x2B98 JUMP JUMPDEST PUSH2 0x3963 PUSH1 0x40 DUP4 ADD DUP5 PUSH2 0x3925 JUMP JUMPDEST SWAP5 SWAP4 POP POP POP POP JUMP JUMPDEST PUSH1 0x0 PUSH2 0x3976 DUP3 PUSH2 0x2A77 JUMP JUMPDEST SWAP2 POP PUSH2 0x3981 DUP4 PUSH2 0x2A77 JUMP JUMPDEST SWAP3 POP DUP3 DUP3 SUB SWAP1 POP DUP2 DUP2 GT ISZERO PUSH2 0x3999 JUMPI PUSH2 0x3998 PUSH2 0x33DC JUMP JUMPDEST JUMPDEST SWAP3 SWAP2 POP POP JUMP JUMPDEST PUSH1 0x0 DUP2 SWAP1 POP SWAP2 SWAP1 POP JUMP JUMPDEST PUSH1 0x0 PUSH2 0x39C4 PUSH2 0x39BF PUSH2 0x39BA DUP5 PUSH2 0x399F JUMP JUMPDEST PUSH2 0x3217 JUMP JUMPDEST PUSH2 0x2A77 JUMP JUMPDEST SWAP1 POP SWAP2 SWAP1 POP JUMP JUMPDEST PUSH2 0x39D4 DUP2 PUSH2 0x39A9 JUMP JUMPDEST DUP3 MSTORE POP POP JUMP JUMPDEST PUSH1 0x0 PUSH1 0x40 DUP3 ADD SWAP1 POP PUSH2 0x39EF PUSH1 0x0 DUP4 ADD DUP6 PUSH2 0x2B98 JUMP JUMPDEST PUSH2 0x39FC PUSH1 0x20 DUP4 ADD DUP5 PUSH2 0x39CB JUMP JUMPDEST SWAP4 SWAP3 POP POP POP JUMP JUMPDEST PUSH32 0x4D696E74696E67206D6F7265207468616E20616C6C6F7765642E000000000000 PUSH1 0x0 DUP3 ADD MSTORE POP JUMP JUMPDEST PUSH1 0x0 PUSH2 0x3A39 PUSH1 0x1A DUP4 PUSH2 0x335F JUMP JUMPDEST SWAP2 POP PUSH2 0x3A44 DUP3 PUSH2 0x3A03 JUMP JUMPDEST PUSH1 0x20 DUP3 ADD SWAP1 POP SWAP2 SWAP1 POP JUMP JUMPDEST PUSH1 0x0 PUSH1 0x20 DUP3 ADD SWAP1 POP DUP2 DUP2 SUB PUSH1 0x0 DUP4 ADD MSTORE PUSH2 0x3A68 DUP2 PUSH2 0x3A2C JUMP JUMPDEST SWAP1 POP SWAP2 SWAP1 POP JUMP JUMPDEST PUSH1 0x0 DUP2 SWAP1 POP SWAP2 SWAP1 POP JUMP JUMPDEST PUSH1 0x0 PUSH2 0x3A94 PUSH2 0x3A8F PUSH2 0x3A8A DUP5 PUSH2 0x3A6F JUMP JUMPDEST PUSH2 0x3217 JUMP JUMPDEST PUSH2 0x2A77 JUMP JUMPDEST SWAP1 POP SWAP2 SWAP1 POP JUMP JUMPDEST PUSH2 0x3AA4 DUP2 PUSH2 0x3A79 JUMP JUMPDEST DUP3 MSTORE POP POP JUMP JUMPDEST PUSH1 0x0 PUSH1 0x40 DUP3 ADD SWAP1 POP PUSH2 0x3ABF PUSH1 0x0 DUP4 ADD DUP6 PUSH2 0x2B98 JUMP JUMPDEST PUSH2 0x3ACC PUSH1 0x20 DUP4 ADD DUP5 PUSH2 0x3A9B JUMP JUMPDEST SWAP4 SWAP3 POP POP POP JUMP JUMPDEST PUSH32 0x4F776E61626C653A206E6577206F776E657220697320746865207A65726F2061 PUSH1 0x0 DUP3 ADD MSTORE PUSH32 0x6464726573730000000000000000000000000000000000000000000000000000 PUSH1 0x20 DUP3 ADD MSTORE POP JUMP JUMPDEST PUSH1 0x0 PUSH2 0x3B2F PUSH1 0x26 DUP4 PUSH2 0x335F JUMP JUMPDEST SWAP2 POP PUSH2 0x3B3A DUP3 PUSH2 0x3AD3 JUMP JUMPDEST PUSH1 0x40 DUP3 ADD SWAP1 POP SWAP2 SWAP1 POP JUMP JUMPDEST PUSH1 0x0 PUSH1 0x20 DUP3 ADD SWAP1 POP DUP2 DUP2 SUB PUSH1 0x0 DUP4 ADD MSTORE PUSH2 0x3B5E DUP2 PUSH2 0x3B22 JUMP JUMPDEST SWAP1 POP SWAP2 SWAP1 POP JUMP JUMPDEST PUSH32 0x4F776E61626C653A2063616C6C6572206973206E6F7420746865206F776E6572 PUSH1 0x0 DUP3 ADD MSTORE POP JUMP JUMPDEST PUSH1 0x0 PUSH2 0x3B9B PUSH1 0x20 DUP4 PUSH2 0x335F JUMP JUMPDEST SWAP2 POP PUSH2 0x3BA6 DUP3 PUSH2 0x3B65 JUMP JUMPDEST PUSH1 0x20 DUP3 ADD SWAP1 POP SWAP2 SWAP1 POP JUMP JUMPDEST PUSH1 0x0 PUSH1 0x20 DUP3 ADD SWAP1 POP DUP2 DUP2 SUB PUSH1 0x0 DUP4 ADD MSTORE PUSH2 0x3BCA DUP2 PUSH2 0x3B8E JUMP JUMPDEST SWAP1 POP SWAP2 SWAP1 POP JUMP JUMPDEST PUSH32 0x5265656E7472616E637947756172643A207265656E7472616E742063616C6C00 PUSH1 0x0 DUP3 ADD MSTORE POP JUMP JUMPDEST PUSH1 0x0 PUSH2 0x3C07 PUSH1 0x1F DUP4 PUSH2 0x335F JUMP JUMPDEST SWAP2 POP PUSH2 0x3C12 DUP3 PUSH2 0x3BD1 JUMP JUMPDEST PUSH1 0x20 DUP3 ADD SWAP1 POP SWAP2 SWAP1 POP JUMP JUMPDEST PUSH1 0x0 PUSH1 0x20 DUP3 ADD SWAP1 POP DUP2 DUP2 SUB PUSH1 0x0 DUP4 ADD MSTORE PUSH2 0x3C36 DUP2 PUSH2 0x3BFA JUMP JUMPDEST SWAP1 POP SWAP2 SWAP1 POP JUMP JUMPDEST PUSH1 0x0 DUP2 MLOAD SWAP1 POP PUSH2 0x3C4C DUP2 PUSH2 0x2B3F JUMP JUMPDEST SWAP3 SWAP2 POP POP JUMP JUMPDEST PUSH1 0x0 PUSH1 0x20 DUP3 DUP5 SUB SLT ISZERO PUSH2 0x3C68 JUMPI PUSH2 0x3C67 PUSH2 0x2B35 JUMP JUMPDEST JUMPDEST PUSH1 0x0 PUSH2 0x3C76 DUP5 DUP3 DUP6 ADD PUSH2 0x3C3D JUMP JUMPDEST SWAP2 POP POP SWAP3 SWAP2 POP POP JUMP JUMPDEST PUSH32 0x547279696E6720746F206D696E7420746F6F206D616E792072696E67732E0000 PUSH1 0x0 DUP3 ADD MSTORE POP JUMP JUMPDEST PUSH1 0x0 PUSH2 0x3CB5 PUSH1 0x1E DUP4 PUSH2 0x335F JUMP JUMPDEST SWAP2 POP PUSH2 0x3CC0 DUP3 PUSH2 0x3C7F JUMP JUMPDEST PUSH1 0x20 DUP3 ADD SWAP1 POP SWAP2 SWAP1 POP JUMP JUMPDEST PUSH1 0x0 PUSH1 0x20 DUP3 ADD SWAP1 POP DUP2 DUP2 SUB PUSH1 0x0 DUP4 ADD MSTORE PUSH2 0x3CE4 DUP2 PUSH2 0x3CA8 JUMP JUMPDEST SWAP1 POP SWAP2 SWAP1 POP JUMP JUMPDEST PUSH32 0x4C6F63616C20696E646578206F766572666C6F772E0000000000000000000000 PUSH1 0x0 DUP3 ADD MSTORE POP JUMP JUMPDEST PUSH1 0x0 PUSH2 0x3D21 PUSH1 0x15 DUP4 PUSH2 0x335F JUMP JUMPDEST SWAP2 POP PUSH2 0x3D2C DUP3 PUSH2 0x3CEB JUMP JUMPDEST PUSH1 0x20 DUP3 ADD SWAP1 POP SWAP2 SWAP1 POP JUMP JUMPDEST PUSH1 0x0 PUSH1 0x20 DUP3 ADD SWAP1 POP DUP2 DUP2 SUB PUSH1 0x0 DUP4 ADD MSTORE PUSH2 0x3D50 DUP2 PUSH2 0x3D14 JUMP JUMPDEST SWAP1 POP SWAP2 SWAP1 POP JUMP JUMPDEST PUSH32 0x52696E6720696E646578206F766572666C6F772E000000000000000000000000 PUSH1 0x0 DUP3 ADD MSTORE POP JUMP JUMPDEST PUSH1 0x0 PUSH2 0x3D8D PUSH1 0x14 DUP4 PUSH2 0x335F JUMP JUMPDEST SWAP2 POP PUSH2 0x3D98 DUP3 PUSH2 0x3D57 JUMP JUMPDEST PUSH1 0x20 DUP3 ADD SWAP1 POP SWAP2 SWAP1 POP JUMP JUMPDEST PUSH1 0x0 PUSH1 0x20 DUP3 ADD SWAP1 POP DUP2 DUP2 SUB PUSH1 0x0 DUP4 ADD MSTORE PUSH2 0x3DBC DUP2 PUSH2 0x3D80 JUMP JUMPDEST SWAP1 POP SWAP2 SWAP1 POP JUMP JUMPDEST PUSH1 0x0 PUSH2 0x3DCE DUP3 PUSH2 0x2A77 JUMP JUMPDEST SWAP2 POP PUSH2 0x3DD9 DUP4 PUSH2 0x2A77 JUMP JUMPDEST SWAP3 POP DUP3 DUP3 MUL PUSH2 0x3DE7 DUP2 PUSH2 0x2A77 JUMP JUMPDEST SWAP2 POP DUP3 DUP3 DIV DUP5 EQ DUP4 ISZERO OR PUSH2 0x3DFE JUMPI PUSH2 0x3DFD PUSH2 0x33DC JUMP JUMPDEST JUMPDEST POP SWAP3 SWAP2 POP POP JUMP JUMPDEST PUSH32 0x45746865722076616C75652073656E74206973206E6F74206163637572617465 PUSH1 0x0 DUP3 ADD MSTORE PUSH32 0x2E00000000000000000000000000000000000000000000000000000000000000 PUSH1 0x20 DUP3 ADD MSTORE POP JUMP JUMPDEST PUSH1 0x0 PUSH2 0x3E61 PUSH1 0x21 DUP4 PUSH2 0x335F JUMP JUMPDEST SWAP2 POP PUSH2 0x3E6C DUP3 PUSH2 0x3E05 JUMP JUMPDEST PUSH1 0x40 DUP3 ADD SWAP1 POP SWAP2 SWAP1 POP JUMP JUMPDEST PUSH1 0x0 PUSH1 0x20 DUP3 ADD SWAP1 POP DUP2 DUP2 SUB PUSH1 0x0 DUP4 ADD MSTORE PUSH2 0x3E90 DUP2 PUSH2 0x3E54 JUMP JUMPDEST SWAP1 POP SWAP2 SWAP1 POP JUMP JUMPDEST PUSH1 0x0 PUSH2 0x3EA3 DUP3 DUP7 PUSH2 0x3511 JUMP JUMPDEST PUSH1 0x20 DUP3 ADD SWAP2 POP PUSH2 0x3EB3 DUP3 DUP6 PUSH2 0x3499 JUMP JUMPDEST PUSH1 0x14 DUP3 ADD SWAP2 POP PUSH2 0x3EC3 DUP3 DUP5 PUSH2 0x3511 JUMP JUMPDEST PUSH1 0x20 DUP3 ADD SWAP2 POP DUP2 SWAP1 POP SWAP5 SWAP4 POP POP POP POP JUMP JUMPDEST PUSH32 0x4E487B7100000000000000000000000000000000000000000000000000000000 PUSH1 0x0 MSTORE PUSH1 0x12 PUSH1 0x4 MSTORE PUSH1 0x24 PUSH1 0x0 REVERT JUMPDEST PUSH1 0x0 PUSH2 0x3F0E DUP3 PUSH2 0x2A77 JUMP JUMPDEST SWAP2 POP PUSH2 0x3F19 DUP4 PUSH2 0x2A77 JUMP JUMPDEST SWAP3 POP DUP3 PUSH2 0x3F29 JUMPI PUSH2 0x3F28 PUSH2 0x3ED4 JUMP JUMPDEST JUMPDEST DUP3 DUP3 MOD SWAP1 POP SWAP3 SWAP2 POP POP JUMP INVALID LOG2 PUSH5 0x6970667358 0x22 SLT KECCAK256 JUMP DUP10 OR SWAP4 0xD1 REVERT 0xBF 0x1E DUP15 GASLIMIT 0xE2 DUP14 0xD5 CALLDATACOPY OR 0xE1 0xCA PUSH30 0xDA272F6D5018C5D7507D940464EC64736F6C634300081200330000000000 "},"methodIdentifiers":{"claimlistMerkleRoot()":"2560e376","claimlistMint(uint256,uint256,bytes32[])":"4c3db84d","claimlistMinted(address)":"6138f236","claimsStartTime()":"8d56a17b","claimsStarted()":"3e97414f","forwardERC20s(address,uint256)":"9727151a","getAddressesWhoMinted()":"4907fc0c","getAvailableRings()":"b9a43f2e","getInitialRings()":"df477ead","getProbabilities()":"062f7b8c","getRingPrice()":"a0e52f89","getTokenIdRingType(uint256)":"2701b325","getTotalMintedRings()":"46bf289f","getTotalMintedRingsByType()":"2ce82a71","mint(uint256)":"a0712d68","mintlistMerkleRoot1()":"4ed1eb24","mintlistMerkleRoot2()":"1c7f4a02","mintlistMint(uint256,uint256,bytes32[])":"d012468f","mintlistMinted(address)":"e49618c1","mintlistStartTime()":"f4cde4c0","mintlistStarted()":"93cb4147","owner()":"8da5cb5b","ownerMint(uint8[],address[])":"9f0664b5","publicMintStartTime()":"d3cf00a3","publicStarted()":"8c6d8ef6","renounceOwnership()":"715018a6","ringGlobalOffset()":"5242a493","ringPrice()":"1af3ba81","ringTypeLocalOffset(uint256)":"96c9f88b","ringsMinted(uint256)":"158ae298","setClaimlistMerkleRoot(bytes32)":"411d13f7","setClaimsStartTime(uint256)":"260c0886","setGlobalIdOffset(uint256)":"a637f973","setLocalIdOffsets(uint256[])":"cc644fd2","setMintlistMerkleRoot1(bytes32)":"cef58283","setMintlistMerkleRoot2(bytes32)":"c2774dac","setMintlistStartTime(uint256)":"6e1a1a60","setPrice(uint256)":"91b7f5ed","setProbabilities(uint256[])":"d6117b3e","setPublicMintStartTime(uint256)":"5fcd80a6","setRingsAvailable(uint256)":"205ed382","setVaultAddress(address)":"85535cc5","setWatchersRing(address)":"dc37dc64","transferOwnership(address)":"f2fde38b","vault()":"fbfa77cf","watchersRing()":"f0c821de","withdraw(uint256)":"2e1a7d4d","withdrawAll()":"853828b6"}}}}}