{"contracts/WatchersRingMinter.sol":{"WatchersRingMinter":{"abi":[{"inputs":[{"internalType":"contract IWatchersRing","name":"_watchersRing","type":"address"}],"stateMutability":"nonpayable","type":"constructor"},{"inputs":[],"name":"Address0Error","type":"error"},{"inputs":[],"name":"ClaimWithoutPurchase","type":"error"},{"inputs":[],"name":"DeniedProcessDuringMinting","type":"error"},{"inputs":[{"internalType":"uint256","name":"sended_values","type":"uint256"},{"internalType":"uint256","name":"expected","type":"uint256"}],"name":"GivenValuesNotValid","type":"error"},{"inputs":[],"name":"IncorrectPurchaseLimit","type":"error"},{"inputs":[],"name":"MisconfiguredPrices","type":"error"},{"inputs":[{"internalType":"uint256","name":"correct_date","type":"uint256"},{"internalType":"uint256","name":"current_date","type":"uint256"}],"name":"WrongDateForProcess","type":"error"},{"anonymous":false,"inputs":[{"indexed":true,"internalType":"address","name":"previousOwner","type":"address"},{"indexed":true,"internalType":"address","name":"newOwner","type":"address"}],"name":"OwnershipTransferred","type":"event"},{"inputs":[],"name":"claimlistMerkleRoot","outputs":[{"internalType":"bytes32","name":"","type":"bytes32"}],"stateMutability":"view","type":"function"},{"inputs":[{"internalType":"uint256","name":"numRings","type":"uint256"},{"internalType":"uint256","name":"claimedMaxRings","type":"uint256"},{"internalType":"bytes32[]","name":"_merkleProof","type":"bytes32[]"}],"name":"claimlistMint","outputs":[],"stateMutability":"payable","type":"function"},{"inputs":[{"internalType":"address","name":"","type":"address"}],"name":"claimlistMinted","outputs":[{"internalType":"uint256","name":"","type":"uint256"}],"stateMutability":"view","type":"function"},{"inputs":[],"name":"claimsStartTime","outputs":[{"internalType":"uint256","name":"","type":"uint256"}],"stateMutability":"view","type":"function"},{"inputs":[],"name":"claimsStarted","outputs":[{"internalType":"bool","name":"","type":"bool"}],"stateMutability":"view","type":"function"},{"inputs":[{"internalType":"contract IERC20","name":"_token","type":"address"},{"internalType":"uint256","name":"_amount","type":"uint256"}],"name":"forwardERC20s","outputs":[],"stateMutability":"nonpayable","type":"function"},{"inputs":[],"name":"getAvailableRings","outputs":[{"internalType":"uint256","name":"","type":"uint256"}],"stateMutability":"view","type":"function"},{"inputs":[],"name":"getInitialRings","outputs":[{"internalType":"uint256","name":"","type":"uint256"}],"stateMutability":"view","type":"function"},{"inputs":[],"name":"getProbabilities","outputs":[{"internalType":"uint256[]","name":"","type":"uint256[]"}],"stateMutability":"view","type":"function"},{"inputs":[],"name":"getRingPrice","outputs":[{"internalType":"uint256","name":"","type":"uint256"}],"stateMutability":"view","type":"function"},{"inputs":[{"internalType":"uint256","name":"tokenId","type":"uint256"}],"name":"getTokenIdRingType","outputs":[{"internalType":"uint256","name":"","type":"uint256"}],"stateMutability":"pure","type":"function"},{"inputs":[],"name":"getTotalMintedRings","outputs":[{"internalType":"uint256","name":"","type":"uint256"}],"stateMutability":"view","type":"function"},{"inputs":[],"name":"getTotalMintedRingsByType","outputs":[{"internalType":"uint256[]","name":"","type":"uint256[]"}],"stateMutability":"view","type":"function"},{"inputs":[{"internalType":"uint256","name":"numRings","type":"uint256"}],"name":"mint","outputs":[],"stateMutability":"payable","type":"function"},{"inputs":[],"name":"mintlistMerkleRoot1","outputs":[{"internalType":"bytes32","name":"","type":"bytes32"}],"stateMutability":"view","type":"function"},{"inputs":[],"name":"mintlistMerkleRoot2","outputs":[{"internalType":"bytes32","name":"","type":"bytes32"}],"stateMutability":"view","type":"function"},{"inputs":[{"internalType":"uint256","name":"numRings","type":"uint256"},{"internalType":"uint256","name":"claimedMaxRings","type":"uint256"},{"internalType":"bytes32[]","name":"_merkleProof","type":"bytes32[]"}],"name":"mintlistMint","outputs":[],"stateMutability":"payable","type":"function"},{"inputs":[{"internalType":"address","name":"","type":"address"}],"name":"mintlistMinted","outputs":[{"internalType":"uint256","name":"","type":"uint256"}],"stateMutability":"view","type":"function"},{"inputs":[],"name":"mintlistStartTime","outputs":[{"internalType":"uint256","name":"","type":"uint256"}],"stateMutability":"view","type":"function"},{"inputs":[],"name":"mintlistStarted","outputs":[{"internalType":"bool","name":"","type":"bool"}],"stateMutability":"view","type":"function"},{"inputs":[],"name":"owner","outputs":[{"internalType":"address","name":"","type":"address"}],"stateMutability":"view","type":"function"},{"inputs":[{"internalType":"enum IWatchersRing.WatchersRingType[]","name":"ringTypes","type":"uint8[]"},{"internalType":"address[]","name":"recipients","type":"address[]"}],"name":"ownerMint","outputs":[],"stateMutability":"nonpayable","type":"function"},{"inputs":[],"name":"publicMintStartTime","outputs":[{"internalType":"uint256","name":"","type":"uint256"}],"stateMutability":"view","type":"function"},{"inputs":[],"name":"publicStarted","outputs":[{"internalType":"bool","name":"","type":"bool"}],"stateMutability":"view","type":"function"},{"inputs":[],"name":"renounceOwnership","outputs":[],"stateMutability":"nonpayable","type":"function"},{"inputs":[],"name":"ringGlobalOffset","outputs":[{"internalType":"uint256","name":"","type":"uint256"}],"stateMutability":"view","type":"function"},{"inputs":[],"name":"ringPrice","outputs":[{"internalType":"uint256","name":"","type":"uint256"}],"stateMutability":"view","type":"function"},{"inputs":[{"internalType":"uint256","name":"","type":"uint256"}],"name":"ringTypeLocalOffset","outputs":[{"internalType":"uint256","name":"","type":"uint256"}],"stateMutability":"view","type":"function"},{"inputs":[{"internalType":"uint256","name":"","type":"uint256"}],"name":"ringsMinted","outputs":[{"internalType":"uint256","name":"","type":"uint256"}],"stateMutability":"view","type":"function"},{"inputs":[{"internalType":"bytes32","name":"newMerkleRoot","type":"bytes32"}],"name":"setClaimlistMerkleRoot","outputs":[],"stateMutability":"nonpayable","type":"function"},{"inputs":[{"internalType":"uint256","name":"_newClaimsStartTime","type":"uint256"}],"name":"setClaimsStartTime","outputs":[],"stateMutability":"nonpayable","type":"function"},{"inputs":[{"internalType":"uint256","name":"_newGlobalIdOffset","type":"uint256"}],"name":"setGlobalIdOffset","outputs":[],"stateMutability":"nonpayable","type":"function"},{"inputs":[{"internalType":"uint256[]","name":"_newRingTypeLocalOffset","type":"uint256[]"}],"name":"setLocalIdOffsets","outputs":[],"stateMutability":"nonpayable","type":"function"},{"inputs":[{"internalType":"bytes32","name":"newMerkleRoot","type":"bytes32"}],"name":"setMintlistMerkleRoot1","outputs":[],"stateMutability":"nonpayable","type":"function"},{"inputs":[{"internalType":"bytes32","name":"newMerkleRoot","type":"bytes32"}],"name":"setMintlistMerkleRoot2","outputs":[],"stateMutability":"nonpayable","type":"function"},{"inputs":[{"internalType":"uint256","name":"_newAllowlistMintStartTime","type":"uint256"}],"name":"setMintlistStartTime","outputs":[],"stateMutability":"nonpayable","type":"function"},{"inputs":[{"internalType":"uint256","name":"_newPrice","type":"uint256"}],"name":"setPrice","outputs":[],"stateMutability":"nonpayable","type":"function"},{"inputs":[{"internalType":"uint256[]","name":"_newProbabilities","type":"uint256[]"}],"name":"setProbabilities","outputs":[],"stateMutability":"nonpayable","type":"function"},{"inputs":[{"internalType":"uint256","name":"_newPublicMintStartTime","type":"uint256"}],"name":"setPublicMintStartTime","outputs":[],"stateMutability":"nonpayable","type":"function"},{"inputs":[{"internalType":"uint256","name":"_newRingsAvailable","type":"uint256"}],"name":"setRingsAvailable","outputs":[],"stateMutability":"nonpayable","type":"function"},{"inputs":[{"internalType":"address payable","name":"_newVaultAddress","type":"address"}],"name":"setVaultAddress","outputs":[],"stateMutability":"nonpayable","type":"function"},{"inputs":[{"internalType":"contract IWatchersRing","name":"_newWatchersRingAddress","type":"address"}],"name":"setWatchersRing","outputs":[],"stateMutability":"nonpayable","type":"function"},{"inputs":[{"internalType":"address","name":"newOwner","type":"address"}],"name":"transferOwnership","outputs":[],"stateMutability":"nonpayable","type":"function"},{"inputs":[],"name":"vault","outputs":[{"internalType":"address payable","name":"","type":"address"}],"stateMutability":"view","type":"function"},{"inputs":[],"name":"watchersRing","outputs":[{"internalType":"contract IWatchersRing","name":"","type":"address"}],"stateMutability":"view","type":"function"},{"inputs":[{"internalType":"uint256","name":"_amount","type":"uint256"}],"name":"withdraw","outputs":[],"stateMutability":"nonpayable","type":"function"},{"inputs":[],"name":"withdrawAll","outputs":[],"stateMutability":"nonpayable","type":"function"}],"evm":{"bytecode":{"linkReferences":{},"object":"60806040526102bc6004556000600555604051806101000160405280600e60ff168152602001600e60ff168152602001600e60ff168152602001600e60ff168152602001600e60ff168152602001600e60ff168152602001600e60ff168152602001600260ff1681525060069060086200007b9291906200042f565b50604051806101000160405280600160ff168152602001600160ff168152602001600160ff168152602001600160ff168152602001600160ff168152602001600160ff168152602001600160ff168152602001600160ff168152506007906008620000e89291906200042f565b5060016008557fffffffffffffffffffffffffffffffffffffffffffffffffffffffffffffffff6009557fffffffffffffffffffffffffffffffffffffffffffffffffffffffffffffffff600a557fffffffffffffffffffffffffffffffffffffffffffffffffffffffffffffffff600b557fffffffffffffffffffffffffffffffffffffffffffffffffffffffffffffffff600c553480156200018b57600080fd5b50604051620040da380380620040da8339818101604052810190620001b1919062000523565b620001d1620001c56200020160201b60201c565b6200020960201b60201c565b60018081905550620001e981620002cd60201b60201c565b620001fa336200032160201b60201c565b50620005d8565b600033905090565b60008060009054906101000a900473ffffffffffffffffffffffffffffffffffffffff169050816000806101000a81548173ffffffffffffffffffffffffffffffffffffffff021916908373ffffffffffffffffffffffffffffffffffffffff1602179055508173ffffffffffffffffffffffffffffffffffffffff168173ffffffffffffffffffffffffffffffffffffffff167f8be0079c531659141344cd1fd0a4f28419497f9722a3daafe3b4186f6b6457e060405160405180910390a35050565b620002dd6200037560201b60201c565b80600260006101000a81548173ffffffffffffffffffffffffffffffffffffffff021916908373ffffffffffffffffffffffffffffffffffffffff16021790555050565b620003316200037560201b60201c565b80600360006101000a81548173ffffffffffffffffffffffffffffffffffffffff021916908373ffffffffffffffffffffffffffffffffffffffff16021790555050565b620003856200020160201b60201c565b73ffffffffffffffffffffffffffffffffffffffff16620003ab6200040660201b60201c565b73ffffffffffffffffffffffffffffffffffffffff161462000404576040517f08c379a0000000000000000000000000000000000000000000000000000000008152600401620003fb90620005b6565b60405180910390fd5b565b60008060009054906101000a900473ffffffffffffffffffffffffffffffffffffffff16905090565b82805482825590600052602060002090810192821562000473579160200282015b8281111562000472578251829060ff1690559160200191906001019062000450565b5b50905062000482919062000486565b5090565b5b80821115620004a157600081600090555060010162000487565b5090565b600080fd5b600073ffffffffffffffffffffffffffffffffffffffff82169050919050565b6000620004d782620004aa565b9050919050565b6000620004eb82620004ca565b9050919050565b620004fd81620004de565b81146200050957600080fd5b50565b6000815190506200051d81620004f2565b92915050565b6000602082840312156200053c576200053b620004a5565b5b60006200054c848285016200050c565b91505092915050565b600082825260208201905092915050565b7f4f776e61626c653a2063616c6c6572206973206e6f7420746865206f776e6572600082015250565b60006200059e60208362000555565b9150620005ab8262000566565b602082019050919050565b60006020820190508181036000830152620005d1816200058f565b9050919050565b613af280620005e86000396000f3fe6080604052600436106102885760003560e01c80638d56a17b1161015a578063cc644fd2116100c1578063df477ead1161007a578063df477ead14610943578063e49618c11461096e578063f0c821de146109ab578063f2fde38b146109d6578063f4cde4c0146109ff578063fbfa77cf14610a2a57610288565b8063cc644fd214610858578063cef5828314610881578063d012468f146108aa578063d3cf00a3146108c6578063d6117b3e146108f1578063dc37dc641461091a57610288565b80639f0664b5116101135780639f0664b51461076b578063a0712d6814610794578063a0e52f89146107b0578063a637f973146107db578063b9a43f2e14610804578063c2774dac1461082f57610288565b80638d56a17b1461065b5780638da5cb5b1461068657806391b7f5ed146106b157806393cb4147146106da57806396c9f88b146107055780639727151a1461074257610288565b8063411d13f7116101fe5780636138f236116101b75780636138f236146105735780636e1a1a60146105b0578063715018a6146105d9578063853828b6146105f057806385535cc5146106075780638c6d8ef61461063057610288565b8063411d13f71461048457806346bf289f146104ad5780634c3db84d146104d85780634ed1eb24146104f45780635242a4931461051f5780635fcd80a61461054a57610288565b80632560e376116102505780632560e37614610374578063260c08861461039f5780632701b325146103c85780632ce82a71146104055780632e1a7d4d146104305780633e97414f1461045957610288565b8063062f7b8c1461028d578063158ae298146102b85780631af3ba81146102f55780631c7f4a0214610320578063205ed3821461034b575b600080fd5b34801561029957600080fd5b506102a2610a55565b6040516102af91906127e7565b60405180910390f35b3480156102c457600080fd5b506102df60048036038101906102da919061283f565b610aad565b6040516102ec919061287b565b60405180910390f35b34801561030157600080fd5b5061030a610ac5565b604051610317919061287b565b60405180910390f35b34801561032c57600080fd5b50610335610acb565b60405161034291906128af565b60405180910390f35b34801561035757600080fd5b50610372600480360381019061036d919061283f565b610ad1565b005b34801561038057600080fd5b50610389610b22565b60405161039691906128af565b60405180910390f35b3480156103ab57600080fd5b506103c660048036038101906103c1919061283f565b610b28565b005b3480156103d457600080fd5b506103ef60048036038101906103ea919061283f565b610b3a565b6040516103fc919061287b565b60405180910390f35b34801561041157600080fd5b5061041a610b47565b60405161042791906127e7565b60405180910390f35b34801561043c57600080fd5b506104576004803603810190610452919061283f565b610d45565b005b34801561046557600080fd5b5061046e610e1f565b60405161047b91906128e5565b60405180910390f35b34801561049057600080fd5b506104ab60048036038101906104a6919061292c565b610e2c565b005b3480156104b957600080fd5b506104c2610e3e565b6040516104cf919061287b565b60405180910390f35b6104f260048036038101906104ed91906129be565b610f37565b005b34801561050057600080fd5b50610509611148565b60405161051691906128af565b60405180910390f35b34801561052b57600080fd5b5061053461114e565b604051610541919061287b565b60405180910390f35b34801561055657600080fd5b50610571600480360381019061056c919061283f565b611154565b005b34801561057f57600080fd5b5061059a60048036038101906105959190612a90565b611166565b6040516105a7919061287b565b60405180910390f35b3480156105bc57600080fd5b506105d760048036038101906105d2919061283f565b61117e565b005b3480156105e557600080fd5b506105ee611190565b005b3480156105fc57600080fd5b506106056111a4565b005b34801561061357600080fd5b5061062e60048036038101906106299190612afb565b61127d565b005b34801561063c57600080fd5b506106456112c9565b60405161065291906128e5565b60405180910390f35b34801561066757600080fd5b506106706112d6565b60405161067d919061287b565b60405180910390f35b34801561069257600080fd5b5061069b6112dc565b6040516106a89190612b37565b60405180910390f35b3480156106bd57600080fd5b506106d860048036038101906106d3919061283f565b611305565b005b3480156106e657600080fd5b506106ef611356565b6040516106fc91906128e5565b60405180910390f35b34801561071157600080fd5b5061072c6004803603810190610727919061283f565b611363565b604051610739919061287b565b60405180910390f35b34801561074e57600080fd5b5061076960048036038101906107649190612b90565b611387565b005b34801561077757600080fd5b50610792600480360381019061078d9190612c7c565b611478565b005b6107ae60048036038101906107a9919061283f565b611662565b005b3480156107bc57600080fd5b506107c561167e565b6040516107d2919061287b565b60405180910390f35b3480156107e757600080fd5b5061080260048036038101906107fd919061283f565b611688565b005b34801561081057600080fd5b506108196116d9565b604051610826919061287b565b60405180910390f35b34801561083b57600080fd5b506108566004803603810190610851919061292c565b6117e2565b005b34801561086457600080fd5b5061087f600480360381019061087a9190612d53565b6117f4565b005b34801561088d57600080fd5b506108a860048036038101906108a3919061292c565b61189f565b005b6108c460048036038101906108bf91906129be565b6118b1565b005b3480156108d257600080fd5b506108db611b5e565b6040516108e8919061287b565b60405180910390f35b3480156108fd57600080fd5b5061091860048036038101906109139190612d53565b611b64565b005b34801561092657600080fd5b50610941600480360381019061093c9190612dde565b611ca2565b005b34801561094f57600080fd5b50610958611cee565b604051610965919061287b565b60405180910390f35b34801561097a57600080fd5b5061099560048036038101906109909190612a90565b611cf8565b6040516109a2919061287b565b60405180910390f35b3480156109b757600080fd5b506109c0611d10565b6040516109cd9190612e6a565b60405180910390f35b3480156109e257600080fd5b506109fd60048036038101906109f89190612a90565b611d36565b005b348015610a0b57600080fd5b50610a14611db9565b604051610a21919061287b565b60405180910390f35b348015610a3657600080fd5b50610a3f611dbf565b604051610a4c9190612e94565b60405180910390f35b60606006805480602002602001604051908101604052809291908181526020018280548015610aa357602002820191906000526020600020905b815481526020019060010190808311610a8f575b5050505050905090565b60106020528060005260406000206000915090505481565b60095481565b600e5481565b610ad9611de5565b610ae1611356565b15610b18576040517ff2a84b6300000000000000000000000000000000000000000000000000000000815260040160405180910390fd5b8060048190555050565b600f5481565b610b30611de5565b80600c8190555050565b600060ff82169050919050565b60606000600867ffffffffffffffff811115610b6657610b65612eaf565b5b604051908082528060200260200182016040528015610b945781602001602082028036833780820191505090505b509050601060008081526020019081526020016000205481600081518110610bbf57610bbe612ede565b5b60200260200101818152505060106000600181526020019081526020016000205481600181518110610bf457610bf3612ede565b5b60200260200101818152505060106000600281526020019081526020016000205481600281518110610c2957610c28612ede565b5b60200260200101818152505060106000600381526020019081526020016000205481600381518110610c5e57610c5d612ede565b5b60200260200101818152505060106000600481526020019081526020016000205481600481518110610c9357610c92612ede565b5b60200260200101818152505060106000600581526020019081526020016000205481600581518110610cc857610cc7612ede565b5b60200260200101818152505060106000600681526020019081526020016000205481600681518110610cfd57610cfc612ede565b5b60200260200101818152505060106000600781526020019081526020016000205481600781518110610d3257610d31612ede565b5b6020026020010181815250508091505090565b610d4d611de5565b6000600360009054906101000a900473ffffffffffffffffffffffffffffffffffffffff1673ffffffffffffffffffffffffffffffffffffffff1682604051610d9590612f3e565b60006040518083038185875af1925050503d8060008114610dd2576040519150601f19603f3d011682016040523d82523d6000602084013e610dd7565b606091505b5050905080610e1b576040517f08c379a0000000000000000000000000000000000000000000000000000000008152600401610e1290612fb0565b60405180910390fd5b5050565b6000600c54421015905090565b610e34611de5565b80600f8190555050565b6000806010600060078152602001908152602001600020546010600060068152602001908152602001600020546010600060058152602001908152602001600020546010600060048152602001908152602001600020546010600060038152602001908152602001600020546010600060028152602001908152602001600020546010600060018152602001908152602001600020546010600080815260200190815260200160002054610ef29190612fff565b610efc9190612fff565b610f069190612fff565b610f109190612fff565b610f1a9190612fff565b610f249190612fff565b610f2e9190612fff565b90508091505090565b610f3f611e63565b610f47610e1f565b610f8c57600c54426040517f66803fc1000000000000000000000000000000000000000000000000000000008152600401610f83929190613033565b60405180910390fd5b60003384604051602001610fa192919061311c565b604051602081830303815290604052805190602001209050611007838380806020026020016040519081016040528093929190818152602001838360200280828437600081840152601f19601f82011690508083019250505050505050600f5483611eb2565b611046576040517f08c379a000000000000000000000000000000000000000000000000000000000815260040161103d9061319f565b60405180910390fd5b6000601260003373ffffffffffffffffffffffffffffffffffffffff1673ffffffffffffffffffffffffffffffffffffffff1681526020019081526020016000205490508486826110979190612fff565b11156110d8576040517f08c379a00000000000000000000000000000000000000000000000000000000081526004016110cf9061320b565b60405180910390fd5b85601260003373ffffffffffffffffffffffffffffffffffffffff1673ffffffffffffffffffffffffffffffffffffffff16815260200190815260200160002060008282546111279190612fff565b925050819055506111388633611ec9565b50506111426120ff565b50505050565b600d5481565b60085481565b61115c611de5565b80600a8190555050565b60126020528060005260406000206000915090505481565b611186611de5565b80600b8190555050565b611198611de5565b6111a26000612108565b565b6111ac611de5565b6000600360009054906101000a900473ffffffffffffffffffffffffffffffffffffffff1673ffffffffffffffffffffffffffffffffffffffff16476040516111f490612f3e565b60006040518083038185875af1925050503d8060008114611231576040519150601f19603f3d011682016040523d82523d6000602084013e611236565b606091505b505090508061127a576040517f08c379a000000000000000000000000000000000000000000000000000000000815260040161127190613277565b60405180910390fd5b50565b611285611de5565b80600360006101000a81548173ffffffffffffffffffffffffffffffffffffffff021916908373ffffffffffffffffffffffffffffffffffffffff16021790555050565b6000600a54421015905090565b600c5481565b60008060009054906101000a900473ffffffffffffffffffffffffffffffffffffffff16905090565b61130d611de5565b611315611356565b1561134c576040517ff2a84b6300000000000000000000000000000000000000000000000000000000815260040160405180910390fd5b8060098190555050565b6000600b54421015905090565b6007818154811061137357600080fd5b906000526020600020016000915090505481565b61138f611de5565b600073ffffffffffffffffffffffffffffffffffffffff163373ffffffffffffffffffffffffffffffffffffffff16036113f5576040517f48ac165200000000000000000000000000000000000000000000000000000000815260040160405180910390fd5b8173ffffffffffffffffffffffffffffffffffffffff1663a9059cbb33836040518363ffffffff1660e01b8152600401611430929190613297565b6020604051808303816000875af115801561144f573d6000803e3d6000fd5b505050506040513d601f19601f8201168201806040525081019061147391906132ec565b505050565b611480611de5565b8181905084849050146114c8576040517f08c379a00000000000000000000000000000000000000000000000000000000081526004016114bf9061338b565b60405180910390fd5b60005b8282905081101561165b5760006115088686848181106114ee576114ed612ede565b5b905060200201602081019061150391906133d0565b6121cc565b90506010600087878581811061152157611520612ede565b5b905060200201602081019061153691906133d0565b6007811115611548576115476133fd565b5b8152602001908152602001600020600081546115639061342c565b91905081905550600260009054906101000a900473ffffffffffffffffffffffffffffffffffffffff1673ffffffffffffffffffffffffffffffffffffffff166386ebf0108585858181106115bb576115ba612ede565b5b90506020020160208101906115d09190612a90565b838989878181106115e4576115e3612ede565b5b90506020020160208101906115f991906133d0565b6040518463ffffffff1660e01b8152600401611617939291906134bc565b600060405180830381600087803b15801561163157600080fd5b505af1158015611645573d6000803e3d6000fd5b5050505050806116549061342c565b90506114cb565b5050505050565b61166a611e63565b61167381612407565b61167b6120ff565b50565b6000600954905090565b611690611de5565b611698611356565b156116cf576040517ff2a84b6300000000000000000000000000000000000000000000000000000000815260040160405180910390fd5b8060088190555050565b600080600454905060106000600781526020019081526020016000205460106000600681526020019081526020016000205460106000600581526020019081526020016000205460106000600481526020019081526020016000205460106000600381526020019081526020016000205460106000600281526020019081526020016000205460106000600181526020019081526020016000205460106000808152602001908152602001600020546117929190612fff565b61179c9190612fff565b6117a69190612fff565b6117b09190612fff565b6117ba9190612fff565b6117c49190612fff565b6117ce9190612fff565b816117d991906134f3565b90508091505090565b6117ea611de5565b80600e8190555050565b6117fc611de5565b6008828290501461184a578181905060086040517f485d33a2000000000000000000000000000000000000000000000000000000008152600401611841929190613562565b60405180910390fd5b611852611356565b15611889576040517ff2a84b6300000000000000000000000000000000000000000000000000000000815260040160405180910390fd5b81816007919061189a9291906126b5565b505050565b6118a7611de5565b80600d8190555050565b6118b9611e63565b6118c1611356565b61190657600b54426040517f66803fc10000000000000000000000000000000000000000000000000000000081526004016118fd929190613033565b60405180910390fd5b6000841115806119165750601484115b1561194d576040517fca02d6eb00000000000000000000000000000000000000000000000000000000815260040160405180910390fd5b6000338460405160200161196292919061311c565b6040516020818303038152906040528051906020012090506119c8838380806020026020016040519081016040528093929190818152602001838360200280828437600081840152601f19601f82011690508083019250505050505050600d5483611eb2565b80611a1d5750611a1c838380806020026020016040519081016040528093929190818152602001838360200280828437600081840152601f19601f82011690508083019250505050505050600e5483611eb2565b5b611a5c576040517f08c379a0000000000000000000000000000000000000000000000000000000008152600401611a539061319f565b60405180910390fd5b6000601160003373ffffffffffffffffffffffffffffffffffffffff1673ffffffffffffffffffffffffffffffffffffffff168152602001908152602001600020549050848682611aad9190612fff565b1115611aee576040517f08c379a0000000000000000000000000000000000000000000000000000000008152600401611ae5906135d7565b60405180910390fd5b85601160003373ffffffffffffffffffffffffffffffffffffffff1673ffffffffffffffffffffffffffffffffffffffff1681526020019081526020016000206000828254611b3d9190612fff565b92505081905550611b4e86336124a8565b5050611b586120ff565b50505050565b600a5481565b611b6c611de5565b6000805b83839050811015611bb557838382818110611b8e57611b8d612ede565b5b9050602002013582611ba09190612fff565b91508080611bad9061342c565b915050611b70565b5060648114611bfe578060646040517f485d33a2000000000000000000000000000000000000000000000000000000008152600401611bf5929190613632565b60405180910390fd5b60088383905014611c4c578282905060086040517f485d33a2000000000000000000000000000000000000000000000000000000008152600401611c43929190613562565b60405180910390fd5b611c54611356565b15611c8b576040517ff2a84b6300000000000000000000000000000000000000000000000000000000815260040160405180910390fd5b828260069190611c9c9291906126b5565b50505050565b611caa611de5565b80600260006101000a81548173ffffffffffffffffffffffffffffffffffffffff021916908373ffffffffffffffffffffffffffffffffffffffff16021790555050565b6000600454905090565b60116020528060005260406000206000915090505481565b600260009054906101000a900473ffffffffffffffffffffffffffffffffffffffff1681565b611d3e611de5565b600073ffffffffffffffffffffffffffffffffffffffff168173ffffffffffffffffffffffffffffffffffffffff1603611dad576040517f08c379a0000000000000000000000000000000000000000000000000000000008152600401611da4906136cd565b60405180910390fd5b611db681612108565b50565b600b5481565b600360009054906101000a900473ffffffffffffffffffffffffffffffffffffffff1681565b611ded612541565b73ffffffffffffffffffffffffffffffffffffffff16611e0b6112dc565b73ffffffffffffffffffffffffffffffffffffffff1614611e61576040517f08c379a0000000000000000000000000000000000000000000000000000000008152600401611e5890613739565b60405180910390fd5b565b600260015403611ea8576040517f08c379a0000000000000000000000000000000000000000000000000000000008152600401611e9f906137a5565b60405180910390fd5b6002600181905550565b600082611ebf8584612549565b1490509392505050565b3073ffffffffffffffffffffffffffffffffffffffff1663b9a43f2e6040518163ffffffff1660e01b8152600401602060405180830381865afa158015611f14573d6000803e3d6000fd5b505050506040513d601f19601f82011682018060405250810190611f3891906137da565b823073ffffffffffffffffffffffffffffffffffffffff166346bf289f6040518163ffffffff1660e01b8152600401602060405180830381865afa158015611f84573d6000803e3d6000fd5b505050506040513d601f19601f82011682018060405250810190611fa891906137da565b611fb29190612fff565b1115611ff3576040517f08c379a0000000000000000000000000000000000000000000000000000000008152600401611fea90613853565b60405180910390fd5b60005b828110156120fa57600061200861259f565b9050600081600781111561201f5761201e6133fd565b5b9050600061202c826121cc565b9050601060008481526020019081526020016000206000815461204e9061342c565b91905081905550600260009054906101000a900473ffffffffffffffffffffffffffffffffffffffff1673ffffffffffffffffffffffffffffffffffffffff166386ebf0108683856040518463ffffffff1660e01b81526004016120b4939291906134bc565b600060405180830381600087803b1580156120ce57600080fd5b505af11580156120e2573d6000803e3d6000fd5b50505050505050806120f39061342c565b9050611ff6565b505050565b60018081905550565b60008060009054906101000a900473ffffffffffffffffffffffffffffffffffffffff169050816000806101000a81548173ffffffffffffffffffffffffffffffffffffffff021916908373ffffffffffffffffffffffffffffffffffffffff1602179055508173ffffffffffffffffffffffffffffffffffffffff168173ffffffffffffffffffffffffffffffffffffffff167f8be0079c531659141344cd1fd0a4f28419497f9722a3daafe3b4186f6b6457e060405160405180910390a35050565b60008060085460106000600781526020019081526020016000205460106000600681526020019081526020016000205460106000600581526020019081526020016000205460106000600481526020019081526020016000205460106000600381526020019081526020016000205460106000600281526020019081526020016000205460106000600181526020019081526020016000205460106000808152602001908152602001600020546122839190612fff565b61228d9190612fff565b6122979190612fff565b6122a19190612fff565b6122ab9190612fff565b6122b59190612fff565b6122bf9190612fff565b6122c99190612fff565b9050600060078460078111156122e2576122e16133fd565b5b815481106122f3576122f2612ede565b5b906000526020600020015460106000866007811115612315576123146133fd565b5b81526020019081526020016000205461232e9190612fff565b905063ffffffff811115612377576040517f08c379a000000000000000000000000000000000000000000000000000000000815260040161236e906138bf565b60405180910390fd5b60ff84600781111561238c5761238b6133fd565b5b11156123cd576040517f08c379a00000000000000000000000000000000000000000000000000000000081526004016123c49061392b565b60405180910390fd5b8360078111156123e0576123df6133fd565b5b600882901b602884901b6123f49190612fff565b6123fe9190612fff565b92505050919050565b61240f6112c9565b61245457600a54426040517f66803fc100000000000000000000000000000000000000000000000000000000815260040161244b929190613033565b60405180910390fd5b6000811115806124645750601481115b1561249b576040517fca02d6eb00000000000000000000000000000000000000000000000000000000815260040160405180910390fd5b6124a581336124a8565b50565b6000600954116124e4576040517fc5fadba600000000000000000000000000000000000000000000000000000000815260040160405180910390fd5b816009546124f2919061394b565b3414612533576040517f08c379a000000000000000000000000000000000000000000000000000000000815260040161252a906139ff565b60405180910390fd5b61253d8282611ec9565b5050565b600033905090565b60008082905060005b84518110156125945761257f8286838151811061257257612571612ede565b5b6020026020010151612673565b9150808061258c9061342c565b915050612552565b508091505092915050565b60008060009050600560008154809291906125b99061342c565b919050555060006001606442336005546040516020016125db93929190613a1f565b6040516020818303038152906040528051906020012060001c6125fe9190613a8b565b6126089190612fff565b90506000805b600680549050811015612669576006818154811061262f5761262e612ede565b5b9060005260206000200154826126459190612fff565b915081831161265657809350612669565b80806126619061342c565b91505061260e565b5082935050505090565b600081831061268b57612686828461269e565b612696565b612695838361269e565b5b905092915050565b600082600052816020526040600020905092915050565b8280548282559060005260206000209081019282156126f1579160200282015b828111156126f05782358255916020019190600101906126d5565b5b5090506126fe9190612702565b5090565b5b8082111561271b576000816000905550600101612703565b5090565b600081519050919050565b600082825260208201905092915050565b6000819050602082019050919050565b6000819050919050565b61275e8161274b565b82525050565b60006127708383612755565b60208301905092915050565b6000602082019050919050565b60006127948261271f565b61279e818561272a565b93506127a98361273b565b8060005b838110156127da5781516127c18882612764565b97506127cc8361277c565b9250506001810190506127ad565b5085935050505092915050565b600060208201905081810360008301526128018184612789565b905092915050565b600080fd5b600080fd5b61281c8161274b565b811461282757600080fd5b50565b60008135905061283981612813565b92915050565b60006020828403121561285557612854612809565b5b60006128638482850161282a565b91505092915050565b6128758161274b565b82525050565b6000602082019050612890600083018461286c565b92915050565b6000819050919050565b6128a981612896565b82525050565b60006020820190506128c460008301846128a0565b92915050565b60008115159050919050565b6128df816128ca565b82525050565b60006020820190506128fa60008301846128d6565b92915050565b61290981612896565b811461291457600080fd5b50565b60008135905061292681612900565b92915050565b60006020828403121561294257612941612809565b5b600061295084828501612917565b91505092915050565b600080fd5b600080fd5b600080fd5b60008083601f84011261297e5761297d612959565b5b8235905067ffffffffffffffff81111561299b5761299a61295e565b5b6020830191508360208202830111156129b7576129b6612963565b5b9250929050565b600080600080606085870312156129d8576129d7612809565b5b60006129e68782880161282a565b94505060206129f78782880161282a565b935050604085013567ffffffffffffffff811115612a1857612a1761280e565b5b612a2487828801612968565b925092505092959194509250565b600073ffffffffffffffffffffffffffffffffffffffff82169050919050565b6000612a5d82612a32565b9050919050565b612a6d81612a52565b8114612a7857600080fd5b50565b600081359050612a8a81612a64565b92915050565b600060208284031215612aa657612aa5612809565b5b6000612ab484828501612a7b565b91505092915050565b6000612ac882612a32565b9050919050565b612ad881612abd565b8114612ae357600080fd5b50565b600081359050612af581612acf565b92915050565b600060208284031215612b1157612b10612809565b5b6000612b1f84828501612ae6565b91505092915050565b612b3181612a52565b82525050565b6000602082019050612b4c6000830184612b28565b92915050565b6000612b5d82612a52565b9050919050565b612b6d81612b52565b8114612b7857600080fd5b50565b600081359050612b8a81612b64565b92915050565b60008060408385031215612ba757612ba6612809565b5b6000612bb585828601612b7b565b9250506020612bc68582860161282a565b9150509250929050565b60008083601f840112612be657612be5612959565b5b8235905067ffffffffffffffff811115612c0357612c0261295e565b5b602083019150836020820283011115612c1f57612c1e612963565b5b9250929050565b60008083601f840112612c3c57612c3b612959565b5b8235905067ffffffffffffffff811115612c5957612c5861295e565b5b602083019150836020820283011115612c7557612c74612963565b5b9250929050565b60008060008060408587031215612c9657612c95612809565b5b600085013567ffffffffffffffff811115612cb457612cb361280e565b5b612cc087828801612bd0565b9450945050602085013567ffffffffffffffff811115612ce357612ce261280e565b5b612cef87828801612c26565b925092505092959194509250565b60008083601f840112612d1357612d12612959565b5b8235905067ffffffffffffffff811115612d3057612d2f61295e565b5b602083019150836020820283011115612d4c57612d4b612963565b5b9250929050565b60008060208385031215612d6a57612d69612809565b5b600083013567ffffffffffffffff811115612d8857612d8761280e565b5b612d9485828601612cfd565b92509250509250929050565b6000612dab82612a52565b9050919050565b612dbb81612da0565b8114612dc657600080fd5b50565b600081359050612dd881612db2565b92915050565b600060208284031215612df457612df3612809565b5b6000612e0284828501612dc9565b91505092915050565b6000819050919050565b6000612e30612e2b612e2684612a32565b612e0b565b612a32565b9050919050565b6000612e4282612e15565b9050919050565b6000612e5482612e37565b9050919050565b612e6481612e49565b82525050565b6000602082019050612e7f6000830184612e5b565b92915050565b612e8e81612abd565b82525050565b6000602082019050612ea96000830184612e85565b92915050565b7f4e487b7100000000000000000000000000000000000000000000000000000000600052604160045260246000fd5b7f4e487b7100000000000000000000000000000000000000000000000000000000600052603260045260246000fd5b600081905092915050565b50565b6000612f28600083612f0d565b9150612f3382612f18565b600082019050919050565b6000612f4982612f1b565b9150819050919050565b600082825260208201905092915050565b7f776974686472617720776173206e6f742073756363657366756c6c0000000000600082015250565b6000612f9a601b83612f53565b9150612fa582612f64565b602082019050919050565b60006020820190508181036000830152612fc981612f8d565b9050919050565b7f4e487b7100000000000000000000000000000000000000000000000000000000600052601160045260246000fd5b600061300a8261274b565b91506130158361274b565b925082820190508082111561302d5761302c612fd0565b5b92915050565b6000604082019050613048600083018561286c565b613055602083018461286c565b9392505050565b60008160601b9050919050565b60006130748261305c565b9050919050565b600061308682613069565b9050919050565b61309e61309982612a52565b61307b565b82525050565b600081905092915050565b7f3a00000000000000000000000000000000000000000000000000000000000000600082015250565b60006130e56001836130a4565b91506130f0826130af565b600182019050919050565b6000819050919050565b6131166131118261274b565b6130fb565b82525050565b6000613128828561308d565b601482019150613137826130d8565b91506131438284613105565b6020820191508190509392505050565b7f496e76616c69642070726f6f662e000000000000000000000000000000000000600082015250565b6000613189600e83612f53565b915061319482613153565b602082019050919050565b600060208201905081810360008301526131b88161317c565b9050919050565b7f436c61696d696e67206d6f7265207468616e20616c6c6f7765642e0000000000600082015250565b60006131f5601b83612f53565b9150613200826131bf565b602082019050919050565b60006020820190508181036000830152613224816131e8565b9050919050565b7f776974686472617720616c6c20776173206e6f742073756363657366756c6c00600082015250565b6000613261601f83612f53565b915061326c8261322b565b602082019050919050565b6000602082019050818103600083015261329081613254565b9050919050565b60006040820190506132ac6000830185612b28565b6132b9602083018461286c565b9392505050565b6132c9816128ca565b81146132d457600080fd5b50565b6000815190506132e6816132c0565b92915050565b60006020828403121561330257613301612809565b5b6000613310848285016132d7565b91505092915050565b7f4172726179732073686f756c642068617665207468652073616d652073697a6560008201527f2e00000000000000000000000000000000000000000000000000000000000000602082015250565b6000613375602183612f53565b915061338082613319565b604082019050919050565b600060208201905081810360008301526133a481613368565b9050919050565b600881106133b857600080fd5b50565b6000813590506133ca816133ab565b92915050565b6000602082840312156133e6576133e5612809565b5b60006133f4848285016133bb565b91505092915050565b7f4e487b7100000000000000000000000000000000000000000000000000000000600052602160045260246000fd5b60006134378261274b565b91507fffffffffffffffffffffffffffffffffffffffffffffffffffffffffffffffff820361346957613468612fd0565b5b600182019050919050565b60088110613485576134846133fd565b5b50565b600081905061349682613474565b919050565b60006134a682613488565b9050919050565b6134b68161349b565b82525050565b60006060820190506134d16000830186612b28565b6134de602083018561286c565b6134eb60408301846134ad565b949350505050565b60006134fe8261274b565b91506135098361274b565b925082820390508181111561352157613520612fd0565b5b92915050565b6000819050919050565b600061354c61354761354284613527565b612e0b565b61274b565b9050919050565b61355c81613531565b82525050565b6000604082019050613577600083018561286c565b6135846020830184613553565b9392505050565b7f4d696e74696e67206d6f7265207468616e20616c6c6f7765642e000000000000600082015250565b60006135c1601a83612f53565b91506135cc8261358b565b602082019050919050565b600060208201905081810360008301526135f0816135b4565b9050919050565b6000819050919050565b600061361c613617613612846135f7565b612e0b565b61274b565b9050919050565b61362c81613601565b82525050565b6000604082019050613647600083018561286c565b6136546020830184613623565b9392505050565b7f4f776e61626c653a206e6577206f776e657220697320746865207a65726f206160008201527f6464726573730000000000000000000000000000000000000000000000000000602082015250565b60006136b7602683612f53565b91506136c28261365b565b604082019050919050565b600060208201905081810360008301526136e6816136aa565b9050919050565b7f4f776e61626c653a2063616c6c6572206973206e6f7420746865206f776e6572600082015250565b6000613723602083612f53565b915061372e826136ed565b602082019050919050565b6000602082019050818103600083015261375281613716565b9050919050565b7f5265656e7472616e637947756172643a207265656e7472616e742063616c6c00600082015250565b600061378f601f83612f53565b915061379a82613759565b602082019050919050565b600060208201905081810360008301526137be81613782565b9050919050565b6000815190506137d481612813565b92915050565b6000602082840312156137f0576137ef612809565b5b60006137fe848285016137c5565b91505092915050565b7f547279696e6720746f206d696e7420746f6f206d616e792072696e67732e0000600082015250565b600061383d601e83612f53565b915061384882613807565b602082019050919050565b6000602082019050818103600083015261386c81613830565b9050919050565b7f4c6f63616c20696e646578206f766572666c6f772e0000000000000000000000600082015250565b60006138a9601583612f53565b91506138b482613873565b602082019050919050565b600060208201905081810360008301526138d88161389c565b9050919050565b7f52696e6720696e646578206f766572666c6f772e000000000000000000000000600082015250565b6000613915601483612f53565b9150613920826138df565b602082019050919050565b6000602082019050818103600083015261394481613908565b9050919050565b60006139568261274b565b91506139618361274b565b925082820261396f8161274b565b9150828204841483151761398657613985612fd0565b5b5092915050565b7f45746865722076616c75652073656e74206973206e6f7420616363757261746560008201527f2e00000000000000000000000000000000000000000000000000000000000000602082015250565b60006139e9602183612f53565b91506139f48261398d565b604082019050919050565b60006020820190508181036000830152613a18816139dc565b9050919050565b6000613a2b8286613105565b602082019150613a3b828561308d565b601482019150613a4b8284613105565b602082019150819050949350505050565b7f4e487b7100000000000000000000000000000000000000000000000000000000600052601260045260246000fd5b6000613a968261274b565b9150613aa18361274b565b925082613ab157613ab0613a5c565b5b82820690509291505056fea2646970667358221220dc756524cb0f405c64cab4cbee77a96a98eae173c95980876201a2322c0d6fe164736f6c63430008120033","opcodes":"PUSH1 0x80 PUSH1 0x40 MSTORE PUSH2 0x2BC PUSH1 0x4 SSTORE PUSH1 0x0 PUSH1 0x5 SSTORE PUSH1 0x40 MLOAD DUP1 PUSH2 0x100 ADD PUSH1 0x40 MSTORE DUP1 PUSH1 0xE PUSH1 0xFF AND DUP2 MSTORE PUSH1 0x20 ADD PUSH1 0xE PUSH1 0xFF AND DUP2 MSTORE PUSH1 0x20 ADD PUSH1 0xE PUSH1 0xFF AND DUP2 MSTORE PUSH1 0x20 ADD PUSH1 0xE PUSH1 0xFF AND DUP2 MSTORE PUSH1 0x20 ADD PUSH1 0xE PUSH1 0xFF AND DUP2 MSTORE PUSH1 0x20 ADD PUSH1 0xE PUSH1 0xFF AND DUP2 MSTORE PUSH1 0x20 ADD PUSH1 0xE PUSH1 0xFF AND DUP2 MSTORE PUSH1 0x20 ADD PUSH1 0x2 PUSH1 0xFF AND DUP2 MSTORE POP PUSH1 0x6 SWAP1 PUSH1 0x8 PUSH3 0x7B SWAP3 SWAP2 SWAP1 PUSH3 0x42F JUMP JUMPDEST POP PUSH1 0x40 MLOAD DUP1 PUSH2 0x100 ADD PUSH1 0x40 MSTORE DUP1 PUSH1 0x1 PUSH1 0xFF AND DUP2 MSTORE PUSH1 0x20 ADD PUSH1 0x1 PUSH1 0xFF AND DUP2 MSTORE PUSH1 0x20 ADD PUSH1 0x1 PUSH1 0xFF AND DUP2 MSTORE PUSH1 0x20 ADD PUSH1 0x1 PUSH1 0xFF AND DUP2 MSTORE PUSH1 0x20 ADD PUSH1 0x1 PUSH1 0xFF AND DUP2 MSTORE PUSH1 0x20 ADD PUSH1 0x1 PUSH1 0xFF AND DUP2 MSTORE PUSH1 0x20 ADD PUSH1 0x1 PUSH1 0xFF AND DUP2 MSTORE PUSH1 0x20 ADD PUSH1 0x1 PUSH1 0xFF AND DUP2 MSTORE POP PUSH1 0x7 SWAP1 PUSH1 0x8 PUSH3 0xE8 SWAP3 SWAP2 SWAP1 PUSH3 0x42F JUMP JUMPDEST POP PUSH1 0x1 PUSH1 0x8 SSTORE PUSH32 0xFFFFFFFFFFFFFFFFFFFFFFFFFFFFFFFFFFFFFFFFFFFFFFFFFFFFFFFFFFFFFFFF PUSH1 0x9 SSTORE PUSH32 0xFFFFFFFFFFFFFFFFFFFFFFFFFFFFFFFFFFFFFFFFFFFFFFFFFFFFFFFFFFFFFFFF PUSH1 0xA SSTORE PUSH32 0xFFFFFFFFFFFFFFFFFFFFFFFFFFFFFFFFFFFFFFFFFFFFFFFFFFFFFFFFFFFFFFFF PUSH1 0xB SSTORE PUSH32 0xFFFFFFFFFFFFFFFFFFFFFFFFFFFFFFFFFFFFFFFFFFFFFFFFFFFFFFFFFFFFFFFF PUSH1 0xC SSTORE CALLVALUE DUP1 ISZERO PUSH3 0x18B JUMPI PUSH1 0x0 DUP1 REVERT JUMPDEST POP PUSH1 0x40 MLOAD PUSH3 0x40DA CODESIZE SUB DUP1 PUSH3 0x40DA DUP4 CODECOPY DUP2 DUP2 ADD PUSH1 0x40 MSTORE DUP2 ADD SWAP1 PUSH3 0x1B1 SWAP2 SWAP1 PUSH3 0x523 JUMP JUMPDEST PUSH3 0x1D1 PUSH3 0x1C5 PUSH3 0x201 PUSH1 0x20 SHL PUSH1 0x20 SHR JUMP JUMPDEST PUSH3 0x209 PUSH1 0x20 SHL PUSH1 0x20 SHR JUMP JUMPDEST PUSH1 0x1 DUP1 DUP2 SWAP1 SSTORE POP PUSH3 0x1E9 DUP2 PUSH3 0x2CD PUSH1 0x20 SHL PUSH1 0x20 SHR JUMP JUMPDEST PUSH3 0x1FA CALLER PUSH3 0x321 PUSH1 0x20 SHL PUSH1 0x20 SHR JUMP JUMPDEST POP PUSH3 0x5D8 JUMP JUMPDEST PUSH1 0x0 CALLER SWAP1 POP SWAP1 JUMP JUMPDEST PUSH1 0x0 DUP1 PUSH1 0x0 SWAP1 SLOAD SWAP1 PUSH2 0x100 EXP SWAP1 DIV PUSH20 0xFFFFFFFFFFFFFFFFFFFFFFFFFFFFFFFFFFFFFFFF AND SWAP1 POP DUP2 PUSH1 0x0 DUP1 PUSH2 0x100 EXP DUP2 SLOAD DUP2 PUSH20 0xFFFFFFFFFFFFFFFFFFFFFFFFFFFFFFFFFFFFFFFF MUL NOT AND SWAP1 DUP4 PUSH20 0xFFFFFFFFFFFFFFFFFFFFFFFFFFFFFFFFFFFFFFFF AND MUL OR SWAP1 SSTORE POP DUP2 PUSH20 0xFFFFFFFFFFFFFFFFFFFFFFFFFFFFFFFFFFFFFFFF AND DUP2 PUSH20 0xFFFFFFFFFFFFFFFFFFFFFFFFFFFFFFFFFFFFFFFF AND PUSH32 0x8BE0079C531659141344CD1FD0A4F28419497F9722A3DAAFE3B4186F6B6457E0 PUSH1 0x40 MLOAD PUSH1 0x40 MLOAD DUP1 SWAP2 SUB SWAP1 LOG3 POP POP JUMP JUMPDEST PUSH3 0x2DD PUSH3 0x375 PUSH1 0x20 SHL PUSH1 0x20 SHR JUMP JUMPDEST DUP1 PUSH1 0x2 PUSH1 0x0 PUSH2 0x100 EXP DUP2 SLOAD DUP2 PUSH20 0xFFFFFFFFFFFFFFFFFFFFFFFFFFFFFFFFFFFFFFFF MUL NOT AND SWAP1 DUP4 PUSH20 0xFFFFFFFFFFFFFFFFFFFFFFFFFFFFFFFFFFFFFFFF AND MUL OR SWAP1 SSTORE POP POP JUMP JUMPDEST PUSH3 0x331 PUSH3 0x375 PUSH1 0x20 SHL PUSH1 0x20 SHR JUMP JUMPDEST DUP1 PUSH1 0x3 PUSH1 0x0 PUSH2 0x100 EXP DUP2 SLOAD DUP2 PUSH20 0xFFFFFFFFFFFFFFFFFFFFFFFFFFFFFFFFFFFFFFFF MUL NOT AND SWAP1 DUP4 PUSH20 0xFFFFFFFFFFFFFFFFFFFFFFFFFFFFFFFFFFFFFFFF AND MUL OR SWAP1 SSTORE POP POP JUMP JUMPDEST PUSH3 0x385 PUSH3 0x201 PUSH1 0x20 SHL PUSH1 0x20 SHR JUMP JUMPDEST PUSH20 0xFFFFFFFFFFFFFFFFFFFFFFFFFFFFFFFFFFFFFFFF AND PUSH3 0x3AB PUSH3 0x406 PUSH1 0x20 SHL PUSH1 0x20 SHR JUMP JUMPDEST PUSH20 0xFFFFFFFFFFFFFFFFFFFFFFFFFFFFFFFFFFFFFFFF AND EQ PUSH3 0x404 JUMPI PUSH1 0x40 MLOAD PUSH32 0x8C379A000000000000000000000000000000000000000000000000000000000 DUP2 MSTORE PUSH1 0x4 ADD PUSH3 0x3FB SWAP1 PUSH3 0x5B6 JUMP JUMPDEST PUSH1 0x40 MLOAD DUP1 SWAP2 SUB SWAP1 REVERT JUMPDEST JUMP JUMPDEST PUSH1 0x0 DUP1 PUSH1 0x0 SWAP1 SLOAD SWAP1 PUSH2 0x100 EXP SWAP1 DIV PUSH20 0xFFFFFFFFFFFFFFFFFFFFFFFFFFFFFFFFFFFFFFFF AND SWAP1 POP SWAP1 JUMP JUMPDEST DUP3 DUP1 SLOAD DUP3 DUP3 SSTORE SWAP1 PUSH1 0x0 MSTORE PUSH1 0x20 PUSH1 0x0 KECCAK256 SWAP1 DUP2 ADD SWAP3 DUP3 ISZERO PUSH3 0x473 JUMPI SWAP2 PUSH1 0x20 MUL DUP3 ADD JUMPDEST DUP3 DUP2 GT ISZERO PUSH3 0x472 JUMPI DUP3 MLOAD DUP3 SWAP1 PUSH1 0xFF AND SWAP1 SSTORE SWAP2 PUSH1 0x20 ADD SWAP2 SWAP1 PUSH1 0x1 ADD SWAP1 PUSH3 0x450 JUMP JUMPDEST JUMPDEST POP SWAP1 POP PUSH3 0x482 SWAP2 SWAP1 PUSH3 0x486 JUMP JUMPDEST POP SWAP1 JUMP JUMPDEST JUMPDEST DUP1 DUP3 GT ISZERO PUSH3 0x4A1 JUMPI PUSH1 0x0 DUP2 PUSH1 0x0 SWAP1 SSTORE POP PUSH1 0x1 ADD PUSH3 0x487 JUMP JUMPDEST POP SWAP1 JUMP JUMPDEST PUSH1 0x0 DUP1 REVERT JUMPDEST PUSH1 0x0 PUSH20 0xFFFFFFFFFFFFFFFFFFFFFFFFFFFFFFFFFFFFFFFF DUP3 AND SWAP1 POP SWAP2 SWAP1 POP JUMP JUMPDEST PUSH1 0x0 PUSH3 0x4D7 DUP3 PUSH3 0x4AA JUMP JUMPDEST SWAP1 POP SWAP2 SWAP1 POP JUMP JUMPDEST PUSH1 0x0 PUSH3 0x4EB DUP3 PUSH3 0x4CA JUMP JUMPDEST SWAP1 POP SWAP2 SWAP1 POP JUMP JUMPDEST PUSH3 0x4FD DUP2 PUSH3 0x4DE JUMP JUMPDEST DUP2 EQ PUSH3 0x509 JUMPI PUSH1 0x0 DUP1 REVERT JUMPDEST POP JUMP JUMPDEST PUSH1 0x0 DUP2 MLOAD SWAP1 POP PUSH3 0x51D DUP2 PUSH3 0x4F2 JUMP JUMPDEST SWAP3 SWAP2 POP POP JUMP JUMPDEST PUSH1 0x0 PUSH1 0x20 DUP3 DUP5 SUB SLT ISZERO PUSH3 0x53C JUMPI PUSH3 0x53B PUSH3 0x4A5 JUMP JUMPDEST JUMPDEST PUSH1 0x0 PUSH3 0x54C DUP5 DUP3 DUP6 ADD PUSH3 0x50C JUMP JUMPDEST SWAP2 POP POP SWAP3 SWAP2 POP POP JUMP JUMPDEST PUSH1 0x0 DUP3 DUP3 MSTORE PUSH1 0x20 DUP3 ADD SWAP1 POP SWAP3 SWAP2 POP POP JUMP JUMPDEST PUSH32 0x4F776E61626C653A2063616C6C6572206973206E6F7420746865206F776E6572 PUSH1 0x0 DUP3 ADD MSTORE POP JUMP JUMPDEST PUSH1 0x0 PUSH3 0x59E PUSH1 0x20 DUP4 PUSH3 0x555 JUMP JUMPDEST SWAP2 POP PUSH3 0x5AB DUP3 PUSH3 0x566 JUMP JUMPDEST PUSH1 0x20 DUP3 ADD SWAP1 POP SWAP2 SWAP1 POP JUMP JUMPDEST PUSH1 0x0 PUSH1 0x20 DUP3 ADD SWAP1 POP DUP2 DUP2 SUB PUSH1 0x0 DUP4 ADD MSTORE PUSH3 0x5D1 DUP2 PUSH3 0x58F JUMP JUMPDEST SWAP1 POP SWAP2 SWAP1 POP JUMP JUMPDEST PUSH2 0x3AF2 DUP1 PUSH3 0x5E8 PUSH1 0x0 CODECOPY PUSH1 0x0 RETURN INVALID PUSH1 0x80 PUSH1 0x40 MSTORE PUSH1 0x4 CALLDATASIZE LT PUSH2 0x288 JUMPI PUSH1 0x0 CALLDATALOAD PUSH1 0xE0 SHR DUP1 PUSH4 0x8D56A17B GT PUSH2 0x15A JUMPI DUP1 PUSH4 0xCC644FD2 GT PUSH2 0xC1 JUMPI DUP1 PUSH4 0xDF477EAD GT PUSH2 0x7A JUMPI DUP1 PUSH4 0xDF477EAD EQ PUSH2 0x943 JUMPI DUP1 PUSH4 0xE49618C1 EQ PUSH2 0x96E JUMPI DUP1 PUSH4 0xF0C821DE EQ PUSH2 0x9AB JUMPI DUP1 PUSH4 0xF2FDE38B EQ PUSH2 0x9D6 JUMPI DUP1 PUSH4 0xF4CDE4C0 EQ PUSH2 0x9FF JUMPI DUP1 PUSH4 0xFBFA77CF EQ PUSH2 0xA2A JUMPI PUSH2 0x288 JUMP JUMPDEST DUP1 PUSH4 0xCC644FD2 EQ PUSH2 0x858 JUMPI DUP1 PUSH4 0xCEF58283 EQ PUSH2 0x881 JUMPI DUP1 PUSH4 0xD012468F EQ PUSH2 0x8AA JUMPI DUP1 PUSH4 0xD3CF00A3 EQ PUSH2 0x8C6 JUMPI DUP1 PUSH4 0xD6117B3E EQ PUSH2 0x8F1 JUMPI DUP1 PUSH4 0xDC37DC64 EQ PUSH2 0x91A JUMPI PUSH2 0x288 JUMP JUMPDEST DUP1 PUSH4 0x9F0664B5 GT PUSH2 0x113 JUMPI DUP1 PUSH4 0x9F0664B5 EQ PUSH2 0x76B JUMPI DUP1 PUSH4 0xA0712D68 EQ PUSH2 0x794 JUMPI DUP1 PUSH4 0xA0E52F89 EQ PUSH2 0x7B0 JUMPI DUP1 PUSH4 0xA637F973 EQ PUSH2 0x7DB JUMPI DUP1 PUSH4 0xB9A43F2E EQ PUSH2 0x804 JUMPI DUP1 PUSH4 0xC2774DAC EQ PUSH2 0x82F JUMPI PUSH2 0x288 JUMP JUMPDEST DUP1 PUSH4 0x8D56A17B EQ PUSH2 0x65B JUMPI DUP1 PUSH4 0x8DA5CB5B EQ PUSH2 0x686 JUMPI DUP1 PUSH4 0x91B7F5ED EQ PUSH2 0x6B1 JUMPI DUP1 PUSH4 0x93CB4147 EQ PUSH2 0x6DA JUMPI DUP1 PUSH4 0x96C9F88B EQ PUSH2 0x705 JUMPI DUP1 PUSH4 0x9727151A EQ PUSH2 0x742 JUMPI PUSH2 0x288 JUMP JUMPDEST DUP1 PUSH4 0x411D13F7 GT PUSH2 0x1FE JUMPI DUP1 PUSH4 0x6138F236 GT PUSH2 0x1B7 JUMPI DUP1 PUSH4 0x6138F236 EQ PUSH2 0x573 JUMPI DUP1 PUSH4 0x6E1A1A60 EQ PUSH2 0x5B0 JUMPI DUP1 PUSH4 0x715018A6 EQ PUSH2 0x5D9 JUMPI DUP1 PUSH4 0x853828B6 EQ PUSH2 0x5F0 JUMPI DUP1 PUSH4 0x85535CC5 EQ PUSH2 0x607 JUMPI DUP1 PUSH4 0x8C6D8EF6 EQ PUSH2 0x630 JUMPI PUSH2 0x288 JUMP JUMPDEST DUP1 PUSH4 0x411D13F7 EQ PUSH2 0x484 JUMPI DUP1 PUSH4 0x46BF289F EQ PUSH2 0x4AD JUMPI DUP1 PUSH4 0x4C3DB84D EQ PUSH2 0x4D8 JUMPI DUP1 PUSH4 0x4ED1EB24 EQ PUSH2 0x4F4 JUMPI DUP1 PUSH4 0x5242A493 EQ PUSH2 0x51F JUMPI DUP1 PUSH4 0x5FCD80A6 EQ PUSH2 0x54A JUMPI PUSH2 0x288 JUMP JUMPDEST DUP1 PUSH4 0x2560E376 GT PUSH2 0x250 JUMPI DUP1 PUSH4 0x2560E376 EQ PUSH2 0x374 JUMPI DUP1 PUSH4 0x260C0886 EQ PUSH2 0x39F JUMPI DUP1 PUSH4 0x2701B325 EQ PUSH2 0x3C8 JUMPI DUP1 PUSH4 0x2CE82A71 EQ PUSH2 0x405 JUMPI DUP1 PUSH4 0x2E1A7D4D EQ PUSH2 0x430 JUMPI DUP1 PUSH4 0x3E97414F EQ PUSH2 0x459 JUMPI PUSH2 0x288 JUMP JUMPDEST DUP1 PUSH4 0x62F7B8C EQ PUSH2 0x28D JUMPI DUP1 PUSH4 0x158AE298 EQ PUSH2 0x2B8 JUMPI DUP1 PUSH4 0x1AF3BA81 EQ PUSH2 0x2F5 JUMPI DUP1 PUSH4 0x1C7F4A02 EQ PUSH2 0x320 JUMPI DUP1 PUSH4 0x205ED382 EQ PUSH2 0x34B JUMPI JUMPDEST PUSH1 0x0 DUP1 REVERT JUMPDEST CALLVALUE DUP1 ISZERO PUSH2 0x299 JUMPI PUSH1 0x0 DUP1 REVERT JUMPDEST POP PUSH2 0x2A2 PUSH2 0xA55 JUMP JUMPDEST PUSH1 0x40 MLOAD PUSH2 0x2AF SWAP2 SWAP1 PUSH2 0x27E7 JUMP JUMPDEST PUSH1 0x40 MLOAD DUP1 SWAP2 SUB SWAP1 RETURN JUMPDEST CALLVALUE DUP1 ISZERO PUSH2 0x2C4 JUMPI PUSH1 0x0 DUP1 REVERT JUMPDEST POP PUSH2 0x2DF PUSH1 0x4 DUP1 CALLDATASIZE SUB DUP2 ADD SWAP1 PUSH2 0x2DA SWAP2 SWAP1 PUSH2 0x283F JUMP JUMPDEST PUSH2 0xAAD JUMP JUMPDEST PUSH1 0x40 MLOAD PUSH2 0x2EC SWAP2 SWAP1 PUSH2 0x287B JUMP JUMPDEST PUSH1 0x40 MLOAD DUP1 SWAP2 SUB SWAP1 RETURN JUMPDEST CALLVALUE DUP1 ISZERO PUSH2 0x301 JUMPI PUSH1 0x0 DUP1 REVERT JUMPDEST POP PUSH2 0x30A PUSH2 0xAC5 JUMP JUMPDEST PUSH1 0x40 MLOAD PUSH2 0x317 SWAP2 SWAP1 PUSH2 0x287B JUMP JUMPDEST PUSH1 0x40 MLOAD DUP1 SWAP2 SUB SWAP1 RETURN JUMPDEST CALLVALUE DUP1 ISZERO PUSH2 0x32C JUMPI PUSH1 0x0 DUP1 REVERT JUMPDEST POP PUSH2 0x335 PUSH2 0xACB JUMP JUMPDEST PUSH1 0x40 MLOAD PUSH2 0x342 SWAP2 SWAP1 PUSH2 0x28AF JUMP JUMPDEST PUSH1 0x40 MLOAD DUP1 SWAP2 SUB SWAP1 RETURN JUMPDEST CALLVALUE DUP1 ISZERO PUSH2 0x357 JUMPI PUSH1 0x0 DUP1 REVERT JUMPDEST POP PUSH2 0x372 PUSH1 0x4 DUP1 CALLDATASIZE SUB DUP2 ADD SWAP1 PUSH2 0x36D SWAP2 SWAP1 PUSH2 0x283F JUMP JUMPDEST PUSH2 0xAD1 JUMP JUMPDEST STOP JUMPDEST CALLVALUE DUP1 ISZERO PUSH2 0x380 JUMPI PUSH1 0x0 DUP1 REVERT JUMPDEST POP PUSH2 0x389 PUSH2 0xB22 JUMP JUMPDEST PUSH1 0x40 MLOAD PUSH2 0x396 SWAP2 SWAP1 PUSH2 0x28AF JUMP JUMPDEST PUSH1 0x40 MLOAD DUP1 SWAP2 SUB SWAP1 RETURN JUMPDEST CALLVALUE DUP1 ISZERO PUSH2 0x3AB JUMPI PUSH1 0x0 DUP1 REVERT JUMPDEST POP PUSH2 0x3C6 PUSH1 0x4 DUP1 CALLDATASIZE SUB DUP2 ADD SWAP1 PUSH2 0x3C1 SWAP2 SWAP1 PUSH2 0x283F JUMP JUMPDEST PUSH2 0xB28 JUMP JUMPDEST STOP JUMPDEST CALLVALUE DUP1 ISZERO PUSH2 0x3D4 JUMPI PUSH1 0x0 DUP1 REVERT JUMPDEST POP PUSH2 0x3EF PUSH1 0x4 DUP1 CALLDATASIZE SUB DUP2 ADD SWAP1 PUSH2 0x3EA SWAP2 SWAP1 PUSH2 0x283F JUMP JUMPDEST PUSH2 0xB3A JUMP JUMPDEST PUSH1 0x40 MLOAD PUSH2 0x3FC SWAP2 SWAP1 PUSH2 0x287B JUMP JUMPDEST PUSH1 0x40 MLOAD DUP1 SWAP2 SUB SWAP1 RETURN JUMPDEST CALLVALUE DUP1 ISZERO PUSH2 0x411 JUMPI PUSH1 0x0 DUP1 REVERT JUMPDEST POP PUSH2 0x41A PUSH2 0xB47 JUMP JUMPDEST PUSH1 0x40 MLOAD PUSH2 0x427 SWAP2 SWAP1 PUSH2 0x27E7 JUMP JUMPDEST PUSH1 0x40 MLOAD DUP1 SWAP2 SUB SWAP1 RETURN JUMPDEST CALLVALUE DUP1 ISZERO PUSH2 0x43C JUMPI PUSH1 0x0 DUP1 REVERT JUMPDEST POP PUSH2 0x457 PUSH1 0x4 DUP1 CALLDATASIZE SUB DUP2 ADD SWAP1 PUSH2 0x452 SWAP2 SWAP1 PUSH2 0x283F JUMP JUMPDEST PUSH2 0xD45 JUMP JUMPDEST STOP JUMPDEST CALLVALUE DUP1 ISZERO PUSH2 0x465 JUMPI PUSH1 0x0 DUP1 REVERT JUMPDEST POP PUSH2 0x46E PUSH2 0xE1F JUMP JUMPDEST PUSH1 0x40 MLOAD PUSH2 0x47B SWAP2 SWAP1 PUSH2 0x28E5 JUMP JUMPDEST PUSH1 0x40 MLOAD DUP1 SWAP2 SUB SWAP1 RETURN JUMPDEST CALLVALUE DUP1 ISZERO PUSH2 0x490 JUMPI PUSH1 0x0 DUP1 REVERT JUMPDEST POP PUSH2 0x4AB PUSH1 0x4 DUP1 CALLDATASIZE SUB DUP2 ADD SWAP1 PUSH2 0x4A6 SWAP2 SWAP1 PUSH2 0x292C JUMP JUMPDEST PUSH2 0xE2C JUMP JUMPDEST STOP JUMPDEST CALLVALUE DUP1 ISZERO PUSH2 0x4B9 JUMPI PUSH1 0x0 DUP1 REVERT JUMPDEST POP PUSH2 0x4C2 PUSH2 0xE3E JUMP JUMPDEST PUSH1 0x40 MLOAD PUSH2 0x4CF SWAP2 SWAP1 PUSH2 0x287B JUMP JUMPDEST PUSH1 0x40 MLOAD DUP1 SWAP2 SUB SWAP1 RETURN JUMPDEST PUSH2 0x4F2 PUSH1 0x4 DUP1 CALLDATASIZE SUB DUP2 ADD SWAP1 PUSH2 0x4ED SWAP2 SWAP1 PUSH2 0x29BE JUMP JUMPDEST PUSH2 0xF37 JUMP JUMPDEST STOP JUMPDEST CALLVALUE DUP1 ISZERO PUSH2 0x500 JUMPI PUSH1 0x0 DUP1 REVERT JUMPDEST POP PUSH2 0x509 PUSH2 0x1148 JUMP JUMPDEST PUSH1 0x40 MLOAD PUSH2 0x516 SWAP2 SWAP1 PUSH2 0x28AF JUMP JUMPDEST PUSH1 0x40 MLOAD DUP1 SWAP2 SUB SWAP1 RETURN JUMPDEST CALLVALUE DUP1 ISZERO PUSH2 0x52B JUMPI PUSH1 0x0 DUP1 REVERT JUMPDEST POP PUSH2 0x534 PUSH2 0x114E JUMP JUMPDEST PUSH1 0x40 MLOAD PUSH2 0x541 SWAP2 SWAP1 PUSH2 0x287B JUMP JUMPDEST PUSH1 0x40 MLOAD DUP1 SWAP2 SUB SWAP1 RETURN JUMPDEST CALLVALUE DUP1 ISZERO PUSH2 0x556 JUMPI PUSH1 0x0 DUP1 REVERT JUMPDEST POP PUSH2 0x571 PUSH1 0x4 DUP1 CALLDATASIZE SUB DUP2 ADD SWAP1 PUSH2 0x56C SWAP2 SWAP1 PUSH2 0x283F JUMP JUMPDEST PUSH2 0x1154 JUMP JUMPDEST STOP JUMPDEST CALLVALUE DUP1 ISZERO PUSH2 0x57F JUMPI PUSH1 0x0 DUP1 REVERT JUMPDEST POP PUSH2 0x59A PUSH1 0x4 DUP1 CALLDATASIZE SUB DUP2 ADD SWAP1 PUSH2 0x595 SWAP2 SWAP1 PUSH2 0x2A90 JUMP JUMPDEST PUSH2 0x1166 JUMP JUMPDEST PUSH1 0x40 MLOAD PUSH2 0x5A7 SWAP2 SWAP1 PUSH2 0x287B JUMP JUMPDEST PUSH1 0x40 MLOAD DUP1 SWAP2 SUB SWAP1 RETURN JUMPDEST CALLVALUE DUP1 ISZERO PUSH2 0x5BC JUMPI PUSH1 0x0 DUP1 REVERT JUMPDEST POP PUSH2 0x5D7 PUSH1 0x4 DUP1 CALLDATASIZE SUB DUP2 ADD SWAP1 PUSH2 0x5D2 SWAP2 SWAP1 PUSH2 0x283F JUMP JUMPDEST PUSH2 0x117E JUMP JUMPDEST STOP JUMPDEST CALLVALUE DUP1 ISZERO PUSH2 0x5E5 JUMPI PUSH1 0x0 DUP1 REVERT JUMPDEST POP PUSH2 0x5EE PUSH2 0x1190 JUMP JUMPDEST STOP JUMPDEST CALLVALUE DUP1 ISZERO PUSH2 0x5FC JUMPI PUSH1 0x0 DUP1 REVERT JUMPDEST POP PUSH2 0x605 PUSH2 0x11A4 JUMP JUMPDEST STOP JUMPDEST CALLVALUE DUP1 ISZERO PUSH2 0x613 JUMPI PUSH1 0x0 DUP1 REVERT JUMPDEST POP PUSH2 0x62E PUSH1 0x4 DUP1 CALLDATASIZE SUB DUP2 ADD SWAP1 PUSH2 0x629 SWAP2 SWAP1 PUSH2 0x2AFB JUMP JUMPDEST PUSH2 0x127D JUMP JUMPDEST STOP JUMPDEST CALLVALUE DUP1 ISZERO PUSH2 0x63C JUMPI PUSH1 0x0 DUP1 REVERT JUMPDEST POP PUSH2 0x645 PUSH2 0x12C9 JUMP JUMPDEST PUSH1 0x40 MLOAD PUSH2 0x652 SWAP2 SWAP1 PUSH2 0x28E5 JUMP JUMPDEST PUSH1 0x40 MLOAD DUP1 SWAP2 SUB SWAP1 RETURN JUMPDEST CALLVALUE DUP1 ISZERO PUSH2 0x667 JUMPI PUSH1 0x0 DUP1 REVERT JUMPDEST POP PUSH2 0x670 PUSH2 0x12D6 JUMP JUMPDEST PUSH1 0x40 MLOAD PUSH2 0x67D SWAP2 SWAP1 PUSH2 0x287B JUMP JUMPDEST PUSH1 0x40 MLOAD DUP1 SWAP2 SUB SWAP1 RETURN JUMPDEST CALLVALUE DUP1 ISZERO PUSH2 0x692 JUMPI PUSH1 0x0 DUP1 REVERT JUMPDEST POP PUSH2 0x69B PUSH2 0x12DC JUMP JUMPDEST PUSH1 0x40 MLOAD PUSH2 0x6A8 SWAP2 SWAP1 PUSH2 0x2B37 JUMP JUMPDEST PUSH1 0x40 MLOAD DUP1 SWAP2 SUB SWAP1 RETURN JUMPDEST CALLVALUE DUP1 ISZERO PUSH2 0x6BD JUMPI PUSH1 0x0 DUP1 REVERT JUMPDEST POP PUSH2 0x6D8 PUSH1 0x4 DUP1 CALLDATASIZE SUB DUP2 ADD SWAP1 PUSH2 0x6D3 SWAP2 SWAP1 PUSH2 0x283F JUMP JUMPDEST PUSH2 0x1305 JUMP JUMPDEST STOP JUMPDEST CALLVALUE DUP1 ISZERO PUSH2 0x6E6 JUMPI PUSH1 0x0 DUP1 REVERT JUMPDEST POP PUSH2 0x6EF PUSH2 0x1356 JUMP JUMPDEST PUSH1 0x40 MLOAD PUSH2 0x6FC SWAP2 SWAP1 PUSH2 0x28E5 JUMP JUMPDEST PUSH1 0x40 MLOAD DUP1 SWAP2 SUB SWAP1 RETURN JUMPDEST CALLVALUE DUP1 ISZERO PUSH2 0x711 JUMPI PUSH1 0x0 DUP1 REVERT JUMPDEST POP PUSH2 0x72C PUSH1 0x4 DUP1 CALLDATASIZE SUB DUP2 ADD SWAP1 PUSH2 0x727 SWAP2 SWAP1 PUSH2 0x283F JUMP JUMPDEST PUSH2 0x1363 JUMP JUMPDEST PUSH1 0x40 MLOAD PUSH2 0x739 SWAP2 SWAP1 PUSH2 0x287B JUMP JUMPDEST PUSH1 0x40 MLOAD DUP1 SWAP2 SUB SWAP1 RETURN JUMPDEST CALLVALUE DUP1 ISZERO PUSH2 0x74E JUMPI PUSH1 0x0 DUP1 REVERT JUMPDEST POP PUSH2 0x769 PUSH1 0x4 DUP1 CALLDATASIZE SUB DUP2 ADD SWAP1 PUSH2 0x764 SWAP2 SWAP1 PUSH2 0x2B90 JUMP JUMPDEST PUSH2 0x1387 JUMP JUMPDEST STOP JUMPDEST CALLVALUE DUP1 ISZERO PUSH2 0x777 JUMPI PUSH1 0x0 DUP1 REVERT JUMPDEST POP PUSH2 0x792 PUSH1 0x4 DUP1 CALLDATASIZE SUB DUP2 ADD SWAP1 PUSH2 0x78D SWAP2 SWAP1 PUSH2 0x2C7C JUMP JUMPDEST PUSH2 0x1478 JUMP JUMPDEST STOP JUMPDEST PUSH2 0x7AE PUSH1 0x4 DUP1 CALLDATASIZE SUB DUP2 ADD SWAP1 PUSH2 0x7A9 SWAP2 SWAP1 PUSH2 0x283F JUMP JUMPDEST PUSH2 0x1662 JUMP JUMPDEST STOP JUMPDEST CALLVALUE DUP1 ISZERO PUSH2 0x7BC JUMPI PUSH1 0x0 DUP1 REVERT JUMPDEST POP PUSH2 0x7C5 PUSH2 0x167E JUMP JUMPDEST PUSH1 0x40 MLOAD PUSH2 0x7D2 SWAP2 SWAP1 PUSH2 0x287B JUMP JUMPDEST PUSH1 0x40 MLOAD DUP1 SWAP2 SUB SWAP1 RETURN JUMPDEST CALLVALUE DUP1 ISZERO PUSH2 0x7E7 JUMPI PUSH1 0x0 DUP1 REVERT JUMPDEST POP PUSH2 0x802 PUSH1 0x4 DUP1 CALLDATASIZE SUB DUP2 ADD SWAP1 PUSH2 0x7FD SWAP2 SWAP1 PUSH2 0x283F JUMP JUMPDEST PUSH2 0x1688 JUMP JUMPDEST STOP JUMPDEST CALLVALUE DUP1 ISZERO PUSH2 0x810 JUMPI PUSH1 0x0 DUP1 REVERT JUMPDEST POP PUSH2 0x819 PUSH2 0x16D9 JUMP JUMPDEST PUSH1 0x40 MLOAD PUSH2 0x826 SWAP2 SWAP1 PUSH2 0x287B JUMP JUMPDEST PUSH1 0x40 MLOAD DUP1 SWAP2 SUB SWAP1 RETURN JUMPDEST CALLVALUE DUP1 ISZERO PUSH2 0x83B JUMPI PUSH1 0x0 DUP1 REVERT JUMPDEST POP PUSH2 0x856 PUSH1 0x4 DUP1 CALLDATASIZE SUB DUP2 ADD SWAP1 PUSH2 0x851 SWAP2 SWAP1 PUSH2 0x292C JUMP JUMPDEST PUSH2 0x17E2 JUMP JUMPDEST STOP JUMPDEST CALLVALUE DUP1 ISZERO PUSH2 0x864 JUMPI PUSH1 0x0 DUP1 REVERT JUMPDEST POP PUSH2 0x87F PUSH1 0x4 DUP1 CALLDATASIZE SUB DUP2 ADD SWAP1 PUSH2 0x87A SWAP2 SWAP1 PUSH2 0x2D53 JUMP JUMPDEST PUSH2 0x17F4 JUMP JUMPDEST STOP JUMPDEST CALLVALUE DUP1 ISZERO PUSH2 0x88D JUMPI PUSH1 0x0 DUP1 REVERT JUMPDEST POP PUSH2 0x8A8 PUSH1 0x4 DUP1 CALLDATASIZE SUB DUP2 ADD SWAP1 PUSH2 0x8A3 SWAP2 SWAP1 PUSH2 0x292C JUMP JUMPDEST PUSH2 0x189F JUMP JUMPDEST STOP JUMPDEST PUSH2 0x8C4 PUSH1 0x4 DUP1 CALLDATASIZE SUB DUP2 ADD SWAP1 PUSH2 0x8BF SWAP2 SWAP1 PUSH2 0x29BE JUMP JUMPDEST PUSH2 0x18B1 JUMP JUMPDEST STOP JUMPDEST CALLVALUE DUP1 ISZERO PUSH2 0x8D2 JUMPI PUSH1 0x0 DUP1 REVERT JUMPDEST POP PUSH2 0x8DB PUSH2 0x1B5E JUMP JUMPDEST PUSH1 0x40 MLOAD PUSH2 0x8E8 SWAP2 SWAP1 PUSH2 0x287B JUMP JUMPDEST PUSH1 0x40 MLOAD DUP1 SWAP2 SUB SWAP1 RETURN JUMPDEST CALLVALUE DUP1 ISZERO PUSH2 0x8FD JUMPI PUSH1 0x0 DUP1 REVERT JUMPDEST POP PUSH2 0x918 PUSH1 0x4 DUP1 CALLDATASIZE SUB DUP2 ADD SWAP1 PUSH2 0x913 SWAP2 SWAP1 PUSH2 0x2D53 JUMP JUMPDEST PUSH2 0x1B64 JUMP JUMPDEST STOP JUMPDEST CALLVALUE DUP1 ISZERO PUSH2 0x926 JUMPI PUSH1 0x0 DUP1 REVERT JUMPDEST POP PUSH2 0x941 PUSH1 0x4 DUP1 CALLDATASIZE SUB DUP2 ADD SWAP1 PUSH2 0x93C SWAP2 SWAP1 PUSH2 0x2DDE JUMP JUMPDEST PUSH2 0x1CA2 JUMP JUMPDEST STOP JUMPDEST CALLVALUE DUP1 ISZERO PUSH2 0x94F JUMPI PUSH1 0x0 DUP1 REVERT JUMPDEST POP PUSH2 0x958 PUSH2 0x1CEE JUMP JUMPDEST PUSH1 0x40 MLOAD PUSH2 0x965 SWAP2 SWAP1 PUSH2 0x287B JUMP JUMPDEST PUSH1 0x40 MLOAD DUP1 SWAP2 SUB SWAP1 RETURN JUMPDEST CALLVALUE DUP1 ISZERO PUSH2 0x97A JUMPI PUSH1 0x0 DUP1 REVERT JUMPDEST POP PUSH2 0x995 PUSH1 0x4 DUP1 CALLDATASIZE SUB DUP2 ADD SWAP1 PUSH2 0x990 SWAP2 SWAP1 PUSH2 0x2A90 JUMP JUMPDEST PUSH2 0x1CF8 JUMP JUMPDEST PUSH1 0x40 MLOAD PUSH2 0x9A2 SWAP2 SWAP1 PUSH2 0x287B JUMP JUMPDEST PUSH1 0x40 MLOAD DUP1 SWAP2 SUB SWAP1 RETURN JUMPDEST CALLVALUE DUP1 ISZERO PUSH2 0x9B7 JUMPI PUSH1 0x0 DUP1 REVERT JUMPDEST POP PUSH2 0x9C0 PUSH2 0x1D10 JUMP JUMPDEST PUSH1 0x40 MLOAD PUSH2 0x9CD SWAP2 SWAP1 PUSH2 0x2E6A JUMP JUMPDEST PUSH1 0x40 MLOAD DUP1 SWAP2 SUB SWAP1 RETURN JUMPDEST CALLVALUE DUP1 ISZERO PUSH2 0x9E2 JUMPI PUSH1 0x0 DUP1 REVERT JUMPDEST POP PUSH2 0x9FD PUSH1 0x4 DUP1 CALLDATASIZE SUB DUP2 ADD SWAP1 PUSH2 0x9F8 SWAP2 SWAP1 PUSH2 0x2A90 JUMP JUMPDEST PUSH2 0x1D36 JUMP JUMPDEST STOP JUMPDEST CALLVALUE DUP1 ISZERO PUSH2 0xA0B JUMPI PUSH1 0x0 DUP1 REVERT JUMPDEST POP PUSH2 0xA14 PUSH2 0x1DB9 JUMP JUMPDEST PUSH1 0x40 MLOAD PUSH2 0xA21 SWAP2 SWAP1 PUSH2 0x287B JUMP JUMPDEST PUSH1 0x40 MLOAD DUP1 SWAP2 SUB SWAP1 RETURN JUMPDEST CALLVALUE DUP1 ISZERO PUSH2 0xA36 JUMPI PUSH1 0x0 DUP1 REVERT JUMPDEST POP PUSH2 0xA3F PUSH2 0x1DBF JUMP JUMPDEST PUSH1 0x40 MLOAD PUSH2 0xA4C SWAP2 SWAP1 PUSH2 0x2E94 JUMP JUMPDEST PUSH1 0x40 MLOAD DUP1 SWAP2 SUB SWAP1 RETURN JUMPDEST PUSH1 0x60 PUSH1 0x6 DUP1 SLOAD DUP1 PUSH1 0x20 MUL PUSH1 0x20 ADD PUSH1 0x40 MLOAD SWAP1 DUP2 ADD PUSH1 0x40 MSTORE DUP1 SWAP3 SWAP2 SWAP1 DUP2 DUP2 MSTORE PUSH1 0x20 ADD DUP3 DUP1 SLOAD DUP1 ISZERO PUSH2 0xAA3 JUMPI PUSH1 0x20 MUL DUP3 ADD SWAP2 SWAP1 PUSH1 0x0 MSTORE PUSH1 0x20 PUSH1 0x0 KECCAK256 SWAP1 JUMPDEST DUP2 SLOAD DUP2 MSTORE PUSH1 0x20 ADD SWAP1 PUSH1 0x1 ADD SWAP1 DUP1 DUP4 GT PUSH2 0xA8F JUMPI JUMPDEST POP POP POP POP POP SWAP1 POP SWAP1 JUMP JUMPDEST PUSH1 0x10 PUSH1 0x20 MSTORE DUP1 PUSH1 0x0 MSTORE PUSH1 0x40 PUSH1 0x0 KECCAK256 PUSH1 0x0 SWAP2 POP SWAP1 POP SLOAD DUP2 JUMP JUMPDEST PUSH1 0x9 SLOAD DUP2 JUMP JUMPDEST PUSH1 0xE SLOAD DUP2 JUMP JUMPDEST PUSH2 0xAD9 PUSH2 0x1DE5 JUMP JUMPDEST PUSH2 0xAE1 PUSH2 0x1356 JUMP JUMPDEST ISZERO PUSH2 0xB18 JUMPI PUSH1 0x40 MLOAD PUSH32 0xF2A84B6300000000000000000000000000000000000000000000000000000000 DUP2 MSTORE PUSH1 0x4 ADD PUSH1 0x40 MLOAD DUP1 SWAP2 SUB SWAP1 REVERT JUMPDEST DUP1 PUSH1 0x4 DUP2 SWAP1 SSTORE POP POP JUMP JUMPDEST PUSH1 0xF SLOAD DUP2 JUMP JUMPDEST PUSH2 0xB30 PUSH2 0x1DE5 JUMP JUMPDEST DUP1 PUSH1 0xC DUP2 SWAP1 SSTORE POP POP JUMP JUMPDEST PUSH1 0x0 PUSH1 0xFF DUP3 AND SWAP1 POP SWAP2 SWAP1 POP JUMP JUMPDEST PUSH1 0x60 PUSH1 0x0 PUSH1 0x8 PUSH8 0xFFFFFFFFFFFFFFFF DUP2 GT ISZERO PUSH2 0xB66 JUMPI PUSH2 0xB65 PUSH2 0x2EAF JUMP JUMPDEST JUMPDEST PUSH1 0x40 MLOAD SWAP1 DUP1 DUP3 MSTORE DUP1 PUSH1 0x20 MUL PUSH1 0x20 ADD DUP3 ADD PUSH1 0x40 MSTORE DUP1 ISZERO PUSH2 0xB94 JUMPI DUP2 PUSH1 0x20 ADD PUSH1 0x20 DUP3 MUL DUP1 CALLDATASIZE DUP4 CALLDATACOPY DUP1 DUP3 ADD SWAP2 POP POP SWAP1 POP JUMPDEST POP SWAP1 POP PUSH1 0x10 PUSH1 0x0 DUP1 DUP2 MSTORE PUSH1 0x20 ADD SWAP1 DUP2 MSTORE PUSH1 0x20 ADD PUSH1 0x0 KECCAK256 SLOAD DUP2 PUSH1 0x0 DUP2 MLOAD DUP2 LT PUSH2 0xBBF JUMPI PUSH2 0xBBE PUSH2 0x2EDE JUMP JUMPDEST JUMPDEST PUSH1 0x20 MUL PUSH1 0x20 ADD ADD DUP2 DUP2 MSTORE POP POP PUSH1 0x10 PUSH1 0x0 PUSH1 0x1 DUP2 MSTORE PUSH1 0x20 ADD SWAP1 DUP2 MSTORE PUSH1 0x20 ADD PUSH1 0x0 KECCAK256 SLOAD DUP2 PUSH1 0x1 DUP2 MLOAD DUP2 LT PUSH2 0xBF4 JUMPI PUSH2 0xBF3 PUSH2 0x2EDE JUMP JUMPDEST JUMPDEST PUSH1 0x20 MUL PUSH1 0x20 ADD ADD DUP2 DUP2 MSTORE POP POP PUSH1 0x10 PUSH1 0x0 PUSH1 0x2 DUP2 MSTORE PUSH1 0x20 ADD SWAP1 DUP2 MSTORE PUSH1 0x20 ADD PUSH1 0x0 KECCAK256 SLOAD DUP2 PUSH1 0x2 DUP2 MLOAD DUP2 LT PUSH2 0xC29 JUMPI PUSH2 0xC28 PUSH2 0x2EDE JUMP JUMPDEST JUMPDEST PUSH1 0x20 MUL PUSH1 0x20 ADD ADD DUP2 DUP2 MSTORE POP POP PUSH1 0x10 PUSH1 0x0 PUSH1 0x3 DUP2 MSTORE PUSH1 0x20 ADD SWAP1 DUP2 MSTORE PUSH1 0x20 ADD PUSH1 0x0 KECCAK256 SLOAD DUP2 PUSH1 0x3 DUP2 MLOAD DUP2 LT PUSH2 0xC5E JUMPI PUSH2 0xC5D PUSH2 0x2EDE JUMP JUMPDEST JUMPDEST PUSH1 0x20 MUL PUSH1 0x20 ADD ADD DUP2 DUP2 MSTORE POP POP PUSH1 0x10 PUSH1 0x0 PUSH1 0x4 DUP2 MSTORE PUSH1 0x20 ADD SWAP1 DUP2 MSTORE PUSH1 0x20 ADD PUSH1 0x0 KECCAK256 SLOAD DUP2 PUSH1 0x4 DUP2 MLOAD DUP2 LT PUSH2 0xC93 JUMPI PUSH2 0xC92 PUSH2 0x2EDE JUMP JUMPDEST JUMPDEST PUSH1 0x20 MUL PUSH1 0x20 ADD ADD DUP2 DUP2 MSTORE POP POP PUSH1 0x10 PUSH1 0x0 PUSH1 0x5 DUP2 MSTORE PUSH1 0x20 ADD SWAP1 DUP2 MSTORE PUSH1 0x20 ADD PUSH1 0x0 KECCAK256 SLOAD DUP2 PUSH1 0x5 DUP2 MLOAD DUP2 LT PUSH2 0xCC8 JUMPI PUSH2 0xCC7 PUSH2 0x2EDE JUMP JUMPDEST JUMPDEST PUSH1 0x20 MUL PUSH1 0x20 ADD ADD DUP2 DUP2 MSTORE POP POP PUSH1 0x10 PUSH1 0x0 PUSH1 0x6 DUP2 MSTORE PUSH1 0x20 ADD SWAP1 DUP2 MSTORE PUSH1 0x20 ADD PUSH1 0x0 KECCAK256 SLOAD DUP2 PUSH1 0x6 DUP2 MLOAD DUP2 LT PUSH2 0xCFD JUMPI PUSH2 0xCFC PUSH2 0x2EDE JUMP JUMPDEST JUMPDEST PUSH1 0x20 MUL PUSH1 0x20 ADD ADD DUP2 DUP2 MSTORE POP POP PUSH1 0x10 PUSH1 0x0 PUSH1 0x7 DUP2 MSTORE PUSH1 0x20 ADD SWAP1 DUP2 MSTORE PUSH1 0x20 ADD PUSH1 0x0 KECCAK256 SLOAD DUP2 PUSH1 0x7 DUP2 MLOAD DUP2 LT PUSH2 0xD32 JUMPI PUSH2 0xD31 PUSH2 0x2EDE JUMP JUMPDEST JUMPDEST PUSH1 0x20 MUL PUSH1 0x20 ADD ADD DUP2 DUP2 MSTORE POP POP DUP1 SWAP2 POP POP SWAP1 JUMP JUMPDEST PUSH2 0xD4D PUSH2 0x1DE5 JUMP JUMPDEST PUSH1 0x0 PUSH1 0x3 PUSH1 0x0 SWAP1 SLOAD SWAP1 PUSH2 0x100 EXP SWAP1 DIV PUSH20 0xFFFFFFFFFFFFFFFFFFFFFFFFFFFFFFFFFFFFFFFF AND PUSH20 0xFFFFFFFFFFFFFFFFFFFFFFFFFFFFFFFFFFFFFFFF AND DUP3 PUSH1 0x40 MLOAD PUSH2 0xD95 SWAP1 PUSH2 0x2F3E JUMP JUMPDEST PUSH1 0x0 PUSH1 0x40 MLOAD DUP1 DUP4 SUB DUP2 DUP6 DUP8 GAS CALL SWAP3 POP POP POP RETURNDATASIZE DUP1 PUSH1 0x0 DUP2 EQ PUSH2 0xDD2 JUMPI PUSH1 0x40 MLOAD SWAP2 POP PUSH1 0x1F NOT PUSH1 0x3F RETURNDATASIZE ADD AND DUP3 ADD PUSH1 0x40 MSTORE RETURNDATASIZE DUP3 MSTORE RETURNDATASIZE PUSH1 0x0 PUSH1 0x20 DUP5 ADD RETURNDATACOPY PUSH2 0xDD7 JUMP JUMPDEST PUSH1 0x60 SWAP2 POP JUMPDEST POP POP SWAP1 POP DUP1 PUSH2 0xE1B JUMPI PUSH1 0x40 MLOAD PUSH32 0x8C379A000000000000000000000000000000000000000000000000000000000 DUP2 MSTORE PUSH1 0x4 ADD PUSH2 0xE12 SWAP1 PUSH2 0x2FB0 JUMP JUMPDEST PUSH1 0x40 MLOAD DUP1 SWAP2 SUB SWAP1 REVERT JUMPDEST POP POP JUMP JUMPDEST PUSH1 0x0 PUSH1 0xC SLOAD TIMESTAMP LT ISZERO SWAP1 POP SWAP1 JUMP JUMPDEST PUSH2 0xE34 PUSH2 0x1DE5 JUMP JUMPDEST DUP1 PUSH1 0xF DUP2 SWAP1 SSTORE POP POP JUMP JUMPDEST PUSH1 0x0 DUP1 PUSH1 0x10 PUSH1 0x0 PUSH1 0x7 DUP2 MSTORE PUSH1 0x20 ADD SWAP1 DUP2 MSTORE PUSH1 0x20 ADD PUSH1 0x0 KECCAK256 SLOAD PUSH1 0x10 PUSH1 0x0 PUSH1 0x6 DUP2 MSTORE PUSH1 0x20 ADD SWAP1 DUP2 MSTORE PUSH1 0x20 ADD PUSH1 0x0 KECCAK256 SLOAD PUSH1 0x10 PUSH1 0x0 PUSH1 0x5 DUP2 MSTORE PUSH1 0x20 ADD SWAP1 DUP2 MSTORE PUSH1 0x20 ADD PUSH1 0x0 KECCAK256 SLOAD PUSH1 0x10 PUSH1 0x0 PUSH1 0x4 DUP2 MSTORE PUSH1 0x20 ADD SWAP1 DUP2 MSTORE PUSH1 0x20 ADD PUSH1 0x0 KECCAK256 SLOAD PUSH1 0x10 PUSH1 0x0 PUSH1 0x3 DUP2 MSTORE PUSH1 0x20 ADD SWAP1 DUP2 MSTORE PUSH1 0x20 ADD PUSH1 0x0 KECCAK256 SLOAD PUSH1 0x10 PUSH1 0x0 PUSH1 0x2 DUP2 MSTORE PUSH1 0x20 ADD SWAP1 DUP2 MSTORE PUSH1 0x20 ADD PUSH1 0x0 KECCAK256 SLOAD PUSH1 0x10 PUSH1 0x0 PUSH1 0x1 DUP2 MSTORE PUSH1 0x20 ADD SWAP1 DUP2 MSTORE PUSH1 0x20 ADD PUSH1 0x0 KECCAK256 SLOAD PUSH1 0x10 PUSH1 0x0 DUP1 DUP2 MSTORE PUSH1 0x20 ADD SWAP1 DUP2 MSTORE PUSH1 0x20 ADD PUSH1 0x0 KECCAK256 SLOAD PUSH2 0xEF2 SWAP2 SWAP1 PUSH2 0x2FFF JUMP JUMPDEST PUSH2 0xEFC SWAP2 SWAP1 PUSH2 0x2FFF JUMP JUMPDEST PUSH2 0xF06 SWAP2 SWAP1 PUSH2 0x2FFF JUMP JUMPDEST PUSH2 0xF10 SWAP2 SWAP1 PUSH2 0x2FFF JUMP JUMPDEST PUSH2 0xF1A SWAP2 SWAP1 PUSH2 0x2FFF JUMP JUMPDEST PUSH2 0xF24 SWAP2 SWAP1 PUSH2 0x2FFF JUMP JUMPDEST PUSH2 0xF2E SWAP2 SWAP1 PUSH2 0x2FFF JUMP JUMPDEST SWAP1 POP DUP1 SWAP2 POP POP SWAP1 JUMP JUMPDEST PUSH2 0xF3F PUSH2 0x1E63 JUMP JUMPDEST PUSH2 0xF47 PUSH2 0xE1F JUMP JUMPDEST PUSH2 0xF8C JUMPI PUSH1 0xC SLOAD TIMESTAMP PUSH1 0x40 MLOAD PUSH32 0x66803FC100000000000000000000000000000000000000000000000000000000 DUP2 MSTORE PUSH1 0x4 ADD PUSH2 0xF83 SWAP3 SWAP2 SWAP1 PUSH2 0x3033 JUMP JUMPDEST PUSH1 0x40 MLOAD DUP1 SWAP2 SUB SWAP1 REVERT JUMPDEST PUSH1 0x0 CALLER DUP5 PUSH1 0x40 MLOAD PUSH1 0x20 ADD PUSH2 0xFA1 SWAP3 SWAP2 SWAP1 PUSH2 0x311C JUMP JUMPDEST PUSH1 0x40 MLOAD PUSH1 0x20 DUP2 DUP4 SUB SUB DUP2 MSTORE SWAP1 PUSH1 0x40 MSTORE DUP1 MLOAD SWAP1 PUSH1 0x20 ADD KECCAK256 SWAP1 POP PUSH2 0x1007 DUP4 DUP4 DUP1 DUP1 PUSH1 0x20 MUL PUSH1 0x20 ADD PUSH1 0x40 MLOAD SWAP1 DUP2 ADD PUSH1 0x40 MSTORE DUP1 SWAP4 SWAP3 SWAP2 SWAP1 DUP2 DUP2 MSTORE PUSH1 0x20 ADD DUP4 DUP4 PUSH1 0x20 MUL DUP1 DUP3 DUP5 CALLDATACOPY PUSH1 0x0 DUP2 DUP5 ADD MSTORE PUSH1 0x1F NOT PUSH1 0x1F DUP3 ADD AND SWAP1 POP DUP1 DUP4 ADD SWAP3 POP POP POP POP POP POP POP PUSH1 0xF SLOAD DUP4 PUSH2 0x1EB2 JUMP JUMPDEST PUSH2 0x1046 JUMPI PUSH1 0x40 MLOAD PUSH32 0x8C379A000000000000000000000000000000000000000000000000000000000 DUP2 MSTORE PUSH1 0x4 ADD PUSH2 0x103D SWAP1 PUSH2 0x319F JUMP JUMPDEST PUSH1 0x40 MLOAD DUP1 SWAP2 SUB SWAP1 REVERT JUMPDEST PUSH1 0x0 PUSH1 0x12 PUSH1 0x0 CALLER PUSH20 0xFFFFFFFFFFFFFFFFFFFFFFFFFFFFFFFFFFFFFFFF AND PUSH20 0xFFFFFFFFFFFFFFFFFFFFFFFFFFFFFFFFFFFFFFFF AND DUP2 MSTORE PUSH1 0x20 ADD SWAP1 DUP2 MSTORE PUSH1 0x20 ADD PUSH1 0x0 KECCAK256 SLOAD SWAP1 POP DUP5 DUP7 DUP3 PUSH2 0x1097 SWAP2 SWAP1 PUSH2 0x2FFF JUMP JUMPDEST GT ISZERO PUSH2 0x10D8 JUMPI PUSH1 0x40 MLOAD PUSH32 0x8C379A000000000000000000000000000000000000000000000000000000000 DUP2 MSTORE PUSH1 0x4 ADD PUSH2 0x10CF SWAP1 PUSH2 0x320B JUMP JUMPDEST PUSH1 0x40 MLOAD DUP1 SWAP2 SUB SWAP1 REVERT JUMPDEST DUP6 PUSH1 0x12 PUSH1 0x0 CALLER PUSH20 0xFFFFFFFFFFFFFFFFFFFFFFFFFFFFFFFFFFFFFFFF AND PUSH20 0xFFFFFFFFFFFFFFFFFFFFFFFFFFFFFFFFFFFFFFFF AND DUP2 MSTORE PUSH1 0x20 ADD SWAP1 DUP2 MSTORE PUSH1 0x20 ADD PUSH1 0x0 KECCAK256 PUSH1 0x0 DUP3 DUP3 SLOAD PUSH2 0x1127 SWAP2 SWAP1 PUSH2 0x2FFF JUMP JUMPDEST SWAP3 POP POP DUP2 SWAP1 SSTORE POP PUSH2 0x1138 DUP7 CALLER PUSH2 0x1EC9 JUMP JUMPDEST POP POP PUSH2 0x1142 PUSH2 0x20FF JUMP JUMPDEST POP POP POP POP JUMP JUMPDEST PUSH1 0xD SLOAD DUP2 JUMP JUMPDEST PUSH1 0x8 SLOAD DUP2 JUMP JUMPDEST PUSH2 0x115C PUSH2 0x1DE5 JUMP JUMPDEST DUP1 PUSH1 0xA DUP2 SWAP1 SSTORE POP POP JUMP JUMPDEST PUSH1 0x12 PUSH1 0x20 MSTORE DUP1 PUSH1 0x0 MSTORE PUSH1 0x40 PUSH1 0x0 KECCAK256 PUSH1 0x0 SWAP2 POP SWAP1 POP SLOAD DUP2 JUMP JUMPDEST PUSH2 0x1186 PUSH2 0x1DE5 JUMP JUMPDEST DUP1 PUSH1 0xB DUP2 SWAP1 SSTORE POP POP JUMP JUMPDEST PUSH2 0x1198 PUSH2 0x1DE5 JUMP JUMPDEST PUSH2 0x11A2 PUSH1 0x0 PUSH2 0x2108 JUMP JUMPDEST JUMP JUMPDEST PUSH2 0x11AC PUSH2 0x1DE5 JUMP JUMPDEST PUSH1 0x0 PUSH1 0x3 PUSH1 0x0 SWAP1 SLOAD SWAP1 PUSH2 0x100 EXP SWAP1 DIV PUSH20 0xFFFFFFFFFFFFFFFFFFFFFFFFFFFFFFFFFFFFFFFF AND PUSH20 0xFFFFFFFFFFFFFFFFFFFFFFFFFFFFFFFFFFFFFFFF AND SELFBALANCE PUSH1 0x40 MLOAD PUSH2 0x11F4 SWAP1 PUSH2 0x2F3E JUMP JUMPDEST PUSH1 0x0 PUSH1 0x40 MLOAD DUP1 DUP4 SUB DUP2 DUP6 DUP8 GAS CALL SWAP3 POP POP POP RETURNDATASIZE DUP1 PUSH1 0x0 DUP2 EQ PUSH2 0x1231 JUMPI PUSH1 0x40 MLOAD SWAP2 POP PUSH1 0x1F NOT PUSH1 0x3F RETURNDATASIZE ADD AND DUP3 ADD PUSH1 0x40 MSTORE RETURNDATASIZE DUP3 MSTORE RETURNDATASIZE PUSH1 0x0 PUSH1 0x20 DUP5 ADD RETURNDATACOPY PUSH2 0x1236 JUMP JUMPDEST PUSH1 0x60 SWAP2 POP JUMPDEST POP POP SWAP1 POP DUP1 PUSH2 0x127A JUMPI PUSH1 0x40 MLOAD PUSH32 0x8C379A000000000000000000000000000000000000000000000000000000000 DUP2 MSTORE PUSH1 0x4 ADD PUSH2 0x1271 SWAP1 PUSH2 0x3277 JUMP JUMPDEST PUSH1 0x40 MLOAD DUP1 SWAP2 SUB SWAP1 REVERT JUMPDEST POP JUMP JUMPDEST PUSH2 0x1285 PUSH2 0x1DE5 JUMP JUMPDEST DUP1 PUSH1 0x3 PUSH1 0x0 PUSH2 0x100 EXP DUP2 SLOAD DUP2 PUSH20 0xFFFFFFFFFFFFFFFFFFFFFFFFFFFFFFFFFFFFFFFF MUL NOT AND SWAP1 DUP4 PUSH20 0xFFFFFFFFFFFFFFFFFFFFFFFFFFFFFFFFFFFFFFFF AND MUL OR SWAP1 SSTORE POP POP JUMP JUMPDEST PUSH1 0x0 PUSH1 0xA SLOAD TIMESTAMP LT ISZERO SWAP1 POP SWAP1 JUMP JUMPDEST PUSH1 0xC SLOAD DUP2 JUMP JUMPDEST PUSH1 0x0 DUP1 PUSH1 0x0 SWAP1 SLOAD SWAP1 PUSH2 0x100 EXP SWAP1 DIV PUSH20 0xFFFFFFFFFFFFFFFFFFFFFFFFFFFFFFFFFFFFFFFF AND SWAP1 POP SWAP1 JUMP JUMPDEST PUSH2 0x130D PUSH2 0x1DE5 JUMP JUMPDEST PUSH2 0x1315 PUSH2 0x1356 JUMP JUMPDEST ISZERO PUSH2 0x134C JUMPI PUSH1 0x40 MLOAD PUSH32 0xF2A84B6300000000000000000000000000000000000000000000000000000000 DUP2 MSTORE PUSH1 0x4 ADD PUSH1 0x40 MLOAD DUP1 SWAP2 SUB SWAP1 REVERT JUMPDEST DUP1 PUSH1 0x9 DUP2 SWAP1 SSTORE POP POP JUMP JUMPDEST PUSH1 0x0 PUSH1 0xB SLOAD TIMESTAMP LT ISZERO SWAP1 POP SWAP1 JUMP JUMPDEST PUSH1 0x7 DUP2 DUP2 SLOAD DUP2 LT PUSH2 0x1373 JUMPI PUSH1 0x0 DUP1 REVERT JUMPDEST SWAP1 PUSH1 0x0 MSTORE PUSH1 0x20 PUSH1 0x0 KECCAK256 ADD PUSH1 0x0 SWAP2 POP SWAP1 POP SLOAD DUP2 JUMP JUMPDEST PUSH2 0x138F PUSH2 0x1DE5 JUMP JUMPDEST PUSH1 0x0 PUSH20 0xFFFFFFFFFFFFFFFFFFFFFFFFFFFFFFFFFFFFFFFF AND CALLER PUSH20 0xFFFFFFFFFFFFFFFFFFFFFFFFFFFFFFFFFFFFFFFF AND SUB PUSH2 0x13F5 JUMPI PUSH1 0x40 MLOAD PUSH32 0x48AC165200000000000000000000000000000000000000000000000000000000 DUP2 MSTORE PUSH1 0x4 ADD PUSH1 0x40 MLOAD DUP1 SWAP2 SUB SWAP1 REVERT JUMPDEST DUP2 PUSH20 0xFFFFFFFFFFFFFFFFFFFFFFFFFFFFFFFFFFFFFFFF AND PUSH4 0xA9059CBB CALLER DUP4 PUSH1 0x40 MLOAD DUP4 PUSH4 0xFFFFFFFF AND PUSH1 0xE0 SHL DUP2 MSTORE PUSH1 0x4 ADD PUSH2 0x1430 SWAP3 SWAP2 SWAP1 PUSH2 0x3297 JUMP JUMPDEST PUSH1 0x20 PUSH1 0x40 MLOAD DUP1 DUP4 SUB DUP2 PUSH1 0x0 DUP8 GAS CALL ISZERO DUP1 ISZERO PUSH2 0x144F JUMPI RETURNDATASIZE PUSH1 0x0 DUP1 RETURNDATACOPY RETURNDATASIZE PUSH1 0x0 REVERT JUMPDEST POP POP POP POP PUSH1 0x40 MLOAD RETURNDATASIZE PUSH1 0x1F NOT PUSH1 0x1F DUP3 ADD AND DUP3 ADD DUP1 PUSH1 0x40 MSTORE POP DUP2 ADD SWAP1 PUSH2 0x1473 SWAP2 SWAP1 PUSH2 0x32EC JUMP JUMPDEST POP POP POP JUMP JUMPDEST PUSH2 0x1480 PUSH2 0x1DE5 JUMP JUMPDEST DUP2 DUP2 SWAP1 POP DUP5 DUP5 SWAP1 POP EQ PUSH2 0x14C8 JUMPI PUSH1 0x40 MLOAD PUSH32 0x8C379A000000000000000000000000000000000000000000000000000000000 DUP2 MSTORE PUSH1 0x4 ADD PUSH2 0x14BF SWAP1 PUSH2 0x338B JUMP JUMPDEST PUSH1 0x40 MLOAD DUP1 SWAP2 SUB SWAP1 REVERT JUMPDEST PUSH1 0x0 JUMPDEST DUP3 DUP3 SWAP1 POP DUP2 LT ISZERO PUSH2 0x165B JUMPI PUSH1 0x0 PUSH2 0x1508 DUP7 DUP7 DUP5 DUP2 DUP2 LT PUSH2 0x14EE JUMPI PUSH2 0x14ED PUSH2 0x2EDE JUMP JUMPDEST JUMPDEST SWAP1 POP PUSH1 0x20 MUL ADD PUSH1 0x20 DUP2 ADD SWAP1 PUSH2 0x1503 SWAP2 SWAP1 PUSH2 0x33D0 JUMP JUMPDEST PUSH2 0x21CC JUMP JUMPDEST SWAP1 POP PUSH1 0x10 PUSH1 0x0 DUP8 DUP8 DUP6 DUP2 DUP2 LT PUSH2 0x1521 JUMPI PUSH2 0x1520 PUSH2 0x2EDE JUMP JUMPDEST JUMPDEST SWAP1 POP PUSH1 0x20 MUL ADD PUSH1 0x20 DUP2 ADD SWAP1 PUSH2 0x1536 SWAP2 SWAP1 PUSH2 0x33D0 JUMP JUMPDEST PUSH1 0x7 DUP2 GT ISZERO PUSH2 0x1548 JUMPI PUSH2 0x1547 PUSH2 0x33FD JUMP JUMPDEST JUMPDEST DUP2 MSTORE PUSH1 0x20 ADD SWAP1 DUP2 MSTORE PUSH1 0x20 ADD PUSH1 0x0 KECCAK256 PUSH1 0x0 DUP2 SLOAD PUSH2 0x1563 SWAP1 PUSH2 0x342C JUMP JUMPDEST SWAP2 SWAP1 POP DUP2 SWAP1 SSTORE POP PUSH1 0x2 PUSH1 0x0 SWAP1 SLOAD SWAP1 PUSH2 0x100 EXP SWAP1 DIV PUSH20 0xFFFFFFFFFFFFFFFFFFFFFFFFFFFFFFFFFFFFFFFF AND PUSH20 0xFFFFFFFFFFFFFFFFFFFFFFFFFFFFFFFFFFFFFFFF AND PUSH4 0x86EBF010 DUP6 DUP6 DUP6 DUP2 DUP2 LT PUSH2 0x15BB JUMPI PUSH2 0x15BA PUSH2 0x2EDE JUMP JUMPDEST JUMPDEST SWAP1 POP PUSH1 0x20 MUL ADD PUSH1 0x20 DUP2 ADD SWAP1 PUSH2 0x15D0 SWAP2 SWAP1 PUSH2 0x2A90 JUMP JUMPDEST DUP4 DUP10 DUP10 DUP8 DUP2 DUP2 LT PUSH2 0x15E4 JUMPI PUSH2 0x15E3 PUSH2 0x2EDE JUMP JUMPDEST JUMPDEST SWAP1 POP PUSH1 0x20 MUL ADD PUSH1 0x20 DUP2 ADD SWAP1 PUSH2 0x15F9 SWAP2 SWAP1 PUSH2 0x33D0 JUMP JUMPDEST PUSH1 0x40 MLOAD DUP5 PUSH4 0xFFFFFFFF AND PUSH1 0xE0 SHL DUP2 MSTORE PUSH1 0x4 ADD PUSH2 0x1617 SWAP4 SWAP3 SWAP2 SWAP1 PUSH2 0x34BC JUMP JUMPDEST PUSH1 0x0 PUSH1 0x40 MLOAD DUP1 DUP4 SUB DUP2 PUSH1 0x0 DUP8 DUP1 EXTCODESIZE ISZERO DUP1 ISZERO PUSH2 0x1631 JUMPI PUSH1 0x0 DUP1 REVERT JUMPDEST POP GAS CALL ISZERO DUP1 ISZERO PUSH2 0x1645 JUMPI RETURNDATASIZE PUSH1 0x0 DUP1 RETURNDATACOPY RETURNDATASIZE PUSH1 0x0 REVERT JUMPDEST POP POP POP POP POP DUP1 PUSH2 0x1654 SWAP1 PUSH2 0x342C JUMP JUMPDEST SWAP1 POP PUSH2 0x14CB JUMP JUMPDEST POP POP POP POP POP JUMP JUMPDEST PUSH2 0x166A PUSH2 0x1E63 JUMP JUMPDEST PUSH2 0x1673 DUP2 PUSH2 0x2407 JUMP JUMPDEST PUSH2 0x167B PUSH2 0x20FF JUMP JUMPDEST POP JUMP JUMPDEST PUSH1 0x0 PUSH1 0x9 SLOAD SWAP1 POP SWAP1 JUMP JUMPDEST PUSH2 0x1690 PUSH2 0x1DE5 JUMP JUMPDEST PUSH2 0x1698 PUSH2 0x1356 JUMP JUMPDEST ISZERO PUSH2 0x16CF JUMPI PUSH1 0x40 MLOAD PUSH32 0xF2A84B6300000000000000000000000000000000000000000000000000000000 DUP2 MSTORE PUSH1 0x4 ADD PUSH1 0x40 MLOAD DUP1 SWAP2 SUB SWAP1 REVERT JUMPDEST DUP1 PUSH1 0x8 DUP2 SWAP1 SSTORE POP POP JUMP JUMPDEST PUSH1 0x0 DUP1 PUSH1 0x4 SLOAD SWAP1 POP PUSH1 0x10 PUSH1 0x0 PUSH1 0x7 DUP2 MSTORE PUSH1 0x20 ADD SWAP1 DUP2 MSTORE PUSH1 0x20 ADD PUSH1 0x0 KECCAK256 SLOAD PUSH1 0x10 PUSH1 0x0 PUSH1 0x6 DUP2 MSTORE PUSH1 0x20 ADD SWAP1 DUP2 MSTORE PUSH1 0x20 ADD PUSH1 0x0 KECCAK256 SLOAD PUSH1 0x10 PUSH1 0x0 PUSH1 0x5 DUP2 MSTORE PUSH1 0x20 ADD SWAP1 DUP2 MSTORE PUSH1 0x20 ADD PUSH1 0x0 KECCAK256 SLOAD PUSH1 0x10 PUSH1 0x0 PUSH1 0x4 DUP2 MSTORE PUSH1 0x20 ADD SWAP1 DUP2 MSTORE PUSH1 0x20 ADD PUSH1 0x0 KECCAK256 SLOAD PUSH1 0x10 PUSH1 0x0 PUSH1 0x3 DUP2 MSTORE PUSH1 0x20 ADD SWAP1 DUP2 MSTORE PUSH1 0x20 ADD PUSH1 0x0 KECCAK256 SLOAD PUSH1 0x10 PUSH1 0x0 PUSH1 0x2 DUP2 MSTORE PUSH1 0x20 ADD SWAP1 DUP2 MSTORE PUSH1 0x20 ADD PUSH1 0x0 KECCAK256 SLOAD PUSH1 0x10 PUSH1 0x0 PUSH1 0x1 DUP2 MSTORE PUSH1 0x20 ADD SWAP1 DUP2 MSTORE PUSH1 0x20 ADD PUSH1 0x0 KECCAK256 SLOAD PUSH1 0x10 PUSH1 0x0 DUP1 DUP2 MSTORE PUSH1 0x20 ADD SWAP1 DUP2 MSTORE PUSH1 0x20 ADD PUSH1 0x0 KECCAK256 SLOAD PUSH2 0x1792 SWAP2 SWAP1 PUSH2 0x2FFF JUMP JUMPDEST PUSH2 0x179C SWAP2 SWAP1 PUSH2 0x2FFF JUMP JUMPDEST PUSH2 0x17A6 SWAP2 SWAP1 PUSH2 0x2FFF JUMP JUMPDEST PUSH2 0x17B0 SWAP2 SWAP1 PUSH2 0x2FFF JUMP JUMPDEST PUSH2 0x17BA SWAP2 SWAP1 PUSH2 0x2FFF JUMP JUMPDEST PUSH2 0x17C4 SWAP2 SWAP1 PUSH2 0x2FFF JUMP JUMPDEST PUSH2 0x17CE SWAP2 SWAP1 PUSH2 0x2FFF JUMP JUMPDEST DUP2 PUSH2 0x17D9 SWAP2 SWAP1 PUSH2 0x34F3 JUMP JUMPDEST SWAP1 POP DUP1 SWAP2 POP POP SWAP1 JUMP JUMPDEST PUSH2 0x17EA PUSH2 0x1DE5 JUMP JUMPDEST DUP1 PUSH1 0xE DUP2 SWAP1 SSTORE POP POP JUMP JUMPDEST PUSH2 0x17FC PUSH2 0x1DE5 JUMP JUMPDEST PUSH1 0x8 DUP3 DUP3 SWAP1 POP EQ PUSH2 0x184A JUMPI DUP2 DUP2 SWAP1 POP PUSH1 0x8 PUSH1 0x40 MLOAD PUSH32 0x485D33A200000000000000000000000000000000000000000000000000000000 DUP2 MSTORE PUSH1 0x4 ADD PUSH2 0x1841 SWAP3 SWAP2 SWAP1 PUSH2 0x3562 JUMP JUMPDEST PUSH1 0x40 MLOAD DUP1 SWAP2 SUB SWAP1 REVERT JUMPDEST PUSH2 0x1852 PUSH2 0x1356 JUMP JUMPDEST ISZERO PUSH2 0x1889 JUMPI PUSH1 0x40 MLOAD PUSH32 0xF2A84B6300000000000000000000000000000000000000000000000000000000 DUP2 MSTORE PUSH1 0x4 ADD PUSH1 0x40 MLOAD DUP1 SWAP2 SUB SWAP1 REVERT JUMPDEST DUP2 DUP2 PUSH1 0x7 SWAP2 SWAP1 PUSH2 0x189A SWAP3 SWAP2 SWAP1 PUSH2 0x26B5 JUMP JUMPDEST POP POP POP JUMP JUMPDEST PUSH2 0x18A7 PUSH2 0x1DE5 JUMP JUMPDEST DUP1 PUSH1 0xD DUP2 SWAP1 SSTORE POP POP JUMP JUMPDEST PUSH2 0x18B9 PUSH2 0x1E63 JUMP JUMPDEST PUSH2 0x18C1 PUSH2 0x1356 JUMP JUMPDEST PUSH2 0x1906 JUMPI PUSH1 0xB SLOAD TIMESTAMP PUSH1 0x40 MLOAD PUSH32 0x66803FC100000000000000000000000000000000000000000000000000000000 DUP2 MSTORE PUSH1 0x4 ADD PUSH2 0x18FD SWAP3 SWAP2 SWAP1 PUSH2 0x3033 JUMP JUMPDEST PUSH1 0x40 MLOAD DUP1 SWAP2 SUB SWAP1 REVERT JUMPDEST PUSH1 0x0 DUP5 GT ISZERO DUP1 PUSH2 0x1916 JUMPI POP PUSH1 0x14 DUP5 GT JUMPDEST ISZERO PUSH2 0x194D JUMPI PUSH1 0x40 MLOAD PUSH32 0xCA02D6EB00000000000000000000000000000000000000000000000000000000 DUP2 MSTORE PUSH1 0x4 ADD PUSH1 0x40 MLOAD DUP1 SWAP2 SUB SWAP1 REVERT JUMPDEST PUSH1 0x0 CALLER DUP5 PUSH1 0x40 MLOAD PUSH1 0x20 ADD PUSH2 0x1962 SWAP3 SWAP2 SWAP1 PUSH2 0x311C JUMP JUMPDEST PUSH1 0x40 MLOAD PUSH1 0x20 DUP2 DUP4 SUB SUB DUP2 MSTORE SWAP1 PUSH1 0x40 MSTORE DUP1 MLOAD SWAP1 PUSH1 0x20 ADD KECCAK256 SWAP1 POP PUSH2 0x19C8 DUP4 DUP4 DUP1 DUP1 PUSH1 0x20 MUL PUSH1 0x20 ADD PUSH1 0x40 MLOAD SWAP1 DUP2 ADD PUSH1 0x40 MSTORE DUP1 SWAP4 SWAP3 SWAP2 SWAP1 DUP2 DUP2 MSTORE PUSH1 0x20 ADD DUP4 DUP4 PUSH1 0x20 MUL DUP1 DUP3 DUP5 CALLDATACOPY PUSH1 0x0 DUP2 DUP5 ADD MSTORE PUSH1 0x1F NOT PUSH1 0x1F DUP3 ADD AND SWAP1 POP DUP1 DUP4 ADD SWAP3 POP POP POP POP POP POP POP PUSH1 0xD SLOAD DUP4 PUSH2 0x1EB2 JUMP JUMPDEST DUP1 PUSH2 0x1A1D JUMPI POP PUSH2 0x1A1C DUP4 DUP4 DUP1 DUP1 PUSH1 0x20 MUL PUSH1 0x20 ADD PUSH1 0x40 MLOAD SWAP1 DUP2 ADD PUSH1 0x40 MSTORE DUP1 SWAP4 SWAP3 SWAP2 SWAP1 DUP2 DUP2 MSTORE PUSH1 0x20 ADD DUP4 DUP4 PUSH1 0x20 MUL DUP1 DUP3 DUP5 CALLDATACOPY PUSH1 0x0 DUP2 DUP5 ADD MSTORE PUSH1 0x1F NOT PUSH1 0x1F DUP3 ADD AND SWAP1 POP DUP1 DUP4 ADD SWAP3 POP POP POP POP POP POP POP PUSH1 0xE SLOAD DUP4 PUSH2 0x1EB2 JUMP JUMPDEST JUMPDEST PUSH2 0x1A5C JUMPI PUSH1 0x40 MLOAD PUSH32 0x8C379A000000000000000000000000000000000000000000000000000000000 DUP2 MSTORE PUSH1 0x4 ADD PUSH2 0x1A53 SWAP1 PUSH2 0x319F JUMP JUMPDEST PUSH1 0x40 MLOAD DUP1 SWAP2 SUB SWAP1 REVERT JUMPDEST PUSH1 0x0 PUSH1 0x11 PUSH1 0x0 CALLER PUSH20 0xFFFFFFFFFFFFFFFFFFFFFFFFFFFFFFFFFFFFFFFF AND PUSH20 0xFFFFFFFFFFFFFFFFFFFFFFFFFFFFFFFFFFFFFFFF AND DUP2 MSTORE PUSH1 0x20 ADD SWAP1 DUP2 MSTORE PUSH1 0x20 ADD PUSH1 0x0 KECCAK256 SLOAD SWAP1 POP DUP5 DUP7 DUP3 PUSH2 0x1AAD SWAP2 SWAP1 PUSH2 0x2FFF JUMP JUMPDEST GT ISZERO PUSH2 0x1AEE JUMPI PUSH1 0x40 MLOAD PUSH32 0x8C379A000000000000000000000000000000000000000000000000000000000 DUP2 MSTORE PUSH1 0x4 ADD PUSH2 0x1AE5 SWAP1 PUSH2 0x35D7 JUMP JUMPDEST PUSH1 0x40 MLOAD DUP1 SWAP2 SUB SWAP1 REVERT JUMPDEST DUP6 PUSH1 0x11 PUSH1 0x0 CALLER PUSH20 0xFFFFFFFFFFFFFFFFFFFFFFFFFFFFFFFFFFFFFFFF AND PUSH20 0xFFFFFFFFFFFFFFFFFFFFFFFFFFFFFFFFFFFFFFFF AND DUP2 MSTORE PUSH1 0x20 ADD SWAP1 DUP2 MSTORE PUSH1 0x20 ADD PUSH1 0x0 KECCAK256 PUSH1 0x0 DUP3 DUP3 SLOAD PUSH2 0x1B3D SWAP2 SWAP1 PUSH2 0x2FFF JUMP JUMPDEST SWAP3 POP POP DUP2 SWAP1 SSTORE POP PUSH2 0x1B4E DUP7 CALLER PUSH2 0x24A8 JUMP JUMPDEST POP POP PUSH2 0x1B58 PUSH2 0x20FF JUMP JUMPDEST POP POP POP POP JUMP JUMPDEST PUSH1 0xA SLOAD DUP2 JUMP JUMPDEST PUSH2 0x1B6C PUSH2 0x1DE5 JUMP JUMPDEST PUSH1 0x0 DUP1 JUMPDEST DUP4 DUP4 SWAP1 POP DUP2 LT ISZERO PUSH2 0x1BB5 JUMPI DUP4 DUP4 DUP3 DUP2 DUP2 LT PUSH2 0x1B8E JUMPI PUSH2 0x1B8D PUSH2 0x2EDE JUMP JUMPDEST JUMPDEST SWAP1 POP PUSH1 0x20 MUL ADD CALLDATALOAD DUP3 PUSH2 0x1BA0 SWAP2 SWAP1 PUSH2 0x2FFF JUMP JUMPDEST SWAP2 POP DUP1 DUP1 PUSH2 0x1BAD SWAP1 PUSH2 0x342C JUMP JUMPDEST SWAP2 POP POP PUSH2 0x1B70 JUMP JUMPDEST POP PUSH1 0x64 DUP2 EQ PUSH2 0x1BFE JUMPI DUP1 PUSH1 0x64 PUSH1 0x40 MLOAD PUSH32 0x485D33A200000000000000000000000000000000000000000000000000000000 DUP2 MSTORE PUSH1 0x4 ADD PUSH2 0x1BF5 SWAP3 SWAP2 SWAP1 PUSH2 0x3632 JUMP JUMPDEST PUSH1 0x40 MLOAD DUP1 SWAP2 SUB SWAP1 REVERT JUMPDEST PUSH1 0x8 DUP4 DUP4 SWAP1 POP EQ PUSH2 0x1C4C JUMPI DUP3 DUP3 SWAP1 POP PUSH1 0x8 PUSH1 0x40 MLOAD PUSH32 0x485D33A200000000000000000000000000000000000000000000000000000000 DUP2 MSTORE PUSH1 0x4 ADD PUSH2 0x1C43 SWAP3 SWAP2 SWAP1 PUSH2 0x3562 JUMP JUMPDEST PUSH1 0x40 MLOAD DUP1 SWAP2 SUB SWAP1 REVERT JUMPDEST PUSH2 0x1C54 PUSH2 0x1356 JUMP JUMPDEST ISZERO PUSH2 0x1C8B JUMPI PUSH1 0x40 MLOAD PUSH32 0xF2A84B6300000000000000000000000000000000000000000000000000000000 DUP2 MSTORE PUSH1 0x4 ADD PUSH1 0x40 MLOAD DUP1 SWAP2 SUB SWAP1 REVERT JUMPDEST DUP3 DUP3 PUSH1 0x6 SWAP2 SWAP1 PUSH2 0x1C9C SWAP3 SWAP2 SWAP1 PUSH2 0x26B5 JUMP JUMPDEST POP POP POP POP JUMP JUMPDEST PUSH2 0x1CAA PUSH2 0x1DE5 JUMP JUMPDEST DUP1 PUSH1 0x2 PUSH1 0x0 PUSH2 0x100 EXP DUP2 SLOAD DUP2 PUSH20 0xFFFFFFFFFFFFFFFFFFFFFFFFFFFFFFFFFFFFFFFF MUL NOT AND SWAP1 DUP4 PUSH20 0xFFFFFFFFFFFFFFFFFFFFFFFFFFFFFFFFFFFFFFFF AND MUL OR SWAP1 SSTORE POP POP JUMP JUMPDEST PUSH1 0x0 PUSH1 0x4 SLOAD SWAP1 POP SWAP1 JUMP JUMPDEST PUSH1 0x11 PUSH1 0x20 MSTORE DUP1 PUSH1 0x0 MSTORE PUSH1 0x40 PUSH1 0x0 KECCAK256 PUSH1 0x0 SWAP2 POP SWAP1 POP SLOAD DUP2 JUMP JUMPDEST PUSH1 0x2 PUSH1 0x0 SWAP1 SLOAD SWAP1 PUSH2 0x100 EXP SWAP1 DIV PUSH20 0xFFFFFFFFFFFFFFFFFFFFFFFFFFFFFFFFFFFFFFFF AND DUP2 JUMP JUMPDEST PUSH2 0x1D3E PUSH2 0x1DE5 JUMP JUMPDEST PUSH1 0x0 PUSH20 0xFFFFFFFFFFFFFFFFFFFFFFFFFFFFFFFFFFFFFFFF AND DUP2 PUSH20 0xFFFFFFFFFFFFFFFFFFFFFFFFFFFFFFFFFFFFFFFF AND SUB PUSH2 0x1DAD JUMPI PUSH1 0x40 MLOAD PUSH32 0x8C379A000000000000000000000000000000000000000000000000000000000 DUP2 MSTORE PUSH1 0x4 ADD PUSH2 0x1DA4 SWAP1 PUSH2 0x36CD JUMP JUMPDEST PUSH1 0x40 MLOAD DUP1 SWAP2 SUB SWAP1 REVERT JUMPDEST PUSH2 0x1DB6 DUP2 PUSH2 0x2108 JUMP JUMPDEST POP JUMP JUMPDEST PUSH1 0xB SLOAD DUP2 JUMP JUMPDEST PUSH1 0x3 PUSH1 0x0 SWAP1 SLOAD SWAP1 PUSH2 0x100 EXP SWAP1 DIV PUSH20 0xFFFFFFFFFFFFFFFFFFFFFFFFFFFFFFFFFFFFFFFF AND DUP2 JUMP JUMPDEST PUSH2 0x1DED PUSH2 0x2541 JUMP JUMPDEST PUSH20 0xFFFFFFFFFFFFFFFFFFFFFFFFFFFFFFFFFFFFFFFF AND PUSH2 0x1E0B PUSH2 0x12DC JUMP JUMPDEST PUSH20 0xFFFFFFFFFFFFFFFFFFFFFFFFFFFFFFFFFFFFFFFF AND EQ PUSH2 0x1E61 JUMPI PUSH1 0x40 MLOAD PUSH32 0x8C379A000000000000000000000000000000000000000000000000000000000 DUP2 MSTORE PUSH1 0x4 ADD PUSH2 0x1E58 SWAP1 PUSH2 0x3739 JUMP JUMPDEST PUSH1 0x40 MLOAD DUP1 SWAP2 SUB SWAP1 REVERT JUMPDEST JUMP JUMPDEST PUSH1 0x2 PUSH1 0x1 SLOAD SUB PUSH2 0x1EA8 JUMPI PUSH1 0x40 MLOAD PUSH32 0x8C379A000000000000000000000000000000000000000000000000000000000 DUP2 MSTORE PUSH1 0x4 ADD PUSH2 0x1E9F SWAP1 PUSH2 0x37A5 JUMP JUMPDEST PUSH1 0x40 MLOAD DUP1 SWAP2 SUB SWAP1 REVERT JUMPDEST PUSH1 0x2 PUSH1 0x1 DUP2 SWAP1 SSTORE POP JUMP JUMPDEST PUSH1 0x0 DUP3 PUSH2 0x1EBF DUP6 DUP5 PUSH2 0x2549 JUMP JUMPDEST EQ SWAP1 POP SWAP4 SWAP3 POP POP POP JUMP JUMPDEST ADDRESS PUSH20 0xFFFFFFFFFFFFFFFFFFFFFFFFFFFFFFFFFFFFFFFF AND PUSH4 0xB9A43F2E PUSH1 0x40 MLOAD DUP2 PUSH4 0xFFFFFFFF AND PUSH1 0xE0 SHL DUP2 MSTORE PUSH1 0x4 ADD PUSH1 0x20 PUSH1 0x40 MLOAD DUP1 DUP4 SUB DUP2 DUP7 GAS STATICCALL ISZERO DUP1 ISZERO PUSH2 0x1F14 JUMPI RETURNDATASIZE PUSH1 0x0 DUP1 RETURNDATACOPY RETURNDATASIZE PUSH1 0x0 REVERT JUMPDEST POP POP POP POP PUSH1 0x40 MLOAD RETURNDATASIZE PUSH1 0x1F NOT PUSH1 0x1F DUP3 ADD AND DUP3 ADD DUP1 PUSH1 0x40 MSTORE POP DUP2 ADD SWAP1 PUSH2 0x1F38 SWAP2 SWAP1 PUSH2 0x37DA JUMP JUMPDEST DUP3 ADDRESS PUSH20 0xFFFFFFFFFFFFFFFFFFFFFFFFFFFFFFFFFFFFFFFF AND PUSH4 0x46BF289F PUSH1 0x40 MLOAD DUP2 PUSH4 0xFFFFFFFF AND PUSH1 0xE0 SHL DUP2 MSTORE PUSH1 0x4 ADD PUSH1 0x20 PUSH1 0x40 MLOAD DUP1 DUP4 SUB DUP2 DUP7 GAS STATICCALL ISZERO DUP1 ISZERO PUSH2 0x1F84 JUMPI RETURNDATASIZE PUSH1 0x0 DUP1 RETURNDATACOPY RETURNDATASIZE PUSH1 0x0 REVERT JUMPDEST POP POP POP POP PUSH1 0x40 MLOAD RETURNDATASIZE PUSH1 0x1F NOT PUSH1 0x1F DUP3 ADD AND DUP3 ADD DUP1 PUSH1 0x40 MSTORE POP DUP2 ADD SWAP1 PUSH2 0x1FA8 SWAP2 SWAP1 PUSH2 0x37DA JUMP JUMPDEST PUSH2 0x1FB2 SWAP2 SWAP1 PUSH2 0x2FFF JUMP JUMPDEST GT ISZERO PUSH2 0x1FF3 JUMPI PUSH1 0x40 MLOAD PUSH32 0x8C379A000000000000000000000000000000000000000000000000000000000 DUP2 MSTORE PUSH1 0x4 ADD PUSH2 0x1FEA SWAP1 PUSH2 0x3853 JUMP JUMPDEST PUSH1 0x40 MLOAD DUP1 SWAP2 SUB SWAP1 REVERT JUMPDEST PUSH1 0x0 JUMPDEST DUP3 DUP2 LT ISZERO PUSH2 0x20FA JUMPI PUSH1 0x0 PUSH2 0x2008 PUSH2 0x259F JUMP JUMPDEST SWAP1 POP PUSH1 0x0 DUP2 PUSH1 0x7 DUP2 GT ISZERO PUSH2 0x201F JUMPI PUSH2 0x201E PUSH2 0x33FD JUMP JUMPDEST JUMPDEST SWAP1 POP PUSH1 0x0 PUSH2 0x202C DUP3 PUSH2 0x21CC JUMP JUMPDEST SWAP1 POP PUSH1 0x10 PUSH1 0x0 DUP5 DUP2 MSTORE PUSH1 0x20 ADD SWAP1 DUP2 MSTORE PUSH1 0x20 ADD PUSH1 0x0 KECCAK256 PUSH1 0x0 DUP2 SLOAD PUSH2 0x204E SWAP1 PUSH2 0x342C JUMP JUMPDEST SWAP2 SWAP1 POP DUP2 SWAP1 SSTORE POP PUSH1 0x2 PUSH1 0x0 SWAP1 SLOAD SWAP1 PUSH2 0x100 EXP SWAP1 DIV PUSH20 0xFFFFFFFFFFFFFFFFFFFFFFFFFFFFFFFFFFFFFFFF AND PUSH20 0xFFFFFFFFFFFFFFFFFFFFFFFFFFFFFFFFFFFFFFFF AND PUSH4 0x86EBF010 DUP7 DUP4 DUP6 PUSH1 0x40 MLOAD DUP5 PUSH4 0xFFFFFFFF AND PUSH1 0xE0 SHL DUP2 MSTORE PUSH1 0x4 ADD PUSH2 0x20B4 SWAP4 SWAP3 SWAP2 SWAP1 PUSH2 0x34BC JUMP JUMPDEST PUSH1 0x0 PUSH1 0x40 MLOAD DUP1 DUP4 SUB DUP2 PUSH1 0x0 DUP8 DUP1 EXTCODESIZE ISZERO DUP1 ISZERO PUSH2 0x20CE JUMPI PUSH1 0x0 DUP1 REVERT JUMPDEST POP GAS CALL ISZERO DUP1 ISZERO PUSH2 0x20E2 JUMPI RETURNDATASIZE PUSH1 0x0 DUP1 RETURNDATACOPY RETURNDATASIZE PUSH1 0x0 REVERT JUMPDEST POP POP POP POP POP POP POP DUP1 PUSH2 0x20F3 SWAP1 PUSH2 0x342C JUMP JUMPDEST SWAP1 POP PUSH2 0x1FF6 JUMP JUMPDEST POP POP POP JUMP JUMPDEST PUSH1 0x1 DUP1 DUP2 SWAP1 SSTORE POP JUMP JUMPDEST PUSH1 0x0 DUP1 PUSH1 0x0 SWAP1 SLOAD SWAP1 PUSH2 0x100 EXP SWAP1 DIV PUSH20 0xFFFFFFFFFFFFFFFFFFFFFFFFFFFFFFFFFFFFFFFF AND SWAP1 POP DUP2 PUSH1 0x0 DUP1 PUSH2 0x100 EXP DUP2 SLOAD DUP2 PUSH20 0xFFFFFFFFFFFFFFFFFFFFFFFFFFFFFFFFFFFFFFFF MUL NOT AND SWAP1 DUP4 PUSH20 0xFFFFFFFFFFFFFFFFFFFFFFFFFFFFFFFFFFFFFFFF AND MUL OR SWAP1 SSTORE POP DUP2 PUSH20 0xFFFFFFFFFFFFFFFFFFFFFFFFFFFFFFFFFFFFFFFF AND DUP2 PUSH20 0xFFFFFFFFFFFFFFFFFFFFFFFFFFFFFFFFFFFFFFFF AND PUSH32 0x8BE0079C531659141344CD1FD0A4F28419497F9722A3DAAFE3B4186F6B6457E0 PUSH1 0x40 MLOAD PUSH1 0x40 MLOAD DUP1 SWAP2 SUB SWAP1 LOG3 POP POP JUMP JUMPDEST PUSH1 0x0 DUP1 PUSH1 0x8 SLOAD PUSH1 0x10 PUSH1 0x0 PUSH1 0x7 DUP2 MSTORE PUSH1 0x20 ADD SWAP1 DUP2 MSTORE PUSH1 0x20 ADD PUSH1 0x0 KECCAK256 SLOAD PUSH1 0x10 PUSH1 0x0 PUSH1 0x6 DUP2 MSTORE PUSH1 0x20 ADD SWAP1 DUP2 MSTORE PUSH1 0x20 ADD PUSH1 0x0 KECCAK256 SLOAD PUSH1 0x10 PUSH1 0x0 PUSH1 0x5 DUP2 MSTORE PUSH1 0x20 ADD SWAP1 DUP2 MSTORE PUSH1 0x20 ADD PUSH1 0x0 KECCAK256 SLOAD PUSH1 0x10 PUSH1 0x0 PUSH1 0x4 DUP2 MSTORE PUSH1 0x20 ADD SWAP1 DUP2 MSTORE PUSH1 0x20 ADD PUSH1 0x0 KECCAK256 SLOAD PUSH1 0x10 PUSH1 0x0 PUSH1 0x3 DUP2 MSTORE PUSH1 0x20 ADD SWAP1 DUP2 MSTORE PUSH1 0x20 ADD PUSH1 0x0 KECCAK256 SLOAD PUSH1 0x10 PUSH1 0x0 PUSH1 0x2 DUP2 MSTORE PUSH1 0x20 ADD SWAP1 DUP2 MSTORE PUSH1 0x20 ADD PUSH1 0x0 KECCAK256 SLOAD PUSH1 0x10 PUSH1 0x0 PUSH1 0x1 DUP2 MSTORE PUSH1 0x20 ADD SWAP1 DUP2 MSTORE PUSH1 0x20 ADD PUSH1 0x0 KECCAK256 SLOAD PUSH1 0x10 PUSH1 0x0 DUP1 DUP2 MSTORE PUSH1 0x20 ADD SWAP1 DUP2 MSTORE PUSH1 0x20 ADD PUSH1 0x0 KECCAK256 SLOAD PUSH2 0x2283 SWAP2 SWAP1 PUSH2 0x2FFF JUMP JUMPDEST PUSH2 0x228D SWAP2 SWAP1 PUSH2 0x2FFF JUMP JUMPDEST PUSH2 0x2297 SWAP2 SWAP1 PUSH2 0x2FFF JUMP JUMPDEST PUSH2 0x22A1 SWAP2 SWAP1 PUSH2 0x2FFF JUMP JUMPDEST PUSH2 0x22AB SWAP2 SWAP1 PUSH2 0x2FFF JUMP JUMPDEST PUSH2 0x22B5 SWAP2 SWAP1 PUSH2 0x2FFF JUMP JUMPDEST PUSH2 0x22BF SWAP2 SWAP1 PUSH2 0x2FFF JUMP JUMPDEST PUSH2 0x22C9 SWAP2 SWAP1 PUSH2 0x2FFF JUMP JUMPDEST SWAP1 POP PUSH1 0x0 PUSH1 0x7 DUP5 PUSH1 0x7 DUP2 GT ISZERO PUSH2 0x22E2 JUMPI PUSH2 0x22E1 PUSH2 0x33FD JUMP JUMPDEST JUMPDEST DUP2 SLOAD DUP2 LT PUSH2 0x22F3 JUMPI PUSH2 0x22F2 PUSH2 0x2EDE JUMP JUMPDEST JUMPDEST SWAP1 PUSH1 0x0 MSTORE PUSH1 0x20 PUSH1 0x0 KECCAK256 ADD SLOAD PUSH1 0x10 PUSH1 0x0 DUP7 PUSH1 0x7 DUP2 GT ISZERO PUSH2 0x2315 JUMPI PUSH2 0x2314 PUSH2 0x33FD JUMP JUMPDEST JUMPDEST DUP2 MSTORE PUSH1 0x20 ADD SWAP1 DUP2 MSTORE PUSH1 0x20 ADD PUSH1 0x0 KECCAK256 SLOAD PUSH2 0x232E SWAP2 SWAP1 PUSH2 0x2FFF JUMP JUMPDEST SWAP1 POP PUSH4 0xFFFFFFFF DUP2 GT ISZERO PUSH2 0x2377 JUMPI PUSH1 0x40 MLOAD PUSH32 0x8C379A000000000000000000000000000000000000000000000000000000000 DUP2 MSTORE PUSH1 0x4 ADD PUSH2 0x236E SWAP1 PUSH2 0x38BF JUMP JUMPDEST PUSH1 0x40 MLOAD DUP1 SWAP2 SUB SWAP1 REVERT JUMPDEST PUSH1 0xFF DUP5 PUSH1 0x7 DUP2 GT ISZERO PUSH2 0x238C JUMPI PUSH2 0x238B PUSH2 0x33FD JUMP JUMPDEST JUMPDEST GT ISZERO PUSH2 0x23CD JUMPI PUSH1 0x40 MLOAD PUSH32 0x8C379A000000000000000000000000000000000000000000000000000000000 DUP2 MSTORE PUSH1 0x4 ADD PUSH2 0x23C4 SWAP1 PUSH2 0x392B JUMP JUMPDEST PUSH1 0x40 MLOAD DUP1 SWAP2 SUB SWAP1 REVERT JUMPDEST DUP4 PUSH1 0x7 DUP2 GT ISZERO PUSH2 0x23E0 JUMPI PUSH2 0x23DF PUSH2 0x33FD JUMP JUMPDEST JUMPDEST PUSH1 0x8 DUP3 SWAP1 SHL PUSH1 0x28 DUP5 SWAP1 SHL PUSH2 0x23F4 SWAP2 SWAP1 PUSH2 0x2FFF JUMP JUMPDEST PUSH2 0x23FE SWAP2 SWAP1 PUSH2 0x2FFF JUMP JUMPDEST SWAP3 POP POP POP SWAP2 SWAP1 POP JUMP JUMPDEST PUSH2 0x240F PUSH2 0x12C9 JUMP JUMPDEST PUSH2 0x2454 JUMPI PUSH1 0xA SLOAD TIMESTAMP PUSH1 0x40 MLOAD PUSH32 0x66803FC100000000000000000000000000000000000000000000000000000000 DUP2 MSTORE PUSH1 0x4 ADD PUSH2 0x244B SWAP3 SWAP2 SWAP1 PUSH2 0x3033 JUMP JUMPDEST PUSH1 0x40 MLOAD DUP1 SWAP2 SUB SWAP1 REVERT JUMPDEST PUSH1 0x0 DUP2 GT ISZERO DUP1 PUSH2 0x2464 JUMPI POP PUSH1 0x14 DUP2 GT JUMPDEST ISZERO PUSH2 0x249B JUMPI PUSH1 0x40 MLOAD PUSH32 0xCA02D6EB00000000000000000000000000000000000000000000000000000000 DUP2 MSTORE PUSH1 0x4 ADD PUSH1 0x40 MLOAD DUP1 SWAP2 SUB SWAP1 REVERT JUMPDEST PUSH2 0x24A5 DUP2 CALLER PUSH2 0x24A8 JUMP JUMPDEST POP JUMP JUMPDEST PUSH1 0x0 PUSH1 0x9 SLOAD GT PUSH2 0x24E4 JUMPI PUSH1 0x40 MLOAD PUSH32 0xC5FADBA600000000000000000000000000000000000000000000000000000000 DUP2 MSTORE PUSH1 0x4 ADD PUSH1 0x40 MLOAD DUP1 SWAP2 SUB SWAP1 REVERT JUMPDEST DUP2 PUSH1 0x9 SLOAD PUSH2 0x24F2 SWAP2 SWAP1 PUSH2 0x394B JUMP JUMPDEST CALLVALUE EQ PUSH2 0x2533 JUMPI PUSH1 0x40 MLOAD PUSH32 0x8C379A000000000000000000000000000000000000000000000000000000000 DUP2 MSTORE PUSH1 0x4 ADD PUSH2 0x252A SWAP1 PUSH2 0x39FF JUMP JUMPDEST PUSH1 0x40 MLOAD DUP1 SWAP2 SUB SWAP1 REVERT JUMPDEST PUSH2 0x253D DUP3 DUP3 PUSH2 0x1EC9 JUMP JUMPDEST POP POP JUMP JUMPDEST PUSH1 0x0 CALLER SWAP1 POP SWAP1 JUMP JUMPDEST PUSH1 0x0 DUP1 DUP3 SWAP1 POP PUSH1 0x0 JUMPDEST DUP5 MLOAD DUP2 LT ISZERO PUSH2 0x2594 JUMPI PUSH2 0x257F DUP3 DUP7 DUP4 DUP2 MLOAD DUP2 LT PUSH2 0x2572 JUMPI PUSH2 0x2571 PUSH2 0x2EDE JUMP JUMPDEST JUMPDEST PUSH1 0x20 MUL PUSH1 0x20 ADD ADD MLOAD PUSH2 0x2673 JUMP JUMPDEST SWAP2 POP DUP1 DUP1 PUSH2 0x258C SWAP1 PUSH2 0x342C JUMP JUMPDEST SWAP2 POP POP PUSH2 0x2552 JUMP JUMPDEST POP DUP1 SWAP2 POP POP SWAP3 SWAP2 POP POP JUMP JUMPDEST PUSH1 0x0 DUP1 PUSH1 0x0 SWAP1 POP PUSH1 0x5 PUSH1 0x0 DUP2 SLOAD DUP1 SWAP3 SWAP2 SWAP1 PUSH2 0x25B9 SWAP1 PUSH2 0x342C JUMP JUMPDEST SWAP2 SWAP1 POP SSTORE POP PUSH1 0x0 PUSH1 0x1 PUSH1 0x64 TIMESTAMP CALLER PUSH1 0x5 SLOAD PUSH1 0x40 MLOAD PUSH1 0x20 ADD PUSH2 0x25DB SWAP4 SWAP3 SWAP2 SWAP1 PUSH2 0x3A1F JUMP JUMPDEST PUSH1 0x40 MLOAD PUSH1 0x20 DUP2 DUP4 SUB SUB DUP2 MSTORE SWAP1 PUSH1 0x40 MSTORE DUP1 MLOAD SWAP1 PUSH1 0x20 ADD KECCAK256 PUSH1 0x0 SHR PUSH2 0x25FE SWAP2 SWAP1 PUSH2 0x3A8B JUMP JUMPDEST PUSH2 0x2608 SWAP2 SWAP1 PUSH2 0x2FFF JUMP JUMPDEST SWAP1 POP PUSH1 0x0 DUP1 JUMPDEST PUSH1 0x6 DUP1 SLOAD SWAP1 POP DUP2 LT ISZERO PUSH2 0x2669 JUMPI PUSH1 0x6 DUP2 DUP2 SLOAD DUP2 LT PUSH2 0x262F JUMPI PUSH2 0x262E PUSH2 0x2EDE JUMP JUMPDEST JUMPDEST SWAP1 PUSH1 0x0 MSTORE PUSH1 0x20 PUSH1 0x0 KECCAK256 ADD SLOAD DUP3 PUSH2 0x2645 SWAP2 SWAP1 PUSH2 0x2FFF JUMP JUMPDEST SWAP2 POP DUP2 DUP4 GT PUSH2 0x2656 JUMPI DUP1 SWAP4 POP PUSH2 0x2669 JUMP JUMPDEST DUP1 DUP1 PUSH2 0x2661 SWAP1 PUSH2 0x342C JUMP JUMPDEST SWAP2 POP POP PUSH2 0x260E JUMP JUMPDEST POP DUP3 SWAP4 POP POP POP POP SWAP1 JUMP JUMPDEST PUSH1 0x0 DUP2 DUP4 LT PUSH2 0x268B JUMPI PUSH2 0x2686 DUP3 DUP5 PUSH2 0x269E JUMP JUMPDEST PUSH2 0x2696 JUMP JUMPDEST PUSH2 0x2695 DUP4 DUP4 PUSH2 0x269E JUMP JUMPDEST JUMPDEST SWAP1 POP SWAP3 SWAP2 POP POP JUMP JUMPDEST PUSH1 0x0 DUP3 PUSH1 0x0 MSTORE DUP2 PUSH1 0x20 MSTORE PUSH1 0x40 PUSH1 0x0 KECCAK256 SWAP1 POP SWAP3 SWAP2 POP POP JUMP JUMPDEST DUP3 DUP1 SLOAD DUP3 DUP3 SSTORE SWAP1 PUSH1 0x0 MSTORE PUSH1 0x20 PUSH1 0x0 KECCAK256 SWAP1 DUP2 ADD SWAP3 DUP3 ISZERO PUSH2 0x26F1 JUMPI SWAP2 PUSH1 0x20 MUL DUP3 ADD JUMPDEST DUP3 DUP2 GT ISZERO PUSH2 0x26F0 JUMPI DUP3 CALLDATALOAD DUP3 SSTORE SWAP2 PUSH1 0x20 ADD SWAP2 SWAP1 PUSH1 0x1 ADD SWAP1 PUSH2 0x26D5 JUMP JUMPDEST JUMPDEST POP SWAP1 POP PUSH2 0x26FE SWAP2 SWAP1 PUSH2 0x2702 JUMP JUMPDEST POP SWAP1 JUMP JUMPDEST JUMPDEST DUP1 DUP3 GT ISZERO PUSH2 0x271B JUMPI PUSH1 0x0 DUP2 PUSH1 0x0 SWAP1 SSTORE POP PUSH1 0x1 ADD PUSH2 0x2703 JUMP JUMPDEST POP SWAP1 JUMP JUMPDEST PUSH1 0x0 DUP2 MLOAD SWAP1 POP SWAP2 SWAP1 POP JUMP JUMPDEST PUSH1 0x0 DUP3 DUP3 MSTORE PUSH1 0x20 DUP3 ADD SWAP1 POP SWAP3 SWAP2 POP POP JUMP JUMPDEST PUSH1 0x0 DUP2 SWAP1 POP PUSH1 0x20 DUP3 ADD SWAP1 POP SWAP2 SWAP1 POP JUMP JUMPDEST PUSH1 0x0 DUP2 SWAP1 POP SWAP2 SWAP1 POP JUMP JUMPDEST PUSH2 0x275E DUP2 PUSH2 0x274B JUMP JUMPDEST DUP3 MSTORE POP POP JUMP JUMPDEST PUSH1 0x0 PUSH2 0x2770 DUP4 DUP4 PUSH2 0x2755 JUMP JUMPDEST PUSH1 0x20 DUP4 ADD SWAP1 POP SWAP3 SWAP2 POP POP JUMP JUMPDEST PUSH1 0x0 PUSH1 0x20 DUP3 ADD SWAP1 POP SWAP2 SWAP1 POP JUMP JUMPDEST PUSH1 0x0 PUSH2 0x2794 DUP3 PUSH2 0x271F JUMP JUMPDEST PUSH2 0x279E DUP2 DUP6 PUSH2 0x272A JUMP JUMPDEST SWAP4 POP PUSH2 0x27A9 DUP4 PUSH2 0x273B JUMP JUMPDEST DUP1 PUSH1 0x0 JUMPDEST DUP4 DUP2 LT ISZERO PUSH2 0x27DA JUMPI DUP2 MLOAD PUSH2 0x27C1 DUP9 DUP3 PUSH2 0x2764 JUMP JUMPDEST SWAP8 POP PUSH2 0x27CC DUP4 PUSH2 0x277C JUMP JUMPDEST SWAP3 POP POP PUSH1 0x1 DUP2 ADD SWAP1 POP PUSH2 0x27AD JUMP JUMPDEST POP DUP6 SWAP4 POP POP POP POP SWAP3 SWAP2 POP POP JUMP JUMPDEST PUSH1 0x0 PUSH1 0x20 DUP3 ADD SWAP1 POP DUP2 DUP2 SUB PUSH1 0x0 DUP4 ADD MSTORE PUSH2 0x2801 DUP2 DUP5 PUSH2 0x2789 JUMP JUMPDEST SWAP1 POP SWAP3 SWAP2 POP POP JUMP JUMPDEST PUSH1 0x0 DUP1 REVERT JUMPDEST PUSH1 0x0 DUP1 REVERT JUMPDEST PUSH2 0x281C DUP2 PUSH2 0x274B JUMP JUMPDEST DUP2 EQ PUSH2 0x2827 JUMPI PUSH1 0x0 DUP1 REVERT JUMPDEST POP JUMP JUMPDEST PUSH1 0x0 DUP2 CALLDATALOAD SWAP1 POP PUSH2 0x2839 DUP2 PUSH2 0x2813 JUMP JUMPDEST SWAP3 SWAP2 POP POP JUMP JUMPDEST PUSH1 0x0 PUSH1 0x20 DUP3 DUP5 SUB SLT ISZERO PUSH2 0x2855 JUMPI PUSH2 0x2854 PUSH2 0x2809 JUMP JUMPDEST JUMPDEST PUSH1 0x0 PUSH2 0x2863 DUP5 DUP3 DUP6 ADD PUSH2 0x282A JUMP JUMPDEST SWAP2 POP POP SWAP3 SWAP2 POP POP JUMP JUMPDEST PUSH2 0x2875 DUP2 PUSH2 0x274B JUMP JUMPDEST DUP3 MSTORE POP POP JUMP JUMPDEST PUSH1 0x0 PUSH1 0x20 DUP3 ADD SWAP1 POP PUSH2 0x2890 PUSH1 0x0 DUP4 ADD DUP5 PUSH2 0x286C JUMP JUMPDEST SWAP3 SWAP2 POP POP JUMP JUMPDEST PUSH1 0x0 DUP2 SWAP1 POP SWAP2 SWAP1 POP JUMP JUMPDEST PUSH2 0x28A9 DUP2 PUSH2 0x2896 JUMP JUMPDEST DUP3 MSTORE POP POP JUMP JUMPDEST PUSH1 0x0 PUSH1 0x20 DUP3 ADD SWAP1 POP PUSH2 0x28C4 PUSH1 0x0 DUP4 ADD DUP5 PUSH2 0x28A0 JUMP JUMPDEST SWAP3 SWAP2 POP POP JUMP JUMPDEST PUSH1 0x0 DUP2 ISZERO ISZERO SWAP1 POP SWAP2 SWAP1 POP JUMP JUMPDEST PUSH2 0x28DF DUP2 PUSH2 0x28CA JUMP JUMPDEST DUP3 MSTORE POP POP JUMP JUMPDEST PUSH1 0x0 PUSH1 0x20 DUP3 ADD SWAP1 POP PUSH2 0x28FA PUSH1 0x0 DUP4 ADD DUP5 PUSH2 0x28D6 JUMP JUMPDEST SWAP3 SWAP2 POP POP JUMP JUMPDEST PUSH2 0x2909 DUP2 PUSH2 0x2896 JUMP JUMPDEST DUP2 EQ PUSH2 0x2914 JUMPI PUSH1 0x0 DUP1 REVERT JUMPDEST POP JUMP JUMPDEST PUSH1 0x0 DUP2 CALLDATALOAD SWAP1 POP PUSH2 0x2926 DUP2 PUSH2 0x2900 JUMP JUMPDEST SWAP3 SWAP2 POP POP JUMP JUMPDEST PUSH1 0x0 PUSH1 0x20 DUP3 DUP5 SUB SLT ISZERO PUSH2 0x2942 JUMPI PUSH2 0x2941 PUSH2 0x2809 JUMP JUMPDEST JUMPDEST PUSH1 0x0 PUSH2 0x2950 DUP5 DUP3 DUP6 ADD PUSH2 0x2917 JUMP JUMPDEST SWAP2 POP POP SWAP3 SWAP2 POP POP JUMP JUMPDEST PUSH1 0x0 DUP1 REVERT JUMPDEST PUSH1 0x0 DUP1 REVERT JUMPDEST PUSH1 0x0 DUP1 REVERT JUMPDEST PUSH1 0x0 DUP1 DUP4 PUSH1 0x1F DUP5 ADD SLT PUSH2 0x297E JUMPI PUSH2 0x297D PUSH2 0x2959 JUMP JUMPDEST JUMPDEST DUP3 CALLDATALOAD SWAP1 POP PUSH8 0xFFFFFFFFFFFFFFFF DUP2 GT ISZERO PUSH2 0x299B JUMPI PUSH2 0x299A PUSH2 0x295E JUMP JUMPDEST JUMPDEST PUSH1 0x20 DUP4 ADD SWAP2 POP DUP4 PUSH1 0x20 DUP3 MUL DUP4 ADD GT ISZERO PUSH2 0x29B7 JUMPI PUSH2 0x29B6 PUSH2 0x2963 JUMP JUMPDEST JUMPDEST SWAP3 POP SWAP3 SWAP1 POP JUMP JUMPDEST PUSH1 0x0 DUP1 PUSH1 0x0 DUP1 PUSH1 0x60 DUP6 DUP8 SUB SLT ISZERO PUSH2 0x29D8 JUMPI PUSH2 0x29D7 PUSH2 0x2809 JUMP JUMPDEST JUMPDEST PUSH1 0x0 PUSH2 0x29E6 DUP8 DUP3 DUP9 ADD PUSH2 0x282A JUMP JUMPDEST SWAP5 POP POP PUSH1 0x20 PUSH2 0x29F7 DUP8 DUP3 DUP9 ADD PUSH2 0x282A JUMP JUMPDEST SWAP4 POP POP PUSH1 0x40 DUP6 ADD CALLDATALOAD PUSH8 0xFFFFFFFFFFFFFFFF DUP2 GT ISZERO PUSH2 0x2A18 JUMPI PUSH2 0x2A17 PUSH2 0x280E JUMP JUMPDEST JUMPDEST PUSH2 0x2A24 DUP8 DUP3 DUP9 ADD PUSH2 0x2968 JUMP JUMPDEST SWAP3 POP SWAP3 POP POP SWAP3 SWAP6 SWAP2 SWAP5 POP SWAP3 POP JUMP JUMPDEST PUSH1 0x0 PUSH20 0xFFFFFFFFFFFFFFFFFFFFFFFFFFFFFFFFFFFFFFFF DUP3 AND SWAP1 POP SWAP2 SWAP1 POP JUMP JUMPDEST PUSH1 0x0 PUSH2 0x2A5D DUP3 PUSH2 0x2A32 JUMP JUMPDEST SWAP1 POP SWAP2 SWAP1 POP JUMP JUMPDEST PUSH2 0x2A6D DUP2 PUSH2 0x2A52 JUMP JUMPDEST DUP2 EQ PUSH2 0x2A78 JUMPI PUSH1 0x0 DUP1 REVERT JUMPDEST POP JUMP JUMPDEST PUSH1 0x0 DUP2 CALLDATALOAD SWAP1 POP PUSH2 0x2A8A DUP2 PUSH2 0x2A64 JUMP JUMPDEST SWAP3 SWAP2 POP POP JUMP JUMPDEST PUSH1 0x0 PUSH1 0x20 DUP3 DUP5 SUB SLT ISZERO PUSH2 0x2AA6 JUMPI PUSH2 0x2AA5 PUSH2 0x2809 JUMP JUMPDEST JUMPDEST PUSH1 0x0 PUSH2 0x2AB4 DUP5 DUP3 DUP6 ADD PUSH2 0x2A7B JUMP JUMPDEST SWAP2 POP POP SWAP3 SWAP2 POP POP JUMP JUMPDEST PUSH1 0x0 PUSH2 0x2AC8 DUP3 PUSH2 0x2A32 JUMP JUMPDEST SWAP1 POP SWAP2 SWAP1 POP JUMP JUMPDEST PUSH2 0x2AD8 DUP2 PUSH2 0x2ABD JUMP JUMPDEST DUP2 EQ PUSH2 0x2AE3 JUMPI PUSH1 0x0 DUP1 REVERT JUMPDEST POP JUMP JUMPDEST PUSH1 0x0 DUP2 CALLDATALOAD SWAP1 POP PUSH2 0x2AF5 DUP2 PUSH2 0x2ACF JUMP JUMPDEST SWAP3 SWAP2 POP POP JUMP JUMPDEST PUSH1 0x0 PUSH1 0x20 DUP3 DUP5 SUB SLT ISZERO PUSH2 0x2B11 JUMPI PUSH2 0x2B10 PUSH2 0x2809 JUMP JUMPDEST JUMPDEST PUSH1 0x0 PUSH2 0x2B1F DUP5 DUP3 DUP6 ADD PUSH2 0x2AE6 JUMP JUMPDEST SWAP2 POP POP SWAP3 SWAP2 POP POP JUMP JUMPDEST PUSH2 0x2B31 DUP2 PUSH2 0x2A52 JUMP JUMPDEST DUP3 MSTORE POP POP JUMP JUMPDEST PUSH1 0x0 PUSH1 0x20 DUP3 ADD SWAP1 POP PUSH2 0x2B4C PUSH1 0x0 DUP4 ADD DUP5 PUSH2 0x2B28 JUMP JUMPDEST SWAP3 SWAP2 POP POP JUMP JUMPDEST PUSH1 0x0 PUSH2 0x2B5D DUP3 PUSH2 0x2A52 JUMP JUMPDEST SWAP1 POP SWAP2 SWAP1 POP JUMP JUMPDEST PUSH2 0x2B6D DUP2 PUSH2 0x2B52 JUMP JUMPDEST DUP2 EQ PUSH2 0x2B78 JUMPI PUSH1 0x0 DUP1 REVERT JUMPDEST POP JUMP JUMPDEST PUSH1 0x0 DUP2 CALLDATALOAD SWAP1 POP PUSH2 0x2B8A DUP2 PUSH2 0x2B64 JUMP JUMPDEST SWAP3 SWAP2 POP POP JUMP JUMPDEST PUSH1 0x0 DUP1 PUSH1 0x40 DUP4 DUP6 SUB SLT ISZERO PUSH2 0x2BA7 JUMPI PUSH2 0x2BA6 PUSH2 0x2809 JUMP JUMPDEST JUMPDEST PUSH1 0x0 PUSH2 0x2BB5 DUP6 DUP3 DUP7 ADD PUSH2 0x2B7B JUMP JUMPDEST SWAP3 POP POP PUSH1 0x20 PUSH2 0x2BC6 DUP6 DUP3 DUP7 ADD PUSH2 0x282A JUMP JUMPDEST SWAP2 POP POP SWAP3 POP SWAP3 SWAP1 POP JUMP JUMPDEST PUSH1 0x0 DUP1 DUP4 PUSH1 0x1F DUP5 ADD SLT PUSH2 0x2BE6 JUMPI PUSH2 0x2BE5 PUSH2 0x2959 JUMP JUMPDEST JUMPDEST DUP3 CALLDATALOAD SWAP1 POP PUSH8 0xFFFFFFFFFFFFFFFF DUP2 GT ISZERO PUSH2 0x2C03 JUMPI PUSH2 0x2C02 PUSH2 0x295E JUMP JUMPDEST JUMPDEST PUSH1 0x20 DUP4 ADD SWAP2 POP DUP4 PUSH1 0x20 DUP3 MUL DUP4 ADD GT ISZERO PUSH2 0x2C1F JUMPI PUSH2 0x2C1E PUSH2 0x2963 JUMP JUMPDEST JUMPDEST SWAP3 POP SWAP3 SWAP1 POP JUMP JUMPDEST PUSH1 0x0 DUP1 DUP4 PUSH1 0x1F DUP5 ADD SLT PUSH2 0x2C3C JUMPI PUSH2 0x2C3B PUSH2 0x2959 JUMP JUMPDEST JUMPDEST DUP3 CALLDATALOAD SWAP1 POP PUSH8 0xFFFFFFFFFFFFFFFF DUP2 GT ISZERO PUSH2 0x2C59 JUMPI PUSH2 0x2C58 PUSH2 0x295E JUMP JUMPDEST JUMPDEST PUSH1 0x20 DUP4 ADD SWAP2 POP DUP4 PUSH1 0x20 DUP3 MUL DUP4 ADD GT ISZERO PUSH2 0x2C75 JUMPI PUSH2 0x2C74 PUSH2 0x2963 JUMP JUMPDEST JUMPDEST SWAP3 POP SWAP3 SWAP1 POP JUMP JUMPDEST PUSH1 0x0 DUP1 PUSH1 0x0 DUP1 PUSH1 0x40 DUP6 DUP8 SUB SLT ISZERO PUSH2 0x2C96 JUMPI PUSH2 0x2C95 PUSH2 0x2809 JUMP JUMPDEST JUMPDEST PUSH1 0x0 DUP6 ADD CALLDATALOAD PUSH8 0xFFFFFFFFFFFFFFFF DUP2 GT ISZERO PUSH2 0x2CB4 JUMPI PUSH2 0x2CB3 PUSH2 0x280E JUMP JUMPDEST JUMPDEST PUSH2 0x2CC0 DUP8 DUP3 DUP9 ADD PUSH2 0x2BD0 JUMP JUMPDEST SWAP5 POP SWAP5 POP POP PUSH1 0x20 DUP6 ADD CALLDATALOAD PUSH8 0xFFFFFFFFFFFFFFFF DUP2 GT ISZERO PUSH2 0x2CE3 JUMPI PUSH2 0x2CE2 PUSH2 0x280E JUMP JUMPDEST JUMPDEST PUSH2 0x2CEF DUP8 DUP3 DUP9 ADD PUSH2 0x2C26 JUMP JUMPDEST SWAP3 POP SWAP3 POP POP SWAP3 SWAP6 SWAP2 SWAP5 POP SWAP3 POP JUMP JUMPDEST PUSH1 0x0 DUP1 DUP4 PUSH1 0x1F DUP5 ADD SLT PUSH2 0x2D13 JUMPI PUSH2 0x2D12 PUSH2 0x2959 JUMP JUMPDEST JUMPDEST DUP3 CALLDATALOAD SWAP1 POP PUSH8 0xFFFFFFFFFFFFFFFF DUP2 GT ISZERO PUSH2 0x2D30 JUMPI PUSH2 0x2D2F PUSH2 0x295E JUMP JUMPDEST JUMPDEST PUSH1 0x20 DUP4 ADD SWAP2 POP DUP4 PUSH1 0x20 DUP3 MUL DUP4 ADD GT ISZERO PUSH2 0x2D4C JUMPI PUSH2 0x2D4B PUSH2 0x2963 JUMP JUMPDEST JUMPDEST SWAP3 POP SWAP3 SWAP1 POP JUMP JUMPDEST PUSH1 0x0 DUP1 PUSH1 0x20 DUP4 DUP6 SUB SLT ISZERO PUSH2 0x2D6A JUMPI PUSH2 0x2D69 PUSH2 0x2809 JUMP JUMPDEST JUMPDEST PUSH1 0x0 DUP4 ADD CALLDATALOAD PUSH8 0xFFFFFFFFFFFFFFFF DUP2 GT ISZERO PUSH2 0x2D88 JUMPI PUSH2 0x2D87 PUSH2 0x280E JUMP JUMPDEST JUMPDEST PUSH2 0x2D94 DUP6 DUP3 DUP7 ADD PUSH2 0x2CFD JUMP JUMPDEST SWAP3 POP SWAP3 POP POP SWAP3 POP SWAP3 SWAP1 POP JUMP JUMPDEST PUSH1 0x0 PUSH2 0x2DAB DUP3 PUSH2 0x2A52 JUMP JUMPDEST SWAP1 POP SWAP2 SWAP1 POP JUMP JUMPDEST PUSH2 0x2DBB DUP2 PUSH2 0x2DA0 JUMP JUMPDEST DUP2 EQ PUSH2 0x2DC6 JUMPI PUSH1 0x0 DUP1 REVERT JUMPDEST POP JUMP JUMPDEST PUSH1 0x0 DUP2 CALLDATALOAD SWAP1 POP PUSH2 0x2DD8 DUP2 PUSH2 0x2DB2 JUMP JUMPDEST SWAP3 SWAP2 POP POP JUMP JUMPDEST PUSH1 0x0 PUSH1 0x20 DUP3 DUP5 SUB SLT ISZERO PUSH2 0x2DF4 JUMPI PUSH2 0x2DF3 PUSH2 0x2809 JUMP JUMPDEST JUMPDEST PUSH1 0x0 PUSH2 0x2E02 DUP5 DUP3 DUP6 ADD PUSH2 0x2DC9 JUMP JUMPDEST SWAP2 POP POP SWAP3 SWAP2 POP POP JUMP JUMPDEST PUSH1 0x0 DUP2 SWAP1 POP SWAP2 SWAP1 POP JUMP JUMPDEST PUSH1 0x0 PUSH2 0x2E30 PUSH2 0x2E2B PUSH2 0x2E26 DUP5 PUSH2 0x2A32 JUMP JUMPDEST PUSH2 0x2E0B JUMP JUMPDEST PUSH2 0x2A32 JUMP JUMPDEST SWAP1 POP SWAP2 SWAP1 POP JUMP JUMPDEST PUSH1 0x0 PUSH2 0x2E42 DUP3 PUSH2 0x2E15 JUMP JUMPDEST SWAP1 POP SWAP2 SWAP1 POP JUMP JUMPDEST PUSH1 0x0 PUSH2 0x2E54 DUP3 PUSH2 0x2E37 JUMP JUMPDEST SWAP1 POP SWAP2 SWAP1 POP JUMP JUMPDEST PUSH2 0x2E64 DUP2 PUSH2 0x2E49 JUMP JUMPDEST DUP3 MSTORE POP POP JUMP JUMPDEST PUSH1 0x0 PUSH1 0x20 DUP3 ADD SWAP1 POP PUSH2 0x2E7F PUSH1 0x0 DUP4 ADD DUP5 PUSH2 0x2E5B JUMP JUMPDEST SWAP3 SWAP2 POP POP JUMP JUMPDEST PUSH2 0x2E8E DUP2 PUSH2 0x2ABD JUMP JUMPDEST DUP3 MSTORE POP POP JUMP JUMPDEST PUSH1 0x0 PUSH1 0x20 DUP3 ADD SWAP1 POP PUSH2 0x2EA9 PUSH1 0x0 DUP4 ADD DUP5 PUSH2 0x2E85 JUMP JUMPDEST SWAP3 SWAP2 POP POP JUMP JUMPDEST PUSH32 0x4E487B7100000000000000000000000000000000000000000000000000000000 PUSH1 0x0 MSTORE PUSH1 0x41 PUSH1 0x4 MSTORE PUSH1 0x24 PUSH1 0x0 REVERT JUMPDEST PUSH32 0x4E487B7100000000000000000000000000000000000000000000000000000000 PUSH1 0x0 MSTORE PUSH1 0x32 PUSH1 0x4 MSTORE PUSH1 0x24 PUSH1 0x0 REVERT JUMPDEST PUSH1 0x0 DUP2 SWAP1 POP SWAP3 SWAP2 POP POP JUMP JUMPDEST POP JUMP JUMPDEST PUSH1 0x0 PUSH2 0x2F28 PUSH1 0x0 DUP4 PUSH2 0x2F0D JUMP JUMPDEST SWAP2 POP PUSH2 0x2F33 DUP3 PUSH2 0x2F18 JUMP JUMPDEST PUSH1 0x0 DUP3 ADD SWAP1 POP SWAP2 SWAP1 POP JUMP JUMPDEST PUSH1 0x0 PUSH2 0x2F49 DUP3 PUSH2 0x2F1B JUMP JUMPDEST SWAP2 POP DUP2 SWAP1 POP SWAP2 SWAP1 POP JUMP JUMPDEST PUSH1 0x0 DUP3 DUP3 MSTORE PUSH1 0x20 DUP3 ADD SWAP1 POP SWAP3 SWAP2 POP POP JUMP JUMPDEST PUSH32 0x776974686472617720776173206E6F742073756363657366756C6C0000000000 PUSH1 0x0 DUP3 ADD MSTORE POP JUMP JUMPDEST PUSH1 0x0 PUSH2 0x2F9A PUSH1 0x1B DUP4 PUSH2 0x2F53 JUMP JUMPDEST SWAP2 POP PUSH2 0x2FA5 DUP3 PUSH2 0x2F64 JUMP JUMPDEST PUSH1 0x20 DUP3 ADD SWAP1 POP SWAP2 SWAP1 POP JUMP JUMPDEST PUSH1 0x0 PUSH1 0x20 DUP3 ADD SWAP1 POP DUP2 DUP2 SUB PUSH1 0x0 DUP4 ADD MSTORE PUSH2 0x2FC9 DUP2 PUSH2 0x2F8D JUMP JUMPDEST SWAP1 POP SWAP2 SWAP1 POP JUMP JUMPDEST PUSH32 0x4E487B7100000000000000000000000000000000000000000000000000000000 PUSH1 0x0 MSTORE PUSH1 0x11 PUSH1 0x4 MSTORE PUSH1 0x24 PUSH1 0x0 REVERT JUMPDEST PUSH1 0x0 PUSH2 0x300A DUP3 PUSH2 0x274B JUMP JUMPDEST SWAP2 POP PUSH2 0x3015 DUP4 PUSH2 0x274B JUMP JUMPDEST SWAP3 POP DUP3 DUP3 ADD SWAP1 POP DUP1 DUP3 GT ISZERO PUSH2 0x302D JUMPI PUSH2 0x302C PUSH2 0x2FD0 JUMP JUMPDEST JUMPDEST SWAP3 SWAP2 POP POP JUMP JUMPDEST PUSH1 0x0 PUSH1 0x40 DUP3 ADD SWAP1 POP PUSH2 0x3048 PUSH1 0x0 DUP4 ADD DUP6 PUSH2 0x286C JUMP JUMPDEST PUSH2 0x3055 PUSH1 0x20 DUP4 ADD DUP5 PUSH2 0x286C JUMP JUMPDEST SWAP4 SWAP3 POP POP POP JUMP JUMPDEST PUSH1 0x0 DUP2 PUSH1 0x60 SHL SWAP1 POP SWAP2 SWAP1 POP JUMP JUMPDEST PUSH1 0x0 PUSH2 0x3074 DUP3 PUSH2 0x305C JUMP JUMPDEST SWAP1 POP SWAP2 SWAP1 POP JUMP JUMPDEST PUSH1 0x0 PUSH2 0x3086 DUP3 PUSH2 0x3069 JUMP JUMPDEST SWAP1 POP SWAP2 SWAP1 POP JUMP JUMPDEST PUSH2 0x309E PUSH2 0x3099 DUP3 PUSH2 0x2A52 JUMP JUMPDEST PUSH2 0x307B JUMP JUMPDEST DUP3 MSTORE POP POP JUMP JUMPDEST PUSH1 0x0 DUP2 SWAP1 POP SWAP3 SWAP2 POP POP JUMP JUMPDEST PUSH32 0x3A00000000000000000000000000000000000000000000000000000000000000 PUSH1 0x0 DUP3 ADD MSTORE POP JUMP JUMPDEST PUSH1 0x0 PUSH2 0x30E5 PUSH1 0x1 DUP4 PUSH2 0x30A4 JUMP JUMPDEST SWAP2 POP PUSH2 0x30F0 DUP3 PUSH2 0x30AF JUMP JUMPDEST PUSH1 0x1 DUP3 ADD SWAP1 POP SWAP2 SWAP1 POP JUMP JUMPDEST PUSH1 0x0 DUP2 SWAP1 POP SWAP2 SWAP1 POP JUMP JUMPDEST PUSH2 0x3116 PUSH2 0x3111 DUP3 PUSH2 0x274B JUMP JUMPDEST PUSH2 0x30FB JUMP JUMPDEST DUP3 MSTORE POP POP JUMP JUMPDEST PUSH1 0x0 PUSH2 0x3128 DUP3 DUP6 PUSH2 0x308D JUMP JUMPDEST PUSH1 0x14 DUP3 ADD SWAP2 POP PUSH2 0x3137 DUP3 PUSH2 0x30D8 JUMP JUMPDEST SWAP2 POP PUSH2 0x3143 DUP3 DUP5 PUSH2 0x3105 JUMP JUMPDEST PUSH1 0x20 DUP3 ADD SWAP2 POP DUP2 SWAP1 POP SWAP4 SWAP3 POP POP POP JUMP JUMPDEST PUSH32 0x496E76616C69642070726F6F662E000000000000000000000000000000000000 PUSH1 0x0 DUP3 ADD MSTORE POP JUMP JUMPDEST PUSH1 0x0 PUSH2 0x3189 PUSH1 0xE DUP4 PUSH2 0x2F53 JUMP JUMPDEST SWAP2 POP PUSH2 0x3194 DUP3 PUSH2 0x3153 JUMP JUMPDEST PUSH1 0x20 DUP3 ADD SWAP1 POP SWAP2 SWAP1 POP JUMP JUMPDEST PUSH1 0x0 PUSH1 0x20 DUP3 ADD SWAP1 POP DUP2 DUP2 SUB PUSH1 0x0 DUP4 ADD MSTORE PUSH2 0x31B8 DUP2 PUSH2 0x317C JUMP JUMPDEST SWAP1 POP SWAP2 SWAP1 POP JUMP JUMPDEST PUSH32 0x436C61696D696E67206D6F7265207468616E20616C6C6F7765642E0000000000 PUSH1 0x0 DUP3 ADD MSTORE POP JUMP JUMPDEST PUSH1 0x0 PUSH2 0x31F5 PUSH1 0x1B DUP4 PUSH2 0x2F53 JUMP JUMPDEST SWAP2 POP PUSH2 0x3200 DUP3 PUSH2 0x31BF JUMP JUMPDEST PUSH1 0x20 DUP3 ADD SWAP1 POP SWAP2 SWAP1 POP JUMP JUMPDEST PUSH1 0x0 PUSH1 0x20 DUP3 ADD SWAP1 POP DUP2 DUP2 SUB PUSH1 0x0 DUP4 ADD MSTORE PUSH2 0x3224 DUP2 PUSH2 0x31E8 JUMP JUMPDEST SWAP1 POP SWAP2 SWAP1 POP JUMP JUMPDEST PUSH32 0x776974686472617720616C6C20776173206E6F742073756363657366756C6C00 PUSH1 0x0 DUP3 ADD MSTORE POP JUMP JUMPDEST PUSH1 0x0 PUSH2 0x3261 PUSH1 0x1F DUP4 PUSH2 0x2F53 JUMP JUMPDEST SWAP2 POP PUSH2 0x326C DUP3 PUSH2 0x322B JUMP JUMPDEST PUSH1 0x20 DUP3 ADD SWAP1 POP SWAP2 SWAP1 POP JUMP JUMPDEST PUSH1 0x0 PUSH1 0x20 DUP3 ADD SWAP1 POP DUP2 DUP2 SUB PUSH1 0x0 DUP4 ADD MSTORE PUSH2 0x3290 DUP2 PUSH2 0x3254 JUMP JUMPDEST SWAP1 POP SWAP2 SWAP1 POP JUMP JUMPDEST PUSH1 0x0 PUSH1 0x40 DUP3 ADD SWAP1 POP PUSH2 0x32AC PUSH1 0x0 DUP4 ADD DUP6 PUSH2 0x2B28 JUMP JUMPDEST PUSH2 0x32B9 PUSH1 0x20 DUP4 ADD DUP5 PUSH2 0x286C JUMP JUMPDEST SWAP4 SWAP3 POP POP POP JUMP JUMPDEST PUSH2 0x32C9 DUP2 PUSH2 0x28CA JUMP JUMPDEST DUP2 EQ PUSH2 0x32D4 JUMPI PUSH1 0x0 DUP1 REVERT JUMPDEST POP JUMP JUMPDEST PUSH1 0x0 DUP2 MLOAD SWAP1 POP PUSH2 0x32E6 DUP2 PUSH2 0x32C0 JUMP JUMPDEST SWAP3 SWAP2 POP POP JUMP JUMPDEST PUSH1 0x0 PUSH1 0x20 DUP3 DUP5 SUB SLT ISZERO PUSH2 0x3302 JUMPI PUSH2 0x3301 PUSH2 0x2809 JUMP JUMPDEST JUMPDEST PUSH1 0x0 PUSH2 0x3310 DUP5 DUP3 DUP6 ADD PUSH2 0x32D7 JUMP JUMPDEST SWAP2 POP POP SWAP3 SWAP2 POP POP JUMP JUMPDEST PUSH32 0x4172726179732073686F756C642068617665207468652073616D652073697A65 PUSH1 0x0 DUP3 ADD MSTORE PUSH32 0x2E00000000000000000000000000000000000000000000000000000000000000 PUSH1 0x20 DUP3 ADD MSTORE POP JUMP JUMPDEST PUSH1 0x0 PUSH2 0x3375 PUSH1 0x21 DUP4 PUSH2 0x2F53 JUMP JUMPDEST SWAP2 POP PUSH2 0x3380 DUP3 PUSH2 0x3319 JUMP JUMPDEST PUSH1 0x40 DUP3 ADD SWAP1 POP SWAP2 SWAP1 POP JUMP JUMPDEST PUSH1 0x0 PUSH1 0x20 DUP3 ADD SWAP1 POP DUP2 DUP2 SUB PUSH1 0x0 DUP4 ADD MSTORE PUSH2 0x33A4 DUP2 PUSH2 0x3368 JUMP JUMPDEST SWAP1 POP SWAP2 SWAP1 POP JUMP JUMPDEST PUSH1 0x8 DUP2 LT PUSH2 0x33B8 JUMPI PUSH1 0x0 DUP1 REVERT JUMPDEST POP JUMP JUMPDEST PUSH1 0x0 DUP2 CALLDATALOAD SWAP1 POP PUSH2 0x33CA DUP2 PUSH2 0x33AB JUMP JUMPDEST SWAP3 SWAP2 POP POP JUMP JUMPDEST PUSH1 0x0 PUSH1 0x20 DUP3 DUP5 SUB SLT ISZERO PUSH2 0x33E6 JUMPI PUSH2 0x33E5 PUSH2 0x2809 JUMP JUMPDEST JUMPDEST PUSH1 0x0 PUSH2 0x33F4 DUP5 DUP3 DUP6 ADD PUSH2 0x33BB JUMP JUMPDEST SWAP2 POP POP SWAP3 SWAP2 POP POP JUMP JUMPDEST PUSH32 0x4E487B7100000000000000000000000000000000000000000000000000000000 PUSH1 0x0 MSTORE PUSH1 0x21 PUSH1 0x4 MSTORE PUSH1 0x24 PUSH1 0x0 REVERT JUMPDEST PUSH1 0x0 PUSH2 0x3437 DUP3 PUSH2 0x274B JUMP JUMPDEST SWAP2 POP PUSH32 0xFFFFFFFFFFFFFFFFFFFFFFFFFFFFFFFFFFFFFFFFFFFFFFFFFFFFFFFFFFFFFFFF DUP3 SUB PUSH2 0x3469 JUMPI PUSH2 0x3468 PUSH2 0x2FD0 JUMP JUMPDEST JUMPDEST PUSH1 0x1 DUP3 ADD SWAP1 POP SWAP2 SWAP1 POP JUMP JUMPDEST PUSH1 0x8 DUP2 LT PUSH2 0x3485 JUMPI PUSH2 0x3484 PUSH2 0x33FD JUMP JUMPDEST JUMPDEST POP JUMP JUMPDEST PUSH1 0x0 DUP2 SWAP1 POP PUSH2 0x3496 DUP3 PUSH2 0x3474 JUMP JUMPDEST SWAP2 SWAP1 POP JUMP JUMPDEST PUSH1 0x0 PUSH2 0x34A6 DUP3 PUSH2 0x3488 JUMP JUMPDEST SWAP1 POP SWAP2 SWAP1 POP JUMP JUMPDEST PUSH2 0x34B6 DUP2 PUSH2 0x349B JUMP JUMPDEST DUP3 MSTORE POP POP JUMP JUMPDEST PUSH1 0x0 PUSH1 0x60 DUP3 ADD SWAP1 POP PUSH2 0x34D1 PUSH1 0x0 DUP4 ADD DUP7 PUSH2 0x2B28 JUMP JUMPDEST PUSH2 0x34DE PUSH1 0x20 DUP4 ADD DUP6 PUSH2 0x286C JUMP JUMPDEST PUSH2 0x34EB PUSH1 0x40 DUP4 ADD DUP5 PUSH2 0x34AD JUMP JUMPDEST SWAP5 SWAP4 POP POP POP POP JUMP JUMPDEST PUSH1 0x0 PUSH2 0x34FE DUP3 PUSH2 0x274B JUMP JUMPDEST SWAP2 POP PUSH2 0x3509 DUP4 PUSH2 0x274B JUMP JUMPDEST SWAP3 POP DUP3 DUP3 SUB SWAP1 POP DUP2 DUP2 GT ISZERO PUSH2 0x3521 JUMPI PUSH2 0x3520 PUSH2 0x2FD0 JUMP JUMPDEST JUMPDEST SWAP3 SWAP2 POP POP JUMP JUMPDEST PUSH1 0x0 DUP2 SWAP1 POP SWAP2 SWAP1 POP JUMP JUMPDEST PUSH1 0x0 PUSH2 0x354C PUSH2 0x3547 PUSH2 0x3542 DUP5 PUSH2 0x3527 JUMP JUMPDEST PUSH2 0x2E0B JUMP JUMPDEST PUSH2 0x274B JUMP JUMPDEST SWAP1 POP SWAP2 SWAP1 POP JUMP JUMPDEST PUSH2 0x355C DUP2 PUSH2 0x3531 JUMP JUMPDEST DUP3 MSTORE POP POP JUMP JUMPDEST PUSH1 0x0 PUSH1 0x40 DUP3 ADD SWAP1 POP PUSH2 0x3577 PUSH1 0x0 DUP4 ADD DUP6 PUSH2 0x286C JUMP JUMPDEST PUSH2 0x3584 PUSH1 0x20 DUP4 ADD DUP5 PUSH2 0x3553 JUMP JUMPDEST SWAP4 SWAP3 POP POP POP JUMP JUMPDEST PUSH32 0x4D696E74696E67206D6F7265207468616E20616C6C6F7765642E000000000000 PUSH1 0x0 DUP3 ADD MSTORE POP JUMP JUMPDEST PUSH1 0x0 PUSH2 0x35C1 PUSH1 0x1A DUP4 PUSH2 0x2F53 JUMP JUMPDEST SWAP2 POP PUSH2 0x35CC DUP3 PUSH2 0x358B JUMP JUMPDEST PUSH1 0x20 DUP3 ADD SWAP1 POP SWAP2 SWAP1 POP JUMP JUMPDEST PUSH1 0x0 PUSH1 0x20 DUP3 ADD SWAP1 POP DUP2 DUP2 SUB PUSH1 0x0 DUP4 ADD MSTORE PUSH2 0x35F0 DUP2 PUSH2 0x35B4 JUMP JUMPDEST SWAP1 POP SWAP2 SWAP1 POP JUMP JUMPDEST PUSH1 0x0 DUP2 SWAP1 POP SWAP2 SWAP1 POP JUMP JUMPDEST PUSH1 0x0 PUSH2 0x361C PUSH2 0x3617 PUSH2 0x3612 DUP5 PUSH2 0x35F7 JUMP JUMPDEST PUSH2 0x2E0B JUMP JUMPDEST PUSH2 0x274B JUMP JUMPDEST SWAP1 POP SWAP2 SWAP1 POP JUMP JUMPDEST PUSH2 0x362C DUP2 PUSH2 0x3601 JUMP JUMPDEST DUP3 MSTORE POP POP JUMP JUMPDEST PUSH1 0x0 PUSH1 0x40 DUP3 ADD SWAP1 POP PUSH2 0x3647 PUSH1 0x0 DUP4 ADD DUP6 PUSH2 0x286C JUMP JUMPDEST PUSH2 0x3654 PUSH1 0x20 DUP4 ADD DUP5 PUSH2 0x3623 JUMP JUMPDEST SWAP4 SWAP3 POP POP POP JUMP JUMPDEST PUSH32 0x4F776E61626C653A206E6577206F776E657220697320746865207A65726F2061 PUSH1 0x0 DUP3 ADD MSTORE PUSH32 0x6464726573730000000000000000000000000000000000000000000000000000 PUSH1 0x20 DUP3 ADD MSTORE POP JUMP JUMPDEST PUSH1 0x0 PUSH2 0x36B7 PUSH1 0x26 DUP4 PUSH2 0x2F53 JUMP JUMPDEST SWAP2 POP PUSH2 0x36C2 DUP3 PUSH2 0x365B JUMP JUMPDEST PUSH1 0x40 DUP3 ADD SWAP1 POP SWAP2 SWAP1 POP JUMP JUMPDEST PUSH1 0x0 PUSH1 0x20 DUP3 ADD SWAP1 POP DUP2 DUP2 SUB PUSH1 0x0 DUP4 ADD MSTORE PUSH2 0x36E6 DUP2 PUSH2 0x36AA JUMP JUMPDEST SWAP1 POP SWAP2 SWAP1 POP JUMP JUMPDEST PUSH32 0x4F776E61626C653A2063616C6C6572206973206E6F7420746865206F776E6572 PUSH1 0x0 DUP3 ADD MSTORE POP JUMP JUMPDEST PUSH1 0x0 PUSH2 0x3723 PUSH1 0x20 DUP4 PUSH2 0x2F53 JUMP JUMPDEST SWAP2 POP PUSH2 0x372E DUP3 PUSH2 0x36ED JUMP JUMPDEST PUSH1 0x20 DUP3 ADD SWAP1 POP SWAP2 SWAP1 POP JUMP JUMPDEST PUSH1 0x0 PUSH1 0x20 DUP3 ADD SWAP1 POP DUP2 DUP2 SUB PUSH1 0x0 DUP4 ADD MSTORE PUSH2 0x3752 DUP2 PUSH2 0x3716 JUMP JUMPDEST SWAP1 POP SWAP2 SWAP1 POP JUMP JUMPDEST PUSH32 0x5265656E7472616E637947756172643A207265656E7472616E742063616C6C00 PUSH1 0x0 DUP3 ADD MSTORE POP JUMP JUMPDEST PUSH1 0x0 PUSH2 0x378F PUSH1 0x1F DUP4 PUSH2 0x2F53 JUMP JUMPDEST SWAP2 POP PUSH2 0x379A DUP3 PUSH2 0x3759 JUMP JUMPDEST PUSH1 0x20 DUP3 ADD SWAP1 POP SWAP2 SWAP1 POP JUMP JUMPDEST PUSH1 0x0 PUSH1 0x20 DUP3 ADD SWAP1 POP DUP2 DUP2 SUB PUSH1 0x0 DUP4 ADD MSTORE PUSH2 0x37BE DUP2 PUSH2 0x3782 JUMP JUMPDEST SWAP1 POP SWAP2 SWAP1 POP JUMP JUMPDEST PUSH1 0x0 DUP2 MLOAD SWAP1 POP PUSH2 0x37D4 DUP2 PUSH2 0x2813 JUMP JUMPDEST SWAP3 SWAP2 POP POP JUMP JUMPDEST PUSH1 0x0 PUSH1 0x20 DUP3 DUP5 SUB SLT ISZERO PUSH2 0x37F0 JUMPI PUSH2 0x37EF PUSH2 0x2809 JUMP JUMPDEST JUMPDEST PUSH1 0x0 PUSH2 0x37FE DUP5 DUP3 DUP6 ADD PUSH2 0x37C5 JUMP JUMPDEST SWAP2 POP POP SWAP3 SWAP2 POP POP JUMP JUMPDEST PUSH32 0x547279696E6720746F206D696E7420746F6F206D616E792072696E67732E0000 PUSH1 0x0 DUP3 ADD MSTORE POP JUMP JUMPDEST PUSH1 0x0 PUSH2 0x383D PUSH1 0x1E DUP4 PUSH2 0x2F53 JUMP JUMPDEST SWAP2 POP PUSH2 0x3848 DUP3 PUSH2 0x3807 JUMP JUMPDEST PUSH1 0x20 DUP3 ADD SWAP1 POP SWAP2 SWAP1 POP JUMP JUMPDEST PUSH1 0x0 PUSH1 0x20 DUP3 ADD SWAP1 POP DUP2 DUP2 SUB PUSH1 0x0 DUP4 ADD MSTORE PUSH2 0x386C DUP2 PUSH2 0x3830 JUMP JUMPDEST SWAP1 POP SWAP2 SWAP1 POP JUMP JUMPDEST PUSH32 0x4C6F63616C20696E646578206F766572666C6F772E0000000000000000000000 PUSH1 0x0 DUP3 ADD MSTORE POP JUMP JUMPDEST PUSH1 0x0 PUSH2 0x38A9 PUSH1 0x15 DUP4 PUSH2 0x2F53 JUMP JUMPDEST SWAP2 POP PUSH2 0x38B4 DUP3 PUSH2 0x3873 JUMP JUMPDEST PUSH1 0x20 DUP3 ADD SWAP1 POP SWAP2 SWAP1 POP JUMP JUMPDEST PUSH1 0x0 PUSH1 0x20 DUP3 ADD SWAP1 POP DUP2 DUP2 SUB PUSH1 0x0 DUP4 ADD MSTORE PUSH2 0x38D8 DUP2 PUSH2 0x389C JUMP JUMPDEST SWAP1 POP SWAP2 SWAP1 POP JUMP JUMPDEST PUSH32 0x52696E6720696E646578206F766572666C6F772E000000000000000000000000 PUSH1 0x0 DUP3 ADD MSTORE POP JUMP JUMPDEST PUSH1 0x0 PUSH2 0x3915 PUSH1 0x14 DUP4 PUSH2 0x2F53 JUMP JUMPDEST SWAP2 POP PUSH2 0x3920 DUP3 PUSH2 0x38DF JUMP JUMPDEST PUSH1 0x20 DUP3 ADD SWAP1 POP SWAP2 SWAP1 POP JUMP JUMPDEST PUSH1 0x0 PUSH1 0x20 DUP3 ADD SWAP1 POP DUP2 DUP2 SUB PUSH1 0x0 DUP4 ADD MSTORE PUSH2 0x3944 DUP2 PUSH2 0x3908 JUMP JUMPDEST SWAP1 POP SWAP2 SWAP1 POP JUMP JUMPDEST PUSH1 0x0 PUSH2 0x3956 DUP3 PUSH2 0x274B JUMP JUMPDEST SWAP2 POP PUSH2 0x3961 DUP4 PUSH2 0x274B JUMP JUMPDEST SWAP3 POP DUP3 DUP3 MUL PUSH2 0x396F DUP2 PUSH2 0x274B JUMP JUMPDEST SWAP2 POP DUP3 DUP3 DIV DUP5 EQ DUP4 ISZERO OR PUSH2 0x3986 JUMPI PUSH2 0x3985 PUSH2 0x2FD0 JUMP JUMPDEST JUMPDEST POP SWAP3 SWAP2 POP POP JUMP JUMPDEST PUSH32 0x45746865722076616C75652073656E74206973206E6F74206163637572617465 PUSH1 0x0 DUP3 ADD MSTORE PUSH32 0x2E00000000000000000000000000000000000000000000000000000000000000 PUSH1 0x20 DUP3 ADD MSTORE POP JUMP JUMPDEST PUSH1 0x0 PUSH2 0x39E9 PUSH1 0x21 DUP4 PUSH2 0x2F53 JUMP JUMPDEST SWAP2 POP PUSH2 0x39F4 DUP3 PUSH2 0x398D JUMP JUMPDEST PUSH1 0x40 DUP3 ADD SWAP1 POP SWAP2 SWAP1 POP JUMP JUMPDEST PUSH1 0x0 PUSH1 0x20 DUP3 ADD SWAP1 POP DUP2 DUP2 SUB PUSH1 0x0 DUP4 ADD MSTORE PUSH2 0x3A18 DUP2 PUSH2 0x39DC JUMP JUMPDEST SWAP1 POP SWAP2 SWAP1 POP JUMP JUMPDEST PUSH1 0x0 PUSH2 0x3A2B DUP3 DUP7 PUSH2 0x3105 JUMP JUMPDEST PUSH1 0x20 DUP3 ADD SWAP2 POP PUSH2 0x3A3B DUP3 DUP6 PUSH2 0x308D JUMP JUMPDEST PUSH1 0x14 DUP3 ADD SWAP2 POP PUSH2 0x3A4B DUP3 DUP5 PUSH2 0x3105 JUMP JUMPDEST PUSH1 0x20 DUP3 ADD SWAP2 POP DUP2 SWAP1 POP SWAP5 SWAP4 POP POP POP POP JUMP JUMPDEST PUSH32 0x4E487B7100000000000000000000000000000000000000000000000000000000 PUSH1 0x0 MSTORE PUSH1 0x12 PUSH1 0x4 MSTORE PUSH1 0x24 PUSH1 0x0 REVERT JUMPDEST PUSH1 0x0 PUSH2 0x3A96 DUP3 PUSH2 0x274B JUMP JUMPDEST SWAP2 POP PUSH2 0x3AA1 DUP4 PUSH2 0x274B JUMP JUMPDEST SWAP3 POP DUP3 PUSH2 0x3AB1 JUMPI PUSH2 0x3AB0 PUSH2 0x3A5C JUMP JUMPDEST JUMPDEST DUP3 DUP3 MOD SWAP1 POP SWAP3 SWAP2 POP POP JUMP INVALID LOG2 PUSH5 0x6970667358 0x22 SLT KECCAK256 0xDC PUSH22 0x6524CB0F405C64CAB4CBEE77A96A98EAE173C9598087 PUSH3 0x1A232 0x2C 0xD PUSH16 0xE164736F6C6343000812003300000000 "},"methodIdentifiers":{"claimlistMerkleRoot()":"2560e376","claimlistMint(uint256,uint256,bytes32[])":"4c3db84d","claimlistMinted(address)":"6138f236","claimsStartTime()":"8d56a17b","claimsStarted()":"3e97414f","forwardERC20s(address,uint256)":"9727151a","getAvailableRings()":"b9a43f2e","getInitialRings()":"df477ead","getProbabilities()":"062f7b8c","getRingPrice()":"a0e52f89","getTokenIdRingType(uint256)":"2701b325","getTotalMintedRings()":"46bf289f","getTotalMintedRingsByType()":"2ce82a71","mint(uint256)":"a0712d68","mintlistMerkleRoot1()":"4ed1eb24","mintlistMerkleRoot2()":"1c7f4a02","mintlistMint(uint256,uint256,bytes32[])":"d012468f","mintlistMinted(address)":"e49618c1","mintlistStartTime()":"f4cde4c0","mintlistStarted()":"93cb4147","owner()":"8da5cb5b","ownerMint(uint8[],address[])":"9f0664b5","publicMintStartTime()":"d3cf00a3","publicStarted()":"8c6d8ef6","renounceOwnership()":"715018a6","ringGlobalOffset()":"5242a493","ringPrice()":"1af3ba81","ringTypeLocalOffset(uint256)":"96c9f88b","ringsMinted(uint256)":"158ae298","setClaimlistMerkleRoot(bytes32)":"411d13f7","setClaimsStartTime(uint256)":"260c0886","setGlobalIdOffset(uint256)":"a637f973","setLocalIdOffsets(uint256[])":"cc644fd2","setMintlistMerkleRoot1(bytes32)":"cef58283","setMintlistMerkleRoot2(bytes32)":"c2774dac","setMintlistStartTime(uint256)":"6e1a1a60","setPrice(uint256)":"91b7f5ed","setProbabilities(uint256[])":"d6117b3e","setPublicMintStartTime(uint256)":"5fcd80a6","setRingsAvailable(uint256)":"205ed382","setVaultAddress(address)":"85535cc5","setWatchersRing(address)":"dc37dc64","transferOwnership(address)":"f2fde38b","vault()":"fbfa77cf","watchersRing()":"f0c821de","withdraw(uint256)":"2e1a7d4d","withdrawAll()":"853828b6"}}}}}