{"contracts/WatchersRingMinter.sol":{"WatchersRingMinter":{"abi":[{"inputs":[{"internalType":"contract IWatchersRing","name":"_watchersRing","type":"address"}],"stateMutability":"nonpayable","type":"constructor"},{"inputs":[],"name":"Address0Error","type":"error"},{"inputs":[],"name":"AlreadyMintedOneRing","type":"error"},{"inputs":[],"name":"DeniedProcessDuringMinting","type":"error"},{"inputs":[{"internalType":"uint256","name":"sended_values","type":"uint256"},{"internalType":"uint256","name":"expected","type":"uint256"}],"name":"GivenValuesNotValid","type":"error"},{"inputs":[],"name":"MisconfiguredPrices","type":"error"},{"inputs":[{"internalType":"uint256","name":"correct_date","type":"uint256"},{"internalType":"uint256","name":"current_date","type":"uint256"}],"name":"WrongDateForProcess","type":"error"},{"anonymous":false,"inputs":[{"indexed":true,"internalType":"address","name":"previousOwner","type":"address"},{"indexed":true,"internalType":"address","name":"newOwner","type":"address"}],"name":"OwnershipTransferred","type":"event"},{"inputs":[{"internalType":"address","name":"_address","type":"address"}],"name":"addressAlreadyMinted","outputs":[{"internalType":"bool","name":"","type":"bool"}],"stateMutability":"view","type":"function"},{"inputs":[],"name":"claimlistMerkleRoot","outputs":[{"internalType":"bytes32","name":"","type":"bytes32"}],"stateMutability":"view","type":"function"},{"inputs":[{"internalType":"uint256","name":"claimedMaxRings","type":"uint256"},{"internalType":"bytes32[]","name":"_merkleProof","type":"bytes32[]"}],"name":"claimlistMint","outputs":[],"stateMutability":"payable","type":"function"},{"inputs":[{"internalType":"address","name":"","type":"address"}],"name":"claimlistMinted","outputs":[{"internalType":"uint256","name":"","type":"uint256"}],"stateMutability":"view","type":"function"},{"inputs":[],"name":"claimsStartTime","outputs":[{"internalType":"uint256","name":"","type":"uint256"}],"stateMutability":"view","type":"function"},{"inputs":[],"name":"claimsStarted","outputs":[{"internalType":"bool","name":"","type":"bool"}],"stateMutability":"view","type":"function"},{"inputs":[{"internalType":"contract IERC20","name":"_token","type":"address"},{"internalType":"uint256","name":"_amount","type":"uint256"}],"name":"forwardERC20s","outputs":[],"stateMutability":"nonpayable","type":"function"},{"inputs":[],"name":"getAvailableRings","outputs":[{"internalType":"uint256","name":"","type":"uint256"}],"stateMutability":"view","type":"function"},{"inputs":[],"name":"getInitialRings","outputs":[{"internalType":"uint256","name":"","type":"uint256"}],"stateMutability":"view","type":"function"},{"inputs":[],"name":"getProbabilities","outputs":[{"internalType":"uint256[]","name":"","type":"uint256[]"}],"stateMutability":"view","type":"function"},{"inputs":[],"name":"getRingPrice","outputs":[{"internalType":"uint256","name":"","type":"uint256"}],"stateMutability":"view","type":"function"},{"inputs":[{"internalType":"uint256","name":"tokenId","type":"uint256"}],"name":"getTokenIdRingType","outputs":[{"internalType":"uint256","name":"","type":"uint256"}],"stateMutability":"pure","type":"function"},{"inputs":[],"name":"getTotalMintedRings","outputs":[{"internalType":"uint256","name":"","type":"uint256"}],"stateMutability":"view","type":"function"},{"inputs":[],"name":"getTotalMintedRingsByType","outputs":[{"internalType":"uint256[]","name":"","type":"uint256[]"}],"stateMutability":"view","type":"function"},{"inputs":[],"name":"mint","outputs":[],"stateMutability":"payable","type":"function"},{"inputs":[],"name":"mintlistMerkleRoot1","outputs":[{"internalType":"bytes32","name":"","type":"bytes32"}],"stateMutability":"view","type":"function"},{"inputs":[],"name":"mintlistMerkleRoot2","outputs":[{"internalType":"bytes32","name":"","type":"bytes32"}],"stateMutability":"view","type":"function"},{"inputs":[{"internalType":"uint256","name":"claimedMaxRings","type":"uint256"},{"internalType":"bytes32[]","name":"_merkleProof","type":"bytes32[]"}],"name":"mintlistMint","outputs":[],"stateMutability":"payable","type":"function"},{"inputs":[{"internalType":"address","name":"","type":"address"}],"name":"mintlistMinted","outputs":[{"internalType":"uint256","name":"","type":"uint256"}],"stateMutability":"view","type":"function"},{"inputs":[],"name":"mintlistStartTime","outputs":[{"internalType":"uint256","name":"","type":"uint256"}],"stateMutability":"view","type":"function"},{"inputs":[],"name":"mintlistStarted","outputs":[{"internalType":"bool","name":"","type":"bool"}],"stateMutability":"view","type":"function"},{"inputs":[],"name":"owner","outputs":[{"internalType":"address","name":"","type":"address"}],"stateMutability":"view","type":"function"},{"inputs":[{"internalType":"enum IWatchersRing.WatchersRingType[]","name":"ringTypes","type":"uint8[]"},{"internalType":"address[]","name":"recipients","type":"address[]"}],"name":"ownerMint","outputs":[],"stateMutability":"nonpayable","type":"function"},{"inputs":[],"name":"publicMintStartTime","outputs":[{"internalType":"uint256","name":"","type":"uint256"}],"stateMutability":"view","type":"function"},{"inputs":[],"name":"publicStarted","outputs":[{"internalType":"bool","name":"","type":"bool"}],"stateMutability":"view","type":"function"},{"inputs":[],"name":"renounceOwnership","outputs":[],"stateMutability":"nonpayable","type":"function"},{"inputs":[],"name":"ringGlobalOffset","outputs":[{"internalType":"uint256","name":"","type":"uint256"}],"stateMutability":"view","type":"function"},{"inputs":[],"name":"ringPrice","outputs":[{"internalType":"uint256","name":"","type":"uint256"}],"stateMutability":"view","type":"function"},{"inputs":[{"internalType":"uint256","name":"","type":"uint256"}],"name":"ringTypeLocalOffset","outputs":[{"internalType":"uint256","name":"","type":"uint256"}],"stateMutability":"view","type":"function"},{"inputs":[{"internalType":"uint256","name":"","type":"uint256"}],"name":"ringsMinted","outputs":[{"internalType":"uint256","name":"","type":"uint256"}],"stateMutability":"view","type":"function"},{"inputs":[{"internalType":"bytes32","name":"newMerkleRoot","type":"bytes32"}],"name":"setClaimlistMerkleRoot","outputs":[],"stateMutability":"nonpayable","type":"function"},{"inputs":[{"internalType":"uint256","name":"_newClaimsStartTime","type":"uint256"}],"name":"setClaimsStartTime","outputs":[],"stateMutability":"nonpayable","type":"function"},{"inputs":[{"internalType":"uint256","name":"_newGlobalIdOffset","type":"uint256"}],"name":"setGlobalIdOffset","outputs":[],"stateMutability":"nonpayable","type":"function"},{"inputs":[{"internalType":"uint256[]","name":"_newRingTypeLocalOffset","type":"uint256[]"}],"name":"setLocalIdOffsets","outputs":[],"stateMutability":"nonpayable","type":"function"},{"inputs":[{"internalType":"bytes32","name":"newMerkleRoot","type":"bytes32"}],"name":"setMintlistMerkleRoot1","outputs":[],"stateMutability":"nonpayable","type":"function"},{"inputs":[{"internalType":"bytes32","name":"newMerkleRoot","type":"bytes32"}],"name":"setMintlistMerkleRoot2","outputs":[],"stateMutability":"nonpayable","type":"function"},{"inputs":[{"internalType":"uint256","name":"_newAllowlistMintStartTime","type":"uint256"}],"name":"setMintlistStartTime","outputs":[],"stateMutability":"nonpayable","type":"function"},{"inputs":[{"internalType":"uint256","name":"_newPrice","type":"uint256"}],"name":"setPrice","outputs":[],"stateMutability":"nonpayable","type":"function"},{"inputs":[{"internalType":"uint256[]","name":"_newProbabilities","type":"uint256[]"}],"name":"setProbabilities","outputs":[],"stateMutability":"nonpayable","type":"function"},{"inputs":[{"internalType":"uint256","name":"_newPublicMintStartTime","type":"uint256"}],"name":"setPublicMintStartTime","outputs":[],"stateMutability":"nonpayable","type":"function"},{"inputs":[{"internalType":"uint256","name":"_newRingsAvailable","type":"uint256"}],"name":"setRingsAvailable","outputs":[],"stateMutability":"nonpayable","type":"function"},{"inputs":[{"internalType":"address payable","name":"_newVaultAddress","type":"address"}],"name":"setVaultAddress","outputs":[],"stateMutability":"nonpayable","type":"function"},{"inputs":[{"internalType":"contract IWatchersRing","name":"_newWatchersRingAddress","type":"address"}],"name":"setWatchersRing","outputs":[],"stateMutability":"nonpayable","type":"function"},{"inputs":[{"internalType":"address","name":"newOwner","type":"address"}],"name":"transferOwnership","outputs":[],"stateMutability":"nonpayable","type":"function"},{"inputs":[],"name":"vault","outputs":[{"internalType":"address payable","name":"","type":"address"}],"stateMutability":"view","type":"function"},{"inputs":[],"name":"watchersRing","outputs":[{"internalType":"contract IWatchersRing","name":"","type":"address"}],"stateMutability":"view","type":"function"},{"inputs":[{"internalType":"uint256","name":"_amount","type":"uint256"}],"name":"withdraw","outputs":[],"stateMutability":"nonpayable","type":"function"},{"inputs":[],"name":"withdrawAll","outputs":[],"stateMutability":"nonpayable","type":"function"}],"evm":{"bytecode":{"linkReferences":{},"object":"60806040526102bc6004556000600555604051806101000160405280600e60ff168152602001600e60ff168152602001600e60ff168152602001600e60ff168152602001600e60ff168152602001600e60ff168152602001600e60ff168152602001600260ff1681525060069060086200007b9291906200042f565b50604051806101000160405280600160ff168152602001600160ff168152602001600160ff168152602001600160ff168152602001600160ff168152602001600160ff168152602001600160ff168152602001600160ff168152506007906008620000e89291906200042f565b5060016008557fffffffffffffffffffffffffffffffffffffffffffffffffffffffffffffffff6009557fffffffffffffffffffffffffffffffffffffffffffffffffffffffffffffffff600a557fffffffffffffffffffffffffffffffffffffffffffffffffffffffffffffffff600b557fffffffffffffffffffffffffffffffffffffffffffffffffffffffffffffffff600c553480156200018b57600080fd5b5060405162004306380380620043068339818101604052810190620001b1919062000523565b620001d1620001c56200020160201b60201c565b6200020960201b60201c565b60018081905550620001e981620002cd60201b60201c565b620001fa336200032160201b60201c565b50620005d8565b600033905090565b60008060009054906101000a900473ffffffffffffffffffffffffffffffffffffffff169050816000806101000a81548173ffffffffffffffffffffffffffffffffffffffff021916908373ffffffffffffffffffffffffffffffffffffffff1602179055508173ffffffffffffffffffffffffffffffffffffffff168173ffffffffffffffffffffffffffffffffffffffff167f8be0079c531659141344cd1fd0a4f28419497f9722a3daafe3b4186f6b6457e060405160405180910390a35050565b620002dd6200037560201b60201c565b80600260006101000a81548173ffffffffffffffffffffffffffffffffffffffff021916908373ffffffffffffffffffffffffffffffffffffffff16021790555050565b620003316200037560201b60201c565b80600360006101000a81548173ffffffffffffffffffffffffffffffffffffffff021916908373ffffffffffffffffffffffffffffffffffffffff16021790555050565b620003856200020160201b60201c565b73ffffffffffffffffffffffffffffffffffffffff16620003ab6200040660201b60201c565b73ffffffffffffffffffffffffffffffffffffffff161462000404576040517f08c379a0000000000000000000000000000000000000000000000000000000008152600401620003fb90620005b6565b60405180910390fd5b565b60008060009054906101000a900473ffffffffffffffffffffffffffffffffffffffff16905090565b82805482825590600052602060002090810192821562000473579160200282015b8281111562000472578251829060ff1690559160200191906001019062000450565b5b50905062000482919062000486565b5090565b5b80821115620004a157600081600090555060010162000487565b5090565b600080fd5b600073ffffffffffffffffffffffffffffffffffffffff82169050919050565b6000620004d782620004aa565b9050919050565b6000620004eb82620004ca565b9050919050565b620004fd81620004de565b81146200050957600080fd5b50565b6000815190506200051d81620004f2565b92915050565b6000602082840312156200053c576200053b620004a5565b5b60006200054c848285016200050c565b91505092915050565b600082825260208201905092915050565b7f4f776e61626c653a2063616c6c6572206973206e6f7420746865206f776e6572600082015250565b60006200059e60208362000555565b9150620005ab8262000566565b602082019050919050565b60006020820190508181036000830152620005d1816200058f565b9050919050565b613d1e80620005e86000396000f3fe6080604052600436106102935760003560e01c80638c6d8ef61161015a578063ca6c261d116100c1578063df477ead1161007a578063df477ead14610979578063e49618c1146109a4578063f0c821de146109e1578063f2fde38b14610a0c578063f4cde4c014610a35578063fbfa77cf14610a6057610293565b8063ca6c261d1461086d578063cc644fd2146108aa578063cef58283146108d3578063d3cf00a3146108fc578063d6117b3e14610927578063dc37dc641461095057610293565b80639727151a116101135780639727151a146107735780639f0664b51461079c578063a0e52f89146107c5578063a637f973146107f0578063b9a43f2e14610819578063c2774dac1461084457610293565b80638c6d8ef6146106615780638d56a17b1461068c5780638da5cb5b146106b757806391b7f5ed146106e257806393cb41471461070b57806396c9f88b1461073657610293565b8063411d13f7116101fe57806360a87d75116101b757806360a87d75146105885780636138f236146105a45780636e1a1a60146105e1578063715018a61461060a578063853828b61461062157806385535cc51461063857610293565b8063411d13f71461049957806346bf289f146104c257806347978479146104ed5780634ed1eb24146105095780635242a493146105345780635fcd80a61461055f57610293565b80632560e376116102505780632560e37614610389578063260c0886146103b45780632701b325146103dd5780632ce82a711461041a5780632e1a7d4d146104455780633e97414f1461046e57610293565b8063062f7b8c146102985780631249c58b146102c3578063158ae298146102cd5780631af3ba811461030a5780631c7f4a0214610335578063205ed38214610360575b600080fd5b3480156102a457600080fd5b506102ad610a8b565b6040516102ba91906129fd565b60405180910390f35b6102cb610ae3565b005b3480156102d957600080fd5b506102f460048036038101906102ef9190612a55565b610afd565b6040516103019190612a91565b60405180910390f35b34801561031657600080fd5b5061031f610b15565b60405161032c9190612a91565b60405180910390f35b34801561034157600080fd5b5061034a610b1b565b6040516103579190612ac5565b60405180910390f35b34801561036c57600080fd5b5061038760048036038101906103829190612a55565b610b21565b005b34801561039557600080fd5b5061039e610b72565b6040516103ab9190612ac5565b60405180910390f35b3480156103c057600080fd5b506103db60048036038101906103d69190612a55565b610b78565b005b3480156103e957600080fd5b5061040460048036038101906103ff9190612a55565b610b8a565b6040516104119190612a91565b60405180910390f35b34801561042657600080fd5b5061042f610b97565b60405161043c91906129fd565b60405180910390f35b34801561045157600080fd5b5061046c60048036038101906104679190612a55565b610d95565b005b34801561047a57600080fd5b50610483610e6f565b6040516104909190612afb565b60405180910390f35b3480156104a557600080fd5b506104c060048036038101906104bb9190612b42565b610e7c565b005b3480156104ce57600080fd5b506104d7610e8e565b6040516104e49190612a91565b60405180910390f35b61050760048036038101906105029190612bd4565b610f87565b005b34801561051557600080fd5b5061051e6111ed565b60405161052b9190612ac5565b60405180910390f35b34801561054057600080fd5b506105496111f3565b6040516105569190612a91565b60405180910390f35b34801561056b57600080fd5b5061058660048036038101906105819190612a55565b6111f9565b005b6105a2600480360381019061059d9190612bd4565b61120b565b005b3480156105b057600080fd5b506105cb60048036038101906105c69190612c92565b61141c565b6040516105d89190612a91565b60405180910390f35b3480156105ed57600080fd5b5061060860048036038101906106039190612a55565b611434565b005b34801561061657600080fd5b5061061f611446565b005b34801561062d57600080fd5b5061063661145a565b005b34801561064457600080fd5b5061065f600480360381019061065a9190612cfd565b611533565b005b34801561066d57600080fd5b5061067661157f565b6040516106839190612afb565b60405180910390f35b34801561069857600080fd5b506106a161158c565b6040516106ae9190612a91565b60405180910390f35b3480156106c357600080fd5b506106cc611592565b6040516106d99190612d39565b60405180910390f35b3480156106ee57600080fd5b5061070960048036038101906107049190612a55565b6115bb565b005b34801561071757600080fd5b5061072061160c565b60405161072d9190612afb565b60405180910390f35b34801561074257600080fd5b5061075d60048036038101906107589190612a55565b611619565b60405161076a9190612a91565b60405180910390f35b34801561077f57600080fd5b5061079a60048036038101906107959190612d92565b61163d565b005b3480156107a857600080fd5b506107c360048036038101906107be9190612e7e565b61172e565b005b3480156107d157600080fd5b506107da611a61565b6040516107e79190612a91565b60405180910390f35b3480156107fc57600080fd5b5061081760048036038101906108129190612a55565b611a6b565b005b34801561082557600080fd5b5061082e611abc565b60405161083b9190612a91565b60405180910390f35b34801561085057600080fd5b5061086b60048036038101906108669190612b42565b611bc5565b005b34801561087957600080fd5b50610894600480360381019061088f9190612c92565b611bd7565b6040516108a19190612afb565b60405180910390f35b3480156108b657600080fd5b506108d160048036038101906108cc9190612f55565b611c33565b005b3480156108df57600080fd5b506108fa60048036038101906108f59190612b42565b611cde565b005b34801561090857600080fd5b50610911611cf0565b60405161091e9190612a91565b60405180910390f35b34801561093357600080fd5b5061094e60048036038101906109499190612f55565b611cf6565b005b34801561095c57600080fd5b5061097760048036038101906109729190612fe0565b611e34565b005b34801561098557600080fd5b5061098e611e80565b60405161099b9190612a91565b60405180910390f35b3480156109b057600080fd5b506109cb60048036038101906109c69190612c92565b611e8a565b6040516109d89190612a91565b60405180910390f35b3480156109ed57600080fd5b506109f6611ea2565b604051610a03919061306c565b60405180910390f35b348015610a1857600080fd5b50610a336004803603810190610a2e9190612c92565b611ec8565b005b348015610a4157600080fd5b50610a4a611f4b565b604051610a579190612a91565b60405180910390f35b348015610a6c57600080fd5b50610a75611f51565b604051610a829190613096565b60405180910390f35b60606006805480602002602001604051908101604052809291908181526020018280548015610ad957602002820191906000526020600020905b815481526020019060010190808311610ac5575b5050505050905090565b610aeb611f77565b610af3611fc6565b610afb61201e565b565b60106020528060005260406000206000915090505481565b60095481565b600e5481565b610b29612027565b610b3161160c565b15610b68576040517ff2a84b6300000000000000000000000000000000000000000000000000000000815260040160405180910390fd5b8060048190555050565b600f5481565b610b80612027565b80600c8190555050565b600060ff82169050919050565b60606000600867ffffffffffffffff811115610bb657610bb56130b1565b5b604051908082528060200260200182016040528015610be45781602001602082028036833780820191505090505b509050601060008081526020019081526020016000205481600081518110610c0f57610c0e6130e0565b5b60200260200101818152505060106000600181526020019081526020016000205481600181518110610c4457610c436130e0565b5b60200260200101818152505060106000600281526020019081526020016000205481600281518110610c7957610c786130e0565b5b60200260200101818152505060106000600381526020019081526020016000205481600381518110610cae57610cad6130e0565b5b60200260200101818152505060106000600481526020019081526020016000205481600481518110610ce357610ce26130e0565b5b60200260200101818152505060106000600581526020019081526020016000205481600581518110610d1857610d176130e0565b5b60200260200101818152505060106000600681526020019081526020016000205481600681518110610d4d57610d4c6130e0565b5b60200260200101818152505060106000600781526020019081526020016000205481600781518110610d8257610d816130e0565b5b6020026020010181815250508091505090565b610d9d612027565b6000600360009054906101000a900473ffffffffffffffffffffffffffffffffffffffff1673ffffffffffffffffffffffffffffffffffffffff1682604051610de590613140565b60006040518083038185875af1925050503d8060008114610e22576040519150601f19603f3d011682016040523d82523d6000602084013e610e27565b606091505b5050905080610e6b576040517f08c379a0000000000000000000000000000000000000000000000000000000008152600401610e62906131b2565b60405180910390fd5b5050565b6000600c54421015905090565b610e84612027565b80600f8190555050565b6000806010600060078152602001908152602001600020546010600060068152602001908152602001600020546010600060058152602001908152602001600020546010600060048152602001908152602001600020546010600060038152602001908152602001600020546010600060028152602001908152602001600020546010600060018152602001908152602001600020546010600080815260200190815260200160002054610f429190613201565b610f4c9190613201565b610f569190613201565b610f609190613201565b610f6a9190613201565b610f749190613201565b610f7e9190613201565b90508091505090565b610f8f611f77565b610f9761160c565b610fdc57600b54426040517f66803fc1000000000000000000000000000000000000000000000000000000008152600401610fd3929190613235565b60405180910390fd5b60003384604051602001610ff192919061331e565b604051602081830303815290604052805190602001209050611057838380806020026020016040519081016040528093929190818152602001838360200280828437600081840152601f19601f82011690508083019250505050505050600d54836120a5565b806110ac57506110ab838380806020026020016040519081016040528093929190818152602001838360200280828437600081840152601f19601f82011690508083019250505050505050600e54836120a5565b5b6110eb576040517f08c379a00000000000000000000000000000000000000000000000000000000081526004016110e2906133a1565b60405180910390fd5b6000601160003373ffffffffffffffffffffffffffffffffffffffff1673ffffffffffffffffffffffffffffffffffffffff1681526020019081526020016000205490508460018261113d9190613201565b111561117e576040517f08c379a00000000000000000000000000000000000000000000000000000000081526004016111759061340d565b60405180910390fd5b6001601160003373ffffffffffffffffffffffffffffffffffffffff1673ffffffffffffffffffffffffffffffffffffffff16815260200190815260200160002060008282546111ce9190613201565b925050819055506111de336120bc565b50506111e861201e565b505050565b600d5481565b60085481565b611201612027565b80600a8190555050565b611213611f77565b61121b610e6f565b61126057600c54426040517f66803fc1000000000000000000000000000000000000000000000000000000008152600401611257929190613235565b60405180910390fd5b6000338460405160200161127592919061331e565b6040516020818303038152906040528051906020012090506112db838380806020026020016040519081016040528093929190818152602001838360200280828437600081840152601f19601f82011690508083019250505050505050600f54836120a5565b61131a576040517f08c379a0000000000000000000000000000000000000000000000000000000008152600401611311906133a1565b60405180910390fd5b6000601260003373ffffffffffffffffffffffffffffffffffffffff1673ffffffffffffffffffffffffffffffffffffffff1681526020019081526020016000205490508460018261136c9190613201565b11156113ad576040517f08c379a00000000000000000000000000000000000000000000000000000000081526004016113a490613479565b60405180910390fd5b6001601260003373ffffffffffffffffffffffffffffffffffffffff1673ffffffffffffffffffffffffffffffffffffffff16815260200190815260200160002060008282546113fd9190613201565b9250508190555061140d33612148565b505061141761201e565b505050565b60126020528060005260406000206000915090505481565b61143c612027565b80600b8190555050565b61144e612027565b6114586000612458565b565b611462612027565b6000600360009054906101000a900473ffffffffffffffffffffffffffffffffffffffff1673ffffffffffffffffffffffffffffffffffffffff16476040516114aa90613140565b60006040518083038185875af1925050503d80600081146114e7576040519150601f19603f3d011682016040523d82523d6000602084013e6114ec565b606091505b5050905080611530576040517f08c379a0000000000000000000000000000000000000000000000000000000008152600401611527906134e5565b60405180910390fd5b50565b61153b612027565b80600360006101000a81548173ffffffffffffffffffffffffffffffffffffffff021916908373ffffffffffffffffffffffffffffffffffffffff16021790555050565b6000600a54421015905090565b600c5481565b60008060009054906101000a900473ffffffffffffffffffffffffffffffffffffffff16905090565b6115c3612027565b6115cb61160c565b15611602576040517ff2a84b6300000000000000000000000000000000000000000000000000000000815260040160405180910390fd5b8060098190555050565b6000600b54421015905090565b6007818154811061162957600080fd5b906000526020600020016000915090505481565b611645612027565b600073ffffffffffffffffffffffffffffffffffffffff163373ffffffffffffffffffffffffffffffffffffffff16036116ab576040517f48ac165200000000000000000000000000000000000000000000000000000000815260040160405180910390fd5b8173ffffffffffffffffffffffffffffffffffffffff1663a9059cbb33836040518363ffffffff1660e01b81526004016116e6929190613505565b6020604051808303816000875af1158015611705573d6000803e3d6000fd5b505050506040513d601f19601f82011682018060405250810190611729919061355a565b505050565b611736612027565b81819050848490501461177e576040517f08c379a0000000000000000000000000000000000000000000000000000000008152600401611775906135f9565b60405180910390fd5b60005b82829050811015611a5a57600115153073ffffffffffffffffffffffffffffffffffffffff1663ca6c261d8585858181106117bf576117be6130e0565b5b90506020020160208101906117d49190612c92565b6040518263ffffffff1660e01b81526004016117f09190612d39565b602060405180830381865afa15801561180d573d6000803e3d6000fd5b505050506040513d601f19601f82011682018060405250810190611831919061355a565b15150361186a576040517f364eb9bf00000000000000000000000000000000000000000000000000000000815260040160405180910390fd5b600061189c868684818110611882576118816130e0565b5b9050602002016020810190611897919061363e565b61251c565b9050601060008787858181106118b5576118b46130e0565b5b90506020020160208101906118ca919061363e565b60078111156118dc576118db61366b565b5b8152602001908152602001600020600081546118f79061369a565b91905081905550600260009054906101000a900473ffffffffffffffffffffffffffffffffffffffff1673ffffffffffffffffffffffffffffffffffffffff166386ebf01085858581811061194f5761194e6130e0565b5b90506020020160208101906119649190612c92565b83898987818110611978576119776130e0565b5b905060200201602081019061198d919061363e565b6040518463ffffffff1660e01b81526004016119ab9392919061372a565b600060405180830381600087803b1580156119c557600080fd5b505af11580156119d9573d6000803e3d6000fd5b5050505080601360008686868181106119f5576119f46130e0565b5b9050602002016020810190611a0a9190612c92565b73ffffffffffffffffffffffffffffffffffffffff1673ffffffffffffffffffffffffffffffffffffffff168152602001908152602001600020819055505080611a539061369a565b9050611781565b5050505050565b6000600954905090565b611a73612027565b611a7b61160c565b15611ab2576040517ff2a84b6300000000000000000000000000000000000000000000000000000000815260040160405180910390fd5b8060088190555050565b60008060045490506010600060078152602001908152602001600020546010600060068152602001908152602001600020546010600060058152602001908152602001600020546010600060048152602001908152602001600020546010600060038152602001908152602001600020546010600060028152602001908152602001600020546010600060018152602001908152602001600020546010600080815260200190815260200160002054611b759190613201565b611b7f9190613201565b611b899190613201565b611b939190613201565b611b9d9190613201565b611ba79190613201565b611bb19190613201565b81611bbc9190613761565b90508091505090565b611bcd612027565b80600e8190555050565b600080600090506000601360008573ffffffffffffffffffffffffffffffffffffffff1673ffffffffffffffffffffffffffffffffffffffff1681526020019081526020016000205414611c2a57600190505b80915050919050565b611c3b612027565b60088282905014611c89578181905060086040517f485d33a2000000000000000000000000000000000000000000000000000000008152600401611c809291906137d0565b60405180910390fd5b611c9161160c565b15611cc8576040517ff2a84b6300000000000000000000000000000000000000000000000000000000815260040160405180910390fd5b818160079190611cd99291906128cb565b505050565b611ce6612027565b80600d8190555050565b600a5481565b611cfe612027565b6000805b83839050811015611d4757838382818110611d2057611d1f6130e0565b5b9050602002013582611d329190613201565b91508080611d3f9061369a565b915050611d02565b5060648114611d90578060646040517f485d33a2000000000000000000000000000000000000000000000000000000008152600401611d87929190613834565b60405180910390fd5b60088383905014611dde578282905060086040517f485d33a2000000000000000000000000000000000000000000000000000000008152600401611dd59291906137d0565b60405180910390fd5b611de661160c565b15611e1d576040517ff2a84b6300000000000000000000000000000000000000000000000000000000815260040160405180910390fd5b828260069190611e2e9291906128cb565b50505050565b611e3c612027565b80600260006101000a81548173ffffffffffffffffffffffffffffffffffffffff021916908373ffffffffffffffffffffffffffffffffffffffff16021790555050565b6000600454905090565b60116020528060005260406000206000915090505481565b600260009054906101000a900473ffffffffffffffffffffffffffffffffffffffff1681565b611ed0612027565b600073ffffffffffffffffffffffffffffffffffffffff168173ffffffffffffffffffffffffffffffffffffffff1603611f3f576040517f08c379a0000000000000000000000000000000000000000000000000000000008152600401611f36906138cf565b60405180910390fd5b611f4881612458565b50565b600b5481565b600360009054906101000a900473ffffffffffffffffffffffffffffffffffffffff1681565b600260015403611fbc576040517f08c379a0000000000000000000000000000000000000000000000000000000008152600401611fb39061393b565b60405180910390fd5b6002600181905550565b611fce61157f565b61201357600a54426040517f66803fc100000000000000000000000000000000000000000000000000000000815260040161200a929190613235565b60405180910390fd5b61201c336120bc565b565b60018081905550565b61202f612757565b73ffffffffffffffffffffffffffffffffffffffff1661204d611592565b73ffffffffffffffffffffffffffffffffffffffff16146120a3576040517f08c379a000000000000000000000000000000000000000000000000000000000815260040161209a906139a7565b60405180910390fd5b565b6000826120b2858461275f565b1490509392505050565b6000600954116120f8576040517fc5fadba600000000000000000000000000000000000000000000000000000000815260040160405180910390fd5b600954341461213c576040517f08c379a000000000000000000000000000000000000000000000000000000000815260040161213390613a39565b60405180910390fd5b61214581612148565b50565b3073ffffffffffffffffffffffffffffffffffffffff1663df477ead6040518163ffffffff1660e01b8152600401602060405180830381865afa158015612193573d6000803e3d6000fd5b505050506040513d601f19601f820116820180604052508101906121b79190613a6e565b3073ffffffffffffffffffffffffffffffffffffffff166346bf289f6040518163ffffffff1660e01b8152600401602060405180830381865afa158015612202573d6000803e3d6000fd5b505050506040513d601f19601f820116820180604052508101906122269190613a6e565b10612266576040517f08c379a000000000000000000000000000000000000000000000000000000000815260040161225d90613ae7565b60405180910390fd5b600015153073ffffffffffffffffffffffffffffffffffffffff1663ca6c261d836040518263ffffffff1660e01b81526004016122a39190612d39565b602060405180830381865afa1580156122c0573d6000803e3d6000fd5b505050506040513d601f19601f820116820180604052508101906122e4919061355a565b151514612326576040517f08c379a000000000000000000000000000000000000000000000000000000000815260040161231d90613b53565b60405180910390fd5b60006123306127b5565b905060008160078111156123475761234661366b565b5b905060006123548261251c565b905060106000848152602001908152602001600020600081546123769061369a565b91905081905550600260009054906101000a900473ffffffffffffffffffffffffffffffffffffffff1673ffffffffffffffffffffffffffffffffffffffff166386ebf0108583856040518463ffffffff1660e01b81526004016123dc9392919061372a565b600060405180830381600087803b1580156123f657600080fd5b505af115801561240a573d6000803e3d6000fd5b5050505080601360008673ffffffffffffffffffffffffffffffffffffffff1673ffffffffffffffffffffffffffffffffffffffff1681526020019081526020016000208190555050505050565b60008060009054906101000a900473ffffffffffffffffffffffffffffffffffffffff169050816000806101000a81548173ffffffffffffffffffffffffffffffffffffffff021916908373ffffffffffffffffffffffffffffffffffffffff1602179055508173ffffffffffffffffffffffffffffffffffffffff168173ffffffffffffffffffffffffffffffffffffffff167f8be0079c531659141344cd1fd0a4f28419497f9722a3daafe3b4186f6b6457e060405160405180910390a35050565b60008060085460106000600781526020019081526020016000205460106000600681526020019081526020016000205460106000600581526020019081526020016000205460106000600481526020019081526020016000205460106000600381526020019081526020016000205460106000600281526020019081526020016000205460106000600181526020019081526020016000205460106000808152602001908152602001600020546125d39190613201565b6125dd9190613201565b6125e79190613201565b6125f19190613201565b6125fb9190613201565b6126059190613201565b61260f9190613201565b6126199190613201565b9050600060078460078111156126325761263161366b565b5b81548110612643576126426130e0565b5b9060005260206000200154601060008660078111156126655761266461366b565b5b81526020019081526020016000205461267e9190613201565b905063ffffffff8111156126c7576040517f08c379a00000000000000000000000000000000000000000000000000000000081526004016126be90613bbf565b60405180910390fd5b60ff8460078111156126dc576126db61366b565b5b111561271d576040517f08c379a000000000000000000000000000000000000000000000000000000000815260040161271490613c2b565b60405180910390fd5b8360078111156127305761272f61366b565b5b600882901b602884901b6127449190613201565b61274e9190613201565b92505050919050565b600033905090565b60008082905060005b84518110156127aa5761279582868381518110612788576127876130e0565b5b6020026020010151612889565b915080806127a29061369a565b915050612768565b508091505092915050565b60008060009050600560008154809291906127cf9061369a565b919050555060006001606442336005546040516020016127f193929190613c4b565b6040516020818303038152906040528051906020012060001c6128149190613cb7565b61281e9190613201565b90506000805b60068054905081101561287f5760068181548110612845576128446130e0565b5b90600052602060002001548261285b9190613201565b915081831161286c5780935061287f565b80806128779061369a565b915050612824565b5082935050505090565b60008183106128a15761289c82846128b4565b6128ac565b6128ab83836128b4565b5b905092915050565b600082600052816020526040600020905092915050565b828054828255906000526020600020908101928215612907579160200282015b828111156129065782358255916020019190600101906128eb565b5b5090506129149190612918565b5090565b5b80821115612931576000816000905550600101612919565b5090565b600081519050919050565b600082825260208201905092915050565b6000819050602082019050919050565b6000819050919050565b61297481612961565b82525050565b6000612986838361296b565b60208301905092915050565b6000602082019050919050565b60006129aa82612935565b6129b48185612940565b93506129bf83612951565b8060005b838110156129f05781516129d7888261297a565b97506129e283612992565b9250506001810190506129c3565b5085935050505092915050565b60006020820190508181036000830152612a17818461299f565b905092915050565b600080fd5b600080fd5b612a3281612961565b8114612a3d57600080fd5b50565b600081359050612a4f81612a29565b92915050565b600060208284031215612a6b57612a6a612a1f565b5b6000612a7984828501612a40565b91505092915050565b612a8b81612961565b82525050565b6000602082019050612aa66000830184612a82565b92915050565b6000819050919050565b612abf81612aac565b82525050565b6000602082019050612ada6000830184612ab6565b92915050565b60008115159050919050565b612af581612ae0565b82525050565b6000602082019050612b106000830184612aec565b92915050565b612b1f81612aac565b8114612b2a57600080fd5b50565b600081359050612b3c81612b16565b92915050565b600060208284031215612b5857612b57612a1f565b5b6000612b6684828501612b2d565b91505092915050565b600080fd5b600080fd5b600080fd5b60008083601f840112612b9457612b93612b6f565b5b8235905067ffffffffffffffff811115612bb157612bb0612b74565b5b602083019150836020820283011115612bcd57612bcc612b79565b5b9250929050565b600080600060408486031215612bed57612bec612a1f565b5b6000612bfb86828701612a40565b935050602084013567ffffffffffffffff811115612c1c57612c1b612a24565b5b612c2886828701612b7e565b92509250509250925092565b600073ffffffffffffffffffffffffffffffffffffffff82169050919050565b6000612c5f82612c34565b9050919050565b612c6f81612c54565b8114612c7a57600080fd5b50565b600081359050612c8c81612c66565b92915050565b600060208284031215612ca857612ca7612a1f565b5b6000612cb684828501612c7d565b91505092915050565b6000612cca82612c34565b9050919050565b612cda81612cbf565b8114612ce557600080fd5b50565b600081359050612cf781612cd1565b92915050565b600060208284031215612d1357612d12612a1f565b5b6000612d2184828501612ce8565b91505092915050565b612d3381612c54565b82525050565b6000602082019050612d4e6000830184612d2a565b92915050565b6000612d5f82612c54565b9050919050565b612d6f81612d54565b8114612d7a57600080fd5b50565b600081359050612d8c81612d66565b92915050565b60008060408385031215612da957612da8612a1f565b5b6000612db785828601612d7d565b9250506020612dc885828601612a40565b9150509250929050565b60008083601f840112612de857612de7612b6f565b5b8235905067ffffffffffffffff811115612e0557612e04612b74565b5b602083019150836020820283011115612e2157612e20612b79565b5b9250929050565b60008083601f840112612e3e57612e3d612b6f565b5b8235905067ffffffffffffffff811115612e5b57612e5a612b74565b5b602083019150836020820283011115612e7757612e76612b79565b5b9250929050565b60008060008060408587031215612e9857612e97612a1f565b5b600085013567ffffffffffffffff811115612eb657612eb5612a24565b5b612ec287828801612dd2565b9450945050602085013567ffffffffffffffff811115612ee557612ee4612a24565b5b612ef187828801612e28565b925092505092959194509250565b60008083601f840112612f1557612f14612b6f565b5b8235905067ffffffffffffffff811115612f3257612f31612b74565b5b602083019150836020820283011115612f4e57612f4d612b79565b5b9250929050565b60008060208385031215612f6c57612f6b612a1f565b5b600083013567ffffffffffffffff811115612f8a57612f89612a24565b5b612f9685828601612eff565b92509250509250929050565b6000612fad82612c54565b9050919050565b612fbd81612fa2565b8114612fc857600080fd5b50565b600081359050612fda81612fb4565b92915050565b600060208284031215612ff657612ff5612a1f565b5b600061300484828501612fcb565b91505092915050565b6000819050919050565b600061303261302d61302884612c34565b61300d565b612c34565b9050919050565b600061304482613017565b9050919050565b600061305682613039565b9050919050565b6130668161304b565b82525050565b6000602082019050613081600083018461305d565b92915050565b61309081612cbf565b82525050565b60006020820190506130ab6000830184613087565b92915050565b7f4e487b7100000000000000000000000000000000000000000000000000000000600052604160045260246000fd5b7f4e487b7100000000000000000000000000000000000000000000000000000000600052603260045260246000fd5b600081905092915050565b50565b600061312a60008361310f565b91506131358261311a565b600082019050919050565b600061314b8261311d565b9150819050919050565b600082825260208201905092915050565b7f776974686472617720776173206e6f742073756363657366756c6c0000000000600082015250565b600061319c601b83613155565b91506131a782613166565b602082019050919050565b600060208201905081810360008301526131cb8161318f565b9050919050565b7f4e487b7100000000000000000000000000000000000000000000000000000000600052601160045260246000fd5b600061320c82612961565b915061321783612961565b925082820190508082111561322f5761322e6131d2565b5b92915050565b600060408201905061324a6000830185612a82565b6132576020830184612a82565b9392505050565b60008160601b9050919050565b60006132768261325e565b9050919050565b60006132888261326b565b9050919050565b6132a061329b82612c54565b61327d565b82525050565b600081905092915050565b7f3a00000000000000000000000000000000000000000000000000000000000000600082015250565b60006132e76001836132a6565b91506132f2826132b1565b600182019050919050565b6000819050919050565b61331861331382612961565b6132fd565b82525050565b600061332a828561328f565b601482019150613339826132da565b91506133458284613307565b6020820191508190509392505050565b7f496e76616c69642070726f6f662e000000000000000000000000000000000000600082015250565b600061338b600e83613155565b915061339682613355565b602082019050919050565b600060208201905081810360008301526133ba8161337e565b9050919050565b7f4d696e74696e67206d6f7265207468616e20616c6c6f7765642e000000000000600082015250565b60006133f7601a83613155565b9150613402826133c1565b602082019050919050565b60006020820190508181036000830152613426816133ea565b9050919050565b7f436c61696d696e67206d6f7265207468616e20616c6c6f7765642e0000000000600082015250565b6000613463601b83613155565b915061346e8261342d565b602082019050919050565b6000602082019050818103600083015261349281613456565b9050919050565b7f776974686472617720616c6c20776173206e6f742073756363657366756c6c00600082015250565b60006134cf601f83613155565b91506134da82613499565b602082019050919050565b600060208201905081810360008301526134fe816134c2565b9050919050565b600060408201905061351a6000830185612d2a565b6135276020830184612a82565b9392505050565b61353781612ae0565b811461354257600080fd5b50565b6000815190506135548161352e565b92915050565b6000602082840312156135705761356f612a1f565b5b600061357e84828501613545565b91505092915050565b7f4172726179732073686f756c642068617665207468652073616d652073697a6560008201527f2e00000000000000000000000000000000000000000000000000000000000000602082015250565b60006135e3602183613155565b91506135ee82613587565b604082019050919050565b60006020820190508181036000830152613612816135d6565b9050919050565b6008811061362657600080fd5b50565b60008135905061363881613619565b92915050565b60006020828403121561365457613653612a1f565b5b600061366284828501613629565b91505092915050565b7f4e487b7100000000000000000000000000000000000000000000000000000000600052602160045260246000fd5b60006136a582612961565b91507fffffffffffffffffffffffffffffffffffffffffffffffffffffffffffffffff82036136d7576136d66131d2565b5b600182019050919050565b600881106136f3576136f261366b565b5b50565b6000819050613704826136e2565b919050565b6000613714826136f6565b9050919050565b61372481613709565b82525050565b600060608201905061373f6000830186612d2a565b61374c6020830185612a82565b613759604083018461371b565b949350505050565b600061376c82612961565b915061377783612961565b925082820390508181111561378f5761378e6131d2565b5b92915050565b6000819050919050565b60006137ba6137b56137b084613795565b61300d565b612961565b9050919050565b6137ca8161379f565b82525050565b60006040820190506137e56000830185612a82565b6137f260208301846137c1565b9392505050565b6000819050919050565b600061381e613819613814846137f9565b61300d565b612961565b9050919050565b61382e81613803565b82525050565b60006040820190506138496000830185612a82565b6138566020830184613825565b9392505050565b7f4f776e61626c653a206e6577206f776e657220697320746865207a65726f206160008201527f6464726573730000000000000000000000000000000000000000000000000000602082015250565b60006138b9602683613155565b91506138c48261385d565b604082019050919050565b600060208201905081810360008301526138e8816138ac565b9050919050565b7f5265656e7472616e637947756172643a207265656e7472616e742063616c6c00600082015250565b6000613925601f83613155565b9150613930826138ef565b602082019050919050565b6000602082019050818103600083015261395481613918565b9050919050565b7f4f776e61626c653a2063616c6c6572206973206e6f7420746865206f776e6572600082015250565b6000613991602083613155565b915061399c8261395b565b602082019050919050565b600060208201905081810360008301526139c081613984565b9050919050565b7f45746865722076616c75652073656e74206973206e6f7420616363757261746560008201527f2e00000000000000000000000000000000000000000000000000000000000000602082015250565b6000613a23602183613155565b9150613a2e826139c7565b604082019050919050565b60006020820190508181036000830152613a5281613a16565b9050919050565b600081519050613a6881612a29565b92915050565b600060208284031215613a8457613a83612a1f565b5b6000613a9284828501613a59565b91505092915050565b7f547279696e6720746f206d696e7420746f6f206d616e792072696e67732e0000600082015250565b6000613ad1601e83613155565b9150613adc82613a9b565b602082019050919050565b60006020820190508181036000830152613b0081613ac4565b9050919050565b7f4164647265737320616c72656479206d696e74656420612072696e672e000000600082015250565b6000613b3d601d83613155565b9150613b4882613b07565b602082019050919050565b60006020820190508181036000830152613b6c81613b30565b9050919050565b7f4c6f63616c20696e646578206f766572666c6f772e0000000000000000000000600082015250565b6000613ba9601583613155565b9150613bb482613b73565b602082019050919050565b60006020820190508181036000830152613bd881613b9c565b9050919050565b7f52696e6720696e646578206f766572666c6f772e000000000000000000000000600082015250565b6000613c15601483613155565b9150613c2082613bdf565b602082019050919050565b60006020820190508181036000830152613c4481613c08565b9050919050565b6000613c578286613307565b602082019150613c67828561328f565b601482019150613c778284613307565b602082019150819050949350505050565b7f4e487b7100000000000000000000000000000000000000000000000000000000600052601260045260246000fd5b6000613cc282612961565b9150613ccd83612961565b925082613cdd57613cdc613c88565b5b82820690509291505056fea264697066735822122052c73b1936023a18ffc4c8c66c7ab1b2b73d662ac7cc5044851d8a245b45f5ad64736f6c63430008120033","opcodes":"PUSH1 0x80 PUSH1 0x40 MSTORE PUSH2 0x2BC PUSH1 0x4 SSTORE PUSH1 0x0 PUSH1 0x5 SSTORE PUSH1 0x40 MLOAD DUP1 PUSH2 0x100 ADD PUSH1 0x40 MSTORE DUP1 PUSH1 0xE PUSH1 0xFF AND DUP2 MSTORE PUSH1 0x20 ADD PUSH1 0xE PUSH1 0xFF AND DUP2 MSTORE PUSH1 0x20 ADD PUSH1 0xE PUSH1 0xFF AND DUP2 MSTORE PUSH1 0x20 ADD PUSH1 0xE PUSH1 0xFF AND DUP2 MSTORE PUSH1 0x20 ADD PUSH1 0xE PUSH1 0xFF AND DUP2 MSTORE PUSH1 0x20 ADD PUSH1 0xE PUSH1 0xFF AND DUP2 MSTORE PUSH1 0x20 ADD PUSH1 0xE PUSH1 0xFF AND DUP2 MSTORE PUSH1 0x20 ADD PUSH1 0x2 PUSH1 0xFF AND DUP2 MSTORE POP PUSH1 0x6 SWAP1 PUSH1 0x8 PUSH3 0x7B SWAP3 SWAP2 SWAP1 PUSH3 0x42F JUMP JUMPDEST POP PUSH1 0x40 MLOAD DUP1 PUSH2 0x100 ADD PUSH1 0x40 MSTORE DUP1 PUSH1 0x1 PUSH1 0xFF AND DUP2 MSTORE PUSH1 0x20 ADD PUSH1 0x1 PUSH1 0xFF AND DUP2 MSTORE PUSH1 0x20 ADD PUSH1 0x1 PUSH1 0xFF AND DUP2 MSTORE PUSH1 0x20 ADD PUSH1 0x1 PUSH1 0xFF AND DUP2 MSTORE PUSH1 0x20 ADD PUSH1 0x1 PUSH1 0xFF AND DUP2 MSTORE PUSH1 0x20 ADD PUSH1 0x1 PUSH1 0xFF AND DUP2 MSTORE PUSH1 0x20 ADD PUSH1 0x1 PUSH1 0xFF AND DUP2 MSTORE PUSH1 0x20 ADD PUSH1 0x1 PUSH1 0xFF AND DUP2 MSTORE POP PUSH1 0x7 SWAP1 PUSH1 0x8 PUSH3 0xE8 SWAP3 SWAP2 SWAP1 PUSH3 0x42F JUMP JUMPDEST POP PUSH1 0x1 PUSH1 0x8 SSTORE PUSH32 0xFFFFFFFFFFFFFFFFFFFFFFFFFFFFFFFFFFFFFFFFFFFFFFFFFFFFFFFFFFFFFFFF PUSH1 0x9 SSTORE PUSH32 0xFFFFFFFFFFFFFFFFFFFFFFFFFFFFFFFFFFFFFFFFFFFFFFFFFFFFFFFFFFFFFFFF PUSH1 0xA SSTORE PUSH32 0xFFFFFFFFFFFFFFFFFFFFFFFFFFFFFFFFFFFFFFFFFFFFFFFFFFFFFFFFFFFFFFFF PUSH1 0xB SSTORE PUSH32 0xFFFFFFFFFFFFFFFFFFFFFFFFFFFFFFFFFFFFFFFFFFFFFFFFFFFFFFFFFFFFFFFF PUSH1 0xC SSTORE CALLVALUE DUP1 ISZERO PUSH3 0x18B JUMPI PUSH1 0x0 DUP1 REVERT JUMPDEST POP PUSH1 0x40 MLOAD PUSH3 0x4306 CODESIZE SUB DUP1 PUSH3 0x4306 DUP4 CODECOPY DUP2 DUP2 ADD PUSH1 0x40 MSTORE DUP2 ADD SWAP1 PUSH3 0x1B1 SWAP2 SWAP1 PUSH3 0x523 JUMP JUMPDEST PUSH3 0x1D1 PUSH3 0x1C5 PUSH3 0x201 PUSH1 0x20 SHL PUSH1 0x20 SHR JUMP JUMPDEST PUSH3 0x209 PUSH1 0x20 SHL PUSH1 0x20 SHR JUMP JUMPDEST PUSH1 0x1 DUP1 DUP2 SWAP1 SSTORE POP PUSH3 0x1E9 DUP2 PUSH3 0x2CD PUSH1 0x20 SHL PUSH1 0x20 SHR JUMP JUMPDEST PUSH3 0x1FA CALLER PUSH3 0x321 PUSH1 0x20 SHL PUSH1 0x20 SHR JUMP JUMPDEST POP PUSH3 0x5D8 JUMP JUMPDEST PUSH1 0x0 CALLER SWAP1 POP SWAP1 JUMP JUMPDEST PUSH1 0x0 DUP1 PUSH1 0x0 SWAP1 SLOAD SWAP1 PUSH2 0x100 EXP SWAP1 DIV PUSH20 0xFFFFFFFFFFFFFFFFFFFFFFFFFFFFFFFFFFFFFFFF AND SWAP1 POP DUP2 PUSH1 0x0 DUP1 PUSH2 0x100 EXP DUP2 SLOAD DUP2 PUSH20 0xFFFFFFFFFFFFFFFFFFFFFFFFFFFFFFFFFFFFFFFF MUL NOT AND SWAP1 DUP4 PUSH20 0xFFFFFFFFFFFFFFFFFFFFFFFFFFFFFFFFFFFFFFFF AND MUL OR SWAP1 SSTORE POP DUP2 PUSH20 0xFFFFFFFFFFFFFFFFFFFFFFFFFFFFFFFFFFFFFFFF AND DUP2 PUSH20 0xFFFFFFFFFFFFFFFFFFFFFFFFFFFFFFFFFFFFFFFF AND PUSH32 0x8BE0079C531659141344CD1FD0A4F28419497F9722A3DAAFE3B4186F6B6457E0 PUSH1 0x40 MLOAD PUSH1 0x40 MLOAD DUP1 SWAP2 SUB SWAP1 LOG3 POP POP JUMP JUMPDEST PUSH3 0x2DD PUSH3 0x375 PUSH1 0x20 SHL PUSH1 0x20 SHR JUMP JUMPDEST DUP1 PUSH1 0x2 PUSH1 0x0 PUSH2 0x100 EXP DUP2 SLOAD DUP2 PUSH20 0xFFFFFFFFFFFFFFFFFFFFFFFFFFFFFFFFFFFFFFFF MUL NOT AND SWAP1 DUP4 PUSH20 0xFFFFFFFFFFFFFFFFFFFFFFFFFFFFFFFFFFFFFFFF AND MUL OR SWAP1 SSTORE POP POP JUMP JUMPDEST PUSH3 0x331 PUSH3 0x375 PUSH1 0x20 SHL PUSH1 0x20 SHR JUMP JUMPDEST DUP1 PUSH1 0x3 PUSH1 0x0 PUSH2 0x100 EXP DUP2 SLOAD DUP2 PUSH20 0xFFFFFFFFFFFFFFFFFFFFFFFFFFFFFFFFFFFFFFFF MUL NOT AND SWAP1 DUP4 PUSH20 0xFFFFFFFFFFFFFFFFFFFFFFFFFFFFFFFFFFFFFFFF AND MUL OR SWAP1 SSTORE POP POP JUMP JUMPDEST PUSH3 0x385 PUSH3 0x201 PUSH1 0x20 SHL PUSH1 0x20 SHR JUMP JUMPDEST PUSH20 0xFFFFFFFFFFFFFFFFFFFFFFFFFFFFFFFFFFFFFFFF AND PUSH3 0x3AB PUSH3 0x406 PUSH1 0x20 SHL PUSH1 0x20 SHR JUMP JUMPDEST PUSH20 0xFFFFFFFFFFFFFFFFFFFFFFFFFFFFFFFFFFFFFFFF AND EQ PUSH3 0x404 JUMPI PUSH1 0x40 MLOAD PUSH32 0x8C379A000000000000000000000000000000000000000000000000000000000 DUP2 MSTORE PUSH1 0x4 ADD PUSH3 0x3FB SWAP1 PUSH3 0x5B6 JUMP JUMPDEST PUSH1 0x40 MLOAD DUP1 SWAP2 SUB SWAP1 REVERT JUMPDEST JUMP JUMPDEST PUSH1 0x0 DUP1 PUSH1 0x0 SWAP1 SLOAD SWAP1 PUSH2 0x100 EXP SWAP1 DIV PUSH20 0xFFFFFFFFFFFFFFFFFFFFFFFFFFFFFFFFFFFFFFFF AND SWAP1 POP SWAP1 JUMP JUMPDEST DUP3 DUP1 SLOAD DUP3 DUP3 SSTORE SWAP1 PUSH1 0x0 MSTORE PUSH1 0x20 PUSH1 0x0 KECCAK256 SWAP1 DUP2 ADD SWAP3 DUP3 ISZERO PUSH3 0x473 JUMPI SWAP2 PUSH1 0x20 MUL DUP3 ADD JUMPDEST DUP3 DUP2 GT ISZERO PUSH3 0x472 JUMPI DUP3 MLOAD DUP3 SWAP1 PUSH1 0xFF AND SWAP1 SSTORE SWAP2 PUSH1 0x20 ADD SWAP2 SWAP1 PUSH1 0x1 ADD SWAP1 PUSH3 0x450 JUMP JUMPDEST JUMPDEST POP SWAP1 POP PUSH3 0x482 SWAP2 SWAP1 PUSH3 0x486 JUMP JUMPDEST POP SWAP1 JUMP JUMPDEST JUMPDEST DUP1 DUP3 GT ISZERO PUSH3 0x4A1 JUMPI PUSH1 0x0 DUP2 PUSH1 0x0 SWAP1 SSTORE POP PUSH1 0x1 ADD PUSH3 0x487 JUMP JUMPDEST POP SWAP1 JUMP JUMPDEST PUSH1 0x0 DUP1 REVERT JUMPDEST PUSH1 0x0 PUSH20 0xFFFFFFFFFFFFFFFFFFFFFFFFFFFFFFFFFFFFFFFF DUP3 AND SWAP1 POP SWAP2 SWAP1 POP JUMP JUMPDEST PUSH1 0x0 PUSH3 0x4D7 DUP3 PUSH3 0x4AA JUMP JUMPDEST SWAP1 POP SWAP2 SWAP1 POP JUMP JUMPDEST PUSH1 0x0 PUSH3 0x4EB DUP3 PUSH3 0x4CA JUMP JUMPDEST SWAP1 POP SWAP2 SWAP1 POP JUMP JUMPDEST PUSH3 0x4FD DUP2 PUSH3 0x4DE JUMP JUMPDEST DUP2 EQ PUSH3 0x509 JUMPI PUSH1 0x0 DUP1 REVERT JUMPDEST POP JUMP JUMPDEST PUSH1 0x0 DUP2 MLOAD SWAP1 POP PUSH3 0x51D DUP2 PUSH3 0x4F2 JUMP JUMPDEST SWAP3 SWAP2 POP POP JUMP JUMPDEST PUSH1 0x0 PUSH1 0x20 DUP3 DUP5 SUB SLT ISZERO PUSH3 0x53C JUMPI PUSH3 0x53B PUSH3 0x4A5 JUMP JUMPDEST JUMPDEST PUSH1 0x0 PUSH3 0x54C DUP5 DUP3 DUP6 ADD PUSH3 0x50C JUMP JUMPDEST SWAP2 POP POP SWAP3 SWAP2 POP POP JUMP JUMPDEST PUSH1 0x0 DUP3 DUP3 MSTORE PUSH1 0x20 DUP3 ADD SWAP1 POP SWAP3 SWAP2 POP POP JUMP JUMPDEST PUSH32 0x4F776E61626C653A2063616C6C6572206973206E6F7420746865206F776E6572 PUSH1 0x0 DUP3 ADD MSTORE POP JUMP JUMPDEST PUSH1 0x0 PUSH3 0x59E PUSH1 0x20 DUP4 PUSH3 0x555 JUMP JUMPDEST SWAP2 POP PUSH3 0x5AB DUP3 PUSH3 0x566 JUMP JUMPDEST PUSH1 0x20 DUP3 ADD SWAP1 POP SWAP2 SWAP1 POP JUMP JUMPDEST PUSH1 0x0 PUSH1 0x20 DUP3 ADD SWAP1 POP DUP2 DUP2 SUB PUSH1 0x0 DUP4 ADD MSTORE PUSH3 0x5D1 DUP2 PUSH3 0x58F JUMP JUMPDEST SWAP1 POP SWAP2 SWAP1 POP JUMP JUMPDEST PUSH2 0x3D1E DUP1 PUSH3 0x5E8 PUSH1 0x0 CODECOPY PUSH1 0x0 RETURN INVALID PUSH1 0x80 PUSH1 0x40 MSTORE PUSH1 0x4 CALLDATASIZE LT PUSH2 0x293 JUMPI PUSH1 0x0 CALLDATALOAD PUSH1 0xE0 SHR DUP1 PUSH4 0x8C6D8EF6 GT PUSH2 0x15A JUMPI DUP1 PUSH4 0xCA6C261D GT PUSH2 0xC1 JUMPI DUP1 PUSH4 0xDF477EAD GT PUSH2 0x7A JUMPI DUP1 PUSH4 0xDF477EAD EQ PUSH2 0x979 JUMPI DUP1 PUSH4 0xE49618C1 EQ PUSH2 0x9A4 JUMPI DUP1 PUSH4 0xF0C821DE EQ PUSH2 0x9E1 JUMPI DUP1 PUSH4 0xF2FDE38B EQ PUSH2 0xA0C JUMPI DUP1 PUSH4 0xF4CDE4C0 EQ PUSH2 0xA35 JUMPI DUP1 PUSH4 0xFBFA77CF EQ PUSH2 0xA60 JUMPI PUSH2 0x293 JUMP JUMPDEST DUP1 PUSH4 0xCA6C261D EQ PUSH2 0x86D JUMPI DUP1 PUSH4 0xCC644FD2 EQ PUSH2 0x8AA JUMPI DUP1 PUSH4 0xCEF58283 EQ PUSH2 0x8D3 JUMPI DUP1 PUSH4 0xD3CF00A3 EQ PUSH2 0x8FC JUMPI DUP1 PUSH4 0xD6117B3E EQ PUSH2 0x927 JUMPI DUP1 PUSH4 0xDC37DC64 EQ PUSH2 0x950 JUMPI PUSH2 0x293 JUMP JUMPDEST DUP1 PUSH4 0x9727151A GT PUSH2 0x113 JUMPI DUP1 PUSH4 0x9727151A EQ PUSH2 0x773 JUMPI DUP1 PUSH4 0x9F0664B5 EQ PUSH2 0x79C JUMPI DUP1 PUSH4 0xA0E52F89 EQ PUSH2 0x7C5 JUMPI DUP1 PUSH4 0xA637F973 EQ PUSH2 0x7F0 JUMPI DUP1 PUSH4 0xB9A43F2E EQ PUSH2 0x819 JUMPI DUP1 PUSH4 0xC2774DAC EQ PUSH2 0x844 JUMPI PUSH2 0x293 JUMP JUMPDEST DUP1 PUSH4 0x8C6D8EF6 EQ PUSH2 0x661 JUMPI DUP1 PUSH4 0x8D56A17B EQ PUSH2 0x68C JUMPI DUP1 PUSH4 0x8DA5CB5B EQ PUSH2 0x6B7 JUMPI DUP1 PUSH4 0x91B7F5ED EQ PUSH2 0x6E2 JUMPI DUP1 PUSH4 0x93CB4147 EQ PUSH2 0x70B JUMPI DUP1 PUSH4 0x96C9F88B EQ PUSH2 0x736 JUMPI PUSH2 0x293 JUMP JUMPDEST DUP1 PUSH4 0x411D13F7 GT PUSH2 0x1FE JUMPI DUP1 PUSH4 0x60A87D75 GT PUSH2 0x1B7 JUMPI DUP1 PUSH4 0x60A87D75 EQ PUSH2 0x588 JUMPI DUP1 PUSH4 0x6138F236 EQ PUSH2 0x5A4 JUMPI DUP1 PUSH4 0x6E1A1A60 EQ PUSH2 0x5E1 JUMPI DUP1 PUSH4 0x715018A6 EQ PUSH2 0x60A JUMPI DUP1 PUSH4 0x853828B6 EQ PUSH2 0x621 JUMPI DUP1 PUSH4 0x85535CC5 EQ PUSH2 0x638 JUMPI PUSH2 0x293 JUMP JUMPDEST DUP1 PUSH4 0x411D13F7 EQ PUSH2 0x499 JUMPI DUP1 PUSH4 0x46BF289F EQ PUSH2 0x4C2 JUMPI DUP1 PUSH4 0x47978479 EQ PUSH2 0x4ED JUMPI DUP1 PUSH4 0x4ED1EB24 EQ PUSH2 0x509 JUMPI DUP1 PUSH4 0x5242A493 EQ PUSH2 0x534 JUMPI DUP1 PUSH4 0x5FCD80A6 EQ PUSH2 0x55F JUMPI PUSH2 0x293 JUMP JUMPDEST DUP1 PUSH4 0x2560E376 GT PUSH2 0x250 JUMPI DUP1 PUSH4 0x2560E376 EQ PUSH2 0x389 JUMPI DUP1 PUSH4 0x260C0886 EQ PUSH2 0x3B4 JUMPI DUP1 PUSH4 0x2701B325 EQ PUSH2 0x3DD JUMPI DUP1 PUSH4 0x2CE82A71 EQ PUSH2 0x41A JUMPI DUP1 PUSH4 0x2E1A7D4D EQ PUSH2 0x445 JUMPI DUP1 PUSH4 0x3E97414F EQ PUSH2 0x46E JUMPI PUSH2 0x293 JUMP JUMPDEST DUP1 PUSH4 0x62F7B8C EQ PUSH2 0x298 JUMPI DUP1 PUSH4 0x1249C58B EQ PUSH2 0x2C3 JUMPI DUP1 PUSH4 0x158AE298 EQ PUSH2 0x2CD JUMPI DUP1 PUSH4 0x1AF3BA81 EQ PUSH2 0x30A JUMPI DUP1 PUSH4 0x1C7F4A02 EQ PUSH2 0x335 JUMPI DUP1 PUSH4 0x205ED382 EQ PUSH2 0x360 JUMPI JUMPDEST PUSH1 0x0 DUP1 REVERT JUMPDEST CALLVALUE DUP1 ISZERO PUSH2 0x2A4 JUMPI PUSH1 0x0 DUP1 REVERT JUMPDEST POP PUSH2 0x2AD PUSH2 0xA8B JUMP JUMPDEST PUSH1 0x40 MLOAD PUSH2 0x2BA SWAP2 SWAP1 PUSH2 0x29FD JUMP JUMPDEST PUSH1 0x40 MLOAD DUP1 SWAP2 SUB SWAP1 RETURN JUMPDEST PUSH2 0x2CB PUSH2 0xAE3 JUMP JUMPDEST STOP JUMPDEST CALLVALUE DUP1 ISZERO PUSH2 0x2D9 JUMPI PUSH1 0x0 DUP1 REVERT JUMPDEST POP PUSH2 0x2F4 PUSH1 0x4 DUP1 CALLDATASIZE SUB DUP2 ADD SWAP1 PUSH2 0x2EF SWAP2 SWAP1 PUSH2 0x2A55 JUMP JUMPDEST PUSH2 0xAFD JUMP JUMPDEST PUSH1 0x40 MLOAD PUSH2 0x301 SWAP2 SWAP1 PUSH2 0x2A91 JUMP JUMPDEST PUSH1 0x40 MLOAD DUP1 SWAP2 SUB SWAP1 RETURN JUMPDEST CALLVALUE DUP1 ISZERO PUSH2 0x316 JUMPI PUSH1 0x0 DUP1 REVERT JUMPDEST POP PUSH2 0x31F PUSH2 0xB15 JUMP JUMPDEST PUSH1 0x40 MLOAD PUSH2 0x32C SWAP2 SWAP1 PUSH2 0x2A91 JUMP JUMPDEST PUSH1 0x40 MLOAD DUP1 SWAP2 SUB SWAP1 RETURN JUMPDEST CALLVALUE DUP1 ISZERO PUSH2 0x341 JUMPI PUSH1 0x0 DUP1 REVERT JUMPDEST POP PUSH2 0x34A PUSH2 0xB1B JUMP JUMPDEST PUSH1 0x40 MLOAD PUSH2 0x357 SWAP2 SWAP1 PUSH2 0x2AC5 JUMP JUMPDEST PUSH1 0x40 MLOAD DUP1 SWAP2 SUB SWAP1 RETURN JUMPDEST CALLVALUE DUP1 ISZERO PUSH2 0x36C JUMPI PUSH1 0x0 DUP1 REVERT JUMPDEST POP PUSH2 0x387 PUSH1 0x4 DUP1 CALLDATASIZE SUB DUP2 ADD SWAP1 PUSH2 0x382 SWAP2 SWAP1 PUSH2 0x2A55 JUMP JUMPDEST PUSH2 0xB21 JUMP JUMPDEST STOP JUMPDEST CALLVALUE DUP1 ISZERO PUSH2 0x395 JUMPI PUSH1 0x0 DUP1 REVERT JUMPDEST POP PUSH2 0x39E PUSH2 0xB72 JUMP JUMPDEST PUSH1 0x40 MLOAD PUSH2 0x3AB SWAP2 SWAP1 PUSH2 0x2AC5 JUMP JUMPDEST PUSH1 0x40 MLOAD DUP1 SWAP2 SUB SWAP1 RETURN JUMPDEST CALLVALUE DUP1 ISZERO PUSH2 0x3C0 JUMPI PUSH1 0x0 DUP1 REVERT JUMPDEST POP PUSH2 0x3DB PUSH1 0x4 DUP1 CALLDATASIZE SUB DUP2 ADD SWAP1 PUSH2 0x3D6 SWAP2 SWAP1 PUSH2 0x2A55 JUMP JUMPDEST PUSH2 0xB78 JUMP JUMPDEST STOP JUMPDEST CALLVALUE DUP1 ISZERO PUSH2 0x3E9 JUMPI PUSH1 0x0 DUP1 REVERT JUMPDEST POP PUSH2 0x404 PUSH1 0x4 DUP1 CALLDATASIZE SUB DUP2 ADD SWAP1 PUSH2 0x3FF SWAP2 SWAP1 PUSH2 0x2A55 JUMP JUMPDEST PUSH2 0xB8A JUMP JUMPDEST PUSH1 0x40 MLOAD PUSH2 0x411 SWAP2 SWAP1 PUSH2 0x2A91 JUMP JUMPDEST PUSH1 0x40 MLOAD DUP1 SWAP2 SUB SWAP1 RETURN JUMPDEST CALLVALUE DUP1 ISZERO PUSH2 0x426 JUMPI PUSH1 0x0 DUP1 REVERT JUMPDEST POP PUSH2 0x42F PUSH2 0xB97 JUMP JUMPDEST PUSH1 0x40 MLOAD PUSH2 0x43C SWAP2 SWAP1 PUSH2 0x29FD JUMP JUMPDEST PUSH1 0x40 MLOAD DUP1 SWAP2 SUB SWAP1 RETURN JUMPDEST CALLVALUE DUP1 ISZERO PUSH2 0x451 JUMPI PUSH1 0x0 DUP1 REVERT JUMPDEST POP PUSH2 0x46C PUSH1 0x4 DUP1 CALLDATASIZE SUB DUP2 ADD SWAP1 PUSH2 0x467 SWAP2 SWAP1 PUSH2 0x2A55 JUMP JUMPDEST PUSH2 0xD95 JUMP JUMPDEST STOP JUMPDEST CALLVALUE DUP1 ISZERO PUSH2 0x47A JUMPI PUSH1 0x0 DUP1 REVERT JUMPDEST POP PUSH2 0x483 PUSH2 0xE6F JUMP JUMPDEST PUSH1 0x40 MLOAD PUSH2 0x490 SWAP2 SWAP1 PUSH2 0x2AFB JUMP JUMPDEST PUSH1 0x40 MLOAD DUP1 SWAP2 SUB SWAP1 RETURN JUMPDEST CALLVALUE DUP1 ISZERO PUSH2 0x4A5 JUMPI PUSH1 0x0 DUP1 REVERT JUMPDEST POP PUSH2 0x4C0 PUSH1 0x4 DUP1 CALLDATASIZE SUB DUP2 ADD SWAP1 PUSH2 0x4BB SWAP2 SWAP1 PUSH2 0x2B42 JUMP JUMPDEST PUSH2 0xE7C JUMP JUMPDEST STOP JUMPDEST CALLVALUE DUP1 ISZERO PUSH2 0x4CE JUMPI PUSH1 0x0 DUP1 REVERT JUMPDEST POP PUSH2 0x4D7 PUSH2 0xE8E JUMP JUMPDEST PUSH1 0x40 MLOAD PUSH2 0x4E4 SWAP2 SWAP1 PUSH2 0x2A91 JUMP JUMPDEST PUSH1 0x40 MLOAD DUP1 SWAP2 SUB SWAP1 RETURN JUMPDEST PUSH2 0x507 PUSH1 0x4 DUP1 CALLDATASIZE SUB DUP2 ADD SWAP1 PUSH2 0x502 SWAP2 SWAP1 PUSH2 0x2BD4 JUMP JUMPDEST PUSH2 0xF87 JUMP JUMPDEST STOP JUMPDEST CALLVALUE DUP1 ISZERO PUSH2 0x515 JUMPI PUSH1 0x0 DUP1 REVERT JUMPDEST POP PUSH2 0x51E PUSH2 0x11ED JUMP JUMPDEST PUSH1 0x40 MLOAD PUSH2 0x52B SWAP2 SWAP1 PUSH2 0x2AC5 JUMP JUMPDEST PUSH1 0x40 MLOAD DUP1 SWAP2 SUB SWAP1 RETURN JUMPDEST CALLVALUE DUP1 ISZERO PUSH2 0x540 JUMPI PUSH1 0x0 DUP1 REVERT JUMPDEST POP PUSH2 0x549 PUSH2 0x11F3 JUMP JUMPDEST PUSH1 0x40 MLOAD PUSH2 0x556 SWAP2 SWAP1 PUSH2 0x2A91 JUMP JUMPDEST PUSH1 0x40 MLOAD DUP1 SWAP2 SUB SWAP1 RETURN JUMPDEST CALLVALUE DUP1 ISZERO PUSH2 0x56B JUMPI PUSH1 0x0 DUP1 REVERT JUMPDEST POP PUSH2 0x586 PUSH1 0x4 DUP1 CALLDATASIZE SUB DUP2 ADD SWAP1 PUSH2 0x581 SWAP2 SWAP1 PUSH2 0x2A55 JUMP JUMPDEST PUSH2 0x11F9 JUMP JUMPDEST STOP JUMPDEST PUSH2 0x5A2 PUSH1 0x4 DUP1 CALLDATASIZE SUB DUP2 ADD SWAP1 PUSH2 0x59D SWAP2 SWAP1 PUSH2 0x2BD4 JUMP JUMPDEST PUSH2 0x120B JUMP JUMPDEST STOP JUMPDEST CALLVALUE DUP1 ISZERO PUSH2 0x5B0 JUMPI PUSH1 0x0 DUP1 REVERT JUMPDEST POP PUSH2 0x5CB PUSH1 0x4 DUP1 CALLDATASIZE SUB DUP2 ADD SWAP1 PUSH2 0x5C6 SWAP2 SWAP1 PUSH2 0x2C92 JUMP JUMPDEST PUSH2 0x141C JUMP JUMPDEST PUSH1 0x40 MLOAD PUSH2 0x5D8 SWAP2 SWAP1 PUSH2 0x2A91 JUMP JUMPDEST PUSH1 0x40 MLOAD DUP1 SWAP2 SUB SWAP1 RETURN JUMPDEST CALLVALUE DUP1 ISZERO PUSH2 0x5ED JUMPI PUSH1 0x0 DUP1 REVERT JUMPDEST POP PUSH2 0x608 PUSH1 0x4 DUP1 CALLDATASIZE SUB DUP2 ADD SWAP1 PUSH2 0x603 SWAP2 SWAP1 PUSH2 0x2A55 JUMP JUMPDEST PUSH2 0x1434 JUMP JUMPDEST STOP JUMPDEST CALLVALUE DUP1 ISZERO PUSH2 0x616 JUMPI PUSH1 0x0 DUP1 REVERT JUMPDEST POP PUSH2 0x61F PUSH2 0x1446 JUMP JUMPDEST STOP JUMPDEST CALLVALUE DUP1 ISZERO PUSH2 0x62D JUMPI PUSH1 0x0 DUP1 REVERT JUMPDEST POP PUSH2 0x636 PUSH2 0x145A JUMP JUMPDEST STOP JUMPDEST CALLVALUE DUP1 ISZERO PUSH2 0x644 JUMPI PUSH1 0x0 DUP1 REVERT JUMPDEST POP PUSH2 0x65F PUSH1 0x4 DUP1 CALLDATASIZE SUB DUP2 ADD SWAP1 PUSH2 0x65A SWAP2 SWAP1 PUSH2 0x2CFD JUMP JUMPDEST PUSH2 0x1533 JUMP JUMPDEST STOP JUMPDEST CALLVALUE DUP1 ISZERO PUSH2 0x66D JUMPI PUSH1 0x0 DUP1 REVERT JUMPDEST POP PUSH2 0x676 PUSH2 0x157F JUMP JUMPDEST PUSH1 0x40 MLOAD PUSH2 0x683 SWAP2 SWAP1 PUSH2 0x2AFB JUMP JUMPDEST PUSH1 0x40 MLOAD DUP1 SWAP2 SUB SWAP1 RETURN JUMPDEST CALLVALUE DUP1 ISZERO PUSH2 0x698 JUMPI PUSH1 0x0 DUP1 REVERT JUMPDEST POP PUSH2 0x6A1 PUSH2 0x158C JUMP JUMPDEST PUSH1 0x40 MLOAD PUSH2 0x6AE SWAP2 SWAP1 PUSH2 0x2A91 JUMP JUMPDEST PUSH1 0x40 MLOAD DUP1 SWAP2 SUB SWAP1 RETURN JUMPDEST CALLVALUE DUP1 ISZERO PUSH2 0x6C3 JUMPI PUSH1 0x0 DUP1 REVERT JUMPDEST POP PUSH2 0x6CC PUSH2 0x1592 JUMP JUMPDEST PUSH1 0x40 MLOAD PUSH2 0x6D9 SWAP2 SWAP1 PUSH2 0x2D39 JUMP JUMPDEST PUSH1 0x40 MLOAD DUP1 SWAP2 SUB SWAP1 RETURN JUMPDEST CALLVALUE DUP1 ISZERO PUSH2 0x6EE JUMPI PUSH1 0x0 DUP1 REVERT JUMPDEST POP PUSH2 0x709 PUSH1 0x4 DUP1 CALLDATASIZE SUB DUP2 ADD SWAP1 PUSH2 0x704 SWAP2 SWAP1 PUSH2 0x2A55 JUMP JUMPDEST PUSH2 0x15BB JUMP JUMPDEST STOP JUMPDEST CALLVALUE DUP1 ISZERO PUSH2 0x717 JUMPI PUSH1 0x0 DUP1 REVERT JUMPDEST POP PUSH2 0x720 PUSH2 0x160C JUMP JUMPDEST PUSH1 0x40 MLOAD PUSH2 0x72D SWAP2 SWAP1 PUSH2 0x2AFB JUMP JUMPDEST PUSH1 0x40 MLOAD DUP1 SWAP2 SUB SWAP1 RETURN JUMPDEST CALLVALUE DUP1 ISZERO PUSH2 0x742 JUMPI PUSH1 0x0 DUP1 REVERT JUMPDEST POP PUSH2 0x75D PUSH1 0x4 DUP1 CALLDATASIZE SUB DUP2 ADD SWAP1 PUSH2 0x758 SWAP2 SWAP1 PUSH2 0x2A55 JUMP JUMPDEST PUSH2 0x1619 JUMP JUMPDEST PUSH1 0x40 MLOAD PUSH2 0x76A SWAP2 SWAP1 PUSH2 0x2A91 JUMP JUMPDEST PUSH1 0x40 MLOAD DUP1 SWAP2 SUB SWAP1 RETURN JUMPDEST CALLVALUE DUP1 ISZERO PUSH2 0x77F JUMPI PUSH1 0x0 DUP1 REVERT JUMPDEST POP PUSH2 0x79A PUSH1 0x4 DUP1 CALLDATASIZE SUB DUP2 ADD SWAP1 PUSH2 0x795 SWAP2 SWAP1 PUSH2 0x2D92 JUMP JUMPDEST PUSH2 0x163D JUMP JUMPDEST STOP JUMPDEST CALLVALUE DUP1 ISZERO PUSH2 0x7A8 JUMPI PUSH1 0x0 DUP1 REVERT JUMPDEST POP PUSH2 0x7C3 PUSH1 0x4 DUP1 CALLDATASIZE SUB DUP2 ADD SWAP1 PUSH2 0x7BE SWAP2 SWAP1 PUSH2 0x2E7E JUMP JUMPDEST PUSH2 0x172E JUMP JUMPDEST STOP JUMPDEST CALLVALUE DUP1 ISZERO PUSH2 0x7D1 JUMPI PUSH1 0x0 DUP1 REVERT JUMPDEST POP PUSH2 0x7DA PUSH2 0x1A61 JUMP JUMPDEST PUSH1 0x40 MLOAD PUSH2 0x7E7 SWAP2 SWAP1 PUSH2 0x2A91 JUMP JUMPDEST PUSH1 0x40 MLOAD DUP1 SWAP2 SUB SWAP1 RETURN JUMPDEST CALLVALUE DUP1 ISZERO PUSH2 0x7FC JUMPI PUSH1 0x0 DUP1 REVERT JUMPDEST POP PUSH2 0x817 PUSH1 0x4 DUP1 CALLDATASIZE SUB DUP2 ADD SWAP1 PUSH2 0x812 SWAP2 SWAP1 PUSH2 0x2A55 JUMP JUMPDEST PUSH2 0x1A6B JUMP JUMPDEST STOP JUMPDEST CALLVALUE DUP1 ISZERO PUSH2 0x825 JUMPI PUSH1 0x0 DUP1 REVERT JUMPDEST POP PUSH2 0x82E PUSH2 0x1ABC JUMP JUMPDEST PUSH1 0x40 MLOAD PUSH2 0x83B SWAP2 SWAP1 PUSH2 0x2A91 JUMP JUMPDEST PUSH1 0x40 MLOAD DUP1 SWAP2 SUB SWAP1 RETURN JUMPDEST CALLVALUE DUP1 ISZERO PUSH2 0x850 JUMPI PUSH1 0x0 DUP1 REVERT JUMPDEST POP PUSH2 0x86B PUSH1 0x4 DUP1 CALLDATASIZE SUB DUP2 ADD SWAP1 PUSH2 0x866 SWAP2 SWAP1 PUSH2 0x2B42 JUMP JUMPDEST PUSH2 0x1BC5 JUMP JUMPDEST STOP JUMPDEST CALLVALUE DUP1 ISZERO PUSH2 0x879 JUMPI PUSH1 0x0 DUP1 REVERT JUMPDEST POP PUSH2 0x894 PUSH1 0x4 DUP1 CALLDATASIZE SUB DUP2 ADD SWAP1 PUSH2 0x88F SWAP2 SWAP1 PUSH2 0x2C92 JUMP JUMPDEST PUSH2 0x1BD7 JUMP JUMPDEST PUSH1 0x40 MLOAD PUSH2 0x8A1 SWAP2 SWAP1 PUSH2 0x2AFB JUMP JUMPDEST PUSH1 0x40 MLOAD DUP1 SWAP2 SUB SWAP1 RETURN JUMPDEST CALLVALUE DUP1 ISZERO PUSH2 0x8B6 JUMPI PUSH1 0x0 DUP1 REVERT JUMPDEST POP PUSH2 0x8D1 PUSH1 0x4 DUP1 CALLDATASIZE SUB DUP2 ADD SWAP1 PUSH2 0x8CC SWAP2 SWAP1 PUSH2 0x2F55 JUMP JUMPDEST PUSH2 0x1C33 JUMP JUMPDEST STOP JUMPDEST CALLVALUE DUP1 ISZERO PUSH2 0x8DF JUMPI PUSH1 0x0 DUP1 REVERT JUMPDEST POP PUSH2 0x8FA PUSH1 0x4 DUP1 CALLDATASIZE SUB DUP2 ADD SWAP1 PUSH2 0x8F5 SWAP2 SWAP1 PUSH2 0x2B42 JUMP JUMPDEST PUSH2 0x1CDE JUMP JUMPDEST STOP JUMPDEST CALLVALUE DUP1 ISZERO PUSH2 0x908 JUMPI PUSH1 0x0 DUP1 REVERT JUMPDEST POP PUSH2 0x911 PUSH2 0x1CF0 JUMP JUMPDEST PUSH1 0x40 MLOAD PUSH2 0x91E SWAP2 SWAP1 PUSH2 0x2A91 JUMP JUMPDEST PUSH1 0x40 MLOAD DUP1 SWAP2 SUB SWAP1 RETURN JUMPDEST CALLVALUE DUP1 ISZERO PUSH2 0x933 JUMPI PUSH1 0x0 DUP1 REVERT JUMPDEST POP PUSH2 0x94E PUSH1 0x4 DUP1 CALLDATASIZE SUB DUP2 ADD SWAP1 PUSH2 0x949 SWAP2 SWAP1 PUSH2 0x2F55 JUMP JUMPDEST PUSH2 0x1CF6 JUMP JUMPDEST STOP JUMPDEST CALLVALUE DUP1 ISZERO PUSH2 0x95C JUMPI PUSH1 0x0 DUP1 REVERT JUMPDEST POP PUSH2 0x977 PUSH1 0x4 DUP1 CALLDATASIZE SUB DUP2 ADD SWAP1 PUSH2 0x972 SWAP2 SWAP1 PUSH2 0x2FE0 JUMP JUMPDEST PUSH2 0x1E34 JUMP JUMPDEST STOP JUMPDEST CALLVALUE DUP1 ISZERO PUSH2 0x985 JUMPI PUSH1 0x0 DUP1 REVERT JUMPDEST POP PUSH2 0x98E PUSH2 0x1E80 JUMP JUMPDEST PUSH1 0x40 MLOAD PUSH2 0x99B SWAP2 SWAP1 PUSH2 0x2A91 JUMP JUMPDEST PUSH1 0x40 MLOAD DUP1 SWAP2 SUB SWAP1 RETURN JUMPDEST CALLVALUE DUP1 ISZERO PUSH2 0x9B0 JUMPI PUSH1 0x0 DUP1 REVERT JUMPDEST POP PUSH2 0x9CB PUSH1 0x4 DUP1 CALLDATASIZE SUB DUP2 ADD SWAP1 PUSH2 0x9C6 SWAP2 SWAP1 PUSH2 0x2C92 JUMP JUMPDEST PUSH2 0x1E8A JUMP JUMPDEST PUSH1 0x40 MLOAD PUSH2 0x9D8 SWAP2 SWAP1 PUSH2 0x2A91 JUMP JUMPDEST PUSH1 0x40 MLOAD DUP1 SWAP2 SUB SWAP1 RETURN JUMPDEST CALLVALUE DUP1 ISZERO PUSH2 0x9ED JUMPI PUSH1 0x0 DUP1 REVERT JUMPDEST POP PUSH2 0x9F6 PUSH2 0x1EA2 JUMP JUMPDEST PUSH1 0x40 MLOAD PUSH2 0xA03 SWAP2 SWAP1 PUSH2 0x306C JUMP JUMPDEST PUSH1 0x40 MLOAD DUP1 SWAP2 SUB SWAP1 RETURN JUMPDEST CALLVALUE DUP1 ISZERO PUSH2 0xA18 JUMPI PUSH1 0x0 DUP1 REVERT JUMPDEST POP PUSH2 0xA33 PUSH1 0x4 DUP1 CALLDATASIZE SUB DUP2 ADD SWAP1 PUSH2 0xA2E SWAP2 SWAP1 PUSH2 0x2C92 JUMP JUMPDEST PUSH2 0x1EC8 JUMP JUMPDEST STOP JUMPDEST CALLVALUE DUP1 ISZERO PUSH2 0xA41 JUMPI PUSH1 0x0 DUP1 REVERT JUMPDEST POP PUSH2 0xA4A PUSH2 0x1F4B JUMP JUMPDEST PUSH1 0x40 MLOAD PUSH2 0xA57 SWAP2 SWAP1 PUSH2 0x2A91 JUMP JUMPDEST PUSH1 0x40 MLOAD DUP1 SWAP2 SUB SWAP1 RETURN JUMPDEST CALLVALUE DUP1 ISZERO PUSH2 0xA6C JUMPI PUSH1 0x0 DUP1 REVERT JUMPDEST POP PUSH2 0xA75 PUSH2 0x1F51 JUMP JUMPDEST PUSH1 0x40 MLOAD PUSH2 0xA82 SWAP2 SWAP1 PUSH2 0x3096 JUMP JUMPDEST PUSH1 0x40 MLOAD DUP1 SWAP2 SUB SWAP1 RETURN JUMPDEST PUSH1 0x60 PUSH1 0x6 DUP1 SLOAD DUP1 PUSH1 0x20 MUL PUSH1 0x20 ADD PUSH1 0x40 MLOAD SWAP1 DUP2 ADD PUSH1 0x40 MSTORE DUP1 SWAP3 SWAP2 SWAP1 DUP2 DUP2 MSTORE PUSH1 0x20 ADD DUP3 DUP1 SLOAD DUP1 ISZERO PUSH2 0xAD9 JUMPI PUSH1 0x20 MUL DUP3 ADD SWAP2 SWAP1 PUSH1 0x0 MSTORE PUSH1 0x20 PUSH1 0x0 KECCAK256 SWAP1 JUMPDEST DUP2 SLOAD DUP2 MSTORE PUSH1 0x20 ADD SWAP1 PUSH1 0x1 ADD SWAP1 DUP1 DUP4 GT PUSH2 0xAC5 JUMPI JUMPDEST POP POP POP POP POP SWAP1 POP SWAP1 JUMP JUMPDEST PUSH2 0xAEB PUSH2 0x1F77 JUMP JUMPDEST PUSH2 0xAF3 PUSH2 0x1FC6 JUMP JUMPDEST PUSH2 0xAFB PUSH2 0x201E JUMP JUMPDEST JUMP JUMPDEST PUSH1 0x10 PUSH1 0x20 MSTORE DUP1 PUSH1 0x0 MSTORE PUSH1 0x40 PUSH1 0x0 KECCAK256 PUSH1 0x0 SWAP2 POP SWAP1 POP SLOAD DUP2 JUMP JUMPDEST PUSH1 0x9 SLOAD DUP2 JUMP JUMPDEST PUSH1 0xE SLOAD DUP2 JUMP JUMPDEST PUSH2 0xB29 PUSH2 0x2027 JUMP JUMPDEST PUSH2 0xB31 PUSH2 0x160C JUMP JUMPDEST ISZERO PUSH2 0xB68 JUMPI PUSH1 0x40 MLOAD PUSH32 0xF2A84B6300000000000000000000000000000000000000000000000000000000 DUP2 MSTORE PUSH1 0x4 ADD PUSH1 0x40 MLOAD DUP1 SWAP2 SUB SWAP1 REVERT JUMPDEST DUP1 PUSH1 0x4 DUP2 SWAP1 SSTORE POP POP JUMP JUMPDEST PUSH1 0xF SLOAD DUP2 JUMP JUMPDEST PUSH2 0xB80 PUSH2 0x2027 JUMP JUMPDEST DUP1 PUSH1 0xC DUP2 SWAP1 SSTORE POP POP JUMP JUMPDEST PUSH1 0x0 PUSH1 0xFF DUP3 AND SWAP1 POP SWAP2 SWAP1 POP JUMP JUMPDEST PUSH1 0x60 PUSH1 0x0 PUSH1 0x8 PUSH8 0xFFFFFFFFFFFFFFFF DUP2 GT ISZERO PUSH2 0xBB6 JUMPI PUSH2 0xBB5 PUSH2 0x30B1 JUMP JUMPDEST JUMPDEST PUSH1 0x40 MLOAD SWAP1 DUP1 DUP3 MSTORE DUP1 PUSH1 0x20 MUL PUSH1 0x20 ADD DUP3 ADD PUSH1 0x40 MSTORE DUP1 ISZERO PUSH2 0xBE4 JUMPI DUP2 PUSH1 0x20 ADD PUSH1 0x20 DUP3 MUL DUP1 CALLDATASIZE DUP4 CALLDATACOPY DUP1 DUP3 ADD SWAP2 POP POP SWAP1 POP JUMPDEST POP SWAP1 POP PUSH1 0x10 PUSH1 0x0 DUP1 DUP2 MSTORE PUSH1 0x20 ADD SWAP1 DUP2 MSTORE PUSH1 0x20 ADD PUSH1 0x0 KECCAK256 SLOAD DUP2 PUSH1 0x0 DUP2 MLOAD DUP2 LT PUSH2 0xC0F JUMPI PUSH2 0xC0E PUSH2 0x30E0 JUMP JUMPDEST JUMPDEST PUSH1 0x20 MUL PUSH1 0x20 ADD ADD DUP2 DUP2 MSTORE POP POP PUSH1 0x10 PUSH1 0x0 PUSH1 0x1 DUP2 MSTORE PUSH1 0x20 ADD SWAP1 DUP2 MSTORE PUSH1 0x20 ADD PUSH1 0x0 KECCAK256 SLOAD DUP2 PUSH1 0x1 DUP2 MLOAD DUP2 LT PUSH2 0xC44 JUMPI PUSH2 0xC43 PUSH2 0x30E0 JUMP JUMPDEST JUMPDEST PUSH1 0x20 MUL PUSH1 0x20 ADD ADD DUP2 DUP2 MSTORE POP POP PUSH1 0x10 PUSH1 0x0 PUSH1 0x2 DUP2 MSTORE PUSH1 0x20 ADD SWAP1 DUP2 MSTORE PUSH1 0x20 ADD PUSH1 0x0 KECCAK256 SLOAD DUP2 PUSH1 0x2 DUP2 MLOAD DUP2 LT PUSH2 0xC79 JUMPI PUSH2 0xC78 PUSH2 0x30E0 JUMP JUMPDEST JUMPDEST PUSH1 0x20 MUL PUSH1 0x20 ADD ADD DUP2 DUP2 MSTORE POP POP PUSH1 0x10 PUSH1 0x0 PUSH1 0x3 DUP2 MSTORE PUSH1 0x20 ADD SWAP1 DUP2 MSTORE PUSH1 0x20 ADD PUSH1 0x0 KECCAK256 SLOAD DUP2 PUSH1 0x3 DUP2 MLOAD DUP2 LT PUSH2 0xCAE JUMPI PUSH2 0xCAD PUSH2 0x30E0 JUMP JUMPDEST JUMPDEST PUSH1 0x20 MUL PUSH1 0x20 ADD ADD DUP2 DUP2 MSTORE POP POP PUSH1 0x10 PUSH1 0x0 PUSH1 0x4 DUP2 MSTORE PUSH1 0x20 ADD SWAP1 DUP2 MSTORE PUSH1 0x20 ADD PUSH1 0x0 KECCAK256 SLOAD DUP2 PUSH1 0x4 DUP2 MLOAD DUP2 LT PUSH2 0xCE3 JUMPI PUSH2 0xCE2 PUSH2 0x30E0 JUMP JUMPDEST JUMPDEST PUSH1 0x20 MUL PUSH1 0x20 ADD ADD DUP2 DUP2 MSTORE POP POP PUSH1 0x10 PUSH1 0x0 PUSH1 0x5 DUP2 MSTORE PUSH1 0x20 ADD SWAP1 DUP2 MSTORE PUSH1 0x20 ADD PUSH1 0x0 KECCAK256 SLOAD DUP2 PUSH1 0x5 DUP2 MLOAD DUP2 LT PUSH2 0xD18 JUMPI PUSH2 0xD17 PUSH2 0x30E0 JUMP JUMPDEST JUMPDEST PUSH1 0x20 MUL PUSH1 0x20 ADD ADD DUP2 DUP2 MSTORE POP POP PUSH1 0x10 PUSH1 0x0 PUSH1 0x6 DUP2 MSTORE PUSH1 0x20 ADD SWAP1 DUP2 MSTORE PUSH1 0x20 ADD PUSH1 0x0 KECCAK256 SLOAD DUP2 PUSH1 0x6 DUP2 MLOAD DUP2 LT PUSH2 0xD4D JUMPI PUSH2 0xD4C PUSH2 0x30E0 JUMP JUMPDEST JUMPDEST PUSH1 0x20 MUL PUSH1 0x20 ADD ADD DUP2 DUP2 MSTORE POP POP PUSH1 0x10 PUSH1 0x0 PUSH1 0x7 DUP2 MSTORE PUSH1 0x20 ADD SWAP1 DUP2 MSTORE PUSH1 0x20 ADD PUSH1 0x0 KECCAK256 SLOAD DUP2 PUSH1 0x7 DUP2 MLOAD DUP2 LT PUSH2 0xD82 JUMPI PUSH2 0xD81 PUSH2 0x30E0 JUMP JUMPDEST JUMPDEST PUSH1 0x20 MUL PUSH1 0x20 ADD ADD DUP2 DUP2 MSTORE POP POP DUP1 SWAP2 POP POP SWAP1 JUMP JUMPDEST PUSH2 0xD9D PUSH2 0x2027 JUMP JUMPDEST PUSH1 0x0 PUSH1 0x3 PUSH1 0x0 SWAP1 SLOAD SWAP1 PUSH2 0x100 EXP SWAP1 DIV PUSH20 0xFFFFFFFFFFFFFFFFFFFFFFFFFFFFFFFFFFFFFFFF AND PUSH20 0xFFFFFFFFFFFFFFFFFFFFFFFFFFFFFFFFFFFFFFFF AND DUP3 PUSH1 0x40 MLOAD PUSH2 0xDE5 SWAP1 PUSH2 0x3140 JUMP JUMPDEST PUSH1 0x0 PUSH1 0x40 MLOAD DUP1 DUP4 SUB DUP2 DUP6 DUP8 GAS CALL SWAP3 POP POP POP RETURNDATASIZE DUP1 PUSH1 0x0 DUP2 EQ PUSH2 0xE22 JUMPI PUSH1 0x40 MLOAD SWAP2 POP PUSH1 0x1F NOT PUSH1 0x3F RETURNDATASIZE ADD AND DUP3 ADD PUSH1 0x40 MSTORE RETURNDATASIZE DUP3 MSTORE RETURNDATASIZE PUSH1 0x0 PUSH1 0x20 DUP5 ADD RETURNDATACOPY PUSH2 0xE27 JUMP JUMPDEST PUSH1 0x60 SWAP2 POP JUMPDEST POP POP SWAP1 POP DUP1 PUSH2 0xE6B JUMPI PUSH1 0x40 MLOAD PUSH32 0x8C379A000000000000000000000000000000000000000000000000000000000 DUP2 MSTORE PUSH1 0x4 ADD PUSH2 0xE62 SWAP1 PUSH2 0x31B2 JUMP JUMPDEST PUSH1 0x40 MLOAD DUP1 SWAP2 SUB SWAP1 REVERT JUMPDEST POP POP JUMP JUMPDEST PUSH1 0x0 PUSH1 0xC SLOAD TIMESTAMP LT ISZERO SWAP1 POP SWAP1 JUMP JUMPDEST PUSH2 0xE84 PUSH2 0x2027 JUMP JUMPDEST DUP1 PUSH1 0xF DUP2 SWAP1 SSTORE POP POP JUMP JUMPDEST PUSH1 0x0 DUP1 PUSH1 0x10 PUSH1 0x0 PUSH1 0x7 DUP2 MSTORE PUSH1 0x20 ADD SWAP1 DUP2 MSTORE PUSH1 0x20 ADD PUSH1 0x0 KECCAK256 SLOAD PUSH1 0x10 PUSH1 0x0 PUSH1 0x6 DUP2 MSTORE PUSH1 0x20 ADD SWAP1 DUP2 MSTORE PUSH1 0x20 ADD PUSH1 0x0 KECCAK256 SLOAD PUSH1 0x10 PUSH1 0x0 PUSH1 0x5 DUP2 MSTORE PUSH1 0x20 ADD SWAP1 DUP2 MSTORE PUSH1 0x20 ADD PUSH1 0x0 KECCAK256 SLOAD PUSH1 0x10 PUSH1 0x0 PUSH1 0x4 DUP2 MSTORE PUSH1 0x20 ADD SWAP1 DUP2 MSTORE PUSH1 0x20 ADD PUSH1 0x0 KECCAK256 SLOAD PUSH1 0x10 PUSH1 0x0 PUSH1 0x3 DUP2 MSTORE PUSH1 0x20 ADD SWAP1 DUP2 MSTORE PUSH1 0x20 ADD PUSH1 0x0 KECCAK256 SLOAD PUSH1 0x10 PUSH1 0x0 PUSH1 0x2 DUP2 MSTORE PUSH1 0x20 ADD SWAP1 DUP2 MSTORE PUSH1 0x20 ADD PUSH1 0x0 KECCAK256 SLOAD PUSH1 0x10 PUSH1 0x0 PUSH1 0x1 DUP2 MSTORE PUSH1 0x20 ADD SWAP1 DUP2 MSTORE PUSH1 0x20 ADD PUSH1 0x0 KECCAK256 SLOAD PUSH1 0x10 PUSH1 0x0 DUP1 DUP2 MSTORE PUSH1 0x20 ADD SWAP1 DUP2 MSTORE PUSH1 0x20 ADD PUSH1 0x0 KECCAK256 SLOAD PUSH2 0xF42 SWAP2 SWAP1 PUSH2 0x3201 JUMP JUMPDEST PUSH2 0xF4C SWAP2 SWAP1 PUSH2 0x3201 JUMP JUMPDEST PUSH2 0xF56 SWAP2 SWAP1 PUSH2 0x3201 JUMP JUMPDEST PUSH2 0xF60 SWAP2 SWAP1 PUSH2 0x3201 JUMP JUMPDEST PUSH2 0xF6A SWAP2 SWAP1 PUSH2 0x3201 JUMP JUMPDEST PUSH2 0xF74 SWAP2 SWAP1 PUSH2 0x3201 JUMP JUMPDEST PUSH2 0xF7E SWAP2 SWAP1 PUSH2 0x3201 JUMP JUMPDEST SWAP1 POP DUP1 SWAP2 POP POP SWAP1 JUMP JUMPDEST PUSH2 0xF8F PUSH2 0x1F77 JUMP JUMPDEST PUSH2 0xF97 PUSH2 0x160C JUMP JUMPDEST PUSH2 0xFDC JUMPI PUSH1 0xB SLOAD TIMESTAMP PUSH1 0x40 MLOAD PUSH32 0x66803FC100000000000000000000000000000000000000000000000000000000 DUP2 MSTORE PUSH1 0x4 ADD PUSH2 0xFD3 SWAP3 SWAP2 SWAP1 PUSH2 0x3235 JUMP JUMPDEST PUSH1 0x40 MLOAD DUP1 SWAP2 SUB SWAP1 REVERT JUMPDEST PUSH1 0x0 CALLER DUP5 PUSH1 0x40 MLOAD PUSH1 0x20 ADD PUSH2 0xFF1 SWAP3 SWAP2 SWAP1 PUSH2 0x331E JUMP JUMPDEST PUSH1 0x40 MLOAD PUSH1 0x20 DUP2 DUP4 SUB SUB DUP2 MSTORE SWAP1 PUSH1 0x40 MSTORE DUP1 MLOAD SWAP1 PUSH1 0x20 ADD KECCAK256 SWAP1 POP PUSH2 0x1057 DUP4 DUP4 DUP1 DUP1 PUSH1 0x20 MUL PUSH1 0x20 ADD PUSH1 0x40 MLOAD SWAP1 DUP2 ADD PUSH1 0x40 MSTORE DUP1 SWAP4 SWAP3 SWAP2 SWAP1 DUP2 DUP2 MSTORE PUSH1 0x20 ADD DUP4 DUP4 PUSH1 0x20 MUL DUP1 DUP3 DUP5 CALLDATACOPY PUSH1 0x0 DUP2 DUP5 ADD MSTORE PUSH1 0x1F NOT PUSH1 0x1F DUP3 ADD AND SWAP1 POP DUP1 DUP4 ADD SWAP3 POP POP POP POP POP POP POP PUSH1 0xD SLOAD DUP4 PUSH2 0x20A5 JUMP JUMPDEST DUP1 PUSH2 0x10AC JUMPI POP PUSH2 0x10AB DUP4 DUP4 DUP1 DUP1 PUSH1 0x20 MUL PUSH1 0x20 ADD PUSH1 0x40 MLOAD SWAP1 DUP2 ADD PUSH1 0x40 MSTORE DUP1 SWAP4 SWAP3 SWAP2 SWAP1 DUP2 DUP2 MSTORE PUSH1 0x20 ADD DUP4 DUP4 PUSH1 0x20 MUL DUP1 DUP3 DUP5 CALLDATACOPY PUSH1 0x0 DUP2 DUP5 ADD MSTORE PUSH1 0x1F NOT PUSH1 0x1F DUP3 ADD AND SWAP1 POP DUP1 DUP4 ADD SWAP3 POP POP POP POP POP POP POP PUSH1 0xE SLOAD DUP4 PUSH2 0x20A5 JUMP JUMPDEST JUMPDEST PUSH2 0x10EB JUMPI PUSH1 0x40 MLOAD PUSH32 0x8C379A000000000000000000000000000000000000000000000000000000000 DUP2 MSTORE PUSH1 0x4 ADD PUSH2 0x10E2 SWAP1 PUSH2 0x33A1 JUMP JUMPDEST PUSH1 0x40 MLOAD DUP1 SWAP2 SUB SWAP1 REVERT JUMPDEST PUSH1 0x0 PUSH1 0x11 PUSH1 0x0 CALLER PUSH20 0xFFFFFFFFFFFFFFFFFFFFFFFFFFFFFFFFFFFFFFFF AND PUSH20 0xFFFFFFFFFFFFFFFFFFFFFFFFFFFFFFFFFFFFFFFF AND DUP2 MSTORE PUSH1 0x20 ADD SWAP1 DUP2 MSTORE PUSH1 0x20 ADD PUSH1 0x0 KECCAK256 SLOAD SWAP1 POP DUP5 PUSH1 0x1 DUP3 PUSH2 0x113D SWAP2 SWAP1 PUSH2 0x3201 JUMP JUMPDEST GT ISZERO PUSH2 0x117E JUMPI PUSH1 0x40 MLOAD PUSH32 0x8C379A000000000000000000000000000000000000000000000000000000000 DUP2 MSTORE PUSH1 0x4 ADD PUSH2 0x1175 SWAP1 PUSH2 0x340D JUMP JUMPDEST PUSH1 0x40 MLOAD DUP1 SWAP2 SUB SWAP1 REVERT JUMPDEST PUSH1 0x1 PUSH1 0x11 PUSH1 0x0 CALLER PUSH20 0xFFFFFFFFFFFFFFFFFFFFFFFFFFFFFFFFFFFFFFFF AND PUSH20 0xFFFFFFFFFFFFFFFFFFFFFFFFFFFFFFFFFFFFFFFF AND DUP2 MSTORE PUSH1 0x20 ADD SWAP1 DUP2 MSTORE PUSH1 0x20 ADD PUSH1 0x0 KECCAK256 PUSH1 0x0 DUP3 DUP3 SLOAD PUSH2 0x11CE SWAP2 SWAP1 PUSH2 0x3201 JUMP JUMPDEST SWAP3 POP POP DUP2 SWAP1 SSTORE POP PUSH2 0x11DE CALLER PUSH2 0x20BC JUMP JUMPDEST POP POP PUSH2 0x11E8 PUSH2 0x201E JUMP JUMPDEST POP POP POP JUMP JUMPDEST PUSH1 0xD SLOAD DUP2 JUMP JUMPDEST PUSH1 0x8 SLOAD DUP2 JUMP JUMPDEST PUSH2 0x1201 PUSH2 0x2027 JUMP JUMPDEST DUP1 PUSH1 0xA DUP2 SWAP1 SSTORE POP POP JUMP JUMPDEST PUSH2 0x1213 PUSH2 0x1F77 JUMP JUMPDEST PUSH2 0x121B PUSH2 0xE6F JUMP JUMPDEST PUSH2 0x1260 JUMPI PUSH1 0xC SLOAD TIMESTAMP PUSH1 0x40 MLOAD PUSH32 0x66803FC100000000000000000000000000000000000000000000000000000000 DUP2 MSTORE PUSH1 0x4 ADD PUSH2 0x1257 SWAP3 SWAP2 SWAP1 PUSH2 0x3235 JUMP JUMPDEST PUSH1 0x40 MLOAD DUP1 SWAP2 SUB SWAP1 REVERT JUMPDEST PUSH1 0x0 CALLER DUP5 PUSH1 0x40 MLOAD PUSH1 0x20 ADD PUSH2 0x1275 SWAP3 SWAP2 SWAP1 PUSH2 0x331E JUMP JUMPDEST PUSH1 0x40 MLOAD PUSH1 0x20 DUP2 DUP4 SUB SUB DUP2 MSTORE SWAP1 PUSH1 0x40 MSTORE DUP1 MLOAD SWAP1 PUSH1 0x20 ADD KECCAK256 SWAP1 POP PUSH2 0x12DB DUP4 DUP4 DUP1 DUP1 PUSH1 0x20 MUL PUSH1 0x20 ADD PUSH1 0x40 MLOAD SWAP1 DUP2 ADD PUSH1 0x40 MSTORE DUP1 SWAP4 SWAP3 SWAP2 SWAP1 DUP2 DUP2 MSTORE PUSH1 0x20 ADD DUP4 DUP4 PUSH1 0x20 MUL DUP1 DUP3 DUP5 CALLDATACOPY PUSH1 0x0 DUP2 DUP5 ADD MSTORE PUSH1 0x1F NOT PUSH1 0x1F DUP3 ADD AND SWAP1 POP DUP1 DUP4 ADD SWAP3 POP POP POP POP POP POP POP PUSH1 0xF SLOAD DUP4 PUSH2 0x20A5 JUMP JUMPDEST PUSH2 0x131A JUMPI PUSH1 0x40 MLOAD PUSH32 0x8C379A000000000000000000000000000000000000000000000000000000000 DUP2 MSTORE PUSH1 0x4 ADD PUSH2 0x1311 SWAP1 PUSH2 0x33A1 JUMP JUMPDEST PUSH1 0x40 MLOAD DUP1 SWAP2 SUB SWAP1 REVERT JUMPDEST PUSH1 0x0 PUSH1 0x12 PUSH1 0x0 CALLER PUSH20 0xFFFFFFFFFFFFFFFFFFFFFFFFFFFFFFFFFFFFFFFF AND PUSH20 0xFFFFFFFFFFFFFFFFFFFFFFFFFFFFFFFFFFFFFFFF AND DUP2 MSTORE PUSH1 0x20 ADD SWAP1 DUP2 MSTORE PUSH1 0x20 ADD PUSH1 0x0 KECCAK256 SLOAD SWAP1 POP DUP5 PUSH1 0x1 DUP3 PUSH2 0x136C SWAP2 SWAP1 PUSH2 0x3201 JUMP JUMPDEST GT ISZERO PUSH2 0x13AD JUMPI PUSH1 0x40 MLOAD PUSH32 0x8C379A000000000000000000000000000000000000000000000000000000000 DUP2 MSTORE PUSH1 0x4 ADD PUSH2 0x13A4 SWAP1 PUSH2 0x3479 JUMP JUMPDEST PUSH1 0x40 MLOAD DUP1 SWAP2 SUB SWAP1 REVERT JUMPDEST PUSH1 0x1 PUSH1 0x12 PUSH1 0x0 CALLER PUSH20 0xFFFFFFFFFFFFFFFFFFFFFFFFFFFFFFFFFFFFFFFF AND PUSH20 0xFFFFFFFFFFFFFFFFFFFFFFFFFFFFFFFFFFFFFFFF AND DUP2 MSTORE PUSH1 0x20 ADD SWAP1 DUP2 MSTORE PUSH1 0x20 ADD PUSH1 0x0 KECCAK256 PUSH1 0x0 DUP3 DUP3 SLOAD PUSH2 0x13FD SWAP2 SWAP1 PUSH2 0x3201 JUMP JUMPDEST SWAP3 POP POP DUP2 SWAP1 SSTORE POP PUSH2 0x140D CALLER PUSH2 0x2148 JUMP JUMPDEST POP POP PUSH2 0x1417 PUSH2 0x201E JUMP JUMPDEST POP POP POP JUMP JUMPDEST PUSH1 0x12 PUSH1 0x20 MSTORE DUP1 PUSH1 0x0 MSTORE PUSH1 0x40 PUSH1 0x0 KECCAK256 PUSH1 0x0 SWAP2 POP SWAP1 POP SLOAD DUP2 JUMP JUMPDEST PUSH2 0x143C PUSH2 0x2027 JUMP JUMPDEST DUP1 PUSH1 0xB DUP2 SWAP1 SSTORE POP POP JUMP JUMPDEST PUSH2 0x144E PUSH2 0x2027 JUMP JUMPDEST PUSH2 0x1458 PUSH1 0x0 PUSH2 0x2458 JUMP JUMPDEST JUMP JUMPDEST PUSH2 0x1462 PUSH2 0x2027 JUMP JUMPDEST PUSH1 0x0 PUSH1 0x3 PUSH1 0x0 SWAP1 SLOAD SWAP1 PUSH2 0x100 EXP SWAP1 DIV PUSH20 0xFFFFFFFFFFFFFFFFFFFFFFFFFFFFFFFFFFFFFFFF AND PUSH20 0xFFFFFFFFFFFFFFFFFFFFFFFFFFFFFFFFFFFFFFFF AND SELFBALANCE PUSH1 0x40 MLOAD PUSH2 0x14AA SWAP1 PUSH2 0x3140 JUMP JUMPDEST PUSH1 0x0 PUSH1 0x40 MLOAD DUP1 DUP4 SUB DUP2 DUP6 DUP8 GAS CALL SWAP3 POP POP POP RETURNDATASIZE DUP1 PUSH1 0x0 DUP2 EQ PUSH2 0x14E7 JUMPI PUSH1 0x40 MLOAD SWAP2 POP PUSH1 0x1F NOT PUSH1 0x3F RETURNDATASIZE ADD AND DUP3 ADD PUSH1 0x40 MSTORE RETURNDATASIZE DUP3 MSTORE RETURNDATASIZE PUSH1 0x0 PUSH1 0x20 DUP5 ADD RETURNDATACOPY PUSH2 0x14EC JUMP JUMPDEST PUSH1 0x60 SWAP2 POP JUMPDEST POP POP SWAP1 POP DUP1 PUSH2 0x1530 JUMPI PUSH1 0x40 MLOAD PUSH32 0x8C379A000000000000000000000000000000000000000000000000000000000 DUP2 MSTORE PUSH1 0x4 ADD PUSH2 0x1527 SWAP1 PUSH2 0x34E5 JUMP JUMPDEST PUSH1 0x40 MLOAD DUP1 SWAP2 SUB SWAP1 REVERT JUMPDEST POP JUMP JUMPDEST PUSH2 0x153B PUSH2 0x2027 JUMP JUMPDEST DUP1 PUSH1 0x3 PUSH1 0x0 PUSH2 0x100 EXP DUP2 SLOAD DUP2 PUSH20 0xFFFFFFFFFFFFFFFFFFFFFFFFFFFFFFFFFFFFFFFF MUL NOT AND SWAP1 DUP4 PUSH20 0xFFFFFFFFFFFFFFFFFFFFFFFFFFFFFFFFFFFFFFFF AND MUL OR SWAP1 SSTORE POP POP JUMP JUMPDEST PUSH1 0x0 PUSH1 0xA SLOAD TIMESTAMP LT ISZERO SWAP1 POP SWAP1 JUMP JUMPDEST PUSH1 0xC SLOAD DUP2 JUMP JUMPDEST PUSH1 0x0 DUP1 PUSH1 0x0 SWAP1 SLOAD SWAP1 PUSH2 0x100 EXP SWAP1 DIV PUSH20 0xFFFFFFFFFFFFFFFFFFFFFFFFFFFFFFFFFFFFFFFF AND SWAP1 POP SWAP1 JUMP JUMPDEST PUSH2 0x15C3 PUSH2 0x2027 JUMP JUMPDEST PUSH2 0x15CB PUSH2 0x160C JUMP JUMPDEST ISZERO PUSH2 0x1602 JUMPI PUSH1 0x40 MLOAD PUSH32 0xF2A84B6300000000000000000000000000000000000000000000000000000000 DUP2 MSTORE PUSH1 0x4 ADD PUSH1 0x40 MLOAD DUP1 SWAP2 SUB SWAP1 REVERT JUMPDEST DUP1 PUSH1 0x9 DUP2 SWAP1 SSTORE POP POP JUMP JUMPDEST PUSH1 0x0 PUSH1 0xB SLOAD TIMESTAMP LT ISZERO SWAP1 POP SWAP1 JUMP JUMPDEST PUSH1 0x7 DUP2 DUP2 SLOAD DUP2 LT PUSH2 0x1629 JUMPI PUSH1 0x0 DUP1 REVERT JUMPDEST SWAP1 PUSH1 0x0 MSTORE PUSH1 0x20 PUSH1 0x0 KECCAK256 ADD PUSH1 0x0 SWAP2 POP SWAP1 POP SLOAD DUP2 JUMP JUMPDEST PUSH2 0x1645 PUSH2 0x2027 JUMP JUMPDEST PUSH1 0x0 PUSH20 0xFFFFFFFFFFFFFFFFFFFFFFFFFFFFFFFFFFFFFFFF AND CALLER PUSH20 0xFFFFFFFFFFFFFFFFFFFFFFFFFFFFFFFFFFFFFFFF AND SUB PUSH2 0x16AB JUMPI PUSH1 0x40 MLOAD PUSH32 0x48AC165200000000000000000000000000000000000000000000000000000000 DUP2 MSTORE PUSH1 0x4 ADD PUSH1 0x40 MLOAD DUP1 SWAP2 SUB SWAP1 REVERT JUMPDEST DUP2 PUSH20 0xFFFFFFFFFFFFFFFFFFFFFFFFFFFFFFFFFFFFFFFF AND PUSH4 0xA9059CBB CALLER DUP4 PUSH1 0x40 MLOAD DUP4 PUSH4 0xFFFFFFFF AND PUSH1 0xE0 SHL DUP2 MSTORE PUSH1 0x4 ADD PUSH2 0x16E6 SWAP3 SWAP2 SWAP1 PUSH2 0x3505 JUMP JUMPDEST PUSH1 0x20 PUSH1 0x40 MLOAD DUP1 DUP4 SUB DUP2 PUSH1 0x0 DUP8 GAS CALL ISZERO DUP1 ISZERO PUSH2 0x1705 JUMPI RETURNDATASIZE PUSH1 0x0 DUP1 RETURNDATACOPY RETURNDATASIZE PUSH1 0x0 REVERT JUMPDEST POP POP POP POP PUSH1 0x40 MLOAD RETURNDATASIZE PUSH1 0x1F NOT PUSH1 0x1F DUP3 ADD AND DUP3 ADD DUP1 PUSH1 0x40 MSTORE POP DUP2 ADD SWAP1 PUSH2 0x1729 SWAP2 SWAP1 PUSH2 0x355A JUMP JUMPDEST POP POP POP JUMP JUMPDEST PUSH2 0x1736 PUSH2 0x2027 JUMP JUMPDEST DUP2 DUP2 SWAP1 POP DUP5 DUP5 SWAP1 POP EQ PUSH2 0x177E JUMPI PUSH1 0x40 MLOAD PUSH32 0x8C379A000000000000000000000000000000000000000000000000000000000 DUP2 MSTORE PUSH1 0x4 ADD PUSH2 0x1775 SWAP1 PUSH2 0x35F9 JUMP JUMPDEST PUSH1 0x40 MLOAD DUP1 SWAP2 SUB SWAP1 REVERT JUMPDEST PUSH1 0x0 JUMPDEST DUP3 DUP3 SWAP1 POP DUP2 LT ISZERO PUSH2 0x1A5A JUMPI PUSH1 0x1 ISZERO ISZERO ADDRESS PUSH20 0xFFFFFFFFFFFFFFFFFFFFFFFFFFFFFFFFFFFFFFFF AND PUSH4 0xCA6C261D DUP6 DUP6 DUP6 DUP2 DUP2 LT PUSH2 0x17BF JUMPI PUSH2 0x17BE PUSH2 0x30E0 JUMP JUMPDEST JUMPDEST SWAP1 POP PUSH1 0x20 MUL ADD PUSH1 0x20 DUP2 ADD SWAP1 PUSH2 0x17D4 SWAP2 SWAP1 PUSH2 0x2C92 JUMP JUMPDEST PUSH1 0x40 MLOAD DUP3 PUSH4 0xFFFFFFFF AND PUSH1 0xE0 SHL DUP2 MSTORE PUSH1 0x4 ADD PUSH2 0x17F0 SWAP2 SWAP1 PUSH2 0x2D39 JUMP JUMPDEST PUSH1 0x20 PUSH1 0x40 MLOAD DUP1 DUP4 SUB DUP2 DUP7 GAS STATICCALL ISZERO DUP1 ISZERO PUSH2 0x180D JUMPI RETURNDATASIZE PUSH1 0x0 DUP1 RETURNDATACOPY RETURNDATASIZE PUSH1 0x0 REVERT JUMPDEST POP POP POP POP PUSH1 0x40 MLOAD RETURNDATASIZE PUSH1 0x1F NOT PUSH1 0x1F DUP3 ADD AND DUP3 ADD DUP1 PUSH1 0x40 MSTORE POP DUP2 ADD SWAP1 PUSH2 0x1831 SWAP2 SWAP1 PUSH2 0x355A JUMP JUMPDEST ISZERO ISZERO SUB PUSH2 0x186A JUMPI PUSH1 0x40 MLOAD PUSH32 0x364EB9BF00000000000000000000000000000000000000000000000000000000 DUP2 MSTORE PUSH1 0x4 ADD PUSH1 0x40 MLOAD DUP1 SWAP2 SUB SWAP1 REVERT JUMPDEST PUSH1 0x0 PUSH2 0x189C DUP7 DUP7 DUP5 DUP2 DUP2 LT PUSH2 0x1882 JUMPI PUSH2 0x1881 PUSH2 0x30E0 JUMP JUMPDEST JUMPDEST SWAP1 POP PUSH1 0x20 MUL ADD PUSH1 0x20 DUP2 ADD SWAP1 PUSH2 0x1897 SWAP2 SWAP1 PUSH2 0x363E JUMP JUMPDEST PUSH2 0x251C JUMP JUMPDEST SWAP1 POP PUSH1 0x10 PUSH1 0x0 DUP8 DUP8 DUP6 DUP2 DUP2 LT PUSH2 0x18B5 JUMPI PUSH2 0x18B4 PUSH2 0x30E0 JUMP JUMPDEST JUMPDEST SWAP1 POP PUSH1 0x20 MUL ADD PUSH1 0x20 DUP2 ADD SWAP1 PUSH2 0x18CA SWAP2 SWAP1 PUSH2 0x363E JUMP JUMPDEST PUSH1 0x7 DUP2 GT ISZERO PUSH2 0x18DC JUMPI PUSH2 0x18DB PUSH2 0x366B JUMP JUMPDEST JUMPDEST DUP2 MSTORE PUSH1 0x20 ADD SWAP1 DUP2 MSTORE PUSH1 0x20 ADD PUSH1 0x0 KECCAK256 PUSH1 0x0 DUP2 SLOAD PUSH2 0x18F7 SWAP1 PUSH2 0x369A JUMP JUMPDEST SWAP2 SWAP1 POP DUP2 SWAP1 SSTORE POP PUSH1 0x2 PUSH1 0x0 SWAP1 SLOAD SWAP1 PUSH2 0x100 EXP SWAP1 DIV PUSH20 0xFFFFFFFFFFFFFFFFFFFFFFFFFFFFFFFFFFFFFFFF AND PUSH20 0xFFFFFFFFFFFFFFFFFFFFFFFFFFFFFFFFFFFFFFFF AND PUSH4 0x86EBF010 DUP6 DUP6 DUP6 DUP2 DUP2 LT PUSH2 0x194F JUMPI PUSH2 0x194E PUSH2 0x30E0 JUMP JUMPDEST JUMPDEST SWAP1 POP PUSH1 0x20 MUL ADD PUSH1 0x20 DUP2 ADD SWAP1 PUSH2 0x1964 SWAP2 SWAP1 PUSH2 0x2C92 JUMP JUMPDEST DUP4 DUP10 DUP10 DUP8 DUP2 DUP2 LT PUSH2 0x1978 JUMPI PUSH2 0x1977 PUSH2 0x30E0 JUMP JUMPDEST JUMPDEST SWAP1 POP PUSH1 0x20 MUL ADD PUSH1 0x20 DUP2 ADD SWAP1 PUSH2 0x198D SWAP2 SWAP1 PUSH2 0x363E JUMP JUMPDEST PUSH1 0x40 MLOAD DUP5 PUSH4 0xFFFFFFFF AND PUSH1 0xE0 SHL DUP2 MSTORE PUSH1 0x4 ADD PUSH2 0x19AB SWAP4 SWAP3 SWAP2 SWAP1 PUSH2 0x372A JUMP JUMPDEST PUSH1 0x0 PUSH1 0x40 MLOAD DUP1 DUP4 SUB DUP2 PUSH1 0x0 DUP8 DUP1 EXTCODESIZE ISZERO DUP1 ISZERO PUSH2 0x19C5 JUMPI PUSH1 0x0 DUP1 REVERT JUMPDEST POP GAS CALL ISZERO DUP1 ISZERO PUSH2 0x19D9 JUMPI RETURNDATASIZE PUSH1 0x0 DUP1 RETURNDATACOPY RETURNDATASIZE PUSH1 0x0 REVERT JUMPDEST POP POP POP POP DUP1 PUSH1 0x13 PUSH1 0x0 DUP7 DUP7 DUP7 DUP2 DUP2 LT PUSH2 0x19F5 JUMPI PUSH2 0x19F4 PUSH2 0x30E0 JUMP JUMPDEST JUMPDEST SWAP1 POP PUSH1 0x20 MUL ADD PUSH1 0x20 DUP2 ADD SWAP1 PUSH2 0x1A0A SWAP2 SWAP1 PUSH2 0x2C92 JUMP JUMPDEST PUSH20 0xFFFFFFFFFFFFFFFFFFFFFFFFFFFFFFFFFFFFFFFF AND PUSH20 0xFFFFFFFFFFFFFFFFFFFFFFFFFFFFFFFFFFFFFFFF AND DUP2 MSTORE PUSH1 0x20 ADD SWAP1 DUP2 MSTORE PUSH1 0x20 ADD PUSH1 0x0 KECCAK256 DUP2 SWAP1 SSTORE POP POP DUP1 PUSH2 0x1A53 SWAP1 PUSH2 0x369A JUMP JUMPDEST SWAP1 POP PUSH2 0x1781 JUMP JUMPDEST POP POP POP POP POP JUMP JUMPDEST PUSH1 0x0 PUSH1 0x9 SLOAD SWAP1 POP SWAP1 JUMP JUMPDEST PUSH2 0x1A73 PUSH2 0x2027 JUMP JUMPDEST PUSH2 0x1A7B PUSH2 0x160C JUMP JUMPDEST ISZERO PUSH2 0x1AB2 JUMPI PUSH1 0x40 MLOAD PUSH32 0xF2A84B6300000000000000000000000000000000000000000000000000000000 DUP2 MSTORE PUSH1 0x4 ADD PUSH1 0x40 MLOAD DUP1 SWAP2 SUB SWAP1 REVERT JUMPDEST DUP1 PUSH1 0x8 DUP2 SWAP1 SSTORE POP POP JUMP JUMPDEST PUSH1 0x0 DUP1 PUSH1 0x4 SLOAD SWAP1 POP PUSH1 0x10 PUSH1 0x0 PUSH1 0x7 DUP2 MSTORE PUSH1 0x20 ADD SWAP1 DUP2 MSTORE PUSH1 0x20 ADD PUSH1 0x0 KECCAK256 SLOAD PUSH1 0x10 PUSH1 0x0 PUSH1 0x6 DUP2 MSTORE PUSH1 0x20 ADD SWAP1 DUP2 MSTORE PUSH1 0x20 ADD PUSH1 0x0 KECCAK256 SLOAD PUSH1 0x10 PUSH1 0x0 PUSH1 0x5 DUP2 MSTORE PUSH1 0x20 ADD SWAP1 DUP2 MSTORE PUSH1 0x20 ADD PUSH1 0x0 KECCAK256 SLOAD PUSH1 0x10 PUSH1 0x0 PUSH1 0x4 DUP2 MSTORE PUSH1 0x20 ADD SWAP1 DUP2 MSTORE PUSH1 0x20 ADD PUSH1 0x0 KECCAK256 SLOAD PUSH1 0x10 PUSH1 0x0 PUSH1 0x3 DUP2 MSTORE PUSH1 0x20 ADD SWAP1 DUP2 MSTORE PUSH1 0x20 ADD PUSH1 0x0 KECCAK256 SLOAD PUSH1 0x10 PUSH1 0x0 PUSH1 0x2 DUP2 MSTORE PUSH1 0x20 ADD SWAP1 DUP2 MSTORE PUSH1 0x20 ADD PUSH1 0x0 KECCAK256 SLOAD PUSH1 0x10 PUSH1 0x0 PUSH1 0x1 DUP2 MSTORE PUSH1 0x20 ADD SWAP1 DUP2 MSTORE PUSH1 0x20 ADD PUSH1 0x0 KECCAK256 SLOAD PUSH1 0x10 PUSH1 0x0 DUP1 DUP2 MSTORE PUSH1 0x20 ADD SWAP1 DUP2 MSTORE PUSH1 0x20 ADD PUSH1 0x0 KECCAK256 SLOAD PUSH2 0x1B75 SWAP2 SWAP1 PUSH2 0x3201 JUMP JUMPDEST PUSH2 0x1B7F SWAP2 SWAP1 PUSH2 0x3201 JUMP JUMPDEST PUSH2 0x1B89 SWAP2 SWAP1 PUSH2 0x3201 JUMP JUMPDEST PUSH2 0x1B93 SWAP2 SWAP1 PUSH2 0x3201 JUMP JUMPDEST PUSH2 0x1B9D SWAP2 SWAP1 PUSH2 0x3201 JUMP JUMPDEST PUSH2 0x1BA7 SWAP2 SWAP1 PUSH2 0x3201 JUMP JUMPDEST PUSH2 0x1BB1 SWAP2 SWAP1 PUSH2 0x3201 JUMP JUMPDEST DUP2 PUSH2 0x1BBC SWAP2 SWAP1 PUSH2 0x3761 JUMP JUMPDEST SWAP1 POP DUP1 SWAP2 POP POP SWAP1 JUMP JUMPDEST PUSH2 0x1BCD PUSH2 0x2027 JUMP JUMPDEST DUP1 PUSH1 0xE DUP2 SWAP1 SSTORE POP POP JUMP JUMPDEST PUSH1 0x0 DUP1 PUSH1 0x0 SWAP1 POP PUSH1 0x0 PUSH1 0x13 PUSH1 0x0 DUP6 PUSH20 0xFFFFFFFFFFFFFFFFFFFFFFFFFFFFFFFFFFFFFFFF AND PUSH20 0xFFFFFFFFFFFFFFFFFFFFFFFFFFFFFFFFFFFFFFFF AND DUP2 MSTORE PUSH1 0x20 ADD SWAP1 DUP2 MSTORE PUSH1 0x20 ADD PUSH1 0x0 KECCAK256 SLOAD EQ PUSH2 0x1C2A JUMPI PUSH1 0x1 SWAP1 POP JUMPDEST DUP1 SWAP2 POP POP SWAP2 SWAP1 POP JUMP JUMPDEST PUSH2 0x1C3B PUSH2 0x2027 JUMP JUMPDEST PUSH1 0x8 DUP3 DUP3 SWAP1 POP EQ PUSH2 0x1C89 JUMPI DUP2 DUP2 SWAP1 POP PUSH1 0x8 PUSH1 0x40 MLOAD PUSH32 0x485D33A200000000000000000000000000000000000000000000000000000000 DUP2 MSTORE PUSH1 0x4 ADD PUSH2 0x1C80 SWAP3 SWAP2 SWAP1 PUSH2 0x37D0 JUMP JUMPDEST PUSH1 0x40 MLOAD DUP1 SWAP2 SUB SWAP1 REVERT JUMPDEST PUSH2 0x1C91 PUSH2 0x160C JUMP JUMPDEST ISZERO PUSH2 0x1CC8 JUMPI PUSH1 0x40 MLOAD PUSH32 0xF2A84B6300000000000000000000000000000000000000000000000000000000 DUP2 MSTORE PUSH1 0x4 ADD PUSH1 0x40 MLOAD DUP1 SWAP2 SUB SWAP1 REVERT JUMPDEST DUP2 DUP2 PUSH1 0x7 SWAP2 SWAP1 PUSH2 0x1CD9 SWAP3 SWAP2 SWAP1 PUSH2 0x28CB JUMP JUMPDEST POP POP POP JUMP JUMPDEST PUSH2 0x1CE6 PUSH2 0x2027 JUMP JUMPDEST DUP1 PUSH1 0xD DUP2 SWAP1 SSTORE POP POP JUMP JUMPDEST PUSH1 0xA SLOAD DUP2 JUMP JUMPDEST PUSH2 0x1CFE PUSH2 0x2027 JUMP JUMPDEST PUSH1 0x0 DUP1 JUMPDEST DUP4 DUP4 SWAP1 POP DUP2 LT ISZERO PUSH2 0x1D47 JUMPI DUP4 DUP4 DUP3 DUP2 DUP2 LT PUSH2 0x1D20 JUMPI PUSH2 0x1D1F PUSH2 0x30E0 JUMP JUMPDEST JUMPDEST SWAP1 POP PUSH1 0x20 MUL ADD CALLDATALOAD DUP3 PUSH2 0x1D32 SWAP2 SWAP1 PUSH2 0x3201 JUMP JUMPDEST SWAP2 POP DUP1 DUP1 PUSH2 0x1D3F SWAP1 PUSH2 0x369A JUMP JUMPDEST SWAP2 POP POP PUSH2 0x1D02 JUMP JUMPDEST POP PUSH1 0x64 DUP2 EQ PUSH2 0x1D90 JUMPI DUP1 PUSH1 0x64 PUSH1 0x40 MLOAD PUSH32 0x485D33A200000000000000000000000000000000000000000000000000000000 DUP2 MSTORE PUSH1 0x4 ADD PUSH2 0x1D87 SWAP3 SWAP2 SWAP1 PUSH2 0x3834 JUMP JUMPDEST PUSH1 0x40 MLOAD DUP1 SWAP2 SUB SWAP1 REVERT JUMPDEST PUSH1 0x8 DUP4 DUP4 SWAP1 POP EQ PUSH2 0x1DDE JUMPI DUP3 DUP3 SWAP1 POP PUSH1 0x8 PUSH1 0x40 MLOAD PUSH32 0x485D33A200000000000000000000000000000000000000000000000000000000 DUP2 MSTORE PUSH1 0x4 ADD PUSH2 0x1DD5 SWAP3 SWAP2 SWAP1 PUSH2 0x37D0 JUMP JUMPDEST PUSH1 0x40 MLOAD DUP1 SWAP2 SUB SWAP1 REVERT JUMPDEST PUSH2 0x1DE6 PUSH2 0x160C JUMP JUMPDEST ISZERO PUSH2 0x1E1D JUMPI PUSH1 0x40 MLOAD PUSH32 0xF2A84B6300000000000000000000000000000000000000000000000000000000 DUP2 MSTORE PUSH1 0x4 ADD PUSH1 0x40 MLOAD DUP1 SWAP2 SUB SWAP1 REVERT JUMPDEST DUP3 DUP3 PUSH1 0x6 SWAP2 SWAP1 PUSH2 0x1E2E SWAP3 SWAP2 SWAP1 PUSH2 0x28CB JUMP JUMPDEST POP POP POP POP JUMP JUMPDEST PUSH2 0x1E3C PUSH2 0x2027 JUMP JUMPDEST DUP1 PUSH1 0x2 PUSH1 0x0 PUSH2 0x100 EXP DUP2 SLOAD DUP2 PUSH20 0xFFFFFFFFFFFFFFFFFFFFFFFFFFFFFFFFFFFFFFFF MUL NOT AND SWAP1 DUP4 PUSH20 0xFFFFFFFFFFFFFFFFFFFFFFFFFFFFFFFFFFFFFFFF AND MUL OR SWAP1 SSTORE POP POP JUMP JUMPDEST PUSH1 0x0 PUSH1 0x4 SLOAD SWAP1 POP SWAP1 JUMP JUMPDEST PUSH1 0x11 PUSH1 0x20 MSTORE DUP1 PUSH1 0x0 MSTORE PUSH1 0x40 PUSH1 0x0 KECCAK256 PUSH1 0x0 SWAP2 POP SWAP1 POP SLOAD DUP2 JUMP JUMPDEST PUSH1 0x2 PUSH1 0x0 SWAP1 SLOAD SWAP1 PUSH2 0x100 EXP SWAP1 DIV PUSH20 0xFFFFFFFFFFFFFFFFFFFFFFFFFFFFFFFFFFFFFFFF AND DUP2 JUMP JUMPDEST PUSH2 0x1ED0 PUSH2 0x2027 JUMP JUMPDEST PUSH1 0x0 PUSH20 0xFFFFFFFFFFFFFFFFFFFFFFFFFFFFFFFFFFFFFFFF AND DUP2 PUSH20 0xFFFFFFFFFFFFFFFFFFFFFFFFFFFFFFFFFFFFFFFF AND SUB PUSH2 0x1F3F JUMPI PUSH1 0x40 MLOAD PUSH32 0x8C379A000000000000000000000000000000000000000000000000000000000 DUP2 MSTORE PUSH1 0x4 ADD PUSH2 0x1F36 SWAP1 PUSH2 0x38CF JUMP JUMPDEST PUSH1 0x40 MLOAD DUP1 SWAP2 SUB SWAP1 REVERT JUMPDEST PUSH2 0x1F48 DUP2 PUSH2 0x2458 JUMP JUMPDEST POP JUMP JUMPDEST PUSH1 0xB SLOAD DUP2 JUMP JUMPDEST PUSH1 0x3 PUSH1 0x0 SWAP1 SLOAD SWAP1 PUSH2 0x100 EXP SWAP1 DIV PUSH20 0xFFFFFFFFFFFFFFFFFFFFFFFFFFFFFFFFFFFFFFFF AND DUP2 JUMP JUMPDEST PUSH1 0x2 PUSH1 0x1 SLOAD SUB PUSH2 0x1FBC JUMPI PUSH1 0x40 MLOAD PUSH32 0x8C379A000000000000000000000000000000000000000000000000000000000 DUP2 MSTORE PUSH1 0x4 ADD PUSH2 0x1FB3 SWAP1 PUSH2 0x393B JUMP JUMPDEST PUSH1 0x40 MLOAD DUP1 SWAP2 SUB SWAP1 REVERT JUMPDEST PUSH1 0x2 PUSH1 0x1 DUP2 SWAP1 SSTORE POP JUMP JUMPDEST PUSH2 0x1FCE PUSH2 0x157F JUMP JUMPDEST PUSH2 0x2013 JUMPI PUSH1 0xA SLOAD TIMESTAMP PUSH1 0x40 MLOAD PUSH32 0x66803FC100000000000000000000000000000000000000000000000000000000 DUP2 MSTORE PUSH1 0x4 ADD PUSH2 0x200A SWAP3 SWAP2 SWAP1 PUSH2 0x3235 JUMP JUMPDEST PUSH1 0x40 MLOAD DUP1 SWAP2 SUB SWAP1 REVERT JUMPDEST PUSH2 0x201C CALLER PUSH2 0x20BC JUMP JUMPDEST JUMP JUMPDEST PUSH1 0x1 DUP1 DUP2 SWAP1 SSTORE POP JUMP JUMPDEST PUSH2 0x202F PUSH2 0x2757 JUMP JUMPDEST PUSH20 0xFFFFFFFFFFFFFFFFFFFFFFFFFFFFFFFFFFFFFFFF AND PUSH2 0x204D PUSH2 0x1592 JUMP JUMPDEST PUSH20 0xFFFFFFFFFFFFFFFFFFFFFFFFFFFFFFFFFFFFFFFF AND EQ PUSH2 0x20A3 JUMPI PUSH1 0x40 MLOAD PUSH32 0x8C379A000000000000000000000000000000000000000000000000000000000 DUP2 MSTORE PUSH1 0x4 ADD PUSH2 0x209A SWAP1 PUSH2 0x39A7 JUMP JUMPDEST PUSH1 0x40 MLOAD DUP1 SWAP2 SUB SWAP1 REVERT JUMPDEST JUMP JUMPDEST PUSH1 0x0 DUP3 PUSH2 0x20B2 DUP6 DUP5 PUSH2 0x275F JUMP JUMPDEST EQ SWAP1 POP SWAP4 SWAP3 POP POP POP JUMP JUMPDEST PUSH1 0x0 PUSH1 0x9 SLOAD GT PUSH2 0x20F8 JUMPI PUSH1 0x40 MLOAD PUSH32 0xC5FADBA600000000000000000000000000000000000000000000000000000000 DUP2 MSTORE PUSH1 0x4 ADD PUSH1 0x40 MLOAD DUP1 SWAP2 SUB SWAP1 REVERT JUMPDEST PUSH1 0x9 SLOAD CALLVALUE EQ PUSH2 0x213C JUMPI PUSH1 0x40 MLOAD PUSH32 0x8C379A000000000000000000000000000000000000000000000000000000000 DUP2 MSTORE PUSH1 0x4 ADD PUSH2 0x2133 SWAP1 PUSH2 0x3A39 JUMP JUMPDEST PUSH1 0x40 MLOAD DUP1 SWAP2 SUB SWAP1 REVERT JUMPDEST PUSH2 0x2145 DUP2 PUSH2 0x2148 JUMP JUMPDEST POP JUMP JUMPDEST ADDRESS PUSH20 0xFFFFFFFFFFFFFFFFFFFFFFFFFFFFFFFFFFFFFFFF AND PUSH4 0xDF477EAD PUSH1 0x40 MLOAD DUP2 PUSH4 0xFFFFFFFF AND PUSH1 0xE0 SHL DUP2 MSTORE PUSH1 0x4 ADD PUSH1 0x20 PUSH1 0x40 MLOAD DUP1 DUP4 SUB DUP2 DUP7 GAS STATICCALL ISZERO DUP1 ISZERO PUSH2 0x2193 JUMPI RETURNDATASIZE PUSH1 0x0 DUP1 RETURNDATACOPY RETURNDATASIZE PUSH1 0x0 REVERT JUMPDEST POP POP POP POP PUSH1 0x40 MLOAD RETURNDATASIZE PUSH1 0x1F NOT PUSH1 0x1F DUP3 ADD AND DUP3 ADD DUP1 PUSH1 0x40 MSTORE POP DUP2 ADD SWAP1 PUSH2 0x21B7 SWAP2 SWAP1 PUSH2 0x3A6E JUMP JUMPDEST ADDRESS PUSH20 0xFFFFFFFFFFFFFFFFFFFFFFFFFFFFFFFFFFFFFFFF AND PUSH4 0x46BF289F PUSH1 0x40 MLOAD DUP2 PUSH4 0xFFFFFFFF AND PUSH1 0xE0 SHL DUP2 MSTORE PUSH1 0x4 ADD PUSH1 0x20 PUSH1 0x40 MLOAD DUP1 DUP4 SUB DUP2 DUP7 GAS STATICCALL ISZERO DUP1 ISZERO PUSH2 0x2202 JUMPI RETURNDATASIZE PUSH1 0x0 DUP1 RETURNDATACOPY RETURNDATASIZE PUSH1 0x0 REVERT JUMPDEST POP POP POP POP PUSH1 0x40 MLOAD RETURNDATASIZE PUSH1 0x1F NOT PUSH1 0x1F DUP3 ADD AND DUP3 ADD DUP1 PUSH1 0x40 MSTORE POP DUP2 ADD SWAP1 PUSH2 0x2226 SWAP2 SWAP1 PUSH2 0x3A6E JUMP JUMPDEST LT PUSH2 0x2266 JUMPI PUSH1 0x40 MLOAD PUSH32 0x8C379A000000000000000000000000000000000000000000000000000000000 DUP2 MSTORE PUSH1 0x4 ADD PUSH2 0x225D SWAP1 PUSH2 0x3AE7 JUMP JUMPDEST PUSH1 0x40 MLOAD DUP1 SWAP2 SUB SWAP1 REVERT JUMPDEST PUSH1 0x0 ISZERO ISZERO ADDRESS PUSH20 0xFFFFFFFFFFFFFFFFFFFFFFFFFFFFFFFFFFFFFFFF AND PUSH4 0xCA6C261D DUP4 PUSH1 0x40 MLOAD DUP3 PUSH4 0xFFFFFFFF AND PUSH1 0xE0 SHL DUP2 MSTORE PUSH1 0x4 ADD PUSH2 0x22A3 SWAP2 SWAP1 PUSH2 0x2D39 JUMP JUMPDEST PUSH1 0x20 PUSH1 0x40 MLOAD DUP1 DUP4 SUB DUP2 DUP7 GAS STATICCALL ISZERO DUP1 ISZERO PUSH2 0x22C0 JUMPI RETURNDATASIZE PUSH1 0x0 DUP1 RETURNDATACOPY RETURNDATASIZE PUSH1 0x0 REVERT JUMPDEST POP POP POP POP PUSH1 0x40 MLOAD RETURNDATASIZE PUSH1 0x1F NOT PUSH1 0x1F DUP3 ADD AND DUP3 ADD DUP1 PUSH1 0x40 MSTORE POP DUP2 ADD SWAP1 PUSH2 0x22E4 SWAP2 SWAP1 PUSH2 0x355A JUMP JUMPDEST ISZERO ISZERO EQ PUSH2 0x2326 JUMPI PUSH1 0x40 MLOAD PUSH32 0x8C379A000000000000000000000000000000000000000000000000000000000 DUP2 MSTORE PUSH1 0x4 ADD PUSH2 0x231D SWAP1 PUSH2 0x3B53 JUMP JUMPDEST PUSH1 0x40 MLOAD DUP1 SWAP2 SUB SWAP1 REVERT JUMPDEST PUSH1 0x0 PUSH2 0x2330 PUSH2 0x27B5 JUMP JUMPDEST SWAP1 POP PUSH1 0x0 DUP2 PUSH1 0x7 DUP2 GT ISZERO PUSH2 0x2347 JUMPI PUSH2 0x2346 PUSH2 0x366B JUMP JUMPDEST JUMPDEST SWAP1 POP PUSH1 0x0 PUSH2 0x2354 DUP3 PUSH2 0x251C JUMP JUMPDEST SWAP1 POP PUSH1 0x10 PUSH1 0x0 DUP5 DUP2 MSTORE PUSH1 0x20 ADD SWAP1 DUP2 MSTORE PUSH1 0x20 ADD PUSH1 0x0 KECCAK256 PUSH1 0x0 DUP2 SLOAD PUSH2 0x2376 SWAP1 PUSH2 0x369A JUMP JUMPDEST SWAP2 SWAP1 POP DUP2 SWAP1 SSTORE POP PUSH1 0x2 PUSH1 0x0 SWAP1 SLOAD SWAP1 PUSH2 0x100 EXP SWAP1 DIV PUSH20 0xFFFFFFFFFFFFFFFFFFFFFFFFFFFFFFFFFFFFFFFF AND PUSH20 0xFFFFFFFFFFFFFFFFFFFFFFFFFFFFFFFFFFFFFFFF AND PUSH4 0x86EBF010 DUP6 DUP4 DUP6 PUSH1 0x40 MLOAD DUP5 PUSH4 0xFFFFFFFF AND PUSH1 0xE0 SHL DUP2 MSTORE PUSH1 0x4 ADD PUSH2 0x23DC SWAP4 SWAP3 SWAP2 SWAP1 PUSH2 0x372A JUMP JUMPDEST PUSH1 0x0 PUSH1 0x40 MLOAD DUP1 DUP4 SUB DUP2 PUSH1 0x0 DUP8 DUP1 EXTCODESIZE ISZERO DUP1 ISZERO PUSH2 0x23F6 JUMPI PUSH1 0x0 DUP1 REVERT JUMPDEST POP GAS CALL ISZERO DUP1 ISZERO PUSH2 0x240A JUMPI RETURNDATASIZE PUSH1 0x0 DUP1 RETURNDATACOPY RETURNDATASIZE PUSH1 0x0 REVERT JUMPDEST POP POP POP POP DUP1 PUSH1 0x13 PUSH1 0x0 DUP7 PUSH20 0xFFFFFFFFFFFFFFFFFFFFFFFFFFFFFFFFFFFFFFFF AND PUSH20 0xFFFFFFFFFFFFFFFFFFFFFFFFFFFFFFFFFFFFFFFF AND DUP2 MSTORE PUSH1 0x20 ADD SWAP1 DUP2 MSTORE PUSH1 0x20 ADD PUSH1 0x0 KECCAK256 DUP2 SWAP1 SSTORE POP POP POP POP POP JUMP JUMPDEST PUSH1 0x0 DUP1 PUSH1 0x0 SWAP1 SLOAD SWAP1 PUSH2 0x100 EXP SWAP1 DIV PUSH20 0xFFFFFFFFFFFFFFFFFFFFFFFFFFFFFFFFFFFFFFFF AND SWAP1 POP DUP2 PUSH1 0x0 DUP1 PUSH2 0x100 EXP DUP2 SLOAD DUP2 PUSH20 0xFFFFFFFFFFFFFFFFFFFFFFFFFFFFFFFFFFFFFFFF MUL NOT AND SWAP1 DUP4 PUSH20 0xFFFFFFFFFFFFFFFFFFFFFFFFFFFFFFFFFFFFFFFF AND MUL OR SWAP1 SSTORE POP DUP2 PUSH20 0xFFFFFFFFFFFFFFFFFFFFFFFFFFFFFFFFFFFFFFFF AND DUP2 PUSH20 0xFFFFFFFFFFFFFFFFFFFFFFFFFFFFFFFFFFFFFFFF AND PUSH32 0x8BE0079C531659141344CD1FD0A4F28419497F9722A3DAAFE3B4186F6B6457E0 PUSH1 0x40 MLOAD PUSH1 0x40 MLOAD DUP1 SWAP2 SUB SWAP1 LOG3 POP POP JUMP JUMPDEST PUSH1 0x0 DUP1 PUSH1 0x8 SLOAD PUSH1 0x10 PUSH1 0x0 PUSH1 0x7 DUP2 MSTORE PUSH1 0x20 ADD SWAP1 DUP2 MSTORE PUSH1 0x20 ADD PUSH1 0x0 KECCAK256 SLOAD PUSH1 0x10 PUSH1 0x0 PUSH1 0x6 DUP2 MSTORE PUSH1 0x20 ADD SWAP1 DUP2 MSTORE PUSH1 0x20 ADD PUSH1 0x0 KECCAK256 SLOAD PUSH1 0x10 PUSH1 0x0 PUSH1 0x5 DUP2 MSTORE PUSH1 0x20 ADD SWAP1 DUP2 MSTORE PUSH1 0x20 ADD PUSH1 0x0 KECCAK256 SLOAD PUSH1 0x10 PUSH1 0x0 PUSH1 0x4 DUP2 MSTORE PUSH1 0x20 ADD SWAP1 DUP2 MSTORE PUSH1 0x20 ADD PUSH1 0x0 KECCAK256 SLOAD PUSH1 0x10 PUSH1 0x0 PUSH1 0x3 DUP2 MSTORE PUSH1 0x20 ADD SWAP1 DUP2 MSTORE PUSH1 0x20 ADD PUSH1 0x0 KECCAK256 SLOAD PUSH1 0x10 PUSH1 0x0 PUSH1 0x2 DUP2 MSTORE PUSH1 0x20 ADD SWAP1 DUP2 MSTORE PUSH1 0x20 ADD PUSH1 0x0 KECCAK256 SLOAD PUSH1 0x10 PUSH1 0x0 PUSH1 0x1 DUP2 MSTORE PUSH1 0x20 ADD SWAP1 DUP2 MSTORE PUSH1 0x20 ADD PUSH1 0x0 KECCAK256 SLOAD PUSH1 0x10 PUSH1 0x0 DUP1 DUP2 MSTORE PUSH1 0x20 ADD SWAP1 DUP2 MSTORE PUSH1 0x20 ADD PUSH1 0x0 KECCAK256 SLOAD PUSH2 0x25D3 SWAP2 SWAP1 PUSH2 0x3201 JUMP JUMPDEST PUSH2 0x25DD SWAP2 SWAP1 PUSH2 0x3201 JUMP JUMPDEST PUSH2 0x25E7 SWAP2 SWAP1 PUSH2 0x3201 JUMP JUMPDEST PUSH2 0x25F1 SWAP2 SWAP1 PUSH2 0x3201 JUMP JUMPDEST PUSH2 0x25FB SWAP2 SWAP1 PUSH2 0x3201 JUMP JUMPDEST PUSH2 0x2605 SWAP2 SWAP1 PUSH2 0x3201 JUMP JUMPDEST PUSH2 0x260F SWAP2 SWAP1 PUSH2 0x3201 JUMP JUMPDEST PUSH2 0x2619 SWAP2 SWAP1 PUSH2 0x3201 JUMP JUMPDEST SWAP1 POP PUSH1 0x0 PUSH1 0x7 DUP5 PUSH1 0x7 DUP2 GT ISZERO PUSH2 0x2632 JUMPI PUSH2 0x2631 PUSH2 0x366B JUMP JUMPDEST JUMPDEST DUP2 SLOAD DUP2 LT PUSH2 0x2643 JUMPI PUSH2 0x2642 PUSH2 0x30E0 JUMP JUMPDEST JUMPDEST SWAP1 PUSH1 0x0 MSTORE PUSH1 0x20 PUSH1 0x0 KECCAK256 ADD SLOAD PUSH1 0x10 PUSH1 0x0 DUP7 PUSH1 0x7 DUP2 GT ISZERO PUSH2 0x2665 JUMPI PUSH2 0x2664 PUSH2 0x366B JUMP JUMPDEST JUMPDEST DUP2 MSTORE PUSH1 0x20 ADD SWAP1 DUP2 MSTORE PUSH1 0x20 ADD PUSH1 0x0 KECCAK256 SLOAD PUSH2 0x267E SWAP2 SWAP1 PUSH2 0x3201 JUMP JUMPDEST SWAP1 POP PUSH4 0xFFFFFFFF DUP2 GT ISZERO PUSH2 0x26C7 JUMPI PUSH1 0x40 MLOAD PUSH32 0x8C379A000000000000000000000000000000000000000000000000000000000 DUP2 MSTORE PUSH1 0x4 ADD PUSH2 0x26BE SWAP1 PUSH2 0x3BBF JUMP JUMPDEST PUSH1 0x40 MLOAD DUP1 SWAP2 SUB SWAP1 REVERT JUMPDEST PUSH1 0xFF DUP5 PUSH1 0x7 DUP2 GT ISZERO PUSH2 0x26DC JUMPI PUSH2 0x26DB PUSH2 0x366B JUMP JUMPDEST JUMPDEST GT ISZERO PUSH2 0x271D JUMPI PUSH1 0x40 MLOAD PUSH32 0x8C379A000000000000000000000000000000000000000000000000000000000 DUP2 MSTORE PUSH1 0x4 ADD PUSH2 0x2714 SWAP1 PUSH2 0x3C2B JUMP JUMPDEST PUSH1 0x40 MLOAD DUP1 SWAP2 SUB SWAP1 REVERT JUMPDEST DUP4 PUSH1 0x7 DUP2 GT ISZERO PUSH2 0x2730 JUMPI PUSH2 0x272F PUSH2 0x366B JUMP JUMPDEST JUMPDEST PUSH1 0x8 DUP3 SWAP1 SHL PUSH1 0x28 DUP5 SWAP1 SHL PUSH2 0x2744 SWAP2 SWAP1 PUSH2 0x3201 JUMP JUMPDEST PUSH2 0x274E SWAP2 SWAP1 PUSH2 0x3201 JUMP JUMPDEST SWAP3 POP POP POP SWAP2 SWAP1 POP JUMP JUMPDEST PUSH1 0x0 CALLER SWAP1 POP SWAP1 JUMP JUMPDEST PUSH1 0x0 DUP1 DUP3 SWAP1 POP PUSH1 0x0 JUMPDEST DUP5 MLOAD DUP2 LT ISZERO PUSH2 0x27AA JUMPI PUSH2 0x2795 DUP3 DUP7 DUP4 DUP2 MLOAD DUP2 LT PUSH2 0x2788 JUMPI PUSH2 0x2787 PUSH2 0x30E0 JUMP JUMPDEST JUMPDEST PUSH1 0x20 MUL PUSH1 0x20 ADD ADD MLOAD PUSH2 0x2889 JUMP JUMPDEST SWAP2 POP DUP1 DUP1 PUSH2 0x27A2 SWAP1 PUSH2 0x369A JUMP JUMPDEST SWAP2 POP POP PUSH2 0x2768 JUMP JUMPDEST POP DUP1 SWAP2 POP POP SWAP3 SWAP2 POP POP JUMP JUMPDEST PUSH1 0x0 DUP1 PUSH1 0x0 SWAP1 POP PUSH1 0x5 PUSH1 0x0 DUP2 SLOAD DUP1 SWAP3 SWAP2 SWAP1 PUSH2 0x27CF SWAP1 PUSH2 0x369A JUMP JUMPDEST SWAP2 SWAP1 POP SSTORE POP PUSH1 0x0 PUSH1 0x1 PUSH1 0x64 TIMESTAMP CALLER PUSH1 0x5 SLOAD PUSH1 0x40 MLOAD PUSH1 0x20 ADD PUSH2 0x27F1 SWAP4 SWAP3 SWAP2 SWAP1 PUSH2 0x3C4B JUMP JUMPDEST PUSH1 0x40 MLOAD PUSH1 0x20 DUP2 DUP4 SUB SUB DUP2 MSTORE SWAP1 PUSH1 0x40 MSTORE DUP1 MLOAD SWAP1 PUSH1 0x20 ADD KECCAK256 PUSH1 0x0 SHR PUSH2 0x2814 SWAP2 SWAP1 PUSH2 0x3CB7 JUMP JUMPDEST PUSH2 0x281E SWAP2 SWAP1 PUSH2 0x3201 JUMP JUMPDEST SWAP1 POP PUSH1 0x0 DUP1 JUMPDEST PUSH1 0x6 DUP1 SLOAD SWAP1 POP DUP2 LT ISZERO PUSH2 0x287F JUMPI PUSH1 0x6 DUP2 DUP2 SLOAD DUP2 LT PUSH2 0x2845 JUMPI PUSH2 0x2844 PUSH2 0x30E0 JUMP JUMPDEST JUMPDEST SWAP1 PUSH1 0x0 MSTORE PUSH1 0x20 PUSH1 0x0 KECCAK256 ADD SLOAD DUP3 PUSH2 0x285B SWAP2 SWAP1 PUSH2 0x3201 JUMP JUMPDEST SWAP2 POP DUP2 DUP4 GT PUSH2 0x286C JUMPI DUP1 SWAP4 POP PUSH2 0x287F JUMP JUMPDEST DUP1 DUP1 PUSH2 0x2877 SWAP1 PUSH2 0x369A JUMP JUMPDEST SWAP2 POP POP PUSH2 0x2824 JUMP JUMPDEST POP DUP3 SWAP4 POP POP POP POP SWAP1 JUMP JUMPDEST PUSH1 0x0 DUP2 DUP4 LT PUSH2 0x28A1 JUMPI PUSH2 0x289C DUP3 DUP5 PUSH2 0x28B4 JUMP JUMPDEST PUSH2 0x28AC JUMP JUMPDEST PUSH2 0x28AB DUP4 DUP4 PUSH2 0x28B4 JUMP JUMPDEST JUMPDEST SWAP1 POP SWAP3 SWAP2 POP POP JUMP JUMPDEST PUSH1 0x0 DUP3 PUSH1 0x0 MSTORE DUP2 PUSH1 0x20 MSTORE PUSH1 0x40 PUSH1 0x0 KECCAK256 SWAP1 POP SWAP3 SWAP2 POP POP JUMP JUMPDEST DUP3 DUP1 SLOAD DUP3 DUP3 SSTORE SWAP1 PUSH1 0x0 MSTORE PUSH1 0x20 PUSH1 0x0 KECCAK256 SWAP1 DUP2 ADD SWAP3 DUP3 ISZERO PUSH2 0x2907 JUMPI SWAP2 PUSH1 0x20 MUL DUP3 ADD JUMPDEST DUP3 DUP2 GT ISZERO PUSH2 0x2906 JUMPI DUP3 CALLDATALOAD DUP3 SSTORE SWAP2 PUSH1 0x20 ADD SWAP2 SWAP1 PUSH1 0x1 ADD SWAP1 PUSH2 0x28EB JUMP JUMPDEST JUMPDEST POP SWAP1 POP PUSH2 0x2914 SWAP2 SWAP1 PUSH2 0x2918 JUMP JUMPDEST POP SWAP1 JUMP JUMPDEST JUMPDEST DUP1 DUP3 GT ISZERO PUSH2 0x2931 JUMPI PUSH1 0x0 DUP2 PUSH1 0x0 SWAP1 SSTORE POP PUSH1 0x1 ADD PUSH2 0x2919 JUMP JUMPDEST POP SWAP1 JUMP JUMPDEST PUSH1 0x0 DUP2 MLOAD SWAP1 POP SWAP2 SWAP1 POP JUMP JUMPDEST PUSH1 0x0 DUP3 DUP3 MSTORE PUSH1 0x20 DUP3 ADD SWAP1 POP SWAP3 SWAP2 POP POP JUMP JUMPDEST PUSH1 0x0 DUP2 SWAP1 POP PUSH1 0x20 DUP3 ADD SWAP1 POP SWAP2 SWAP1 POP JUMP JUMPDEST PUSH1 0x0 DUP2 SWAP1 POP SWAP2 SWAP1 POP JUMP JUMPDEST PUSH2 0x2974 DUP2 PUSH2 0x2961 JUMP JUMPDEST DUP3 MSTORE POP POP JUMP JUMPDEST PUSH1 0x0 PUSH2 0x2986 DUP4 DUP4 PUSH2 0x296B JUMP JUMPDEST PUSH1 0x20 DUP4 ADD SWAP1 POP SWAP3 SWAP2 POP POP JUMP JUMPDEST PUSH1 0x0 PUSH1 0x20 DUP3 ADD SWAP1 POP SWAP2 SWAP1 POP JUMP JUMPDEST PUSH1 0x0 PUSH2 0x29AA DUP3 PUSH2 0x2935 JUMP JUMPDEST PUSH2 0x29B4 DUP2 DUP6 PUSH2 0x2940 JUMP JUMPDEST SWAP4 POP PUSH2 0x29BF DUP4 PUSH2 0x2951 JUMP JUMPDEST DUP1 PUSH1 0x0 JUMPDEST DUP4 DUP2 LT ISZERO PUSH2 0x29F0 JUMPI DUP2 MLOAD PUSH2 0x29D7 DUP9 DUP3 PUSH2 0x297A JUMP JUMPDEST SWAP8 POP PUSH2 0x29E2 DUP4 PUSH2 0x2992 JUMP JUMPDEST SWAP3 POP POP PUSH1 0x1 DUP2 ADD SWAP1 POP PUSH2 0x29C3 JUMP JUMPDEST POP DUP6 SWAP4 POP POP POP POP SWAP3 SWAP2 POP POP JUMP JUMPDEST PUSH1 0x0 PUSH1 0x20 DUP3 ADD SWAP1 POP DUP2 DUP2 SUB PUSH1 0x0 DUP4 ADD MSTORE PUSH2 0x2A17 DUP2 DUP5 PUSH2 0x299F JUMP JUMPDEST SWAP1 POP SWAP3 SWAP2 POP POP JUMP JUMPDEST PUSH1 0x0 DUP1 REVERT JUMPDEST PUSH1 0x0 DUP1 REVERT JUMPDEST PUSH2 0x2A32 DUP2 PUSH2 0x2961 JUMP JUMPDEST DUP2 EQ PUSH2 0x2A3D JUMPI PUSH1 0x0 DUP1 REVERT JUMPDEST POP JUMP JUMPDEST PUSH1 0x0 DUP2 CALLDATALOAD SWAP1 POP PUSH2 0x2A4F DUP2 PUSH2 0x2A29 JUMP JUMPDEST SWAP3 SWAP2 POP POP JUMP JUMPDEST PUSH1 0x0 PUSH1 0x20 DUP3 DUP5 SUB SLT ISZERO PUSH2 0x2A6B JUMPI PUSH2 0x2A6A PUSH2 0x2A1F JUMP JUMPDEST JUMPDEST PUSH1 0x0 PUSH2 0x2A79 DUP5 DUP3 DUP6 ADD PUSH2 0x2A40 JUMP JUMPDEST SWAP2 POP POP SWAP3 SWAP2 POP POP JUMP JUMPDEST PUSH2 0x2A8B DUP2 PUSH2 0x2961 JUMP JUMPDEST DUP3 MSTORE POP POP JUMP JUMPDEST PUSH1 0x0 PUSH1 0x20 DUP3 ADD SWAP1 POP PUSH2 0x2AA6 PUSH1 0x0 DUP4 ADD DUP5 PUSH2 0x2A82 JUMP JUMPDEST SWAP3 SWAP2 POP POP JUMP JUMPDEST PUSH1 0x0 DUP2 SWAP1 POP SWAP2 SWAP1 POP JUMP JUMPDEST PUSH2 0x2ABF DUP2 PUSH2 0x2AAC JUMP JUMPDEST DUP3 MSTORE POP POP JUMP JUMPDEST PUSH1 0x0 PUSH1 0x20 DUP3 ADD SWAP1 POP PUSH2 0x2ADA PUSH1 0x0 DUP4 ADD DUP5 PUSH2 0x2AB6 JUMP JUMPDEST SWAP3 SWAP2 POP POP JUMP JUMPDEST PUSH1 0x0 DUP2 ISZERO ISZERO SWAP1 POP SWAP2 SWAP1 POP JUMP JUMPDEST PUSH2 0x2AF5 DUP2 PUSH2 0x2AE0 JUMP JUMPDEST DUP3 MSTORE POP POP JUMP JUMPDEST PUSH1 0x0 PUSH1 0x20 DUP3 ADD SWAP1 POP PUSH2 0x2B10 PUSH1 0x0 DUP4 ADD DUP5 PUSH2 0x2AEC JUMP JUMPDEST SWAP3 SWAP2 POP POP JUMP JUMPDEST PUSH2 0x2B1F DUP2 PUSH2 0x2AAC JUMP JUMPDEST DUP2 EQ PUSH2 0x2B2A JUMPI PUSH1 0x0 DUP1 REVERT JUMPDEST POP JUMP JUMPDEST PUSH1 0x0 DUP2 CALLDATALOAD SWAP1 POP PUSH2 0x2B3C DUP2 PUSH2 0x2B16 JUMP JUMPDEST SWAP3 SWAP2 POP POP JUMP JUMPDEST PUSH1 0x0 PUSH1 0x20 DUP3 DUP5 SUB SLT ISZERO PUSH2 0x2B58 JUMPI PUSH2 0x2B57 PUSH2 0x2A1F JUMP JUMPDEST JUMPDEST PUSH1 0x0 PUSH2 0x2B66 DUP5 DUP3 DUP6 ADD PUSH2 0x2B2D JUMP JUMPDEST SWAP2 POP POP SWAP3 SWAP2 POP POP JUMP JUMPDEST PUSH1 0x0 DUP1 REVERT JUMPDEST PUSH1 0x0 DUP1 REVERT JUMPDEST PUSH1 0x0 DUP1 REVERT JUMPDEST PUSH1 0x0 DUP1 DUP4 PUSH1 0x1F DUP5 ADD SLT PUSH2 0x2B94 JUMPI PUSH2 0x2B93 PUSH2 0x2B6F JUMP JUMPDEST JUMPDEST DUP3 CALLDATALOAD SWAP1 POP PUSH8 0xFFFFFFFFFFFFFFFF DUP2 GT ISZERO PUSH2 0x2BB1 JUMPI PUSH2 0x2BB0 PUSH2 0x2B74 JUMP JUMPDEST JUMPDEST PUSH1 0x20 DUP4 ADD SWAP2 POP DUP4 PUSH1 0x20 DUP3 MUL DUP4 ADD GT ISZERO PUSH2 0x2BCD JUMPI PUSH2 0x2BCC PUSH2 0x2B79 JUMP JUMPDEST JUMPDEST SWAP3 POP SWAP3 SWAP1 POP JUMP JUMPDEST PUSH1 0x0 DUP1 PUSH1 0x0 PUSH1 0x40 DUP5 DUP7 SUB SLT ISZERO PUSH2 0x2BED JUMPI PUSH2 0x2BEC PUSH2 0x2A1F JUMP JUMPDEST JUMPDEST PUSH1 0x0 PUSH2 0x2BFB DUP7 DUP3 DUP8 ADD PUSH2 0x2A40 JUMP JUMPDEST SWAP4 POP POP PUSH1 0x20 DUP5 ADD CALLDATALOAD PUSH8 0xFFFFFFFFFFFFFFFF DUP2 GT ISZERO PUSH2 0x2C1C JUMPI PUSH2 0x2C1B PUSH2 0x2A24 JUMP JUMPDEST JUMPDEST PUSH2 0x2C28 DUP7 DUP3 DUP8 ADD PUSH2 0x2B7E JUMP JUMPDEST SWAP3 POP SWAP3 POP POP SWAP3 POP SWAP3 POP SWAP3 JUMP JUMPDEST PUSH1 0x0 PUSH20 0xFFFFFFFFFFFFFFFFFFFFFFFFFFFFFFFFFFFFFFFF DUP3 AND SWAP1 POP SWAP2 SWAP1 POP JUMP JUMPDEST PUSH1 0x0 PUSH2 0x2C5F DUP3 PUSH2 0x2C34 JUMP JUMPDEST SWAP1 POP SWAP2 SWAP1 POP JUMP JUMPDEST PUSH2 0x2C6F DUP2 PUSH2 0x2C54 JUMP JUMPDEST DUP2 EQ PUSH2 0x2C7A JUMPI PUSH1 0x0 DUP1 REVERT JUMPDEST POP JUMP JUMPDEST PUSH1 0x0 DUP2 CALLDATALOAD SWAP1 POP PUSH2 0x2C8C DUP2 PUSH2 0x2C66 JUMP JUMPDEST SWAP3 SWAP2 POP POP JUMP JUMPDEST PUSH1 0x0 PUSH1 0x20 DUP3 DUP5 SUB SLT ISZERO PUSH2 0x2CA8 JUMPI PUSH2 0x2CA7 PUSH2 0x2A1F JUMP JUMPDEST JUMPDEST PUSH1 0x0 PUSH2 0x2CB6 DUP5 DUP3 DUP6 ADD PUSH2 0x2C7D JUMP JUMPDEST SWAP2 POP POP SWAP3 SWAP2 POP POP JUMP JUMPDEST PUSH1 0x0 PUSH2 0x2CCA DUP3 PUSH2 0x2C34 JUMP JUMPDEST SWAP1 POP SWAP2 SWAP1 POP JUMP JUMPDEST PUSH2 0x2CDA DUP2 PUSH2 0x2CBF JUMP JUMPDEST DUP2 EQ PUSH2 0x2CE5 JUMPI PUSH1 0x0 DUP1 REVERT JUMPDEST POP JUMP JUMPDEST PUSH1 0x0 DUP2 CALLDATALOAD SWAP1 POP PUSH2 0x2CF7 DUP2 PUSH2 0x2CD1 JUMP JUMPDEST SWAP3 SWAP2 POP POP JUMP JUMPDEST PUSH1 0x0 PUSH1 0x20 DUP3 DUP5 SUB SLT ISZERO PUSH2 0x2D13 JUMPI PUSH2 0x2D12 PUSH2 0x2A1F JUMP JUMPDEST JUMPDEST PUSH1 0x0 PUSH2 0x2D21 DUP5 DUP3 DUP6 ADD PUSH2 0x2CE8 JUMP JUMPDEST SWAP2 POP POP SWAP3 SWAP2 POP POP JUMP JUMPDEST PUSH2 0x2D33 DUP2 PUSH2 0x2C54 JUMP JUMPDEST DUP3 MSTORE POP POP JUMP JUMPDEST PUSH1 0x0 PUSH1 0x20 DUP3 ADD SWAP1 POP PUSH2 0x2D4E PUSH1 0x0 DUP4 ADD DUP5 PUSH2 0x2D2A JUMP JUMPDEST SWAP3 SWAP2 POP POP JUMP JUMPDEST PUSH1 0x0 PUSH2 0x2D5F DUP3 PUSH2 0x2C54 JUMP JUMPDEST SWAP1 POP SWAP2 SWAP1 POP JUMP JUMPDEST PUSH2 0x2D6F DUP2 PUSH2 0x2D54 JUMP JUMPDEST DUP2 EQ PUSH2 0x2D7A JUMPI PUSH1 0x0 DUP1 REVERT JUMPDEST POP JUMP JUMPDEST PUSH1 0x0 DUP2 CALLDATALOAD SWAP1 POP PUSH2 0x2D8C DUP2 PUSH2 0x2D66 JUMP JUMPDEST SWAP3 SWAP2 POP POP JUMP JUMPDEST PUSH1 0x0 DUP1 PUSH1 0x40 DUP4 DUP6 SUB SLT ISZERO PUSH2 0x2DA9 JUMPI PUSH2 0x2DA8 PUSH2 0x2A1F JUMP JUMPDEST JUMPDEST PUSH1 0x0 PUSH2 0x2DB7 DUP6 DUP3 DUP7 ADD PUSH2 0x2D7D JUMP JUMPDEST SWAP3 POP POP PUSH1 0x20 PUSH2 0x2DC8 DUP6 DUP3 DUP7 ADD PUSH2 0x2A40 JUMP JUMPDEST SWAP2 POP POP SWAP3 POP SWAP3 SWAP1 POP JUMP JUMPDEST PUSH1 0x0 DUP1 DUP4 PUSH1 0x1F DUP5 ADD SLT PUSH2 0x2DE8 JUMPI PUSH2 0x2DE7 PUSH2 0x2B6F JUMP JUMPDEST JUMPDEST DUP3 CALLDATALOAD SWAP1 POP PUSH8 0xFFFFFFFFFFFFFFFF DUP2 GT ISZERO PUSH2 0x2E05 JUMPI PUSH2 0x2E04 PUSH2 0x2B74 JUMP JUMPDEST JUMPDEST PUSH1 0x20 DUP4 ADD SWAP2 POP DUP4 PUSH1 0x20 DUP3 MUL DUP4 ADD GT ISZERO PUSH2 0x2E21 JUMPI PUSH2 0x2E20 PUSH2 0x2B79 JUMP JUMPDEST JUMPDEST SWAP3 POP SWAP3 SWAP1 POP JUMP JUMPDEST PUSH1 0x0 DUP1 DUP4 PUSH1 0x1F DUP5 ADD SLT PUSH2 0x2E3E JUMPI PUSH2 0x2E3D PUSH2 0x2B6F JUMP JUMPDEST JUMPDEST DUP3 CALLDATALOAD SWAP1 POP PUSH8 0xFFFFFFFFFFFFFFFF DUP2 GT ISZERO PUSH2 0x2E5B JUMPI PUSH2 0x2E5A PUSH2 0x2B74 JUMP JUMPDEST JUMPDEST PUSH1 0x20 DUP4 ADD SWAP2 POP DUP4 PUSH1 0x20 DUP3 MUL DUP4 ADD GT ISZERO PUSH2 0x2E77 JUMPI PUSH2 0x2E76 PUSH2 0x2B79 JUMP JUMPDEST JUMPDEST SWAP3 POP SWAP3 SWAP1 POP JUMP JUMPDEST PUSH1 0x0 DUP1 PUSH1 0x0 DUP1 PUSH1 0x40 DUP6 DUP8 SUB SLT ISZERO PUSH2 0x2E98 JUMPI PUSH2 0x2E97 PUSH2 0x2A1F JUMP JUMPDEST JUMPDEST PUSH1 0x0 DUP6 ADD CALLDATALOAD PUSH8 0xFFFFFFFFFFFFFFFF DUP2 GT ISZERO PUSH2 0x2EB6 JUMPI PUSH2 0x2EB5 PUSH2 0x2A24 JUMP JUMPDEST JUMPDEST PUSH2 0x2EC2 DUP8 DUP3 DUP9 ADD PUSH2 0x2DD2 JUMP JUMPDEST SWAP5 POP SWAP5 POP POP PUSH1 0x20 DUP6 ADD CALLDATALOAD PUSH8 0xFFFFFFFFFFFFFFFF DUP2 GT ISZERO PUSH2 0x2EE5 JUMPI PUSH2 0x2EE4 PUSH2 0x2A24 JUMP JUMPDEST JUMPDEST PUSH2 0x2EF1 DUP8 DUP3 DUP9 ADD PUSH2 0x2E28 JUMP JUMPDEST SWAP3 POP SWAP3 POP POP SWAP3 SWAP6 SWAP2 SWAP5 POP SWAP3 POP JUMP JUMPDEST PUSH1 0x0 DUP1 DUP4 PUSH1 0x1F DUP5 ADD SLT PUSH2 0x2F15 JUMPI PUSH2 0x2F14 PUSH2 0x2B6F JUMP JUMPDEST JUMPDEST DUP3 CALLDATALOAD SWAP1 POP PUSH8 0xFFFFFFFFFFFFFFFF DUP2 GT ISZERO PUSH2 0x2F32 JUMPI PUSH2 0x2F31 PUSH2 0x2B74 JUMP JUMPDEST JUMPDEST PUSH1 0x20 DUP4 ADD SWAP2 POP DUP4 PUSH1 0x20 DUP3 MUL DUP4 ADD GT ISZERO PUSH2 0x2F4E JUMPI PUSH2 0x2F4D PUSH2 0x2B79 JUMP JUMPDEST JUMPDEST SWAP3 POP SWAP3 SWAP1 POP JUMP JUMPDEST PUSH1 0x0 DUP1 PUSH1 0x20 DUP4 DUP6 SUB SLT ISZERO PUSH2 0x2F6C JUMPI PUSH2 0x2F6B PUSH2 0x2A1F JUMP JUMPDEST JUMPDEST PUSH1 0x0 DUP4 ADD CALLDATALOAD PUSH8 0xFFFFFFFFFFFFFFFF DUP2 GT ISZERO PUSH2 0x2F8A JUMPI PUSH2 0x2F89 PUSH2 0x2A24 JUMP JUMPDEST JUMPDEST PUSH2 0x2F96 DUP6 DUP3 DUP7 ADD PUSH2 0x2EFF JUMP JUMPDEST SWAP3 POP SWAP3 POP POP SWAP3 POP SWAP3 SWAP1 POP JUMP JUMPDEST PUSH1 0x0 PUSH2 0x2FAD DUP3 PUSH2 0x2C54 JUMP JUMPDEST SWAP1 POP SWAP2 SWAP1 POP JUMP JUMPDEST PUSH2 0x2FBD DUP2 PUSH2 0x2FA2 JUMP JUMPDEST DUP2 EQ PUSH2 0x2FC8 JUMPI PUSH1 0x0 DUP1 REVERT JUMPDEST POP JUMP JUMPDEST PUSH1 0x0 DUP2 CALLDATALOAD SWAP1 POP PUSH2 0x2FDA DUP2 PUSH2 0x2FB4 JUMP JUMPDEST SWAP3 SWAP2 POP POP JUMP JUMPDEST PUSH1 0x0 PUSH1 0x20 DUP3 DUP5 SUB SLT ISZERO PUSH2 0x2FF6 JUMPI PUSH2 0x2FF5 PUSH2 0x2A1F JUMP JUMPDEST JUMPDEST PUSH1 0x0 PUSH2 0x3004 DUP5 DUP3 DUP6 ADD PUSH2 0x2FCB JUMP JUMPDEST SWAP2 POP POP SWAP3 SWAP2 POP POP JUMP JUMPDEST PUSH1 0x0 DUP2 SWAP1 POP SWAP2 SWAP1 POP JUMP JUMPDEST PUSH1 0x0 PUSH2 0x3032 PUSH2 0x302D PUSH2 0x3028 DUP5 PUSH2 0x2C34 JUMP JUMPDEST PUSH2 0x300D JUMP JUMPDEST PUSH2 0x2C34 JUMP JUMPDEST SWAP1 POP SWAP2 SWAP1 POP JUMP JUMPDEST PUSH1 0x0 PUSH2 0x3044 DUP3 PUSH2 0x3017 JUMP JUMPDEST SWAP1 POP SWAP2 SWAP1 POP JUMP JUMPDEST PUSH1 0x0 PUSH2 0x3056 DUP3 PUSH2 0x3039 JUMP JUMPDEST SWAP1 POP SWAP2 SWAP1 POP JUMP JUMPDEST PUSH2 0x3066 DUP2 PUSH2 0x304B JUMP JUMPDEST DUP3 MSTORE POP POP JUMP JUMPDEST PUSH1 0x0 PUSH1 0x20 DUP3 ADD SWAP1 POP PUSH2 0x3081 PUSH1 0x0 DUP4 ADD DUP5 PUSH2 0x305D JUMP JUMPDEST SWAP3 SWAP2 POP POP JUMP JUMPDEST PUSH2 0x3090 DUP2 PUSH2 0x2CBF JUMP JUMPDEST DUP3 MSTORE POP POP JUMP JUMPDEST PUSH1 0x0 PUSH1 0x20 DUP3 ADD SWAP1 POP PUSH2 0x30AB PUSH1 0x0 DUP4 ADD DUP5 PUSH2 0x3087 JUMP JUMPDEST SWAP3 SWAP2 POP POP JUMP JUMPDEST PUSH32 0x4E487B7100000000000000000000000000000000000000000000000000000000 PUSH1 0x0 MSTORE PUSH1 0x41 PUSH1 0x4 MSTORE PUSH1 0x24 PUSH1 0x0 REVERT JUMPDEST PUSH32 0x4E487B7100000000000000000000000000000000000000000000000000000000 PUSH1 0x0 MSTORE PUSH1 0x32 PUSH1 0x4 MSTORE PUSH1 0x24 PUSH1 0x0 REVERT JUMPDEST PUSH1 0x0 DUP2 SWAP1 POP SWAP3 SWAP2 POP POP JUMP JUMPDEST POP JUMP JUMPDEST PUSH1 0x0 PUSH2 0x312A PUSH1 0x0 DUP4 PUSH2 0x310F JUMP JUMPDEST SWAP2 POP PUSH2 0x3135 DUP3 PUSH2 0x311A JUMP JUMPDEST PUSH1 0x0 DUP3 ADD SWAP1 POP SWAP2 SWAP1 POP JUMP JUMPDEST PUSH1 0x0 PUSH2 0x314B DUP3 PUSH2 0x311D JUMP JUMPDEST SWAP2 POP DUP2 SWAP1 POP SWAP2 SWAP1 POP JUMP JUMPDEST PUSH1 0x0 DUP3 DUP3 MSTORE PUSH1 0x20 DUP3 ADD SWAP1 POP SWAP3 SWAP2 POP POP JUMP JUMPDEST PUSH32 0x776974686472617720776173206E6F742073756363657366756C6C0000000000 PUSH1 0x0 DUP3 ADD MSTORE POP JUMP JUMPDEST PUSH1 0x0 PUSH2 0x319C PUSH1 0x1B DUP4 PUSH2 0x3155 JUMP JUMPDEST SWAP2 POP PUSH2 0x31A7 DUP3 PUSH2 0x3166 JUMP JUMPDEST PUSH1 0x20 DUP3 ADD SWAP1 POP SWAP2 SWAP1 POP JUMP JUMPDEST PUSH1 0x0 PUSH1 0x20 DUP3 ADD SWAP1 POP DUP2 DUP2 SUB PUSH1 0x0 DUP4 ADD MSTORE PUSH2 0x31CB DUP2 PUSH2 0x318F JUMP JUMPDEST SWAP1 POP SWAP2 SWAP1 POP JUMP JUMPDEST PUSH32 0x4E487B7100000000000000000000000000000000000000000000000000000000 PUSH1 0x0 MSTORE PUSH1 0x11 PUSH1 0x4 MSTORE PUSH1 0x24 PUSH1 0x0 REVERT JUMPDEST PUSH1 0x0 PUSH2 0x320C DUP3 PUSH2 0x2961 JUMP JUMPDEST SWAP2 POP PUSH2 0x3217 DUP4 PUSH2 0x2961 JUMP JUMPDEST SWAP3 POP DUP3 DUP3 ADD SWAP1 POP DUP1 DUP3 GT ISZERO PUSH2 0x322F JUMPI PUSH2 0x322E PUSH2 0x31D2 JUMP JUMPDEST JUMPDEST SWAP3 SWAP2 POP POP JUMP JUMPDEST PUSH1 0x0 PUSH1 0x40 DUP3 ADD SWAP1 POP PUSH2 0x324A PUSH1 0x0 DUP4 ADD DUP6 PUSH2 0x2A82 JUMP JUMPDEST PUSH2 0x3257 PUSH1 0x20 DUP4 ADD DUP5 PUSH2 0x2A82 JUMP JUMPDEST SWAP4 SWAP3 POP POP POP JUMP JUMPDEST PUSH1 0x0 DUP2 PUSH1 0x60 SHL SWAP1 POP SWAP2 SWAP1 POP JUMP JUMPDEST PUSH1 0x0 PUSH2 0x3276 DUP3 PUSH2 0x325E JUMP JUMPDEST SWAP1 POP SWAP2 SWAP1 POP JUMP JUMPDEST PUSH1 0x0 PUSH2 0x3288 DUP3 PUSH2 0x326B JUMP JUMPDEST SWAP1 POP SWAP2 SWAP1 POP JUMP JUMPDEST PUSH2 0x32A0 PUSH2 0x329B DUP3 PUSH2 0x2C54 JUMP JUMPDEST PUSH2 0x327D JUMP JUMPDEST DUP3 MSTORE POP POP JUMP JUMPDEST PUSH1 0x0 DUP2 SWAP1 POP SWAP3 SWAP2 POP POP JUMP JUMPDEST PUSH32 0x3A00000000000000000000000000000000000000000000000000000000000000 PUSH1 0x0 DUP3 ADD MSTORE POP JUMP JUMPDEST PUSH1 0x0 PUSH2 0x32E7 PUSH1 0x1 DUP4 PUSH2 0x32A6 JUMP JUMPDEST SWAP2 POP PUSH2 0x32F2 DUP3 PUSH2 0x32B1 JUMP JUMPDEST PUSH1 0x1 DUP3 ADD SWAP1 POP SWAP2 SWAP1 POP JUMP JUMPDEST PUSH1 0x0 DUP2 SWAP1 POP SWAP2 SWAP1 POP JUMP JUMPDEST PUSH2 0x3318 PUSH2 0x3313 DUP3 PUSH2 0x2961 JUMP JUMPDEST PUSH2 0x32FD JUMP JUMPDEST DUP3 MSTORE POP POP JUMP JUMPDEST PUSH1 0x0 PUSH2 0x332A DUP3 DUP6 PUSH2 0x328F JUMP JUMPDEST PUSH1 0x14 DUP3 ADD SWAP2 POP PUSH2 0x3339 DUP3 PUSH2 0x32DA JUMP JUMPDEST SWAP2 POP PUSH2 0x3345 DUP3 DUP5 PUSH2 0x3307 JUMP JUMPDEST PUSH1 0x20 DUP3 ADD SWAP2 POP DUP2 SWAP1 POP SWAP4 SWAP3 POP POP POP JUMP JUMPDEST PUSH32 0x496E76616C69642070726F6F662E000000000000000000000000000000000000 PUSH1 0x0 DUP3 ADD MSTORE POP JUMP JUMPDEST PUSH1 0x0 PUSH2 0x338B PUSH1 0xE DUP4 PUSH2 0x3155 JUMP JUMPDEST SWAP2 POP PUSH2 0x3396 DUP3 PUSH2 0x3355 JUMP JUMPDEST PUSH1 0x20 DUP3 ADD SWAP1 POP SWAP2 SWAP1 POP JUMP JUMPDEST PUSH1 0x0 PUSH1 0x20 DUP3 ADD SWAP1 POP DUP2 DUP2 SUB PUSH1 0x0 DUP4 ADD MSTORE PUSH2 0x33BA DUP2 PUSH2 0x337E JUMP JUMPDEST SWAP1 POP SWAP2 SWAP1 POP JUMP JUMPDEST PUSH32 0x4D696E74696E67206D6F7265207468616E20616C6C6F7765642E000000000000 PUSH1 0x0 DUP3 ADD MSTORE POP JUMP JUMPDEST PUSH1 0x0 PUSH2 0x33F7 PUSH1 0x1A DUP4 PUSH2 0x3155 JUMP JUMPDEST SWAP2 POP PUSH2 0x3402 DUP3 PUSH2 0x33C1 JUMP JUMPDEST PUSH1 0x20 DUP3 ADD SWAP1 POP SWAP2 SWAP1 POP JUMP JUMPDEST PUSH1 0x0 PUSH1 0x20 DUP3 ADD SWAP1 POP DUP2 DUP2 SUB PUSH1 0x0 DUP4 ADD MSTORE PUSH2 0x3426 DUP2 PUSH2 0x33EA JUMP JUMPDEST SWAP1 POP SWAP2 SWAP1 POP JUMP JUMPDEST PUSH32 0x436C61696D696E67206D6F7265207468616E20616C6C6F7765642E0000000000 PUSH1 0x0 DUP3 ADD MSTORE POP JUMP JUMPDEST PUSH1 0x0 PUSH2 0x3463 PUSH1 0x1B DUP4 PUSH2 0x3155 JUMP JUMPDEST SWAP2 POP PUSH2 0x346E DUP3 PUSH2 0x342D JUMP JUMPDEST PUSH1 0x20 DUP3 ADD SWAP1 POP SWAP2 SWAP1 POP JUMP JUMPDEST PUSH1 0x0 PUSH1 0x20 DUP3 ADD SWAP1 POP DUP2 DUP2 SUB PUSH1 0x0 DUP4 ADD MSTORE PUSH2 0x3492 DUP2 PUSH2 0x3456 JUMP JUMPDEST SWAP1 POP SWAP2 SWAP1 POP JUMP JUMPDEST PUSH32 0x776974686472617720616C6C20776173206E6F742073756363657366756C6C00 PUSH1 0x0 DUP3 ADD MSTORE POP JUMP JUMPDEST PUSH1 0x0 PUSH2 0x34CF PUSH1 0x1F DUP4 PUSH2 0x3155 JUMP JUMPDEST SWAP2 POP PUSH2 0x34DA DUP3 PUSH2 0x3499 JUMP JUMPDEST PUSH1 0x20 DUP3 ADD SWAP1 POP SWAP2 SWAP1 POP JUMP JUMPDEST PUSH1 0x0 PUSH1 0x20 DUP3 ADD SWAP1 POP DUP2 DUP2 SUB PUSH1 0x0 DUP4 ADD MSTORE PUSH2 0x34FE DUP2 PUSH2 0x34C2 JUMP JUMPDEST SWAP1 POP SWAP2 SWAP1 POP JUMP JUMPDEST PUSH1 0x0 PUSH1 0x40 DUP3 ADD SWAP1 POP PUSH2 0x351A PUSH1 0x0 DUP4 ADD DUP6 PUSH2 0x2D2A JUMP JUMPDEST PUSH2 0x3527 PUSH1 0x20 DUP4 ADD DUP5 PUSH2 0x2A82 JUMP JUMPDEST SWAP4 SWAP3 POP POP POP JUMP JUMPDEST PUSH2 0x3537 DUP2 PUSH2 0x2AE0 JUMP JUMPDEST DUP2 EQ PUSH2 0x3542 JUMPI PUSH1 0x0 DUP1 REVERT JUMPDEST POP JUMP JUMPDEST PUSH1 0x0 DUP2 MLOAD SWAP1 POP PUSH2 0x3554 DUP2 PUSH2 0x352E JUMP JUMPDEST SWAP3 SWAP2 POP POP JUMP JUMPDEST PUSH1 0x0 PUSH1 0x20 DUP3 DUP5 SUB SLT ISZERO PUSH2 0x3570 JUMPI PUSH2 0x356F PUSH2 0x2A1F JUMP JUMPDEST JUMPDEST PUSH1 0x0 PUSH2 0x357E DUP5 DUP3 DUP6 ADD PUSH2 0x3545 JUMP JUMPDEST SWAP2 POP POP SWAP3 SWAP2 POP POP JUMP JUMPDEST PUSH32 0x4172726179732073686F756C642068617665207468652073616D652073697A65 PUSH1 0x0 DUP3 ADD MSTORE PUSH32 0x2E00000000000000000000000000000000000000000000000000000000000000 PUSH1 0x20 DUP3 ADD MSTORE POP JUMP JUMPDEST PUSH1 0x0 PUSH2 0x35E3 PUSH1 0x21 DUP4 PUSH2 0x3155 JUMP JUMPDEST SWAP2 POP PUSH2 0x35EE DUP3 PUSH2 0x3587 JUMP JUMPDEST PUSH1 0x40 DUP3 ADD SWAP1 POP SWAP2 SWAP1 POP JUMP JUMPDEST PUSH1 0x0 PUSH1 0x20 DUP3 ADD SWAP1 POP DUP2 DUP2 SUB PUSH1 0x0 DUP4 ADD MSTORE PUSH2 0x3612 DUP2 PUSH2 0x35D6 JUMP JUMPDEST SWAP1 POP SWAP2 SWAP1 POP JUMP JUMPDEST PUSH1 0x8 DUP2 LT PUSH2 0x3626 JUMPI PUSH1 0x0 DUP1 REVERT JUMPDEST POP JUMP JUMPDEST PUSH1 0x0 DUP2 CALLDATALOAD SWAP1 POP PUSH2 0x3638 DUP2 PUSH2 0x3619 JUMP JUMPDEST SWAP3 SWAP2 POP POP JUMP JUMPDEST PUSH1 0x0 PUSH1 0x20 DUP3 DUP5 SUB SLT ISZERO PUSH2 0x3654 JUMPI PUSH2 0x3653 PUSH2 0x2A1F JUMP JUMPDEST JUMPDEST PUSH1 0x0 PUSH2 0x3662 DUP5 DUP3 DUP6 ADD PUSH2 0x3629 JUMP JUMPDEST SWAP2 POP POP SWAP3 SWAP2 POP POP JUMP JUMPDEST PUSH32 0x4E487B7100000000000000000000000000000000000000000000000000000000 PUSH1 0x0 MSTORE PUSH1 0x21 PUSH1 0x4 MSTORE PUSH1 0x24 PUSH1 0x0 REVERT JUMPDEST PUSH1 0x0 PUSH2 0x36A5 DUP3 PUSH2 0x2961 JUMP JUMPDEST SWAP2 POP PUSH32 0xFFFFFFFFFFFFFFFFFFFFFFFFFFFFFFFFFFFFFFFFFFFFFFFFFFFFFFFFFFFFFFFF DUP3 SUB PUSH2 0x36D7 JUMPI PUSH2 0x36D6 PUSH2 0x31D2 JUMP JUMPDEST JUMPDEST PUSH1 0x1 DUP3 ADD SWAP1 POP SWAP2 SWAP1 POP JUMP JUMPDEST PUSH1 0x8 DUP2 LT PUSH2 0x36F3 JUMPI PUSH2 0x36F2 PUSH2 0x366B JUMP JUMPDEST JUMPDEST POP JUMP JUMPDEST PUSH1 0x0 DUP2 SWAP1 POP PUSH2 0x3704 DUP3 PUSH2 0x36E2 JUMP JUMPDEST SWAP2 SWAP1 POP JUMP JUMPDEST PUSH1 0x0 PUSH2 0x3714 DUP3 PUSH2 0x36F6 JUMP JUMPDEST SWAP1 POP SWAP2 SWAP1 POP JUMP JUMPDEST PUSH2 0x3724 DUP2 PUSH2 0x3709 JUMP JUMPDEST DUP3 MSTORE POP POP JUMP JUMPDEST PUSH1 0x0 PUSH1 0x60 DUP3 ADD SWAP1 POP PUSH2 0x373F PUSH1 0x0 DUP4 ADD DUP7 PUSH2 0x2D2A JUMP JUMPDEST PUSH2 0x374C PUSH1 0x20 DUP4 ADD DUP6 PUSH2 0x2A82 JUMP JUMPDEST PUSH2 0x3759 PUSH1 0x40 DUP4 ADD DUP5 PUSH2 0x371B JUMP JUMPDEST SWAP5 SWAP4 POP POP POP POP JUMP JUMPDEST PUSH1 0x0 PUSH2 0x376C DUP3 PUSH2 0x2961 JUMP JUMPDEST SWAP2 POP PUSH2 0x3777 DUP4 PUSH2 0x2961 JUMP JUMPDEST SWAP3 POP DUP3 DUP3 SUB SWAP1 POP DUP2 DUP2 GT ISZERO PUSH2 0x378F JUMPI PUSH2 0x378E PUSH2 0x31D2 JUMP JUMPDEST JUMPDEST SWAP3 SWAP2 POP POP JUMP JUMPDEST PUSH1 0x0 DUP2 SWAP1 POP SWAP2 SWAP1 POP JUMP JUMPDEST PUSH1 0x0 PUSH2 0x37BA PUSH2 0x37B5 PUSH2 0x37B0 DUP5 PUSH2 0x3795 JUMP JUMPDEST PUSH2 0x300D JUMP JUMPDEST PUSH2 0x2961 JUMP JUMPDEST SWAP1 POP SWAP2 SWAP1 POP JUMP JUMPDEST PUSH2 0x37CA DUP2 PUSH2 0x379F JUMP JUMPDEST DUP3 MSTORE POP POP JUMP JUMPDEST PUSH1 0x0 PUSH1 0x40 DUP3 ADD SWAP1 POP PUSH2 0x37E5 PUSH1 0x0 DUP4 ADD DUP6 PUSH2 0x2A82 JUMP JUMPDEST PUSH2 0x37F2 PUSH1 0x20 DUP4 ADD DUP5 PUSH2 0x37C1 JUMP JUMPDEST SWAP4 SWAP3 POP POP POP JUMP JUMPDEST PUSH1 0x0 DUP2 SWAP1 POP SWAP2 SWAP1 POP JUMP JUMPDEST PUSH1 0x0 PUSH2 0x381E PUSH2 0x3819 PUSH2 0x3814 DUP5 PUSH2 0x37F9 JUMP JUMPDEST PUSH2 0x300D JUMP JUMPDEST PUSH2 0x2961 JUMP JUMPDEST SWAP1 POP SWAP2 SWAP1 POP JUMP JUMPDEST PUSH2 0x382E DUP2 PUSH2 0x3803 JUMP JUMPDEST DUP3 MSTORE POP POP JUMP JUMPDEST PUSH1 0x0 PUSH1 0x40 DUP3 ADD SWAP1 POP PUSH2 0x3849 PUSH1 0x0 DUP4 ADD DUP6 PUSH2 0x2A82 JUMP JUMPDEST PUSH2 0x3856 PUSH1 0x20 DUP4 ADD DUP5 PUSH2 0x3825 JUMP JUMPDEST SWAP4 SWAP3 POP POP POP JUMP JUMPDEST PUSH32 0x4F776E61626C653A206E6577206F776E657220697320746865207A65726F2061 PUSH1 0x0 DUP3 ADD MSTORE PUSH32 0x6464726573730000000000000000000000000000000000000000000000000000 PUSH1 0x20 DUP3 ADD MSTORE POP JUMP JUMPDEST PUSH1 0x0 PUSH2 0x38B9 PUSH1 0x26 DUP4 PUSH2 0x3155 JUMP JUMPDEST SWAP2 POP PUSH2 0x38C4 DUP3 PUSH2 0x385D JUMP JUMPDEST PUSH1 0x40 DUP3 ADD SWAP1 POP SWAP2 SWAP1 POP JUMP JUMPDEST PUSH1 0x0 PUSH1 0x20 DUP3 ADD SWAP1 POP DUP2 DUP2 SUB PUSH1 0x0 DUP4 ADD MSTORE PUSH2 0x38E8 DUP2 PUSH2 0x38AC JUMP JUMPDEST SWAP1 POP SWAP2 SWAP1 POP JUMP JUMPDEST PUSH32 0x5265656E7472616E637947756172643A207265656E7472616E742063616C6C00 PUSH1 0x0 DUP3 ADD MSTORE POP JUMP JUMPDEST PUSH1 0x0 PUSH2 0x3925 PUSH1 0x1F DUP4 PUSH2 0x3155 JUMP JUMPDEST SWAP2 POP PUSH2 0x3930 DUP3 PUSH2 0x38EF JUMP JUMPDEST PUSH1 0x20 DUP3 ADD SWAP1 POP SWAP2 SWAP1 POP JUMP JUMPDEST PUSH1 0x0 PUSH1 0x20 DUP3 ADD SWAP1 POP DUP2 DUP2 SUB PUSH1 0x0 DUP4 ADD MSTORE PUSH2 0x3954 DUP2 PUSH2 0x3918 JUMP JUMPDEST SWAP1 POP SWAP2 SWAP1 POP JUMP JUMPDEST PUSH32 0x4F776E61626C653A2063616C6C6572206973206E6F7420746865206F776E6572 PUSH1 0x0 DUP3 ADD MSTORE POP JUMP JUMPDEST PUSH1 0x0 PUSH2 0x3991 PUSH1 0x20 DUP4 PUSH2 0x3155 JUMP JUMPDEST SWAP2 POP PUSH2 0x399C DUP3 PUSH2 0x395B JUMP JUMPDEST PUSH1 0x20 DUP3 ADD SWAP1 POP SWAP2 SWAP1 POP JUMP JUMPDEST PUSH1 0x0 PUSH1 0x20 DUP3 ADD SWAP1 POP DUP2 DUP2 SUB PUSH1 0x0 DUP4 ADD MSTORE PUSH2 0x39C0 DUP2 PUSH2 0x3984 JUMP JUMPDEST SWAP1 POP SWAP2 SWAP1 POP JUMP JUMPDEST PUSH32 0x45746865722076616C75652073656E74206973206E6F74206163637572617465 PUSH1 0x0 DUP3 ADD MSTORE PUSH32 0x2E00000000000000000000000000000000000000000000000000000000000000 PUSH1 0x20 DUP3 ADD MSTORE POP JUMP JUMPDEST PUSH1 0x0 PUSH2 0x3A23 PUSH1 0x21 DUP4 PUSH2 0x3155 JUMP JUMPDEST SWAP2 POP PUSH2 0x3A2E DUP3 PUSH2 0x39C7 JUMP JUMPDEST PUSH1 0x40 DUP3 ADD SWAP1 POP SWAP2 SWAP1 POP JUMP JUMPDEST PUSH1 0x0 PUSH1 0x20 DUP3 ADD SWAP1 POP DUP2 DUP2 SUB PUSH1 0x0 DUP4 ADD MSTORE PUSH2 0x3A52 DUP2 PUSH2 0x3A16 JUMP JUMPDEST SWAP1 POP SWAP2 SWAP1 POP JUMP JUMPDEST PUSH1 0x0 DUP2 MLOAD SWAP1 POP PUSH2 0x3A68 DUP2 PUSH2 0x2A29 JUMP JUMPDEST SWAP3 SWAP2 POP POP JUMP JUMPDEST PUSH1 0x0 PUSH1 0x20 DUP3 DUP5 SUB SLT ISZERO PUSH2 0x3A84 JUMPI PUSH2 0x3A83 PUSH2 0x2A1F JUMP JUMPDEST JUMPDEST PUSH1 0x0 PUSH2 0x3A92 DUP5 DUP3 DUP6 ADD PUSH2 0x3A59 JUMP JUMPDEST SWAP2 POP POP SWAP3 SWAP2 POP POP JUMP JUMPDEST PUSH32 0x547279696E6720746F206D696E7420746F6F206D616E792072696E67732E0000 PUSH1 0x0 DUP3 ADD MSTORE POP JUMP JUMPDEST PUSH1 0x0 PUSH2 0x3AD1 PUSH1 0x1E DUP4 PUSH2 0x3155 JUMP JUMPDEST SWAP2 POP PUSH2 0x3ADC DUP3 PUSH2 0x3A9B JUMP JUMPDEST PUSH1 0x20 DUP3 ADD SWAP1 POP SWAP2 SWAP1 POP JUMP JUMPDEST PUSH1 0x0 PUSH1 0x20 DUP3 ADD SWAP1 POP DUP2 DUP2 SUB PUSH1 0x0 DUP4 ADD MSTORE PUSH2 0x3B00 DUP2 PUSH2 0x3AC4 JUMP JUMPDEST SWAP1 POP SWAP2 SWAP1 POP JUMP JUMPDEST PUSH32 0x4164647265737320616C72656479206D696E74656420612072696E672E000000 PUSH1 0x0 DUP3 ADD MSTORE POP JUMP JUMPDEST PUSH1 0x0 PUSH2 0x3B3D PUSH1 0x1D DUP4 PUSH2 0x3155 JUMP JUMPDEST SWAP2 POP PUSH2 0x3B48 DUP3 PUSH2 0x3B07 JUMP JUMPDEST PUSH1 0x20 DUP3 ADD SWAP1 POP SWAP2 SWAP1 POP JUMP JUMPDEST PUSH1 0x0 PUSH1 0x20 DUP3 ADD SWAP1 POP DUP2 DUP2 SUB PUSH1 0x0 DUP4 ADD MSTORE PUSH2 0x3B6C DUP2 PUSH2 0x3B30 JUMP JUMPDEST SWAP1 POP SWAP2 SWAP1 POP JUMP JUMPDEST PUSH32 0x4C6F63616C20696E646578206F766572666C6F772E0000000000000000000000 PUSH1 0x0 DUP3 ADD MSTORE POP JUMP JUMPDEST PUSH1 0x0 PUSH2 0x3BA9 PUSH1 0x15 DUP4 PUSH2 0x3155 JUMP JUMPDEST SWAP2 POP PUSH2 0x3BB4 DUP3 PUSH2 0x3B73 JUMP JUMPDEST PUSH1 0x20 DUP3 ADD SWAP1 POP SWAP2 SWAP1 POP JUMP JUMPDEST PUSH1 0x0 PUSH1 0x20 DUP3 ADD SWAP1 POP DUP2 DUP2 SUB PUSH1 0x0 DUP4 ADD MSTORE PUSH2 0x3BD8 DUP2 PUSH2 0x3B9C JUMP JUMPDEST SWAP1 POP SWAP2 SWAP1 POP JUMP JUMPDEST PUSH32 0x52696E6720696E646578206F766572666C6F772E000000000000000000000000 PUSH1 0x0 DUP3 ADD MSTORE POP JUMP JUMPDEST PUSH1 0x0 PUSH2 0x3C15 PUSH1 0x14 DUP4 PUSH2 0x3155 JUMP JUMPDEST SWAP2 POP PUSH2 0x3C20 DUP3 PUSH2 0x3BDF JUMP JUMPDEST PUSH1 0x20 DUP3 ADD SWAP1 POP SWAP2 SWAP1 POP JUMP JUMPDEST PUSH1 0x0 PUSH1 0x20 DUP3 ADD SWAP1 POP DUP2 DUP2 SUB PUSH1 0x0 DUP4 ADD MSTORE PUSH2 0x3C44 DUP2 PUSH2 0x3C08 JUMP JUMPDEST SWAP1 POP SWAP2 SWAP1 POP JUMP JUMPDEST PUSH1 0x0 PUSH2 0x3C57 DUP3 DUP7 PUSH2 0x3307 JUMP JUMPDEST PUSH1 0x20 DUP3 ADD SWAP2 POP PUSH2 0x3C67 DUP3 DUP6 PUSH2 0x328F JUMP JUMPDEST PUSH1 0x14 DUP3 ADD SWAP2 POP PUSH2 0x3C77 DUP3 DUP5 PUSH2 0x3307 JUMP JUMPDEST PUSH1 0x20 DUP3 ADD SWAP2 POP DUP2 SWAP1 POP SWAP5 SWAP4 POP POP POP POP JUMP JUMPDEST PUSH32 0x4E487B7100000000000000000000000000000000000000000000000000000000 PUSH1 0x0 MSTORE PUSH1 0x12 PUSH1 0x4 MSTORE PUSH1 0x24 PUSH1 0x0 REVERT JUMPDEST PUSH1 0x0 PUSH2 0x3CC2 DUP3 PUSH2 0x2961 JUMP JUMPDEST SWAP2 POP PUSH2 0x3CCD DUP4 PUSH2 0x2961 JUMP JUMPDEST SWAP3 POP DUP3 PUSH2 0x3CDD JUMPI PUSH2 0x3CDC PUSH2 0x3C88 JUMP JUMPDEST JUMPDEST DUP3 DUP3 MOD SWAP1 POP SWAP3 SWAP2 POP POP JUMP INVALID LOG2 PUSH5 0x6970667358 0x22 SLT KECCAK256 MSTORE 0xC7 EXTCODESIZE NOT CALLDATASIZE MUL GASPRICE XOR SELFDESTRUCT 0xC4 0xC8 0xC6 PUSH13 0x7AB1B2B73D662AC7CC5044851D DUP11 0x24 JUMPDEST GASLIMIT CREATE2 0xAD PUSH5 0x736F6C6343 STOP ADDMOD SLT STOP CALLER "},"methodIdentifiers":{"addressAlreadyMinted(address)":"ca6c261d","claimlistMerkleRoot()":"2560e376","claimlistMint(uint256,bytes32[])":"60a87d75","claimlistMinted(address)":"6138f236","claimsStartTime()":"8d56a17b","claimsStarted()":"3e97414f","forwardERC20s(address,uint256)":"9727151a","getAvailableRings()":"b9a43f2e","getInitialRings()":"df477ead","getProbabilities()":"062f7b8c","getRingPrice()":"a0e52f89","getTokenIdRingType(uint256)":"2701b325","getTotalMintedRings()":"46bf289f","getTotalMintedRingsByType()":"2ce82a71","mint()":"1249c58b","mintlistMerkleRoot1()":"4ed1eb24","mintlistMerkleRoot2()":"1c7f4a02","mintlistMint(uint256,bytes32[])":"47978479","mintlistMinted(address)":"e49618c1","mintlistStartTime()":"f4cde4c0","mintlistStarted()":"93cb4147","owner()":"8da5cb5b","ownerMint(uint8[],address[])":"9f0664b5","publicMintStartTime()":"d3cf00a3","publicStarted()":"8c6d8ef6","renounceOwnership()":"715018a6","ringGlobalOffset()":"5242a493","ringPrice()":"1af3ba81","ringTypeLocalOffset(uint256)":"96c9f88b","ringsMinted(uint256)":"158ae298","setClaimlistMerkleRoot(bytes32)":"411d13f7","setClaimsStartTime(uint256)":"260c0886","setGlobalIdOffset(uint256)":"a637f973","setLocalIdOffsets(uint256[])":"cc644fd2","setMintlistMerkleRoot1(bytes32)":"cef58283","setMintlistMerkleRoot2(bytes32)":"c2774dac","setMintlistStartTime(uint256)":"6e1a1a60","setPrice(uint256)":"91b7f5ed","setProbabilities(uint256[])":"d6117b3e","setPublicMintStartTime(uint256)":"5fcd80a6","setRingsAvailable(uint256)":"205ed382","setVaultAddress(address)":"85535cc5","setWatchersRing(address)":"dc37dc64","transferOwnership(address)":"f2fde38b","vault()":"fbfa77cf","watchersRing()":"f0c821de","withdraw(uint256)":"2e1a7d4d","withdrawAll()":"853828b6"}}}}}