{"contracts/FundersRingMinter.sol":{"FundersRingMinter":{"abi":[{"inputs":[{"internalType":"contract IFundersRing","name":"_fundersRing","type":"address"}],"stateMutability":"nonpayable","type":"constructor"},{"inputs":[],"name":"Address0Error","type":"error"},{"inputs":[],"name":"DeniedProcessDuringMinting","type":"error"},{"inputs":[{"internalType":"uint256","name":"sended_values","type":"uint256"},{"internalType":"uint256","name":"expected","type":"uint256"}],"name":"GivedValuesNotValid","type":"error"},{"inputs":[],"name":"IncorrectPurchaseLimit","type":"error"},{"inputs":[],"name":"MisconfiguredPrices","type":"error"},{"inputs":[{"internalType":"uint256","name":"correct_date","type":"uint256"},{"internalType":"uint256","name":"current_date","type":"uint256"}],"name":"WrongDateForProcess","type":"error"},{"anonymous":false,"inputs":[{"indexed":true,"internalType":"address","name":"previousOwner","type":"address"},{"indexed":true,"internalType":"address","name":"newOwner","type":"address"}],"name":"OwnershipTransferred","type":"event"},{"inputs":[],"name":"claimlistMerkleRoot","outputs":[{"internalType":"bytes32","name":"","type":"bytes32"}],"stateMutability":"view","type":"function"},{"inputs":[{"internalType":"enum IFundersRing.FundersRingType","name":"ringType","type":"uint8"},{"internalType":"uint256","name":"numRings","type":"uint256"},{"internalType":"uint256","name":"claimedMaxRings","type":"uint256"},{"internalType":"bytes32[]","name":"_merkleProof","type":"bytes32[]"}],"name":"claimlistMint","outputs":[],"stateMutability":"payable","type":"function"},{"inputs":[{"internalType":"address","name":"","type":"address"},{"internalType":"uint256","name":"","type":"uint256"}],"name":"claimlistMintedPerType","outputs":[{"internalType":"uint256","name":"","type":"uint256"}],"stateMutability":"view","type":"function"},{"inputs":[],"name":"claimsStartTime","outputs":[{"internalType":"uint256","name":"","type":"uint256"}],"stateMutability":"view","type":"function"},{"inputs":[],"name":"claimsStarted","outputs":[{"internalType":"bool","name":"","type":"bool"}],"stateMutability":"view","type":"function"},{"inputs":[{"internalType":"contract IERC20","name":"_token","type":"address"},{"internalType":"uint256","name":"_amount","type":"uint256"}],"name":"forwardERC20s","outputs":[],"stateMutability":"nonpayable","type":"function"},{"inputs":[],"name":"fundersRing","outputs":[{"internalType":"contract IFundersRing","name":"","type":"address"}],"stateMutability":"view","type":"function"},{"inputs":[],"name":"getAvailableRings","outputs":[{"internalType":"uint256[]","name":"","type":"uint256[]"}],"stateMutability":"view","type":"function"},{"inputs":[],"name":"getPlotsAvailablePerSize","outputs":[{"internalType":"uint256[]","name":"","type":"uint256[]"}],"stateMutability":"view","type":"function"},{"inputs":[],"name":"getRingPrices","outputs":[{"internalType":"uint256[]","name":"","type":"uint256[]"}],"stateMutability":"view","type":"function"},{"inputs":[{"internalType":"uint256","name":"tokenId","type":"uint256"}],"name":"getTokenIdPlotType","outputs":[{"internalType":"uint256","name":"","type":"uint256"}],"stateMutability":"pure","type":"function"},{"inputs":[],"name":"getTotalMintedRings","outputs":[{"internalType":"uint256","name":"","type":"uint256"}],"stateMutability":"view","type":"function"},{"inputs":[],"name":"getTotalMintedRingsByType","outputs":[{"internalType":"uint256[]","name":"","type":"uint256[]"}],"stateMutability":"view","type":"function"},{"inputs":[{"internalType":"enum IFundersRing.FundersRingType","name":"ringType","type":"uint8"},{"internalType":"uint256","name":"numRings","type":"uint256"}],"name":"mint","outputs":[],"stateMutability":"payable","type":"function"},{"inputs":[],"name":"mintlistMerkleRoot1","outputs":[{"internalType":"bytes32","name":"","type":"bytes32"}],"stateMutability":"view","type":"function"},{"inputs":[],"name":"mintlistMerkleRoot2","outputs":[{"internalType":"bytes32","name":"","type":"bytes32"}],"stateMutability":"view","type":"function"},{"inputs":[{"internalType":"enum IFundersRing.FundersRingType","name":"ringType","type":"uint8"},{"internalType":"uint256","name":"numRings","type":"uint256"},{"internalType":"uint256","name":"claimedMaxRings","type":"uint256"},{"internalType":"bytes32[]","name":"_merkleProof","type":"bytes32[]"}],"name":"mintlistMint","outputs":[],"stateMutability":"payable","type":"function"},{"inputs":[{"internalType":"address","name":"","type":"address"},{"internalType":"uint256","name":"","type":"uint256"}],"name":"mintlistMintedPerType","outputs":[{"internalType":"uint256","name":"","type":"uint256"}],"stateMutability":"view","type":"function"},{"inputs":[],"name":"mintlistStartTime","outputs":[{"internalType":"uint256","name":"","type":"uint256"}],"stateMutability":"view","type":"function"},{"inputs":[],"name":"mintlistStarted","outputs":[{"internalType":"bool","name":"","type":"bool"}],"stateMutability":"view","type":"function"},{"inputs":[{"internalType":"address","name":"_who","type":"address"},{"internalType":"bytes32","name":"_leaf","type":"bytes32"},{"internalType":"bytes32[]","name":"_merkleProof","type":"bytes32[]"}],"name":"mintlisted","outputs":[{"internalType":"bool","name":"","type":"bool"}],"stateMutability":"view","type":"function"},{"inputs":[],"name":"owner","outputs":[{"internalType":"address","name":"","type":"address"}],"stateMutability":"view","type":"function"},{"inputs":[{"internalType":"enum IFundersRing.FundersRingType[]","name":"ringTypes","type":"uint8[]"},{"internalType":"address[]","name":"recipients","type":"address[]"}],"name":"ownerMint","outputs":[],"stateMutability":"nonpayable","type":"function"},{"inputs":[],"name":"publicMintStartTime","outputs":[{"internalType":"uint256","name":"","type":"uint256"}],"stateMutability":"view","type":"function"},{"inputs":[],"name":"publicStarted","outputs":[{"internalType":"bool","name":"","type":"bool"}],"stateMutability":"view","type":"function"},{"inputs":[],"name":"renounceOwnership","outputs":[],"stateMutability":"nonpayable","type":"function"},{"inputs":[],"name":"ringGlobalOffset","outputs":[{"internalType":"uint256","name":"","type":"uint256"}],"stateMutability":"view","type":"function"},{"inputs":[{"internalType":"uint256","name":"","type":"uint256"}],"name":"ringPrices","outputs":[{"internalType":"uint256","name":"","type":"uint256"}],"stateMutability":"view","type":"function"},{"inputs":[{"internalType":"uint256","name":"","type":"uint256"}],"name":"ringTypeLocalOffset","outputs":[{"internalType":"uint256","name":"","type":"uint256"}],"stateMutability":"view","type":"function"},{"inputs":[{"internalType":"uint256","name":"","type":"uint256"}],"name":"ringsMinted","outputs":[{"internalType":"uint256","name":"","type":"uint256"}],"stateMutability":"view","type":"function"},{"inputs":[{"internalType":"bytes32","name":"newMerkleRoot","type":"bytes32"}],"name":"setClaimlistMerkleRoot","outputs":[],"stateMutability":"nonpayable","type":"function"},{"inputs":[{"internalType":"uint256","name":"_newClaimsStartTime","type":"uint256"}],"name":"setClaimsStartTime","outputs":[],"stateMutability":"nonpayable","type":"function"},{"inputs":[{"internalType":"contract IFundersRing","name":"_newFundersRingAddress","type":"address"}],"name":"setFundersRing","outputs":[],"stateMutability":"nonpayable","type":"function"},{"inputs":[{"internalType":"uint256","name":"_newGlobalIdOffset","type":"uint256"}],"name":"setGlobalIdOffset","outputs":[],"stateMutability":"nonpayable","type":"function"},{"inputs":[{"internalType":"uint256[]","name":"_newRingTypeLocalOffset","type":"uint256[]"}],"name":"setLocalIdOffsets","outputs":[],"stateMutability":"nonpayable","type":"function"},{"inputs":[{"internalType":"bytes32","name":"newMerkleRoot","type":"bytes32"}],"name":"setMintlistMerkleRoot1","outputs":[],"stateMutability":"nonpayable","type":"function"},{"inputs":[{"internalType":"bytes32","name":"newMerkleRoot","type":"bytes32"}],"name":"setMintlistMerkleRoot2","outputs":[],"stateMutability":"nonpayable","type":"function"},{"inputs":[{"internalType":"uint256","name":"_newAllowlistMintStartTime","type":"uint256"}],"name":"setMintlistStartTime","outputs":[],"stateMutability":"nonpayable","type":"function"},{"inputs":[{"internalType":"uint256[]","name":"_newPrices","type":"uint256[]"}],"name":"setPrices","outputs":[],"stateMutability":"nonpayable","type":"function"},{"inputs":[{"internalType":"uint256","name":"_newPublicMintStartTime","type":"uint256"}],"name":"setPublicMintStartTime","outputs":[],"stateMutability":"nonpayable","type":"function"},{"inputs":[{"internalType":"address payable","name":"_newVaultAddress","type":"address"}],"name":"setVaultAddress","outputs":[],"stateMutability":"nonpayable","type":"function"},{"inputs":[{"internalType":"address","name":"newOwner","type":"address"}],"name":"transferOwnership","outputs":[],"stateMutability":"nonpayable","type":"function"},{"inputs":[],"name":"vault","outputs":[{"internalType":"address payable","name":"","type":"address"}],"stateMutability":"view","type":"function"},{"inputs":[{"internalType":"uint256","name":"_amount","type":"uint256"}],"name":"withdraw","outputs":[],"stateMutability":"nonpayable","type":"function"},{"inputs":[],"name":"withdrawAll","outputs":[],"stateMutability":"nonpayable","type":"function"}],"evm":{"bytecode":{"linkReferences":{},"object":"608060405260405180610100016040528061057861ffff16815260200161057861ffff16815260200161057861ffff16815260200161057861ffff16815260200161057861ffff16815260200161057861ffff16815260200161057861ffff16815260200160c861ffff1681525060049060086200007f9291906200055c565b50604051806101000160405280600160ff168152602001600160ff168152602001600160ff168152602001600160ff168152602001600160ff168152602001600160ff168152602001600160ff168152602001600160ff168152506005906008620000ec929190620005b4565b5060016006556040518061010001604052807fffffffffffffffffffffffffffffffffffffffffffffffffffffffffffffffff81526020017fffffffffffffffffffffffffffffffffffffffffffffffffffffffffffffffff81526020017fffffffffffffffffffffffffffffffffffffffffffffffffffffffffffffffff81526020017fffffffffffffffffffffffffffffffffffffffffffffffffffffffffffffffff81526020017fffffffffffffffffffffffffffffffffffffffffffffffffffffffffffffffff81526020017fffffffffffffffffffffffffffffffffffffffffffffffffffffffffffffffff81526020017fffffffffffffffffffffffffffffffffffffffffffffffffffffffffffffffff81526020017fffffffffffffffffffffffffffffffffffffffffffffffffffffffffffffffff81525060079060086200023e9291906200060b565b507fffffffffffffffffffffffffffffffffffffffffffffffffffffffffffffffff6008557fffffffffffffffffffffffffffffffffffffffffffffffffffffffffffffffff6009557fffffffffffffffffffffffffffffffffffffffffffffffffffffffffffffffff600a55348015620002b857600080fd5b50604051620042fd380380620042fd8339818101604052810190620002de9190620006fa565b620002fe620002f26200032e60201b60201c565b6200033660201b60201c565b600180819055506200031681620003fa60201b60201c565b62000327336200044e60201b60201c565b50620007af565b600033905090565b60008060009054906101000a900473ffffffffffffffffffffffffffffffffffffffff169050816000806101000a81548173ffffffffffffffffffffffffffffffffffffffff021916908373ffffffffffffffffffffffffffffffffffffffff1602179055508173ffffffffffffffffffffffffffffffffffffffff168173ffffffffffffffffffffffffffffffffffffffff167f8be0079c531659141344cd1fd0a4f28419497f9722a3daafe3b4186f6b6457e060405160405180910390a35050565b6200040a620004a260201b60201c565b80600260006101000a81548173ffffffffffffffffffffffffffffffffffffffff021916908373ffffffffffffffffffffffffffffffffffffffff16021790555050565b6200045e620004a260201b60201c565b80600360006101000a81548173ffffffffffffffffffffffffffffffffffffffff021916908373ffffffffffffffffffffffffffffffffffffffff16021790555050565b620004b26200032e60201b60201c565b73ffffffffffffffffffffffffffffffffffffffff16620004d86200053360201b60201c565b73ffffffffffffffffffffffffffffffffffffffff161462000531576040517f08c379a000000000000000000000000000000000000000000000000000000000815260040162000528906200078d565b60405180910390fd5b565b60008060009054906101000a900473ffffffffffffffffffffffffffffffffffffffff16905090565b828054828255906000526020600020908101928215620005a1579160200282015b82811115620005a0578251829061ffff169055916020019190600101906200057d565b5b509050620005b091906200065d565b5090565b828054828255906000526020600020908101928215620005f8579160200282015b82811115620005f7578251829060ff16905591602001919060010190620005d5565b5b5090506200060791906200065d565b5090565b8280548282559060005260206000209081019282156200064a579160200282015b82811115620006495782518255916020019190600101906200062c565b5b5090506200065991906200065d565b5090565b5b80821115620006785760008160009055506001016200065e565b5090565b600080fd5b600073ffffffffffffffffffffffffffffffffffffffff82169050919050565b6000620006ae8262000681565b9050919050565b6000620006c282620006a1565b9050919050565b620006d481620006b5565b8114620006e057600080fd5b50565b600081519050620006f481620006c9565b92915050565b6000602082840312156200071357620007126200067c565b5b60006200072384828501620006e3565b91505092915050565b600082825260208201905092915050565b7f4f776e61626c653a2063616c6c6572206973206e6f7420746865206f776e6572600082015250565b6000620007756020836200072c565b915062000782826200073d565b602082019050919050565b60006020820190508181036000830152620007a88162000766565b9050919050565b613b3e80620007bf6000396000f3fe6080604052600436106102725760003560e01c8063853828b61161014f578063ae6b6dae116100c1578063d3cf00a31161007a578063d3cf00a31461090e578063f26748e214610939578063f2fde38b14610955578063f4cde4c01461097e578063fbfa77cf146109a9578063fcbfe13c146109d457610272565b8063ae6b6dae14610814578063b9a43f2e1461083d578063bd7fd06d14610868578063c2774dac14610893578063cc644fd2146108bc578063cef58283146108e557610272565b806393cb41471161011357806393cb41471461070657806396c9f88b146107315780639727151a1461076e5780639b68a6ef146107975780639f0664b5146107c2578063a637f973146107eb57610272565b8063853828b61461064557806385535cc51461065c5780638c6d8ef6146106855780638d56a17b146106b05780638da5cb5b146106db57610272565b806346bf289f116101e85780635fcd80a6116101ac5780635fcd80a6146105395780636e1a1a6014610562578063715018a61461058b578063772d3be0146105a2578063792a77d9146105df57806379cf92d31461061c57610272565b806346bf289f146104715780634e054c391461049c5780634ed1eb24146104b857806350a99405146104e35780635242a4931461050e57610272565b80632b7b4aef1161023a5780632b7b4aef146103705780632ce82a71146103ad5780632e1a7d4d146103d857806333a5a99f146104015780633e97414f1461041d578063411d13f71461044857610272565b8063158ae298146102775780631c7f4a02146102b45780632560e376146102df578063260c08861461030a578063294548a414610333575b600080fd5b34801561028357600080fd5b5061029e600480360381019061029991906127af565b610a11565b6040516102ab91906127eb565b60405180910390f35b3480156102c057600080fd5b506102c9610a29565b6040516102d6919061281f565b60405180910390f35b3480156102eb57600080fd5b506102f4610a2f565b604051610301919061281f565b60405180910390f35b34801561031657600080fd5b50610331600480360381019061032c91906127af565b610a35565b005b34801561033f57600080fd5b5061035a60048036038101906103559190612898565b610a47565b60405161036791906127eb565b60405180910390f35b34801561037c57600080fd5b50610397600480360381019061039291906127af565b610a6c565b6040516103a491906127eb565b60405180910390f35b3480156103b957600080fd5b506103c2610a79565b6040516103cf9190612996565b60405180910390f35b3480156103e457600080fd5b506103ff60048036038101906103fa91906127af565b610c77565b005b61041b60048036038101906104169190612a42565b610d51565b005b34801561042957600080fd5b50610432610f80565b60405161043f9190612ae5565b60405180910390f35b34801561045457600080fd5b5061046f600480360381019061046a9190612b2c565b610f8d565b005b34801561047d57600080fd5b50610486610f9f565b60405161049391906127eb565b60405180910390f35b6104b660048036038101906104b19190612a42565b611098565b005b3480156104c457600080fd5b506104cd611364565b6040516104da919061281f565b60405180910390f35b3480156104ef57600080fd5b506104f861136a565b6040516105059190612996565b60405180910390f35b34801561051a57600080fd5b506105236113c2565b60405161053091906127eb565b60405180910390f35b34801561054557600080fd5b50610560600480360381019061055b91906127af565b6113c8565b005b34801561056e57600080fd5b50610589600480360381019061058491906127af565b6113da565b005b34801561059757600080fd5b506105a06113ec565b005b3480156105ae57600080fd5b506105c960048036038101906105c49190612898565b611400565b6040516105d691906127eb565b60405180910390f35b3480156105eb57600080fd5b5061060660048036038101906106019190612b59565b611425565b6040516106139190612ae5565b60405180910390f35b34801561062857600080fd5b50610643600480360381019061063e9190612c23565b611522565b005b34801561065157600080fd5b5061065a6115ce565b005b34801561066857600080fd5b50610683600480360381019061067e9190612cae565b6116a7565b005b34801561069157600080fd5b5061069a6116f3565b6040516106a79190612ae5565b60405180910390f35b3480156106bc57600080fd5b506106c5611700565b6040516106d291906127eb565b60405180910390f35b3480156106e757600080fd5b506106f0611706565b6040516106fd9190612cea565b60405180910390f35b34801561071257600080fd5b5061071b61172f565b6040516107289190612ae5565b60405180910390f35b34801561073d57600080fd5b50610758600480360381019061075391906127af565b61173c565b60405161076591906127eb565b60405180910390f35b34801561077a57600080fd5b5061079560048036038101906107909190612d43565b611760565b005b3480156107a357600080fd5b506107ac611851565b6040516107b99190612de2565b60405180910390f35b3480156107ce57600080fd5b506107e960048036038101906107e49190612ea9565b611877565b005b3480156107f757600080fd5b50610812600480360381019061080d91906127af565b611947565b005b34801561082057600080fd5b5061083b60048036038101906108369190612f68565b611998565b005b34801561084957600080fd5b506108526119e4565b60405161085f9190612996565b60405180910390f35b34801561087457600080fd5b5061087d611d31565b60405161088a9190612996565b60405180910390f35b34801561089f57600080fd5b506108ba60048036038101906108b59190612b2c565b611d89565b005b3480156108c857600080fd5b506108e360048036038101906108de9190612c23565b611d9b565b005b3480156108f157600080fd5b5061090c60048036038101906109079190612b2c565b611e46565b005b34801561091a57600080fd5b50610923611e58565b60405161093091906127eb565b60405180910390f35b610953600480360381019061094e9190612f95565b611e5e565b005b34801561096157600080fd5b5061097c60048036038101906109779190612fd5565b611f12565b005b34801561098a57600080fd5b50610993611f95565b6040516109a091906127eb565b60405180910390f35b3480156109b557600080fd5b506109be611f9b565b6040516109cb9190613011565b60405180910390f35b3480156109e057600080fd5b506109fb60048036038101906109f691906127af565b611fc1565b604051610a0891906127eb565b60405180910390f35b600e6020528060005260406000206000915090505481565b600c5481565b600d5481565b610a3d611fe5565b80600a8190555050565b6010602052816000526040600020602052806000526040600020600091509150505481565b600060ff82169050919050565b60606000600867ffffffffffffffff811115610a9857610a9761302c565b5b604051908082528060200260200182016040528015610ac65781602001602082028036833780820191505090505b509050600e60008081526020019081526020016000205481600081518110610af157610af061305b565b5b602002602001018181525050600e6000600181526020019081526020016000205481600181518110610b2657610b2561305b565b5b602002602001018181525050600e6000600281526020019081526020016000205481600281518110610b5b57610b5a61305b565b5b602002602001018181525050600e6000600381526020019081526020016000205481600381518110610b9057610b8f61305b565b5b602002602001018181525050600e6000600481526020019081526020016000205481600481518110610bc557610bc461305b565b5b602002602001018181525050600e6000600581526020019081526020016000205481600581518110610bfa57610bf961305b565b5b602002602001018181525050600e6000600681526020019081526020016000205481600681518110610c2f57610c2e61305b565b5b602002602001018181525050600e6000600781526020019081526020016000205481600781518110610c6457610c6361305b565b5b6020026020010181815250508091505090565b610c7f611fe5565b6000600360009054906101000a900473ffffffffffffffffffffffffffffffffffffffff1673ffffffffffffffffffffffffffffffffffffffff1682604051610cc7906130bb565b60006040518083038185875af1925050503d8060008114610d04576040519150601f19603f3d011682016040523d82523d6000602084013e610d09565b606091505b5050905080610d4d576040517f08c379a0000000000000000000000000000000000000000000000000000000008152600401610d449061312d565b60405180910390fd5b5050565b610d59612063565b610d61610f80565b610da657600a54426040517f66803fc1000000000000000000000000000000000000000000000000000000008152600401610d9d92919061314d565b60405180910390fd5b600033866007811115610dbc57610dbb613176565b5b85604051602001610dcf93929190613265565b604051602081830303815290604052805190602001209050610e35838380806020026020016040519081016040528093929190818152602001838360200280828437600081840152601f19601f82011690508083019250505050505050600d54836120b2565b610e74576040517f08c379a0000000000000000000000000000000000000000000000000000000008152600401610e6b90613304565b60405180910390fd5b6000601060003373ffffffffffffffffffffffffffffffffffffffff1673ffffffffffffffffffffffffffffffffffffffff168152602001908152602001600020905084868260008a6007811115610ecf57610ece613176565b5b815260200190815260200160002054610ee89190613353565b1115610f29576040517f08c379a0000000000000000000000000000000000000000000000000000000008152600401610f20906133d3565b60405180910390fd5b85816000896007811115610f4057610f3f613176565b5b81526020019081526020016000206000828254610f5d9190613353565b92505081905550610f6f8787336120c9565b5050610f79612266565b5050505050565b6000600a54421015905090565b610f95611fe5565b80600d8190555050565b600080600e60006007815260200190815260200160002054600e60006006815260200190815260200160002054600e60006005815260200190815260200160002054600e60006004815260200190815260200160002054600e60006003815260200190815260200160002054600e60006002815260200190815260200160002054600e60006001815260200190815260200160002054600e6000808152602001908152602001600020546110539190613353565b61105d9190613353565b6110679190613353565b6110719190613353565b61107b9190613353565b6110859190613353565b61108f9190613353565b90508091505090565b6110a0612063565b6110a861172f565b6110ed57600954426040517f66803fc10000000000000000000000000000000000000000000000000000000081526004016110e492919061314d565b60405180910390fd5b600084111580156110fe5750601484115b15611135576040517fca02d6eb00000000000000000000000000000000000000000000000000000000815260040160405180910390fd5b60003386600781111561114b5761114a613176565b5b8560405160200161115e93929190613265565b6040516020818303038152906040528051906020012090506111c4838380806020026020016040519081016040528093929190818152602001838360200280828437600081840152601f19601f82011690508083019250505050505050600b54836120b2565b806112195750611218838380806020026020016040519081016040528093929190818152602001838360200280828437600081840152601f19601f82011690508083019250505050505050600c54836120b2565b5b611258576040517f08c379a000000000000000000000000000000000000000000000000000000000815260040161124f90613304565b60405180910390fd5b6000600f60003373ffffffffffffffffffffffffffffffffffffffff1673ffffffffffffffffffffffffffffffffffffffff168152602001908152602001600020905084868260008a60078111156112b3576112b2613176565b5b8152602001908152602001600020546112cc9190613353565b111561130d576040517f08c379a00000000000000000000000000000000000000000000000000000000081526004016113049061343f565b60405180910390fd5b8581600089600781111561132457611323613176565b5b815260200190815260200160002060008282546113419190613353565b9250508190555061135387873361226f565b505061135d612266565b5050505050565b600b5481565b606060048054806020026020016040519081016040528092919081815260200182805480156113b857602002820191906000526020600020905b8154815260200190600101908083116113a4575b5050505050905090565b60065481565b6113d0611fe5565b8060088190555050565b6113e2611fe5565b8060098190555050565b6113f4611fe5565b6113fe6000612366565b565b600f602052816000526040600020602052806000526040600020600091509150505481565b60008085604051602001611439919061345f565b60405160208183030381529060405280519060200120905084811461146257600091505061151a565b6114b0848480806020026020016040519081016040528093929190818152602001838360200280828437600081840152601f19601f82011690508083019250505050505050600b54876120b2565b806115055750611504848480806020026020016040519081016040528093929190818152602001838360200280828437600081840152601f19601f82011690508083019250505050505050600c54876120b2565b5b1561151457600191505061151a565b60009150505b949350505050565b61152a611fe5565b61153261172f565b15611569576040517ff2a84b6300000000000000000000000000000000000000000000000000000000815260040160405180910390fd5b60088282905010156115b8578181905060086040517f6aab761a0000000000000000000000000000000000000000000000000000000081526004016115af9291906134b5565b60405180910390fd5b8181600791906115c9929190612705565b505050565b6115d6611fe5565b6000600360009054906101000a900473ffffffffffffffffffffffffffffffffffffffff1673ffffffffffffffffffffffffffffffffffffffff164760405161161e906130bb565b60006040518083038185875af1925050503d806000811461165b576040519150601f19603f3d011682016040523d82523d6000602084013e611660565b606091505b50509050806116a4576040517f08c379a000000000000000000000000000000000000000000000000000000000815260040161169b9061352a565b60405180910390fd5b50565b6116af611fe5565b80600360006101000a81548173ffffffffffffffffffffffffffffffffffffffff021916908373ffffffffffffffffffffffffffffffffffffffff16021790555050565b6000600854421015905090565b600a5481565b60008060009054906101000a900473ffffffffffffffffffffffffffffffffffffffff16905090565b6000600954421015905090565b6005818154811061174c57600080fd5b906000526020600020016000915090505481565b611768611fe5565b600073ffffffffffffffffffffffffffffffffffffffff163373ffffffffffffffffffffffffffffffffffffffff16036117ce576040517f48ac165200000000000000000000000000000000000000000000000000000000815260040160405180910390fd5b8173ffffffffffffffffffffffffffffffffffffffff1663a9059cbb33836040518363ffffffff1660e01b815260040161180992919061354a565b6020604051808303816000875af1158015611828573d6000803e3d6000fd5b505050506040513d601f19601f8201168201806040525081019061184c919061359f565b505050565b600260009054906101000a900473ffffffffffffffffffffffffffffffffffffffff1681565b61187f611fe5565b8181905084849050146118c7576040517f08c379a00000000000000000000000000000000000000000000000000000000081526004016118be9061363e565b60405180910390fd5b60005b828290508110156119405761192f8585838181106118eb576118ea61305b565b5b9050602002016020810190611900919061365e565b60018585858181106119155761191461305b565b5b905060200201602081019061192a9190612fd5565b6120c9565b806119399061368b565b90506118ca565b5050505050565b61194f611fe5565b61195761172f565b1561198e576040517ff2a84b6300000000000000000000000000000000000000000000000000000000815260040160405180910390fd5b8060068190555050565b6119a0611fe5565b80600260006101000a81548173ffffffffffffffffffffffffffffffffffffffff021916908373ffffffffffffffffffffffffffffffffffffffff16021790555050565b60606000600567ffffffffffffffff811115611a0357611a0261302c565b5b604051908082528060200260200182016040528015611a315781602001602082028036833780820191505090505b509050600e6000808152602001908152602001600020546004600081548110611a5d57611a5c61305b565b5b9060005260206000200154611a7291906136d3565b81600081518110611a8657611a8561305b565b5b602002602001018181525050600e600060018152602001908152602001600020546004600181548110611abc57611abb61305b565b5b9060005260206000200154611ad191906136d3565b81600181518110611ae557611ae461305b565b5b602002602001018181525050600e600060028152602001908152602001600020546004600281548110611b1b57611b1a61305b565b5b9060005260206000200154611b3091906136d3565b81600281518110611b4457611b4361305b565b5b602002602001018181525050600e600060038152602001908152602001600020546004600381548110611b7a57611b7961305b565b5b9060005260206000200154611b8f91906136d3565b81600381518110611ba357611ba261305b565b5b602002602001018181525050600e6000600481526020019081526020016000205460048081548110611bd857611bd761305b565b5b9060005260206000200154611bed91906136d3565b81600481518110611c0157611c0061305b565b5b602002602001018181525050600e600060058152602001908152602001600020546004600581548110611c3757611c3661305b565b5b9060005260206000200154611c4c91906136d3565b81600581518110611c6057611c5f61305b565b5b602002602001018181525050600e600060068152602001908152602001600020546004600681548110611c9657611c9561305b565b5b9060005260206000200154611cab91906136d3565b81600681518110611cbf57611cbe61305b565b5b602002602001018181525050600e600060078152602001908152602001600020546004600781548110611cf557611cf461305b565b5b9060005260206000200154611d0a91906136d3565b81600781518110611d1e57611d1d61305b565b5b6020026020010181815250508091505090565b60606007805480602002602001604051908101604052809291908181526020018280548015611d7f57602002820191906000526020600020905b815481526020019060010190808311611d6b575b5050505050905090565b611d91611fe5565b80600c8190555050565b611da3611fe5565b60058282905014611df1578181905060086040517f6aab761a000000000000000000000000000000000000000000000000000000008152600401611de89291906134b5565b60405180910390fd5b611df961172f565b15611e30576040517ff2a84b6300000000000000000000000000000000000000000000000000000000815260040160405180910390fd5b818160059190611e41929190612705565b505050565b611e4e611fe5565b80600b8190555050565b60085481565b611e66612063565b611e6e6116f3565b611eb357600854426040517f66803fc1000000000000000000000000000000000000000000000000000000008152600401611eaa92919061314d565b60405180910390fd5b60008111158015611ec45750601481115b15611efb576040517fca02d6eb00000000000000000000000000000000000000000000000000000000815260040160405180910390fd5b611f0682823361226f565b611f0e612266565b5050565b611f1a611fe5565b600073ffffffffffffffffffffffffffffffffffffffff168173ffffffffffffffffffffffffffffffffffffffff1603611f89576040517f08c379a0000000000000000000000000000000000000000000000000000000008152600401611f8090613779565b60405180910390fd5b611f9281612366565b50565b60095481565b600360009054906101000a900473ffffffffffffffffffffffffffffffffffffffff1681565b60078181548110611fd157600080fd5b906000526020600020016000915090505481565b611fed61242a565b73ffffffffffffffffffffffffffffffffffffffff1661200b611706565b73ffffffffffffffffffffffffffffffffffffffff1614612061576040517f08c379a0000000000000000000000000000000000000000000000000000000008152600401612058906137e5565b60405180910390fd5b565b6002600154036120a8576040517f08c379a000000000000000000000000000000000000000000000000000000000815260040161209f90613851565b60405180910390fd5b6002600181905550565b6000826120bf8584612432565b1490509392505050565b60048360078111156120de576120dd613176565b5b815481106120ef576120ee61305b565b5b906000526020600020015482600e600086600781111561211257612111613176565b5b81526020019081526020016000205461212b9190613353565b111561216c576040517f08c379a0000000000000000000000000000000000000000000000000000000008152600401612163906138bd565b60405180910390fd5b60005b8281101561226057600061218285612488565b9050600e600086600781111561219b5761219a613176565b5b8152602001908152602001600020600081546121b69061368b565b91905081905550600260009054906101000a900473ffffffffffffffffffffffffffffffffffffffff1673ffffffffffffffffffffffffffffffffffffffff166386ebf0108483886040518463ffffffff1660e01b815260040161221c93929190613925565b600060405180830381600087803b15801561223657600080fd5b505af115801561224a573d6000803e3d6000fd5b5050505050806122599061368b565b905061216f565b50505050565b60018081905550565b6000600784600781111561228657612285613176565b5b815481106122975761229661305b565b5b9060005260206000200154116122d9576040517fc5fadba600000000000000000000000000000000000000000000000000000000815260040160405180910390fd5b8160078460078111156122ef576122ee613176565b5b81548110612300576122ff61305b565b5b9060005260206000200154612315919061395c565b3414612356576040517f08c379a000000000000000000000000000000000000000000000000000000000815260040161234d90613a10565b60405180910390fd5b6123618383836120c9565b505050565b60008060009054906101000a900473ffffffffffffffffffffffffffffffffffffffff169050816000806101000a81548173ffffffffffffffffffffffffffffffffffffffff021916908373ffffffffffffffffffffffffffffffffffffffff1602179055508173ffffffffffffffffffffffffffffffffffffffff168173ffffffffffffffffffffffffffffffffffffffff167f8be0079c531659141344cd1fd0a4f28419497f9722a3daafe3b4186f6b6457e060405160405180910390a35050565b600033905090565b60008082905060005b845181101561247d576124688286838151811061245b5761245a61305b565b5b60200260200101516126c3565b915080806124759061368b565b91505061243b565b508091505092915050565b600080600654600e60006007815260200190815260200160002054600e60006006815260200190815260200160002054600e60006005815260200190815260200160002054600e60006004815260200190815260200160002054600e60006003815260200190815260200160002054600e60006002815260200190815260200160002054600e60006001815260200190815260200160002054600e60008081526020019081526020016000205461253f9190613353565b6125499190613353565b6125539190613353565b61255d9190613353565b6125679190613353565b6125719190613353565b61257b9190613353565b6125859190613353565b90506000600584600781111561259e5761259d613176565b5b815481106125af576125ae61305b565b5b9060005260206000200154600e60008660078111156125d1576125d0613176565b5b8152602001908152602001600020546125ea9190613353565b905063ffffffff811115612633576040517f08c379a000000000000000000000000000000000000000000000000000000000815260040161262a90613a7c565b60405180910390fd5b60ff84600781111561264857612647613176565b5b1115612689576040517f08c379a000000000000000000000000000000000000000000000000000000000815260040161268090613ae8565b60405180910390fd5b83600781111561269c5761269b613176565b5b600882901b602884901b6126b09190613353565b6126ba9190613353565b92505050919050565b60008183106126db576126d682846126ee565b6126e6565b6126e583836126ee565b5b905092915050565b600082600052816020526040600020905092915050565b828054828255906000526020600020908101928215612741579160200282015b82811115612740578235825591602001919060010190612725565b5b50905061274e9190612752565b5090565b5b8082111561276b576000816000905550600101612753565b5090565b600080fd5b600080fd5b6000819050919050565b61278c81612779565b811461279757600080fd5b50565b6000813590506127a981612783565b92915050565b6000602082840312156127c5576127c461276f565b5b60006127d38482850161279a565b91505092915050565b6127e581612779565b82525050565b600060208201905061280060008301846127dc565b92915050565b6000819050919050565b61281981612806565b82525050565b60006020820190506128346000830184612810565b92915050565b600073ffffffffffffffffffffffffffffffffffffffff82169050919050565b60006128658261283a565b9050919050565b6128758161285a565b811461288057600080fd5b50565b6000813590506128928161286c565b92915050565b600080604083850312156128af576128ae61276f565b5b60006128bd85828601612883565b92505060206128ce8582860161279a565b9150509250929050565b600081519050919050565b600082825260208201905092915050565b6000819050602082019050919050565b61290d81612779565b82525050565b600061291f8383612904565b60208301905092915050565b6000602082019050919050565b6000612943826128d8565b61294d81856128e3565b9350612958836128f4565b8060005b838110156129895781516129708882612913565b975061297b8361292b565b92505060018101905061295c565b5085935050505092915050565b600060208201905081810360008301526129b08184612938565b905092915050565b600881106129c557600080fd5b50565b6000813590506129d7816129b8565b92915050565b600080fd5b600080fd5b600080fd5b60008083601f840112612a0257612a016129dd565b5b8235905067ffffffffffffffff811115612a1f57612a1e6129e2565b5b602083019150836020820283011115612a3b57612a3a6129e7565b5b9250929050565b600080600080600060808688031215612a5e57612a5d61276f565b5b6000612a6c888289016129c8565b9550506020612a7d8882890161279a565b9450506040612a8e8882890161279a565b935050606086013567ffffffffffffffff811115612aaf57612aae612774565b5b612abb888289016129ec565b92509250509295509295909350565b60008115159050919050565b612adf81612aca565b82525050565b6000602082019050612afa6000830184612ad6565b92915050565b612b0981612806565b8114612b1457600080fd5b50565b600081359050612b2681612b00565b92915050565b600060208284031215612b4257612b4161276f565b5b6000612b5084828501612b17565b91505092915050565b60008060008060608587031215612b7357612b7261276f565b5b6000612b8187828801612883565b9450506020612b9287828801612b17565b935050604085013567ffffffffffffffff811115612bb357612bb2612774565b5b612bbf878288016129ec565b925092505092959194509250565b60008083601f840112612be357612be26129dd565b5b8235905067ffffffffffffffff811115612c0057612bff6129e2565b5b602083019150836020820283011115612c1c57612c1b6129e7565b5b9250929050565b60008060208385031215612c3a57612c3961276f565b5b600083013567ffffffffffffffff811115612c5857612c57612774565b5b612c6485828601612bcd565b92509250509250929050565b6000612c7b8261283a565b9050919050565b612c8b81612c70565b8114612c9657600080fd5b50565b600081359050612ca881612c82565b92915050565b600060208284031215612cc457612cc361276f565b5b6000612cd284828501612c99565b91505092915050565b612ce48161285a565b82525050565b6000602082019050612cff6000830184612cdb565b92915050565b6000612d108261285a565b9050919050565b612d2081612d05565b8114612d2b57600080fd5b50565b600081359050612d3d81612d17565b92915050565b60008060408385031215612d5a57612d5961276f565b5b6000612d6885828601612d2e565b9250506020612d798582860161279a565b9150509250929050565b6000819050919050565b6000612da8612da3612d9e8461283a565b612d83565b61283a565b9050919050565b6000612dba82612d8d565b9050919050565b6000612dcc82612daf565b9050919050565b612ddc81612dc1565b82525050565b6000602082019050612df76000830184612dd3565b92915050565b60008083601f840112612e1357612e126129dd565b5b8235905067ffffffffffffffff811115612e3057612e2f6129e2565b5b602083019150836020820283011115612e4c57612e4b6129e7565b5b9250929050565b60008083601f840112612e6957612e686129dd565b5b8235905067ffffffffffffffff811115612e8657612e856129e2565b5b602083019150836020820283011115612ea257612ea16129e7565b5b9250929050565b60008060008060408587031215612ec357612ec261276f565b5b600085013567ffffffffffffffff811115612ee157612ee0612774565b5b612eed87828801612dfd565b9450945050602085013567ffffffffffffffff811115612f1057612f0f612774565b5b612f1c87828801612e53565b925092505092959194509250565b6000612f358261285a565b9050919050565b612f4581612f2a565b8114612f5057600080fd5b50565b600081359050612f6281612f3c565b92915050565b600060208284031215612f7e57612f7d61276f565b5b6000612f8c84828501612f53565b91505092915050565b60008060408385031215612fac57612fab61276f565b5b6000612fba858286016129c8565b9250506020612fcb8582860161279a565b9150509250929050565b600060208284031215612feb57612fea61276f565b5b6000612ff984828501612883565b91505092915050565b61300b81612c70565b82525050565b60006020820190506130266000830184613002565b92915050565b7f4e487b7100000000000000000000000000000000000000000000000000000000600052604160045260246000fd5b7f4e487b7100000000000000000000000000000000000000000000000000000000600052603260045260246000fd5b600081905092915050565b50565b60006130a560008361308a565b91506130b082613095565b600082019050919050565b60006130c682613098565b9150819050919050565b600082825260208201905092915050565b7f776974686472617720776173206e6f742073756363657366756c6c0000000000600082015250565b6000613117601b836130d0565b9150613122826130e1565b602082019050919050565b600060208201905081810360008301526131468161310a565b9050919050565b600060408201905061316260008301856127dc565b61316f60208301846127dc565b9392505050565b7f4e487b7100000000000000000000000000000000000000000000000000000000600052602160045260246000fd5b60008160601b9050919050565b60006131bd826131a5565b9050919050565b60006131cf826131b2565b9050919050565b6131e76131e28261285a565b6131c4565b82525050565b600081905092915050565b7f3a00000000000000000000000000000000000000000000000000000000000000600082015250565b600061322e6001836131ed565b9150613239826131f8565b600182019050919050565b6000819050919050565b61325f61325a82612779565b613244565b82525050565b600061327182866131d6565b60148201915061328082613221565b915061328c828561324e565b60208201915061329b82613221565b91506132a7828461324e565b602082019150819050949350505050565b7f496e76616c69642070726f6f662e000000000000000000000000000000000000600082015250565b60006132ee600e836130d0565b91506132f9826132b8565b602082019050919050565b6000602082019050818103600083015261331d816132e1565b9050919050565b7f4e487b7100000000000000000000000000000000000000000000000000000000600052601160045260246000fd5b600061335e82612779565b915061336983612779565b925082820190508082111561338157613380613324565b5b92915050565b7f436c61696d696e67206d6f7265207468616e20616c6c6f7765642e0000000000600082015250565b60006133bd601b836130d0565b91506133c882613387565b602082019050919050565b600060208201905081810360008301526133ec816133b0565b9050919050565b7f4d696e74696e67206d6f7265207468616e20616c6c6f7765642e000000000000600082015250565b6000613429601a836130d0565b9150613434826133f3565b602082019050919050565b600060208201905081810360008301526134588161341c565b9050919050565b600061346b82846131d6565b60148201915081905092915050565b6000819050919050565b600061349f61349a6134958461347a565b612d83565b612779565b9050919050565b6134af81613484565b82525050565b60006040820190506134ca60008301856127dc565b6134d760208301846134a6565b9392505050565b7f776974686472617720616c6c20776173206e6f742073756363657366756c6c00600082015250565b6000613514601f836130d0565b915061351f826134de565b602082019050919050565b6000602082019050818103600083015261354381613507565b9050919050565b600060408201905061355f6000830185612cdb565b61356c60208301846127dc565b9392505050565b61357c81612aca565b811461358757600080fd5b50565b60008151905061359981613573565b92915050565b6000602082840312156135b5576135b461276f565b5b60006135c38482850161358a565b91505092915050565b7f4172726179732073686f756c642068617665207468652073616d652073697a6560008201527f2e00000000000000000000000000000000000000000000000000000000000000602082015250565b60006136286021836130d0565b9150613633826135cc565b604082019050919050565b600060208201905081810360008301526136578161361b565b9050919050565b6000602082840312156136745761367361276f565b5b6000613682848285016129c8565b91505092915050565b600061369682612779565b91507fffffffffffffffffffffffffffffffffffffffffffffffffffffffffffffffff82036136c8576136c7613324565b5b600182019050919050565b60006136de82612779565b91506136e983612779565b925082820390508181111561370157613700613324565b5b92915050565b7f4f776e61626c653a206e6577206f776e657220697320746865207a65726f206160008201527f6464726573730000000000000000000000000000000000000000000000000000602082015250565b60006137636026836130d0565b915061376e82613707565b604082019050919050565b6000602082019050818103600083015261379281613756565b9050919050565b7f4f776e61626c653a2063616c6c6572206973206e6f7420746865206f776e6572600082015250565b60006137cf6020836130d0565b91506137da82613799565b602082019050919050565b600060208201905081810360008301526137fe816137c2565b9050919050565b7f5265656e7472616e637947756172643a207265656e7472616e742063616c6c00600082015250565b600061383b601f836130d0565b915061384682613805565b602082019050919050565b6000602082019050818103600083015261386a8161382e565b9050919050565b7f547279696e6720746f206d696e7420746f6f206d616e792072696e67732e0000600082015250565b60006138a7601e836130d0565b91506138b282613871565b602082019050919050565b600060208201905081810360008301526138d68161389a565b9050919050565b600881106138ee576138ed613176565b5b50565b60008190506138ff826138dd565b919050565b600061390f826138f1565b9050919050565b61391f81613904565b82525050565b600060608201905061393a6000830186612cdb565b61394760208301856127dc565b6139546040830184613916565b949350505050565b600061396782612779565b915061397283612779565b925082820261398081612779565b9150828204841483151761399757613996613324565b5b5092915050565b7f45746865722076616c75652073656e74206973206e6f7420616363757261746560008201527f2e00000000000000000000000000000000000000000000000000000000000000602082015250565b60006139fa6021836130d0565b9150613a058261399e565b604082019050919050565b60006020820190508181036000830152613a29816139ed565b9050919050565b7f4c6f63616c20696e646578206f766572666c6f772e0000000000000000000000600082015250565b6000613a666015836130d0565b9150613a7182613a30565b602082019050919050565b60006020820190508181036000830152613a9581613a59565b9050919050565b7f506c6f7420696e646578206f766572666c6f7700000000000000000000000000600082015250565b6000613ad26013836130d0565b9150613add82613a9c565b602082019050919050565b60006020820190508181036000830152613b0181613ac5565b905091905056fea26469706673582212206439c341525746751081422058480e45e7ea7146b1eb2a5c309a88c3ef39824464736f6c63430008120033","opcodes":"PUSH1 0x80 PUSH1 0x40 MSTORE PUSH1 0x40 MLOAD DUP1 PUSH2 0x100 ADD PUSH1 0x40 MSTORE DUP1 PUSH2 0x578 PUSH2 0xFFFF AND DUP2 MSTORE PUSH1 0x20 ADD PUSH2 0x578 PUSH2 0xFFFF AND DUP2 MSTORE PUSH1 0x20 ADD PUSH2 0x578 PUSH2 0xFFFF AND DUP2 MSTORE PUSH1 0x20 ADD PUSH2 0x578 PUSH2 0xFFFF AND DUP2 MSTORE PUSH1 0x20 ADD PUSH2 0x578 PUSH2 0xFFFF AND DUP2 MSTORE PUSH1 0x20 ADD PUSH2 0x578 PUSH2 0xFFFF AND DUP2 MSTORE PUSH1 0x20 ADD PUSH2 0x578 PUSH2 0xFFFF AND DUP2 MSTORE PUSH1 0x20 ADD PUSH1 0xC8 PUSH2 0xFFFF AND DUP2 MSTORE POP PUSH1 0x4 SWAP1 PUSH1 0x8 PUSH3 0x7F SWAP3 SWAP2 SWAP1 PUSH3 0x55C JUMP JUMPDEST POP PUSH1 0x40 MLOAD DUP1 PUSH2 0x100 ADD PUSH1 0x40 MSTORE DUP1 PUSH1 0x1 PUSH1 0xFF AND DUP2 MSTORE PUSH1 0x20 ADD PUSH1 0x1 PUSH1 0xFF AND DUP2 MSTORE PUSH1 0x20 ADD PUSH1 0x1 PUSH1 0xFF AND DUP2 MSTORE PUSH1 0x20 ADD PUSH1 0x1 PUSH1 0xFF AND DUP2 MSTORE PUSH1 0x20 ADD PUSH1 0x1 PUSH1 0xFF AND DUP2 MSTORE PUSH1 0x20 ADD PUSH1 0x1 PUSH1 0xFF AND DUP2 MSTORE PUSH1 0x20 ADD PUSH1 0x1 PUSH1 0xFF AND DUP2 MSTORE PUSH1 0x20 ADD PUSH1 0x1 PUSH1 0xFF AND DUP2 MSTORE POP PUSH1 0x5 SWAP1 PUSH1 0x8 PUSH3 0xEC SWAP3 SWAP2 SWAP1 PUSH3 0x5B4 JUMP JUMPDEST POP PUSH1 0x1 PUSH1 0x6 SSTORE PUSH1 0x40 MLOAD DUP1 PUSH2 0x100 ADD PUSH1 0x40 MSTORE DUP1 PUSH32 0xFFFFFFFFFFFFFFFFFFFFFFFFFFFFFFFFFFFFFFFFFFFFFFFFFFFFFFFFFFFFFFFF DUP2 MSTORE PUSH1 0x20 ADD PUSH32 0xFFFFFFFFFFFFFFFFFFFFFFFFFFFFFFFFFFFFFFFFFFFFFFFFFFFFFFFFFFFFFFFF DUP2 MSTORE PUSH1 0x20 ADD PUSH32 0xFFFFFFFFFFFFFFFFFFFFFFFFFFFFFFFFFFFFFFFFFFFFFFFFFFFFFFFFFFFFFFFF DUP2 MSTORE PUSH1 0x20 ADD PUSH32 0xFFFFFFFFFFFFFFFFFFFFFFFFFFFFFFFFFFFFFFFFFFFFFFFFFFFFFFFFFFFFFFFF DUP2 MSTORE PUSH1 0x20 ADD PUSH32 0xFFFFFFFFFFFFFFFFFFFFFFFFFFFFFFFFFFFFFFFFFFFFFFFFFFFFFFFFFFFFFFFF DUP2 MSTORE PUSH1 0x20 ADD PUSH32 0xFFFFFFFFFFFFFFFFFFFFFFFFFFFFFFFFFFFFFFFFFFFFFFFFFFFFFFFFFFFFFFFF DUP2 MSTORE PUSH1 0x20 ADD PUSH32 0xFFFFFFFFFFFFFFFFFFFFFFFFFFFFFFFFFFFFFFFFFFFFFFFFFFFFFFFFFFFFFFFF DUP2 MSTORE PUSH1 0x20 ADD PUSH32 0xFFFFFFFFFFFFFFFFFFFFFFFFFFFFFFFFFFFFFFFFFFFFFFFFFFFFFFFFFFFFFFFF DUP2 MSTORE POP PUSH1 0x7 SWAP1 PUSH1 0x8 PUSH3 0x23E SWAP3 SWAP2 SWAP1 PUSH3 0x60B JUMP JUMPDEST POP PUSH32 0xFFFFFFFFFFFFFFFFFFFFFFFFFFFFFFFFFFFFFFFFFFFFFFFFFFFFFFFFFFFFFFFF PUSH1 0x8 SSTORE PUSH32 0xFFFFFFFFFFFFFFFFFFFFFFFFFFFFFFFFFFFFFFFFFFFFFFFFFFFFFFFFFFFFFFFF PUSH1 0x9 SSTORE PUSH32 0xFFFFFFFFFFFFFFFFFFFFFFFFFFFFFFFFFFFFFFFFFFFFFFFFFFFFFFFFFFFFFFFF PUSH1 0xA SSTORE CALLVALUE DUP1 ISZERO PUSH3 0x2B8 JUMPI PUSH1 0x0 DUP1 REVERT JUMPDEST POP PUSH1 0x40 MLOAD PUSH3 0x42FD CODESIZE SUB DUP1 PUSH3 0x42FD DUP4 CODECOPY DUP2 DUP2 ADD PUSH1 0x40 MSTORE DUP2 ADD SWAP1 PUSH3 0x2DE SWAP2 SWAP1 PUSH3 0x6FA JUMP JUMPDEST PUSH3 0x2FE PUSH3 0x2F2 PUSH3 0x32E PUSH1 0x20 SHL PUSH1 0x20 SHR JUMP JUMPDEST PUSH3 0x336 PUSH1 0x20 SHL PUSH1 0x20 SHR JUMP JUMPDEST PUSH1 0x1 DUP1 DUP2 SWAP1 SSTORE POP PUSH3 0x316 DUP2 PUSH3 0x3FA PUSH1 0x20 SHL PUSH1 0x20 SHR JUMP JUMPDEST PUSH3 0x327 CALLER PUSH3 0x44E PUSH1 0x20 SHL PUSH1 0x20 SHR JUMP JUMPDEST POP PUSH3 0x7AF JUMP JUMPDEST PUSH1 0x0 CALLER SWAP1 POP SWAP1 JUMP JUMPDEST PUSH1 0x0 DUP1 PUSH1 0x0 SWAP1 SLOAD SWAP1 PUSH2 0x100 EXP SWAP1 DIV PUSH20 0xFFFFFFFFFFFFFFFFFFFFFFFFFFFFFFFFFFFFFFFF AND SWAP1 POP DUP2 PUSH1 0x0 DUP1 PUSH2 0x100 EXP DUP2 SLOAD DUP2 PUSH20 0xFFFFFFFFFFFFFFFFFFFFFFFFFFFFFFFFFFFFFFFF MUL NOT AND SWAP1 DUP4 PUSH20 0xFFFFFFFFFFFFFFFFFFFFFFFFFFFFFFFFFFFFFFFF AND MUL OR SWAP1 SSTORE POP DUP2 PUSH20 0xFFFFFFFFFFFFFFFFFFFFFFFFFFFFFFFFFFFFFFFF AND DUP2 PUSH20 0xFFFFFFFFFFFFFFFFFFFFFFFFFFFFFFFFFFFFFFFF AND PUSH32 0x8BE0079C531659141344CD1FD0A4F28419497F9722A3DAAFE3B4186F6B6457E0 PUSH1 0x40 MLOAD PUSH1 0x40 MLOAD DUP1 SWAP2 SUB SWAP1 LOG3 POP POP JUMP JUMPDEST PUSH3 0x40A PUSH3 0x4A2 PUSH1 0x20 SHL PUSH1 0x20 SHR JUMP JUMPDEST DUP1 PUSH1 0x2 PUSH1 0x0 PUSH2 0x100 EXP DUP2 SLOAD DUP2 PUSH20 0xFFFFFFFFFFFFFFFFFFFFFFFFFFFFFFFFFFFFFFFF MUL NOT AND SWAP1 DUP4 PUSH20 0xFFFFFFFFFFFFFFFFFFFFFFFFFFFFFFFFFFFFFFFF AND MUL OR SWAP1 SSTORE POP POP JUMP JUMPDEST PUSH3 0x45E PUSH3 0x4A2 PUSH1 0x20 SHL PUSH1 0x20 SHR JUMP JUMPDEST DUP1 PUSH1 0x3 PUSH1 0x0 PUSH2 0x100 EXP DUP2 SLOAD DUP2 PUSH20 0xFFFFFFFFFFFFFFFFFFFFFFFFFFFFFFFFFFFFFFFF MUL NOT AND SWAP1 DUP4 PUSH20 0xFFFFFFFFFFFFFFFFFFFFFFFFFFFFFFFFFFFFFFFF AND MUL OR SWAP1 SSTORE POP POP JUMP JUMPDEST PUSH3 0x4B2 PUSH3 0x32E PUSH1 0x20 SHL PUSH1 0x20 SHR JUMP JUMPDEST PUSH20 0xFFFFFFFFFFFFFFFFFFFFFFFFFFFFFFFFFFFFFFFF AND PUSH3 0x4D8 PUSH3 0x533 PUSH1 0x20 SHL PUSH1 0x20 SHR JUMP JUMPDEST PUSH20 0xFFFFFFFFFFFFFFFFFFFFFFFFFFFFFFFFFFFFFFFF AND EQ PUSH3 0x531 JUMPI PUSH1 0x40 MLOAD PUSH32 0x8C379A000000000000000000000000000000000000000000000000000000000 DUP2 MSTORE PUSH1 0x4 ADD PUSH3 0x528 SWAP1 PUSH3 0x78D JUMP JUMPDEST PUSH1 0x40 MLOAD DUP1 SWAP2 SUB SWAP1 REVERT JUMPDEST JUMP JUMPDEST PUSH1 0x0 DUP1 PUSH1 0x0 SWAP1 SLOAD SWAP1 PUSH2 0x100 EXP SWAP1 DIV PUSH20 0xFFFFFFFFFFFFFFFFFFFFFFFFFFFFFFFFFFFFFFFF AND SWAP1 POP SWAP1 JUMP JUMPDEST DUP3 DUP1 SLOAD DUP3 DUP3 SSTORE SWAP1 PUSH1 0x0 MSTORE PUSH1 0x20 PUSH1 0x0 KECCAK256 SWAP1 DUP2 ADD SWAP3 DUP3 ISZERO PUSH3 0x5A1 JUMPI SWAP2 PUSH1 0x20 MUL DUP3 ADD JUMPDEST DUP3 DUP2 GT ISZERO PUSH3 0x5A0 JUMPI DUP3 MLOAD DUP3 SWAP1 PUSH2 0xFFFF AND SWAP1 SSTORE SWAP2 PUSH1 0x20 ADD SWAP2 SWAP1 PUSH1 0x1 ADD SWAP1 PUSH3 0x57D JUMP JUMPDEST JUMPDEST POP SWAP1 POP PUSH3 0x5B0 SWAP2 SWAP1 PUSH3 0x65D JUMP JUMPDEST POP SWAP1 JUMP JUMPDEST DUP3 DUP1 SLOAD DUP3 DUP3 SSTORE SWAP1 PUSH1 0x0 MSTORE PUSH1 0x20 PUSH1 0x0 KECCAK256 SWAP1 DUP2 ADD SWAP3 DUP3 ISZERO PUSH3 0x5F8 JUMPI SWAP2 PUSH1 0x20 MUL DUP3 ADD JUMPDEST DUP3 DUP2 GT ISZERO PUSH3 0x5F7 JUMPI DUP3 MLOAD DUP3 SWAP1 PUSH1 0xFF AND SWAP1 SSTORE SWAP2 PUSH1 0x20 ADD SWAP2 SWAP1 PUSH1 0x1 ADD SWAP1 PUSH3 0x5D5 JUMP JUMPDEST JUMPDEST POP SWAP1 POP PUSH3 0x607 SWAP2 SWAP1 PUSH3 0x65D JUMP JUMPDEST POP SWAP1 JUMP JUMPDEST DUP3 DUP1 SLOAD DUP3 DUP3 SSTORE SWAP1 PUSH1 0x0 MSTORE PUSH1 0x20 PUSH1 0x0 KECCAK256 SWAP1 DUP2 ADD SWAP3 DUP3 ISZERO PUSH3 0x64A JUMPI SWAP2 PUSH1 0x20 MUL DUP3 ADD JUMPDEST DUP3 DUP2 GT ISZERO PUSH3 0x649 JUMPI DUP3 MLOAD DUP3 SSTORE SWAP2 PUSH1 0x20 ADD SWAP2 SWAP1 PUSH1 0x1 ADD SWAP1 PUSH3 0x62C JUMP JUMPDEST JUMPDEST POP SWAP1 POP PUSH3 0x659 SWAP2 SWAP1 PUSH3 0x65D JUMP JUMPDEST POP SWAP1 JUMP JUMPDEST JUMPDEST DUP1 DUP3 GT ISZERO PUSH3 0x678 JUMPI PUSH1 0x0 DUP2 PUSH1 0x0 SWAP1 SSTORE POP PUSH1 0x1 ADD PUSH3 0x65E JUMP JUMPDEST POP SWAP1 JUMP JUMPDEST PUSH1 0x0 DUP1 REVERT JUMPDEST PUSH1 0x0 PUSH20 0xFFFFFFFFFFFFFFFFFFFFFFFFFFFFFFFFFFFFFFFF DUP3 AND SWAP1 POP SWAP2 SWAP1 POP JUMP JUMPDEST PUSH1 0x0 PUSH3 0x6AE DUP3 PUSH3 0x681 JUMP JUMPDEST SWAP1 POP SWAP2 SWAP1 POP JUMP JUMPDEST PUSH1 0x0 PUSH3 0x6C2 DUP3 PUSH3 0x6A1 JUMP JUMPDEST SWAP1 POP SWAP2 SWAP1 POP JUMP JUMPDEST PUSH3 0x6D4 DUP2 PUSH3 0x6B5 JUMP JUMPDEST DUP2 EQ PUSH3 0x6E0 JUMPI PUSH1 0x0 DUP1 REVERT JUMPDEST POP JUMP JUMPDEST PUSH1 0x0 DUP2 MLOAD SWAP1 POP PUSH3 0x6F4 DUP2 PUSH3 0x6C9 JUMP JUMPDEST SWAP3 SWAP2 POP POP JUMP JUMPDEST PUSH1 0x0 PUSH1 0x20 DUP3 DUP5 SUB SLT ISZERO PUSH3 0x713 JUMPI PUSH3 0x712 PUSH3 0x67C JUMP JUMPDEST JUMPDEST PUSH1 0x0 PUSH3 0x723 DUP5 DUP3 DUP6 ADD PUSH3 0x6E3 JUMP JUMPDEST SWAP2 POP POP SWAP3 SWAP2 POP POP JUMP JUMPDEST PUSH1 0x0 DUP3 DUP3 MSTORE PUSH1 0x20 DUP3 ADD SWAP1 POP SWAP3 SWAP2 POP POP JUMP JUMPDEST PUSH32 0x4F776E61626C653A2063616C6C6572206973206E6F7420746865206F776E6572 PUSH1 0x0 DUP3 ADD MSTORE POP JUMP JUMPDEST PUSH1 0x0 PUSH3 0x775 PUSH1 0x20 DUP4 PUSH3 0x72C JUMP JUMPDEST SWAP2 POP PUSH3 0x782 DUP3 PUSH3 0x73D JUMP JUMPDEST PUSH1 0x20 DUP3 ADD SWAP1 POP SWAP2 SWAP1 POP JUMP JUMPDEST PUSH1 0x0 PUSH1 0x20 DUP3 ADD SWAP1 POP DUP2 DUP2 SUB PUSH1 0x0 DUP4 ADD MSTORE PUSH3 0x7A8 DUP2 PUSH3 0x766 JUMP JUMPDEST SWAP1 POP SWAP2 SWAP1 POP JUMP JUMPDEST PUSH2 0x3B3E DUP1 PUSH3 0x7BF PUSH1 0x0 CODECOPY PUSH1 0x0 RETURN INVALID PUSH1 0x80 PUSH1 0x40 MSTORE PUSH1 0x4 CALLDATASIZE LT PUSH2 0x272 JUMPI PUSH1 0x0 CALLDATALOAD PUSH1 0xE0 SHR DUP1 PUSH4 0x853828B6 GT PUSH2 0x14F JUMPI DUP1 PUSH4 0xAE6B6DAE GT PUSH2 0xC1 JUMPI DUP1 PUSH4 0xD3CF00A3 GT PUSH2 0x7A JUMPI DUP1 PUSH4 0xD3CF00A3 EQ PUSH2 0x90E JUMPI DUP1 PUSH4 0xF26748E2 EQ PUSH2 0x939 JUMPI DUP1 PUSH4 0xF2FDE38B EQ PUSH2 0x955 JUMPI DUP1 PUSH4 0xF4CDE4C0 EQ PUSH2 0x97E JUMPI DUP1 PUSH4 0xFBFA77CF EQ PUSH2 0x9A9 JUMPI DUP1 PUSH4 0xFCBFE13C EQ PUSH2 0x9D4 JUMPI PUSH2 0x272 JUMP JUMPDEST DUP1 PUSH4 0xAE6B6DAE EQ PUSH2 0x814 JUMPI DUP1 PUSH4 0xB9A43F2E EQ PUSH2 0x83D JUMPI DUP1 PUSH4 0xBD7FD06D EQ PUSH2 0x868 JUMPI DUP1 PUSH4 0xC2774DAC EQ PUSH2 0x893 JUMPI DUP1 PUSH4 0xCC644FD2 EQ PUSH2 0x8BC JUMPI DUP1 PUSH4 0xCEF58283 EQ PUSH2 0x8E5 JUMPI PUSH2 0x272 JUMP JUMPDEST DUP1 PUSH4 0x93CB4147 GT PUSH2 0x113 JUMPI DUP1 PUSH4 0x93CB4147 EQ PUSH2 0x706 JUMPI DUP1 PUSH4 0x96C9F88B EQ PUSH2 0x731 JUMPI DUP1 PUSH4 0x9727151A EQ PUSH2 0x76E JUMPI DUP1 PUSH4 0x9B68A6EF EQ PUSH2 0x797 JUMPI DUP1 PUSH4 0x9F0664B5 EQ PUSH2 0x7C2 JUMPI DUP1 PUSH4 0xA637F973 EQ PUSH2 0x7EB JUMPI PUSH2 0x272 JUMP JUMPDEST DUP1 PUSH4 0x853828B6 EQ PUSH2 0x645 JUMPI DUP1 PUSH4 0x85535CC5 EQ PUSH2 0x65C JUMPI DUP1 PUSH4 0x8C6D8EF6 EQ PUSH2 0x685 JUMPI DUP1 PUSH4 0x8D56A17B EQ PUSH2 0x6B0 JUMPI DUP1 PUSH4 0x8DA5CB5B EQ PUSH2 0x6DB JUMPI PUSH2 0x272 JUMP JUMPDEST DUP1 PUSH4 0x46BF289F GT PUSH2 0x1E8 JUMPI DUP1 PUSH4 0x5FCD80A6 GT PUSH2 0x1AC JUMPI DUP1 PUSH4 0x5FCD80A6 EQ PUSH2 0x539 JUMPI DUP1 PUSH4 0x6E1A1A60 EQ PUSH2 0x562 JUMPI DUP1 PUSH4 0x715018A6 EQ PUSH2 0x58B JUMPI DUP1 PUSH4 0x772D3BE0 EQ PUSH2 0x5A2 JUMPI DUP1 PUSH4 0x792A77D9 EQ PUSH2 0x5DF JUMPI DUP1 PUSH4 0x79CF92D3 EQ PUSH2 0x61C JUMPI PUSH2 0x272 JUMP JUMPDEST DUP1 PUSH4 0x46BF289F EQ PUSH2 0x471 JUMPI DUP1 PUSH4 0x4E054C39 EQ PUSH2 0x49C JUMPI DUP1 PUSH4 0x4ED1EB24 EQ PUSH2 0x4B8 JUMPI DUP1 PUSH4 0x50A99405 EQ PUSH2 0x4E3 JUMPI DUP1 PUSH4 0x5242A493 EQ PUSH2 0x50E JUMPI PUSH2 0x272 JUMP JUMPDEST DUP1 PUSH4 0x2B7B4AEF GT PUSH2 0x23A JUMPI DUP1 PUSH4 0x2B7B4AEF EQ PUSH2 0x370 JUMPI DUP1 PUSH4 0x2CE82A71 EQ PUSH2 0x3AD JUMPI DUP1 PUSH4 0x2E1A7D4D EQ PUSH2 0x3D8 JUMPI DUP1 PUSH4 0x33A5A99F EQ PUSH2 0x401 JUMPI DUP1 PUSH4 0x3E97414F EQ PUSH2 0x41D JUMPI DUP1 PUSH4 0x411D13F7 EQ PUSH2 0x448 JUMPI PUSH2 0x272 JUMP JUMPDEST DUP1 PUSH4 0x158AE298 EQ PUSH2 0x277 JUMPI DUP1 PUSH4 0x1C7F4A02 EQ PUSH2 0x2B4 JUMPI DUP1 PUSH4 0x2560E376 EQ PUSH2 0x2DF JUMPI DUP1 PUSH4 0x260C0886 EQ PUSH2 0x30A JUMPI DUP1 PUSH4 0x294548A4 EQ PUSH2 0x333 JUMPI JUMPDEST PUSH1 0x0 DUP1 REVERT JUMPDEST CALLVALUE DUP1 ISZERO PUSH2 0x283 JUMPI PUSH1 0x0 DUP1 REVERT JUMPDEST POP PUSH2 0x29E PUSH1 0x4 DUP1 CALLDATASIZE SUB DUP2 ADD SWAP1 PUSH2 0x299 SWAP2 SWAP1 PUSH2 0x27AF JUMP JUMPDEST PUSH2 0xA11 JUMP JUMPDEST PUSH1 0x40 MLOAD PUSH2 0x2AB SWAP2 SWAP1 PUSH2 0x27EB JUMP JUMPDEST PUSH1 0x40 MLOAD DUP1 SWAP2 SUB SWAP1 RETURN JUMPDEST CALLVALUE DUP1 ISZERO PUSH2 0x2C0 JUMPI PUSH1 0x0 DUP1 REVERT JUMPDEST POP PUSH2 0x2C9 PUSH2 0xA29 JUMP JUMPDEST PUSH1 0x40 MLOAD PUSH2 0x2D6 SWAP2 SWAP1 PUSH2 0x281F JUMP JUMPDEST PUSH1 0x40 MLOAD DUP1 SWAP2 SUB SWAP1 RETURN JUMPDEST CALLVALUE DUP1 ISZERO PUSH2 0x2EB JUMPI PUSH1 0x0 DUP1 REVERT JUMPDEST POP PUSH2 0x2F4 PUSH2 0xA2F JUMP JUMPDEST PUSH1 0x40 MLOAD PUSH2 0x301 SWAP2 SWAP1 PUSH2 0x281F JUMP JUMPDEST PUSH1 0x40 MLOAD DUP1 SWAP2 SUB SWAP1 RETURN JUMPDEST CALLVALUE DUP1 ISZERO PUSH2 0x316 JUMPI PUSH1 0x0 DUP1 REVERT JUMPDEST POP PUSH2 0x331 PUSH1 0x4 DUP1 CALLDATASIZE SUB DUP2 ADD SWAP1 PUSH2 0x32C SWAP2 SWAP1 PUSH2 0x27AF JUMP JUMPDEST PUSH2 0xA35 JUMP JUMPDEST STOP JUMPDEST CALLVALUE DUP1 ISZERO PUSH2 0x33F JUMPI PUSH1 0x0 DUP1 REVERT JUMPDEST POP PUSH2 0x35A PUSH1 0x4 DUP1 CALLDATASIZE SUB DUP2 ADD SWAP1 PUSH2 0x355 SWAP2 SWAP1 PUSH2 0x2898 JUMP JUMPDEST PUSH2 0xA47 JUMP JUMPDEST PUSH1 0x40 MLOAD PUSH2 0x367 SWAP2 SWAP1 PUSH2 0x27EB JUMP JUMPDEST PUSH1 0x40 MLOAD DUP1 SWAP2 SUB SWAP1 RETURN JUMPDEST CALLVALUE DUP1 ISZERO PUSH2 0x37C JUMPI PUSH1 0x0 DUP1 REVERT JUMPDEST POP PUSH2 0x397 PUSH1 0x4 DUP1 CALLDATASIZE SUB DUP2 ADD SWAP1 PUSH2 0x392 SWAP2 SWAP1 PUSH2 0x27AF JUMP JUMPDEST PUSH2 0xA6C JUMP JUMPDEST PUSH1 0x40 MLOAD PUSH2 0x3A4 SWAP2 SWAP1 PUSH2 0x27EB JUMP JUMPDEST PUSH1 0x40 MLOAD DUP1 SWAP2 SUB SWAP1 RETURN JUMPDEST CALLVALUE DUP1 ISZERO PUSH2 0x3B9 JUMPI PUSH1 0x0 DUP1 REVERT JUMPDEST POP PUSH2 0x3C2 PUSH2 0xA79 JUMP JUMPDEST PUSH1 0x40 MLOAD PUSH2 0x3CF SWAP2 SWAP1 PUSH2 0x2996 JUMP JUMPDEST PUSH1 0x40 MLOAD DUP1 SWAP2 SUB SWAP1 RETURN JUMPDEST CALLVALUE DUP1 ISZERO PUSH2 0x3E4 JUMPI PUSH1 0x0 DUP1 REVERT JUMPDEST POP PUSH2 0x3FF PUSH1 0x4 DUP1 CALLDATASIZE SUB DUP2 ADD SWAP1 PUSH2 0x3FA SWAP2 SWAP1 PUSH2 0x27AF JUMP JUMPDEST PUSH2 0xC77 JUMP JUMPDEST STOP JUMPDEST PUSH2 0x41B PUSH1 0x4 DUP1 CALLDATASIZE SUB DUP2 ADD SWAP1 PUSH2 0x416 SWAP2 SWAP1 PUSH2 0x2A42 JUMP JUMPDEST PUSH2 0xD51 JUMP JUMPDEST STOP JUMPDEST CALLVALUE DUP1 ISZERO PUSH2 0x429 JUMPI PUSH1 0x0 DUP1 REVERT JUMPDEST POP PUSH2 0x432 PUSH2 0xF80 JUMP JUMPDEST PUSH1 0x40 MLOAD PUSH2 0x43F SWAP2 SWAP1 PUSH2 0x2AE5 JUMP JUMPDEST PUSH1 0x40 MLOAD DUP1 SWAP2 SUB SWAP1 RETURN JUMPDEST CALLVALUE DUP1 ISZERO PUSH2 0x454 JUMPI PUSH1 0x0 DUP1 REVERT JUMPDEST POP PUSH2 0x46F PUSH1 0x4 DUP1 CALLDATASIZE SUB DUP2 ADD SWAP1 PUSH2 0x46A SWAP2 SWAP1 PUSH2 0x2B2C JUMP JUMPDEST PUSH2 0xF8D JUMP JUMPDEST STOP JUMPDEST CALLVALUE DUP1 ISZERO PUSH2 0x47D JUMPI PUSH1 0x0 DUP1 REVERT JUMPDEST POP PUSH2 0x486 PUSH2 0xF9F JUMP JUMPDEST PUSH1 0x40 MLOAD PUSH2 0x493 SWAP2 SWAP1 PUSH2 0x27EB JUMP JUMPDEST PUSH1 0x40 MLOAD DUP1 SWAP2 SUB SWAP1 RETURN JUMPDEST PUSH2 0x4B6 PUSH1 0x4 DUP1 CALLDATASIZE SUB DUP2 ADD SWAP1 PUSH2 0x4B1 SWAP2 SWAP1 PUSH2 0x2A42 JUMP JUMPDEST PUSH2 0x1098 JUMP JUMPDEST STOP JUMPDEST CALLVALUE DUP1 ISZERO PUSH2 0x4C4 JUMPI PUSH1 0x0 DUP1 REVERT JUMPDEST POP PUSH2 0x4CD PUSH2 0x1364 JUMP JUMPDEST PUSH1 0x40 MLOAD PUSH2 0x4DA SWAP2 SWAP1 PUSH2 0x281F JUMP JUMPDEST PUSH1 0x40 MLOAD DUP1 SWAP2 SUB SWAP1 RETURN JUMPDEST CALLVALUE DUP1 ISZERO PUSH2 0x4EF JUMPI PUSH1 0x0 DUP1 REVERT JUMPDEST POP PUSH2 0x4F8 PUSH2 0x136A JUMP JUMPDEST PUSH1 0x40 MLOAD PUSH2 0x505 SWAP2 SWAP1 PUSH2 0x2996 JUMP JUMPDEST PUSH1 0x40 MLOAD DUP1 SWAP2 SUB SWAP1 RETURN JUMPDEST CALLVALUE DUP1 ISZERO PUSH2 0x51A JUMPI PUSH1 0x0 DUP1 REVERT JUMPDEST POP PUSH2 0x523 PUSH2 0x13C2 JUMP JUMPDEST PUSH1 0x40 MLOAD PUSH2 0x530 SWAP2 SWAP1 PUSH2 0x27EB JUMP JUMPDEST PUSH1 0x40 MLOAD DUP1 SWAP2 SUB SWAP1 RETURN JUMPDEST CALLVALUE DUP1 ISZERO PUSH2 0x545 JUMPI PUSH1 0x0 DUP1 REVERT JUMPDEST POP PUSH2 0x560 PUSH1 0x4 DUP1 CALLDATASIZE SUB DUP2 ADD SWAP1 PUSH2 0x55B SWAP2 SWAP1 PUSH2 0x27AF JUMP JUMPDEST PUSH2 0x13C8 JUMP JUMPDEST STOP JUMPDEST CALLVALUE DUP1 ISZERO PUSH2 0x56E JUMPI PUSH1 0x0 DUP1 REVERT JUMPDEST POP PUSH2 0x589 PUSH1 0x4 DUP1 CALLDATASIZE SUB DUP2 ADD SWAP1 PUSH2 0x584 SWAP2 SWAP1 PUSH2 0x27AF JUMP JUMPDEST PUSH2 0x13DA JUMP JUMPDEST STOP JUMPDEST CALLVALUE DUP1 ISZERO PUSH2 0x597 JUMPI PUSH1 0x0 DUP1 REVERT JUMPDEST POP PUSH2 0x5A0 PUSH2 0x13EC JUMP JUMPDEST STOP JUMPDEST CALLVALUE DUP1 ISZERO PUSH2 0x5AE JUMPI PUSH1 0x0 DUP1 REVERT JUMPDEST POP PUSH2 0x5C9 PUSH1 0x4 DUP1 CALLDATASIZE SUB DUP2 ADD SWAP1 PUSH2 0x5C4 SWAP2 SWAP1 PUSH2 0x2898 JUMP JUMPDEST PUSH2 0x1400 JUMP JUMPDEST PUSH1 0x40 MLOAD PUSH2 0x5D6 SWAP2 SWAP1 PUSH2 0x27EB JUMP JUMPDEST PUSH1 0x40 MLOAD DUP1 SWAP2 SUB SWAP1 RETURN JUMPDEST CALLVALUE DUP1 ISZERO PUSH2 0x5EB JUMPI PUSH1 0x0 DUP1 REVERT JUMPDEST POP PUSH2 0x606 PUSH1 0x4 DUP1 CALLDATASIZE SUB DUP2 ADD SWAP1 PUSH2 0x601 SWAP2 SWAP1 PUSH2 0x2B59 JUMP JUMPDEST PUSH2 0x1425 JUMP JUMPDEST PUSH1 0x40 MLOAD PUSH2 0x613 SWAP2 SWAP1 PUSH2 0x2AE5 JUMP JUMPDEST PUSH1 0x40 MLOAD DUP1 SWAP2 SUB SWAP1 RETURN JUMPDEST CALLVALUE DUP1 ISZERO PUSH2 0x628 JUMPI PUSH1 0x0 DUP1 REVERT JUMPDEST POP PUSH2 0x643 PUSH1 0x4 DUP1 CALLDATASIZE SUB DUP2 ADD SWAP1 PUSH2 0x63E SWAP2 SWAP1 PUSH2 0x2C23 JUMP JUMPDEST PUSH2 0x1522 JUMP JUMPDEST STOP JUMPDEST CALLVALUE DUP1 ISZERO PUSH2 0x651 JUMPI PUSH1 0x0 DUP1 REVERT JUMPDEST POP PUSH2 0x65A PUSH2 0x15CE JUMP JUMPDEST STOP JUMPDEST CALLVALUE DUP1 ISZERO PUSH2 0x668 JUMPI PUSH1 0x0 DUP1 REVERT JUMPDEST POP PUSH2 0x683 PUSH1 0x4 DUP1 CALLDATASIZE SUB DUP2 ADD SWAP1 PUSH2 0x67E SWAP2 SWAP1 PUSH2 0x2CAE JUMP JUMPDEST PUSH2 0x16A7 JUMP JUMPDEST STOP JUMPDEST CALLVALUE DUP1 ISZERO PUSH2 0x691 JUMPI PUSH1 0x0 DUP1 REVERT JUMPDEST POP PUSH2 0x69A PUSH2 0x16F3 JUMP JUMPDEST PUSH1 0x40 MLOAD PUSH2 0x6A7 SWAP2 SWAP1 PUSH2 0x2AE5 JUMP JUMPDEST PUSH1 0x40 MLOAD DUP1 SWAP2 SUB SWAP1 RETURN JUMPDEST CALLVALUE DUP1 ISZERO PUSH2 0x6BC JUMPI PUSH1 0x0 DUP1 REVERT JUMPDEST POP PUSH2 0x6C5 PUSH2 0x1700 JUMP JUMPDEST PUSH1 0x40 MLOAD PUSH2 0x6D2 SWAP2 SWAP1 PUSH2 0x27EB JUMP JUMPDEST PUSH1 0x40 MLOAD DUP1 SWAP2 SUB SWAP1 RETURN JUMPDEST CALLVALUE DUP1 ISZERO PUSH2 0x6E7 JUMPI PUSH1 0x0 DUP1 REVERT JUMPDEST POP PUSH2 0x6F0 PUSH2 0x1706 JUMP JUMPDEST PUSH1 0x40 MLOAD PUSH2 0x6FD SWAP2 SWAP1 PUSH2 0x2CEA JUMP JUMPDEST PUSH1 0x40 MLOAD DUP1 SWAP2 SUB SWAP1 RETURN JUMPDEST CALLVALUE DUP1 ISZERO PUSH2 0x712 JUMPI PUSH1 0x0 DUP1 REVERT JUMPDEST POP PUSH2 0x71B PUSH2 0x172F JUMP JUMPDEST PUSH1 0x40 MLOAD PUSH2 0x728 SWAP2 SWAP1 PUSH2 0x2AE5 JUMP JUMPDEST PUSH1 0x40 MLOAD DUP1 SWAP2 SUB SWAP1 RETURN JUMPDEST CALLVALUE DUP1 ISZERO PUSH2 0x73D JUMPI PUSH1 0x0 DUP1 REVERT JUMPDEST POP PUSH2 0x758 PUSH1 0x4 DUP1 CALLDATASIZE SUB DUP2 ADD SWAP1 PUSH2 0x753 SWAP2 SWAP1 PUSH2 0x27AF JUMP JUMPDEST PUSH2 0x173C JUMP JUMPDEST PUSH1 0x40 MLOAD PUSH2 0x765 SWAP2 SWAP1 PUSH2 0x27EB JUMP JUMPDEST PUSH1 0x40 MLOAD DUP1 SWAP2 SUB SWAP1 RETURN JUMPDEST CALLVALUE DUP1 ISZERO PUSH2 0x77A JUMPI PUSH1 0x0 DUP1 REVERT JUMPDEST POP PUSH2 0x795 PUSH1 0x4 DUP1 CALLDATASIZE SUB DUP2 ADD SWAP1 PUSH2 0x790 SWAP2 SWAP1 PUSH2 0x2D43 JUMP JUMPDEST PUSH2 0x1760 JUMP JUMPDEST STOP JUMPDEST CALLVALUE DUP1 ISZERO PUSH2 0x7A3 JUMPI PUSH1 0x0 DUP1 REVERT JUMPDEST POP PUSH2 0x7AC PUSH2 0x1851 JUMP JUMPDEST PUSH1 0x40 MLOAD PUSH2 0x7B9 SWAP2 SWAP1 PUSH2 0x2DE2 JUMP JUMPDEST PUSH1 0x40 MLOAD DUP1 SWAP2 SUB SWAP1 RETURN JUMPDEST CALLVALUE DUP1 ISZERO PUSH2 0x7CE JUMPI PUSH1 0x0 DUP1 REVERT JUMPDEST POP PUSH2 0x7E9 PUSH1 0x4 DUP1 CALLDATASIZE SUB DUP2 ADD SWAP1 PUSH2 0x7E4 SWAP2 SWAP1 PUSH2 0x2EA9 JUMP JUMPDEST PUSH2 0x1877 JUMP JUMPDEST STOP JUMPDEST CALLVALUE DUP1 ISZERO PUSH2 0x7F7 JUMPI PUSH1 0x0 DUP1 REVERT JUMPDEST POP PUSH2 0x812 PUSH1 0x4 DUP1 CALLDATASIZE SUB DUP2 ADD SWAP1 PUSH2 0x80D SWAP2 SWAP1 PUSH2 0x27AF JUMP JUMPDEST PUSH2 0x1947 JUMP JUMPDEST STOP JUMPDEST CALLVALUE DUP1 ISZERO PUSH2 0x820 JUMPI PUSH1 0x0 DUP1 REVERT JUMPDEST POP PUSH2 0x83B PUSH1 0x4 DUP1 CALLDATASIZE SUB DUP2 ADD SWAP1 PUSH2 0x836 SWAP2 SWAP1 PUSH2 0x2F68 JUMP JUMPDEST PUSH2 0x1998 JUMP JUMPDEST STOP JUMPDEST CALLVALUE DUP1 ISZERO PUSH2 0x849 JUMPI PUSH1 0x0 DUP1 REVERT JUMPDEST POP PUSH2 0x852 PUSH2 0x19E4 JUMP JUMPDEST PUSH1 0x40 MLOAD PUSH2 0x85F SWAP2 SWAP1 PUSH2 0x2996 JUMP JUMPDEST PUSH1 0x40 MLOAD DUP1 SWAP2 SUB SWAP1 RETURN JUMPDEST CALLVALUE DUP1 ISZERO PUSH2 0x874 JUMPI PUSH1 0x0 DUP1 REVERT JUMPDEST POP PUSH2 0x87D PUSH2 0x1D31 JUMP JUMPDEST PUSH1 0x40 MLOAD PUSH2 0x88A SWAP2 SWAP1 PUSH2 0x2996 JUMP JUMPDEST PUSH1 0x40 MLOAD DUP1 SWAP2 SUB SWAP1 RETURN JUMPDEST CALLVALUE DUP1 ISZERO PUSH2 0x89F JUMPI PUSH1 0x0 DUP1 REVERT JUMPDEST POP PUSH2 0x8BA PUSH1 0x4 DUP1 CALLDATASIZE SUB DUP2 ADD SWAP1 PUSH2 0x8B5 SWAP2 SWAP1 PUSH2 0x2B2C JUMP JUMPDEST PUSH2 0x1D89 JUMP JUMPDEST STOP JUMPDEST CALLVALUE DUP1 ISZERO PUSH2 0x8C8 JUMPI PUSH1 0x0 DUP1 REVERT JUMPDEST POP PUSH2 0x8E3 PUSH1 0x4 DUP1 CALLDATASIZE SUB DUP2 ADD SWAP1 PUSH2 0x8DE SWAP2 SWAP1 PUSH2 0x2C23 JUMP JUMPDEST PUSH2 0x1D9B JUMP JUMPDEST STOP JUMPDEST CALLVALUE DUP1 ISZERO PUSH2 0x8F1 JUMPI PUSH1 0x0 DUP1 REVERT JUMPDEST POP PUSH2 0x90C PUSH1 0x4 DUP1 CALLDATASIZE SUB DUP2 ADD SWAP1 PUSH2 0x907 SWAP2 SWAP1 PUSH2 0x2B2C JUMP JUMPDEST PUSH2 0x1E46 JUMP JUMPDEST STOP JUMPDEST CALLVALUE DUP1 ISZERO PUSH2 0x91A JUMPI PUSH1 0x0 DUP1 REVERT JUMPDEST POP PUSH2 0x923 PUSH2 0x1E58 JUMP JUMPDEST PUSH1 0x40 MLOAD PUSH2 0x930 SWAP2 SWAP1 PUSH2 0x27EB JUMP JUMPDEST PUSH1 0x40 MLOAD DUP1 SWAP2 SUB SWAP1 RETURN JUMPDEST PUSH2 0x953 PUSH1 0x4 DUP1 CALLDATASIZE SUB DUP2 ADD SWAP1 PUSH2 0x94E SWAP2 SWAP1 PUSH2 0x2F95 JUMP JUMPDEST PUSH2 0x1E5E JUMP JUMPDEST STOP JUMPDEST CALLVALUE DUP1 ISZERO PUSH2 0x961 JUMPI PUSH1 0x0 DUP1 REVERT JUMPDEST POP PUSH2 0x97C PUSH1 0x4 DUP1 CALLDATASIZE SUB DUP2 ADD SWAP1 PUSH2 0x977 SWAP2 SWAP1 PUSH2 0x2FD5 JUMP JUMPDEST PUSH2 0x1F12 JUMP JUMPDEST STOP JUMPDEST CALLVALUE DUP1 ISZERO PUSH2 0x98A JUMPI PUSH1 0x0 DUP1 REVERT JUMPDEST POP PUSH2 0x993 PUSH2 0x1F95 JUMP JUMPDEST PUSH1 0x40 MLOAD PUSH2 0x9A0 SWAP2 SWAP1 PUSH2 0x27EB JUMP JUMPDEST PUSH1 0x40 MLOAD DUP1 SWAP2 SUB SWAP1 RETURN JUMPDEST CALLVALUE DUP1 ISZERO PUSH2 0x9B5 JUMPI PUSH1 0x0 DUP1 REVERT JUMPDEST POP PUSH2 0x9BE PUSH2 0x1F9B JUMP JUMPDEST PUSH1 0x40 MLOAD PUSH2 0x9CB SWAP2 SWAP1 PUSH2 0x3011 JUMP JUMPDEST PUSH1 0x40 MLOAD DUP1 SWAP2 SUB SWAP1 RETURN JUMPDEST CALLVALUE DUP1 ISZERO PUSH2 0x9E0 JUMPI PUSH1 0x0 DUP1 REVERT JUMPDEST POP PUSH2 0x9FB PUSH1 0x4 DUP1 CALLDATASIZE SUB DUP2 ADD SWAP1 PUSH2 0x9F6 SWAP2 SWAP1 PUSH2 0x27AF JUMP JUMPDEST PUSH2 0x1FC1 JUMP JUMPDEST PUSH1 0x40 MLOAD PUSH2 0xA08 SWAP2 SWAP1 PUSH2 0x27EB JUMP JUMPDEST PUSH1 0x40 MLOAD DUP1 SWAP2 SUB SWAP1 RETURN JUMPDEST PUSH1 0xE PUSH1 0x20 MSTORE DUP1 PUSH1 0x0 MSTORE PUSH1 0x40 PUSH1 0x0 KECCAK256 PUSH1 0x0 SWAP2 POP SWAP1 POP SLOAD DUP2 JUMP JUMPDEST PUSH1 0xC SLOAD DUP2 JUMP JUMPDEST PUSH1 0xD SLOAD DUP2 JUMP JUMPDEST PUSH2 0xA3D PUSH2 0x1FE5 JUMP JUMPDEST DUP1 PUSH1 0xA DUP2 SWAP1 SSTORE POP POP JUMP JUMPDEST PUSH1 0x10 PUSH1 0x20 MSTORE DUP2 PUSH1 0x0 MSTORE PUSH1 0x40 PUSH1 0x0 KECCAK256 PUSH1 0x20 MSTORE DUP1 PUSH1 0x0 MSTORE PUSH1 0x40 PUSH1 0x0 KECCAK256 PUSH1 0x0 SWAP2 POP SWAP2 POP POP SLOAD DUP2 JUMP JUMPDEST PUSH1 0x0 PUSH1 0xFF DUP3 AND SWAP1 POP SWAP2 SWAP1 POP JUMP JUMPDEST PUSH1 0x60 PUSH1 0x0 PUSH1 0x8 PUSH8 0xFFFFFFFFFFFFFFFF DUP2 GT ISZERO PUSH2 0xA98 JUMPI PUSH2 0xA97 PUSH2 0x302C JUMP JUMPDEST JUMPDEST PUSH1 0x40 MLOAD SWAP1 DUP1 DUP3 MSTORE DUP1 PUSH1 0x20 MUL PUSH1 0x20 ADD DUP3 ADD PUSH1 0x40 MSTORE DUP1 ISZERO PUSH2 0xAC6 JUMPI DUP2 PUSH1 0x20 ADD PUSH1 0x20 DUP3 MUL DUP1 CALLDATASIZE DUP4 CALLDATACOPY DUP1 DUP3 ADD SWAP2 POP POP SWAP1 POP JUMPDEST POP SWAP1 POP PUSH1 0xE PUSH1 0x0 DUP1 DUP2 MSTORE PUSH1 0x20 ADD SWAP1 DUP2 MSTORE PUSH1 0x20 ADD PUSH1 0x0 KECCAK256 SLOAD DUP2 PUSH1 0x0 DUP2 MLOAD DUP2 LT PUSH2 0xAF1 JUMPI PUSH2 0xAF0 PUSH2 0x305B JUMP JUMPDEST JUMPDEST PUSH1 0x20 MUL PUSH1 0x20 ADD ADD DUP2 DUP2 MSTORE POP POP PUSH1 0xE PUSH1 0x0 PUSH1 0x1 DUP2 MSTORE PUSH1 0x20 ADD SWAP1 DUP2 MSTORE PUSH1 0x20 ADD PUSH1 0x0 KECCAK256 SLOAD DUP2 PUSH1 0x1 DUP2 MLOAD DUP2 LT PUSH2 0xB26 JUMPI PUSH2 0xB25 PUSH2 0x305B JUMP JUMPDEST JUMPDEST PUSH1 0x20 MUL PUSH1 0x20 ADD ADD DUP2 DUP2 MSTORE POP POP PUSH1 0xE PUSH1 0x0 PUSH1 0x2 DUP2 MSTORE PUSH1 0x20 ADD SWAP1 DUP2 MSTORE PUSH1 0x20 ADD PUSH1 0x0 KECCAK256 SLOAD DUP2 PUSH1 0x2 DUP2 MLOAD DUP2 LT PUSH2 0xB5B JUMPI PUSH2 0xB5A PUSH2 0x305B JUMP JUMPDEST JUMPDEST PUSH1 0x20 MUL PUSH1 0x20 ADD ADD DUP2 DUP2 MSTORE POP POP PUSH1 0xE PUSH1 0x0 PUSH1 0x3 DUP2 MSTORE PUSH1 0x20 ADD SWAP1 DUP2 MSTORE PUSH1 0x20 ADD PUSH1 0x0 KECCAK256 SLOAD DUP2 PUSH1 0x3 DUP2 MLOAD DUP2 LT PUSH2 0xB90 JUMPI PUSH2 0xB8F PUSH2 0x305B JUMP JUMPDEST JUMPDEST PUSH1 0x20 MUL PUSH1 0x20 ADD ADD DUP2 DUP2 MSTORE POP POP PUSH1 0xE PUSH1 0x0 PUSH1 0x4 DUP2 MSTORE PUSH1 0x20 ADD SWAP1 DUP2 MSTORE PUSH1 0x20 ADD PUSH1 0x0 KECCAK256 SLOAD DUP2 PUSH1 0x4 DUP2 MLOAD DUP2 LT PUSH2 0xBC5 JUMPI PUSH2 0xBC4 PUSH2 0x305B JUMP JUMPDEST JUMPDEST PUSH1 0x20 MUL PUSH1 0x20 ADD ADD DUP2 DUP2 MSTORE POP POP PUSH1 0xE PUSH1 0x0 PUSH1 0x5 DUP2 MSTORE PUSH1 0x20 ADD SWAP1 DUP2 MSTORE PUSH1 0x20 ADD PUSH1 0x0 KECCAK256 SLOAD DUP2 PUSH1 0x5 DUP2 MLOAD DUP2 LT PUSH2 0xBFA JUMPI PUSH2 0xBF9 PUSH2 0x305B JUMP JUMPDEST JUMPDEST PUSH1 0x20 MUL PUSH1 0x20 ADD ADD DUP2 DUP2 MSTORE POP POP PUSH1 0xE PUSH1 0x0 PUSH1 0x6 DUP2 MSTORE PUSH1 0x20 ADD SWAP1 DUP2 MSTORE PUSH1 0x20 ADD PUSH1 0x0 KECCAK256 SLOAD DUP2 PUSH1 0x6 DUP2 MLOAD DUP2 LT PUSH2 0xC2F JUMPI PUSH2 0xC2E PUSH2 0x305B JUMP JUMPDEST JUMPDEST PUSH1 0x20 MUL PUSH1 0x20 ADD ADD DUP2 DUP2 MSTORE POP POP PUSH1 0xE PUSH1 0x0 PUSH1 0x7 DUP2 MSTORE PUSH1 0x20 ADD SWAP1 DUP2 MSTORE PUSH1 0x20 ADD PUSH1 0x0 KECCAK256 SLOAD DUP2 PUSH1 0x7 DUP2 MLOAD DUP2 LT PUSH2 0xC64 JUMPI PUSH2 0xC63 PUSH2 0x305B JUMP JUMPDEST JUMPDEST PUSH1 0x20 MUL PUSH1 0x20 ADD ADD DUP2 DUP2 MSTORE POP POP DUP1 SWAP2 POP POP SWAP1 JUMP JUMPDEST PUSH2 0xC7F PUSH2 0x1FE5 JUMP JUMPDEST PUSH1 0x0 PUSH1 0x3 PUSH1 0x0 SWAP1 SLOAD SWAP1 PUSH2 0x100 EXP SWAP1 DIV PUSH20 0xFFFFFFFFFFFFFFFFFFFFFFFFFFFFFFFFFFFFFFFF AND PUSH20 0xFFFFFFFFFFFFFFFFFFFFFFFFFFFFFFFFFFFFFFFF AND DUP3 PUSH1 0x40 MLOAD PUSH2 0xCC7 SWAP1 PUSH2 0x30BB JUMP JUMPDEST PUSH1 0x0 PUSH1 0x40 MLOAD DUP1 DUP4 SUB DUP2 DUP6 DUP8 GAS CALL SWAP3 POP POP POP RETURNDATASIZE DUP1 PUSH1 0x0 DUP2 EQ PUSH2 0xD04 JUMPI PUSH1 0x40 MLOAD SWAP2 POP PUSH1 0x1F NOT PUSH1 0x3F RETURNDATASIZE ADD AND DUP3 ADD PUSH1 0x40 MSTORE RETURNDATASIZE DUP3 MSTORE RETURNDATASIZE PUSH1 0x0 PUSH1 0x20 DUP5 ADD RETURNDATACOPY PUSH2 0xD09 JUMP JUMPDEST PUSH1 0x60 SWAP2 POP JUMPDEST POP POP SWAP1 POP DUP1 PUSH2 0xD4D JUMPI PUSH1 0x40 MLOAD PUSH32 0x8C379A000000000000000000000000000000000000000000000000000000000 DUP2 MSTORE PUSH1 0x4 ADD PUSH2 0xD44 SWAP1 PUSH2 0x312D JUMP JUMPDEST PUSH1 0x40 MLOAD DUP1 SWAP2 SUB SWAP1 REVERT JUMPDEST POP POP JUMP JUMPDEST PUSH2 0xD59 PUSH2 0x2063 JUMP JUMPDEST PUSH2 0xD61 PUSH2 0xF80 JUMP JUMPDEST PUSH2 0xDA6 JUMPI PUSH1 0xA SLOAD TIMESTAMP PUSH1 0x40 MLOAD PUSH32 0x66803FC100000000000000000000000000000000000000000000000000000000 DUP2 MSTORE PUSH1 0x4 ADD PUSH2 0xD9D SWAP3 SWAP2 SWAP1 PUSH2 0x314D JUMP JUMPDEST PUSH1 0x40 MLOAD DUP1 SWAP2 SUB SWAP1 REVERT JUMPDEST PUSH1 0x0 CALLER DUP7 PUSH1 0x7 DUP2 GT ISZERO PUSH2 0xDBC JUMPI PUSH2 0xDBB PUSH2 0x3176 JUMP JUMPDEST JUMPDEST DUP6 PUSH1 0x40 MLOAD PUSH1 0x20 ADD PUSH2 0xDCF SWAP4 SWAP3 SWAP2 SWAP1 PUSH2 0x3265 JUMP JUMPDEST PUSH1 0x40 MLOAD PUSH1 0x20 DUP2 DUP4 SUB SUB DUP2 MSTORE SWAP1 PUSH1 0x40 MSTORE DUP1 MLOAD SWAP1 PUSH1 0x20 ADD KECCAK256 SWAP1 POP PUSH2 0xE35 DUP4 DUP4 DUP1 DUP1 PUSH1 0x20 MUL PUSH1 0x20 ADD PUSH1 0x40 MLOAD SWAP1 DUP2 ADD PUSH1 0x40 MSTORE DUP1 SWAP4 SWAP3 SWAP2 SWAP1 DUP2 DUP2 MSTORE PUSH1 0x20 ADD DUP4 DUP4 PUSH1 0x20 MUL DUP1 DUP3 DUP5 CALLDATACOPY PUSH1 0x0 DUP2 DUP5 ADD MSTORE PUSH1 0x1F NOT PUSH1 0x1F DUP3 ADD AND SWAP1 POP DUP1 DUP4 ADD SWAP3 POP POP POP POP POP POP POP PUSH1 0xD SLOAD DUP4 PUSH2 0x20B2 JUMP JUMPDEST PUSH2 0xE74 JUMPI PUSH1 0x40 MLOAD PUSH32 0x8C379A000000000000000000000000000000000000000000000000000000000 DUP2 MSTORE PUSH1 0x4 ADD PUSH2 0xE6B SWAP1 PUSH2 0x3304 JUMP JUMPDEST PUSH1 0x40 MLOAD DUP1 SWAP2 SUB SWAP1 REVERT JUMPDEST PUSH1 0x0 PUSH1 0x10 PUSH1 0x0 CALLER PUSH20 0xFFFFFFFFFFFFFFFFFFFFFFFFFFFFFFFFFFFFFFFF AND PUSH20 0xFFFFFFFFFFFFFFFFFFFFFFFFFFFFFFFFFFFFFFFF AND DUP2 MSTORE PUSH1 0x20 ADD SWAP1 DUP2 MSTORE PUSH1 0x20 ADD PUSH1 0x0 KECCAK256 SWAP1 POP DUP5 DUP7 DUP3 PUSH1 0x0 DUP11 PUSH1 0x7 DUP2 GT ISZERO PUSH2 0xECF JUMPI PUSH2 0xECE PUSH2 0x3176 JUMP JUMPDEST JUMPDEST DUP2 MSTORE PUSH1 0x20 ADD SWAP1 DUP2 MSTORE PUSH1 0x20 ADD PUSH1 0x0 KECCAK256 SLOAD PUSH2 0xEE8 SWAP2 SWAP1 PUSH2 0x3353 JUMP JUMPDEST GT ISZERO PUSH2 0xF29 JUMPI PUSH1 0x40 MLOAD PUSH32 0x8C379A000000000000000000000000000000000000000000000000000000000 DUP2 MSTORE PUSH1 0x4 ADD PUSH2 0xF20 SWAP1 PUSH2 0x33D3 JUMP JUMPDEST PUSH1 0x40 MLOAD DUP1 SWAP2 SUB SWAP1 REVERT JUMPDEST DUP6 DUP2 PUSH1 0x0 DUP10 PUSH1 0x7 DUP2 GT ISZERO PUSH2 0xF40 JUMPI PUSH2 0xF3F PUSH2 0x3176 JUMP JUMPDEST JUMPDEST DUP2 MSTORE PUSH1 0x20 ADD SWAP1 DUP2 MSTORE PUSH1 0x20 ADD PUSH1 0x0 KECCAK256 PUSH1 0x0 DUP3 DUP3 SLOAD PUSH2 0xF5D SWAP2 SWAP1 PUSH2 0x3353 JUMP JUMPDEST SWAP3 POP POP DUP2 SWAP1 SSTORE POP PUSH2 0xF6F DUP8 DUP8 CALLER PUSH2 0x20C9 JUMP JUMPDEST POP POP PUSH2 0xF79 PUSH2 0x2266 JUMP JUMPDEST POP POP POP POP POP JUMP JUMPDEST PUSH1 0x0 PUSH1 0xA SLOAD TIMESTAMP LT ISZERO SWAP1 POP SWAP1 JUMP JUMPDEST PUSH2 0xF95 PUSH2 0x1FE5 JUMP JUMPDEST DUP1 PUSH1 0xD DUP2 SWAP1 SSTORE POP POP JUMP JUMPDEST PUSH1 0x0 DUP1 PUSH1 0xE PUSH1 0x0 PUSH1 0x7 DUP2 MSTORE PUSH1 0x20 ADD SWAP1 DUP2 MSTORE PUSH1 0x20 ADD PUSH1 0x0 KECCAK256 SLOAD PUSH1 0xE PUSH1 0x0 PUSH1 0x6 DUP2 MSTORE PUSH1 0x20 ADD SWAP1 DUP2 MSTORE PUSH1 0x20 ADD PUSH1 0x0 KECCAK256 SLOAD PUSH1 0xE PUSH1 0x0 PUSH1 0x5 DUP2 MSTORE PUSH1 0x20 ADD SWAP1 DUP2 MSTORE PUSH1 0x20 ADD PUSH1 0x0 KECCAK256 SLOAD PUSH1 0xE PUSH1 0x0 PUSH1 0x4 DUP2 MSTORE PUSH1 0x20 ADD SWAP1 DUP2 MSTORE PUSH1 0x20 ADD PUSH1 0x0 KECCAK256 SLOAD PUSH1 0xE PUSH1 0x0 PUSH1 0x3 DUP2 MSTORE PUSH1 0x20 ADD SWAP1 DUP2 MSTORE PUSH1 0x20 ADD PUSH1 0x0 KECCAK256 SLOAD PUSH1 0xE PUSH1 0x0 PUSH1 0x2 DUP2 MSTORE PUSH1 0x20 ADD SWAP1 DUP2 MSTORE PUSH1 0x20 ADD PUSH1 0x0 KECCAK256 SLOAD PUSH1 0xE PUSH1 0x0 PUSH1 0x1 DUP2 MSTORE PUSH1 0x20 ADD SWAP1 DUP2 MSTORE PUSH1 0x20 ADD PUSH1 0x0 KECCAK256 SLOAD PUSH1 0xE PUSH1 0x0 DUP1 DUP2 MSTORE PUSH1 0x20 ADD SWAP1 DUP2 MSTORE PUSH1 0x20 ADD PUSH1 0x0 KECCAK256 SLOAD PUSH2 0x1053 SWAP2 SWAP1 PUSH2 0x3353 JUMP JUMPDEST PUSH2 0x105D SWAP2 SWAP1 PUSH2 0x3353 JUMP JUMPDEST PUSH2 0x1067 SWAP2 SWAP1 PUSH2 0x3353 JUMP JUMPDEST PUSH2 0x1071 SWAP2 SWAP1 PUSH2 0x3353 JUMP JUMPDEST PUSH2 0x107B SWAP2 SWAP1 PUSH2 0x3353 JUMP JUMPDEST PUSH2 0x1085 SWAP2 SWAP1 PUSH2 0x3353 JUMP JUMPDEST PUSH2 0x108F SWAP2 SWAP1 PUSH2 0x3353 JUMP JUMPDEST SWAP1 POP DUP1 SWAP2 POP POP SWAP1 JUMP JUMPDEST PUSH2 0x10A0 PUSH2 0x2063 JUMP JUMPDEST PUSH2 0x10A8 PUSH2 0x172F JUMP JUMPDEST PUSH2 0x10ED JUMPI PUSH1 0x9 SLOAD TIMESTAMP PUSH1 0x40 MLOAD PUSH32 0x66803FC100000000000000000000000000000000000000000000000000000000 DUP2 MSTORE PUSH1 0x4 ADD PUSH2 0x10E4 SWAP3 SWAP2 SWAP1 PUSH2 0x314D JUMP JUMPDEST PUSH1 0x40 MLOAD DUP1 SWAP2 SUB SWAP1 REVERT JUMPDEST PUSH1 0x0 DUP5 GT ISZERO DUP1 ISZERO PUSH2 0x10FE JUMPI POP PUSH1 0x14 DUP5 GT JUMPDEST ISZERO PUSH2 0x1135 JUMPI PUSH1 0x40 MLOAD PUSH32 0xCA02D6EB00000000000000000000000000000000000000000000000000000000 DUP2 MSTORE PUSH1 0x4 ADD PUSH1 0x40 MLOAD DUP1 SWAP2 SUB SWAP1 REVERT JUMPDEST PUSH1 0x0 CALLER DUP7 PUSH1 0x7 DUP2 GT ISZERO PUSH2 0x114B JUMPI PUSH2 0x114A PUSH2 0x3176 JUMP JUMPDEST JUMPDEST DUP6 PUSH1 0x40 MLOAD PUSH1 0x20 ADD PUSH2 0x115E SWAP4 SWAP3 SWAP2 SWAP1 PUSH2 0x3265 JUMP JUMPDEST PUSH1 0x40 MLOAD PUSH1 0x20 DUP2 DUP4 SUB SUB DUP2 MSTORE SWAP1 PUSH1 0x40 MSTORE DUP1 MLOAD SWAP1 PUSH1 0x20 ADD KECCAK256 SWAP1 POP PUSH2 0x11C4 DUP4 DUP4 DUP1 DUP1 PUSH1 0x20 MUL PUSH1 0x20 ADD PUSH1 0x40 MLOAD SWAP1 DUP2 ADD PUSH1 0x40 MSTORE DUP1 SWAP4 SWAP3 SWAP2 SWAP1 DUP2 DUP2 MSTORE PUSH1 0x20 ADD DUP4 DUP4 PUSH1 0x20 MUL DUP1 DUP3 DUP5 CALLDATACOPY PUSH1 0x0 DUP2 DUP5 ADD MSTORE PUSH1 0x1F NOT PUSH1 0x1F DUP3 ADD AND SWAP1 POP DUP1 DUP4 ADD SWAP3 POP POP POP POP POP POP POP PUSH1 0xB SLOAD DUP4 PUSH2 0x20B2 JUMP JUMPDEST DUP1 PUSH2 0x1219 JUMPI POP PUSH2 0x1218 DUP4 DUP4 DUP1 DUP1 PUSH1 0x20 MUL PUSH1 0x20 ADD PUSH1 0x40 MLOAD SWAP1 DUP2 ADD PUSH1 0x40 MSTORE DUP1 SWAP4 SWAP3 SWAP2 SWAP1 DUP2 DUP2 MSTORE PUSH1 0x20 ADD DUP4 DUP4 PUSH1 0x20 MUL DUP1 DUP3 DUP5 CALLDATACOPY PUSH1 0x0 DUP2 DUP5 ADD MSTORE PUSH1 0x1F NOT PUSH1 0x1F DUP3 ADD AND SWAP1 POP DUP1 DUP4 ADD SWAP3 POP POP POP POP POP POP POP PUSH1 0xC SLOAD DUP4 PUSH2 0x20B2 JUMP JUMPDEST JUMPDEST PUSH2 0x1258 JUMPI PUSH1 0x40 MLOAD PUSH32 0x8C379A000000000000000000000000000000000000000000000000000000000 DUP2 MSTORE PUSH1 0x4 ADD PUSH2 0x124F SWAP1 PUSH2 0x3304 JUMP JUMPDEST PUSH1 0x40 MLOAD DUP1 SWAP2 SUB SWAP1 REVERT JUMPDEST PUSH1 0x0 PUSH1 0xF PUSH1 0x0 CALLER PUSH20 0xFFFFFFFFFFFFFFFFFFFFFFFFFFFFFFFFFFFFFFFF AND PUSH20 0xFFFFFFFFFFFFFFFFFFFFFFFFFFFFFFFFFFFFFFFF AND DUP2 MSTORE PUSH1 0x20 ADD SWAP1 DUP2 MSTORE PUSH1 0x20 ADD PUSH1 0x0 KECCAK256 SWAP1 POP DUP5 DUP7 DUP3 PUSH1 0x0 DUP11 PUSH1 0x7 DUP2 GT ISZERO PUSH2 0x12B3 JUMPI PUSH2 0x12B2 PUSH2 0x3176 JUMP JUMPDEST JUMPDEST DUP2 MSTORE PUSH1 0x20 ADD SWAP1 DUP2 MSTORE PUSH1 0x20 ADD PUSH1 0x0 KECCAK256 SLOAD PUSH2 0x12CC SWAP2 SWAP1 PUSH2 0x3353 JUMP JUMPDEST GT ISZERO PUSH2 0x130D JUMPI PUSH1 0x40 MLOAD PUSH32 0x8C379A000000000000000000000000000000000000000000000000000000000 DUP2 MSTORE PUSH1 0x4 ADD PUSH2 0x1304 SWAP1 PUSH2 0x343F JUMP JUMPDEST PUSH1 0x40 MLOAD DUP1 SWAP2 SUB SWAP1 REVERT JUMPDEST DUP6 DUP2 PUSH1 0x0 DUP10 PUSH1 0x7 DUP2 GT ISZERO PUSH2 0x1324 JUMPI PUSH2 0x1323 PUSH2 0x3176 JUMP JUMPDEST JUMPDEST DUP2 MSTORE PUSH1 0x20 ADD SWAP1 DUP2 MSTORE PUSH1 0x20 ADD PUSH1 0x0 KECCAK256 PUSH1 0x0 DUP3 DUP3 SLOAD PUSH2 0x1341 SWAP2 SWAP1 PUSH2 0x3353 JUMP JUMPDEST SWAP3 POP POP DUP2 SWAP1 SSTORE POP PUSH2 0x1353 DUP8 DUP8 CALLER PUSH2 0x226F JUMP JUMPDEST POP POP PUSH2 0x135D PUSH2 0x2266 JUMP JUMPDEST POP POP POP POP POP JUMP JUMPDEST PUSH1 0xB SLOAD DUP2 JUMP JUMPDEST PUSH1 0x60 PUSH1 0x4 DUP1 SLOAD DUP1 PUSH1 0x20 MUL PUSH1 0x20 ADD PUSH1 0x40 MLOAD SWAP1 DUP2 ADD PUSH1 0x40 MSTORE DUP1 SWAP3 SWAP2 SWAP1 DUP2 DUP2 MSTORE PUSH1 0x20 ADD DUP3 DUP1 SLOAD DUP1 ISZERO PUSH2 0x13B8 JUMPI PUSH1 0x20 MUL DUP3 ADD SWAP2 SWAP1 PUSH1 0x0 MSTORE PUSH1 0x20 PUSH1 0x0 KECCAK256 SWAP1 JUMPDEST DUP2 SLOAD DUP2 MSTORE PUSH1 0x20 ADD SWAP1 PUSH1 0x1 ADD SWAP1 DUP1 DUP4 GT PUSH2 0x13A4 JUMPI JUMPDEST POP POP POP POP POP SWAP1 POP SWAP1 JUMP JUMPDEST PUSH1 0x6 SLOAD DUP2 JUMP JUMPDEST PUSH2 0x13D0 PUSH2 0x1FE5 JUMP JUMPDEST DUP1 PUSH1 0x8 DUP2 SWAP1 SSTORE POP POP JUMP JUMPDEST PUSH2 0x13E2 PUSH2 0x1FE5 JUMP JUMPDEST DUP1 PUSH1 0x9 DUP2 SWAP1 SSTORE POP POP JUMP JUMPDEST PUSH2 0x13F4 PUSH2 0x1FE5 JUMP JUMPDEST PUSH2 0x13FE PUSH1 0x0 PUSH2 0x2366 JUMP JUMPDEST JUMP JUMPDEST PUSH1 0xF PUSH1 0x20 MSTORE DUP2 PUSH1 0x0 MSTORE PUSH1 0x40 PUSH1 0x0 KECCAK256 PUSH1 0x20 MSTORE DUP1 PUSH1 0x0 MSTORE PUSH1 0x40 PUSH1 0x0 KECCAK256 PUSH1 0x0 SWAP2 POP SWAP2 POP POP SLOAD DUP2 JUMP JUMPDEST PUSH1 0x0 DUP1 DUP6 PUSH1 0x40 MLOAD PUSH1 0x20 ADD PUSH2 0x1439 SWAP2 SWAP1 PUSH2 0x345F JUMP JUMPDEST PUSH1 0x40 MLOAD PUSH1 0x20 DUP2 DUP4 SUB SUB DUP2 MSTORE SWAP1 PUSH1 0x40 MSTORE DUP1 MLOAD SWAP1 PUSH1 0x20 ADD KECCAK256 SWAP1 POP DUP5 DUP2 EQ PUSH2 0x1462 JUMPI PUSH1 0x0 SWAP2 POP POP PUSH2 0x151A JUMP JUMPDEST PUSH2 0x14B0 DUP5 DUP5 DUP1 DUP1 PUSH1 0x20 MUL PUSH1 0x20 ADD PUSH1 0x40 MLOAD SWAP1 DUP2 ADD PUSH1 0x40 MSTORE DUP1 SWAP4 SWAP3 SWAP2 SWAP1 DUP2 DUP2 MSTORE PUSH1 0x20 ADD DUP4 DUP4 PUSH1 0x20 MUL DUP1 DUP3 DUP5 CALLDATACOPY PUSH1 0x0 DUP2 DUP5 ADD MSTORE PUSH1 0x1F NOT PUSH1 0x1F DUP3 ADD AND SWAP1 POP DUP1 DUP4 ADD SWAP3 POP POP POP POP POP POP POP PUSH1 0xB SLOAD DUP8 PUSH2 0x20B2 JUMP JUMPDEST DUP1 PUSH2 0x1505 JUMPI POP PUSH2 0x1504 DUP5 DUP5 DUP1 DUP1 PUSH1 0x20 MUL PUSH1 0x20 ADD PUSH1 0x40 MLOAD SWAP1 DUP2 ADD PUSH1 0x40 MSTORE DUP1 SWAP4 SWAP3 SWAP2 SWAP1 DUP2 DUP2 MSTORE PUSH1 0x20 ADD DUP4 DUP4 PUSH1 0x20 MUL DUP1 DUP3 DUP5 CALLDATACOPY PUSH1 0x0 DUP2 DUP5 ADD MSTORE PUSH1 0x1F NOT PUSH1 0x1F DUP3 ADD AND SWAP1 POP DUP1 DUP4 ADD SWAP3 POP POP POP POP POP POP POP PUSH1 0xC SLOAD DUP8 PUSH2 0x20B2 JUMP JUMPDEST JUMPDEST ISZERO PUSH2 0x1514 JUMPI PUSH1 0x1 SWAP2 POP POP PUSH2 0x151A JUMP JUMPDEST PUSH1 0x0 SWAP2 POP POP JUMPDEST SWAP5 SWAP4 POP POP POP POP JUMP JUMPDEST PUSH2 0x152A PUSH2 0x1FE5 JUMP JUMPDEST PUSH2 0x1532 PUSH2 0x172F JUMP JUMPDEST ISZERO PUSH2 0x1569 JUMPI PUSH1 0x40 MLOAD PUSH32 0xF2A84B6300000000000000000000000000000000000000000000000000000000 DUP2 MSTORE PUSH1 0x4 ADD PUSH1 0x40 MLOAD DUP1 SWAP2 SUB SWAP1 REVERT JUMPDEST PUSH1 0x8 DUP3 DUP3 SWAP1 POP LT ISZERO PUSH2 0x15B8 JUMPI DUP2 DUP2 SWAP1 POP PUSH1 0x8 PUSH1 0x40 MLOAD PUSH32 0x6AAB761A00000000000000000000000000000000000000000000000000000000 DUP2 MSTORE PUSH1 0x4 ADD PUSH2 0x15AF SWAP3 SWAP2 SWAP1 PUSH2 0x34B5 JUMP JUMPDEST PUSH1 0x40 MLOAD DUP1 SWAP2 SUB SWAP1 REVERT JUMPDEST DUP2 DUP2 PUSH1 0x7 SWAP2 SWAP1 PUSH2 0x15C9 SWAP3 SWAP2 SWAP1 PUSH2 0x2705 JUMP JUMPDEST POP POP POP JUMP JUMPDEST PUSH2 0x15D6 PUSH2 0x1FE5 JUMP JUMPDEST PUSH1 0x0 PUSH1 0x3 PUSH1 0x0 SWAP1 SLOAD SWAP1 PUSH2 0x100 EXP SWAP1 DIV PUSH20 0xFFFFFFFFFFFFFFFFFFFFFFFFFFFFFFFFFFFFFFFF AND PUSH20 0xFFFFFFFFFFFFFFFFFFFFFFFFFFFFFFFFFFFFFFFF AND SELFBALANCE PUSH1 0x40 MLOAD PUSH2 0x161E SWAP1 PUSH2 0x30BB JUMP JUMPDEST PUSH1 0x0 PUSH1 0x40 MLOAD DUP1 DUP4 SUB DUP2 DUP6 DUP8 GAS CALL SWAP3 POP POP POP RETURNDATASIZE DUP1 PUSH1 0x0 DUP2 EQ PUSH2 0x165B JUMPI PUSH1 0x40 MLOAD SWAP2 POP PUSH1 0x1F NOT PUSH1 0x3F RETURNDATASIZE ADD AND DUP3 ADD PUSH1 0x40 MSTORE RETURNDATASIZE DUP3 MSTORE RETURNDATASIZE PUSH1 0x0 PUSH1 0x20 DUP5 ADD RETURNDATACOPY PUSH2 0x1660 JUMP JUMPDEST PUSH1 0x60 SWAP2 POP JUMPDEST POP POP SWAP1 POP DUP1 PUSH2 0x16A4 JUMPI PUSH1 0x40 MLOAD PUSH32 0x8C379A000000000000000000000000000000000000000000000000000000000 DUP2 MSTORE PUSH1 0x4 ADD PUSH2 0x169B SWAP1 PUSH2 0x352A JUMP JUMPDEST PUSH1 0x40 MLOAD DUP1 SWAP2 SUB SWAP1 REVERT JUMPDEST POP JUMP JUMPDEST PUSH2 0x16AF PUSH2 0x1FE5 JUMP JUMPDEST DUP1 PUSH1 0x3 PUSH1 0x0 PUSH2 0x100 EXP DUP2 SLOAD DUP2 PUSH20 0xFFFFFFFFFFFFFFFFFFFFFFFFFFFFFFFFFFFFFFFF MUL NOT AND SWAP1 DUP4 PUSH20 0xFFFFFFFFFFFFFFFFFFFFFFFFFFFFFFFFFFFFFFFF AND MUL OR SWAP1 SSTORE POP POP JUMP JUMPDEST PUSH1 0x0 PUSH1 0x8 SLOAD TIMESTAMP LT ISZERO SWAP1 POP SWAP1 JUMP JUMPDEST PUSH1 0xA SLOAD DUP2 JUMP JUMPDEST PUSH1 0x0 DUP1 PUSH1 0x0 SWAP1 SLOAD SWAP1 PUSH2 0x100 EXP SWAP1 DIV PUSH20 0xFFFFFFFFFFFFFFFFFFFFFFFFFFFFFFFFFFFFFFFF AND SWAP1 POP SWAP1 JUMP JUMPDEST PUSH1 0x0 PUSH1 0x9 SLOAD TIMESTAMP LT ISZERO SWAP1 POP SWAP1 JUMP JUMPDEST PUSH1 0x5 DUP2 DUP2 SLOAD DUP2 LT PUSH2 0x174C JUMPI PUSH1 0x0 DUP1 REVERT JUMPDEST SWAP1 PUSH1 0x0 MSTORE PUSH1 0x20 PUSH1 0x0 KECCAK256 ADD PUSH1 0x0 SWAP2 POP SWAP1 POP SLOAD DUP2 JUMP JUMPDEST PUSH2 0x1768 PUSH2 0x1FE5 JUMP JUMPDEST PUSH1 0x0 PUSH20 0xFFFFFFFFFFFFFFFFFFFFFFFFFFFFFFFFFFFFFFFF AND CALLER PUSH20 0xFFFFFFFFFFFFFFFFFFFFFFFFFFFFFFFFFFFFFFFF AND SUB PUSH2 0x17CE JUMPI PUSH1 0x40 MLOAD PUSH32 0x48AC165200000000000000000000000000000000000000000000000000000000 DUP2 MSTORE PUSH1 0x4 ADD PUSH1 0x40 MLOAD DUP1 SWAP2 SUB SWAP1 REVERT JUMPDEST DUP2 PUSH20 0xFFFFFFFFFFFFFFFFFFFFFFFFFFFFFFFFFFFFFFFF AND PUSH4 0xA9059CBB CALLER DUP4 PUSH1 0x40 MLOAD DUP4 PUSH4 0xFFFFFFFF AND PUSH1 0xE0 SHL DUP2 MSTORE PUSH1 0x4 ADD PUSH2 0x1809 SWAP3 SWAP2 SWAP1 PUSH2 0x354A JUMP JUMPDEST PUSH1 0x20 PUSH1 0x40 MLOAD DUP1 DUP4 SUB DUP2 PUSH1 0x0 DUP8 GAS CALL ISZERO DUP1 ISZERO PUSH2 0x1828 JUMPI RETURNDATASIZE PUSH1 0x0 DUP1 RETURNDATACOPY RETURNDATASIZE PUSH1 0x0 REVERT JUMPDEST POP POP POP POP PUSH1 0x40 MLOAD RETURNDATASIZE PUSH1 0x1F NOT PUSH1 0x1F DUP3 ADD AND DUP3 ADD DUP1 PUSH1 0x40 MSTORE POP DUP2 ADD SWAP1 PUSH2 0x184C SWAP2 SWAP1 PUSH2 0x359F JUMP JUMPDEST POP POP POP JUMP JUMPDEST PUSH1 0x2 PUSH1 0x0 SWAP1 SLOAD SWAP1 PUSH2 0x100 EXP SWAP1 DIV PUSH20 0xFFFFFFFFFFFFFFFFFFFFFFFFFFFFFFFFFFFFFFFF AND DUP2 JUMP JUMPDEST PUSH2 0x187F PUSH2 0x1FE5 JUMP JUMPDEST DUP2 DUP2 SWAP1 POP DUP5 DUP5 SWAP1 POP EQ PUSH2 0x18C7 JUMPI PUSH1 0x40 MLOAD PUSH32 0x8C379A000000000000000000000000000000000000000000000000000000000 DUP2 MSTORE PUSH1 0x4 ADD PUSH2 0x18BE SWAP1 PUSH2 0x363E JUMP JUMPDEST PUSH1 0x40 MLOAD DUP1 SWAP2 SUB SWAP1 REVERT JUMPDEST PUSH1 0x0 JUMPDEST DUP3 DUP3 SWAP1 POP DUP2 LT ISZERO PUSH2 0x1940 JUMPI PUSH2 0x192F DUP6 DUP6 DUP4 DUP2 DUP2 LT PUSH2 0x18EB JUMPI PUSH2 0x18EA PUSH2 0x305B JUMP JUMPDEST JUMPDEST SWAP1 POP PUSH1 0x20 MUL ADD PUSH1 0x20 DUP2 ADD SWAP1 PUSH2 0x1900 SWAP2 SWAP1 PUSH2 0x365E JUMP JUMPDEST PUSH1 0x1 DUP6 DUP6 DUP6 DUP2 DUP2 LT PUSH2 0x1915 JUMPI PUSH2 0x1914 PUSH2 0x305B JUMP JUMPDEST JUMPDEST SWAP1 POP PUSH1 0x20 MUL ADD PUSH1 0x20 DUP2 ADD SWAP1 PUSH2 0x192A SWAP2 SWAP1 PUSH2 0x2FD5 JUMP JUMPDEST PUSH2 0x20C9 JUMP JUMPDEST DUP1 PUSH2 0x1939 SWAP1 PUSH2 0x368B JUMP JUMPDEST SWAP1 POP PUSH2 0x18CA JUMP JUMPDEST POP POP POP POP POP JUMP JUMPDEST PUSH2 0x194F PUSH2 0x1FE5 JUMP JUMPDEST PUSH2 0x1957 PUSH2 0x172F JUMP JUMPDEST ISZERO PUSH2 0x198E JUMPI PUSH1 0x40 MLOAD PUSH32 0xF2A84B6300000000000000000000000000000000000000000000000000000000 DUP2 MSTORE PUSH1 0x4 ADD PUSH1 0x40 MLOAD DUP1 SWAP2 SUB SWAP1 REVERT JUMPDEST DUP1 PUSH1 0x6 DUP2 SWAP1 SSTORE POP POP JUMP JUMPDEST PUSH2 0x19A0 PUSH2 0x1FE5 JUMP JUMPDEST DUP1 PUSH1 0x2 PUSH1 0x0 PUSH2 0x100 EXP DUP2 SLOAD DUP2 PUSH20 0xFFFFFFFFFFFFFFFFFFFFFFFFFFFFFFFFFFFFFFFF MUL NOT AND SWAP1 DUP4 PUSH20 0xFFFFFFFFFFFFFFFFFFFFFFFFFFFFFFFFFFFFFFFF AND MUL OR SWAP1 SSTORE POP POP JUMP JUMPDEST PUSH1 0x60 PUSH1 0x0 PUSH1 0x5 PUSH8 0xFFFFFFFFFFFFFFFF DUP2 GT ISZERO PUSH2 0x1A03 JUMPI PUSH2 0x1A02 PUSH2 0x302C JUMP JUMPDEST JUMPDEST PUSH1 0x40 MLOAD SWAP1 DUP1 DUP3 MSTORE DUP1 PUSH1 0x20 MUL PUSH1 0x20 ADD DUP3 ADD PUSH1 0x40 MSTORE DUP1 ISZERO PUSH2 0x1A31 JUMPI DUP2 PUSH1 0x20 ADD PUSH1 0x20 DUP3 MUL DUP1 CALLDATASIZE DUP4 CALLDATACOPY DUP1 DUP3 ADD SWAP2 POP POP SWAP1 POP JUMPDEST POP SWAP1 POP PUSH1 0xE PUSH1 0x0 DUP1 DUP2 MSTORE PUSH1 0x20 ADD SWAP1 DUP2 MSTORE PUSH1 0x20 ADD PUSH1 0x0 KECCAK256 SLOAD PUSH1 0x4 PUSH1 0x0 DUP2 SLOAD DUP2 LT PUSH2 0x1A5D JUMPI PUSH2 0x1A5C PUSH2 0x305B JUMP JUMPDEST JUMPDEST SWAP1 PUSH1 0x0 MSTORE PUSH1 0x20 PUSH1 0x0 KECCAK256 ADD SLOAD PUSH2 0x1A72 SWAP2 SWAP1 PUSH2 0x36D3 JUMP JUMPDEST DUP2 PUSH1 0x0 DUP2 MLOAD DUP2 LT PUSH2 0x1A86 JUMPI PUSH2 0x1A85 PUSH2 0x305B JUMP JUMPDEST JUMPDEST PUSH1 0x20 MUL PUSH1 0x20 ADD ADD DUP2 DUP2 MSTORE POP POP PUSH1 0xE PUSH1 0x0 PUSH1 0x1 DUP2 MSTORE PUSH1 0x20 ADD SWAP1 DUP2 MSTORE PUSH1 0x20 ADD PUSH1 0x0 KECCAK256 SLOAD PUSH1 0x4 PUSH1 0x1 DUP2 SLOAD DUP2 LT PUSH2 0x1ABC JUMPI PUSH2 0x1ABB PUSH2 0x305B JUMP JUMPDEST JUMPDEST SWAP1 PUSH1 0x0 MSTORE PUSH1 0x20 PUSH1 0x0 KECCAK256 ADD SLOAD PUSH2 0x1AD1 SWAP2 SWAP1 PUSH2 0x36D3 JUMP JUMPDEST DUP2 PUSH1 0x1 DUP2 MLOAD DUP2 LT PUSH2 0x1AE5 JUMPI PUSH2 0x1AE4 PUSH2 0x305B JUMP JUMPDEST JUMPDEST PUSH1 0x20 MUL PUSH1 0x20 ADD ADD DUP2 DUP2 MSTORE POP POP PUSH1 0xE PUSH1 0x0 PUSH1 0x2 DUP2 MSTORE PUSH1 0x20 ADD SWAP1 DUP2 MSTORE PUSH1 0x20 ADD PUSH1 0x0 KECCAK256 SLOAD PUSH1 0x4 PUSH1 0x2 DUP2 SLOAD DUP2 LT PUSH2 0x1B1B JUMPI PUSH2 0x1B1A PUSH2 0x305B JUMP JUMPDEST JUMPDEST SWAP1 PUSH1 0x0 MSTORE PUSH1 0x20 PUSH1 0x0 KECCAK256 ADD SLOAD PUSH2 0x1B30 SWAP2 SWAP1 PUSH2 0x36D3 JUMP JUMPDEST DUP2 PUSH1 0x2 DUP2 MLOAD DUP2 LT PUSH2 0x1B44 JUMPI PUSH2 0x1B43 PUSH2 0x305B JUMP JUMPDEST JUMPDEST PUSH1 0x20 MUL PUSH1 0x20 ADD ADD DUP2 DUP2 MSTORE POP POP PUSH1 0xE PUSH1 0x0 PUSH1 0x3 DUP2 MSTORE PUSH1 0x20 ADD SWAP1 DUP2 MSTORE PUSH1 0x20 ADD PUSH1 0x0 KECCAK256 SLOAD PUSH1 0x4 PUSH1 0x3 DUP2 SLOAD DUP2 LT PUSH2 0x1B7A JUMPI PUSH2 0x1B79 PUSH2 0x305B JUMP JUMPDEST JUMPDEST SWAP1 PUSH1 0x0 MSTORE PUSH1 0x20 PUSH1 0x0 KECCAK256 ADD SLOAD PUSH2 0x1B8F SWAP2 SWAP1 PUSH2 0x36D3 JUMP JUMPDEST DUP2 PUSH1 0x3 DUP2 MLOAD DUP2 LT PUSH2 0x1BA3 JUMPI PUSH2 0x1BA2 PUSH2 0x305B JUMP JUMPDEST JUMPDEST PUSH1 0x20 MUL PUSH1 0x20 ADD ADD DUP2 DUP2 MSTORE POP POP PUSH1 0xE PUSH1 0x0 PUSH1 0x4 DUP2 MSTORE PUSH1 0x20 ADD SWAP1 DUP2 MSTORE PUSH1 0x20 ADD PUSH1 0x0 KECCAK256 SLOAD PUSH1 0x4 DUP1 DUP2 SLOAD DUP2 LT PUSH2 0x1BD8 JUMPI PUSH2 0x1BD7 PUSH2 0x305B JUMP JUMPDEST JUMPDEST SWAP1 PUSH1 0x0 MSTORE PUSH1 0x20 PUSH1 0x0 KECCAK256 ADD SLOAD PUSH2 0x1BED SWAP2 SWAP1 PUSH2 0x36D3 JUMP JUMPDEST DUP2 PUSH1 0x4 DUP2 MLOAD DUP2 LT PUSH2 0x1C01 JUMPI PUSH2 0x1C00 PUSH2 0x305B JUMP JUMPDEST JUMPDEST PUSH1 0x20 MUL PUSH1 0x20 ADD ADD DUP2 DUP2 MSTORE POP POP PUSH1 0xE PUSH1 0x0 PUSH1 0x5 DUP2 MSTORE PUSH1 0x20 ADD SWAP1 DUP2 MSTORE PUSH1 0x20 ADD PUSH1 0x0 KECCAK256 SLOAD PUSH1 0x4 PUSH1 0x5 DUP2 SLOAD DUP2 LT PUSH2 0x1C37 JUMPI PUSH2 0x1C36 PUSH2 0x305B JUMP JUMPDEST JUMPDEST SWAP1 PUSH1 0x0 MSTORE PUSH1 0x20 PUSH1 0x0 KECCAK256 ADD SLOAD PUSH2 0x1C4C SWAP2 SWAP1 PUSH2 0x36D3 JUMP JUMPDEST DUP2 PUSH1 0x5 DUP2 MLOAD DUP2 LT PUSH2 0x1C60 JUMPI PUSH2 0x1C5F PUSH2 0x305B JUMP JUMPDEST JUMPDEST PUSH1 0x20 MUL PUSH1 0x20 ADD ADD DUP2 DUP2 MSTORE POP POP PUSH1 0xE PUSH1 0x0 PUSH1 0x6 DUP2 MSTORE PUSH1 0x20 ADD SWAP1 DUP2 MSTORE PUSH1 0x20 ADD PUSH1 0x0 KECCAK256 SLOAD PUSH1 0x4 PUSH1 0x6 DUP2 SLOAD DUP2 LT PUSH2 0x1C96 JUMPI PUSH2 0x1C95 PUSH2 0x305B JUMP JUMPDEST JUMPDEST SWAP1 PUSH1 0x0 MSTORE PUSH1 0x20 PUSH1 0x0 KECCAK256 ADD SLOAD PUSH2 0x1CAB SWAP2 SWAP1 PUSH2 0x36D3 JUMP JUMPDEST DUP2 PUSH1 0x6 DUP2 MLOAD DUP2 LT PUSH2 0x1CBF JUMPI PUSH2 0x1CBE PUSH2 0x305B JUMP JUMPDEST JUMPDEST PUSH1 0x20 MUL PUSH1 0x20 ADD ADD DUP2 DUP2 MSTORE POP POP PUSH1 0xE PUSH1 0x0 PUSH1 0x7 DUP2 MSTORE PUSH1 0x20 ADD SWAP1 DUP2 MSTORE PUSH1 0x20 ADD PUSH1 0x0 KECCAK256 SLOAD PUSH1 0x4 PUSH1 0x7 DUP2 SLOAD DUP2 LT PUSH2 0x1CF5 JUMPI PUSH2 0x1CF4 PUSH2 0x305B JUMP JUMPDEST JUMPDEST SWAP1 PUSH1 0x0 MSTORE PUSH1 0x20 PUSH1 0x0 KECCAK256 ADD SLOAD PUSH2 0x1D0A SWAP2 SWAP1 PUSH2 0x36D3 JUMP JUMPDEST DUP2 PUSH1 0x7 DUP2 MLOAD DUP2 LT PUSH2 0x1D1E JUMPI PUSH2 0x1D1D PUSH2 0x305B JUMP JUMPDEST JUMPDEST PUSH1 0x20 MUL PUSH1 0x20 ADD ADD DUP2 DUP2 MSTORE POP POP DUP1 SWAP2 POP POP SWAP1 JUMP JUMPDEST PUSH1 0x60 PUSH1 0x7 DUP1 SLOAD DUP1 PUSH1 0x20 MUL PUSH1 0x20 ADD PUSH1 0x40 MLOAD SWAP1 DUP2 ADD PUSH1 0x40 MSTORE DUP1 SWAP3 SWAP2 SWAP1 DUP2 DUP2 MSTORE PUSH1 0x20 ADD DUP3 DUP1 SLOAD DUP1 ISZERO PUSH2 0x1D7F JUMPI PUSH1 0x20 MUL DUP3 ADD SWAP2 SWAP1 PUSH1 0x0 MSTORE PUSH1 0x20 PUSH1 0x0 KECCAK256 SWAP1 JUMPDEST DUP2 SLOAD DUP2 MSTORE PUSH1 0x20 ADD SWAP1 PUSH1 0x1 ADD SWAP1 DUP1 DUP4 GT PUSH2 0x1D6B JUMPI JUMPDEST POP POP POP POP POP SWAP1 POP SWAP1 JUMP JUMPDEST PUSH2 0x1D91 PUSH2 0x1FE5 JUMP JUMPDEST DUP1 PUSH1 0xC DUP2 SWAP1 SSTORE POP POP JUMP JUMPDEST PUSH2 0x1DA3 PUSH2 0x1FE5 JUMP JUMPDEST PUSH1 0x5 DUP3 DUP3 SWAP1 POP EQ PUSH2 0x1DF1 JUMPI DUP2 DUP2 SWAP1 POP PUSH1 0x8 PUSH1 0x40 MLOAD PUSH32 0x6AAB761A00000000000000000000000000000000000000000000000000000000 DUP2 MSTORE PUSH1 0x4 ADD PUSH2 0x1DE8 SWAP3 SWAP2 SWAP1 PUSH2 0x34B5 JUMP JUMPDEST PUSH1 0x40 MLOAD DUP1 SWAP2 SUB SWAP1 REVERT JUMPDEST PUSH2 0x1DF9 PUSH2 0x172F JUMP JUMPDEST ISZERO PUSH2 0x1E30 JUMPI PUSH1 0x40 MLOAD PUSH32 0xF2A84B6300000000000000000000000000000000000000000000000000000000 DUP2 MSTORE PUSH1 0x4 ADD PUSH1 0x40 MLOAD DUP1 SWAP2 SUB SWAP1 REVERT JUMPDEST DUP2 DUP2 PUSH1 0x5 SWAP2 SWAP1 PUSH2 0x1E41 SWAP3 SWAP2 SWAP1 PUSH2 0x2705 JUMP JUMPDEST POP POP POP JUMP JUMPDEST PUSH2 0x1E4E PUSH2 0x1FE5 JUMP JUMPDEST DUP1 PUSH1 0xB DUP2 SWAP1 SSTORE POP POP JUMP JUMPDEST PUSH1 0x8 SLOAD DUP2 JUMP JUMPDEST PUSH2 0x1E66 PUSH2 0x2063 JUMP JUMPDEST PUSH2 0x1E6E PUSH2 0x16F3 JUMP JUMPDEST PUSH2 0x1EB3 JUMPI PUSH1 0x8 SLOAD TIMESTAMP PUSH1 0x40 MLOAD PUSH32 0x66803FC100000000000000000000000000000000000000000000000000000000 DUP2 MSTORE PUSH1 0x4 ADD PUSH2 0x1EAA SWAP3 SWAP2 SWAP1 PUSH2 0x314D JUMP JUMPDEST PUSH1 0x40 MLOAD DUP1 SWAP2 SUB SWAP1 REVERT JUMPDEST PUSH1 0x0 DUP2 GT ISZERO DUP1 ISZERO PUSH2 0x1EC4 JUMPI POP PUSH1 0x14 DUP2 GT JUMPDEST ISZERO PUSH2 0x1EFB JUMPI PUSH1 0x40 MLOAD PUSH32 0xCA02D6EB00000000000000000000000000000000000000000000000000000000 DUP2 MSTORE PUSH1 0x4 ADD PUSH1 0x40 MLOAD DUP1 SWAP2 SUB SWAP1 REVERT JUMPDEST PUSH2 0x1F06 DUP3 DUP3 CALLER PUSH2 0x226F JUMP JUMPDEST PUSH2 0x1F0E PUSH2 0x2266 JUMP JUMPDEST POP POP JUMP JUMPDEST PUSH2 0x1F1A PUSH2 0x1FE5 JUMP JUMPDEST PUSH1 0x0 PUSH20 0xFFFFFFFFFFFFFFFFFFFFFFFFFFFFFFFFFFFFFFFF AND DUP2 PUSH20 0xFFFFFFFFFFFFFFFFFFFFFFFFFFFFFFFFFFFFFFFF AND SUB PUSH2 0x1F89 JUMPI PUSH1 0x40 MLOAD PUSH32 0x8C379A000000000000000000000000000000000000000000000000000000000 DUP2 MSTORE PUSH1 0x4 ADD PUSH2 0x1F80 SWAP1 PUSH2 0x3779 JUMP JUMPDEST PUSH1 0x40 MLOAD DUP1 SWAP2 SUB SWAP1 REVERT JUMPDEST PUSH2 0x1F92 DUP2 PUSH2 0x2366 JUMP JUMPDEST POP JUMP JUMPDEST PUSH1 0x9 SLOAD DUP2 JUMP JUMPDEST PUSH1 0x3 PUSH1 0x0 SWAP1 SLOAD SWAP1 PUSH2 0x100 EXP SWAP1 DIV PUSH20 0xFFFFFFFFFFFFFFFFFFFFFFFFFFFFFFFFFFFFFFFF AND DUP2 JUMP JUMPDEST PUSH1 0x7 DUP2 DUP2 SLOAD DUP2 LT PUSH2 0x1FD1 JUMPI PUSH1 0x0 DUP1 REVERT JUMPDEST SWAP1 PUSH1 0x0 MSTORE PUSH1 0x20 PUSH1 0x0 KECCAK256 ADD PUSH1 0x0 SWAP2 POP SWAP1 POP SLOAD DUP2 JUMP JUMPDEST PUSH2 0x1FED PUSH2 0x242A JUMP JUMPDEST PUSH20 0xFFFFFFFFFFFFFFFFFFFFFFFFFFFFFFFFFFFFFFFF AND PUSH2 0x200B PUSH2 0x1706 JUMP JUMPDEST PUSH20 0xFFFFFFFFFFFFFFFFFFFFFFFFFFFFFFFFFFFFFFFF AND EQ PUSH2 0x2061 JUMPI PUSH1 0x40 MLOAD PUSH32 0x8C379A000000000000000000000000000000000000000000000000000000000 DUP2 MSTORE PUSH1 0x4 ADD PUSH2 0x2058 SWAP1 PUSH2 0x37E5 JUMP JUMPDEST PUSH1 0x40 MLOAD DUP1 SWAP2 SUB SWAP1 REVERT JUMPDEST JUMP JUMPDEST PUSH1 0x2 PUSH1 0x1 SLOAD SUB PUSH2 0x20A8 JUMPI PUSH1 0x40 MLOAD PUSH32 0x8C379A000000000000000000000000000000000000000000000000000000000 DUP2 MSTORE PUSH1 0x4 ADD PUSH2 0x209F SWAP1 PUSH2 0x3851 JUMP JUMPDEST PUSH1 0x40 MLOAD DUP1 SWAP2 SUB SWAP1 REVERT JUMPDEST PUSH1 0x2 PUSH1 0x1 DUP2 SWAP1 SSTORE POP JUMP JUMPDEST PUSH1 0x0 DUP3 PUSH2 0x20BF DUP6 DUP5 PUSH2 0x2432 JUMP JUMPDEST EQ SWAP1 POP SWAP4 SWAP3 POP POP POP JUMP JUMPDEST PUSH1 0x4 DUP4 PUSH1 0x7 DUP2 GT ISZERO PUSH2 0x20DE JUMPI PUSH2 0x20DD PUSH2 0x3176 JUMP JUMPDEST JUMPDEST DUP2 SLOAD DUP2 LT PUSH2 0x20EF JUMPI PUSH2 0x20EE PUSH2 0x305B JUMP JUMPDEST JUMPDEST SWAP1 PUSH1 0x0 MSTORE PUSH1 0x20 PUSH1 0x0 KECCAK256 ADD SLOAD DUP3 PUSH1 0xE PUSH1 0x0 DUP7 PUSH1 0x7 DUP2 GT ISZERO PUSH2 0x2112 JUMPI PUSH2 0x2111 PUSH2 0x3176 JUMP JUMPDEST JUMPDEST DUP2 MSTORE PUSH1 0x20 ADD SWAP1 DUP2 MSTORE PUSH1 0x20 ADD PUSH1 0x0 KECCAK256 SLOAD PUSH2 0x212B SWAP2 SWAP1 PUSH2 0x3353 JUMP JUMPDEST GT ISZERO PUSH2 0x216C JUMPI PUSH1 0x40 MLOAD PUSH32 0x8C379A000000000000000000000000000000000000000000000000000000000 DUP2 MSTORE PUSH1 0x4 ADD PUSH2 0x2163 SWAP1 PUSH2 0x38BD JUMP JUMPDEST PUSH1 0x40 MLOAD DUP1 SWAP2 SUB SWAP1 REVERT JUMPDEST PUSH1 0x0 JUMPDEST DUP3 DUP2 LT ISZERO PUSH2 0x2260 JUMPI PUSH1 0x0 PUSH2 0x2182 DUP6 PUSH2 0x2488 JUMP JUMPDEST SWAP1 POP PUSH1 0xE PUSH1 0x0 DUP7 PUSH1 0x7 DUP2 GT ISZERO PUSH2 0x219B JUMPI PUSH2 0x219A PUSH2 0x3176 JUMP JUMPDEST JUMPDEST DUP2 MSTORE PUSH1 0x20 ADD SWAP1 DUP2 MSTORE PUSH1 0x20 ADD PUSH1 0x0 KECCAK256 PUSH1 0x0 DUP2 SLOAD PUSH2 0x21B6 SWAP1 PUSH2 0x368B JUMP JUMPDEST SWAP2 SWAP1 POP DUP2 SWAP1 SSTORE POP PUSH1 0x2 PUSH1 0x0 SWAP1 SLOAD SWAP1 PUSH2 0x100 EXP SWAP1 DIV PUSH20 0xFFFFFFFFFFFFFFFFFFFFFFFFFFFFFFFFFFFFFFFF AND PUSH20 0xFFFFFFFFFFFFFFFFFFFFFFFFFFFFFFFFFFFFFFFF AND PUSH4 0x86EBF010 DUP5 DUP4 DUP9 PUSH1 0x40 MLOAD DUP5 PUSH4 0xFFFFFFFF AND PUSH1 0xE0 SHL DUP2 MSTORE PUSH1 0x4 ADD PUSH2 0x221C SWAP4 SWAP3 SWAP2 SWAP1 PUSH2 0x3925 JUMP JUMPDEST PUSH1 0x0 PUSH1 0x40 MLOAD DUP1 DUP4 SUB DUP2 PUSH1 0x0 DUP8 DUP1 EXTCODESIZE ISZERO DUP1 ISZERO PUSH2 0x2236 JUMPI PUSH1 0x0 DUP1 REVERT JUMPDEST POP GAS CALL ISZERO DUP1 ISZERO PUSH2 0x224A JUMPI RETURNDATASIZE PUSH1 0x0 DUP1 RETURNDATACOPY RETURNDATASIZE PUSH1 0x0 REVERT JUMPDEST POP POP POP POP POP DUP1 PUSH2 0x2259 SWAP1 PUSH2 0x368B JUMP JUMPDEST SWAP1 POP PUSH2 0x216F JUMP JUMPDEST POP POP POP POP JUMP JUMPDEST PUSH1 0x1 DUP1 DUP2 SWAP1 SSTORE POP JUMP JUMPDEST PUSH1 0x0 PUSH1 0x7 DUP5 PUSH1 0x7 DUP2 GT ISZERO PUSH2 0x2286 JUMPI PUSH2 0x2285 PUSH2 0x3176 JUMP JUMPDEST JUMPDEST DUP2 SLOAD DUP2 LT PUSH2 0x2297 JUMPI PUSH2 0x2296 PUSH2 0x305B JUMP JUMPDEST JUMPDEST SWAP1 PUSH1 0x0 MSTORE PUSH1 0x20 PUSH1 0x0 KECCAK256 ADD SLOAD GT PUSH2 0x22D9 JUMPI PUSH1 0x40 MLOAD PUSH32 0xC5FADBA600000000000000000000000000000000000000000000000000000000 DUP2 MSTORE PUSH1 0x4 ADD PUSH1 0x40 MLOAD DUP1 SWAP2 SUB SWAP1 REVERT JUMPDEST DUP2 PUSH1 0x7 DUP5 PUSH1 0x7 DUP2 GT ISZERO PUSH2 0x22EF JUMPI PUSH2 0x22EE PUSH2 0x3176 JUMP JUMPDEST JUMPDEST DUP2 SLOAD DUP2 LT PUSH2 0x2300 JUMPI PUSH2 0x22FF PUSH2 0x305B JUMP JUMPDEST JUMPDEST SWAP1 PUSH1 0x0 MSTORE PUSH1 0x20 PUSH1 0x0 KECCAK256 ADD SLOAD PUSH2 0x2315 SWAP2 SWAP1 PUSH2 0x395C JUMP JUMPDEST CALLVALUE EQ PUSH2 0x2356 JUMPI PUSH1 0x40 MLOAD PUSH32 0x8C379A000000000000000000000000000000000000000000000000000000000 DUP2 MSTORE PUSH1 0x4 ADD PUSH2 0x234D SWAP1 PUSH2 0x3A10 JUMP JUMPDEST PUSH1 0x40 MLOAD DUP1 SWAP2 SUB SWAP1 REVERT JUMPDEST PUSH2 0x2361 DUP4 DUP4 DUP4 PUSH2 0x20C9 JUMP JUMPDEST POP POP POP JUMP JUMPDEST PUSH1 0x0 DUP1 PUSH1 0x0 SWAP1 SLOAD SWAP1 PUSH2 0x100 EXP SWAP1 DIV PUSH20 0xFFFFFFFFFFFFFFFFFFFFFFFFFFFFFFFFFFFFFFFF AND SWAP1 POP DUP2 PUSH1 0x0 DUP1 PUSH2 0x100 EXP DUP2 SLOAD DUP2 PUSH20 0xFFFFFFFFFFFFFFFFFFFFFFFFFFFFFFFFFFFFFFFF MUL NOT AND SWAP1 DUP4 PUSH20 0xFFFFFFFFFFFFFFFFFFFFFFFFFFFFFFFFFFFFFFFF AND MUL OR SWAP1 SSTORE POP DUP2 PUSH20 0xFFFFFFFFFFFFFFFFFFFFFFFFFFFFFFFFFFFFFFFF AND DUP2 PUSH20 0xFFFFFFFFFFFFFFFFFFFFFFFFFFFFFFFFFFFFFFFF AND PUSH32 0x8BE0079C531659141344CD1FD0A4F28419497F9722A3DAAFE3B4186F6B6457E0 PUSH1 0x40 MLOAD PUSH1 0x40 MLOAD DUP1 SWAP2 SUB SWAP1 LOG3 POP POP JUMP JUMPDEST PUSH1 0x0 CALLER SWAP1 POP SWAP1 JUMP JUMPDEST PUSH1 0x0 DUP1 DUP3 SWAP1 POP PUSH1 0x0 JUMPDEST DUP5 MLOAD DUP2 LT ISZERO PUSH2 0x247D JUMPI PUSH2 0x2468 DUP3 DUP7 DUP4 DUP2 MLOAD DUP2 LT PUSH2 0x245B JUMPI PUSH2 0x245A PUSH2 0x305B JUMP JUMPDEST JUMPDEST PUSH1 0x20 MUL PUSH1 0x20 ADD ADD MLOAD PUSH2 0x26C3 JUMP JUMPDEST SWAP2 POP DUP1 DUP1 PUSH2 0x2475 SWAP1 PUSH2 0x368B JUMP JUMPDEST SWAP2 POP POP PUSH2 0x243B JUMP JUMPDEST POP DUP1 SWAP2 POP POP SWAP3 SWAP2 POP POP JUMP JUMPDEST PUSH1 0x0 DUP1 PUSH1 0x6 SLOAD PUSH1 0xE PUSH1 0x0 PUSH1 0x7 DUP2 MSTORE PUSH1 0x20 ADD SWAP1 DUP2 MSTORE PUSH1 0x20 ADD PUSH1 0x0 KECCAK256 SLOAD PUSH1 0xE PUSH1 0x0 PUSH1 0x6 DUP2 MSTORE PUSH1 0x20 ADD SWAP1 DUP2 MSTORE PUSH1 0x20 ADD PUSH1 0x0 KECCAK256 SLOAD PUSH1 0xE PUSH1 0x0 PUSH1 0x5 DUP2 MSTORE PUSH1 0x20 ADD SWAP1 DUP2 MSTORE PUSH1 0x20 ADD PUSH1 0x0 KECCAK256 SLOAD PUSH1 0xE PUSH1 0x0 PUSH1 0x4 DUP2 MSTORE PUSH1 0x20 ADD SWAP1 DUP2 MSTORE PUSH1 0x20 ADD PUSH1 0x0 KECCAK256 SLOAD PUSH1 0xE PUSH1 0x0 PUSH1 0x3 DUP2 MSTORE PUSH1 0x20 ADD SWAP1 DUP2 MSTORE PUSH1 0x20 ADD PUSH1 0x0 KECCAK256 SLOAD PUSH1 0xE PUSH1 0x0 PUSH1 0x2 DUP2 MSTORE PUSH1 0x20 ADD SWAP1 DUP2 MSTORE PUSH1 0x20 ADD PUSH1 0x0 KECCAK256 SLOAD PUSH1 0xE PUSH1 0x0 PUSH1 0x1 DUP2 MSTORE PUSH1 0x20 ADD SWAP1 DUP2 MSTORE PUSH1 0x20 ADD PUSH1 0x0 KECCAK256 SLOAD PUSH1 0xE PUSH1 0x0 DUP1 DUP2 MSTORE PUSH1 0x20 ADD SWAP1 DUP2 MSTORE PUSH1 0x20 ADD PUSH1 0x0 KECCAK256 SLOAD PUSH2 0x253F SWAP2 SWAP1 PUSH2 0x3353 JUMP JUMPDEST PUSH2 0x2549 SWAP2 SWAP1 PUSH2 0x3353 JUMP JUMPDEST PUSH2 0x2553 SWAP2 SWAP1 PUSH2 0x3353 JUMP JUMPDEST PUSH2 0x255D SWAP2 SWAP1 PUSH2 0x3353 JUMP JUMPDEST PUSH2 0x2567 SWAP2 SWAP1 PUSH2 0x3353 JUMP JUMPDEST PUSH2 0x2571 SWAP2 SWAP1 PUSH2 0x3353 JUMP JUMPDEST PUSH2 0x257B SWAP2 SWAP1 PUSH2 0x3353 JUMP JUMPDEST PUSH2 0x2585 SWAP2 SWAP1 PUSH2 0x3353 JUMP JUMPDEST SWAP1 POP PUSH1 0x0 PUSH1 0x5 DUP5 PUSH1 0x7 DUP2 GT ISZERO PUSH2 0x259E JUMPI PUSH2 0x259D PUSH2 0x3176 JUMP JUMPDEST JUMPDEST DUP2 SLOAD DUP2 LT PUSH2 0x25AF JUMPI PUSH2 0x25AE PUSH2 0x305B JUMP JUMPDEST JUMPDEST SWAP1 PUSH1 0x0 MSTORE PUSH1 0x20 PUSH1 0x0 KECCAK256 ADD SLOAD PUSH1 0xE PUSH1 0x0 DUP7 PUSH1 0x7 DUP2 GT ISZERO PUSH2 0x25D1 JUMPI PUSH2 0x25D0 PUSH2 0x3176 JUMP JUMPDEST JUMPDEST DUP2 MSTORE PUSH1 0x20 ADD SWAP1 DUP2 MSTORE PUSH1 0x20 ADD PUSH1 0x0 KECCAK256 SLOAD PUSH2 0x25EA SWAP2 SWAP1 PUSH2 0x3353 JUMP JUMPDEST SWAP1 POP PUSH4 0xFFFFFFFF DUP2 GT ISZERO PUSH2 0x2633 JUMPI PUSH1 0x40 MLOAD PUSH32 0x8C379A000000000000000000000000000000000000000000000000000000000 DUP2 MSTORE PUSH1 0x4 ADD PUSH2 0x262A SWAP1 PUSH2 0x3A7C JUMP JUMPDEST PUSH1 0x40 MLOAD DUP1 SWAP2 SUB SWAP1 REVERT JUMPDEST PUSH1 0xFF DUP5 PUSH1 0x7 DUP2 GT ISZERO PUSH2 0x2648 JUMPI PUSH2 0x2647 PUSH2 0x3176 JUMP JUMPDEST JUMPDEST GT ISZERO PUSH2 0x2689 JUMPI PUSH1 0x40 MLOAD PUSH32 0x8C379A000000000000000000000000000000000000000000000000000000000 DUP2 MSTORE PUSH1 0x4 ADD PUSH2 0x2680 SWAP1 PUSH2 0x3AE8 JUMP JUMPDEST PUSH1 0x40 MLOAD DUP1 SWAP2 SUB SWAP1 REVERT JUMPDEST DUP4 PUSH1 0x7 DUP2 GT ISZERO PUSH2 0x269C JUMPI PUSH2 0x269B PUSH2 0x3176 JUMP JUMPDEST JUMPDEST PUSH1 0x8 DUP3 SWAP1 SHL PUSH1 0x28 DUP5 SWAP1 SHL PUSH2 0x26B0 SWAP2 SWAP1 PUSH2 0x3353 JUMP JUMPDEST PUSH2 0x26BA SWAP2 SWAP1 PUSH2 0x3353 JUMP JUMPDEST SWAP3 POP POP POP SWAP2 SWAP1 POP JUMP JUMPDEST PUSH1 0x0 DUP2 DUP4 LT PUSH2 0x26DB JUMPI PUSH2 0x26D6 DUP3 DUP5 PUSH2 0x26EE JUMP JUMPDEST PUSH2 0x26E6 JUMP JUMPDEST PUSH2 0x26E5 DUP4 DUP4 PUSH2 0x26EE JUMP JUMPDEST JUMPDEST SWAP1 POP SWAP3 SWAP2 POP POP JUMP JUMPDEST PUSH1 0x0 DUP3 PUSH1 0x0 MSTORE DUP2 PUSH1 0x20 MSTORE PUSH1 0x40 PUSH1 0x0 KECCAK256 SWAP1 POP SWAP3 SWAP2 POP POP JUMP JUMPDEST DUP3 DUP1 SLOAD DUP3 DUP3 SSTORE SWAP1 PUSH1 0x0 MSTORE PUSH1 0x20 PUSH1 0x0 KECCAK256 SWAP1 DUP2 ADD SWAP3 DUP3 ISZERO PUSH2 0x2741 JUMPI SWAP2 PUSH1 0x20 MUL DUP3 ADD JUMPDEST DUP3 DUP2 GT ISZERO PUSH2 0x2740 JUMPI DUP3 CALLDATALOAD DUP3 SSTORE SWAP2 PUSH1 0x20 ADD SWAP2 SWAP1 PUSH1 0x1 ADD SWAP1 PUSH2 0x2725 JUMP JUMPDEST JUMPDEST POP SWAP1 POP PUSH2 0x274E SWAP2 SWAP1 PUSH2 0x2752 JUMP JUMPDEST POP SWAP1 JUMP JUMPDEST JUMPDEST DUP1 DUP3 GT ISZERO PUSH2 0x276B JUMPI PUSH1 0x0 DUP2 PUSH1 0x0 SWAP1 SSTORE POP PUSH1 0x1 ADD PUSH2 0x2753 JUMP JUMPDEST POP SWAP1 JUMP JUMPDEST PUSH1 0x0 DUP1 REVERT JUMPDEST PUSH1 0x0 DUP1 REVERT JUMPDEST PUSH1 0x0 DUP2 SWAP1 POP SWAP2 SWAP1 POP JUMP JUMPDEST PUSH2 0x278C DUP2 PUSH2 0x2779 JUMP JUMPDEST DUP2 EQ PUSH2 0x2797 JUMPI PUSH1 0x0 DUP1 REVERT JUMPDEST POP JUMP JUMPDEST PUSH1 0x0 DUP2 CALLDATALOAD SWAP1 POP PUSH2 0x27A9 DUP2 PUSH2 0x2783 JUMP JUMPDEST SWAP3 SWAP2 POP POP JUMP JUMPDEST PUSH1 0x0 PUSH1 0x20 DUP3 DUP5 SUB SLT ISZERO PUSH2 0x27C5 JUMPI PUSH2 0x27C4 PUSH2 0x276F JUMP JUMPDEST JUMPDEST PUSH1 0x0 PUSH2 0x27D3 DUP5 DUP3 DUP6 ADD PUSH2 0x279A JUMP JUMPDEST SWAP2 POP POP SWAP3 SWAP2 POP POP JUMP JUMPDEST PUSH2 0x27E5 DUP2 PUSH2 0x2779 JUMP JUMPDEST DUP3 MSTORE POP POP JUMP JUMPDEST PUSH1 0x0 PUSH1 0x20 DUP3 ADD SWAP1 POP PUSH2 0x2800 PUSH1 0x0 DUP4 ADD DUP5 PUSH2 0x27DC JUMP JUMPDEST SWAP3 SWAP2 POP POP JUMP JUMPDEST PUSH1 0x0 DUP2 SWAP1 POP SWAP2 SWAP1 POP JUMP JUMPDEST PUSH2 0x2819 DUP2 PUSH2 0x2806 JUMP JUMPDEST DUP3 MSTORE POP POP JUMP JUMPDEST PUSH1 0x0 PUSH1 0x20 DUP3 ADD SWAP1 POP PUSH2 0x2834 PUSH1 0x0 DUP4 ADD DUP5 PUSH2 0x2810 JUMP JUMPDEST SWAP3 SWAP2 POP POP JUMP JUMPDEST PUSH1 0x0 PUSH20 0xFFFFFFFFFFFFFFFFFFFFFFFFFFFFFFFFFFFFFFFF DUP3 AND SWAP1 POP SWAP2 SWAP1 POP JUMP JUMPDEST PUSH1 0x0 PUSH2 0x2865 DUP3 PUSH2 0x283A JUMP JUMPDEST SWAP1 POP SWAP2 SWAP1 POP JUMP JUMPDEST PUSH2 0x2875 DUP2 PUSH2 0x285A JUMP JUMPDEST DUP2 EQ PUSH2 0x2880 JUMPI PUSH1 0x0 DUP1 REVERT JUMPDEST POP JUMP JUMPDEST PUSH1 0x0 DUP2 CALLDATALOAD SWAP1 POP PUSH2 0x2892 DUP2 PUSH2 0x286C JUMP JUMPDEST SWAP3 SWAP2 POP POP JUMP JUMPDEST PUSH1 0x0 DUP1 PUSH1 0x40 DUP4 DUP6 SUB SLT ISZERO PUSH2 0x28AF JUMPI PUSH2 0x28AE PUSH2 0x276F JUMP JUMPDEST JUMPDEST PUSH1 0x0 PUSH2 0x28BD DUP6 DUP3 DUP7 ADD PUSH2 0x2883 JUMP JUMPDEST SWAP3 POP POP PUSH1 0x20 PUSH2 0x28CE DUP6 DUP3 DUP7 ADD PUSH2 0x279A JUMP JUMPDEST SWAP2 POP POP SWAP3 POP SWAP3 SWAP1 POP JUMP JUMPDEST PUSH1 0x0 DUP2 MLOAD SWAP1 POP SWAP2 SWAP1 POP JUMP JUMPDEST PUSH1 0x0 DUP3 DUP3 MSTORE PUSH1 0x20 DUP3 ADD SWAP1 POP SWAP3 SWAP2 POP POP JUMP JUMPDEST PUSH1 0x0 DUP2 SWAP1 POP PUSH1 0x20 DUP3 ADD SWAP1 POP SWAP2 SWAP1 POP JUMP JUMPDEST PUSH2 0x290D DUP2 PUSH2 0x2779 JUMP JUMPDEST DUP3 MSTORE POP POP JUMP JUMPDEST PUSH1 0x0 PUSH2 0x291F DUP4 DUP4 PUSH2 0x2904 JUMP JUMPDEST PUSH1 0x20 DUP4 ADD SWAP1 POP SWAP3 SWAP2 POP POP JUMP JUMPDEST PUSH1 0x0 PUSH1 0x20 DUP3 ADD SWAP1 POP SWAP2 SWAP1 POP JUMP JUMPDEST PUSH1 0x0 PUSH2 0x2943 DUP3 PUSH2 0x28D8 JUMP JUMPDEST PUSH2 0x294D DUP2 DUP6 PUSH2 0x28E3 JUMP JUMPDEST SWAP4 POP PUSH2 0x2958 DUP4 PUSH2 0x28F4 JUMP JUMPDEST DUP1 PUSH1 0x0 JUMPDEST DUP4 DUP2 LT ISZERO PUSH2 0x2989 JUMPI DUP2 MLOAD PUSH2 0x2970 DUP9 DUP3 PUSH2 0x2913 JUMP JUMPDEST SWAP8 POP PUSH2 0x297B DUP4 PUSH2 0x292B JUMP JUMPDEST SWAP3 POP POP PUSH1 0x1 DUP2 ADD SWAP1 POP PUSH2 0x295C JUMP JUMPDEST POP DUP6 SWAP4 POP POP POP POP SWAP3 SWAP2 POP POP JUMP JUMPDEST PUSH1 0x0 PUSH1 0x20 DUP3 ADD SWAP1 POP DUP2 DUP2 SUB PUSH1 0x0 DUP4 ADD MSTORE PUSH2 0x29B0 DUP2 DUP5 PUSH2 0x2938 JUMP JUMPDEST SWAP1 POP SWAP3 SWAP2 POP POP JUMP JUMPDEST PUSH1 0x8 DUP2 LT PUSH2 0x29C5 JUMPI PUSH1 0x0 DUP1 REVERT JUMPDEST POP JUMP JUMPDEST PUSH1 0x0 DUP2 CALLDATALOAD SWAP1 POP PUSH2 0x29D7 DUP2 PUSH2 0x29B8 JUMP JUMPDEST SWAP3 SWAP2 POP POP JUMP JUMPDEST PUSH1 0x0 DUP1 REVERT JUMPDEST PUSH1 0x0 DUP1 REVERT JUMPDEST PUSH1 0x0 DUP1 REVERT JUMPDEST PUSH1 0x0 DUP1 DUP4 PUSH1 0x1F DUP5 ADD SLT PUSH2 0x2A02 JUMPI PUSH2 0x2A01 PUSH2 0x29DD JUMP JUMPDEST JUMPDEST DUP3 CALLDATALOAD SWAP1 POP PUSH8 0xFFFFFFFFFFFFFFFF DUP2 GT ISZERO PUSH2 0x2A1F JUMPI PUSH2 0x2A1E PUSH2 0x29E2 JUMP JUMPDEST JUMPDEST PUSH1 0x20 DUP4 ADD SWAP2 POP DUP4 PUSH1 0x20 DUP3 MUL DUP4 ADD GT ISZERO PUSH2 0x2A3B JUMPI PUSH2 0x2A3A PUSH2 0x29E7 JUMP JUMPDEST JUMPDEST SWAP3 POP SWAP3 SWAP1 POP JUMP JUMPDEST PUSH1 0x0 DUP1 PUSH1 0x0 DUP1 PUSH1 0x0 PUSH1 0x80 DUP7 DUP9 SUB SLT ISZERO PUSH2 0x2A5E JUMPI PUSH2 0x2A5D PUSH2 0x276F JUMP JUMPDEST JUMPDEST PUSH1 0x0 PUSH2 0x2A6C DUP9 DUP3 DUP10 ADD PUSH2 0x29C8 JUMP JUMPDEST SWAP6 POP POP PUSH1 0x20 PUSH2 0x2A7D DUP9 DUP3 DUP10 ADD PUSH2 0x279A JUMP JUMPDEST SWAP5 POP POP PUSH1 0x40 PUSH2 0x2A8E DUP9 DUP3 DUP10 ADD PUSH2 0x279A JUMP JUMPDEST SWAP4 POP POP PUSH1 0x60 DUP7 ADD CALLDATALOAD PUSH8 0xFFFFFFFFFFFFFFFF DUP2 GT ISZERO PUSH2 0x2AAF JUMPI PUSH2 0x2AAE PUSH2 0x2774 JUMP JUMPDEST JUMPDEST PUSH2 0x2ABB DUP9 DUP3 DUP10 ADD PUSH2 0x29EC JUMP JUMPDEST SWAP3 POP SWAP3 POP POP SWAP3 SWAP6 POP SWAP3 SWAP6 SWAP1 SWAP4 POP JUMP JUMPDEST PUSH1 0x0 DUP2 ISZERO ISZERO SWAP1 POP SWAP2 SWAP1 POP JUMP JUMPDEST PUSH2 0x2ADF DUP2 PUSH2 0x2ACA JUMP JUMPDEST DUP3 MSTORE POP POP JUMP JUMPDEST PUSH1 0x0 PUSH1 0x20 DUP3 ADD SWAP1 POP PUSH2 0x2AFA PUSH1 0x0 DUP4 ADD DUP5 PUSH2 0x2AD6 JUMP JUMPDEST SWAP3 SWAP2 POP POP JUMP JUMPDEST PUSH2 0x2B09 DUP2 PUSH2 0x2806 JUMP JUMPDEST DUP2 EQ PUSH2 0x2B14 JUMPI PUSH1 0x0 DUP1 REVERT JUMPDEST POP JUMP JUMPDEST PUSH1 0x0 DUP2 CALLDATALOAD SWAP1 POP PUSH2 0x2B26 DUP2 PUSH2 0x2B00 JUMP JUMPDEST SWAP3 SWAP2 POP POP JUMP JUMPDEST PUSH1 0x0 PUSH1 0x20 DUP3 DUP5 SUB SLT ISZERO PUSH2 0x2B42 JUMPI PUSH2 0x2B41 PUSH2 0x276F JUMP JUMPDEST JUMPDEST PUSH1 0x0 PUSH2 0x2B50 DUP5 DUP3 DUP6 ADD PUSH2 0x2B17 JUMP JUMPDEST SWAP2 POP POP SWAP3 SWAP2 POP POP JUMP JUMPDEST PUSH1 0x0 DUP1 PUSH1 0x0 DUP1 PUSH1 0x60 DUP6 DUP8 SUB SLT ISZERO PUSH2 0x2B73 JUMPI PUSH2 0x2B72 PUSH2 0x276F JUMP JUMPDEST JUMPDEST PUSH1 0x0 PUSH2 0x2B81 DUP8 DUP3 DUP9 ADD PUSH2 0x2883 JUMP JUMPDEST SWAP5 POP POP PUSH1 0x20 PUSH2 0x2B92 DUP8 DUP3 DUP9 ADD PUSH2 0x2B17 JUMP JUMPDEST SWAP4 POP POP PUSH1 0x40 DUP6 ADD CALLDATALOAD PUSH8 0xFFFFFFFFFFFFFFFF DUP2 GT ISZERO PUSH2 0x2BB3 JUMPI PUSH2 0x2BB2 PUSH2 0x2774 JUMP JUMPDEST JUMPDEST PUSH2 0x2BBF DUP8 DUP3 DUP9 ADD PUSH2 0x29EC JUMP JUMPDEST SWAP3 POP SWAP3 POP POP SWAP3 SWAP6 SWAP2 SWAP5 POP SWAP3 POP JUMP JUMPDEST PUSH1 0x0 DUP1 DUP4 PUSH1 0x1F DUP5 ADD SLT PUSH2 0x2BE3 JUMPI PUSH2 0x2BE2 PUSH2 0x29DD JUMP JUMPDEST JUMPDEST DUP3 CALLDATALOAD SWAP1 POP PUSH8 0xFFFFFFFFFFFFFFFF DUP2 GT ISZERO PUSH2 0x2C00 JUMPI PUSH2 0x2BFF PUSH2 0x29E2 JUMP JUMPDEST JUMPDEST PUSH1 0x20 DUP4 ADD SWAP2 POP DUP4 PUSH1 0x20 DUP3 MUL DUP4 ADD GT ISZERO PUSH2 0x2C1C JUMPI PUSH2 0x2C1B PUSH2 0x29E7 JUMP JUMPDEST JUMPDEST SWAP3 POP SWAP3 SWAP1 POP JUMP JUMPDEST PUSH1 0x0 DUP1 PUSH1 0x20 DUP4 DUP6 SUB SLT ISZERO PUSH2 0x2C3A JUMPI PUSH2 0x2C39 PUSH2 0x276F JUMP JUMPDEST JUMPDEST PUSH1 0x0 DUP4 ADD CALLDATALOAD PUSH8 0xFFFFFFFFFFFFFFFF DUP2 GT ISZERO PUSH2 0x2C58 JUMPI PUSH2 0x2C57 PUSH2 0x2774 JUMP JUMPDEST JUMPDEST PUSH2 0x2C64 DUP6 DUP3 DUP7 ADD PUSH2 0x2BCD JUMP JUMPDEST SWAP3 POP SWAP3 POP POP SWAP3 POP SWAP3 SWAP1 POP JUMP JUMPDEST PUSH1 0x0 PUSH2 0x2C7B DUP3 PUSH2 0x283A JUMP JUMPDEST SWAP1 POP SWAP2 SWAP1 POP JUMP JUMPDEST PUSH2 0x2C8B DUP2 PUSH2 0x2C70 JUMP JUMPDEST DUP2 EQ PUSH2 0x2C96 JUMPI PUSH1 0x0 DUP1 REVERT JUMPDEST POP JUMP JUMPDEST PUSH1 0x0 DUP2 CALLDATALOAD SWAP1 POP PUSH2 0x2CA8 DUP2 PUSH2 0x2C82 JUMP JUMPDEST SWAP3 SWAP2 POP POP JUMP JUMPDEST PUSH1 0x0 PUSH1 0x20 DUP3 DUP5 SUB SLT ISZERO PUSH2 0x2CC4 JUMPI PUSH2 0x2CC3 PUSH2 0x276F JUMP JUMPDEST JUMPDEST PUSH1 0x0 PUSH2 0x2CD2 DUP5 DUP3 DUP6 ADD PUSH2 0x2C99 JUMP JUMPDEST SWAP2 POP POP SWAP3 SWAP2 POP POP JUMP JUMPDEST PUSH2 0x2CE4 DUP2 PUSH2 0x285A JUMP JUMPDEST DUP3 MSTORE POP POP JUMP JUMPDEST PUSH1 0x0 PUSH1 0x20 DUP3 ADD SWAP1 POP PUSH2 0x2CFF PUSH1 0x0 DUP4 ADD DUP5 PUSH2 0x2CDB JUMP JUMPDEST SWAP3 SWAP2 POP POP JUMP JUMPDEST PUSH1 0x0 PUSH2 0x2D10 DUP3 PUSH2 0x285A JUMP JUMPDEST SWAP1 POP SWAP2 SWAP1 POP JUMP JUMPDEST PUSH2 0x2D20 DUP2 PUSH2 0x2D05 JUMP JUMPDEST DUP2 EQ PUSH2 0x2D2B JUMPI PUSH1 0x0 DUP1 REVERT JUMPDEST POP JUMP JUMPDEST PUSH1 0x0 DUP2 CALLDATALOAD SWAP1 POP PUSH2 0x2D3D DUP2 PUSH2 0x2D17 JUMP JUMPDEST SWAP3 SWAP2 POP POP JUMP JUMPDEST PUSH1 0x0 DUP1 PUSH1 0x40 DUP4 DUP6 SUB SLT ISZERO PUSH2 0x2D5A JUMPI PUSH2 0x2D59 PUSH2 0x276F JUMP JUMPDEST JUMPDEST PUSH1 0x0 PUSH2 0x2D68 DUP6 DUP3 DUP7 ADD PUSH2 0x2D2E JUMP JUMPDEST SWAP3 POP POP PUSH1 0x20 PUSH2 0x2D79 DUP6 DUP3 DUP7 ADD PUSH2 0x279A JUMP JUMPDEST SWAP2 POP POP SWAP3 POP SWAP3 SWAP1 POP JUMP JUMPDEST PUSH1 0x0 DUP2 SWAP1 POP SWAP2 SWAP1 POP JUMP JUMPDEST PUSH1 0x0 PUSH2 0x2DA8 PUSH2 0x2DA3 PUSH2 0x2D9E DUP5 PUSH2 0x283A JUMP JUMPDEST PUSH2 0x2D83 JUMP JUMPDEST PUSH2 0x283A JUMP JUMPDEST SWAP1 POP SWAP2 SWAP1 POP JUMP JUMPDEST PUSH1 0x0 PUSH2 0x2DBA DUP3 PUSH2 0x2D8D JUMP JUMPDEST SWAP1 POP SWAP2 SWAP1 POP JUMP JUMPDEST PUSH1 0x0 PUSH2 0x2DCC DUP3 PUSH2 0x2DAF JUMP JUMPDEST SWAP1 POP SWAP2 SWAP1 POP JUMP JUMPDEST PUSH2 0x2DDC DUP2 PUSH2 0x2DC1 JUMP JUMPDEST DUP3 MSTORE POP POP JUMP JUMPDEST PUSH1 0x0 PUSH1 0x20 DUP3 ADD SWAP1 POP PUSH2 0x2DF7 PUSH1 0x0 DUP4 ADD DUP5 PUSH2 0x2DD3 JUMP JUMPDEST SWAP3 SWAP2 POP POP JUMP JUMPDEST PUSH1 0x0 DUP1 DUP4 PUSH1 0x1F DUP5 ADD SLT PUSH2 0x2E13 JUMPI PUSH2 0x2E12 PUSH2 0x29DD JUMP JUMPDEST JUMPDEST DUP3 CALLDATALOAD SWAP1 POP PUSH8 0xFFFFFFFFFFFFFFFF DUP2 GT ISZERO PUSH2 0x2E30 JUMPI PUSH2 0x2E2F PUSH2 0x29E2 JUMP JUMPDEST JUMPDEST PUSH1 0x20 DUP4 ADD SWAP2 POP DUP4 PUSH1 0x20 DUP3 MUL DUP4 ADD GT ISZERO PUSH2 0x2E4C JUMPI PUSH2 0x2E4B PUSH2 0x29E7 JUMP JUMPDEST JUMPDEST SWAP3 POP SWAP3 SWAP1 POP JUMP JUMPDEST PUSH1 0x0 DUP1 DUP4 PUSH1 0x1F DUP5 ADD SLT PUSH2 0x2E69 JUMPI PUSH2 0x2E68 PUSH2 0x29DD JUMP JUMPDEST JUMPDEST DUP3 CALLDATALOAD SWAP1 POP PUSH8 0xFFFFFFFFFFFFFFFF DUP2 GT ISZERO PUSH2 0x2E86 JUMPI PUSH2 0x2E85 PUSH2 0x29E2 JUMP JUMPDEST JUMPDEST PUSH1 0x20 DUP4 ADD SWAP2 POP DUP4 PUSH1 0x20 DUP3 MUL DUP4 ADD GT ISZERO PUSH2 0x2EA2 JUMPI PUSH2 0x2EA1 PUSH2 0x29E7 JUMP JUMPDEST JUMPDEST SWAP3 POP SWAP3 SWAP1 POP JUMP JUMPDEST PUSH1 0x0 DUP1 PUSH1 0x0 DUP1 PUSH1 0x40 DUP6 DUP8 SUB SLT ISZERO PUSH2 0x2EC3 JUMPI PUSH2 0x2EC2 PUSH2 0x276F JUMP JUMPDEST JUMPDEST PUSH1 0x0 DUP6 ADD CALLDATALOAD PUSH8 0xFFFFFFFFFFFFFFFF DUP2 GT ISZERO PUSH2 0x2EE1 JUMPI PUSH2 0x2EE0 PUSH2 0x2774 JUMP JUMPDEST JUMPDEST PUSH2 0x2EED DUP8 DUP3 DUP9 ADD PUSH2 0x2DFD JUMP JUMPDEST SWAP5 POP SWAP5 POP POP PUSH1 0x20 DUP6 ADD CALLDATALOAD PUSH8 0xFFFFFFFFFFFFFFFF DUP2 GT ISZERO PUSH2 0x2F10 JUMPI PUSH2 0x2F0F PUSH2 0x2774 JUMP JUMPDEST JUMPDEST PUSH2 0x2F1C DUP8 DUP3 DUP9 ADD PUSH2 0x2E53 JUMP JUMPDEST SWAP3 POP SWAP3 POP POP SWAP3 SWAP6 SWAP2 SWAP5 POP SWAP3 POP JUMP JUMPDEST PUSH1 0x0 PUSH2 0x2F35 DUP3 PUSH2 0x285A JUMP JUMPDEST SWAP1 POP SWAP2 SWAP1 POP JUMP JUMPDEST PUSH2 0x2F45 DUP2 PUSH2 0x2F2A JUMP JUMPDEST DUP2 EQ PUSH2 0x2F50 JUMPI PUSH1 0x0 DUP1 REVERT JUMPDEST POP JUMP JUMPDEST PUSH1 0x0 DUP2 CALLDATALOAD SWAP1 POP PUSH2 0x2F62 DUP2 PUSH2 0x2F3C JUMP JUMPDEST SWAP3 SWAP2 POP POP JUMP JUMPDEST PUSH1 0x0 PUSH1 0x20 DUP3 DUP5 SUB SLT ISZERO PUSH2 0x2F7E JUMPI PUSH2 0x2F7D PUSH2 0x276F JUMP JUMPDEST JUMPDEST PUSH1 0x0 PUSH2 0x2F8C DUP5 DUP3 DUP6 ADD PUSH2 0x2F53 JUMP JUMPDEST SWAP2 POP POP SWAP3 SWAP2 POP POP JUMP JUMPDEST PUSH1 0x0 DUP1 PUSH1 0x40 DUP4 DUP6 SUB SLT ISZERO PUSH2 0x2FAC JUMPI PUSH2 0x2FAB PUSH2 0x276F JUMP JUMPDEST JUMPDEST PUSH1 0x0 PUSH2 0x2FBA DUP6 DUP3 DUP7 ADD PUSH2 0x29C8 JUMP JUMPDEST SWAP3 POP POP PUSH1 0x20 PUSH2 0x2FCB DUP6 DUP3 DUP7 ADD PUSH2 0x279A JUMP JUMPDEST SWAP2 POP POP SWAP3 POP SWAP3 SWAP1 POP JUMP JUMPDEST PUSH1 0x0 PUSH1 0x20 DUP3 DUP5 SUB SLT ISZERO PUSH2 0x2FEB JUMPI PUSH2 0x2FEA PUSH2 0x276F JUMP JUMPDEST JUMPDEST PUSH1 0x0 PUSH2 0x2FF9 DUP5 DUP3 DUP6 ADD PUSH2 0x2883 JUMP JUMPDEST SWAP2 POP POP SWAP3 SWAP2 POP POP JUMP JUMPDEST PUSH2 0x300B DUP2 PUSH2 0x2C70 JUMP JUMPDEST DUP3 MSTORE POP POP JUMP JUMPDEST PUSH1 0x0 PUSH1 0x20 DUP3 ADD SWAP1 POP PUSH2 0x3026 PUSH1 0x0 DUP4 ADD DUP5 PUSH2 0x3002 JUMP JUMPDEST SWAP3 SWAP2 POP POP JUMP JUMPDEST PUSH32 0x4E487B7100000000000000000000000000000000000000000000000000000000 PUSH1 0x0 MSTORE PUSH1 0x41 PUSH1 0x4 MSTORE PUSH1 0x24 PUSH1 0x0 REVERT JUMPDEST PUSH32 0x4E487B7100000000000000000000000000000000000000000000000000000000 PUSH1 0x0 MSTORE PUSH1 0x32 PUSH1 0x4 MSTORE PUSH1 0x24 PUSH1 0x0 REVERT JUMPDEST PUSH1 0x0 DUP2 SWAP1 POP SWAP3 SWAP2 POP POP JUMP JUMPDEST POP JUMP JUMPDEST PUSH1 0x0 PUSH2 0x30A5 PUSH1 0x0 DUP4 PUSH2 0x308A JUMP JUMPDEST SWAP2 POP PUSH2 0x30B0 DUP3 PUSH2 0x3095 JUMP JUMPDEST PUSH1 0x0 DUP3 ADD SWAP1 POP SWAP2 SWAP1 POP JUMP JUMPDEST PUSH1 0x0 PUSH2 0x30C6 DUP3 PUSH2 0x3098 JUMP JUMPDEST SWAP2 POP DUP2 SWAP1 POP SWAP2 SWAP1 POP JUMP JUMPDEST PUSH1 0x0 DUP3 DUP3 MSTORE PUSH1 0x20 DUP3 ADD SWAP1 POP SWAP3 SWAP2 POP POP JUMP JUMPDEST PUSH32 0x776974686472617720776173206E6F742073756363657366756C6C0000000000 PUSH1 0x0 DUP3 ADD MSTORE POP JUMP JUMPDEST PUSH1 0x0 PUSH2 0x3117 PUSH1 0x1B DUP4 PUSH2 0x30D0 JUMP JUMPDEST SWAP2 POP PUSH2 0x3122 DUP3 PUSH2 0x30E1 JUMP JUMPDEST PUSH1 0x20 DUP3 ADD SWAP1 POP SWAP2 SWAP1 POP JUMP JUMPDEST PUSH1 0x0 PUSH1 0x20 DUP3 ADD SWAP1 POP DUP2 DUP2 SUB PUSH1 0x0 DUP4 ADD MSTORE PUSH2 0x3146 DUP2 PUSH2 0x310A JUMP JUMPDEST SWAP1 POP SWAP2 SWAP1 POP JUMP JUMPDEST PUSH1 0x0 PUSH1 0x40 DUP3 ADD SWAP1 POP PUSH2 0x3162 PUSH1 0x0 DUP4 ADD DUP6 PUSH2 0x27DC JUMP JUMPDEST PUSH2 0x316F PUSH1 0x20 DUP4 ADD DUP5 PUSH2 0x27DC JUMP JUMPDEST SWAP4 SWAP3 POP POP POP JUMP JUMPDEST PUSH32 0x4E487B7100000000000000000000000000000000000000000000000000000000 PUSH1 0x0 MSTORE PUSH1 0x21 PUSH1 0x4 MSTORE PUSH1 0x24 PUSH1 0x0 REVERT JUMPDEST PUSH1 0x0 DUP2 PUSH1 0x60 SHL SWAP1 POP SWAP2 SWAP1 POP JUMP JUMPDEST PUSH1 0x0 PUSH2 0x31BD DUP3 PUSH2 0x31A5 JUMP JUMPDEST SWAP1 POP SWAP2 SWAP1 POP JUMP JUMPDEST PUSH1 0x0 PUSH2 0x31CF DUP3 PUSH2 0x31B2 JUMP JUMPDEST SWAP1 POP SWAP2 SWAP1 POP JUMP JUMPDEST PUSH2 0x31E7 PUSH2 0x31E2 DUP3 PUSH2 0x285A JUMP JUMPDEST PUSH2 0x31C4 JUMP JUMPDEST DUP3 MSTORE POP POP JUMP JUMPDEST PUSH1 0x0 DUP2 SWAP1 POP SWAP3 SWAP2 POP POP JUMP JUMPDEST PUSH32 0x3A00000000000000000000000000000000000000000000000000000000000000 PUSH1 0x0 DUP3 ADD MSTORE POP JUMP JUMPDEST PUSH1 0x0 PUSH2 0x322E PUSH1 0x1 DUP4 PUSH2 0x31ED JUMP JUMPDEST SWAP2 POP PUSH2 0x3239 DUP3 PUSH2 0x31F8 JUMP JUMPDEST PUSH1 0x1 DUP3 ADD SWAP1 POP SWAP2 SWAP1 POP JUMP JUMPDEST PUSH1 0x0 DUP2 SWAP1 POP SWAP2 SWAP1 POP JUMP JUMPDEST PUSH2 0x325F PUSH2 0x325A DUP3 PUSH2 0x2779 JUMP JUMPDEST PUSH2 0x3244 JUMP JUMPDEST DUP3 MSTORE POP POP JUMP JUMPDEST PUSH1 0x0 PUSH2 0x3271 DUP3 DUP7 PUSH2 0x31D6 JUMP JUMPDEST PUSH1 0x14 DUP3 ADD SWAP2 POP PUSH2 0x3280 DUP3 PUSH2 0x3221 JUMP JUMPDEST SWAP2 POP PUSH2 0x328C DUP3 DUP6 PUSH2 0x324E JUMP JUMPDEST PUSH1 0x20 DUP3 ADD SWAP2 POP PUSH2 0x329B DUP3 PUSH2 0x3221 JUMP JUMPDEST SWAP2 POP PUSH2 0x32A7 DUP3 DUP5 PUSH2 0x324E JUMP JUMPDEST PUSH1 0x20 DUP3 ADD SWAP2 POP DUP2 SWAP1 POP SWAP5 SWAP4 POP POP POP POP JUMP JUMPDEST PUSH32 0x496E76616C69642070726F6F662E000000000000000000000000000000000000 PUSH1 0x0 DUP3 ADD MSTORE POP JUMP JUMPDEST PUSH1 0x0 PUSH2 0x32EE PUSH1 0xE DUP4 PUSH2 0x30D0 JUMP JUMPDEST SWAP2 POP PUSH2 0x32F9 DUP3 PUSH2 0x32B8 JUMP JUMPDEST PUSH1 0x20 DUP3 ADD SWAP1 POP SWAP2 SWAP1 POP JUMP JUMPDEST PUSH1 0x0 PUSH1 0x20 DUP3 ADD SWAP1 POP DUP2 DUP2 SUB PUSH1 0x0 DUP4 ADD MSTORE PUSH2 0x331D DUP2 PUSH2 0x32E1 JUMP JUMPDEST SWAP1 POP SWAP2 SWAP1 POP JUMP JUMPDEST PUSH32 0x4E487B7100000000000000000000000000000000000000000000000000000000 PUSH1 0x0 MSTORE PUSH1 0x11 PUSH1 0x4 MSTORE PUSH1 0x24 PUSH1 0x0 REVERT JUMPDEST PUSH1 0x0 PUSH2 0x335E DUP3 PUSH2 0x2779 JUMP JUMPDEST SWAP2 POP PUSH2 0x3369 DUP4 PUSH2 0x2779 JUMP JUMPDEST SWAP3 POP DUP3 DUP3 ADD SWAP1 POP DUP1 DUP3 GT ISZERO PUSH2 0x3381 JUMPI PUSH2 0x3380 PUSH2 0x3324 JUMP JUMPDEST JUMPDEST SWAP3 SWAP2 POP POP JUMP JUMPDEST PUSH32 0x436C61696D696E67206D6F7265207468616E20616C6C6F7765642E0000000000 PUSH1 0x0 DUP3 ADD MSTORE POP JUMP JUMPDEST PUSH1 0x0 PUSH2 0x33BD PUSH1 0x1B DUP4 PUSH2 0x30D0 JUMP JUMPDEST SWAP2 POP PUSH2 0x33C8 DUP3 PUSH2 0x3387 JUMP JUMPDEST PUSH1 0x20 DUP3 ADD SWAP1 POP SWAP2 SWAP1 POP JUMP JUMPDEST PUSH1 0x0 PUSH1 0x20 DUP3 ADD SWAP1 POP DUP2 DUP2 SUB PUSH1 0x0 DUP4 ADD MSTORE PUSH2 0x33EC DUP2 PUSH2 0x33B0 JUMP JUMPDEST SWAP1 POP SWAP2 SWAP1 POP JUMP JUMPDEST PUSH32 0x4D696E74696E67206D6F7265207468616E20616C6C6F7765642E000000000000 PUSH1 0x0 DUP3 ADD MSTORE POP JUMP JUMPDEST PUSH1 0x0 PUSH2 0x3429 PUSH1 0x1A DUP4 PUSH2 0x30D0 JUMP JUMPDEST SWAP2 POP PUSH2 0x3434 DUP3 PUSH2 0x33F3 JUMP JUMPDEST PUSH1 0x20 DUP3 ADD SWAP1 POP SWAP2 SWAP1 POP JUMP JUMPDEST PUSH1 0x0 PUSH1 0x20 DUP3 ADD SWAP1 POP DUP2 DUP2 SUB PUSH1 0x0 DUP4 ADD MSTORE PUSH2 0x3458 DUP2 PUSH2 0x341C JUMP JUMPDEST SWAP1 POP SWAP2 SWAP1 POP JUMP JUMPDEST PUSH1 0x0 PUSH2 0x346B DUP3 DUP5 PUSH2 0x31D6 JUMP JUMPDEST PUSH1 0x14 DUP3 ADD SWAP2 POP DUP2 SWAP1 POP SWAP3 SWAP2 POP POP JUMP JUMPDEST PUSH1 0x0 DUP2 SWAP1 POP SWAP2 SWAP1 POP JUMP JUMPDEST PUSH1 0x0 PUSH2 0x349F PUSH2 0x349A PUSH2 0x3495 DUP5 PUSH2 0x347A JUMP JUMPDEST PUSH2 0x2D83 JUMP JUMPDEST PUSH2 0x2779 JUMP JUMPDEST SWAP1 POP SWAP2 SWAP1 POP JUMP JUMPDEST PUSH2 0x34AF DUP2 PUSH2 0x3484 JUMP JUMPDEST DUP3 MSTORE POP POP JUMP JUMPDEST PUSH1 0x0 PUSH1 0x40 DUP3 ADD SWAP1 POP PUSH2 0x34CA PUSH1 0x0 DUP4 ADD DUP6 PUSH2 0x27DC JUMP JUMPDEST PUSH2 0x34D7 PUSH1 0x20 DUP4 ADD DUP5 PUSH2 0x34A6 JUMP JUMPDEST SWAP4 SWAP3 POP POP POP JUMP JUMPDEST PUSH32 0x776974686472617720616C6C20776173206E6F742073756363657366756C6C00 PUSH1 0x0 DUP3 ADD MSTORE POP JUMP JUMPDEST PUSH1 0x0 PUSH2 0x3514 PUSH1 0x1F DUP4 PUSH2 0x30D0 JUMP JUMPDEST SWAP2 POP PUSH2 0x351F DUP3 PUSH2 0x34DE JUMP JUMPDEST PUSH1 0x20 DUP3 ADD SWAP1 POP SWAP2 SWAP1 POP JUMP JUMPDEST PUSH1 0x0 PUSH1 0x20 DUP3 ADD SWAP1 POP DUP2 DUP2 SUB PUSH1 0x0 DUP4 ADD MSTORE PUSH2 0x3543 DUP2 PUSH2 0x3507 JUMP JUMPDEST SWAP1 POP SWAP2 SWAP1 POP JUMP JUMPDEST PUSH1 0x0 PUSH1 0x40 DUP3 ADD SWAP1 POP PUSH2 0x355F PUSH1 0x0 DUP4 ADD DUP6 PUSH2 0x2CDB JUMP JUMPDEST PUSH2 0x356C PUSH1 0x20 DUP4 ADD DUP5 PUSH2 0x27DC JUMP JUMPDEST SWAP4 SWAP3 POP POP POP JUMP JUMPDEST PUSH2 0x357C DUP2 PUSH2 0x2ACA JUMP JUMPDEST DUP2 EQ PUSH2 0x3587 JUMPI PUSH1 0x0 DUP1 REVERT JUMPDEST POP JUMP JUMPDEST PUSH1 0x0 DUP2 MLOAD SWAP1 POP PUSH2 0x3599 DUP2 PUSH2 0x3573 JUMP JUMPDEST SWAP3 SWAP2 POP POP JUMP JUMPDEST PUSH1 0x0 PUSH1 0x20 DUP3 DUP5 SUB SLT ISZERO PUSH2 0x35B5 JUMPI PUSH2 0x35B4 PUSH2 0x276F JUMP JUMPDEST JUMPDEST PUSH1 0x0 PUSH2 0x35C3 DUP5 DUP3 DUP6 ADD PUSH2 0x358A JUMP JUMPDEST SWAP2 POP POP SWAP3 SWAP2 POP POP JUMP JUMPDEST PUSH32 0x4172726179732073686F756C642068617665207468652073616D652073697A65 PUSH1 0x0 DUP3 ADD MSTORE PUSH32 0x2E00000000000000000000000000000000000000000000000000000000000000 PUSH1 0x20 DUP3 ADD MSTORE POP JUMP JUMPDEST PUSH1 0x0 PUSH2 0x3628 PUSH1 0x21 DUP4 PUSH2 0x30D0 JUMP JUMPDEST SWAP2 POP PUSH2 0x3633 DUP3 PUSH2 0x35CC JUMP JUMPDEST PUSH1 0x40 DUP3 ADD SWAP1 POP SWAP2 SWAP1 POP JUMP JUMPDEST PUSH1 0x0 PUSH1 0x20 DUP3 ADD SWAP1 POP DUP2 DUP2 SUB PUSH1 0x0 DUP4 ADD MSTORE PUSH2 0x3657 DUP2 PUSH2 0x361B JUMP JUMPDEST SWAP1 POP SWAP2 SWAP1 POP JUMP JUMPDEST PUSH1 0x0 PUSH1 0x20 DUP3 DUP5 SUB SLT ISZERO PUSH2 0x3674 JUMPI PUSH2 0x3673 PUSH2 0x276F JUMP JUMPDEST JUMPDEST PUSH1 0x0 PUSH2 0x3682 DUP5 DUP3 DUP6 ADD PUSH2 0x29C8 JUMP JUMPDEST SWAP2 POP POP SWAP3 SWAP2 POP POP JUMP JUMPDEST PUSH1 0x0 PUSH2 0x3696 DUP3 PUSH2 0x2779 JUMP JUMPDEST SWAP2 POP PUSH32 0xFFFFFFFFFFFFFFFFFFFFFFFFFFFFFFFFFFFFFFFFFFFFFFFFFFFFFFFFFFFFFFFF DUP3 SUB PUSH2 0x36C8 JUMPI PUSH2 0x36C7 PUSH2 0x3324 JUMP JUMPDEST JUMPDEST PUSH1 0x1 DUP3 ADD SWAP1 POP SWAP2 SWAP1 POP JUMP JUMPDEST PUSH1 0x0 PUSH2 0x36DE DUP3 PUSH2 0x2779 JUMP JUMPDEST SWAP2 POP PUSH2 0x36E9 DUP4 PUSH2 0x2779 JUMP JUMPDEST SWAP3 POP DUP3 DUP3 SUB SWAP1 POP DUP2 DUP2 GT ISZERO PUSH2 0x3701 JUMPI PUSH2 0x3700 PUSH2 0x3324 JUMP JUMPDEST JUMPDEST SWAP3 SWAP2 POP POP JUMP JUMPDEST PUSH32 0x4F776E61626C653A206E6577206F776E657220697320746865207A65726F2061 PUSH1 0x0 DUP3 ADD MSTORE PUSH32 0x6464726573730000000000000000000000000000000000000000000000000000 PUSH1 0x20 DUP3 ADD MSTORE POP JUMP JUMPDEST PUSH1 0x0 PUSH2 0x3763 PUSH1 0x26 DUP4 PUSH2 0x30D0 JUMP JUMPDEST SWAP2 POP PUSH2 0x376E DUP3 PUSH2 0x3707 JUMP JUMPDEST PUSH1 0x40 DUP3 ADD SWAP1 POP SWAP2 SWAP1 POP JUMP JUMPDEST PUSH1 0x0 PUSH1 0x20 DUP3 ADD SWAP1 POP DUP2 DUP2 SUB PUSH1 0x0 DUP4 ADD MSTORE PUSH2 0x3792 DUP2 PUSH2 0x3756 JUMP JUMPDEST SWAP1 POP SWAP2 SWAP1 POP JUMP JUMPDEST PUSH32 0x4F776E61626C653A2063616C6C6572206973206E6F7420746865206F776E6572 PUSH1 0x0 DUP3 ADD MSTORE POP JUMP JUMPDEST PUSH1 0x0 PUSH2 0x37CF PUSH1 0x20 DUP4 PUSH2 0x30D0 JUMP JUMPDEST SWAP2 POP PUSH2 0x37DA DUP3 PUSH2 0x3799 JUMP JUMPDEST PUSH1 0x20 DUP3 ADD SWAP1 POP SWAP2 SWAP1 POP JUMP JUMPDEST PUSH1 0x0 PUSH1 0x20 DUP3 ADD SWAP1 POP DUP2 DUP2 SUB PUSH1 0x0 DUP4 ADD MSTORE PUSH2 0x37FE DUP2 PUSH2 0x37C2 JUMP JUMPDEST SWAP1 POP SWAP2 SWAP1 POP JUMP JUMPDEST PUSH32 0x5265656E7472616E637947756172643A207265656E7472616E742063616C6C00 PUSH1 0x0 DUP3 ADD MSTORE POP JUMP JUMPDEST PUSH1 0x0 PUSH2 0x383B PUSH1 0x1F DUP4 PUSH2 0x30D0 JUMP JUMPDEST SWAP2 POP PUSH2 0x3846 DUP3 PUSH2 0x3805 JUMP JUMPDEST PUSH1 0x20 DUP3 ADD SWAP1 POP SWAP2 SWAP1 POP JUMP JUMPDEST PUSH1 0x0 PUSH1 0x20 DUP3 ADD SWAP1 POP DUP2 DUP2 SUB PUSH1 0x0 DUP4 ADD MSTORE PUSH2 0x386A DUP2 PUSH2 0x382E JUMP JUMPDEST SWAP1 POP SWAP2 SWAP1 POP JUMP JUMPDEST PUSH32 0x547279696E6720746F206D696E7420746F6F206D616E792072696E67732E0000 PUSH1 0x0 DUP3 ADD MSTORE POP JUMP JUMPDEST PUSH1 0x0 PUSH2 0x38A7 PUSH1 0x1E DUP4 PUSH2 0x30D0 JUMP JUMPDEST SWAP2 POP PUSH2 0x38B2 DUP3 PUSH2 0x3871 JUMP JUMPDEST PUSH1 0x20 DUP3 ADD SWAP1 POP SWAP2 SWAP1 POP JUMP JUMPDEST PUSH1 0x0 PUSH1 0x20 DUP3 ADD SWAP1 POP DUP2 DUP2 SUB PUSH1 0x0 DUP4 ADD MSTORE PUSH2 0x38D6 DUP2 PUSH2 0x389A JUMP JUMPDEST SWAP1 POP SWAP2 SWAP1 POP JUMP JUMPDEST PUSH1 0x8 DUP2 LT PUSH2 0x38EE JUMPI PUSH2 0x38ED PUSH2 0x3176 JUMP JUMPDEST JUMPDEST POP JUMP JUMPDEST PUSH1 0x0 DUP2 SWAP1 POP PUSH2 0x38FF DUP3 PUSH2 0x38DD JUMP JUMPDEST SWAP2 SWAP1 POP JUMP JUMPDEST PUSH1 0x0 PUSH2 0x390F DUP3 PUSH2 0x38F1 JUMP JUMPDEST SWAP1 POP SWAP2 SWAP1 POP JUMP JUMPDEST PUSH2 0x391F DUP2 PUSH2 0x3904 JUMP JUMPDEST DUP3 MSTORE POP POP JUMP JUMPDEST PUSH1 0x0 PUSH1 0x60 DUP3 ADD SWAP1 POP PUSH2 0x393A PUSH1 0x0 DUP4 ADD DUP7 PUSH2 0x2CDB JUMP JUMPDEST PUSH2 0x3947 PUSH1 0x20 DUP4 ADD DUP6 PUSH2 0x27DC JUMP JUMPDEST PUSH2 0x3954 PUSH1 0x40 DUP4 ADD DUP5 PUSH2 0x3916 JUMP JUMPDEST SWAP5 SWAP4 POP POP POP POP JUMP JUMPDEST PUSH1 0x0 PUSH2 0x3967 DUP3 PUSH2 0x2779 JUMP JUMPDEST SWAP2 POP PUSH2 0x3972 DUP4 PUSH2 0x2779 JUMP JUMPDEST SWAP3 POP DUP3 DUP3 MUL PUSH2 0x3980 DUP2 PUSH2 0x2779 JUMP JUMPDEST SWAP2 POP DUP3 DUP3 DIV DUP5 EQ DUP4 ISZERO OR PUSH2 0x3997 JUMPI PUSH2 0x3996 PUSH2 0x3324 JUMP JUMPDEST JUMPDEST POP SWAP3 SWAP2 POP POP JUMP JUMPDEST PUSH32 0x45746865722076616C75652073656E74206973206E6F74206163637572617465 PUSH1 0x0 DUP3 ADD MSTORE PUSH32 0x2E00000000000000000000000000000000000000000000000000000000000000 PUSH1 0x20 DUP3 ADD MSTORE POP JUMP JUMPDEST PUSH1 0x0 PUSH2 0x39FA PUSH1 0x21 DUP4 PUSH2 0x30D0 JUMP JUMPDEST SWAP2 POP PUSH2 0x3A05 DUP3 PUSH2 0x399E JUMP JUMPDEST PUSH1 0x40 DUP3 ADD SWAP1 POP SWAP2 SWAP1 POP JUMP JUMPDEST PUSH1 0x0 PUSH1 0x20 DUP3 ADD SWAP1 POP DUP2 DUP2 SUB PUSH1 0x0 DUP4 ADD MSTORE PUSH2 0x3A29 DUP2 PUSH2 0x39ED JUMP JUMPDEST SWAP1 POP SWAP2 SWAP1 POP JUMP JUMPDEST PUSH32 0x4C6F63616C20696E646578206F766572666C6F772E0000000000000000000000 PUSH1 0x0 DUP3 ADD MSTORE POP JUMP JUMPDEST PUSH1 0x0 PUSH2 0x3A66 PUSH1 0x15 DUP4 PUSH2 0x30D0 JUMP JUMPDEST SWAP2 POP PUSH2 0x3A71 DUP3 PUSH2 0x3A30 JUMP JUMPDEST PUSH1 0x20 DUP3 ADD SWAP1 POP SWAP2 SWAP1 POP JUMP JUMPDEST PUSH1 0x0 PUSH1 0x20 DUP3 ADD SWAP1 POP DUP2 DUP2 SUB PUSH1 0x0 DUP4 ADD MSTORE PUSH2 0x3A95 DUP2 PUSH2 0x3A59 JUMP JUMPDEST SWAP1 POP SWAP2 SWAP1 POP JUMP JUMPDEST PUSH32 0x506C6F7420696E646578206F766572666C6F7700000000000000000000000000 PUSH1 0x0 DUP3 ADD MSTORE POP JUMP JUMPDEST PUSH1 0x0 PUSH2 0x3AD2 PUSH1 0x13 DUP4 PUSH2 0x30D0 JUMP JUMPDEST SWAP2 POP PUSH2 0x3ADD DUP3 PUSH2 0x3A9C JUMP JUMPDEST PUSH1 0x20 DUP3 ADD SWAP1 POP SWAP2 SWAP1 POP JUMP JUMPDEST PUSH1 0x0 PUSH1 0x20 DUP3 ADD SWAP1 POP DUP2 DUP2 SUB PUSH1 0x0 DUP4 ADD MSTORE PUSH2 0x3B01 DUP2 PUSH2 0x3AC5 JUMP JUMPDEST SWAP1 POP SWAP2 SWAP1 POP JUMP INVALID LOG2 PUSH5 0x6970667358 0x22 SLT KECCAK256 PUSH5 0x39C3415257 CHAINID PUSH22 0x1081422058480E45E7EA7146B1EB2A5C309A88C3EF39 DUP3 PREVRANDAO PUSH5 0x736F6C6343 STOP ADDMOD SLT STOP CALLER "},"methodIdentifiers":{"claimlistMerkleRoot()":"2560e376","claimlistMint(uint8,uint256,uint256,bytes32[])":"33a5a99f","claimlistMintedPerType(address,uint256)":"294548a4","claimsStartTime()":"8d56a17b","claimsStarted()":"3e97414f","forwardERC20s(address,uint256)":"9727151a","fundersRing()":"9b68a6ef","getAvailableRings()":"b9a43f2e","getPlotsAvailablePerSize()":"50a99405","getRingPrices()":"bd7fd06d","getTokenIdPlotType(uint256)":"2b7b4aef","getTotalMintedRings()":"46bf289f","getTotalMintedRingsByType()":"2ce82a71","mint(uint8,uint256)":"f26748e2","mintlistMerkleRoot1()":"4ed1eb24","mintlistMerkleRoot2()":"1c7f4a02","mintlistMint(uint8,uint256,uint256,bytes32[])":"4e054c39","mintlistMintedPerType(address,uint256)":"772d3be0","mintlistStartTime()":"f4cde4c0","mintlistStarted()":"93cb4147","mintlisted(address,bytes32,bytes32[])":"792a77d9","owner()":"8da5cb5b","ownerMint(uint8[],address[])":"9f0664b5","publicMintStartTime()":"d3cf00a3","publicStarted()":"8c6d8ef6","renounceOwnership()":"715018a6","ringGlobalOffset()":"5242a493","ringPrices(uint256)":"fcbfe13c","ringTypeLocalOffset(uint256)":"96c9f88b","ringsMinted(uint256)":"158ae298","setClaimlistMerkleRoot(bytes32)":"411d13f7","setClaimsStartTime(uint256)":"260c0886","setFundersRing(address)":"ae6b6dae","setGlobalIdOffset(uint256)":"a637f973","setLocalIdOffsets(uint256[])":"cc644fd2","setMintlistMerkleRoot1(bytes32)":"cef58283","setMintlistMerkleRoot2(bytes32)":"c2774dac","setMintlistStartTime(uint256)":"6e1a1a60","setPrices(uint256[])":"79cf92d3","setPublicMintStartTime(uint256)":"5fcd80a6","setVaultAddress(address)":"85535cc5","transferOwnership(address)":"f2fde38b","vault()":"fbfa77cf","withdraw(uint256)":"2e1a7d4d","withdrawAll()":"853828b6"}}}}}