{
  "_format": "hh-sol-artifact-1",
  "contractName": "WatchersRing",
  "sourceName": "contracts/WatchersRing.sol",
  "abi": [
    {
      "inputs": [
        {
          "internalType": "string",
          "name": "_baseURI",
          "type": "string"
        }
      ],
      "stateMutability": "nonpayable",
      "type": "constructor"
    },
    {
      "inputs": [],
      "name": "Address0Error",
      "type": "error"
    },
    {
      "inputs": [],
      "name": "NoRingsAvailable",
      "type": "error"
    },
    {
      "anonymous": false,
      "inputs": [
        {
          "indexed": true,
          "internalType": "address",
          "name": "owner",
          "type": "address"
        },
        {
          "indexed": true,
          "internalType": "address",
          "name": "approved",
          "type": "address"
        },
        {
          "indexed": true,
          "internalType": "uint256",
          "name": "tokenId",
          "type": "uint256"
        }
      ],
      "name": "Approval",
      "type": "event"
    },
    {
      "anonymous": false,
      "inputs": [
        {
          "indexed": true,
          "internalType": "address",
          "name": "owner",
          "type": "address"
        },
        {
          "indexed": true,
          "internalType": "address",
          "name": "operator",
          "type": "address"
        },
        {
          "indexed": false,
          "internalType": "bool",
          "name": "approved",
          "type": "bool"
        }
      ],
      "name": "ApprovalForAll",
      "type": "event"
    },
    {
      "anonymous": false,
      "inputs": [
        {
          "indexed": true,
          "internalType": "uint256",
          "name": "_tokenId",
          "type": "uint256"
        },
        {
          "indexed": true,
          "internalType": "uint256",
          "name": "_nonce",
          "type": "uint256"
        }
      ],
      "name": "NonceUpdated",
      "type": "event"
    },
    {
      "anonymous": false,
      "inputs": [
        {
          "indexed": true,
          "internalType": "address",
          "name": "previousOwner",
          "type": "address"
        },
        {
          "indexed": true,
          "internalType": "address",
          "name": "newOwner",
          "type": "address"
        }
      ],
      "name": "OwnershipTransferred",
      "type": "event"
    },
    {
      "anonymous": false,
      "inputs": [
        {
          "indexed": false,
          "internalType": "address",
          "name": "account",
          "type": "address"
        }
      ],
      "name": "Paused",
      "type": "event"
    },
    {
      "anonymous": false,
      "inputs": [
        {
          "indexed": true,
          "internalType": "bytes32",
          "name": "role",
          "type": "bytes32"
        },
        {
          "indexed": true,
          "internalType": "bytes32",
          "name": "previousAdminRole",
          "type": "bytes32"
        },
        {
          "indexed": true,
          "internalType": "bytes32",
          "name": "newAdminRole",
          "type": "bytes32"
        }
      ],
      "name": "RoleAdminChanged",
      "type": "event"
    },
    {
      "anonymous": false,
      "inputs": [
        {
          "indexed": true,
          "internalType": "bytes32",
          "name": "role",
          "type": "bytes32"
        },
        {
          "indexed": true,
          "internalType": "address",
          "name": "account",
          "type": "address"
        },
        {
          "indexed": true,
          "internalType": "address",
          "name": "sender",
          "type": "address"
        }
      ],
      "name": "RoleGranted",
      "type": "event"
    },
    {
      "anonymous": false,
      "inputs": [
        {
          "indexed": true,
          "internalType": "bytes32",
          "name": "role",
          "type": "bytes32"
        },
        {
          "indexed": true,
          "internalType": "address",
          "name": "account",
          "type": "address"
        },
        {
          "indexed": true,
          "internalType": "address",
          "name": "sender",
          "type": "address"
        }
      ],
      "name": "RoleRevoked",
      "type": "event"
    },
    {
      "anonymous": false,
      "inputs": [
        {
          "indexed": true,
          "internalType": "address",
          "name": "from",
          "type": "address"
        },
        {
          "indexed": true,
          "internalType": "address",
          "name": "to",
          "type": "address"
        },
        {
          "indexed": true,
          "internalType": "uint256",
          "name": "tokenId",
          "type": "uint256"
        }
      ],
      "name": "Transfer",
      "type": "event"
    },
    {
      "anonymous": false,
      "inputs": [
        {
          "indexed": false,
          "internalType": "address",
          "name": "account",
          "type": "address"
        }
      ],
      "name": "Unpaused",
      "type": "event"
    },
    {
      "anonymous": false,
      "inputs": [
        {
          "indexed": false,
          "internalType": "address",
          "name": "to",
          "type": "address"
        },
        {
          "indexed": false,
          "internalType": "uint256",
          "name": "tokenId",
          "type": "uint256"
        },
        {
          "indexed": false,
          "internalType": "enum IWatchersRing.WatchersRingType",
          "name": "rtype",
          "type": "uint8"
        }
      ],
      "name": "WatchersRingMinted",
      "type": "event"
    },
    {
      "inputs": [],
      "name": "DEFAULT_ADMIN_ROLE",
      "outputs": [
        {
          "internalType": "bytes32",
          "name": "",
          "type": "bytes32"
        }
      ],
      "stateMutability": "view",
      "type": "function"
    },
    {
      "inputs": [],
      "name": "MINTER_ROLE",
      "outputs": [
        {
          "internalType": "bytes32",
          "name": "",
          "type": "bytes32"
        }
      ],
      "stateMutability": "view",
      "type": "function"
    },
    {
      "inputs": [],
      "name": "PAUSER_ROLE",
      "outputs": [
        {
          "internalType": "bytes32",
          "name": "",
          "type": "bytes32"
        }
      ],
      "stateMutability": "view",
      "type": "function"
    },
    {
      "inputs": [
        {
          "internalType": "address",
          "name": "to",
          "type": "address"
        },
        {
          "internalType": "uint256",
          "name": "tokenId",
          "type": "uint256"
        }
      ],
      "name": "approve",
      "outputs": [],
      "stateMutability": "nonpayable",
      "type": "function"
    },
    {
      "inputs": [
        {
          "internalType": "address",
          "name": "owner",
          "type": "address"
        }
      ],
      "name": "balanceOf",
      "outputs": [
        {
          "internalType": "uint256",
          "name": "",
          "type": "uint256"
        }
      ],
      "stateMutability": "view",
      "type": "function"
    },
    {
      "inputs": [],
      "name": "baseTokenURI",
      "outputs": [
        {
          "internalType": "string",
          "name": "",
          "type": "string"
        }
      ],
      "stateMutability": "view",
      "type": "function"
    },
    {
      "inputs": [
        {
          "internalType": "address[]",
          "name": "_recipients",
          "type": "address[]"
        }
      ],
      "name": "bulkMint",
      "outputs": [
        {
          "internalType": "uint256[]",
          "name": "_tokenIds",
          "type": "uint256[]"
        }
      ],
      "stateMutability": "nonpayable",
      "type": "function"
    },
    {
      "inputs": [
        {
          "internalType": "uint256",
          "name": "tokenId",
          "type": "uint256"
        }
      ],
      "name": "burn",
      "outputs": [],
      "stateMutability": "nonpayable",
      "type": "function"
    },
    {
      "inputs": [
        {
          "internalType": "uint256",
          "name": "tokenId",
          "type": "uint256"
        }
      ],
      "name": "exists",
      "outputs": [
        {
          "internalType": "bool",
          "name": "",
          "type": "bool"
        }
      ],
      "stateMutability": "view",
      "type": "function"
    },
    {
      "inputs": [
        {
          "internalType": "contract IERC20",
          "name": "token",
          "type": "address"
        },
        {
          "internalType": "uint256",
          "name": "amount",
          "type": "uint256"
        }
      ],
      "name": "forwardERC20s",
      "outputs": [],
      "stateMutability": "nonpayable",
      "type": "function"
    },
    {
      "inputs": [
        {
          "internalType": "uint256",
          "name": "tokenId",
          "type": "uint256"
        }
      ],
      "name": "getApproved",
      "outputs": [
        {
          "internalType": "address",
          "name": "",
          "type": "address"
        }
      ],
      "stateMutability": "view",
      "type": "function"
    },
    {
      "inputs": [],
      "name": "getBaseURI",
      "outputs": [
        {
          "internalType": "string",
          "name": "",
          "type": "string"
        }
      ],
      "stateMutability": "view",
      "type": "function"
    },
    {
      "inputs": [
        {
          "internalType": "bytes32",
          "name": "role",
          "type": "bytes32"
        }
      ],
      "name": "getRoleAdmin",
      "outputs": [
        {
          "internalType": "bytes32",
          "name": "",
          "type": "bytes32"
        }
      ],
      "stateMutability": "view",
      "type": "function"
    },
    {
      "inputs": [
        {
          "internalType": "bytes32",
          "name": "role",
          "type": "bytes32"
        },
        {
          "internalType": "uint256",
          "name": "index",
          "type": "uint256"
        }
      ],
      "name": "getRoleMember",
      "outputs": [
        {
          "internalType": "address",
          "name": "",
          "type": "address"
        }
      ],
      "stateMutability": "view",
      "type": "function"
    },
    {
      "inputs": [
        {
          "internalType": "bytes32",
          "name": "role",
          "type": "bytes32"
        }
      ],
      "name": "getRoleMemberCount",
      "outputs": [
        {
          "internalType": "uint256",
          "name": "",
          "type": "uint256"
        }
      ],
      "stateMutability": "view",
      "type": "function"
    },
    {
      "inputs": [
        {
          "internalType": "address",
          "name": "ownerAddress",
          "type": "address"
        }
      ],
      "name": "getTokens",
      "outputs": [
        {
          "internalType": "uint256[]",
          "name": "",
          "type": "uint256[]"
        }
      ],
      "stateMutability": "view",
      "type": "function"
    },
    {
      "inputs": [
        {
          "internalType": "bytes32",
          "name": "role",
          "type": "bytes32"
        },
        {
          "internalType": "address",
          "name": "account",
          "type": "address"
        }
      ],
      "name": "grantRole",
      "outputs": [],
      "stateMutability": "nonpayable",
      "type": "function"
    },
    {
      "inputs": [
        {
          "internalType": "bytes32",
          "name": "role",
          "type": "bytes32"
        },
        {
          "internalType": "address",
          "name": "account",
          "type": "address"
        }
      ],
      "name": "hasRole",
      "outputs": [
        {
          "internalType": "bool",
          "name": "",
          "type": "bool"
        }
      ],
      "stateMutability": "view",
      "type": "function"
    },
    {
      "inputs": [
        {
          "internalType": "address",
          "name": "owner",
          "type": "address"
        },
        {
          "internalType": "address",
          "name": "operator",
          "type": "address"
        }
      ],
      "name": "isApprovedForAll",
      "outputs": [
        {
          "internalType": "bool",
          "name": "",
          "type": "bool"
        }
      ],
      "stateMutability": "view",
      "type": "function"
    },
    {
      "inputs": [
        {
          "internalType": "address",
          "name": "to",
          "type": "address"
        }
      ],
      "name": "mint",
      "outputs": [
        {
          "internalType": "uint256",
          "name": "_tokenId",
          "type": "uint256"
        }
      ],
      "stateMutability": "nonpayable",
      "type": "function"
    },
    {
      "inputs": [
        {
          "internalType": "address",
          "name": "recipient",
          "type": "address"
        },
        {
          "internalType": "uint256",
          "name": "tokenId",
          "type": "uint256"
        },
        {
          "internalType": "enum IWatchersRing.WatchersRingType",
          "name": "rtype",
          "type": "uint8"
        }
      ],
      "name": "mintTokenId",
      "outputs": [],
      "stateMutability": "nonpayable",
      "type": "function"
    },
    {
      "inputs": [],
      "name": "minterAddress",
      "outputs": [
        {
          "internalType": "address",
          "name": "",
          "type": "address"
        }
      ],
      "stateMutability": "view",
      "type": "function"
    },
    {
      "inputs": [],
      "name": "name",
      "outputs": [
        {
          "internalType": "string",
          "name": "",
          "type": "string"
        }
      ],
      "stateMutability": "view",
      "type": "function"
    },
    {
      "inputs": [
        {
          "internalType": "uint256",
          "name": "",
          "type": "uint256"
        }
      ],
      "name": "nonces",
      "outputs": [
        {
          "internalType": "uint256",
          "name": "",
          "type": "uint256"
        }
      ],
      "stateMutability": "view",
      "type": "function"
    },
    {
      "inputs": [],
      "name": "numMinted",
      "outputs": [
        {
          "internalType": "uint256",
          "name": "",
          "type": "uint256"
        }
      ],
      "stateMutability": "view",
      "type": "function"
    },
    {
      "inputs": [],
      "name": "owner",
      "outputs": [
        {
          "internalType": "address",
          "name": "",
          "type": "address"
        }
      ],
      "stateMutability": "view",
      "type": "function"
    },
    {
      "inputs": [
        {
          "internalType": "uint256",
          "name": "tokenId",
          "type": "uint256"
        }
      ],
      "name": "ownerOf",
      "outputs": [
        {
          "internalType": "address",
          "name": "",
          "type": "address"
        }
      ],
      "stateMutability": "view",
      "type": "function"
    },
    {
      "inputs": [],
      "name": "pause",
      "outputs": [],
      "stateMutability": "nonpayable",
      "type": "function"
    },
    {
      "inputs": [],
      "name": "pauseContract",
      "outputs": [],
      "stateMutability": "nonpayable",
      "type": "function"
    },
    {
      "inputs": [],
      "name": "paused",
      "outputs": [
        {
          "internalType": "bool",
          "name": "",
          "type": "bool"
        }
      ],
      "stateMutability": "view",
      "type": "function"
    },
    {
      "inputs": [],
      "name": "renounceOwnership",
      "outputs": [],
      "stateMutability": "nonpayable",
      "type": "function"
    },
    {
      "inputs": [
        {
          "internalType": "bytes32",
          "name": "role",
          "type": "bytes32"
        },
        {
          "internalType": "address",
          "name": "account",
          "type": "address"
        }
      ],
      "name": "renounceRole",
      "outputs": [],
      "stateMutability": "nonpayable",
      "type": "function"
    },
    {
      "inputs": [
        {
          "internalType": "bytes32",
          "name": "role",
          "type": "bytes32"
        },
        {
          "internalType": "address",
          "name": "account",
          "type": "address"
        }
      ],
      "name": "revokeRole",
      "outputs": [],
      "stateMutability": "nonpayable",
      "type": "function"
    },
    {
      "inputs": [
        {
          "internalType": "address",
          "name": "from",
          "type": "address"
        },
        {
          "internalType": "address",
          "name": "to",
          "type": "address"
        },
        {
          "internalType": "uint256",
          "name": "tokenId",
          "type": "uint256"
        }
      ],
      "name": "safeTransferFrom",
      "outputs": [],
      "stateMutability": "nonpayable",
      "type": "function"
    },
    {
      "inputs": [
        {
          "internalType": "address",
          "name": "from",
          "type": "address"
        },
        {
          "internalType": "address",
          "name": "to",
          "type": "address"
        },
        {
          "internalType": "uint256",
          "name": "tokenId",
          "type": "uint256"
        },
        {
          "internalType": "bytes",
          "name": "data",
          "type": "bytes"
        }
      ],
      "name": "safeTransferFrom",
      "outputs": [],
      "stateMutability": "nonpayable",
      "type": "function"
    },
    {
      "inputs": [
        {
          "internalType": "address",
          "name": "operator",
          "type": "address"
        },
        {
          "internalType": "bool",
          "name": "approved",
          "type": "bool"
        }
      ],
      "name": "setApprovalForAll",
      "outputs": [],
      "stateMutability": "nonpayable",
      "type": "function"
    },
    {
      "inputs": [
        {
          "internalType": "string",
          "name": "baseTokenURI",
          "type": "string"
        }
      ],
      "name": "setBaseURI",
      "outputs": [],
      "stateMutability": "nonpayable",
      "type": "function"
    },
    {
      "inputs": [
        {
          "internalType": "address",
          "name": "market",
          "type": "address"
        },
        {
          "internalType": "bool",
          "name": "denied",
          "type": "bool"
        }
      ],
      "name": "setDeniedMarketplace",
      "outputs": [],
      "stateMutability": "nonpayable",
      "type": "function"
    },
    {
      "inputs": [
        {
          "internalType": "address",
          "name": "newMinter",
          "type": "address"
        }
      ],
      "name": "setMinter",
      "outputs": [],
      "stateMutability": "nonpayable",
      "type": "function"
    },
    {
      "inputs": [
        {
          "internalType": "string",
          "name": "newBaseURI",
          "type": "string"
        }
      ],
      "name": "setNewBaseURI",
      "outputs": [],
      "stateMutability": "nonpayable",
      "type": "function"
    },
    {
      "inputs": [
        {
          "internalType": "uint256",
          "name": "_tokenId",
          "type": "uint256"
        }
      ],
      "name": "stateOf",
      "outputs": [
        {
          "internalType": "bytes",
          "name": "",
          "type": "bytes"
        }
      ],
      "stateMutability": "view",
      "type": "function"
    },
    {
      "inputs": [
        {
          "internalType": "bytes4",
          "name": "interfaceId",
          "type": "bytes4"
        }
      ],
      "name": "supportsInterface",
      "outputs": [
        {
          "internalType": "bool",
          "name": "",
          "type": "bool"
        }
      ],
      "stateMutability": "view",
      "type": "function"
    },
    {
      "inputs": [],
      "name": "symbol",
      "outputs": [
        {
          "internalType": "string",
          "name": "",
          "type": "string"
        }
      ],
      "stateMutability": "view",
      "type": "function"
    },
    {
      "inputs": [
        {
          "internalType": "uint256",
          "name": "index",
          "type": "uint256"
        }
      ],
      "name": "tokenByIndex",
      "outputs": [
        {
          "internalType": "uint256",
          "name": "",
          "type": "uint256"
        }
      ],
      "stateMutability": "view",
      "type": "function"
    },
    {
      "inputs": [
        {
          "internalType": "address",
          "name": "owner",
          "type": "address"
        },
        {
          "internalType": "uint256",
          "name": "index",
          "type": "uint256"
        }
      ],
      "name": "tokenOfOwnerByIndex",
      "outputs": [
        {
          "internalType": "uint256",
          "name": "",
          "type": "uint256"
        }
      ],
      "stateMutability": "view",
      "type": "function"
    },
    {
      "inputs": [
        {
          "internalType": "uint256",
          "name": "tokenId",
          "type": "uint256"
        }
      ],
      "name": "tokenURI",
      "outputs": [
        {
          "internalType": "string",
          "name": "",
          "type": "string"
        }
      ],
      "stateMutability": "view",
      "type": "function"
    },
    {
      "inputs": [],
      "name": "totalSupply",
      "outputs": [
        {
          "internalType": "uint256",
          "name": "",
          "type": "uint256"
        }
      ],
      "stateMutability": "view",
      "type": "function"
    },
    {
      "inputs": [
        {
          "internalType": "address",
          "name": "from",
          "type": "address"
        },
        {
          "internalType": "address",
          "name": "to",
          "type": "address"
        },
        {
          "internalType": "uint256",
          "name": "tokenId",
          "type": "uint256"
        }
      ],
      "name": "transferFrom",
      "outputs": [],
      "stateMutability": "nonpayable",
      "type": "function"
    },
    {
      "inputs": [
        {
          "internalType": "address",
          "name": "newOwner",
          "type": "address"
        }
      ],
      "name": "transferOwnership",
      "outputs": [],
      "stateMutability": "nonpayable",
      "type": "function"
    },
    {
      "inputs": [],
      "name": "unpause",
      "outputs": [],
      "stateMutability": "nonpayable",
      "type": "function"
    },
    {
      "inputs": [],
      "name": "unpauseContract",
      "outputs": [],
      "stateMutability": "nonpayable",
      "type": "function"
    },
    {
      "inputs": [],
      "name": "withdrawAll",
      "outputs": [],
      "stateMutability": "payable",
      "type": "function"
    }
  ],
  "bytecode": "0x60806040523480156200001157600080fd5b506040516200409b3803806200409b83398101604081905262000034916200032d565b6040518060400160405280600c81526020016b576174636865727352696e6760a01b815250604051806040016040528060028152602001612ba960f11b81525082828282828281600290816200008b919062000490565b5060036200009a828262000490565b5050603f805460ff19169055506041620000b5828262000490565b50620000c360003362000178565b620000ef7f9f2df0fed2c77648de5860a4cc508cd0818c85b8b8a1ab4ceeef8d981c8956a63362000178565b6200011b7f65d7a28e3265b37a6474929f336521b332c1681b933f6cb9f3376673440d862a3362000178565b6200012a604080546001019055565b5050505050506200014a620001446200017460201b60201c565b62000188565b600160435560466200015d828262000490565b5060416200016c828262000490565b50506200055c565b3390565b620001848282620001da565b5050565b604280546001600160a01b038381166001600160a01b0319831681179093556040519116919082907f8be0079c531659141344cd1fd0a4f28419497f9722a3daafe3b4186f6b6457e090600090a35050565b620001e6828262000205565b6000828152600160205260409020620002009082620002a5565b505050565b6000828152602081815260408083206001600160a01b038516845290915290205460ff1662000184576000828152602081815260408083206001600160a01b03851684529091529020805460ff19166001179055620002613390565b6001600160a01b0316816001600160a01b0316837f2f8788117e7eff1d82e926ec794901d17c78024a50270940304540a733656f0d60405160405180910390a45050565b6000620002bc836001600160a01b038416620002c5565b90505b92915050565b60008181526001830160205260408120546200030e57508154600181810184556000848152602080822090930184905584548482528286019093526040902091909155620002bf565b506000620002bf565b634e487b7160e01b600052604160045260246000fd5b600060208083850312156200034157600080fd5b82516001600160401b03808211156200035957600080fd5b818501915085601f8301126200036e57600080fd5b81518181111562000383576200038362000317565b604051601f8201601f19908116603f01168101908382118183101715620003ae57620003ae62000317565b816040528281528886848701011115620003c757600080fd5b600093505b82841015620003eb5784840186015181850187015292850192620003cc565b600086848301015280965050505050505092915050565b600181811c908216806200041757607f821691505b6020821081036200043857634e487b7160e01b600052602260045260246000fd5b50919050565b601f8211156200020057600081815260208120601f850160051c81016020861015620004675750805b601f850160051c820191505b81811015620004885782815560010162000473565b505050505050565b81516001600160401b03811115620004ac57620004ac62000317565b620004c481620004bd845462000402565b846200043e565b602080601f831160018114620004fc5760008415620004e35750858301515b600019600386901b1c1916600185901b17855562000488565b600085815260208120601f198616915b828110156200052d578886015182559484019460019091019084016200050c565b50858210156200054c5787850151600019600388901b60f8161c191681555b5050505050600190811b01905550565b613b2f806200056c6000396000f3fe6080604052600436106102ff5760003560e01c806370a0823111610190578063b33712c5116100dc578063d547741f11610095578063e985e9c51161006f578063e985e9c5146108fb578063eef28c681461091b578063f2fde38b1461093b578063fca3b5aa1461095b57600080fd5b8063d547741f14610892578063d547cfb7146108b2578063e63ab1e9146108c757600080fd5b8063b33712c5146107d3578063b88d4fde146107e8578063c87b56dd14610808578063ca15c87314610828578063d52079b414610848578063d53913931461085e57600080fd5b80638da5cb5b1161014957806395d89b411161012357806395d89b41146107695780639727151a1461077e578063a217fddf1461079e578063a22cb465146107b357600080fd5b80638da5cb5b1461070b5780639010d07c1461072957806391d148541461074957600080fd5b806370a0823114610684578063714c5398146106a4578063715018a6146106b95780638456cb59146106ce578063853828b6146106e357806386ebf010146106eb57600080fd5b806336568abe1161024f578063450efe211161020857806355f804b3116101e257806355f804b31461060c5780635c975abb1461062c5780636352211e146106445780636a6278421461066457600080fd5b8063450efe21146105ac5780634f558e79146105cc5780634f6ccce7146105ec57600080fd5b806336568abe146104f55780633771aaa1146105155780633f4ba83a1461054257806342842e0e1461055757806342966c6814610577578063439766ce1461059757600080fd5b806318160ddd116102bc578063248a9ca311610296578063248a9ca3146104655780632f2ff15d146104955780632f745c59146104b557806334d722c9146104d557600080fd5b806318160ddd146104105780631cb1ac0b1461042557806323b872dd1461044557600080fd5b806301ffc9a71461030457806306fdde0314610339578063081812fc1461035b578063095ea7b314610393578063131a7e24146103b5578063141a468c146103d5575b600080fd5b34801561031057600080fd5b5061032461031f3660046130ba565b61097b565b60405190151581526020015b60405180910390f35b34801561034557600080fd5b5061034e61098c565b6040516103309190613127565b34801561036757600080fd5b5061037b61037636600461313a565b610a1e565b6040516001600160a01b039091168152602001610330565b34801561039f57600080fd5b506103b36103ae366004613168565b610a6f565b005b3480156103c157600080fd5b5061034e6103d036600461313a565b610ab6565b3480156103e157600080fd5b506104026103f036600461313a565b60086020526000908152604090205481565b604051908152602001610330565b34801561041c57600080fd5b50604454610402565b34801561043157600080fd5b506103b3610440366004613194565b610b7d565b34801561045157600080fd5b506103b3610460366004613206565b610ba5565b34801561047157600080fd5b5061040261048036600461313a565b60009081526020819052604090206001015490565b3480156104a157600080fd5b506103b36104b0366004613247565b610bd7565b3480156104c157600080fd5b506104026104d0366004613168565b610bfc565b3480156104e157600080fd5b5060455461037b906001600160a01b031681565b34801561050157600080fd5b506103b3610510366004613247565b610c92565b34801561052157600080fd5b50610535610530366004613277565b610d0c565b60405161033091906132da565b34801561054e57600080fd5b506103b3610e47565b34801561056357600080fd5b506103b3610572366004613206565b610eef565b34801561058357600080fd5b506103b361059236600461313a565b610f0a565b3480156105a357600080fd5b506103b3610f3b565b3480156105b857600080fd5b506105356105c736600461331e565b610fb1565b3480156105d857600080fd5b506103246105e736600461313a565b611119565b3480156105f857600080fd5b5061040261060736600461313a565b611124565b34801561061857600080fd5b506103b36106273660046133c7565b6111b7565b34801561063857600080fd5b50603f5460ff16610324565b34801561065057600080fd5b5061037b61065f36600461313a565b6111ce565b34801561067057600080fd5b5061040261067f36600461331e565b61122e565b34801561069057600080fd5b5061040261069f36600461331e565b6112d5565b3480156106b057600080fd5b5061034e61135b565b3480156106c557600080fd5b506103b361136a565b3480156106da57600080fd5b506103b361137c565b6103b3611420565b3480156106f757600080fd5b506103b3610706366004613410565b6114c0565b34801561071757600080fd5b506042546001600160a01b031661037b565b34801561073557600080fd5b5061037b610744366004613456565b6115e8565b34801561075557600080fd5b50610324610764366004613247565b611607565b34801561077557600080fd5b5061034e611630565b34801561078a57600080fd5b506103b3610799366004613168565b61163f565b3480156107aa57600080fd5b50610402600081565b3480156107bf57600080fd5b506103b36107ce366004613486565b6116d6565b3480156107df57600080fd5b506103b3611719565b3480156107f457600080fd5b506103b36108033660046134b4565b611790565b34801561081457600080fd5b5061034e61082336600461313a565b6117c8565b34801561083457600080fd5b5061040261084336600461313a565b611853565b34801561085457600080fd5b5061040260445481565b34801561086a57600080fd5b506104027f9f2df0fed2c77648de5860a4cc508cd0818c85b8b8a1ab4ceeef8d981c8956a681565b34801561089e57600080fd5b506103b36108ad366004613247565b61186a565b3480156108be57600080fd5b5061034e61188f565b3480156108d357600080fd5b506104027f65d7a28e3265b37a6474929f336521b332c1681b933f6cb9f3376673440d862a81565b34801561090757600080fd5b50610324610916366004613534565b61191d565b34801561092757600080fd5b506103b3610936366004613486565b611984565b34801561094757600080fd5b506103b361095636600461331e565b6119b7565b34801561096757600080fd5b506103b361097636600461331e565b611a2d565b600061098682611aa6565b92915050565b60606002805461099b90613562565b80601f01602080910402602001604051908101604052809291908181526020018280546109c790613562565b8015610a145780601f106109e957610100808354040283529160200191610a14565b820191906000526020600020905b8154815290600101906020018083116109f757829003601f168201915b5050505050905090565b600080610a2a83611ae6565b6001600160a01b03811660009081526047602052604090205490915060ff16156109865760405162461bcd60e51b8152600401610a669061359c565b60405180910390fd5b6001600160a01b03821660009081526047602052604090205460ff1615610aa85760405162461bcd60e51b8152600401610a669061359c565b610ab28282611b0d565b5050565b6060610ac182611c1d565b610b205760405162461bcd60e51b815260206004820152602a60248201527f455243373231436f6d6d6f6e3a20717565727920666f72206e6f6e2d657869736044820152693a32b73a103a37b5b2b760b11b6064820152608401610a66565b610b29826111ce565b60008381526008602090815260409182902054915160609390931b6bffffffffffffffffffffffff1916908301526034820152605481018390526074015b6040516020818303038152906040529050919050565b610b85611c3a565b6046610b92828483613617565b506041610ba0828483613617565b505050565b610bb0335b82611c94565b610bcc5760405162461bcd60e51b8152600401610a66906136d7565b610ba0838383611cf3565b600082815260208190526040902060010154610bf281611e64565b610ba08383611e6e565b6000610c07836112d5565b8210610c695760405162461bcd60e51b815260206004820152602b60248201527f455243373231456e756d657261626c653a206f776e657220696e646578206f7560448201526a74206f6620626f756e647360a81b6064820152608401610a66565b506001600160a01b03919091166000908152603b60209081526040808320938352929052205490565b6001600160a01b0381163314610d025760405162461bcd60e51b815260206004820152602f60248201527f416363657373436f6e74726f6c3a2063616e206f6e6c792072656e6f756e636560448201526e103937b632b9903337b91039b2b63360891b6064820152608401610a66565b610ab28282611e90565b60607f9f2df0fed2c77648de5860a4cc508cd0818c85b8b8a1ab4ceeef8d981c8956a6610d3881611e64565b82610d915760405162461bcd60e51b815260206004820152602360248201527f455243373231436f6d6d6f6e3a20696e76616c6964206172726179206c656e6760448201526274687360e81b6064820152608401610a66565b8267ffffffffffffffff811115610daa57610daa61333b565b604051908082528060200260200182016040528015610dd3578160200160208202803683370190505b50915060005b83811015610e3f57610e10858583818110610df657610df6613724565b9050602002016020810190610e0b919061331e565b611eb2565b838281518110610e2257610e22613724565b602090810291909101015280610e3781613750565b915050610dd9565b505092915050565b610e717f65d7a28e3265b37a6474929f336521b332c1681b933f6cb9f3376673440d862a33611607565b610ee5576040805162461bcd60e51b81526020600482015260248101919091527f4552433732315072657365744d696e7465725061757365724175746f49643a2060448201527f6d75737420686176652070617573657220726f6c6520746f20756e70617573656064820152608401610a66565b610eed611edc565b565b610ba083838360405180602001604052806000815250611790565b610f1333610baa565b610f2f5760405162461bcd60e51b8152600401610a66906136d7565b610f3881611f2e565b50565b610f43611c3a565b306001600160a01b0316635c975abb6040518163ffffffff1660e01b8152600401602060405180830381865afa158015610f81573d6000803e3d6000fd5b505050506040513d601f19601f82011682018060405250810190610fa59190613769565b610eed57610eed611fd1565b6040516370a0823160e01b81526001600160a01b038216600482015260609060009030906370a0823190602401602060405180830381865afa158015610ffb573d6000803e3d6000fd5b505050506040513d601f19601f8201168201806040525081019061101f9190613786565b905060008167ffffffffffffffff81111561103c5761103c61333b565b604051908082528060200260200182016040528015611065578160200160208202803683370190505b50905060005b8281101561111157604051632f745c5960e01b81526001600160a01b0386166004820152602481018290523090632f745c5990604401602060405180830381865afa1580156110be573d6000803e3d6000fd5b505050506040513d601f19601f820116820180604052508101906110e29190613786565b8282815181106110f4576110f4613724565b60209081029190910101528061110981613750565b91505061106b565b509392505050565b600061098682611c1d565b600061112f603d5490565b82106111925760405162461bcd60e51b815260206004820152602c60248201527f455243373231456e756d657261626c653a20676c6f62616c20696e646578206f60448201526b7574206f6620626f756e647360a01b6064820152608401610a66565b603d82815481106111a5576111a5613724565b90600052602060002001549050919050565b60006111c281611e64565b6041610ba0838261379f565b6000818152600460205260408120546001600160a01b0316806109865760405162461bcd60e51b8152602060048201526018602482015277115490cdcc8c4e881a5b9d985b1a59081d1bdad95b88125160421b6044820152606401610a66565b600061125a7f9f2df0fed2c77648de5860a4cc508cd0818c85b8b8a1ab4ceeef8d981c8956a633611607565b6112cc5760405162461bcd60e51b815260206004820152603d60248201527f4552433732315072657365744d696e7465725061757365724175746f49643a2060448201527f6d7573742068617665206d696e74657220726f6c6520746f206d696e740000006064820152608401610a66565b61098682611eb2565b60006001600160a01b03821661133f5760405162461bcd60e51b815260206004820152602960248201527f4552433732313a2061646472657373207a65726f206973206e6f7420612076616044820152683634b21037bbb732b960b91b6064820152608401610a66565b506001600160a01b031660009081526005602052604090205490565b60606046805461099b90613562565b611372611c3a565b610eed600061200e565b6113a67f65d7a28e3265b37a6474929f336521b332c1681b933f6cb9f3376673440d862a33611607565b6114185760405162461bcd60e51b815260206004820152603e60248201527f4552433732315072657365744d696e7465725061757365724175746f49643a2060448201527f6d75737420686176652070617573657220726f6c6520746f20706175736500006064820152608401610a66565b610eed611fd1565b611428611c3a565b604051600090339047908381818185875af1925050503d806000811461146a576040519150601f19603f3d011682016040523d82523d6000602084013e61146f565b606091505b5050905080610f385760405162461bcd60e51b815260206004820152601b60248201527f776974686472617720776173206e6f742073756363657366756c6c00000000006044820152606401610a66565b6114c8612060565b6102bc604454106114ec57604051634d1d67cf60e11b815260040160405180910390fd5b603f5460ff16156115335760405162461bcd60e51b8152602060048201526011602482015270135a5b9d1a5b99c81a5cc81c185d5cd959607a1b6044820152606401610a66565b6045546001600160a01b0316336001600160a01b0316146115855760405162461bcd60e51b815260206004820152600c60248201526b2737ba10309036b4b73a32b960a11b6044820152606401610a66565b60446000815461159490613750565b909155506040517f7858b37876fd856e04f59df6c58a8077a48e93d1508c4755f2f6f2adbab16076906115cc9085908590859061385f565b60405180910390a16115de83836120b9565b610ba06001604355565b600082815260016020526040812061160090836120d3565b9392505050565b6000918252602082815260408084206001600160a01b0393909316845291905290205460ff1690565b60606003805461099b90613562565b611647611c3a565b33611665576040516324560b2960e11b815260040160405180910390fd5b60405163a9059cbb60e01b8152336004820152602481018290526001600160a01b0383169063a9059cbb906044016020604051808303816000875af11580156116b2573d6000803e3d6000fd5b505050506040513d601f19601f82011682018060405250810190610ba09190613769565b6001600160a01b03821660009081526047602052604090205460ff161561170f5760405162461bcd60e51b8152600401610a669061359c565b610ab282826120df565b611721611c3a565b306001600160a01b0316635c975abb6040518163ffffffff1660e01b8152600401602060405180830381865afa15801561175f573d6000803e3d6000fd5b505050506040513d601f19601f820116820180604052508101906117839190613769565b15610eed57610eed611edc565b61179a3383611c94565b6117b65760405162461bcd60e51b8152600401610a66906136d7565b6117c2848484846120ea565b50505050565b60606117d382611c1d565b6118375760405162461bcd60e51b815260206004820152602f60248201527f4552433732314d657461646174613a2055524920717565727920666f72206e6f60448201526e3732bc34b9ba32b73a103a37b5b2b760891b6064820152608401610a66565b60466118428361211d565b604051602001610b679291906138a2565b6000818152600160205260408120610986906121b0565b60008281526020819052604090206001015461188581611e64565b610ba08383611e90565b6046805461189c90613562565b80601f01602080910402602001604051908101604052809291908181526020018280546118c890613562565b80156119155780601f106118ea57610100808354040283529160200191611915565b820191906000526020600020905b8154815290600101906020018083116118f857829003601f168201915b505050505081565b6001600160a01b03811660009081526047602052604081205460ff16156119565760405162461bcd60e51b8152600401610a669061359c565b6001600160a01b0380841660009081526007602090815260408083209386168352929052205460ff16611600565b61198c611c3a565b6001600160a01b03919091166000908152604760205260409020805460ff1916911515919091179055565b6119bf611c3a565b6001600160a01b038116611a245760405162461bcd60e51b815260206004820152602660248201527f4f776e61626c653a206e6577206f776e657220697320746865207a65726f206160448201526564647265737360d01b6064820152608401610a66565b610f388161200e565b611a35611c3a565b6001600160a01b038116611a845760405162461bcd60e51b8152602060048201526016602482015275496e76616c6964206d696e746572206164647265737360501b6044820152606401610a66565b604580546001600160a01b0319166001600160a01b0392909216919091179055565b60006001600160e01b03198216633771aaa160e01b1480611ad757506001600160e01b031982166304c69f8960e21b145b806109865750610986826121ba565b6000611af1826121df565b506000908152600660205260409020546001600160a01b031690565b6000611b18826111ce565b9050806001600160a01b0316836001600160a01b031603611b855760405162461bcd60e51b815260206004820152602160248201527f4552433732313a20617070726f76616c20746f2063757272656e74206f776e656044820152603960f91b6064820152608401610a66565b336001600160a01b0382161480611ba15750611ba1813361191d565b611c135760405162461bcd60e51b815260206004820152603d60248201527f4552433732313a20617070726f76652063616c6c6572206973206e6f7420746f60448201527f6b656e206f776e6572206f7220617070726f76656420666f7220616c6c0000006064820152608401610a66565b610ba0838361222f565b6000908152600460205260409020546001600160a01b0316151590565b6042546001600160a01b03163314610eed5760405162461bcd60e51b815260206004820181905260248201527f4f776e61626c653a2063616c6c6572206973206e6f7420746865206f776e65726044820152606401610a66565b600080611ca0836111ce565b9050806001600160a01b0316846001600160a01b03161480611cc75750611cc7818561191d565b80611ceb5750836001600160a01b0316611ce084610a1e565b6001600160a01b0316145b949350505050565b826001600160a01b0316611d06826111ce565b6001600160a01b031614611d2c5760405162461bcd60e51b8152600401610a6690613929565b6001600160a01b038216611d8e5760405162461bcd60e51b8152602060048201526024808201527f4552433732313a207472616e7366657220746f20746865207a65726f206164646044820152637265737360e01b6064820152608401610a66565b611d9b838383600161229d565b826001600160a01b0316611dae826111ce565b6001600160a01b031614611dd45760405162461bcd60e51b8152600401610a6690613929565b600081815260066020908152604080832080546001600160a01b03199081169091556001600160a01b0387811680865260058552838620805460001901905590871680865283862080546001019055868652600490945282852080549092168417909155905184937fddf252ad1be2c89b69c2b068fc378daa952ba7f163c4a11628f55a4df523b3ef91a4505050565b610f3881336122a9565b611e788282612302565b6000828152600160205260409020610ba09082612386565b611e9a828261239b565b6000828152600160205260409020610ba09082612400565b6000611ebd60405490565b9050611ec98282612415565b611ed7604080546001019055565b919050565b611ee4612590565b603f805460ff191690557f5db9ee0a495bf2e6ff9c91a7834c1ba4fdd244a5e8aa4e537bd38aeae4b073aa335b6040516001600160a01b03909116815260200160405180910390a1565b6000611f39826111ce565b9050611f4981600084600161229d565b611f52826111ce565b600083815260066020908152604080832080546001600160a01b03199081169091556001600160a01b0385168085526005845282852080546000190190558785526004909352818420805490911690555192935084927fddf252ad1be2c89b69c2b068fc378daa952ba7f163c4a11628f55a4df523b3ef908390a45050565b611fd96125d9565b603f805460ff191660011790557f62e78cea01bee320cd4e420270b5ea74000d11b0c9f74754ebdbfc544b05a258611f113390565b604280546001600160a01b038381166001600160a01b0319831681179093556040519116919082907f8be0079c531659141344cd1fd0a4f28419497f9722a3daafe3b4186f6b6457e090600090a35050565b6002604354036120b25760405162461bcd60e51b815260206004820152601f60248201527f5265656e7472616e637947756172643a207265656e7472616e742063616c6c006044820152606401610a66565b6002604355565b610ab282826040518060200160405280600081525061261f565b60006116008383612652565b610ab233838361267c565b6120f5848484611cf3565b6121018484848461274a565b6117c25760405162461bcd60e51b8152600401610a669061396e565b6060600061212a8361284b565b600101905060008167ffffffffffffffff81111561214a5761214a61333b565b6040519080825280601f01601f191660200182016040528015612174576020820181803683370190505b5090508181016020015b600019016f181899199a1a9b1b9c1cb0b131b232b360811b600a86061a8153600a850494508461217e57509392505050565b6000610986825490565b60006001600160e01b0319821663d17f1b2160e01b1480610986575061098682612923565b6121e881611c1d565b610f385760405162461bcd60e51b8152602060048201526018602482015277115490cdcc8c4e881a5b9d985b1a59081d1bdad95b88125160421b6044820152606401610a66565b600081815260066020526040902080546001600160a01b0319166001600160a01b0384169081179091558190612264826111ce565b6001600160a01b03167f8c5be1e5ebec7d5bd14f71427d1e84f3dd0314c0f7b2291e5b200ac8c7c3b92560405160405180910390a45050565b6117c284848484612948565b6122b38282611607565b610ab2576122c081612954565b6122cb836020612966565b6040516020016122dc9291906139c0565b60408051601f198184030181529082905262461bcd60e51b8252610a6691600401613127565b61230c8282611607565b610ab2576000828152602081815260408083206001600160a01b03851684529091529020805460ff191660011790556123423390565b6001600160a01b0316816001600160a01b0316837f2f8788117e7eff1d82e926ec794901d17c78024a50270940304540a733656f0d60405160405180910390a45050565b6000611600836001600160a01b038416612b02565b6123a58282611607565b15610ab2576000828152602081815260408083206001600160a01b0385168085529252808320805460ff1916905551339285917ff6391f5c32d9c69d2a47ea670b442974b53935d1edc7fd64eb21e047a839171b9190a45050565b6000611600836001600160a01b038416612b51565b6001600160a01b03821661246b5760405162461bcd60e51b815260206004820181905260248201527f4552433732313a206d696e7420746f20746865207a65726f20616464726573736044820152606401610a66565b61247481611c1d565b156124c15760405162461bcd60e51b815260206004820152601c60248201527f4552433732313a20746f6b656e20616c7265616479206d696e746564000000006044820152606401610a66565b6124cf60008383600161229d565b6124d881611c1d565b156125255760405162461bcd60e51b815260206004820152601c60248201527f4552433732313a20746f6b656e20616c7265616479206d696e746564000000006044820152606401610a66565b6001600160a01b038216600081815260056020908152604080832080546001019055848352600490915280822080546001600160a01b0319168417905551839291907fddf252ad1be2c89b69c2b068fc378daa952ba7f163c4a11628f55a4df523b3ef908290a45050565b603f5460ff16610eed5760405162461bcd60e51b815260206004820152601460248201527314185d5cd8589b194e881b9bdd081c185d5cd95960621b6044820152606401610a66565b603f5460ff1615610eed5760405162461bcd60e51b815260206004820152601060248201526f14185d5cd8589b194e881c185d5cd95960821b6044820152606401610a66565b6126298383612415565b612636600084848461274a565b610ba05760405162461bcd60e51b8152600401610a669061396e565b600082600001828154811061266957612669613724565b9060005260206000200154905092915050565b816001600160a01b0316836001600160a01b0316036126dd5760405162461bcd60e51b815260206004820152601960248201527f4552433732313a20617070726f766520746f2063616c6c6572000000000000006044820152606401610a66565b6001600160a01b03838116600081815260076020908152604080832094871680845294825291829020805460ff191686151590811790915591519182527f17307eab39ab6107e8899845ad3d59bd9653f200f220920489ca2b5937696c31910160405180910390a3505050565b60006001600160a01b0384163b1561284057604051630a85bd0160e11b81526001600160a01b0385169063150b7a029061278e903390899088908890600401613a35565b6020604051808303816000875af19250505080156127c9575060408051601f3d908101601f191682019092526127c691810190613a72565b60015b612826573d8080156127f7576040519150601f19603f3d011682016040523d82523d6000602084013e6127fc565b606091505b50805160000361281e5760405162461bcd60e51b8152600401610a669061396e565b805181602001fd5b6001600160e01b031916630a85bd0160e11b149050611ceb565b506001949350505050565b60008072184f03e93ff9f4daa797ed6e38ed64bf6a1f0160401b831061288a5772184f03e93ff9f4daa797ed6e38ed64bf6a1f0160401b830492506040015b6d04ee2d6d415b85acef810000000083106128b6576d04ee2d6d415b85acef8100000000830492506020015b662386f26fc1000083106128d457662386f26fc10000830492506010015b6305f5e10083106128ec576305f5e100830492506008015b612710831061290057612710830492506004015b60648310612912576064830492506002015b600a83106109865760010192915050565b60006001600160e01b0319821663780e9d6360e01b1480610986575061098682612c44565b6117c284848484612c84565b60606109866001600160a01b03831660145b60606000612975836002613a8f565b612980906002613aa6565b67ffffffffffffffff8111156129985761299861333b565b6040519080825280601f01601f1916602001820160405280156129c2576020820181803683370190505b509050600360fc1b816000815181106129dd576129dd613724565b60200101906001600160f81b031916908160001a905350600f60fb1b81600181518110612a0c57612a0c613724565b60200101906001600160f81b031916908160001a9053506000612a30846002613a8f565b612a3b906001613aa6565b90505b6001811115612ab3576f181899199a1a9b1b9c1cb0b131b232b360811b85600f1660108110612a6f57612a6f613724565b1a60f81b828281518110612a8557612a85613724565b60200101906001600160f81b031916908160001a90535060049490941c93612aac81613ab9565b9050612a3e565b5083156116005760405162461bcd60e51b815260206004820181905260248201527f537472696e67733a20686578206c656e67746820696e73756666696369656e746044820152606401610a66565b6000818152600183016020526040812054612b4957508154600181810184556000848152602080822090930184905584548482528286019093526040902091909155610986565b506000610986565b60008181526001830160205260408120548015612c3a576000612b75600183613ad0565b8554909150600090612b8990600190613ad0565b9050818114612bee576000866000018281548110612ba957612ba9613724565b9060005260206000200154905080876000018481548110612bcc57612bcc613724565b6000918252602080832090910192909255918252600188019052604090208390555b8554869080612bff57612bff613ae3565b600190038181906000526020600020016000905590558560010160008681526020019081526020016000206000905560019350505050610986565b6000915050610986565b60006001600160e01b031982166380ac58cd60e01b1480612c7557506001600160e01b03198216635b5e139f60e01b145b80610986575061098682612c90565b6117c284848484612cb5565b60006001600160e01b03198216635a05180f60e01b1480610986575061098682612d28565b612cc184848484612d5d565b603f5460ff16156117c25760405162461bcd60e51b815260206004820152602b60248201527f4552433732315061757361626c653a20746f6b656e207472616e73666572207760448201526a1a1a5b19481c185d5cd95960aa1b6064820152608401610a66565b60006001600160e01b03198216637965db0b60e01b148061098657506301ffc9a760e01b6001600160e01b0319831614610986565b612d6984848484612e9d565b6001811115612dd85760405162461bcd60e51b815260206004820152603560248201527f455243373231456e756d657261626c653a20636f6e7365637574697665207472604482015274185b9cd9995c9cc81b9bdd081cdd5c1c1bdc9d1959605a1b6064820152608401610a66565b816001600160a01b038516612e3457612e2f81603d80546000838152603e60205260408120829055600182018355919091527fece66cfdbd22e3f37d348a3d8e19074452862cd65fd4b9a11f0336d1ac6d1dc30155565b612e57565b836001600160a01b0316856001600160a01b031614612e5757612e578582612f14565b6001600160a01b038416612e7357612e6e81612fb1565b612e96565b846001600160a01b0316846001600160a01b031614612e9657612e968482613060565b5050505050565b815b612ea98284613aa6565b811015612f0e5760008181526008602052604081208054909190612ecc90613750565b918290555060405182907fcc2c68164f9f7f0c063ba98bcf89498c0f3f5e3acc32bf4ab46195ecb489c13b90600090a380612f0681613750565b915050612e9f565b506117c2565b60006001612f21846112d5565b612f2b9190613ad0565b6000838152603c6020526040902054909150808214612f7e576001600160a01b0384166000908152603b602090815260408083208584528252808320548484528184208190558352603c90915290208190555b506000918252603c602090815260408084208490556001600160a01b039094168352603b81528383209183525290812055565b603d54600090612fc390600190613ad0565b6000838152603e6020526040812054603d8054939450909284908110612feb57612feb613724565b9060005260206000200154905080603d838154811061300c5761300c613724565b6000918252602080832090910192909255828152603e9091526040808220849055858252812055603d80548061304457613044613ae3565b6001900381819060005260206000200160009055905550505050565b600061306b836112d5565b6001600160a01b039093166000908152603b602090815260408083208684528252808320859055938252603c9052919091209190915550565b6001600160e01b031981168114610f3857600080fd5b6000602082840312156130cc57600080fd5b8135611600816130a4565b60005b838110156130f25781810151838201526020016130da565b50506000910152565b600081518084526131138160208601602086016130d7565b601f01601f19169290920160200192915050565b60208152600061160060208301846130fb565b60006020828403121561314c57600080fd5b5035919050565b6001600160a01b0381168114610f3857600080fd5b6000806040838503121561317b57600080fd5b823561318681613153565b946020939093013593505050565b600080602083850312156131a757600080fd5b823567ffffffffffffffff808211156131bf57600080fd5b818501915085601f8301126131d357600080fd5b8135818111156131e257600080fd5b8660208285010111156131f457600080fd5b60209290920196919550909350505050565b60008060006060848603121561321b57600080fd5b833561322681613153565b9250602084013561323681613153565b929592945050506040919091013590565b6000806040838503121561325a57600080fd5b82359150602083013561326c81613153565b809150509250929050565b6000806020838503121561328a57600080fd5b823567ffffffffffffffff808211156132a257600080fd5b818501915085601f8301126132b657600080fd5b8135818111156132c557600080fd5b8660208260051b85010111156131f457600080fd5b6020808252825182820181905260009190848201906040850190845b81811015613312578351835292840192918401916001016132f6565b50909695505050505050565b60006020828403121561333057600080fd5b813561160081613153565b634e487b7160e01b600052604160045260246000fd5b600067ffffffffffffffff8084111561336c5761336c61333b565b604051601f8501601f19908116603f011681019082821181831017156133945761339461333b565b816040528093508581528686860111156133ad57600080fd5b858560208301376000602087830101525050509392505050565b6000602082840312156133d957600080fd5b813567ffffffffffffffff8111156133f057600080fd5b8201601f8101841361340157600080fd5b611ceb84823560208401613351565b60008060006060848603121561342557600080fd5b833561343081613153565b92506020840135915060408401356008811061344b57600080fd5b809150509250925092565b6000806040838503121561346957600080fd5b50508035926020909101359150565b8015158114610f3857600080fd5b6000806040838503121561349957600080fd5b82356134a481613153565b9150602083013561326c81613478565b600080600080608085870312156134ca57600080fd5b84356134d581613153565b935060208501356134e581613153565b925060408501359150606085013567ffffffffffffffff81111561350857600080fd5b8501601f8101871361351957600080fd5b61352887823560208401613351565b91505092959194509250565b6000806040838503121561354757600080fd5b823561355281613153565b9150602083013561326c81613153565b600181811c9082168061357657607f821691505b60208210810361359657634e487b7160e01b600052602260045260246000fd5b50919050565b602080825260139082015272496e76616c6964204d61726b6574706c61636560681b604082015260600190565b601f821115610ba057600081815260208120601f850160051c810160208610156135f05750805b601f850160051c820191505b8181101561360f578281556001016135fc565b505050505050565b67ffffffffffffffff83111561362f5761362f61333b565b6136438361363d8354613562565b836135c9565b6000601f841160018114613677576000851561365f5750838201355b600019600387901b1c1916600186901b178355612e96565b600083815260209020601f19861690835b828110156136a85786850135825560209485019460019092019101613688565b50868210156136c55760001960f88860031b161c19848701351681555b505060018560011b0183555050505050565b6020808252602d908201527f4552433732313a2063616c6c6572206973206e6f7420746f6b656e206f776e6560408201526c1c881bdc88185c1c1c9bdd9959609a1b606082015260800190565b634e487b7160e01b600052603260045260246000fd5b634e487b7160e01b600052601160045260246000fd5b6000600182016137625761376261373a565b5060010190565b60006020828403121561377b57600080fd5b815161160081613478565b60006020828403121561379857600080fd5b5051919050565b815167ffffffffffffffff8111156137b9576137b961333b565b6137cd816137c78454613562565b846135c9565b602080601f83116001811461380257600084156137ea5750858301515b600019600386901b1c1916600185901b17855561360f565b600085815260208120601f198616915b8281101561383157888601518255948401946001909101908401613812565b508582101561384f5787850151600019600388901b60f8161c191681555b5050505050600190811b01905550565b6001600160a01b038416815260208101839052606081016008831061389457634e487b7160e01b600052602160045260246000fd5b826040830152949350505050565b60008084546138b081613562565b600182811680156138c857600181146138dd5761390c565b60ff198416875282151583028701945061390c565b8860005260208060002060005b858110156139035781548a8201529084019082016138ea565b50505082870194505b5050505083516139208183602088016130d7565b01949350505050565b60208082526025908201527f4552433732313a207472616e736665722066726f6d20696e636f72726563742060408201526437bbb732b960d91b606082015260800190565b60208082526032908201527f4552433732313a207472616e7366657220746f206e6f6e20455243373231526560408201527131b2b4bb32b91034b6b83632b6b2b73a32b960711b606082015260800190565b7f416363657373436f6e74726f6c3a206163636f756e74200000000000000000008152600083516139f88160178501602088016130d7565b7001034b99036b4b9b9b4b733903937b6329607d1b6017918401918201528351613a298160288401602088016130d7565b01602801949350505050565b6001600160a01b0385811682528416602082015260408101839052608060608201819052600090613a68908301846130fb565b9695505050505050565b600060208284031215613a8457600080fd5b8151611600816130a4565b80820281158282048414176109865761098661373a565b808201808211156109865761098661373a565b600081613ac857613ac861373a565b506000190190565b818103818111156109865761098661373a565b634e487b7160e01b600052603160045260246000fdfea2646970667358221220d3ed4e04feebd05103b1907ed935a3ecca0aacce2cbd96e7ec77f8acabfe2add64736f6c63430008130033",
  "linkReferences": {},
  "deployedLinkReferences": {}
}