{
  "_format": "hh-sol-artifact-1",
  "contractName": "WatchersRing",
  "sourceName": "contracts/WatchersRing.sol",
  "abi": [
    {
      "inputs": [
        {
          "internalType": "string",
          "name": "baseURI",
          "type": "string"
        }
      ],
      "stateMutability": "nonpayable",
      "type": "constructor"
    },
    {
      "inputs": [],
      "name": "Address0Error",
      "type": "error"
    },
    {
      "inputs": [],
      "name": "NoRingsAvailable",
      "type": "error"
    },
    {
      "anonymous": false,
      "inputs": [
        {
          "indexed": true,
          "internalType": "address",
          "name": "owner",
          "type": "address"
        },
        {
          "indexed": true,
          "internalType": "address",
          "name": "approved",
          "type": "address"
        },
        {
          "indexed": true,
          "internalType": "uint256",
          "name": "tokenId",
          "type": "uint256"
        }
      ],
      "name": "Approval",
      "type": "event"
    },
    {
      "anonymous": false,
      "inputs": [
        {
          "indexed": true,
          "internalType": "address",
          "name": "owner",
          "type": "address"
        },
        {
          "indexed": true,
          "internalType": "address",
          "name": "operator",
          "type": "address"
        },
        {
          "indexed": false,
          "internalType": "bool",
          "name": "approved",
          "type": "bool"
        }
      ],
      "name": "ApprovalForAll",
      "type": "event"
    },
    {
      "anonymous": false,
      "inputs": [
        {
          "indexed": true,
          "internalType": "address",
          "name": "previousOwner",
          "type": "address"
        },
        {
          "indexed": true,
          "internalType": "address",
          "name": "newOwner",
          "type": "address"
        }
      ],
      "name": "OwnershipTransferred",
      "type": "event"
    },
    {
      "anonymous": false,
      "inputs": [
        {
          "indexed": true,
          "internalType": "address",
          "name": "from",
          "type": "address"
        },
        {
          "indexed": true,
          "internalType": "address",
          "name": "to",
          "type": "address"
        },
        {
          "indexed": true,
          "internalType": "uint256",
          "name": "tokenId",
          "type": "uint256"
        }
      ],
      "name": "Transfer",
      "type": "event"
    },
    {
      "anonymous": false,
      "inputs": [
        {
          "indexed": false,
          "internalType": "address",
          "name": "to",
          "type": "address"
        },
        {
          "indexed": false,
          "internalType": "uint256",
          "name": "tokenId",
          "type": "uint256"
        },
        {
          "indexed": false,
          "internalType": "enum IWatchersRing.WatchersRingType",
          "name": "rtype",
          "type": "uint8"
        }
      ],
      "name": "WatchersRingMinted",
      "type": "event"
    },
    {
      "inputs": [
        {
          "internalType": "address",
          "name": "to",
          "type": "address"
        },
        {
          "internalType": "uint256",
          "name": "tokenId",
          "type": "uint256"
        }
      ],
      "name": "approve",
      "outputs": [],
      "stateMutability": "nonpayable",
      "type": "function"
    },
    {
      "inputs": [
        {
          "internalType": "address",
          "name": "owner",
          "type": "address"
        }
      ],
      "name": "balanceOf",
      "outputs": [
        {
          "internalType": "uint256",
          "name": "",
          "type": "uint256"
        }
      ],
      "stateMutability": "view",
      "type": "function"
    },
    {
      "inputs": [],
      "name": "baseTokenURI",
      "outputs": [
        {
          "internalType": "string",
          "name": "",
          "type": "string"
        }
      ],
      "stateMutability": "view",
      "type": "function"
    },
    {
      "inputs": [
        {
          "internalType": "uint256",
          "name": "tokenId",
          "type": "uint256"
        }
      ],
      "name": "exists",
      "outputs": [
        {
          "internalType": "bool",
          "name": "",
          "type": "bool"
        }
      ],
      "stateMutability": "view",
      "type": "function"
    },
    {
      "inputs": [
        {
          "internalType": "contract IERC20",
          "name": "token",
          "type": "address"
        },
        {
          "internalType": "uint256",
          "name": "amount",
          "type": "uint256"
        }
      ],
      "name": "forwardERC20s",
      "outputs": [],
      "stateMutability": "nonpayable",
      "type": "function"
    },
    {
      "inputs": [
        {
          "internalType": "uint256",
          "name": "tokenId",
          "type": "uint256"
        }
      ],
      "name": "getApproved",
      "outputs": [
        {
          "internalType": "address",
          "name": "",
          "type": "address"
        }
      ],
      "stateMutability": "view",
      "type": "function"
    },
    {
      "inputs": [
        {
          "internalType": "address",
          "name": "ownerAddress",
          "type": "address"
        }
      ],
      "name": "getTokens",
      "outputs": [
        {
          "internalType": "uint256[]",
          "name": "",
          "type": "uint256[]"
        }
      ],
      "stateMutability": "view",
      "type": "function"
    },
    {
      "inputs": [
        {
          "internalType": "address",
          "name": "owner",
          "type": "address"
        },
        {
          "internalType": "address",
          "name": "operator",
          "type": "address"
        }
      ],
      "name": "isApprovedForAll",
      "outputs": [
        {
          "internalType": "bool",
          "name": "",
          "type": "bool"
        }
      ],
      "stateMutability": "view",
      "type": "function"
    },
    {
      "inputs": [
        {
          "internalType": "address",
          "name": "recipient",
          "type": "address"
        },
        {
          "internalType": "uint256",
          "name": "tokenId",
          "type": "uint256"
        },
        {
          "internalType": "enum IWatchersRing.WatchersRingType",
          "name": "rtype",
          "type": "uint8"
        }
      ],
      "name": "mintTokenId",
      "outputs": [],
      "stateMutability": "nonpayable",
      "type": "function"
    },
    {
      "inputs": [],
      "name": "minterAddress",
      "outputs": [
        {
          "internalType": "address",
          "name": "",
          "type": "address"
        }
      ],
      "stateMutability": "view",
      "type": "function"
    },
    {
      "inputs": [],
      "name": "name",
      "outputs": [
        {
          "internalType": "string",
          "name": "",
          "type": "string"
        }
      ],
      "stateMutability": "view",
      "type": "function"
    },
    {
      "inputs": [],
      "name": "numMinted",
      "outputs": [
        {
          "internalType": "uint256",
          "name": "",
          "type": "uint256"
        }
      ],
      "stateMutability": "view",
      "type": "function"
    },
    {
      "inputs": [],
      "name": "owner",
      "outputs": [
        {
          "internalType": "address",
          "name": "",
          "type": "address"
        }
      ],
      "stateMutability": "view",
      "type": "function"
    },
    {
      "inputs": [
        {
          "internalType": "uint256",
          "name": "tokenId",
          "type": "uint256"
        }
      ],
      "name": "ownerOf",
      "outputs": [
        {
          "internalType": "address",
          "name": "",
          "type": "address"
        }
      ],
      "stateMutability": "view",
      "type": "function"
    },
    {
      "inputs": [],
      "name": "renounceOwnership",
      "outputs": [],
      "stateMutability": "nonpayable",
      "type": "function"
    },
    {
      "inputs": [
        {
          "internalType": "address",
          "name": "from",
          "type": "address"
        },
        {
          "internalType": "address",
          "name": "to",
          "type": "address"
        },
        {
          "internalType": "uint256",
          "name": "tokenId",
          "type": "uint256"
        }
      ],
      "name": "safeTransferFrom",
      "outputs": [],
      "stateMutability": "nonpayable",
      "type": "function"
    },
    {
      "inputs": [
        {
          "internalType": "address",
          "name": "from",
          "type": "address"
        },
        {
          "internalType": "address",
          "name": "to",
          "type": "address"
        },
        {
          "internalType": "uint256",
          "name": "tokenId",
          "type": "uint256"
        },
        {
          "internalType": "bytes",
          "name": "data",
          "type": "bytes"
        }
      ],
      "name": "safeTransferFrom",
      "outputs": [],
      "stateMutability": "nonpayable",
      "type": "function"
    },
    {
      "inputs": [
        {
          "internalType": "address",
          "name": "operator",
          "type": "address"
        },
        {
          "internalType": "bool",
          "name": "approved",
          "type": "bool"
        }
      ],
      "name": "setApprovalForAll",
      "outputs": [],
      "stateMutability": "nonpayable",
      "type": "function"
    },
    {
      "inputs": [
        {
          "internalType": "string",
          "name": "newBaseURI",
          "type": "string"
        }
      ],
      "name": "setBaseURI",
      "outputs": [],
      "stateMutability": "nonpayable",
      "type": "function"
    },
    {
      "inputs": [
        {
          "internalType": "address",
          "name": "market",
          "type": "address"
        },
        {
          "internalType": "bool",
          "name": "denied",
          "type": "bool"
        }
      ],
      "name": "setDeniedMarketplace",
      "outputs": [],
      "stateMutability": "nonpayable",
      "type": "function"
    },
    {
      "inputs": [
        {
          "internalType": "address",
          "name": "newMinter",
          "type": "address"
        }
      ],
      "name": "setMinter",
      "outputs": [],
      "stateMutability": "nonpayable",
      "type": "function"
    },
    {
      "inputs": [
        {
          "internalType": "bytes4",
          "name": "interfaceId",
          "type": "bytes4"
        }
      ],
      "name": "supportsInterface",
      "outputs": [
        {
          "internalType": "bool",
          "name": "",
          "type": "bool"
        }
      ],
      "stateMutability": "view",
      "type": "function"
    },
    {
      "inputs": [],
      "name": "symbol",
      "outputs": [
        {
          "internalType": "string",
          "name": "",
          "type": "string"
        }
      ],
      "stateMutability": "view",
      "type": "function"
    },
    {
      "inputs": [
        {
          "internalType": "uint256",
          "name": "index",
          "type": "uint256"
        }
      ],
      "name": "tokenByIndex",
      "outputs": [
        {
          "internalType": "uint256",
          "name": "",
          "type": "uint256"
        }
      ],
      "stateMutability": "view",
      "type": "function"
    },
    {
      "inputs": [
        {
          "internalType": "address",
          "name": "owner",
          "type": "address"
        },
        {
          "internalType": "uint256",
          "name": "index",
          "type": "uint256"
        }
      ],
      "name": "tokenOfOwnerByIndex",
      "outputs": [
        {
          "internalType": "uint256",
          "name": "",
          "type": "uint256"
        }
      ],
      "stateMutability": "view",
      "type": "function"
    },
    {
      "inputs": [
        {
          "internalType": "uint256",
          "name": "tokenId",
          "type": "uint256"
        }
      ],
      "name": "tokenURI",
      "outputs": [
        {
          "internalType": "string",
          "name": "",
          "type": "string"
        }
      ],
      "stateMutability": "view",
      "type": "function"
    },
    {
      "inputs": [],
      "name": "totalSupply",
      "outputs": [
        {
          "internalType": "uint256",
          "name": "",
          "type": "uint256"
        }
      ],
      "stateMutability": "view",
      "type": "function"
    },
    {
      "inputs": [
        {
          "internalType": "address",
          "name": "from",
          "type": "address"
        },
        {
          "internalType": "address",
          "name": "to",
          "type": "address"
        },
        {
          "internalType": "uint256",
          "name": "tokenId",
          "type": "uint256"
        }
      ],
      "name": "transferFrom",
      "outputs": [],
      "stateMutability": "nonpayable",
      "type": "function"
    },
    {
      "inputs": [
        {
          "internalType": "address",
          "name": "newOwner",
          "type": "address"
        }
      ],
      "name": "transferOwnership",
      "outputs": [],
      "stateMutability": "nonpayable",
      "type": "function"
    },
    {
      "inputs": [],
      "name": "withdrawAll",
      "outputs": [],
      "stateMutability": "payable",
      "type": "function"
    }
  ],
  "bytecode": "0x60806040523480156200001157600080fd5b5060405162004f3838038062004f3883398181016040528101906200003791906200036b565b6040518060400160405280600c81526020017f576174636865727352696e6700000000000000000000000000000000000000008152506040518060400160405280600281526020017f57520000000000000000000000000000000000000000000000000000000000008152508160009081620000b4919062000607565b508060019081620000c6919062000607565b505050620000e9620000dd6200010a60201b60201c565b6200011260201b60201c565b6001600b8190555080600e908162000102919062000607565b5050620006ee565b600033905090565b6000600a60009054906101000a900473ffffffffffffffffffffffffffffffffffffffff16905081600a60006101000a81548173ffffffffffffffffffffffffffffffffffffffff021916908373ffffffffffffffffffffffffffffffffffffffff1602179055508173ffffffffffffffffffffffffffffffffffffffff168173ffffffffffffffffffffffffffffffffffffffff167f8be0079c531659141344cd1fd0a4f28419497f9722a3daafe3b4186f6b6457e060405160405180910390a35050565b6000604051905090565b600080fd5b600080fd5b600080fd5b600080fd5b6000601f19601f8301169050919050565b7f4e487b7100000000000000000000000000000000000000000000000000000000600052604160045260246000fd5b6200024182620001f6565b810181811067ffffffffffffffff8211171562000263576200026262000207565b5b80604052505050565b600062000278620001d8565b905062000286828262000236565b919050565b600067ffffffffffffffff821115620002a957620002a862000207565b5b620002b482620001f6565b9050602081019050919050565b60005b83811015620002e1578082015181840152602081019050620002c4565b60008484015250505050565b600062000304620002fe846200028b565b6200026c565b905082815260208101848484011115620003235762000322620001f1565b5b62000330848285620002c1565b509392505050565b600082601f83011262000350576200034f620001ec565b5b815162000362848260208601620002ed565b91505092915050565b600060208284031215620003845762000383620001e2565b5b600082015167ffffffffffffffff811115620003a557620003a4620001e7565b5b620003b38482850162000338565b91505092915050565b600081519050919050565b7f4e487b7100000000000000000000000000000000000000000000000000000000600052602260045260246000fd5b600060028204905060018216806200040f57607f821691505b602082108103620004255762000424620003c7565b5b50919050565b60008190508160005260206000209050919050565b60006020601f8301049050919050565b600082821b905092915050565b6000600883026200048f7fffffffffffffffffffffffffffffffffffffffffffffffffffffffffffffffff8262000450565b6200049b868362000450565b95508019841693508086168417925050509392505050565b6000819050919050565b6000819050919050565b6000620004e8620004e2620004dc84620004b3565b620004bd565b620004b3565b9050919050565b6000819050919050565b6200050483620004c7565b6200051c6200051382620004ef565b8484546200045d565b825550505050565b600090565b6200053362000524565b62000540818484620004f9565b505050565b5b8181101562000568576200055c60008262000529565b60018101905062000546565b5050565b601f821115620005b75762000581816200042b565b6200058c8462000440565b810160208510156200059c578190505b620005b4620005ab8562000440565b83018262000545565b50505b505050565b600082821c905092915050565b6000620005dc60001984600802620005bc565b1980831691505092915050565b6000620005f78383620005c9565b9150826002028217905092915050565b6200061282620003bc565b67ffffffffffffffff8111156200062e576200062d62000207565b5b6200063a8254620003f6565b620006478282856200056c565b600060209050601f8311600181146200067f57600084156200066a578287015190505b620006768582620005e9565b865550620006e6565b601f1984166200068f866200042b565b60005b82811015620006b95784890151825560018201915060208501945060208101905062000692565b86831015620006d95784890151620006d5601f891682620005c9565b8355505b6001600288020188555050505b505050505050565b61483a80620006fe6000396000f3fe6080604052600436106101cd5760003560e01c8063715018a6116100f7578063b88d4fde11610095578063e985e9c511610064578063e985e9c51461068d578063eef28c68146106ca578063f2fde38b146106f3578063fca3b5aa1461071c576101cd565b8063b88d4fde146105d1578063c87b56dd146105fa578063d52079b414610637578063d547cfb714610662576101cd565b80638da5cb5b116100d15780638da5cb5b1461052957806395d89b41146105545780639727151a1461057f578063a22cb465146105a8576101cd565b8063715018a6146104df578063853828b6146104f657806386ebf01014610500576101cd565b806334d722c91161016f5780634f6ccce71161013e5780634f6ccce7146103ff57806355f804b31461043c5780636352211e1461046557806370a08231146104a2576101cd565b806334d722c91461033157806342842e0e1461035c578063450efe21146103855780634f558e79146103c2576101cd565b8063095ea7b3116101ab578063095ea7b31461027757806318160ddd146102a057806323b872dd146102cb5780632f745c59146102f4576101cd565b806301ffc9a7146101d257806306fdde031461020f578063081812fc1461023a575b600080fd5b3480156101de57600080fd5b506101f960048036038101906101f49190612d9d565b610745565b6040516102069190612de5565b60405180910390f35b34801561021b57600080fd5b50610224610757565b6040516102319190612e90565b60405180910390f35b34801561024657600080fd5b50610261600480360381019061025c9190612ee8565b6107e9565b60405161026e9190612f56565b60405180910390f35b34801561028357600080fd5b5061029e60048036038101906102999190612f9d565b61088d565b005b3480156102ac57600080fd5b506102b5610928565b6040516102c29190612fec565b60405180910390f35b3480156102d757600080fd5b506102f260048036038101906102ed9190613007565b610932565b005b34801561030057600080fd5b5061031b60048036038101906103169190612f9d565b610992565b6040516103289190612fec565b60405180910390f35b34801561033d57600080fd5b50610346610a37565b6040516103539190612f56565b60405180910390f35b34801561036857600080fd5b50610383600480360381019061037e9190613007565b610a5d565b005b34801561039157600080fd5b506103ac60048036038101906103a7919061305a565b610a7d565b6040516103b99190613145565b60405180910390f35b3480156103ce57600080fd5b506103e960048036038101906103e49190612ee8565b610c0e565b6040516103f69190612de5565b60405180910390f35b34801561040b57600080fd5b5061042660048036038101906104219190612ee8565b610c20565b6040516104339190612fec565b60405180910390f35b34801561044857600080fd5b50610463600480360381019061045e91906131cc565b610c91565b005b34801561047157600080fd5b5061048c60048036038101906104879190612ee8565b610caf565b6040516104999190612f56565b60405180910390f35b3480156104ae57600080fd5b506104c960048036038101906104c4919061305a565b610d35565b6040516104d69190612fec565b60405180910390f35b3480156104eb57600080fd5b506104f4610dec565b005b6104fe610e00565b005b34801561050c57600080fd5b506105276004803603810190610522919061323e565b610eb7565b005b34801561053557600080fd5b5061053e610ffb565b60405161054b9190612f56565b60405180910390f35b34801561056057600080fd5b50610569611025565b6040516105769190612e90565b60405180910390f35b34801561058b57600080fd5b506105a660048036038101906105a191906132cf565b6110b7565b005b3480156105b457600080fd5b506105cf60048036038101906105ca919061333b565b6111a8565b005b3480156105dd57600080fd5b506105f860048036038101906105f391906134ab565b611243565b005b34801561060657600080fd5b50610621600480360381019061061c9190612ee8565b6112a5565b60405161062e9190612e90565b60405180910390f35b34801561064357600080fd5b5061064c611321565b6040516106599190612fec565b60405180910390f35b34801561066e57600080fd5b50610677611327565b6040516106849190612e90565b60405180910390f35b34801561069957600080fd5b506106b460048036038101906106af919061352e565b6113b5565b6040516106c19190612de5565b60405180910390f35b3480156106d657600080fd5b506106f160048036038101906106ec919061333b565b611456565b005b3480156106ff57600080fd5b5061071a6004803603810190610715919061305a565b6114b9565b005b34801561072857600080fd5b50610743600480360381019061073e919061305a565b61153c565b005b6000610750826115f7565b9050919050565b6060600080546107669061359d565b80601f01602080910402602001604051908101604052809291908181526020018280546107929061359d565b80156107df5780601f106107b4576101008083540402835291602001916107df565b820191906000526020600020905b8154815290600101906020018083116107c257829003601f168201915b5050505050905090565b6000806107f583611671565b9050600f60008273ffffffffffffffffffffffffffffffffffffffff1673ffffffffffffffffffffffffffffffffffffffff16815260200190815260200160002060009054906101000a900460ff1615610884576040517f08c379a000000000000000000000000000000000000000000000000000000000815260040161087b9061361a565b60405180910390fd5b80915050919050565b600f60008373ffffffffffffffffffffffffffffffffffffffff1673ffffffffffffffffffffffffffffffffffffffff16815260200190815260200160002060009054906101000a900460ff161561091a576040517f08c379a00000000000000000000000000000000000000000000000000000000081526004016109119061361a565b60405180910390fd5b61092482826116b7565b5050565b6000600c54905090565b61094361093d6117ce565b826117d6565b610982576040517f08c379a0000000000000000000000000000000000000000000000000000000008152600401610979906136ac565b60405180910390fd5b61098d83838361186b565b505050565b600061099d83610d35565b82106109de576040517f08c379a00000000000000000000000000000000000000000000000000000000081526004016109d59061373e565b60405180910390fd5b600660008473ffffffffffffffffffffffffffffffffffffffff1673ffffffffffffffffffffffffffffffffffffffff168152602001908152602001600020600083815260200190815260200160002054905092915050565b600d60009054906101000a900473ffffffffffffffffffffffffffffffffffffffff1681565b610a7883838360405180602001604052806000815250611243565b505050565b606060003073ffffffffffffffffffffffffffffffffffffffff166370a08231846040518263ffffffff1660e01b8152600401610aba9190612f56565b602060405180830381865afa158015610ad7573d6000803e3d6000fd5b505050506040513d601f19601f82011682018060405250810190610afb9190613773565b905060008167ffffffffffffffff811115610b1957610b18613380565b5b604051908082528060200260200182016040528015610b475781602001602082028036833780820191505090505b50905060005b82811015610c03573073ffffffffffffffffffffffffffffffffffffffff16632f745c5986836040518363ffffffff1660e01b8152600401610b909291906137a0565b602060405180830381865afa158015610bad573d6000803e3d6000fd5b505050506040513d601f19601f82011682018060405250810190610bd19190613773565b828281518110610be457610be36137c9565b5b6020026020010181815250508080610bfb90613827565b915050610b4d565b508092505050919050565b6000610c1982611b64565b9050919050565b6000610c2a611ba5565b8210610c6b576040517f08c379a0000000000000000000000000000000000000000000000000000000008152600401610c62906138e1565b60405180910390fd5b60088281548110610c7f57610c7e6137c9565b5b90600052602060002001549050919050565b610c99611bb2565b8181600e9182610caa929190613ab8565b505050565b600080610cbb83611c30565b9050600073ffffffffffffffffffffffffffffffffffffffff168173ffffffffffffffffffffffffffffffffffffffff1603610d2c576040517f08c379a0000000000000000000000000000000000000000000000000000000008152600401610d2390613bd4565b60405180910390fd5b80915050919050565b60008073ffffffffffffffffffffffffffffffffffffffff168273ffffffffffffffffffffffffffffffffffffffff1603610da5576040517f08c379a0000000000000000000000000000000000000000000000000000000008152600401610d9c90613c66565b60405180910390fd5b600360008373ffffffffffffffffffffffffffffffffffffffff1673ffffffffffffffffffffffffffffffffffffffff168152602001908152602001600020549050919050565b610df4611bb2565b610dfe6000611c6d565b565b610e08611bb2565b60003373ffffffffffffffffffffffffffffffffffffffff1647604051610e2e90613cb7565b60006040518083038185875af1925050503d8060008114610e6b576040519150601f19603f3d011682016040523d82523d6000602084013e610e70565b606091505b5050905080610eb4576040517f08c379a0000000000000000000000000000000000000000000000000000000008152600401610eab90613d18565b60405180910390fd5b50565b610ebf611d33565b6102bc600c5410610efc576040517f9a3acf9e00000000000000000000000000000000000000000000000000000000815260040160405180910390fd5b600d60009054906101000a900473ffffffffffffffffffffffffffffffffffffffff1673ffffffffffffffffffffffffffffffffffffffff16610f3d6117ce565b73ffffffffffffffffffffffffffffffffffffffff1614610f93576040517f08c379a0000000000000000000000000000000000000000000000000000000008152600401610f8a90613d84565b60405180910390fd5b600c60008154610fa290613827565b919050819055507f7858b37876fd856e04f59df6c58a8077a48e93d1508c4755f2f6f2adbab16076838383604051610fdc93929190613e1b565b60405180910390a1610fee8383611d82565b610ff6611da0565b505050565b6000600a60009054906101000a900473ffffffffffffffffffffffffffffffffffffffff16905090565b6060600180546110349061359d565b80601f01602080910402602001604051908101604052809291908181526020018280546110609061359d565b80156110ad5780601f10611082576101008083540402835291602001916110ad565b820191906000526020600020905b81548152906001019060200180831161109057829003601f168201915b5050505050905090565b6110bf611bb2565b600073ffffffffffffffffffffffffffffffffffffffff163373ffffffffffffffffffffffffffffffffffffffff1603611125576040517f48ac165200000000000000000000000000000000000000000000000000000000815260040160405180910390fd5b8173ffffffffffffffffffffffffffffffffffffffff1663a9059cbb33836040518363ffffffff1660e01b81526004016111609291906137a0565b6020604051808303816000875af115801561117f573d6000803e3d6000fd5b505050506040513d601f19601f820116820180604052508101906111a39190613e67565b505050565b600f60008373ffffffffffffffffffffffffffffffffffffffff1673ffffffffffffffffffffffffffffffffffffffff16815260200190815260200160002060009054906101000a900460ff1615611235576040517f08c379a000000000000000000000000000000000000000000000000000000000815260040161122c9061361a565b60405180910390fd5b61123f8282611daa565b5050565b61125461124e6117ce565b836117d6565b611293576040517f08c379a000000000000000000000000000000000000000000000000000000000815260040161128a906136ac565b60405180910390fd5b61129f84848484611dc0565b50505050565b60606112b082611b64565b6112ef576040517f08c379a00000000000000000000000000000000000000000000000000000000081526004016112e690613f06565b60405180910390fd5b600e6112fa83611e1c565b60405160200161130b929190613fe5565b6040516020818303038152906040529050919050565b600c5481565b600e80546113349061359d565b80601f01602080910402602001604051908101604052809291908181526020018280546113609061359d565b80156113ad5780601f10611382576101008083540402835291602001916113ad565b820191906000526020600020905b81548152906001019060200180831161139057829003601f168201915b505050505081565b6000600f60008373ffffffffffffffffffffffffffffffffffffffff1673ffffffffffffffffffffffffffffffffffffffff16815260200190815260200160002060009054906101000a900460ff1615611444576040517f08c379a000000000000000000000000000000000000000000000000000000000815260040161143b9061361a565b60405180910390fd5b61144e8383611eea565b905092915050565b61145e611bb2565b80600f60008473ffffffffffffffffffffffffffffffffffffffff1673ffffffffffffffffffffffffffffffffffffffff16815260200190815260200160002060006101000a81548160ff0219169083151502179055505050565b6114c1611bb2565b600073ffffffffffffffffffffffffffffffffffffffff168173ffffffffffffffffffffffffffffffffffffffff1603611530576040517f08c379a00000000000000000000000000000000000000000000000000000000081526004016115279061407b565b60405180910390fd5b61153981611c6d565b50565b611544611bb2565b600073ffffffffffffffffffffffffffffffffffffffff168173ffffffffffffffffffffffffffffffffffffffff16036115b3576040517f08c379a00000000000000000000000000000000000000000000000000000000081526004016115aa906140e7565b60405180910390fd5b80600d60006101000a81548173ffffffffffffffffffffffffffffffffffffffff021916908373ffffffffffffffffffffffffffffffffffffffff16021790555050565b60007f780e9d63000000000000000000000000000000000000000000000000000000007bffffffffffffffffffffffffffffffffffffffffffffffffffffffff1916827bffffffffffffffffffffffffffffffffffffffffffffffffffffffff1916148061166a575061166982611f7e565b5b9050919050565b600061167c82612060565b6004600083815260200190815260200160002060009054906101000a900473ffffffffffffffffffffffffffffffffffffffff169050919050565b60006116c282610caf565b90508073ffffffffffffffffffffffffffffffffffffffff168373ffffffffffffffffffffffffffffffffffffffff1603611732576040517f08c379a000000000000000000000000000000000000000000000000000000000815260040161172990614179565b60405180910390fd5b8073ffffffffffffffffffffffffffffffffffffffff166117516117ce565b73ffffffffffffffffffffffffffffffffffffffff161480611780575061177f8161177a6117ce565b6113b5565b5b6117bf576040517f08c379a00000000000000000000000000000000000000000000000000000000081526004016117b69061420b565b60405180910390fd5b6117c983836120ab565b505050565b600033905090565b6000806117e283610caf565b90508073ffffffffffffffffffffffffffffffffffffffff168473ffffffffffffffffffffffffffffffffffffffff161480611824575061182381856113b5565b5b8061186257508373ffffffffffffffffffffffffffffffffffffffff1661184a846107e9565b73ffffffffffffffffffffffffffffffffffffffff16145b91505092915050565b8273ffffffffffffffffffffffffffffffffffffffff1661188b82610caf565b73ffffffffffffffffffffffffffffffffffffffff16146118e1576040517f08c379a00000000000000000000000000000000000000000000000000000000081526004016118d89061429d565b60405180910390fd5b600073ffffffffffffffffffffffffffffffffffffffff168273ffffffffffffffffffffffffffffffffffffffff1603611950576040517f08c379a00000000000000000000000000000000000000000000000000000000081526004016119479061432f565b60405180910390fd5b61195d8383836001612164565b8273ffffffffffffffffffffffffffffffffffffffff1661197d82610caf565b73ffffffffffffffffffffffffffffffffffffffff16146119d3576040517f08c379a00000000000000000000000000000000000000000000000000000000081526004016119ca9061429d565b60405180910390fd5b6004600082815260200190815260200160002060006101000a81549073ffffffffffffffffffffffffffffffffffffffff02191690556001600360008573ffffffffffffffffffffffffffffffffffffffff1673ffffffffffffffffffffffffffffffffffffffff168152602001908152602001600020600082825403925050819055506001600360008473ffffffffffffffffffffffffffffffffffffffff1673ffffffffffffffffffffffffffffffffffffffff16815260200190815260200160002060008282540192505081905550816002600083815260200190815260200160002060006101000a81548173ffffffffffffffffffffffffffffffffffffffff021916908373ffffffffffffffffffffffffffffffffffffffff160217905550808273ffffffffffffffffffffffffffffffffffffffff168473ffffffffffffffffffffffffffffffffffffffff167fddf252ad1be2c89b69c2b068fc378daa952ba7f163c4a11628f55a4df523b3ef60405160405180910390a4611b5f8383836001612176565b505050565b60008073ffffffffffffffffffffffffffffffffffffffff16611b8683611c30565b73ffffffffffffffffffffffffffffffffffffffff1614159050919050565b6000600880549050905090565b611bba6117ce565b73ffffffffffffffffffffffffffffffffffffffff16611bd8610ffb565b73ffffffffffffffffffffffffffffffffffffffff1614611c2e576040517f08c379a0000000000000000000000000000000000000000000000000000000008152600401611c259061439b565b60405180910390fd5b565b60006002600083815260200190815260200160002060009054906101000a900473ffffffffffffffffffffffffffffffffffffffff169050919050565b6000600a60009054906101000a900473ffffffffffffffffffffffffffffffffffffffff16905081600a60006101000a81548173ffffffffffffffffffffffffffffffffffffffff021916908373ffffffffffffffffffffffffffffffffffffffff1602179055508173ffffffffffffffffffffffffffffffffffffffff168173ffffffffffffffffffffffffffffffffffffffff167f8be0079c531659141344cd1fd0a4f28419497f9722a3daafe3b4186f6b6457e060405160405180910390a35050565b6002600b5403611d78576040517f08c379a0000000000000000000000000000000000000000000000000000000008152600401611d6f90614407565b60405180910390fd5b6002600b81905550565b611d9c82826040518060200160405280600081525061217c565b5050565b6001600b81905550565b611dbc611db56117ce565b83836121d7565b5050565b611dcb84848461186b565b611dd784848484612343565b611e16576040517f08c379a0000000000000000000000000000000000000000000000000000000008152600401611e0d90614499565b60405180910390fd5b50505050565b606060006001611e2b846124ca565b01905060008167ffffffffffffffff811115611e4a57611e49613380565b5b6040519080825280601f01601f191660200182016040528015611e7c5781602001600182028036833780820191505090505b509050600082602001820190505b600115611edf578080600190039150507f3031323334353637383961626364656600000000000000000000000000000000600a86061a8153600a8581611ed357611ed26144b9565b5b04945060008503611e8a575b819350505050919050565b6000600560008473ffffffffffffffffffffffffffffffffffffffff1673ffffffffffffffffffffffffffffffffffffffff16815260200190815260200160002060008373ffffffffffffffffffffffffffffffffffffffff1673ffffffffffffffffffffffffffffffffffffffff16815260200190815260200160002060009054906101000a900460ff16905092915050565b60007f80ac58cd000000000000000000000000000000000000000000000000000000007bffffffffffffffffffffffffffffffffffffffffffffffffffffffff1916827bffffffffffffffffffffffffffffffffffffffffffffffffffffffff1916148061204957507f5b5e139f000000000000000000000000000000000000000000000000000000007bffffffffffffffffffffffffffffffffffffffffffffffffffffffff1916827bffffffffffffffffffffffffffffffffffffffffffffffffffffffff1916145b8061205957506120588261261d565b5b9050919050565b61206981611b64565b6120a8576040517f08c379a000000000000000000000000000000000000000000000000000000000815260040161209f90613bd4565b60405180910390fd5b50565b816004600083815260200190815260200160002060006101000a81548173ffffffffffffffffffffffffffffffffffffffff021916908373ffffffffffffffffffffffffffffffffffffffff160217905550808273ffffffffffffffffffffffffffffffffffffffff1661211e83610caf565b73ffffffffffffffffffffffffffffffffffffffff167f8c5be1e5ebec7d5bd14f71427d1e84f3dd0314c0f7b2291e5b200ac8c7c3b92560405160405180910390a45050565b61217084848484612687565b50505050565b50505050565b61218683836127e5565b6121936000848484612343565b6121d2576040517f08c379a00000000000000000000000000000000000000000000000000000000081526004016121c990614499565b60405180910390fd5b505050565b8173ffffffffffffffffffffffffffffffffffffffff168373ffffffffffffffffffffffffffffffffffffffff1603612245576040517f08c379a000000000000000000000000000000000000000000000000000000000815260040161223c90614534565b60405180910390fd5b80600560008573ffffffffffffffffffffffffffffffffffffffff1673ffffffffffffffffffffffffffffffffffffffff16815260200190815260200160002060008473ffffffffffffffffffffffffffffffffffffffff1673ffffffffffffffffffffffffffffffffffffffff16815260200190815260200160002060006101000a81548160ff0219169083151502179055508173ffffffffffffffffffffffffffffffffffffffff168373ffffffffffffffffffffffffffffffffffffffff167f17307eab39ab6107e8899845ad3d59bd9653f200f220920489ca2b5937696c31836040516123369190612de5565b60405180910390a3505050565b60006123648473ffffffffffffffffffffffffffffffffffffffff16612a02565b156124bd578373ffffffffffffffffffffffffffffffffffffffff1663150b7a0261238d6117ce565b8786866040518563ffffffff1660e01b81526004016123af94939291906145a9565b6020604051808303816000875af19250505080156123eb57506040513d601f19601f820116820180604052508101906123e8919061460a565b60015b61246d573d806000811461241b576040519150601f19603f3d011682016040523d82523d6000602084013e612420565b606091505b506000815103612465576040517f08c379a000000000000000000000000000000000000000000000000000000000815260040161245c90614499565b60405180910390fd5b805181602001fd5b63150b7a0260e01b7bffffffffffffffffffffffffffffffffffffffffffffffffffffffff1916817bffffffffffffffffffffffffffffffffffffffffffffffffffffffff1916149150506124c2565b600190505b949350505050565b600080600090507a184f03e93ff9f4daa797ed6e38ed64bf6a1f0100000000000000008310612528577a184f03e93ff9f4daa797ed6e38ed64bf6a1f010000000000000000838161251e5761251d6144b9565b5b0492506040810190505b6d04ee2d6d415b85acef81000000008310612565576d04ee2d6d415b85acef8100000000838161255b5761255a6144b9565b5b0492506020810190505b662386f26fc10000831061259457662386f26fc10000838161258a576125896144b9565b5b0492506010810190505b6305f5e10083106125bd576305f5e10083816125b3576125b26144b9565b5b0492506008810190505b61271083106125e25761271083816125d8576125d76144b9565b5b0492506004810190505b6064831061260557606483816125fb576125fa6144b9565b5b0492506002810190505b600a8310612614576001810190505b80915050919050565b60007f01ffc9a7000000000000000000000000000000000000000000000000000000007bffffffffffffffffffffffffffffffffffffffffffffffffffffffff1916827bffffffffffffffffffffffffffffffffffffffffffffffffffffffff1916149050919050565b61269384848484612a25565b60018111156126d7576040517f08c379a00000000000000000000000000000000000000000000000000000000081526004016126ce906146a9565b60405180910390fd5b6000829050600073ffffffffffffffffffffffffffffffffffffffff168573ffffffffffffffffffffffffffffffffffffffff160361271e5761271981612a2b565b61275d565b8373ffffffffffffffffffffffffffffffffffffffff168573ffffffffffffffffffffffffffffffffffffffff161461275c5761275b8582612a74565b5b5b600073ffffffffffffffffffffffffffffffffffffffff168473ffffffffffffffffffffffffffffffffffffffff160361279f5761279a81612be1565b6127de565b8473ffffffffffffffffffffffffffffffffffffffff168473ffffffffffffffffffffffffffffffffffffffff16146127dd576127dc8482612cb2565b5b5b5050505050565b600073ffffffffffffffffffffffffffffffffffffffff168273ffffffffffffffffffffffffffffffffffffffff1603612854576040517f08c379a000000000000000000000000000000000000000000000000000000000815260040161284b90614715565b60405180910390fd5b61285d81611b64565b1561289d576040517f08c379a000000000000000000000000000000000000000000000000000000000815260040161289490614781565b60405180910390fd5b6128ab600083836001612164565b6128b481611b64565b156128f4576040517f08c379a00000000000000000000000000000000000000000000000000000000081526004016128eb90614781565b60405180910390fd5b6001600360008473ffffffffffffffffffffffffffffffffffffffff1673ffffffffffffffffffffffffffffffffffffffff16815260200190815260200160002060008282540192505081905550816002600083815260200190815260200160002060006101000a81548173ffffffffffffffffffffffffffffffffffffffff021916908373ffffffffffffffffffffffffffffffffffffffff160217905550808273ffffffffffffffffffffffffffffffffffffffff16600073ffffffffffffffffffffffffffffffffffffffff167fddf252ad1be2c89b69c2b068fc378daa952ba7f163c4a11628f55a4df523b3ef60405160405180910390a46129fe600083836001612176565b5050565b6000808273ffffffffffffffffffffffffffffffffffffffff163b119050919050565b50505050565b6008805490506009600083815260200190815260200160002081905550600881908060018154018082558091505060019003906000526020600020016000909190919091505550565b60006001612a8184610d35565b612a8b91906147a1565b9050600060076000848152602001908152602001600020549050818114612b70576000600660008673ffffffffffffffffffffffffffffffffffffffff1673ffffffffffffffffffffffffffffffffffffffff168152602001908152602001600020600084815260200190815260200160002054905080600660008773ffffffffffffffffffffffffffffffffffffffff1673ffffffffffffffffffffffffffffffffffffffff168152602001908152602001600020600084815260200190815260200160002081905550816007600083815260200190815260200160002081905550505b6007600084815260200190815260200160002060009055600660008573ffffffffffffffffffffffffffffffffffffffff1673ffffffffffffffffffffffffffffffffffffffff16815260200190815260200160002060008381526020019081526020016000206000905550505050565b60006001600880549050612bf591906147a1565b9050600060096000848152602001908152602001600020549050600060088381548110612c2557612c246137c9565b5b906000526020600020015490508060088381548110612c4757612c466137c9565b5b906000526020600020018190555081600960008381526020019081526020016000208190555060096000858152602001908152602001600020600090556008805480612c9657612c956147d5565b5b6001900381819060005260206000200160009055905550505050565b6000612cbd83610d35565b905081600660008573ffffffffffffffffffffffffffffffffffffffff1673ffffffffffffffffffffffffffffffffffffffff168152602001908152602001600020600083815260200190815260200160002081905550806007600084815260200190815260200160002081905550505050565b6000604051905090565b600080fd5b600080fd5b60007fffffffff0000000000000000000000000000000000000000000000000000000082169050919050565b612d7a81612d45565b8114612d8557600080fd5b50565b600081359050612d9781612d71565b92915050565b600060208284031215612db357612db2612d3b565b5b6000612dc184828501612d88565b91505092915050565b60008115159050919050565b612ddf81612dca565b82525050565b6000602082019050612dfa6000830184612dd6565b92915050565b600081519050919050565b600082825260208201905092915050565b60005b83811015612e3a578082015181840152602081019050612e1f565b60008484015250505050565b6000601f19601f8301169050919050565b6000612e6282612e00565b612e6c8185612e0b565b9350612e7c818560208601612e1c565b612e8581612e46565b840191505092915050565b60006020820190508181036000830152612eaa8184612e57565b905092915050565b6000819050919050565b612ec581612eb2565b8114612ed057600080fd5b50565b600081359050612ee281612ebc565b92915050565b600060208284031215612efe57612efd612d3b565b5b6000612f0c84828501612ed3565b91505092915050565b600073ffffffffffffffffffffffffffffffffffffffff82169050919050565b6000612f4082612f15565b9050919050565b612f5081612f35565b82525050565b6000602082019050612f6b6000830184612f47565b92915050565b612f7a81612f35565b8114612f8557600080fd5b50565b600081359050612f9781612f71565b92915050565b60008060408385031215612fb457612fb3612d3b565b5b6000612fc285828601612f88565b9250506020612fd385828601612ed3565b9150509250929050565b612fe681612eb2565b82525050565b60006020820190506130016000830184612fdd565b92915050565b6000806000606084860312156130205761301f612d3b565b5b600061302e86828701612f88565b935050602061303f86828701612f88565b925050604061305086828701612ed3565b9150509250925092565b6000602082840312156130705761306f612d3b565b5b600061307e84828501612f88565b91505092915050565b600081519050919050565b600082825260208201905092915050565b6000819050602082019050919050565b6130bc81612eb2565b82525050565b60006130ce83836130b3565b60208301905092915050565b6000602082019050919050565b60006130f282613087565b6130fc8185613092565b9350613107836130a3565b8060005b8381101561313857815161311f88826130c2565b975061312a836130da565b92505060018101905061310b565b5085935050505092915050565b6000602082019050818103600083015261315f81846130e7565b905092915050565b600080fd5b600080fd5b600080fd5b60008083601f84011261318c5761318b613167565b5b8235905067ffffffffffffffff8111156131a9576131a861316c565b5b6020830191508360018202830111156131c5576131c4613171565b5b9250929050565b600080602083850312156131e3576131e2612d3b565b5b600083013567ffffffffffffffff81111561320157613200612d40565b5b61320d85828601613176565b92509250509250929050565b6008811061322657600080fd5b50565b60008135905061323881613219565b92915050565b60008060006060848603121561325757613256612d3b565b5b600061326586828701612f88565b935050602061327686828701612ed3565b925050604061328786828701613229565b9150509250925092565b600061329c82612f35565b9050919050565b6132ac81613291565b81146132b757600080fd5b50565b6000813590506132c9816132a3565b92915050565b600080604083850312156132e6576132e5612d3b565b5b60006132f4858286016132ba565b925050602061330585828601612ed3565b9150509250929050565b61331881612dca565b811461332357600080fd5b50565b6000813590506133358161330f565b92915050565b6000806040838503121561335257613351612d3b565b5b600061336085828601612f88565b925050602061337185828601613326565b9150509250929050565b600080fd5b7f4e487b7100000000000000000000000000000000000000000000000000000000600052604160045260246000fd5b6133b882612e46565b810181811067ffffffffffffffff821117156133d7576133d6613380565b5b80604052505050565b60006133ea612d31565b90506133f682826133af565b919050565b600067ffffffffffffffff82111561341657613415613380565b5b61341f82612e46565b9050602081019050919050565b82818337600083830152505050565b600061344e613449846133fb565b6133e0565b90508281526020810184848401111561346a5761346961337b565b5b61347584828561342c565b509392505050565b600082601f83011261349257613491613167565b5b81356134a284826020860161343b565b91505092915050565b600080600080608085870312156134c5576134c4612d3b565b5b60006134d387828801612f88565b94505060206134e487828801612f88565b93505060406134f587828801612ed3565b925050606085013567ffffffffffffffff81111561351657613515612d40565b5b6135228782880161347d565b91505092959194509250565b6000806040838503121561354557613544612d3b565b5b600061355385828601612f88565b925050602061356485828601612f88565b9150509250929050565b7f4e487b7100000000000000000000000000000000000000000000000000000000600052602260045260246000fd5b600060028204905060018216806135b557607f821691505b6020821081036135c8576135c761356e565b5b50919050565b7f496e76616c6964204d61726b6574706c61636500000000000000000000000000600082015250565b6000613604601383612e0b565b915061360f826135ce565b602082019050919050565b60006020820190508181036000830152613633816135f7565b9050919050565b7f4552433732313a2063616c6c6572206973206e6f7420746f6b656e206f776e6560008201527f72206f7220617070726f76656400000000000000000000000000000000000000602082015250565b6000613696602d83612e0b565b91506136a18261363a565b604082019050919050565b600060208201905081810360008301526136c581613689565b9050919050565b7f455243373231456e756d657261626c653a206f776e657220696e646578206f7560008201527f74206f6620626f756e6473000000000000000000000000000000000000000000602082015250565b6000613728602b83612e0b565b9150613733826136cc565b604082019050919050565b600060208201905081810360008301526137578161371b565b9050919050565b60008151905061376d81612ebc565b92915050565b60006020828403121561378957613788612d3b565b5b60006137978482850161375e565b91505092915050565b60006040820190506137b56000830185612f47565b6137c26020830184612fdd565b9392505050565b7f4e487b7100000000000000000000000000000000000000000000000000000000600052603260045260246000fd5b7f4e487b7100000000000000000000000000000000000000000000000000000000600052601160045260246000fd5b600061383282612eb2565b91507fffffffffffffffffffffffffffffffffffffffffffffffffffffffffffffffff8203613864576138636137f8565b5b600182019050919050565b7f455243373231456e756d657261626c653a20676c6f62616c20696e646578206f60008201527f7574206f6620626f756e64730000000000000000000000000000000000000000602082015250565b60006138cb602c83612e0b565b91506138d68261386f565b604082019050919050565b600060208201905081810360008301526138fa816138be565b9050919050565b600082905092915050565b60008190508160005260206000209050919050565b60006020601f8301049050919050565b600082821b905092915050565b60006008830261396e7fffffffffffffffffffffffffffffffffffffffffffffffffffffffffffffffff82613931565b6139788683613931565b95508019841693508086168417925050509392505050565b6000819050919050565b60006139b56139b06139ab84612eb2565b613990565b612eb2565b9050919050565b6000819050919050565b6139cf8361399a565b6139e36139db826139bc565b84845461393e565b825550505050565b600090565b6139f86139eb565b613a038184846139c6565b505050565b5b81811015613a2757613a1c6000826139f0565b600181019050613a09565b5050565b601f821115613a6c57613a3d8161390c565b613a4684613921565b81016020851015613a55578190505b613a69613a6185613921565b830182613a08565b50505b505050565b600082821c905092915050565b6000613a8f60001984600802613a71565b1980831691505092915050565b6000613aa88383613a7e565b9150826002028217905092915050565b613ac28383613901565b67ffffffffffffffff811115613adb57613ada613380565b5b613ae5825461359d565b613af0828285613a2b565b6000601f831160018114613b1f5760008415613b0d578287013590505b613b178582613a9c565b865550613b7f565b601f198416613b2d8661390c565b60005b82811015613b5557848901358255600182019150602085019450602081019050613b30565b86831015613b725784890135613b6e601f891682613a7e565b8355505b6001600288020188555050505b50505050505050565b7f4552433732313a20696e76616c696420746f6b656e2049440000000000000000600082015250565b6000613bbe601883612e0b565b9150613bc982613b88565b602082019050919050565b60006020820190508181036000830152613bed81613bb1565b9050919050565b7f4552433732313a2061646472657373207a65726f206973206e6f74206120766160008201527f6c6964206f776e65720000000000000000000000000000000000000000000000602082015250565b6000613c50602983612e0b565b9150613c5b82613bf4565b604082019050919050565b60006020820190508181036000830152613c7f81613c43565b9050919050565b600081905092915050565b50565b6000613ca1600083613c86565b9150613cac82613c91565b600082019050919050565b6000613cc282613c94565b9150819050919050565b7f776974686472617720776173206e6f742073756363657366756c6c0000000000600082015250565b6000613d02601b83612e0b565b9150613d0d82613ccc565b602082019050919050565b60006020820190508181036000830152613d3181613cf5565b9050919050565b7f4e6f742061206d696e7465720000000000000000000000000000000000000000600082015250565b6000613d6e600c83612e0b565b9150613d7982613d38565b602082019050919050565b60006020820190508181036000830152613d9d81613d61565b9050919050565b7f4e487b7100000000000000000000000000000000000000000000000000000000600052602160045260246000fd5b60088110613de457613de3613da4565b5b50565b6000819050613df582613dd3565b919050565b6000613e0582613de7565b9050919050565b613e1581613dfa565b82525050565b6000606082019050613e306000830186612f47565b613e3d6020830185612fdd565b613e4a6040830184613e0c565b949350505050565b600081519050613e618161330f565b92915050565b600060208284031215613e7d57613e7c612d3b565b5b6000613e8b84828501613e52565b91505092915050565b7f4552433732314d657461646174613a2055524920717565727920666f72206e6f60008201527f6e6578697374656e7420746f6b656e0000000000000000000000000000000000602082015250565b6000613ef0602f83612e0b565b9150613efb82613e94565b604082019050919050565b60006020820190508181036000830152613f1f81613ee3565b9050919050565b600081905092915050565b60008154613f3e8161359d565b613f488186613f26565b94506001821660008114613f635760018114613f7857613fab565b60ff1983168652811515820286019350613fab565b613f818561390c565b60005b83811015613fa357815481890152600182019150602081019050613f84565b838801955050505b50505092915050565b6000613fbf82612e00565b613fc98185613f26565b9350613fd9818560208601612e1c565b80840191505092915050565b6000613ff18285613f31565b9150613ffd8284613fb4565b91508190509392505050565b7f4f776e61626c653a206e6577206f776e657220697320746865207a65726f206160008201527f6464726573730000000000000000000000000000000000000000000000000000602082015250565b6000614065602683612e0b565b915061407082614009565b604082019050919050565b6000602082019050818103600083015261409481614058565b9050919050565b7f496e76616c6964206d696e746572206164647265737300000000000000000000600082015250565b60006140d1601683612e0b565b91506140dc8261409b565b602082019050919050565b60006020820190508181036000830152614100816140c4565b9050919050565b7f4552433732313a20617070726f76616c20746f2063757272656e74206f776e6560008201527f7200000000000000000000000000000000000000000000000000000000000000602082015250565b6000614163602183612e0b565b915061416e82614107565b604082019050919050565b6000602082019050818103600083015261419281614156565b9050919050565b7f4552433732313a20617070726f76652063616c6c6572206973206e6f7420746f60008201527f6b656e206f776e6572206f7220617070726f76656420666f7220616c6c000000602082015250565b60006141f5603d83612e0b565b915061420082614199565b604082019050919050565b60006020820190508181036000830152614224816141e8565b9050919050565b7f4552433732313a207472616e736665722066726f6d20696e636f72726563742060008201527f6f776e6572000000000000000000000000000000000000000000000000000000602082015250565b6000614287602583612e0b565b91506142928261422b565b604082019050919050565b600060208201905081810360008301526142b68161427a565b9050919050565b7f4552433732313a207472616e7366657220746f20746865207a65726f2061646460008201527f7265737300000000000000000000000000000000000000000000000000000000602082015250565b6000614319602483612e0b565b9150614324826142bd565b604082019050919050565b600060208201905081810360008301526143488161430c565b9050919050565b7f4f776e61626c653a2063616c6c6572206973206e6f7420746865206f776e6572600082015250565b6000614385602083612e0b565b91506143908261434f565b602082019050919050565b600060208201905081810360008301526143b481614378565b9050919050565b7f5265656e7472616e637947756172643a207265656e7472616e742063616c6c00600082015250565b60006143f1601f83612e0b565b91506143fc826143bb565b602082019050919050565b60006020820190508181036000830152614420816143e4565b9050919050565b7f4552433732313a207472616e7366657220746f206e6f6e20455243373231526560008201527f63656976657220696d706c656d656e7465720000000000000000000000000000602082015250565b6000614483603283612e0b565b915061448e82614427565b604082019050919050565b600060208201905081810360008301526144b281614476565b9050919050565b7f4e487b7100000000000000000000000000000000000000000000000000000000600052601260045260246000fd5b7f4552433732313a20617070726f766520746f2063616c6c657200000000000000600082015250565b600061451e601983612e0b565b9150614529826144e8565b602082019050919050565b6000602082019050818103600083015261454d81614511565b9050919050565b600081519050919050565b600082825260208201905092915050565b600061457b82614554565b614585818561455f565b9350614595818560208601612e1c565b61459e81612e46565b840191505092915050565b60006080820190506145be6000830187612f47565b6145cb6020830186612f47565b6145d86040830185612fdd565b81810360608301526145ea8184614570565b905095945050505050565b60008151905061460481612d71565b92915050565b6000602082840312156146205761461f612d3b565b5b600061462e848285016145f5565b91505092915050565b7f455243373231456e756d657261626c653a20636f6e736563757469766520747260008201527f616e7366657273206e6f7420737570706f727465640000000000000000000000602082015250565b6000614693603583612e0b565b915061469e82614637565b604082019050919050565b600060208201905081810360008301526146c281614686565b9050919050565b7f4552433732313a206d696e7420746f20746865207a65726f2061646472657373600082015250565b60006146ff602083612e0b565b915061470a826146c9565b602082019050919050565b6000602082019050818103600083015261472e816146f2565b9050919050565b7f4552433732313a20746f6b656e20616c7265616479206d696e74656400000000600082015250565b600061476b601c83612e0b565b915061477682614735565b602082019050919050565b6000602082019050818103600083015261479a8161475e565b9050919050565b60006147ac82612eb2565b91506147b783612eb2565b92508282039050818111156147cf576147ce6137f8565b5b92915050565b7f4e487b7100000000000000000000000000000000000000000000000000000000600052603160045260246000fdfea2646970667358221220dc53c607da1a7e9f2113ab2cc04df7eab24704b66bda2332a89024e1b0f7ff1364736f6c63430008120033",
  "linkReferences": {},
  "deployedLinkReferences": {}
}