{
  "_format": "hh-sol-artifact-1",
  "contractName": "WatchersRing",
  "sourceName": "contracts/WatchersRing.sol",
  "abi": [
    {
      "inputs": [
        {
          "internalType": "string",
          "name": "_baseURI",
          "type": "string"
        }
      ],
      "stateMutability": "nonpayable",
      "type": "constructor"
    },
    {
      "inputs": [],
      "name": "Address0Error",
      "type": "error"
    },
    {
      "inputs": [],
      "name": "NoRingsAvailable",
      "type": "error"
    },
    {
      "anonymous": false,
      "inputs": [
        {
          "indexed": true,
          "internalType": "address",
          "name": "owner",
          "type": "address"
        },
        {
          "indexed": true,
          "internalType": "address",
          "name": "approved",
          "type": "address"
        },
        {
          "indexed": true,
          "internalType": "uint256",
          "name": "tokenId",
          "type": "uint256"
        }
      ],
      "name": "Approval",
      "type": "event"
    },
    {
      "anonymous": false,
      "inputs": [
        {
          "indexed": true,
          "internalType": "address",
          "name": "owner",
          "type": "address"
        },
        {
          "indexed": true,
          "internalType": "address",
          "name": "operator",
          "type": "address"
        },
        {
          "indexed": false,
          "internalType": "bool",
          "name": "approved",
          "type": "bool"
        }
      ],
      "name": "ApprovalForAll",
      "type": "event"
    },
    {
      "anonymous": false,
      "inputs": [
        {
          "indexed": true,
          "internalType": "uint256",
          "name": "_tokenId",
          "type": "uint256"
        },
        {
          "indexed": true,
          "internalType": "uint256",
          "name": "_nonce",
          "type": "uint256"
        }
      ],
      "name": "NonceUpdated",
      "type": "event"
    },
    {
      "anonymous": false,
      "inputs": [
        {
          "indexed": true,
          "internalType": "address",
          "name": "previousOwner",
          "type": "address"
        },
        {
          "indexed": true,
          "internalType": "address",
          "name": "newOwner",
          "type": "address"
        }
      ],
      "name": "OwnershipTransferred",
      "type": "event"
    },
    {
      "anonymous": false,
      "inputs": [
        {
          "indexed": false,
          "internalType": "address",
          "name": "account",
          "type": "address"
        }
      ],
      "name": "Paused",
      "type": "event"
    },
    {
      "anonymous": false,
      "inputs": [
        {
          "indexed": true,
          "internalType": "bytes32",
          "name": "role",
          "type": "bytes32"
        },
        {
          "indexed": true,
          "internalType": "bytes32",
          "name": "previousAdminRole",
          "type": "bytes32"
        },
        {
          "indexed": true,
          "internalType": "bytes32",
          "name": "newAdminRole",
          "type": "bytes32"
        }
      ],
      "name": "RoleAdminChanged",
      "type": "event"
    },
    {
      "anonymous": false,
      "inputs": [
        {
          "indexed": true,
          "internalType": "bytes32",
          "name": "role",
          "type": "bytes32"
        },
        {
          "indexed": true,
          "internalType": "address",
          "name": "account",
          "type": "address"
        },
        {
          "indexed": true,
          "internalType": "address",
          "name": "sender",
          "type": "address"
        }
      ],
      "name": "RoleGranted",
      "type": "event"
    },
    {
      "anonymous": false,
      "inputs": [
        {
          "indexed": true,
          "internalType": "bytes32",
          "name": "role",
          "type": "bytes32"
        },
        {
          "indexed": true,
          "internalType": "address",
          "name": "account",
          "type": "address"
        },
        {
          "indexed": true,
          "internalType": "address",
          "name": "sender",
          "type": "address"
        }
      ],
      "name": "RoleRevoked",
      "type": "event"
    },
    {
      "anonymous": false,
      "inputs": [
        {
          "indexed": true,
          "internalType": "address",
          "name": "from",
          "type": "address"
        },
        {
          "indexed": true,
          "internalType": "address",
          "name": "to",
          "type": "address"
        },
        {
          "indexed": true,
          "internalType": "uint256",
          "name": "tokenId",
          "type": "uint256"
        }
      ],
      "name": "Transfer",
      "type": "event"
    },
    {
      "anonymous": false,
      "inputs": [
        {
          "indexed": false,
          "internalType": "address",
          "name": "account",
          "type": "address"
        }
      ],
      "name": "Unpaused",
      "type": "event"
    },
    {
      "anonymous": false,
      "inputs": [
        {
          "indexed": false,
          "internalType": "address",
          "name": "to",
          "type": "address"
        },
        {
          "indexed": false,
          "internalType": "uint256",
          "name": "tokenId",
          "type": "uint256"
        },
        {
          "indexed": false,
          "internalType": "enum IWatchersRing.WatchersRingType",
          "name": "rtype",
          "type": "uint8"
        }
      ],
      "name": "WatchersRingMinted",
      "type": "event"
    },
    {
      "inputs": [],
      "name": "DEFAULT_ADMIN_ROLE",
      "outputs": [
        {
          "internalType": "bytes32",
          "name": "",
          "type": "bytes32"
        }
      ],
      "stateMutability": "view",
      "type": "function"
    },
    {
      "inputs": [],
      "name": "MINTER_ROLE",
      "outputs": [
        {
          "internalType": "bytes32",
          "name": "",
          "type": "bytes32"
        }
      ],
      "stateMutability": "view",
      "type": "function"
    },
    {
      "inputs": [],
      "name": "PAUSER_ROLE",
      "outputs": [
        {
          "internalType": "bytes32",
          "name": "",
          "type": "bytes32"
        }
      ],
      "stateMutability": "view",
      "type": "function"
    },
    {
      "inputs": [
        {
          "internalType": "address",
          "name": "to",
          "type": "address"
        },
        {
          "internalType": "uint256",
          "name": "tokenId",
          "type": "uint256"
        }
      ],
      "name": "approve",
      "outputs": [],
      "stateMutability": "nonpayable",
      "type": "function"
    },
    {
      "inputs": [
        {
          "internalType": "address",
          "name": "owner",
          "type": "address"
        }
      ],
      "name": "balanceOf",
      "outputs": [
        {
          "internalType": "uint256",
          "name": "",
          "type": "uint256"
        }
      ],
      "stateMutability": "view",
      "type": "function"
    },
    {
      "inputs": [],
      "name": "baseTokenURI",
      "outputs": [
        {
          "internalType": "string",
          "name": "",
          "type": "string"
        }
      ],
      "stateMutability": "view",
      "type": "function"
    },
    {
      "inputs": [
        {
          "internalType": "address[]",
          "name": "_recipients",
          "type": "address[]"
        }
      ],
      "name": "bulkMint",
      "outputs": [
        {
          "internalType": "uint256[]",
          "name": "_tokenIds",
          "type": "uint256[]"
        }
      ],
      "stateMutability": "nonpayable",
      "type": "function"
    },
    {
      "inputs": [
        {
          "internalType": "uint256",
          "name": "tokenId",
          "type": "uint256"
        }
      ],
      "name": "burn",
      "outputs": [],
      "stateMutability": "nonpayable",
      "type": "function"
    },
    {
      "inputs": [
        {
          "internalType": "uint256",
          "name": "tokenId",
          "type": "uint256"
        }
      ],
      "name": "exists",
      "outputs": [
        {
          "internalType": "bool",
          "name": "",
          "type": "bool"
        }
      ],
      "stateMutability": "view",
      "type": "function"
    },
    {
      "inputs": [
        {
          "internalType": "contract IERC20",
          "name": "token",
          "type": "address"
        },
        {
          "internalType": "uint256",
          "name": "amount",
          "type": "uint256"
        }
      ],
      "name": "forwardERC20s",
      "outputs": [],
      "stateMutability": "nonpayable",
      "type": "function"
    },
    {
      "inputs": [
        {
          "internalType": "uint256",
          "name": "tokenId",
          "type": "uint256"
        }
      ],
      "name": "getApproved",
      "outputs": [
        {
          "internalType": "address",
          "name": "",
          "type": "address"
        }
      ],
      "stateMutability": "view",
      "type": "function"
    },
    {
      "inputs": [],
      "name": "getBaseURI",
      "outputs": [
        {
          "internalType": "string",
          "name": "",
          "type": "string"
        }
      ],
      "stateMutability": "view",
      "type": "function"
    },
    {
      "inputs": [
        {
          "internalType": "bytes32",
          "name": "role",
          "type": "bytes32"
        }
      ],
      "name": "getRoleAdmin",
      "outputs": [
        {
          "internalType": "bytes32",
          "name": "",
          "type": "bytes32"
        }
      ],
      "stateMutability": "view",
      "type": "function"
    },
    {
      "inputs": [
        {
          "internalType": "bytes32",
          "name": "role",
          "type": "bytes32"
        },
        {
          "internalType": "uint256",
          "name": "index",
          "type": "uint256"
        }
      ],
      "name": "getRoleMember",
      "outputs": [
        {
          "internalType": "address",
          "name": "",
          "type": "address"
        }
      ],
      "stateMutability": "view",
      "type": "function"
    },
    {
      "inputs": [
        {
          "internalType": "bytes32",
          "name": "role",
          "type": "bytes32"
        }
      ],
      "name": "getRoleMemberCount",
      "outputs": [
        {
          "internalType": "uint256",
          "name": "",
          "type": "uint256"
        }
      ],
      "stateMutability": "view",
      "type": "function"
    },
    {
      "inputs": [
        {
          "internalType": "address",
          "name": "ownerAddress",
          "type": "address"
        }
      ],
      "name": "getTokens",
      "outputs": [
        {
          "internalType": "uint256[]",
          "name": "",
          "type": "uint256[]"
        }
      ],
      "stateMutability": "view",
      "type": "function"
    },
    {
      "inputs": [
        {
          "internalType": "bytes32",
          "name": "role",
          "type": "bytes32"
        },
        {
          "internalType": "address",
          "name": "account",
          "type": "address"
        }
      ],
      "name": "grantRole",
      "outputs": [],
      "stateMutability": "nonpayable",
      "type": "function"
    },
    {
      "inputs": [
        {
          "internalType": "bytes32",
          "name": "role",
          "type": "bytes32"
        },
        {
          "internalType": "address",
          "name": "account",
          "type": "address"
        }
      ],
      "name": "hasRole",
      "outputs": [
        {
          "internalType": "bool",
          "name": "",
          "type": "bool"
        }
      ],
      "stateMutability": "view",
      "type": "function"
    },
    {
      "inputs": [
        {
          "internalType": "address",
          "name": "owner",
          "type": "address"
        },
        {
          "internalType": "address",
          "name": "operator",
          "type": "address"
        }
      ],
      "name": "isApprovedForAll",
      "outputs": [
        {
          "internalType": "bool",
          "name": "",
          "type": "bool"
        }
      ],
      "stateMutability": "view",
      "type": "function"
    },
    {
      "inputs": [
        {
          "internalType": "address",
          "name": "to",
          "type": "address"
        }
      ],
      "name": "mint",
      "outputs": [
        {
          "internalType": "uint256",
          "name": "_tokenId",
          "type": "uint256"
        }
      ],
      "stateMutability": "nonpayable",
      "type": "function"
    },
    {
      "inputs": [
        {
          "internalType": "address",
          "name": "recipient",
          "type": "address"
        },
        {
          "internalType": "uint256",
          "name": "tokenId",
          "type": "uint256"
        },
        {
          "internalType": "enum IWatchersRing.WatchersRingType",
          "name": "rtype",
          "type": "uint8"
        }
      ],
      "name": "mintTokenId",
      "outputs": [],
      "stateMutability": "nonpayable",
      "type": "function"
    },
    {
      "inputs": [],
      "name": "minterAddress",
      "outputs": [
        {
          "internalType": "address",
          "name": "",
          "type": "address"
        }
      ],
      "stateMutability": "view",
      "type": "function"
    },
    {
      "inputs": [],
      "name": "name",
      "outputs": [
        {
          "internalType": "string",
          "name": "",
          "type": "string"
        }
      ],
      "stateMutability": "view",
      "type": "function"
    },
    {
      "inputs": [
        {
          "internalType": "uint256",
          "name": "",
          "type": "uint256"
        }
      ],
      "name": "nonces",
      "outputs": [
        {
          "internalType": "uint256",
          "name": "",
          "type": "uint256"
        }
      ],
      "stateMutability": "view",
      "type": "function"
    },
    {
      "inputs": [],
      "name": "numMinted",
      "outputs": [
        {
          "internalType": "uint256",
          "name": "",
          "type": "uint256"
        }
      ],
      "stateMutability": "view",
      "type": "function"
    },
    {
      "inputs": [],
      "name": "owner",
      "outputs": [
        {
          "internalType": "address",
          "name": "",
          "type": "address"
        }
      ],
      "stateMutability": "view",
      "type": "function"
    },
    {
      "inputs": [
        {
          "internalType": "uint256",
          "name": "tokenId",
          "type": "uint256"
        }
      ],
      "name": "ownerOf",
      "outputs": [
        {
          "internalType": "address",
          "name": "",
          "type": "address"
        }
      ],
      "stateMutability": "view",
      "type": "function"
    },
    {
      "inputs": [],
      "name": "pause",
      "outputs": [],
      "stateMutability": "nonpayable",
      "type": "function"
    },
    {
      "inputs": [],
      "name": "pauseContract",
      "outputs": [],
      "stateMutability": "nonpayable",
      "type": "function"
    },
    {
      "inputs": [],
      "name": "paused",
      "outputs": [
        {
          "internalType": "bool",
          "name": "",
          "type": "bool"
        }
      ],
      "stateMutability": "view",
      "type": "function"
    },
    {
      "inputs": [],
      "name": "renounceOwnership",
      "outputs": [],
      "stateMutability": "nonpayable",
      "type": "function"
    },
    {
      "inputs": [
        {
          "internalType": "bytes32",
          "name": "role",
          "type": "bytes32"
        },
        {
          "internalType": "address",
          "name": "account",
          "type": "address"
        }
      ],
      "name": "renounceRole",
      "outputs": [],
      "stateMutability": "nonpayable",
      "type": "function"
    },
    {
      "inputs": [
        {
          "internalType": "bytes32",
          "name": "role",
          "type": "bytes32"
        },
        {
          "internalType": "address",
          "name": "account",
          "type": "address"
        }
      ],
      "name": "revokeRole",
      "outputs": [],
      "stateMutability": "nonpayable",
      "type": "function"
    },
    {
      "inputs": [
        {
          "internalType": "address",
          "name": "from",
          "type": "address"
        },
        {
          "internalType": "address",
          "name": "to",
          "type": "address"
        },
        {
          "internalType": "uint256",
          "name": "tokenId",
          "type": "uint256"
        }
      ],
      "name": "safeTransferFrom",
      "outputs": [],
      "stateMutability": "nonpayable",
      "type": "function"
    },
    {
      "inputs": [
        {
          "internalType": "address",
          "name": "from",
          "type": "address"
        },
        {
          "internalType": "address",
          "name": "to",
          "type": "address"
        },
        {
          "internalType": "uint256",
          "name": "tokenId",
          "type": "uint256"
        },
        {
          "internalType": "bytes",
          "name": "data",
          "type": "bytes"
        }
      ],
      "name": "safeTransferFrom",
      "outputs": [],
      "stateMutability": "nonpayable",
      "type": "function"
    },
    {
      "inputs": [
        {
          "internalType": "address",
          "name": "operator",
          "type": "address"
        },
        {
          "internalType": "bool",
          "name": "approved",
          "type": "bool"
        }
      ],
      "name": "setApprovalForAll",
      "outputs": [],
      "stateMutability": "nonpayable",
      "type": "function"
    },
    {
      "inputs": [
        {
          "internalType": "string",
          "name": "baseTokenURI",
          "type": "string"
        }
      ],
      "name": "setBaseURI",
      "outputs": [],
      "stateMutability": "nonpayable",
      "type": "function"
    },
    {
      "inputs": [
        {
          "internalType": "address",
          "name": "market",
          "type": "address"
        },
        {
          "internalType": "bool",
          "name": "denied",
          "type": "bool"
        }
      ],
      "name": "setDeniedMarketplace",
      "outputs": [],
      "stateMutability": "nonpayable",
      "type": "function"
    },
    {
      "inputs": [
        {
          "internalType": "address",
          "name": "newMinter",
          "type": "address"
        }
      ],
      "name": "setMinter",
      "outputs": [],
      "stateMutability": "nonpayable",
      "type": "function"
    },
    {
      "inputs": [
        {
          "internalType": "string",
          "name": "newBaseURI",
          "type": "string"
        }
      ],
      "name": "setNewBaseURI",
      "outputs": [],
      "stateMutability": "nonpayable",
      "type": "function"
    },
    {
      "inputs": [
        {
          "internalType": "uint256",
          "name": "_tokenId",
          "type": "uint256"
        }
      ],
      "name": "stateOf",
      "outputs": [
        {
          "internalType": "bytes",
          "name": "",
          "type": "bytes"
        }
      ],
      "stateMutability": "view",
      "type": "function"
    },
    {
      "inputs": [
        {
          "internalType": "bytes4",
          "name": "interfaceId",
          "type": "bytes4"
        }
      ],
      "name": "supportsInterface",
      "outputs": [
        {
          "internalType": "bool",
          "name": "",
          "type": "bool"
        }
      ],
      "stateMutability": "view",
      "type": "function"
    },
    {
      "inputs": [],
      "name": "symbol",
      "outputs": [
        {
          "internalType": "string",
          "name": "",
          "type": "string"
        }
      ],
      "stateMutability": "view",
      "type": "function"
    },
    {
      "inputs": [
        {
          "internalType": "uint256",
          "name": "index",
          "type": "uint256"
        }
      ],
      "name": "tokenByIndex",
      "outputs": [
        {
          "internalType": "uint256",
          "name": "",
          "type": "uint256"
        }
      ],
      "stateMutability": "view",
      "type": "function"
    },
    {
      "inputs": [
        {
          "internalType": "address",
          "name": "owner",
          "type": "address"
        },
        {
          "internalType": "uint256",
          "name": "index",
          "type": "uint256"
        }
      ],
      "name": "tokenOfOwnerByIndex",
      "outputs": [
        {
          "internalType": "uint256",
          "name": "",
          "type": "uint256"
        }
      ],
      "stateMutability": "view",
      "type": "function"
    },
    {
      "inputs": [
        {
          "internalType": "uint256",
          "name": "tokenId",
          "type": "uint256"
        }
      ],
      "name": "tokenURI",
      "outputs": [
        {
          "internalType": "string",
          "name": "",
          "type": "string"
        }
      ],
      "stateMutability": "view",
      "type": "function"
    },
    {
      "inputs": [],
      "name": "totalSupply",
      "outputs": [
        {
          "internalType": "uint256",
          "name": "",
          "type": "uint256"
        }
      ],
      "stateMutability": "view",
      "type": "function"
    },
    {
      "inputs": [
        {
          "internalType": "address",
          "name": "from",
          "type": "address"
        },
        {
          "internalType": "address",
          "name": "to",
          "type": "address"
        },
        {
          "internalType": "uint256",
          "name": "tokenId",
          "type": "uint256"
        }
      ],
      "name": "transferFrom",
      "outputs": [],
      "stateMutability": "nonpayable",
      "type": "function"
    },
    {
      "inputs": [
        {
          "internalType": "address",
          "name": "newOwner",
          "type": "address"
        }
      ],
      "name": "transferOwnership",
      "outputs": [],
      "stateMutability": "nonpayable",
      "type": "function"
    },
    {
      "inputs": [],
      "name": "unpause",
      "outputs": [],
      "stateMutability": "nonpayable",
      "type": "function"
    },
    {
      "inputs": [],
      "name": "unpauseContract",
      "outputs": [],
      "stateMutability": "nonpayable",
      "type": "function"
    },
    {
      "inputs": [],
      "name": "withdrawAll",
      "outputs": [],
      "stateMutability": "payable",
      "type": "function"
    }
  ],
  "bytecode": "0x60806040523480156200001157600080fd5b506040516200790438038062007904833981810160405281019062000037919062000708565b6040518060400160405280600c81526020017f576174636865727352696e6700000000000000000000000000000000000000008152506040518060400160405280600281526020017f57520000000000000000000000000000000000000000000000000000000000008152508282828282828160029081620000ba9190620009a4565b508060039081620000cc9190620009a4565b5050506000603f60006101000a81548160ff0219169083151502179055508060419081620000fb9190620009a4565b50620001206000801b620001146200020d60201b60201c565b6200021560201b60201c565b620001617f9f2df0fed2c77648de5860a4cc508cd0818c85b8b8a1ab4ceeef8d981c8956a6620001556200020d60201b60201c565b6200021560201b60201c565b620001a27f65d7a28e3265b37a6474929f336521b332c1681b933f6cb9f3376673440d862a620001966200020d60201b60201c565b6200021560201b60201c565b620001b460406200022b60201b60201c565b505050505050620001da620001ce6200020d60201b60201c565b6200024160201b60201c565b60016043819055508060469081620001f39190620009a4565b508060419081620002059190620009a4565b505062000a8b565b600033905090565b6200022782826200030760201b60201c565b5050565b6001816000016000828254019250508190555050565b6000604260009054906101000a900473ffffffffffffffffffffffffffffffffffffffff16905081604260006101000a81548173ffffffffffffffffffffffffffffffffffffffff021916908373ffffffffffffffffffffffffffffffffffffffff1602179055508173ffffffffffffffffffffffffffffffffffffffff168173ffffffffffffffffffffffffffffffffffffffff167f8be0079c531659141344cd1fd0a4f28419497f9722a3daafe3b4186f6b6457e060405160405180910390a35050565b6200031982826200034560201b60201c565b6200034081600160008581526020019081526020016000206200043660201b90919060201c565b505050565b6200035782826200046e60201b60201c565b6200043257600160008084815260200190815260200160002060000160008373ffffffffffffffffffffffffffffffffffffffff1673ffffffffffffffffffffffffffffffffffffffff16815260200190815260200160002060006101000a81548160ff021916908315150217905550620003d76200020d60201b60201c565b73ffffffffffffffffffffffffffffffffffffffff168173ffffffffffffffffffffffffffffffffffffffff16837f2f8788117e7eff1d82e926ec794901d17c78024a50270940304540a733656f0d60405160405180910390a45b5050565b600062000466836000018373ffffffffffffffffffffffffffffffffffffffff1660001b620004d860201b60201c565b905092915050565b600080600084815260200190815260200160002060000160008373ffffffffffffffffffffffffffffffffffffffff1673ffffffffffffffffffffffffffffffffffffffff16815260200190815260200160002060009054906101000a900460ff16905092915050565b6000620004ec83836200055260201b60201c565b620005475782600001829080600181540180825580915050600190039060005260206000200160009091909190915055826000018054905083600101600084815260200190815260200160002081905550600190506200054c565b600090505b92915050565b600080836001016000848152602001908152602001600020541415905092915050565b6000604051905090565b600080fd5b600080fd5b600080fd5b600080fd5b6000601f19601f8301169050919050565b7f4e487b7100000000000000000000000000000000000000000000000000000000600052604160045260246000fd5b620005de8262000593565b810181811067ffffffffffffffff821117156200060057620005ff620005a4565b5b80604052505050565b60006200061562000575565b9050620006238282620005d3565b919050565b600067ffffffffffffffff821115620006465762000645620005a4565b5b620006518262000593565b9050602081019050919050565b60005b838110156200067e57808201518184015260208101905062000661565b60008484015250505050565b6000620006a16200069b8462000628565b62000609565b905082815260208101848484011115620006c057620006bf6200058e565b5b620006cd8482856200065e565b509392505050565b600082601f830112620006ed57620006ec62000589565b5b8151620006ff8482602086016200068a565b91505092915050565b6000602082840312156200072157620007206200057f565b5b600082015167ffffffffffffffff81111562000742576200074162000584565b5b6200075084828501620006d5565b91505092915050565b600081519050919050565b7f4e487b7100000000000000000000000000000000000000000000000000000000600052602260045260246000fd5b60006002820490506001821680620007ac57607f821691505b602082108103620007c257620007c162000764565b5b50919050565b60008190508160005260206000209050919050565b60006020601f8301049050919050565b600082821b905092915050565b6000600883026200082c7fffffffffffffffffffffffffffffffffffffffffffffffffffffffffffffffff82620007ed565b620008388683620007ed565b95508019841693508086168417925050509392505050565b6000819050919050565b6000819050919050565b6000620008856200087f620008798462000850565b6200085a565b62000850565b9050919050565b6000819050919050565b620008a18362000864565b620008b9620008b0826200088c565b848454620007fa565b825550505050565b600090565b620008d0620008c1565b620008dd81848462000896565b505050565b5b818110156200090557620008f9600082620008c6565b600181019050620008e3565b5050565b601f82111562000954576200091e81620007c8565b6200092984620007dd565b8101602085101562000939578190505b620009516200094885620007dd565b830182620008e2565b50505b505050565b600082821c905092915050565b6000620009796000198460080262000959565b1980831691505092915050565b600062000994838362000966565b9150826002028217905092915050565b620009af8262000759565b67ffffffffffffffff811115620009cb57620009ca620005a4565b5b620009d7825462000793565b620009e482828562000909565b600060209050601f83116001811462000a1c576000841562000a07578287015190505b62000a13858262000986565b86555062000a83565b601f19841662000a2c86620007c8565b60005b8281101562000a565784890151825560018201915060208501945060208101905062000a2f565b8683101562000a76578489015162000a72601f89168262000966565b8355505b6001600288020188555050505b505050505050565b616e698062000a9b6000396000f3fe6080604052600436106102ff5760003560e01c806370a0823111610190578063b33712c5116100dc578063d547741f11610095578063e985e9c51161006f578063e985e9c514610ba7578063eef28c6814610be4578063f2fde38b14610c0d578063fca3b5aa14610c36576102ff565b8063d547741f14610b28578063d547cfb714610b51578063e63ab1e914610b7c576102ff565b8063b33712c514610a18578063b88d4fde14610a2f578063c87b56dd14610a58578063ca15c87314610a95578063d52079b414610ad2578063d539139314610afd576102ff565b80638da5cb5b1161014957806395d89b411161012357806395d89b41146109705780639727151a1461099b578063a217fddf146109c4578063a22cb465146109ef576102ff565b80638da5cb5b146108cb5780639010d07c146108f657806391d1485414610933576102ff565b806370a0823114610802578063714c53981461083f578063715018a61461086a5780638456cb5914610881578063853828b61461089857806386ebf010146108a2576102ff565b806336568abe1161024f578063450efe211161020857806355f804b3116101e257806355f804b3146107345780635c975abb1461075d5780636352211e146107885780636a627842146107c5576102ff565b8063450efe211461067d5780634f558e79146106ba5780634f6ccce7146106f7576102ff565b806336568abe146105975780633771aaa1146105c05780633f4ba83a146105fd57806342842e0e1461061457806342966c681461063d578063439766ce14610666576102ff565b806318160ddd116102bc578063248a9ca311610296578063248a9ca3146104c95780632f2ff15d146105065780632f745c591461052f57806334d722c91461056c576102ff565b806318160ddd1461044c5780631cb1ac0b1461047757806323b872dd146104a0576102ff565b806301ffc9a71461030457806306fdde0314610341578063081812fc1461036c578063095ea7b3146103a9578063131a7e24146103d2578063141a468c1461040f575b600080fd5b34801561031057600080fd5b5061032b60048036038101906103269190614879565b610c5f565b60405161033891906148c1565b60405180910390f35b34801561034d57600080fd5b50610356610c71565b604051610363919061496c565b60405180910390f35b34801561037857600080fd5b50610393600480360381019061038e91906149c4565b610d03565b6040516103a09190614a32565b60405180910390f35b3480156103b557600080fd5b506103d060048036038101906103cb9190614a79565b610da7565b005b3480156103de57600080fd5b506103f960048036038101906103f491906149c4565b610e42565b6040516104069190614b0e565b60405180910390f35b34801561041b57600080fd5b50610436600480360381019061043191906149c4565b610ed2565b6040516104439190614b3f565b60405180910390f35b34801561045857600080fd5b50610461610eea565b60405161046e9190614b3f565b60405180910390f35b34801561048357600080fd5b5061049e60048036038101906104999190614bbf565b610ef4565b005b3480156104ac57600080fd5b506104c760048036038101906104c29190614c0c565b610f24565b005b3480156104d557600080fd5b506104f060048036038101906104eb9190614c95565b610f84565b6040516104fd9190614cd1565b60405180910390f35b34801561051257600080fd5b5061052d60048036038101906105289190614cec565b610fa3565b005b34801561053b57600080fd5b5061055660048036038101906105519190614a79565b610fc4565b6040516105639190614b3f565b60405180910390f35b34801561057857600080fd5b50610581611069565b60405161058e9190614a32565b60405180910390f35b3480156105a357600080fd5b506105be60048036038101906105b99190614cec565b61108f565b005b3480156105cc57600080fd5b506105e760048036038101906105e29190614d82565b611112565b6040516105f49190614e8d565b60405180910390f35b34801561060957600080fd5b5061061261124a565b005b34801561062057600080fd5b5061063b60048036038101906106369190614c0c565b6112c4565b005b34801561064957600080fd5b50610664600480360381019061065f91906149c4565b6112e4565b005b34801561067257600080fd5b5061067b611340565b005b34801561068957600080fd5b506106a4600480360381019061069f9190614eaf565b6113c6565b6040516106b19190614e8d565b60405180910390f35b3480156106c657600080fd5b506106e160048036038101906106dc91906149c4565b611557565b6040516106ee91906148c1565b60405180910390f35b34801561070357600080fd5b5061071e600480360381019061071991906149c4565b611569565b60405161072b9190614b3f565b60405180910390f35b34801561074057600080fd5b5061075b6004803603810190610756919061500c565b6115da565b005b34801561076957600080fd5b506107726115fb565b60405161077f91906148c1565b60405180910390f35b34801561079457600080fd5b506107af60048036038101906107aa91906149c4565b611612565b6040516107bc9190614a32565b60405180910390f35b3480156107d157600080fd5b506107ec60048036038101906107e79190614eaf565b611698565b6040516107f99190614b3f565b60405180910390f35b34801561080e57600080fd5b5061082960048036038101906108249190614eaf565b61171a565b6040516108369190614b3f565b60405180910390f35b34801561084b57600080fd5b506108546117d1565b604051610861919061496c565b60405180910390f35b34801561087657600080fd5b5061087f611863565b005b34801561088d57600080fd5b50610896611877565b005b6108a06118f1565b005b3480156108ae57600080fd5b506108c960048036038101906108c4919061507a565b6119a8565b005b3480156108d757600080fd5b506108e0611b34565b6040516108ed9190614a32565b60405180910390f35b34801561090257600080fd5b5061091d600480360381019061091891906150cd565b611b5e565b60405161092a9190614a32565b60405180910390f35b34801561093f57600080fd5b5061095a60048036038101906109559190614cec565b611b8d565b60405161096791906148c1565b60405180910390f35b34801561097c57600080fd5b50610985611bf7565b604051610992919061496c565b60405180910390f35b3480156109a757600080fd5b506109c260048036038101906109bd919061514b565b611c89565b005b3480156109d057600080fd5b506109d9611d7a565b6040516109e69190614cd1565b60405180910390f35b3480156109fb57600080fd5b50610a166004803603810190610a1191906151b7565b611d81565b005b348015610a2457600080fd5b50610a2d611e1c565b005b348015610a3b57600080fd5b50610a566004803603810190610a519190615298565b611ea3565b005b348015610a6457600080fd5b50610a7f6004803603810190610a7a91906149c4565b611f05565b604051610a8c919061496c565b60405180910390f35b348015610aa157600080fd5b50610abc6004803603810190610ab79190614c95565b611f81565b604051610ac99190614b3f565b60405180910390f35b348015610ade57600080fd5b50610ae7611fa5565b604051610af49190614b3f565b60405180910390f35b348015610b0957600080fd5b50610b12611fab565b604051610b1f9190614cd1565b60405180910390f35b348015610b3457600080fd5b50610b4f6004803603810190610b4a9190614cec565b611fcf565b005b348015610b5d57600080fd5b50610b66611ff0565b604051610b73919061496c565b60405180910390f35b348015610b8857600080fd5b50610b9161207e565b604051610b9e9190614cd1565b60405180910390f35b348015610bb357600080fd5b50610bce6004803603810190610bc9919061531b565b6120a2565b604051610bdb91906148c1565b60405180910390f35b348015610bf057600080fd5b50610c0b6004803603810190610c0691906151b7565b612143565b005b348015610c1957600080fd5b50610c346004803603810190610c2f9190614eaf565b6121a6565b005b348015610c4257600080fd5b50610c5d6004803603810190610c589190614eaf565b612229565b005b6000610c6a826122e4565b9050919050565b606060028054610c809061538a565b80601f0160208091040260200160405190810160405280929190818152602001828054610cac9061538a565b8015610cf95780601f10610cce57610100808354040283529160200191610cf9565b820191906000526020600020905b815481529060010190602001808311610cdc57829003601f168201915b5050505050905090565b600080610d0f836123c6565b9050604760008273ffffffffffffffffffffffffffffffffffffffff1673ffffffffffffffffffffffffffffffffffffffff16815260200190815260200160002060009054906101000a900460ff1615610d9e576040517f08c379a0000000000000000000000000000000000000000000000000000000008152600401610d9590615407565b60405180910390fd5b80915050919050565b604760008373ffffffffffffffffffffffffffffffffffffffff1673ffffffffffffffffffffffffffffffffffffffff16815260200190815260200160002060009054906101000a900460ff1615610e34576040517f08c379a0000000000000000000000000000000000000000000000000000000008152600401610e2b90615407565b60405180910390fd5b610e3e828261240c565b5050565b6060610e4d82612523565b610e8c576040517f08c379a0000000000000000000000000000000000000000000000000000000008152600401610e8390615499565b60405180910390fd5b610e9582611612565b600860008481526020019081526020016000205483604051602001610ebc93929190615522565b6040516020818303038152906040529050919050565b60086020528060005260406000206000915090505481565b6000604454905090565b610efc612564565b818160469182610f0d929190615716565b50818160419182610f1f929190615716565b505050565b610f35610f2f6125e2565b826125ea565b610f74576040517f08c379a0000000000000000000000000000000000000000000000000000000008152600401610f6b90615858565b60405180910390fd5b610f7f83838361267f565b505050565b6000806000838152602001908152602001600020600101549050919050565b610fac82610f84565b610fb581612978565b610fbf838361298c565b505050565b6000610fcf8361171a565b8210611010576040517f08c379a0000000000000000000000000000000000000000000000000000000008152600401611007906158ea565b60405180910390fd5b603b60008473ffffffffffffffffffffffffffffffffffffffff1673ffffffffffffffffffffffffffffffffffffffff168152602001908152602001600020600083815260200190815260200160002054905092915050565b604560009054906101000a900473ffffffffffffffffffffffffffffffffffffffff1681565b6110976125e2565b73ffffffffffffffffffffffffffffffffffffffff168173ffffffffffffffffffffffffffffffffffffffff1614611104576040517f08c379a00000000000000000000000000000000000000000000000000000000081526004016110fb9061597c565b60405180910390fd5b61110e82826129c0565b5050565b60607f9f2df0fed2c77648de5860a4cc508cd0818c85b8b8a1ab4ceeef8d981c8956a661113e81612978565b60008484905011611184576040517f08c379a000000000000000000000000000000000000000000000000000000000815260040161117b90615a0e565b60405180910390fd5b8383905067ffffffffffffffff8111156111a1576111a0614ee1565b5b6040519080825280602002602001820160405280156111cf5781602001602082028036833780820191505090505b50915060005b84849050811015611242576112108585838181106111f6576111f5615a2e565b5b905060200201602081019061120b9190614eaf565b6129f4565b83828151811061122357611222615a2e565b5b602002602001018181525050808061123a90615a8c565b9150506111d5565b505092915050565b61127b7f65d7a28e3265b37a6474929f336521b332c1681b933f6cb9f3376673440d862a6112766125e2565b611b8d565b6112ba576040517f08c379a00000000000000000000000000000000000000000000000000000000081526004016112b190615b46565b60405180910390fd5b6112c2612a1b565b565b6112df83838360405180602001604052806000815250611ea3565b505050565b6112f56112ef6125e2565b826125ea565b611334576040517f08c379a000000000000000000000000000000000000000000000000000000000815260040161132b90615858565b60405180910390fd5b61133d81612a7e565b50565b611348612564565b3073ffffffffffffffffffffffffffffffffffffffff16635c975abb6040518163ffffffff1660e01b8152600401602060405180830381865afa158015611393573d6000803e3d6000fd5b505050506040513d601f19601f820116820180604052508101906113b79190615b7b565b6113c4576113c3612bcc565b5b565b606060003073ffffffffffffffffffffffffffffffffffffffff166370a08231846040518263ffffffff1660e01b81526004016114039190614a32565b602060405180830381865afa158015611420573d6000803e3d6000fd5b505050506040513d601f19601f820116820180604052508101906114449190615bbd565b905060008167ffffffffffffffff81111561146257611461614ee1565b5b6040519080825280602002602001820160405280156114905781602001602082028036833780820191505090505b50905060005b8281101561154c573073ffffffffffffffffffffffffffffffffffffffff16632f745c5986836040518363ffffffff1660e01b81526004016114d9929190615bea565b602060405180830381865afa1580156114f6573d6000803e3d6000fd5b505050506040513d601f19601f8201168201806040525081019061151a9190615bbd565b82828151811061152d5761152c615a2e565b5b602002602001018181525050808061154490615a8c565b915050611496565b508092505050919050565b600061156282612523565b9050919050565b6000611573612c2f565b82106115b4576040517f08c379a00000000000000000000000000000000000000000000000000000000081526004016115ab90615c85565b60405180910390fd5b603d82815481106115c8576115c7615a2e565b5b90600052602060002001549050919050565b6000801b6115e781612978565b81604190816115f69190615ca5565b505050565b6000603f60009054906101000a900460ff16905090565b60008061161e83612c3c565b9050600073ffffffffffffffffffffffffffffffffffffffff168173ffffffffffffffffffffffffffffffffffffffff160361168f576040517f08c379a000000000000000000000000000000000000000000000000000000000815260040161168690615dc3565b60405180910390fd5b80915050919050565b60006116cb7f9f2df0fed2c77648de5860a4cc508cd0818c85b8b8a1ab4ceeef8d981c8956a66116c66125e2565b611b8d565b61170a576040517f08c379a000000000000000000000000000000000000000000000000000000000815260040161170190615e55565b60405180910390fd5b611713826129f4565b9050919050565b60008073ffffffffffffffffffffffffffffffffffffffff168273ffffffffffffffffffffffffffffffffffffffff160361178a576040517f08c379a000000000000000000000000000000000000000000000000000000000815260040161178190615ee7565b60405180910390fd5b600560008373ffffffffffffffffffffffffffffffffffffffff1673ffffffffffffffffffffffffffffffffffffffff168152602001908152602001600020549050919050565b6060604680546117e09061538a565b80601f016020809104026020016040519081016040528092919081815260200182805461180c9061538a565b80156118595780601f1061182e57610100808354040283529160200191611859565b820191906000526020600020905b81548152906001019060200180831161183c57829003601f168201915b5050505050905090565b61186b612564565b6118756000612c79565b565b6118a87f65d7a28e3265b37a6474929f336521b332c1681b933f6cb9f3376673440d862a6118a36125e2565b611b8d565b6118e7576040517f08c379a00000000000000000000000000000000000000000000000000000000081526004016118de90615f79565b60405180910390fd5b6118ef612bcc565b565b6118f9612564565b60003373ffffffffffffffffffffffffffffffffffffffff164760405161191f90615fca565b60006040518083038185875af1925050503d806000811461195c576040519150601f19603f3d011682016040523d82523d6000602084013e611961565b606091505b50509050806119a5576040517f08c379a000000000000000000000000000000000000000000000000000000000815260040161199c9061602b565b60405180910390fd5b50565b6119b0612d3f565b6102bc604454106119ed576040517f9a3acf9e00000000000000000000000000000000000000000000000000000000815260040160405180910390fd5b6119f56115fb565b15611a35576040517f08c379a0000000000000000000000000000000000000000000000000000000008152600401611a2c90616097565b60405180910390fd5b604560009054906101000a900473ffffffffffffffffffffffffffffffffffffffff1673ffffffffffffffffffffffffffffffffffffffff16611a766125e2565b73ffffffffffffffffffffffffffffffffffffffff1614611acc576040517f08c379a0000000000000000000000000000000000000000000000000000000008152600401611ac390616103565b60405180910390fd5b604460008154611adb90615a8c565b919050819055507f7858b37876fd856e04f59df6c58a8077a48e93d1508c4755f2f6f2adbab16076838383604051611b159392919061619a565b60405180910390a1611b278383612d8e565b611b2f612dac565b505050565b6000604260009054906101000a900473ffffffffffffffffffffffffffffffffffffffff16905090565b6000611b858260016000868152602001908152602001600020612db690919063ffffffff16565b905092915050565b600080600084815260200190815260200160002060000160008373ffffffffffffffffffffffffffffffffffffffff1673ffffffffffffffffffffffffffffffffffffffff16815260200190815260200160002060009054906101000a900460ff16905092915050565b606060038054611c069061538a565b80601f0160208091040260200160405190810160405280929190818152602001828054611c329061538a565b8015611c7f5780601f10611c5457610100808354040283529160200191611c7f565b820191906000526020600020905b815481529060010190602001808311611c6257829003601f168201915b5050505050905090565b611c91612564565b600073ffffffffffffffffffffffffffffffffffffffff163373ffffffffffffffffffffffffffffffffffffffff1603611cf7576040517f48ac165200000000000000000000000000000000000000000000000000000000815260040160405180910390fd5b8173ffffffffffffffffffffffffffffffffffffffff1663a9059cbb33836040518363ffffffff1660e01b8152600401611d32929190615bea565b6020604051808303816000875af1158015611d51573d6000803e3d6000fd5b505050506040513d601f19601f82011682018060405250810190611d759190615b7b565b505050565b6000801b81565b604760008373ffffffffffffffffffffffffffffffffffffffff1673ffffffffffffffffffffffffffffffffffffffff16815260200190815260200160002060009054906101000a900460ff1615611e0e576040517f08c379a0000000000000000000000000000000000000000000000000000000008152600401611e0590615407565b60405180910390fd5b611e188282612dd0565b5050565b611e24612564565b3073ffffffffffffffffffffffffffffffffffffffff16635c975abb6040518163ffffffff1660e01b8152600401602060405180830381865afa158015611e6f573d6000803e3d6000fd5b505050506040513d601f19601f82011682018060405250810190611e939190615b7b565b15611ea157611ea0612a1b565b5b565b611eb4611eae6125e2565b836125ea565b611ef3576040517f08c379a0000000000000000000000000000000000000000000000000000000008152600401611eea90615858565b60405180910390fd5b611eff84848484612de6565b50505050565b6060611f1082612523565b611f4f576040517f08c379a0000000000000000000000000000000000000000000000000000000008152600401611f4690616243565b60405180910390fd5b6046611f5a83612e42565b604051602001611f6b929190616322565b6040516020818303038152906040529050919050565b6000611f9e60016000848152602001908152602001600020612f10565b9050919050565b60445481565b7f9f2df0fed2c77648de5860a4cc508cd0818c85b8b8a1ab4ceeef8d981c8956a681565b611fd882610f84565b611fe181612978565b611feb83836129c0565b505050565b60468054611ffd9061538a565b80601f01602080910402602001604051908101604052809291908181526020018280546120299061538a565b80156120765780601f1061204b57610100808354040283529160200191612076565b820191906000526020600020905b81548152906001019060200180831161205957829003601f168201915b505050505081565b7f65d7a28e3265b37a6474929f336521b332c1681b933f6cb9f3376673440d862a81565b6000604760008373ffffffffffffffffffffffffffffffffffffffff1673ffffffffffffffffffffffffffffffffffffffff16815260200190815260200160002060009054906101000a900460ff1615612131576040517f08c379a000000000000000000000000000000000000000000000000000000000815260040161212890615407565b60405180910390fd5b61213b8383612f25565b905092915050565b61214b612564565b80604760008473ffffffffffffffffffffffffffffffffffffffff1673ffffffffffffffffffffffffffffffffffffffff16815260200190815260200160002060006101000a81548160ff0219169083151502179055505050565b6121ae612564565b600073ffffffffffffffffffffffffffffffffffffffff168173ffffffffffffffffffffffffffffffffffffffff160361221d576040517f08c379a0000000000000000000000000000000000000000000000000000000008152600401612214906163b8565b60405180910390fd5b61222681612c79565b50565b612231612564565b600073ffffffffffffffffffffffffffffffffffffffff168173ffffffffffffffffffffffffffffffffffffffff16036122a0576040517f08c379a000000000000000000000000000000000000000000000000000000000815260040161229790616424565b60405180910390fd5b80604560006101000a81548173ffffffffffffffffffffffffffffffffffffffff021916908373ffffffffffffffffffffffffffffffffffffffff16021790555050565b60007f3771aaa1000000000000000000000000000000000000000000000000000000007bffffffffffffffffffffffffffffffffffffffffffffffffffffffff1916827bffffffffffffffffffffffffffffffffffffffffffffffffffffffff191614806123af57507f131a7e24000000000000000000000000000000000000000000000000000000007bffffffffffffffffffffffffffffffffffffffffffffffffffffffff1916827bffffffffffffffffffffffffffffffffffffffffffffffffffffffff1916145b806123bf57506123be82612fb9565b5b9050919050565b60006123d182613033565b6006600083815260200190815260200160002060009054906101000a900473ffffffffffffffffffffffffffffffffffffffff169050919050565b600061241782611612565b90508073ffffffffffffffffffffffffffffffffffffffff168373ffffffffffffffffffffffffffffffffffffffff1603612487576040517f08c379a000000000000000000000000000000000000000000000000000000000815260040161247e906164b6565b60405180910390fd5b8073ffffffffffffffffffffffffffffffffffffffff166124a66125e2565b73ffffffffffffffffffffffffffffffffffffffff1614806124d557506124d4816124cf6125e2565b6120a2565b5b612514576040517f08c379a000000000000000000000000000000000000000000000000000000000815260040161250b90616548565b60405180910390fd5b61251e838361307e565b505050565b60008073ffffffffffffffffffffffffffffffffffffffff1661254583612c3c565b73ffffffffffffffffffffffffffffffffffffffff1614159050919050565b61256c6125e2565b73ffffffffffffffffffffffffffffffffffffffff1661258a611b34565b73ffffffffffffffffffffffffffffffffffffffff16146125e0576040517f08c379a00000000000000000000000000000000000000000000000000000000081526004016125d7906165b4565b60405180910390fd5b565b600033905090565b6000806125f683611612565b90508073ffffffffffffffffffffffffffffffffffffffff168473ffffffffffffffffffffffffffffffffffffffff161480612638575061263781856120a2565b5b8061267657508373ffffffffffffffffffffffffffffffffffffffff1661265e84610d03565b73ffffffffffffffffffffffffffffffffffffffff16145b91505092915050565b8273ffffffffffffffffffffffffffffffffffffffff1661269f82611612565b73ffffffffffffffffffffffffffffffffffffffff16146126f5576040517f08c379a00000000000000000000000000000000000000000000000000000000081526004016126ec90616646565b60405180910390fd5b600073ffffffffffffffffffffffffffffffffffffffff168273ffffffffffffffffffffffffffffffffffffffff1603612764576040517f08c379a000000000000000000000000000000000000000000000000000000000815260040161275b906166d8565b60405180910390fd5b6127718383836001613137565b8273ffffffffffffffffffffffffffffffffffffffff1661279182611612565b73ffffffffffffffffffffffffffffffffffffffff16146127e7576040517f08c379a00000000000000000000000000000000000000000000000000000000081526004016127de90616646565b60405180910390fd5b6006600082815260200190815260200160002060006101000a81549073ffffffffffffffffffffffffffffffffffffffff02191690556001600560008573ffffffffffffffffffffffffffffffffffffffff1673ffffffffffffffffffffffffffffffffffffffff168152602001908152602001600020600082825403925050819055506001600560008473ffffffffffffffffffffffffffffffffffffffff1673ffffffffffffffffffffffffffffffffffffffff16815260200190815260200160002060008282540192505081905550816004600083815260200190815260200160002060006101000a81548173ffffffffffffffffffffffffffffffffffffffff021916908373ffffffffffffffffffffffffffffffffffffffff160217905550808273ffffffffffffffffffffffffffffffffffffffff168473ffffffffffffffffffffffffffffffffffffffff167fddf252ad1be2c89b69c2b068fc378daa952ba7f163c4a11628f55a4df523b3ef60405160405180910390a46129738383836001613149565b505050565b612989816129846125e2565b61314f565b50565b61299682826131d4565b6129bb81600160008581526020019081526020016000206132b490919063ffffffff16565b505050565b6129ca82826132e4565b6129ef81600160008581526020019081526020016000206133c590919063ffffffff16565b505050565b6000612a0060406133f5565b9050612a0c8282613403565b612a166040613620565b919050565b612a23613636565b6000603f60006101000a81548160ff0219169083151502179055507f5db9ee0a495bf2e6ff9c91a7834c1ba4fdd244a5e8aa4e537bd38aeae4b073aa612a676125e2565b604051612a749190614a32565b60405180910390a1565b6000612a8982611612565b9050612a99816000846001613137565b612aa282611612565b90506006600083815260200190815260200160002060006101000a81549073ffffffffffffffffffffffffffffffffffffffff02191690556001600560008373ffffffffffffffffffffffffffffffffffffffff1673ffffffffffffffffffffffffffffffffffffffff168152602001908152602001600020600082825403925050819055506004600083815260200190815260200160002060006101000a81549073ffffffffffffffffffffffffffffffffffffffff021916905581600073ffffffffffffffffffffffffffffffffffffffff168273ffffffffffffffffffffffffffffffffffffffff167fddf252ad1be2c89b69c2b068fc378daa952ba7f163c4a11628f55a4df523b3ef60405160405180910390a4612bc8816000846001613149565b5050565b612bd461367f565b6001603f60006101000a81548160ff0219169083151502179055507f62e78cea01bee320cd4e420270b5ea74000d11b0c9f74754ebdbfc544b05a258612c186125e2565b604051612c259190614a32565b60405180910390a1565b6000603d80549050905090565b60006004600083815260200190815260200160002060009054906101000a900473ffffffffffffffffffffffffffffffffffffffff169050919050565b6000604260009054906101000a900473ffffffffffffffffffffffffffffffffffffffff16905081604260006101000a81548173ffffffffffffffffffffffffffffffffffffffff021916908373ffffffffffffffffffffffffffffffffffffffff1602179055508173ffffffffffffffffffffffffffffffffffffffff168173ffffffffffffffffffffffffffffffffffffffff167f8be0079c531659141344cd1fd0a4f28419497f9722a3daafe3b4186f6b6457e060405160405180910390a35050565b600260435403612d84576040517f08c379a0000000000000000000000000000000000000000000000000000000008152600401612d7b90616744565b60405180910390fd5b6002604381905550565b612da88282604051806020016040528060008152506136c9565b5050565b6001604381905550565b6000612dc58360000183613724565b60001c905092915050565b612de2612ddb6125e2565b838361374f565b5050565b612df184848461267f565b612dfd848484846138bb565b612e3c576040517f08c379a0000000000000000000000000000000000000000000000000000000008152600401612e33906167d6565b60405180910390fd5b50505050565b606060006001612e5184613a42565b01905060008167ffffffffffffffff811115612e7057612e6f614ee1565b5b6040519080825280601f01601f191660200182016040528015612ea25781602001600182028036833780820191505090505b509050600082602001820190505b600115612f05578080600190039150507f3031323334353637383961626364656600000000000000000000000000000000600a86061a8153600a8581612ef957612ef86167f6565b5b04945060008503612eb0575b819350505050919050565b6000612f1e82600001613b95565b9050919050565b6000600760008473ffffffffffffffffffffffffffffffffffffffff1673ffffffffffffffffffffffffffffffffffffffff16815260200190815260200160002060008373ffffffffffffffffffffffffffffffffffffffff1673ffffffffffffffffffffffffffffffffffffffff16815260200190815260200160002060009054906101000a900460ff16905092915050565b60007fd17f1b21000000000000000000000000000000000000000000000000000000007bffffffffffffffffffffffffffffffffffffffffffffffffffffffff1916827bffffffffffffffffffffffffffffffffffffffffffffffffffffffff1916148061302c575061302b82613ba6565b5b9050919050565b61303c81612523565b61307b576040517f08c379a000000000000000000000000000000000000000000000000000000000815260040161307290615dc3565b60405180910390fd5b50565b816006600083815260200190815260200160002060006101000a81548173ffffffffffffffffffffffffffffffffffffffff021916908373ffffffffffffffffffffffffffffffffffffffff160217905550808273ffffffffffffffffffffffffffffffffffffffff166130f183611612565b73ffffffffffffffffffffffffffffffffffffffff167f8c5be1e5ebec7d5bd14f71427d1e84f3dd0314c0f7b2291e5b200ac8c7c3b92560405160405180910390a45050565b61314384848484613c20565b50505050565b50505050565b6131598282611b8d565b6131d05761316681613c32565b6131748360001c6020613c5f565b6040516020016131859291906168bd565b6040516020818303038152906040526040517f08c379a00000000000000000000000000000000000000000000000000000000081526004016131c7919061496c565b60405180910390fd5b5050565b6131de8282611b8d565b6132b057600160008084815260200190815260200160002060000160008373ffffffffffffffffffffffffffffffffffffffff1673ffffffffffffffffffffffffffffffffffffffff16815260200190815260200160002060006101000a81548160ff0219169083151502179055506132556125e2565b73ffffffffffffffffffffffffffffffffffffffff168173ffffffffffffffffffffffffffffffffffffffff16837f2f8788117e7eff1d82e926ec794901d17c78024a50270940304540a733656f0d60405160405180910390a45b5050565b60006132dc836000018373ffffffffffffffffffffffffffffffffffffffff1660001b613e9b565b905092915050565b6132ee8282611b8d565b156133c157600080600084815260200190815260200160002060000160008373ffffffffffffffffffffffffffffffffffffffff1673ffffffffffffffffffffffffffffffffffffffff16815260200190815260200160002060006101000a81548160ff0219169083151502179055506133666125e2565b73ffffffffffffffffffffffffffffffffffffffff168173ffffffffffffffffffffffffffffffffffffffff16837ff6391f5c32d9c69d2a47ea670b442974b53935d1edc7fd64eb21e047a839171b60405160405180910390a45b5050565b60006133ed836000018373ffffffffffffffffffffffffffffffffffffffff1660001b613f0b565b905092915050565b600081600001549050919050565b600073ffffffffffffffffffffffffffffffffffffffff168273ffffffffffffffffffffffffffffffffffffffff1603613472576040517f08c379a000000000000000000000000000000000000000000000000000000000815260040161346990616943565b60405180910390fd5b61347b81612523565b156134bb576040517f08c379a00000000000000000000000000000000000000000000000000000000081526004016134b2906169af565b60405180910390fd5b6134c9600083836001613137565b6134d281612523565b15613512576040517f08c379a0000000000000000000000000000000000000000000000000000000008152600401613509906169af565b60405180910390fd5b6001600560008473ffffffffffffffffffffffffffffffffffffffff1673ffffffffffffffffffffffffffffffffffffffff16815260200190815260200160002060008282540192505081905550816004600083815260200190815260200160002060006101000a81548173ffffffffffffffffffffffffffffffffffffffff021916908373ffffffffffffffffffffffffffffffffffffffff160217905550808273ffffffffffffffffffffffffffffffffffffffff16600073ffffffffffffffffffffffffffffffffffffffff167fddf252ad1be2c89b69c2b068fc378daa952ba7f163c4a11628f55a4df523b3ef60405160405180910390a461361c600083836001613149565b5050565b6001816000016000828254019250508190555050565b61363e6115fb565b61367d576040517f08c379a000000000000000000000000000000000000000000000000000000000815260040161367490616a1b565b60405180910390fd5b565b6136876115fb565b156136c7576040517f08c379a00000000000000000000000000000000000000000000000000000000081526004016136be90616a87565b60405180910390fd5b565b6136d38383613403565b6136e060008484846138bb565b61371f576040517f08c379a0000000000000000000000000000000000000000000000000000000008152600401613716906167d6565b60405180910390fd5b505050565b600082600001828154811061373c5761373b615a2e565b5b9060005260206000200154905092915050565b8173ffffffffffffffffffffffffffffffffffffffff168373ffffffffffffffffffffffffffffffffffffffff16036137bd576040517f08c379a00000000000000000000000000000000000000000000000000000000081526004016137b490616af3565b60405180910390fd5b80600760008573ffffffffffffffffffffffffffffffffffffffff1673ffffffffffffffffffffffffffffffffffffffff16815260200190815260200160002060008473ffffffffffffffffffffffffffffffffffffffff1673ffffffffffffffffffffffffffffffffffffffff16815260200190815260200160002060006101000a81548160ff0219169083151502179055508173ffffffffffffffffffffffffffffffffffffffff168373ffffffffffffffffffffffffffffffffffffffff167f17307eab39ab6107e8899845ad3d59bd9653f200f220920489ca2b5937696c31836040516138ae91906148c1565b60405180910390a3505050565b60006138dc8473ffffffffffffffffffffffffffffffffffffffff1661401f565b15613a35578373ffffffffffffffffffffffffffffffffffffffff1663150b7a026139056125e2565b8786866040518563ffffffff1660e01b81526004016139279493929190616b13565b6020604051808303816000875af192505050801561396357506040513d601f19601f820116820180604052508101906139609190616b74565b60015b6139e5573d8060008114613993576040519150601f19603f3d011682016040523d82523d6000602084013e613998565b606091505b5060008151036139dd576040517f08c379a00000000000000000000000000000000000000000000000000000000081526004016139d4906167d6565b60405180910390fd5b805181602001fd5b63150b7a0260e01b7bffffffffffffffffffffffffffffffffffffffffffffffffffffffff1916817bffffffffffffffffffffffffffffffffffffffffffffffffffffffff191614915050613a3a565b600190505b949350505050565b600080600090507a184f03e93ff9f4daa797ed6e38ed64bf6a1f0100000000000000008310613aa0577a184f03e93ff9f4daa797ed6e38ed64bf6a1f0100000000000000008381613a9657613a956167f6565b5b0492506040810190505b6d04ee2d6d415b85acef81000000008310613add576d04ee2d6d415b85acef81000000008381613ad357613ad26167f6565b5b0492506020810190505b662386f26fc100008310613b0c57662386f26fc100008381613b0257613b016167f6565b5b0492506010810190505b6305f5e1008310613b35576305f5e1008381613b2b57613b2a6167f6565b5b0492506008810190505b6127108310613b5a576127108381613b5057613b4f6167f6565b5b0492506004810190505b60648310613b7d5760648381613b7357613b726167f6565b5b0492506002810190505b600a8310613b8c576001810190505b80915050919050565b600081600001805490509050919050565b60007f780e9d63000000000000000000000000000000000000000000000000000000007bffffffffffffffffffffffffffffffffffffffffffffffffffffffff1916827bffffffffffffffffffffffffffffffffffffffffffffffffffffffff19161480613c195750613c1882614042565b5b9050919050565b613c2c84848484614124565b50505050565b6060613c588273ffffffffffffffffffffffffffffffffffffffff16601460ff16613c5f565b9050919050565b606060006002836002613c729190616ba1565b613c7c9190616be3565b67ffffffffffffffff811115613c9557613c94614ee1565b5b6040519080825280601f01601f191660200182016040528015613cc75781602001600182028036833780820191505090505b5090507f300000000000000000000000000000000000000000000000000000000000000081600081518110613cff57613cfe615a2e565b5b60200101907effffffffffffffffffffffffffffffffffffffffffffffffffffffffffffff1916908160001a9053507f780000000000000000000000000000000000000000000000000000000000000081600181518110613d6357613d62615a2e565b5b60200101907effffffffffffffffffffffffffffffffffffffffffffffffffffffffffffff1916908160001a90535060006001846002613da39190616ba1565b613dad9190616be3565b90505b6001811115613e4d577f3031323334353637383961626364656600000000000000000000000000000000600f861660108110613def57613dee615a2e565b5b1a60f81b828281518110613e0657613e05615a2e565b5b60200101907effffffffffffffffffffffffffffffffffffffffffffffffffffffffffffff1916908160001a905350600485901c945080613e4690616c17565b9050613db0565b5060008414613e91576040517f08c379a0000000000000000000000000000000000000000000000000000000008152600401613e8890616c8c565b60405180910390fd5b8091505092915050565b6000613ea78383614136565b613f00578260000182908060018154018082558091505060019003906000526020600020016000909190919091505582600001805490508360010160008481526020019081526020016000208190555060019050613f05565b600090505b92915050565b60008083600101600084815260200190815260200160002054905060008114614013576000600182613f3d9190616cac565b9050600060018660000180549050613f559190616cac565b9050818114613fc4576000866000018281548110613f7657613f75615a2e565b5b9060005260206000200154905080876000018481548110613f9a57613f99615a2e565b5b90600052602060002001819055508387600101600083815260200190815260200160002081905550505b85600001805480613fd857613fd7616ce0565b5b600190038181906000526020600020016000905590558560010160008681526020019081526020016000206000905560019350505050614019565b60009150505b92915050565b6000808273ffffffffffffffffffffffffffffffffffffffff163b119050919050565b60007f80ac58cd000000000000000000000000000000000000000000000000000000007bffffffffffffffffffffffffffffffffffffffffffffffffffffffff1916827bffffffffffffffffffffffffffffffffffffffffffffffffffffffff1916148061410d57507f5b5e139f000000000000000000000000000000000000000000000000000000007bffffffffffffffffffffffffffffffffffffffffffffffffffffffff1916827bffffffffffffffffffffffffffffffffffffffffffffffffffffffff1916145b8061411d575061411c82614159565b5b9050919050565b614130848484846141d3565b50505050565b600080836001016000848152602001908152602001600020541415905092915050565b60007f5a05180f000000000000000000000000000000000000000000000000000000007bffffffffffffffffffffffffffffffffffffffffffffffffffffffff1916827bffffffffffffffffffffffffffffffffffffffffffffffffffffffff191614806141cc57506141cb8261422d565b5b9050919050565b6141df848484846142a7565b6141e76115fb565b15614227576040517f08c379a000000000000000000000000000000000000000000000000000000000815260040161421e90616d81565b60405180910390fd5b50505050565b60007f7965db0b000000000000000000000000000000000000000000000000000000007bffffffffffffffffffffffffffffffffffffffffffffffffffffffff1916827bffffffffffffffffffffffffffffffffffffffffffffffffffffffff191614806142a0575061429f82614405565b5b9050919050565b6142b38484848461446f565b60018111156142f7576040517f08c379a00000000000000000000000000000000000000000000000000000000081526004016142ee90616e13565b60405180910390fd5b6000829050600073ffffffffffffffffffffffffffffffffffffffff168573ffffffffffffffffffffffffffffffffffffffff160361433e5761433981614501565b61437d565b8373ffffffffffffffffffffffffffffffffffffffff168573ffffffffffffffffffffffffffffffffffffffff161461437c5761437b858261454a565b5b5b600073ffffffffffffffffffffffffffffffffffffffff168473ffffffffffffffffffffffffffffffffffffffff16036143bf576143ba816146b7565b6143fe565b8473ffffffffffffffffffffffffffffffffffffffff168473ffffffffffffffffffffffffffffffffffffffff16146143fd576143fc8482614788565b5b5b5050505050565b60007f01ffc9a7000000000000000000000000000000000000000000000000000000007bffffffffffffffffffffffffffffffffffffffffffffffffffffffff1916827bffffffffffffffffffffffffffffffffffffffffffffffffffffffff1916149050919050565b60008290505b81836144819190616be3565b8110156144ee5760086000828152602001908152602001600020600081546144a890615a8c565b919050819055817fcc2c68164f9f7f0c063ba98bcf89498c0f3f5e3acc32bf4ab46195ecb489c13b60405160405180910390a380806144e690615a8c565b915050614475565b506144fb84848484614807565b50505050565b603d80549050603e600083815260200190815260200160002081905550603d81908060018154018082558091505060019003906000526020600020016000909190919091505550565b600060016145578461171a565b6145619190616cac565b90506000603c6000848152602001908152602001600020549050818114614646576000603b60008673ffffffffffffffffffffffffffffffffffffffff1673ffffffffffffffffffffffffffffffffffffffff168152602001908152602001600020600084815260200190815260200160002054905080603b60008773ffffffffffffffffffffffffffffffffffffffff1673ffffffffffffffffffffffffffffffffffffffff16815260200190815260200160002060008481526020019081526020016000208190555081603c600083815260200190815260200160002081905550505b603c600084815260200190815260200160002060009055603b60008573ffffffffffffffffffffffffffffffffffffffff1673ffffffffffffffffffffffffffffffffffffffff16815260200190815260200160002060008381526020019081526020016000206000905550505050565b60006001603d805490506146cb9190616cac565b90506000603e60008481526020019081526020016000205490506000603d83815481106146fb576146fa615a2e565b5b9060005260206000200154905080603d838154811061471d5761471c615a2e565b5b906000526020600020018190555081603e600083815260200190815260200160002081905550603e600085815260200190815260200160002060009055603d80548061476c5761476b616ce0565b5b6001900381819060005260206000200160009055905550505050565b60006147938361171a565b905081603b60008573ffffffffffffffffffffffffffffffffffffffff1673ffffffffffffffffffffffffffffffffffffffff16815260200190815260200160002060008381526020019081526020016000208190555080603c600084815260200190815260200160002081905550505050565b50505050565b6000604051905090565b600080fd5b600080fd5b60007fffffffff0000000000000000000000000000000000000000000000000000000082169050919050565b61485681614821565b811461486157600080fd5b50565b6000813590506148738161484d565b92915050565b60006020828403121561488f5761488e614817565b5b600061489d84828501614864565b91505092915050565b60008115159050919050565b6148bb816148a6565b82525050565b60006020820190506148d660008301846148b2565b92915050565b600081519050919050565b600082825260208201905092915050565b60005b838110156149165780820151818401526020810190506148fb565b60008484015250505050565b6000601f19601f8301169050919050565b600061493e826148dc565b61494881856148e7565b93506149588185602086016148f8565b61496181614922565b840191505092915050565b600060208201905081810360008301526149868184614933565b905092915050565b6000819050919050565b6149a18161498e565b81146149ac57600080fd5b50565b6000813590506149be81614998565b92915050565b6000602082840312156149da576149d9614817565b5b60006149e8848285016149af565b91505092915050565b600073ffffffffffffffffffffffffffffffffffffffff82169050919050565b6000614a1c826149f1565b9050919050565b614a2c81614a11565b82525050565b6000602082019050614a476000830184614a23565b92915050565b614a5681614a11565b8114614a6157600080fd5b50565b600081359050614a7381614a4d565b92915050565b60008060408385031215614a9057614a8f614817565b5b6000614a9e85828601614a64565b9250506020614aaf858286016149af565b9150509250929050565b600081519050919050565b600082825260208201905092915050565b6000614ae082614ab9565b614aea8185614ac4565b9350614afa8185602086016148f8565b614b0381614922565b840191505092915050565b60006020820190508181036000830152614b288184614ad5565b905092915050565b614b398161498e565b82525050565b6000602082019050614b546000830184614b30565b92915050565b600080fd5b600080fd5b600080fd5b60008083601f840112614b7f57614b7e614b5a565b5b8235905067ffffffffffffffff811115614b9c57614b9b614b5f565b5b602083019150836001820283011115614bb857614bb7614b64565b5b9250929050565b60008060208385031215614bd657614bd5614817565b5b600083013567ffffffffffffffff811115614bf457614bf361481c565b5b614c0085828601614b69565b92509250509250929050565b600080600060608486031215614c2557614c24614817565b5b6000614c3386828701614a64565b9350506020614c4486828701614a64565b9250506040614c55868287016149af565b9150509250925092565b6000819050919050565b614c7281614c5f565b8114614c7d57600080fd5b50565b600081359050614c8f81614c69565b92915050565b600060208284031215614cab57614caa614817565b5b6000614cb984828501614c80565b91505092915050565b614ccb81614c5f565b82525050565b6000602082019050614ce66000830184614cc2565b92915050565b60008060408385031215614d0357614d02614817565b5b6000614d1185828601614c80565b9250506020614d2285828601614a64565b9150509250929050565b60008083601f840112614d4257614d41614b5a565b5b8235905067ffffffffffffffff811115614d5f57614d5e614b5f565b5b602083019150836020820283011115614d7b57614d7a614b64565b5b9250929050565b60008060208385031215614d9957614d98614817565b5b600083013567ffffffffffffffff811115614db757614db661481c565b5b614dc385828601614d2c565b92509250509250929050565b600081519050919050565b600082825260208201905092915050565b6000819050602082019050919050565b614e048161498e565b82525050565b6000614e168383614dfb565b60208301905092915050565b6000602082019050919050565b6000614e3a82614dcf565b614e448185614dda565b9350614e4f83614deb565b8060005b83811015614e80578151614e678882614e0a565b9750614e7283614e22565b925050600181019050614e53565b5085935050505092915050565b60006020820190508181036000830152614ea78184614e2f565b905092915050565b600060208284031215614ec557614ec4614817565b5b6000614ed384828501614a64565b91505092915050565b600080fd5b7f4e487b7100000000000000000000000000000000000000000000000000000000600052604160045260246000fd5b614f1982614922565b810181811067ffffffffffffffff82111715614f3857614f37614ee1565b5b80604052505050565b6000614f4b61480d565b9050614f578282614f10565b919050565b600067ffffffffffffffff821115614f7757614f76614ee1565b5b614f8082614922565b9050602081019050919050565b82818337600083830152505050565b6000614faf614faa84614f5c565b614f41565b905082815260208101848484011115614fcb57614fca614edc565b5b614fd6848285614f8d565b509392505050565b600082601f830112614ff357614ff2614b5a565b5b8135615003848260208601614f9c565b91505092915050565b60006020828403121561502257615021614817565b5b600082013567ffffffffffffffff8111156150405761503f61481c565b5b61504c84828501614fde565b91505092915050565b6008811061506257600080fd5b50565b60008135905061507481615055565b92915050565b60008060006060848603121561509357615092614817565b5b60006150a186828701614a64565b93505060206150b2868287016149af565b92505060406150c386828701615065565b9150509250925092565b600080604083850312156150e4576150e3614817565b5b60006150f285828601614c80565b9250506020615103858286016149af565b9150509250929050565b600061511882614a11565b9050919050565b6151288161510d565b811461513357600080fd5b50565b6000813590506151458161511f565b92915050565b6000806040838503121561516257615161614817565b5b600061517085828601615136565b9250506020615181858286016149af565b9150509250929050565b615194816148a6565b811461519f57600080fd5b50565b6000813590506151b18161518b565b92915050565b600080604083850312156151ce576151cd614817565b5b60006151dc85828601614a64565b92505060206151ed858286016151a2565b9150509250929050565b600067ffffffffffffffff82111561521257615211614ee1565b5b61521b82614922565b9050602081019050919050565b600061523b615236846151f7565b614f41565b90508281526020810184848401111561525757615256614edc565b5b615262848285614f8d565b509392505050565b600082601f83011261527f5761527e614b5a565b5b813561528f848260208601615228565b91505092915050565b600080600080608085870312156152b2576152b1614817565b5b60006152c087828801614a64565b94505060206152d187828801614a64565b93505060406152e2878288016149af565b925050606085013567ffffffffffffffff8111156153035761530261481c565b5b61530f8782880161526a565b91505092959194509250565b6000806040838503121561533257615331614817565b5b600061534085828601614a64565b925050602061535185828601614a64565b9150509250929050565b7f4e487b7100000000000000000000000000000000000000000000000000000000600052602260045260246000fd5b600060028204905060018216806153a257607f821691505b6020821081036153b5576153b461535b565b5b50919050565b7f496e76616c6964204d61726b6574706c61636500000000000000000000000000600082015250565b60006153f16013836148e7565b91506153fc826153bb565b602082019050919050565b60006020820190508181036000830152615420816153e4565b9050919050565b7f455243373231436f6d6d6f6e3a20717565727920666f72206e6f6e2d6578697360008201527f74656e7420746f6b656e00000000000000000000000000000000000000000000602082015250565b6000615483602a836148e7565b915061548e82615427565b604082019050919050565b600060208201905081810360008301526154b281615476565b9050919050565b60008160601b9050919050565b60006154d1826154b9565b9050919050565b60006154e3826154c6565b9050919050565b6154fb6154f682614a11565b6154d8565b82525050565b6000819050919050565b61551c6155178261498e565b615501565b82525050565b600061552e82866154ea565b60148201915061553e828561550b565b60208201915061554e828461550b565b602082019150819050949350505050565b600082905092915050565b60008190508160005260206000209050919050565b60006020601f8301049050919050565b600082821b905092915050565b6000600883026155cc7fffffffffffffffffffffffffffffffffffffffffffffffffffffffffffffffff8261558f565b6155d6868361558f565b95508019841693508086168417925050509392505050565b6000819050919050565b600061561361560e6156098461498e565b6155ee565b61498e565b9050919050565b6000819050919050565b61562d836155f8565b6156416156398261561a565b84845461559c565b825550505050565b600090565b615656615649565b615661818484615624565b505050565b5b818110156156855761567a60008261564e565b600181019050615667565b5050565b601f8211156156ca5761569b8161556a565b6156a48461557f565b810160208510156156b3578190505b6156c76156bf8561557f565b830182615666565b50505b505050565b600082821c905092915050565b60006156ed600019846008026156cf565b1980831691505092915050565b600061570683836156dc565b9150826002028217905092915050565b615720838361555f565b67ffffffffffffffff81111561573957615738614ee1565b5b615743825461538a565b61574e828285615689565b6000601f83116001811461577d576000841561576b578287013590505b61577585826156fa565b8655506157dd565b601f19841661578b8661556a565b60005b828110156157b35784890135825560018201915060208501945060208101905061578e565b868310156157d057848901356157cc601f8916826156dc565b8355505b6001600288020188555050505b50505050505050565b7f4552433732313a2063616c6c6572206973206e6f7420746f6b656e206f776e6560008201527f72206f7220617070726f76656400000000000000000000000000000000000000602082015250565b6000615842602d836148e7565b915061584d826157e6565b604082019050919050565b6000602082019050818103600083015261587181615835565b9050919050565b7f455243373231456e756d657261626c653a206f776e657220696e646578206f7560008201527f74206f6620626f756e6473000000000000000000000000000000000000000000602082015250565b60006158d4602b836148e7565b91506158df82615878565b604082019050919050565b60006020820190508181036000830152615903816158c7565b9050919050565b7f416363657373436f6e74726f6c3a2063616e206f6e6c792072656e6f756e636560008201527f20726f6c657320666f722073656c660000000000000000000000000000000000602082015250565b6000615966602f836148e7565b91506159718261590a565b604082019050919050565b6000602082019050818103600083015261599581615959565b9050919050565b7f455243373231436f6d6d6f6e3a20696e76616c6964206172726179206c656e6760008201527f7468730000000000000000000000000000000000000000000000000000000000602082015250565b60006159f86023836148e7565b9150615a038261599c565b604082019050919050565b60006020820190508181036000830152615a27816159eb565b9050919050565b7f4e487b7100000000000000000000000000000000000000000000000000000000600052603260045260246000fd5b7f4e487b7100000000000000000000000000000000000000000000000000000000600052601160045260246000fd5b6000615a978261498e565b91507fffffffffffffffffffffffffffffffffffffffffffffffffffffffffffffffff8203615ac957615ac8615a5d565b5b600182019050919050565b7f4552433732315072657365744d696e7465725061757365724175746f49643a2060008201527f6d75737420686176652070617573657220726f6c6520746f20756e7061757365602082015250565b6000615b306040836148e7565b9150615b3b82615ad4565b604082019050919050565b60006020820190508181036000830152615b5f81615b23565b9050919050565b600081519050615b758161518b565b92915050565b600060208284031215615b9157615b90614817565b5b6000615b9f84828501615b66565b91505092915050565b600081519050615bb781614998565b92915050565b600060208284031215615bd357615bd2614817565b5b6000615be184828501615ba8565b91505092915050565b6000604082019050615bff6000830185614a23565b615c0c6020830184614b30565b9392505050565b7f455243373231456e756d657261626c653a20676c6f62616c20696e646578206f60008201527f7574206f6620626f756e64730000000000000000000000000000000000000000602082015250565b6000615c6f602c836148e7565b9150615c7a82615c13565b604082019050919050565b60006020820190508181036000830152615c9e81615c62565b9050919050565b615cae826148dc565b67ffffffffffffffff811115615cc757615cc6614ee1565b5b615cd1825461538a565b615cdc828285615689565b600060209050601f831160018114615d0f5760008415615cfd578287015190505b615d0785826156fa565b865550615d6f565b601f198416615d1d8661556a565b60005b82811015615d4557848901518255600182019150602085019450602081019050615d20565b86831015615d625784890151615d5e601f8916826156dc565b8355505b6001600288020188555050505b505050505050565b7f4552433732313a20696e76616c696420746f6b656e2049440000000000000000600082015250565b6000615dad6018836148e7565b9150615db882615d77565b602082019050919050565b60006020820190508181036000830152615ddc81615da0565b9050919050565b7f4552433732315072657365744d696e7465725061757365724175746f49643a2060008201527f6d7573742068617665206d696e74657220726f6c6520746f206d696e74000000602082015250565b6000615e3f603d836148e7565b9150615e4a82615de3565b604082019050919050565b60006020820190508181036000830152615e6e81615e32565b9050919050565b7f4552433732313a2061646472657373207a65726f206973206e6f74206120766160008201527f6c6964206f776e65720000000000000000000000000000000000000000000000602082015250565b6000615ed16029836148e7565b9150615edc82615e75565b604082019050919050565b60006020820190508181036000830152615f0081615ec4565b9050919050565b7f4552433732315072657365744d696e7465725061757365724175746f49643a2060008201527f6d75737420686176652070617573657220726f6c6520746f2070617573650000602082015250565b6000615f63603e836148e7565b9150615f6e82615f07565b604082019050919050565b60006020820190508181036000830152615f9281615f56565b9050919050565b600081905092915050565b50565b6000615fb4600083615f99565b9150615fbf82615fa4565b600082019050919050565b6000615fd582615fa7565b9150819050919050565b7f776974686472617720776173206e6f742073756363657366756c6c0000000000600082015250565b6000616015601b836148e7565b915061602082615fdf565b602082019050919050565b6000602082019050818103600083015261604481616008565b9050919050565b7f4d696e74696e6720697320706175736564000000000000000000000000000000600082015250565b60006160816011836148e7565b915061608c8261604b565b602082019050919050565b600060208201905081810360008301526160b081616074565b9050919050565b7f4e6f742061206d696e7465720000000000000000000000000000000000000000600082015250565b60006160ed600c836148e7565b91506160f8826160b7565b602082019050919050565b6000602082019050818103600083015261611c816160e0565b9050919050565b7f4e487b7100000000000000000000000000000000000000000000000000000000600052602160045260246000fd5b6008811061616357616162616123565b5b50565b600081905061617482616152565b919050565b600061618482616166565b9050919050565b61619481616179565b82525050565b60006060820190506161af6000830186614a23565b6161bc6020830185614b30565b6161c9604083018461618b565b949350505050565b7f4552433732314d657461646174613a2055524920717565727920666f72206e6f60008201527f6e6578697374656e7420746f6b656e0000000000000000000000000000000000602082015250565b600061622d602f836148e7565b9150616238826161d1565b604082019050919050565b6000602082019050818103600083015261625c81616220565b9050919050565b600081905092915050565b6000815461627b8161538a565b6162858186616263565b945060018216600081146162a057600181146162b5576162e8565b60ff19831686528115158202860193506162e8565b6162be8561556a565b60005b838110156162e0578154818901526001820191506020810190506162c1565b838801955050505b50505092915050565b60006162fc826148dc565b6163068185616263565b93506163168185602086016148f8565b80840191505092915050565b600061632e828561626e565b915061633a82846162f1565b91508190509392505050565b7f4f776e61626c653a206e6577206f776e657220697320746865207a65726f206160008201527f6464726573730000000000000000000000000000000000000000000000000000602082015250565b60006163a26026836148e7565b91506163ad82616346565b604082019050919050565b600060208201905081810360008301526163d181616395565b9050919050565b7f496e76616c6964206d696e746572206164647265737300000000000000000000600082015250565b600061640e6016836148e7565b9150616419826163d8565b602082019050919050565b6000602082019050818103600083015261643d81616401565b9050919050565b7f4552433732313a20617070726f76616c20746f2063757272656e74206f776e6560008201527f7200000000000000000000000000000000000000000000000000000000000000602082015250565b60006164a06021836148e7565b91506164ab82616444565b604082019050919050565b600060208201905081810360008301526164cf81616493565b9050919050565b7f4552433732313a20617070726f76652063616c6c6572206973206e6f7420746f60008201527f6b656e206f776e6572206f7220617070726f76656420666f7220616c6c000000602082015250565b6000616532603d836148e7565b915061653d826164d6565b604082019050919050565b6000602082019050818103600083015261656181616525565b9050919050565b7f4f776e61626c653a2063616c6c6572206973206e6f7420746865206f776e6572600082015250565b600061659e6020836148e7565b91506165a982616568565b602082019050919050565b600060208201905081810360008301526165cd81616591565b9050919050565b7f4552433732313a207472616e736665722066726f6d20696e636f72726563742060008201527f6f776e6572000000000000000000000000000000000000000000000000000000602082015250565b60006166306025836148e7565b915061663b826165d4565b604082019050919050565b6000602082019050818103600083015261665f81616623565b9050919050565b7f4552433732313a207472616e7366657220746f20746865207a65726f2061646460008201527f7265737300000000000000000000000000000000000000000000000000000000602082015250565b60006166c26024836148e7565b91506166cd82616666565b604082019050919050565b600060208201905081810360008301526166f1816166b5565b9050919050565b7f5265656e7472616e637947756172643a207265656e7472616e742063616c6c00600082015250565b600061672e601f836148e7565b9150616739826166f8565b602082019050919050565b6000602082019050818103600083015261675d81616721565b9050919050565b7f4552433732313a207472616e7366657220746f206e6f6e20455243373231526560008201527f63656976657220696d706c656d656e7465720000000000000000000000000000602082015250565b60006167c06032836148e7565b91506167cb82616764565b604082019050919050565b600060208201905081810360008301526167ef816167b3565b9050919050565b7f4e487b7100000000000000000000000000000000000000000000000000000000600052601260045260246000fd5b7f416363657373436f6e74726f6c3a206163636f756e7420000000000000000000600082015250565b600061685b601783616263565b915061686682616825565b601782019050919050565b7f206973206d697373696e6720726f6c6520000000000000000000000000000000600082015250565b60006168a7601183616263565b91506168b282616871565b601182019050919050565b60006168c88261684e565b91506168d482856162f1565b91506168df8261689a565b91506168eb82846162f1565b91508190509392505050565b7f4552433732313a206d696e7420746f20746865207a65726f2061646472657373600082015250565b600061692d6020836148e7565b9150616938826168f7565b602082019050919050565b6000602082019050818103600083015261695c81616920565b9050919050565b7f4552433732313a20746f6b656e20616c7265616479206d696e74656400000000600082015250565b6000616999601c836148e7565b91506169a482616963565b602082019050919050565b600060208201905081810360008301526169c88161698c565b9050919050565b7f5061757361626c653a206e6f7420706175736564000000000000000000000000600082015250565b6000616a056014836148e7565b9150616a10826169cf565b602082019050919050565b60006020820190508181036000830152616a34816169f8565b9050919050565b7f5061757361626c653a2070617573656400000000000000000000000000000000600082015250565b6000616a716010836148e7565b9150616a7c82616a3b565b602082019050919050565b60006020820190508181036000830152616aa081616a64565b9050919050565b7f4552433732313a20617070726f766520746f2063616c6c657200000000000000600082015250565b6000616add6019836148e7565b9150616ae882616aa7565b602082019050919050565b60006020820190508181036000830152616b0c81616ad0565b9050919050565b6000608082019050616b286000830187614a23565b616b356020830186614a23565b616b426040830185614b30565b8181036060830152616b548184614ad5565b905095945050505050565b600081519050616b6e8161484d565b92915050565b600060208284031215616b8a57616b89614817565b5b6000616b9884828501616b5f565b91505092915050565b6000616bac8261498e565b9150616bb78361498e565b9250828202616bc58161498e565b91508282048414831517616bdc57616bdb615a5d565b5b5092915050565b6000616bee8261498e565b9150616bf98361498e565b9250828201905080821115616c1157616c10615a5d565b5b92915050565b6000616c228261498e565b915060008203616c3557616c34615a5d565b5b600182039050919050565b7f537472696e67733a20686578206c656e67746820696e73756666696369656e74600082015250565b6000616c766020836148e7565b9150616c8182616c40565b602082019050919050565b60006020820190508181036000830152616ca581616c69565b9050919050565b6000616cb78261498e565b9150616cc28361498e565b9250828203905081811115616cda57616cd9615a5d565b5b92915050565b7f4e487b7100000000000000000000000000000000000000000000000000000000600052603160045260246000fd5b7f4552433732315061757361626c653a20746f6b656e207472616e73666572207760008201527f68696c6520706175736564000000000000000000000000000000000000000000602082015250565b6000616d6b602b836148e7565b9150616d7682616d0f565b604082019050919050565b60006020820190508181036000830152616d9a81616d5e565b9050919050565b7f455243373231456e756d657261626c653a20636f6e736563757469766520747260008201527f616e7366657273206e6f7420737570706f727465640000000000000000000000602082015250565b6000616dfd6035836148e7565b9150616e0882616da1565b604082019050919050565b60006020820190508181036000830152616e2c81616df0565b905091905056fea2646970667358221220ba88af7e35b6d3e7f27900f4f431c8a98e7a89a52e2b28923cf1041bafb1018b64736f6c63430008130033",
  "linkReferences": {},
  "deployedLinkReferences": {}
}