{
  "_format": "hh-sol-artifact-1",
  "contractName": "WatchersRingMinter",
  "sourceName": "contracts/WatchersRingMinter.sol",
  "abi": [
    {
      "inputs": [
        {
          "internalType": "contract IWatchersRing",
          "name": "_watchersRing",
          "type": "address"
        }
      ],
      "stateMutability": "nonpayable",
      "type": "constructor"
    },
    {
      "inputs": [],
      "name": "Address0Error",
      "type": "error"
    },
    {
      "inputs": [],
      "name": "ClaimWithoutPurchase",
      "type": "error"
    },
    {
      "inputs": [],
      "name": "DeniedProcessDuringMinting",
      "type": "error"
    },
    {
      "inputs": [
        {
          "internalType": "uint256",
          "name": "sended_values",
          "type": "uint256"
        },
        {
          "internalType": "uint256",
          "name": "expected",
          "type": "uint256"
        }
      ],
      "name": "GivenValuesNotValid",
      "type": "error"
    },
    {
      "inputs": [],
      "name": "IncorrectPurchaseLimit",
      "type": "error"
    },
    {
      "inputs": [],
      "name": "MisconfiguredPrices",
      "type": "error"
    },
    {
      "inputs": [
        {
          "internalType": "uint256",
          "name": "correct_date",
          "type": "uint256"
        },
        {
          "internalType": "uint256",
          "name": "current_date",
          "type": "uint256"
        }
      ],
      "name": "WrongDateForProcess",
      "type": "error"
    },
    {
      "anonymous": false,
      "inputs": [
        {
          "indexed": true,
          "internalType": "address",
          "name": "previousOwner",
          "type": "address"
        },
        {
          "indexed": true,
          "internalType": "address",
          "name": "newOwner",
          "type": "address"
        }
      ],
      "name": "OwnershipTransferred",
      "type": "event"
    },
    {
      "inputs": [
        {
          "internalType": "address",
          "name": "_address",
          "type": "address"
        }
      ],
      "name": "addressAlreadyMinted",
      "outputs": [
        {
          "internalType": "bool",
          "name": "",
          "type": "bool"
        }
      ],
      "stateMutability": "view",
      "type": "function"
    },
    {
      "inputs": [],
      "name": "claimlistMerkleRoot",
      "outputs": [
        {
          "internalType": "bytes32",
          "name": "",
          "type": "bytes32"
        }
      ],
      "stateMutability": "view",
      "type": "function"
    },
    {
      "inputs": [
        {
          "internalType": "uint256",
          "name": "numRings",
          "type": "uint256"
        },
        {
          "internalType": "uint256",
          "name": "claimedMaxRings",
          "type": "uint256"
        },
        {
          "internalType": "bytes32[]",
          "name": "_merkleProof",
          "type": "bytes32[]"
        }
      ],
      "name": "claimlistMint",
      "outputs": [],
      "stateMutability": "payable",
      "type": "function"
    },
    {
      "inputs": [
        {
          "internalType": "address",
          "name": "",
          "type": "address"
        }
      ],
      "name": "claimlistMinted",
      "outputs": [
        {
          "internalType": "uint256",
          "name": "",
          "type": "uint256"
        }
      ],
      "stateMutability": "view",
      "type": "function"
    },
    {
      "inputs": [],
      "name": "claimsStartTime",
      "outputs": [
        {
          "internalType": "uint256",
          "name": "",
          "type": "uint256"
        }
      ],
      "stateMutability": "view",
      "type": "function"
    },
    {
      "inputs": [],
      "name": "claimsStarted",
      "outputs": [
        {
          "internalType": "bool",
          "name": "",
          "type": "bool"
        }
      ],
      "stateMutability": "view",
      "type": "function"
    },
    {
      "inputs": [
        {
          "internalType": "contract IERC20",
          "name": "_token",
          "type": "address"
        },
        {
          "internalType": "uint256",
          "name": "_amount",
          "type": "uint256"
        }
      ],
      "name": "forwardERC20s",
      "outputs": [],
      "stateMutability": "nonpayable",
      "type": "function"
    },
    {
      "inputs": [],
      "name": "getAddressesWhoMinted",
      "outputs": [
        {
          "internalType": "address[]",
          "name": "",
          "type": "address[]"
        }
      ],
      "stateMutability": "view",
      "type": "function"
    },
    {
      "inputs": [],
      "name": "getAvailableRings",
      "outputs": [
        {
          "internalType": "uint256",
          "name": "",
          "type": "uint256"
        }
      ],
      "stateMutability": "view",
      "type": "function"
    },
    {
      "inputs": [],
      "name": "getInitialRings",
      "outputs": [
        {
          "internalType": "uint256",
          "name": "",
          "type": "uint256"
        }
      ],
      "stateMutability": "view",
      "type": "function"
    },
    {
      "inputs": [],
      "name": "getProbabilities",
      "outputs": [
        {
          "internalType": "uint256[]",
          "name": "",
          "type": "uint256[]"
        }
      ],
      "stateMutability": "view",
      "type": "function"
    },
    {
      "inputs": [],
      "name": "getRingPrice",
      "outputs": [
        {
          "internalType": "uint256",
          "name": "",
          "type": "uint256"
        }
      ],
      "stateMutability": "view",
      "type": "function"
    },
    {
      "inputs": [
        {
          "internalType": "uint256",
          "name": "tokenId",
          "type": "uint256"
        }
      ],
      "name": "getTokenIdRingType",
      "outputs": [
        {
          "internalType": "uint256",
          "name": "",
          "type": "uint256"
        }
      ],
      "stateMutability": "pure",
      "type": "function"
    },
    {
      "inputs": [],
      "name": "getTotalMintedRings",
      "outputs": [
        {
          "internalType": "uint256",
          "name": "",
          "type": "uint256"
        }
      ],
      "stateMutability": "view",
      "type": "function"
    },
    {
      "inputs": [],
      "name": "getTotalMintedRingsByType",
      "outputs": [
        {
          "internalType": "uint256[]",
          "name": "",
          "type": "uint256[]"
        }
      ],
      "stateMutability": "view",
      "type": "function"
    },
    {
      "inputs": [
        {
          "internalType": "uint256",
          "name": "numRings",
          "type": "uint256"
        }
      ],
      "name": "mint",
      "outputs": [],
      "stateMutability": "payable",
      "type": "function"
    },
    {
      "inputs": [],
      "name": "mintlistMerkleRoot1",
      "outputs": [
        {
          "internalType": "bytes32",
          "name": "",
          "type": "bytes32"
        }
      ],
      "stateMutability": "view",
      "type": "function"
    },
    {
      "inputs": [],
      "name": "mintlistMerkleRoot2",
      "outputs": [
        {
          "internalType": "bytes32",
          "name": "",
          "type": "bytes32"
        }
      ],
      "stateMutability": "view",
      "type": "function"
    },
    {
      "inputs": [
        {
          "internalType": "uint256",
          "name": "numRings",
          "type": "uint256"
        },
        {
          "internalType": "uint256",
          "name": "claimedMaxRings",
          "type": "uint256"
        },
        {
          "internalType": "bytes32[]",
          "name": "_merkleProof",
          "type": "bytes32[]"
        }
      ],
      "name": "mintlistMint",
      "outputs": [],
      "stateMutability": "payable",
      "type": "function"
    },
    {
      "inputs": [
        {
          "internalType": "address",
          "name": "",
          "type": "address"
        }
      ],
      "name": "mintlistMinted",
      "outputs": [
        {
          "internalType": "uint256",
          "name": "",
          "type": "uint256"
        }
      ],
      "stateMutability": "view",
      "type": "function"
    },
    {
      "inputs": [],
      "name": "mintlistStartTime",
      "outputs": [
        {
          "internalType": "uint256",
          "name": "",
          "type": "uint256"
        }
      ],
      "stateMutability": "view",
      "type": "function"
    },
    {
      "inputs": [],
      "name": "mintlistStarted",
      "outputs": [
        {
          "internalType": "bool",
          "name": "",
          "type": "bool"
        }
      ],
      "stateMutability": "view",
      "type": "function"
    },
    {
      "inputs": [],
      "name": "owner",
      "outputs": [
        {
          "internalType": "address",
          "name": "",
          "type": "address"
        }
      ],
      "stateMutability": "view",
      "type": "function"
    },
    {
      "inputs": [
        {
          "internalType": "enum IWatchersRing.WatchersRingType[]",
          "name": "ringTypes",
          "type": "uint8[]"
        },
        {
          "internalType": "address[]",
          "name": "recipients",
          "type": "address[]"
        }
      ],
      "name": "ownerMint",
      "outputs": [],
      "stateMutability": "nonpayable",
      "type": "function"
    },
    {
      "inputs": [],
      "name": "publicMintStartTime",
      "outputs": [
        {
          "internalType": "uint256",
          "name": "",
          "type": "uint256"
        }
      ],
      "stateMutability": "view",
      "type": "function"
    },
    {
      "inputs": [],
      "name": "publicStarted",
      "outputs": [
        {
          "internalType": "bool",
          "name": "",
          "type": "bool"
        }
      ],
      "stateMutability": "view",
      "type": "function"
    },
    {
      "inputs": [],
      "name": "renounceOwnership",
      "outputs": [],
      "stateMutability": "nonpayable",
      "type": "function"
    },
    {
      "inputs": [],
      "name": "ringGlobalOffset",
      "outputs": [
        {
          "internalType": "uint256",
          "name": "",
          "type": "uint256"
        }
      ],
      "stateMutability": "view",
      "type": "function"
    },
    {
      "inputs": [],
      "name": "ringPrice",
      "outputs": [
        {
          "internalType": "uint256",
          "name": "",
          "type": "uint256"
        }
      ],
      "stateMutability": "view",
      "type": "function"
    },
    {
      "inputs": [
        {
          "internalType": "uint256",
          "name": "",
          "type": "uint256"
        }
      ],
      "name": "ringTypeLocalOffset",
      "outputs": [
        {
          "internalType": "uint256",
          "name": "",
          "type": "uint256"
        }
      ],
      "stateMutability": "view",
      "type": "function"
    },
    {
      "inputs": [
        {
          "internalType": "uint256",
          "name": "",
          "type": "uint256"
        }
      ],
      "name": "ringsMinted",
      "outputs": [
        {
          "internalType": "uint256",
          "name": "",
          "type": "uint256"
        }
      ],
      "stateMutability": "view",
      "type": "function"
    },
    {
      "inputs": [
        {
          "internalType": "bytes32",
          "name": "newMerkleRoot",
          "type": "bytes32"
        }
      ],
      "name": "setClaimlistMerkleRoot",
      "outputs": [],
      "stateMutability": "nonpayable",
      "type": "function"
    },
    {
      "inputs": [
        {
          "internalType": "uint256",
          "name": "_newClaimsStartTime",
          "type": "uint256"
        }
      ],
      "name": "setClaimsStartTime",
      "outputs": [],
      "stateMutability": "nonpayable",
      "type": "function"
    },
    {
      "inputs": [
        {
          "internalType": "uint256",
          "name": "_newGlobalIdOffset",
          "type": "uint256"
        }
      ],
      "name": "setGlobalIdOffset",
      "outputs": [],
      "stateMutability": "nonpayable",
      "type": "function"
    },
    {
      "inputs": [
        {
          "internalType": "uint256[]",
          "name": "_newRingTypeLocalOffset",
          "type": "uint256[]"
        }
      ],
      "name": "setLocalIdOffsets",
      "outputs": [],
      "stateMutability": "nonpayable",
      "type": "function"
    },
    {
      "inputs": [
        {
          "internalType": "bytes32",
          "name": "newMerkleRoot",
          "type": "bytes32"
        }
      ],
      "name": "setMintlistMerkleRoot1",
      "outputs": [],
      "stateMutability": "nonpayable",
      "type": "function"
    },
    {
      "inputs": [
        {
          "internalType": "bytes32",
          "name": "newMerkleRoot",
          "type": "bytes32"
        }
      ],
      "name": "setMintlistMerkleRoot2",
      "outputs": [],
      "stateMutability": "nonpayable",
      "type": "function"
    },
    {
      "inputs": [
        {
          "internalType": "uint256",
          "name": "_newAllowlistMintStartTime",
          "type": "uint256"
        }
      ],
      "name": "setMintlistStartTime",
      "outputs": [],
      "stateMutability": "nonpayable",
      "type": "function"
    },
    {
      "inputs": [
        {
          "internalType": "uint256",
          "name": "_newPrice",
          "type": "uint256"
        }
      ],
      "name": "setPrice",
      "outputs": [],
      "stateMutability": "nonpayable",
      "type": "function"
    },
    {
      "inputs": [
        {
          "internalType": "uint256[]",
          "name": "_newProbabilities",
          "type": "uint256[]"
        }
      ],
      "name": "setProbabilities",
      "outputs": [],
      "stateMutability": "nonpayable",
      "type": "function"
    },
    {
      "inputs": [
        {
          "internalType": "uint256",
          "name": "_newPublicMintStartTime",
          "type": "uint256"
        }
      ],
      "name": "setPublicMintStartTime",
      "outputs": [],
      "stateMutability": "nonpayable",
      "type": "function"
    },
    {
      "inputs": [
        {
          "internalType": "uint256",
          "name": "_newRingsAvailable",
          "type": "uint256"
        }
      ],
      "name": "setRingsAvailable",
      "outputs": [],
      "stateMutability": "nonpayable",
      "type": "function"
    },
    {
      "inputs": [
        {
          "internalType": "address payable",
          "name": "_newVaultAddress",
          "type": "address"
        }
      ],
      "name": "setVaultAddress",
      "outputs": [],
      "stateMutability": "nonpayable",
      "type": "function"
    },
    {
      "inputs": [
        {
          "internalType": "contract IWatchersRing",
          "name": "_newWatchersRingAddress",
          "type": "address"
        }
      ],
      "name": "setWatchersRing",
      "outputs": [],
      "stateMutability": "nonpayable",
      "type": "function"
    },
    {
      "inputs": [
        {
          "internalType": "address",
          "name": "newOwner",
          "type": "address"
        }
      ],
      "name": "transferOwnership",
      "outputs": [],
      "stateMutability": "nonpayable",
      "type": "function"
    },
    {
      "inputs": [],
      "name": "vault",
      "outputs": [
        {
          "internalType": "address payable",
          "name": "",
          "type": "address"
        }
      ],
      "stateMutability": "view",
      "type": "function"
    },
    {
      "inputs": [],
      "name": "watchersRing",
      "outputs": [
        {
          "internalType": "contract IWatchersRing",
          "name": "",
          "type": "address"
        }
      ],
      "stateMutability": "view",
      "type": "function"
    },
    {
      "inputs": [
        {
          "internalType": "uint256",
          "name": "_amount",
          "type": "uint256"
        }
      ],
      "name": "withdraw",
      "outputs": [],
      "stateMutability": "nonpayable",
      "type": "function"
    },
    {
      "inputs": [],
      "name": "withdrawAll",
      "outputs": [],
      "stateMutability": "nonpayable",
      "type": "function"
    }
  ],
  "bytecode": "0x60806040526102bc6004556000600555604051806101000160405280600e60ff168152602001600e60ff168152602001600e60ff168152602001600e60ff168152602001600e60ff168152602001600e60ff168152602001600e60ff168152602001600260ff1681525060069060086200007b9291906200042f565b50604051806101000160405280600160ff168152602001600160ff168152602001600160ff168152602001600160ff168152602001600160ff168152602001600160ff168152602001600160ff168152602001600160ff168152506007906008620000e89291906200042f565b5060016008557fffffffffffffffffffffffffffffffffffffffffffffffffffffffffffffffff6009557fffffffffffffffffffffffffffffffffffffffffffffffffffffffffffffffff600a557fffffffffffffffffffffffffffffffffffffffffffffffffffffffffffffffff600b557fffffffffffffffffffffffffffffffffffffffffffffffffffffffffffffffff600c553480156200018b57600080fd5b506040516200468c3803806200468c8339818101604052810190620001b1919062000523565b620001d1620001c56200020160201b60201c565b6200020960201b60201c565b60018081905550620001e981620002cd60201b60201c565b620001fa336200032160201b60201c565b50620005d8565b600033905090565b60008060009054906101000a900473ffffffffffffffffffffffffffffffffffffffff169050816000806101000a81548173ffffffffffffffffffffffffffffffffffffffff021916908373ffffffffffffffffffffffffffffffffffffffff1602179055508173ffffffffffffffffffffffffffffffffffffffff168173ffffffffffffffffffffffffffffffffffffffff167f8be0079c531659141344cd1fd0a4f28419497f9722a3daafe3b4186f6b6457e060405160405180910390a35050565b620002dd6200037560201b60201c565b80600260006101000a81548173ffffffffffffffffffffffffffffffffffffffff021916908373ffffffffffffffffffffffffffffffffffffffff16021790555050565b620003316200037560201b60201c565b80600360006101000a81548173ffffffffffffffffffffffffffffffffffffffff021916908373ffffffffffffffffffffffffffffffffffffffff16021790555050565b620003856200020160201b60201c565b73ffffffffffffffffffffffffffffffffffffffff16620003ab6200040660201b60201c565b73ffffffffffffffffffffffffffffffffffffffff161462000404576040517f08c379a0000000000000000000000000000000000000000000000000000000008152600401620003fb90620005b6565b60405180910390fd5b565b60008060009054906101000a900473ffffffffffffffffffffffffffffffffffffffff16905090565b82805482825590600052602060002090810192821562000473579160200282015b8281111562000472578251829060ff1690559160200191906001019062000450565b5b50905062000482919062000486565b5090565b5b80821115620004a157600081600090555060010162000487565b5090565b600080fd5b600073ffffffffffffffffffffffffffffffffffffffff82169050919050565b6000620004d782620004aa565b9050919050565b6000620004eb82620004ca565b9050919050565b620004fd81620004de565b81146200050957600080fd5b50565b6000815190506200051d81620004f2565b92915050565b6000602082840312156200053c576200053b620004a5565b5b60006200054c848285016200050c565b91505092915050565b600082825260208201905092915050565b7f4f776e61626c653a2063616c6c6572206973206e6f7420746865206f776e6572600082015250565b60006200059e60208362000555565b9150620005ab8262000566565b602082019050919050565b60006020820190508181036000830152620005d1816200058f565b9050919050565b6140a480620005e86000396000f3fe6080604052600436106102ae5760003560e01c80638d56a17b11610175578063ca6c261d116100dc578063dc37dc6411610095578063f0c821de1161006f578063f0c821de14610a39578063f2fde38b14610a64578063f4cde4c014610a8d578063fbfa77cf14610ab8576102ae565b8063dc37dc64146109a8578063df477ead146109d1578063e49618c1146109fc576102ae565b8063ca6c261d146108a9578063cc644fd2146108e6578063cef582831461090f578063d012468f14610938578063d3cf00a314610954578063d6117b3e1461097f576102ae565b80639f0664b51161012e5780639f0664b5146107bc578063a0712d68146107e5578063a0e52f8914610801578063a637f9731461082c578063b9a43f2e14610855578063c2774dac14610880576102ae565b80638d56a17b146106ac5780638da5cb5b146106d757806391b7f5ed1461070257806393cb41471461072b57806396c9f88b146107565780639727151a14610793576102ae565b806346bf289f116102195780636138f236116101d25780636138f236146105c45780636e1a1a6014610601578063715018a61461062a578063853828b61461064157806385535cc5146106585780638c6d8ef614610681576102ae565b806346bf289f146104d35780634907fc0c146104fe5780634c3db84d146105295780634ed1eb24146105455780635242a493146105705780635fcd80a61461059b576102ae565b8063260c08861161026b578063260c0886146103c55780632701b325146103ee5780632ce82a711461042b5780632e1a7d4d146104565780633e97414f1461047f578063411d13f7146104aa576102ae565b8063062f7b8c146102b3578063158ae298146102de5780631af3ba811461031b5780631c7f4a0214610346578063205ed382146103715780632560e3761461039a575b600080fd5b3480156102bf57600080fd5b506102c8610ae3565b6040516102d59190612c4d565b60405180910390f35b3480156102ea57600080fd5b5061030560048036038101906103009190612ca5565b610b3b565b6040516103129190612ce1565b60405180910390f35b34801561032757600080fd5b50610330610b53565b60405161033d9190612ce1565b60405180910390f35b34801561035257600080fd5b5061035b610b59565b6040516103689190612d15565b60405180910390f35b34801561037d57600080fd5b5061039860048036038101906103939190612ca5565b610b5f565b005b3480156103a657600080fd5b506103af610bb0565b6040516103bc9190612d15565b60405180910390f35b3480156103d157600080fd5b506103ec60048036038101906103e79190612ca5565b610bb6565b005b3480156103fa57600080fd5b5061041560048036038101906104109190612ca5565b610bc8565b6040516104229190612ce1565b60405180910390f35b34801561043757600080fd5b50610440610bd5565b60405161044d9190612c4d565b60405180910390f35b34801561046257600080fd5b5061047d60048036038101906104789190612ca5565b610dd3565b005b34801561048b57600080fd5b50610494610ead565b6040516104a19190612d4b565b60405180910390f35b3480156104b657600080fd5b506104d160048036038101906104cc9190612d92565b610eba565b005b3480156104df57600080fd5b506104e8610ecc565b6040516104f59190612ce1565b60405180910390f35b34801561050a57600080fd5b50610513610fc5565b6040516105209190612eaf565b60405180910390f35b610543600480360381019061053e9190612f36565b61105b565b005b34801561055157600080fd5b5061055a61126c565b6040516105679190612d15565b60405180910390f35b34801561057c57600080fd5b50610585611272565b6040516105929190612ce1565b60405180910390f35b3480156105a757600080fd5b506105c260048036038101906105bd9190612ca5565b611278565b005b3480156105d057600080fd5b506105eb60048036038101906105e69190612fd6565b61128a565b6040516105f89190612ce1565b60405180910390f35b34801561060d57600080fd5b5061062860048036038101906106239190612ca5565b6112a2565b005b34801561063657600080fd5b5061063f6112b4565b005b34801561064d57600080fd5b506106566112c8565b005b34801561066457600080fd5b5061067f600480360381019061067a9190613041565b6113a1565b005b34801561068d57600080fd5b506106966113ed565b6040516106a39190612d4b565b60405180910390f35b3480156106b857600080fd5b506106c16113fa565b6040516106ce9190612ce1565b60405180910390f35b3480156106e357600080fd5b506106ec611400565b6040516106f9919061307d565b60405180910390f35b34801561070e57600080fd5b5061072960048036038101906107249190612ca5565b611429565b005b34801561073757600080fd5b5061074061147a565b60405161074d9190612d4b565b60405180910390f35b34801561076257600080fd5b5061077d60048036038101906107789190612ca5565b611487565b60405161078a9190612ce1565b60405180910390f35b34801561079f57600080fd5b506107ba60048036038101906107b591906130d6565b6114ab565b005b3480156107c857600080fd5b506107e360048036038101906107de91906131c2565b61159c565b005b6107ff60048036038101906107fa9190612ca5565b6118f7565b005b34801561080d57600080fd5b50610816611913565b6040516108239190612ce1565b60405180910390f35b34801561083857600080fd5b50610853600480360381019061084e9190612ca5565b61191d565b005b34801561086157600080fd5b5061086a61196e565b6040516108779190612ce1565b60405180910390f35b34801561088c57600080fd5b506108a760048036038101906108a29190612d92565b611a77565b005b3480156108b557600080fd5b506108d060048036038101906108cb9190612fd6565b611a89565b6040516108dd9190612d4b565b60405180910390f35b3480156108f257600080fd5b5061090d60048036038101906109089190613299565b611b37565b005b34801561091b57600080fd5b5061093660048036038101906109319190612d92565b611be2565b005b610952600480360381019061094d9190612f36565b611bf4565b005b34801561096057600080fd5b50610969611ea1565b6040516109769190612ce1565b60405180910390f35b34801561098b57600080fd5b506109a660048036038101906109a19190613299565b611ea7565b005b3480156109b457600080fd5b506109cf60048036038101906109ca9190613324565b611fe5565b005b3480156109dd57600080fd5b506109e6612031565b6040516109f39190612ce1565b60405180910390f35b348015610a0857600080fd5b50610a236004803603810190610a1e9190612fd6565b61203b565b604051610a309190612ce1565b60405180910390f35b348015610a4557600080fd5b50610a4e612053565b604051610a5b91906133b0565b60405180910390f35b348015610a7057600080fd5b50610a8b6004803603810190610a869190612fd6565b612079565b005b348015610a9957600080fd5b50610aa26120fc565b604051610aaf9190612ce1565b60405180910390f35b348015610ac457600080fd5b50610acd612102565b604051610ada91906133da565b60405180910390f35b60606006805480602002602001604051908101604052809291908181526020018280548015610b3157602002820191906000526020600020905b815481526020019060010190808311610b1d575b5050505050905090565b60106020528060005260406000206000915090505481565b60095481565b600e5481565b610b67612128565b610b6f61147a565b15610ba6576040517ff2a84b6300000000000000000000000000000000000000000000000000000000815260040160405180910390fd5b8060048190555050565b600f5481565b610bbe612128565b80600c8190555050565b600060ff82169050919050565b60606000600867ffffffffffffffff811115610bf457610bf36133f5565b5b604051908082528060200260200182016040528015610c225781602001602082028036833780820191505090505b509050601060008081526020019081526020016000205481600081518110610c4d57610c4c613424565b5b60200260200101818152505060106000600181526020019081526020016000205481600181518110610c8257610c81613424565b5b60200260200101818152505060106000600281526020019081526020016000205481600281518110610cb757610cb6613424565b5b60200260200101818152505060106000600381526020019081526020016000205481600381518110610cec57610ceb613424565b5b60200260200101818152505060106000600481526020019081526020016000205481600481518110610d2157610d20613424565b5b60200260200101818152505060106000600581526020019081526020016000205481600581518110610d5657610d55613424565b5b60200260200101818152505060106000600681526020019081526020016000205481600681518110610d8b57610d8a613424565b5b60200260200101818152505060106000600781526020019081526020016000205481600781518110610dc057610dbf613424565b5b6020026020010181815250508091505090565b610ddb612128565b6000600360009054906101000a900473ffffffffffffffffffffffffffffffffffffffff1673ffffffffffffffffffffffffffffffffffffffff1682604051610e2390613484565b60006040518083038185875af1925050503d8060008114610e60576040519150601f19603f3d011682016040523d82523d6000602084013e610e65565b606091505b5050905080610ea9576040517f08c379a0000000000000000000000000000000000000000000000000000000008152600401610ea0906134f6565b60405180910390fd5b5050565b6000600c54421015905090565b610ec2612128565b80600f8190555050565b6000806010600060078152602001908152602001600020546010600060068152602001908152602001600020546010600060058152602001908152602001600020546010600060048152602001908152602001600020546010600060038152602001908152602001600020546010600060028152602001908152602001600020546010600060018152602001908152602001600020546010600080815260200190815260200160002054610f809190613545565b610f8a9190613545565b610f949190613545565b610f9e9190613545565b610fa89190613545565b610fb29190613545565b610fbc9190613545565b90508091505090565b6060610fcf612128565b601380548060200260200160405190810160405280929190818152602001828054801561105157602002820191906000526020600020905b8160009054906101000a900473ffffffffffffffffffffffffffffffffffffffff1673ffffffffffffffffffffffffffffffffffffffff1681526020019060010190808311611007575b5050505050905090565b6110636121a6565b61106b610ead565b6110b057600c54426040517f66803fc10000000000000000000000000000000000000000000000000000000081526004016110a7929190613579565b60405180910390fd5b600033846040516020016110c5929190613662565b60405160208183030381529060405280519060200120905061112b838380806020026020016040519081016040528093929190818152602001838360200280828437600081840152601f19601f82011690508083019250505050505050600f54836121f5565b61116a576040517f08c379a0000000000000000000000000000000000000000000000000000000008152600401611161906136e5565b60405180910390fd5b6000601260003373ffffffffffffffffffffffffffffffffffffffff1673ffffffffffffffffffffffffffffffffffffffff1681526020019081526020016000205490508486826111bb9190613545565b11156111fc576040517f08c379a00000000000000000000000000000000000000000000000000000000081526004016111f390613751565b60405180910390fd5b85601260003373ffffffffffffffffffffffffffffffffffffffff1673ffffffffffffffffffffffffffffffffffffffff168152602001908152602001600020600082825461124b9190613545565b9250508190555061125c863361220c565b5050611266612565565b50505050565b600d5481565b60085481565b611280612128565b80600a8190555050565b60126020528060005260406000206000915090505481565b6112aa612128565b80600b8190555050565b6112bc612128565b6112c6600061256e565b565b6112d0612128565b6000600360009054906101000a900473ffffffffffffffffffffffffffffffffffffffff1673ffffffffffffffffffffffffffffffffffffffff164760405161131890613484565b60006040518083038185875af1925050503d8060008114611355576040519150601f19603f3d011682016040523d82523d6000602084013e61135a565b606091505b505090508061139e576040517f08c379a0000000000000000000000000000000000000000000000000000000008152600401611395906137bd565b60405180910390fd5b50565b6113a9612128565b80600360006101000a81548173ffffffffffffffffffffffffffffffffffffffff021916908373ffffffffffffffffffffffffffffffffffffffff16021790555050565b6000600a54421015905090565b600c5481565b60008060009054906101000a900473ffffffffffffffffffffffffffffffffffffffff16905090565b611431612128565b61143961147a565b15611470576040517ff2a84b6300000000000000000000000000000000000000000000000000000000815260040160405180910390fd5b8060098190555050565b6000600b54421015905090565b6007818154811061149757600080fd5b906000526020600020016000915090505481565b6114b3612128565b600073ffffffffffffffffffffffffffffffffffffffff163373ffffffffffffffffffffffffffffffffffffffff1603611519576040517f48ac165200000000000000000000000000000000000000000000000000000000815260040160405180910390fd5b8173ffffffffffffffffffffffffffffffffffffffff1663a9059cbb33836040518363ffffffff1660e01b81526004016115549291906137dd565b6020604051808303816000875af1158015611573573d6000803e3d6000fd5b505050506040513d601f19601f820116820180604052508101906115979190613832565b505050565b6115a4612128565b8181905084849050146115ec576040517f08c379a00000000000000000000000000000000000000000000000000000000081526004016115e3906138d1565b60405180910390fd5b60005b828290508110156118f057600015153073ffffffffffffffffffffffffffffffffffffffff1663ca6c261d85858581811061162d5761162c613424565b5b90506020020160208101906116429190612fd6565b6040518263ffffffff1660e01b815260040161165e919061307d565b602060405180830381865afa15801561167b573d6000803e3d6000fd5b505050506040513d601f19601f8201168201806040525081019061169f9190613832565b1515146116e1576040517f08c379a00000000000000000000000000000000000000000000000000000000081526004016116d89061393d565b60405180910390fd5b60006117138686848181106116f9576116f8613424565b5b905060200201602081019061170e9190613982565b612632565b90506010600087878581811061172c5761172b613424565b5b90506020020160208101906117419190613982565b6007811115611753576117526139af565b5b81526020019081526020016000206000815461176e906139de565b91905081905550600260009054906101000a900473ffffffffffffffffffffffffffffffffffffffff1673ffffffffffffffffffffffffffffffffffffffff166386ebf0108585858181106117c6576117c5613424565b5b90506020020160208101906117db9190612fd6565b838989878181106117ef576117ee613424565b5b90506020020160208101906118049190613982565b6040518463ffffffff1660e01b815260040161182293929190613a6e565b600060405180830381600087803b15801561183c57600080fd5b505af1158015611850573d6000803e3d6000fd5b50505050601384848481811061186957611868613424565b5b905060200201602081019061187e9190612fd6565b9080600181540180825580915050600190039060005260206000200160009091909190916101000a81548173ffffffffffffffffffffffffffffffffffffffff021916908373ffffffffffffffffffffffffffffffffffffffff16021790555050806118e9906139de565b90506115ef565b5050505050565b6118ff6121a6565b6119088161286d565b611910612565565b50565b6000600954905090565b611925612128565b61192d61147a565b15611964576040517ff2a84b6300000000000000000000000000000000000000000000000000000000815260040160405180910390fd5b8060088190555050565b60008060045490506010600060078152602001908152602001600020546010600060068152602001908152602001600020546010600060058152602001908152602001600020546010600060048152602001908152602001600020546010600060038152602001908152602001600020546010600060028152602001908152602001600020546010600060018152602001908152602001600020546010600080815260200190815260200160002054611a279190613545565b611a319190613545565b611a3b9190613545565b611a459190613545565b611a4f9190613545565b611a599190613545565b611a639190613545565b81611a6e9190613aa5565b90508091505090565b611a7f612128565b80600e8190555050565b6000806000905060005b601380549050811015611b2d5760138181548110611ab457611ab3613424565b5b9060005260206000200160009054906101000a900473ffffffffffffffffffffffffffffffffffffffff1673ffffffffffffffffffffffffffffffffffffffff168473ffffffffffffffffffffffffffffffffffffffff1603611b1a5760019150611b2d565b8080611b25906139de565b915050611a93565b5080915050919050565b611b3f612128565b60088282905014611b8d578181905060086040517f485d33a2000000000000000000000000000000000000000000000000000000008152600401611b84929190613b14565b60405180910390fd5b611b9561147a565b15611bcc576040517ff2a84b6300000000000000000000000000000000000000000000000000000000815260040160405180910390fd5b818160079190611bdd929190612b1b565b505050565b611bea612128565b80600d8190555050565b611bfc6121a6565b611c0461147a565b611c4957600b54426040517f66803fc1000000000000000000000000000000000000000000000000000000008152600401611c40929190613579565b60405180910390fd5b600084111580611c595750601484115b15611c90576040517fca02d6eb00000000000000000000000000000000000000000000000000000000815260040160405180910390fd5b60003384604051602001611ca5929190613662565b604051602081830303815290604052805190602001209050611d0b838380806020026020016040519081016040528093929190818152602001838360200280828437600081840152601f19601f82011690508083019250505050505050600d54836121f5565b80611d605750611d5f838380806020026020016040519081016040528093929190818152602001838360200280828437600081840152601f19601f82011690508083019250505050505050600e54836121f5565b5b611d9f576040517f08c379a0000000000000000000000000000000000000000000000000000000008152600401611d96906136e5565b60405180910390fd5b6000601160003373ffffffffffffffffffffffffffffffffffffffff1673ffffffffffffffffffffffffffffffffffffffff168152602001908152602001600020549050848682611df09190613545565b1115611e31576040517f08c379a0000000000000000000000000000000000000000000000000000000008152600401611e2890613b89565b60405180910390fd5b85601160003373ffffffffffffffffffffffffffffffffffffffff1673ffffffffffffffffffffffffffffffffffffffff1681526020019081526020016000206000828254611e809190613545565b92505081905550611e91863361290e565b5050611e9b612565565b50505050565b600a5481565b611eaf612128565b6000805b83839050811015611ef857838382818110611ed157611ed0613424565b5b9050602002013582611ee39190613545565b91508080611ef0906139de565b915050611eb3565b5060648114611f41578060646040517f485d33a2000000000000000000000000000000000000000000000000000000008152600401611f38929190613be4565b60405180910390fd5b60088383905014611f8f578282905060086040517f485d33a2000000000000000000000000000000000000000000000000000000008152600401611f86929190613b14565b60405180910390fd5b611f9761147a565b15611fce576040517ff2a84b6300000000000000000000000000000000000000000000000000000000815260040160405180910390fd5b828260069190611fdf929190612b1b565b50505050565b611fed612128565b80600260006101000a81548173ffffffffffffffffffffffffffffffffffffffff021916908373ffffffffffffffffffffffffffffffffffffffff16021790555050565b6000600454905090565b60116020528060005260406000206000915090505481565b600260009054906101000a900473ffffffffffffffffffffffffffffffffffffffff1681565b612081612128565b600073ffffffffffffffffffffffffffffffffffffffff168173ffffffffffffffffffffffffffffffffffffffff16036120f0576040517f08c379a00000000000000000000000000000000000000000000000000000000081526004016120e790613c7f565b60405180910390fd5b6120f98161256e565b50565b600b5481565b600360009054906101000a900473ffffffffffffffffffffffffffffffffffffffff1681565b6121306129a7565b73ffffffffffffffffffffffffffffffffffffffff1661214e611400565b73ffffffffffffffffffffffffffffffffffffffff16146121a4576040517f08c379a000000000000000000000000000000000000000000000000000000000815260040161219b90613ceb565b60405180910390fd5b565b6002600154036121eb576040517f08c379a00000000000000000000000000000000000000000000000000000000081526004016121e290613d57565b60405180910390fd5b6002600181905550565b60008261220285846129af565b1490509392505050565b3073ffffffffffffffffffffffffffffffffffffffff1663b9a43f2e6040518163ffffffff1660e01b8152600401602060405180830381865afa158015612257573d6000803e3d6000fd5b505050506040513d601f19601f8201168201806040525081019061227b9190613d8c565b823073ffffffffffffffffffffffffffffffffffffffff166346bf289f6040518163ffffffff1660e01b8152600401602060405180830381865afa1580156122c7573d6000803e3d6000fd5b505050506040513d601f19601f820116820180604052508101906122eb9190613d8c565b6122f59190613545565b1115612336576040517f08c379a000000000000000000000000000000000000000000000000000000000815260040161232d90613e05565b60405180910390fd5b60005b8281101561256057600015153073ffffffffffffffffffffffffffffffffffffffff1663ca6c261d846040518263ffffffff1660e01b815260040161237e919061307d565b602060405180830381865afa15801561239b573d6000803e3d6000fd5b505050506040513d601f19601f820116820180604052508101906123bf9190613832565b151514612401576040517f08c379a00000000000000000000000000000000000000000000000000000000081526004016123f89061393d565b60405180910390fd5b600061240b612a05565b90506000816007811115612422576124216139af565b5b9050600061242f82612632565b90506010600084815260200190815260200160002060008154612451906139de565b91905081905550600260009054906101000a900473ffffffffffffffffffffffffffffffffffffffff1673ffffffffffffffffffffffffffffffffffffffff166386ebf0108683856040518463ffffffff1660e01b81526004016124b793929190613a6e565b600060405180830381600087803b1580156124d157600080fd5b505af11580156124e5573d6000803e3d6000fd5b505050506013859080600181540180825580915050600190039060005260206000200160009091909190916101000a81548173ffffffffffffffffffffffffffffffffffffffff021916908373ffffffffffffffffffffffffffffffffffffffff16021790555050505080612559906139de565b9050612339565b505050565b60018081905550565b60008060009054906101000a900473ffffffffffffffffffffffffffffffffffffffff169050816000806101000a81548173ffffffffffffffffffffffffffffffffffffffff021916908373ffffffffffffffffffffffffffffffffffffffff1602179055508173ffffffffffffffffffffffffffffffffffffffff168173ffffffffffffffffffffffffffffffffffffffff167f8be0079c531659141344cd1fd0a4f28419497f9722a3daafe3b4186f6b6457e060405160405180910390a35050565b60008060085460106000600781526020019081526020016000205460106000600681526020019081526020016000205460106000600581526020019081526020016000205460106000600481526020019081526020016000205460106000600381526020019081526020016000205460106000600281526020019081526020016000205460106000600181526020019081526020016000205460106000808152602001908152602001600020546126e99190613545565b6126f39190613545565b6126fd9190613545565b6127079190613545565b6127119190613545565b61271b9190613545565b6127259190613545565b61272f9190613545565b905060006007846007811115612748576127476139af565b5b8154811061275957612758613424565b5b90600052602060002001546010600086600781111561277b5761277a6139af565b5b8152602001908152602001600020546127949190613545565b905063ffffffff8111156127dd576040517f08c379a00000000000000000000000000000000000000000000000000000000081526004016127d490613e71565b60405180910390fd5b60ff8460078111156127f2576127f16139af565b5b1115612833576040517f08c379a000000000000000000000000000000000000000000000000000000000815260040161282a90613edd565b60405180910390fd5b836007811115612846576128456139af565b5b600882901b602884901b61285a9190613545565b6128649190613545565b92505050919050565b6128756113ed565b6128ba57600a54426040517f66803fc10000000000000000000000000000000000000000000000000000000081526004016128b1929190613579565b60405180910390fd5b6000811115806128ca5750601481115b15612901576040517fca02d6eb00000000000000000000000000000000000000000000000000000000815260040160405180910390fd5b61290b813361290e565b50565b60006009541161294a576040517fc5fadba600000000000000000000000000000000000000000000000000000000815260040160405180910390fd5b816009546129589190613efd565b3414612999576040517f08c379a000000000000000000000000000000000000000000000000000000000815260040161299090613fb1565b60405180910390fd5b6129a3828261220c565b5050565b600033905090565b60008082905060005b84518110156129fa576129e5828683815181106129d8576129d7613424565b5b6020026020010151612ad9565b915080806129f2906139de565b9150506129b8565b508091505092915050565b6000806000905060056000815480929190612a1f906139de565b91905055506000600160644233600554604051602001612a4193929190613fd1565b6040516020818303038152906040528051906020012060001c612a64919061403d565b612a6e9190613545565b90506000805b600680549050811015612acf5760068181548110612a9557612a94613424565b5b906000526020600020015482612aab9190613545565b9150818311612abc57809350612acf565b8080612ac7906139de565b915050612a74565b5082935050505090565b6000818310612af157612aec8284612b04565b612afc565b612afb8383612b04565b5b905092915050565b600082600052816020526040600020905092915050565b828054828255906000526020600020908101928215612b57579160200282015b82811115612b56578235825591602001919060010190612b3b565b5b509050612b649190612b68565b5090565b5b80821115612b81576000816000905550600101612b69565b5090565b600081519050919050565b600082825260208201905092915050565b6000819050602082019050919050565b6000819050919050565b612bc481612bb1565b82525050565b6000612bd68383612bbb565b60208301905092915050565b6000602082019050919050565b6000612bfa82612b85565b612c048185612b90565b9350612c0f83612ba1565b8060005b83811015612c40578151612c278882612bca565b9750612c3283612be2565b925050600181019050612c13565b5085935050505092915050565b60006020820190508181036000830152612c678184612bef565b905092915050565b600080fd5b600080fd5b612c8281612bb1565b8114612c8d57600080fd5b50565b600081359050612c9f81612c79565b92915050565b600060208284031215612cbb57612cba612c6f565b5b6000612cc984828501612c90565b91505092915050565b612cdb81612bb1565b82525050565b6000602082019050612cf66000830184612cd2565b92915050565b6000819050919050565b612d0f81612cfc565b82525050565b6000602082019050612d2a6000830184612d06565b92915050565b60008115159050919050565b612d4581612d30565b82525050565b6000602082019050612d606000830184612d3c565b92915050565b612d6f81612cfc565b8114612d7a57600080fd5b50565b600081359050612d8c81612d66565b92915050565b600060208284031215612da857612da7612c6f565b5b6000612db684828501612d7d565b91505092915050565b600081519050919050565b600082825260208201905092915050565b6000819050602082019050919050565b600073ffffffffffffffffffffffffffffffffffffffff82169050919050565b6000612e1682612deb565b9050919050565b612e2681612e0b565b82525050565b6000612e388383612e1d565b60208301905092915050565b6000602082019050919050565b6000612e5c82612dbf565b612e668185612dca565b9350612e7183612ddb565b8060005b83811015612ea2578151612e898882612e2c565b9750612e9483612e44565b925050600181019050612e75565b5085935050505092915050565b60006020820190508181036000830152612ec98184612e51565b905092915050565b600080fd5b600080fd5b600080fd5b60008083601f840112612ef657612ef5612ed1565b5b8235905067ffffffffffffffff811115612f1357612f12612ed6565b5b602083019150836020820283011115612f2f57612f2e612edb565b5b9250929050565b60008060008060608587031215612f5057612f4f612c6f565b5b6000612f5e87828801612c90565b9450506020612f6f87828801612c90565b935050604085013567ffffffffffffffff811115612f9057612f8f612c74565b5b612f9c87828801612ee0565b925092505092959194509250565b612fb381612e0b565b8114612fbe57600080fd5b50565b600081359050612fd081612faa565b92915050565b600060208284031215612fec57612feb612c6f565b5b6000612ffa84828501612fc1565b91505092915050565b600061300e82612deb565b9050919050565b61301e81613003565b811461302957600080fd5b50565b60008135905061303b81613015565b92915050565b60006020828403121561305757613056612c6f565b5b60006130658482850161302c565b91505092915050565b61307781612e0b565b82525050565b6000602082019050613092600083018461306e565b92915050565b60006130a382612e0b565b9050919050565b6130b381613098565b81146130be57600080fd5b50565b6000813590506130d0816130aa565b92915050565b600080604083850312156130ed576130ec612c6f565b5b60006130fb858286016130c1565b925050602061310c85828601612c90565b9150509250929050565b60008083601f84011261312c5761312b612ed1565b5b8235905067ffffffffffffffff81111561314957613148612ed6565b5b60208301915083602082028301111561316557613164612edb565b5b9250929050565b60008083601f84011261318257613181612ed1565b5b8235905067ffffffffffffffff81111561319f5761319e612ed6565b5b6020830191508360208202830111156131bb576131ba612edb565b5b9250929050565b600080600080604085870312156131dc576131db612c6f565b5b600085013567ffffffffffffffff8111156131fa576131f9612c74565b5b61320687828801613116565b9450945050602085013567ffffffffffffffff81111561322957613228612c74565b5b6132358782880161316c565b925092505092959194509250565b60008083601f84011261325957613258612ed1565b5b8235905067ffffffffffffffff81111561327657613275612ed6565b5b60208301915083602082028301111561329257613291612edb565b5b9250929050565b600080602083850312156132b0576132af612c6f565b5b600083013567ffffffffffffffff8111156132ce576132cd612c74565b5b6132da85828601613243565b92509250509250929050565b60006132f182612e0b565b9050919050565b613301816132e6565b811461330c57600080fd5b50565b60008135905061331e816132f8565b92915050565b60006020828403121561333a57613339612c6f565b5b60006133488482850161330f565b91505092915050565b6000819050919050565b600061337661337161336c84612deb565b613351565b612deb565b9050919050565b60006133888261335b565b9050919050565b600061339a8261337d565b9050919050565b6133aa8161338f565b82525050565b60006020820190506133c560008301846133a1565b92915050565b6133d481613003565b82525050565b60006020820190506133ef60008301846133cb565b92915050565b7f4e487b7100000000000000000000000000000000000000000000000000000000600052604160045260246000fd5b7f4e487b7100000000000000000000000000000000000000000000000000000000600052603260045260246000fd5b600081905092915050565b50565b600061346e600083613453565b91506134798261345e565b600082019050919050565b600061348f82613461565b9150819050919050565b600082825260208201905092915050565b7f776974686472617720776173206e6f742073756363657366756c6c0000000000600082015250565b60006134e0601b83613499565b91506134eb826134aa565b602082019050919050565b6000602082019050818103600083015261350f816134d3565b9050919050565b7f4e487b7100000000000000000000000000000000000000000000000000000000600052601160045260246000fd5b600061355082612bb1565b915061355b83612bb1565b925082820190508082111561357357613572613516565b5b92915050565b600060408201905061358e6000830185612cd2565b61359b6020830184612cd2565b9392505050565b60008160601b9050919050565b60006135ba826135a2565b9050919050565b60006135cc826135af565b9050919050565b6135e46135df82612e0b565b6135c1565b82525050565b600081905092915050565b7f3a00000000000000000000000000000000000000000000000000000000000000600082015250565b600061362b6001836135ea565b9150613636826135f5565b600182019050919050565b6000819050919050565b61365c61365782612bb1565b613641565b82525050565b600061366e82856135d3565b60148201915061367d8261361e565b9150613689828461364b565b6020820191508190509392505050565b7f496e76616c69642070726f6f662e000000000000000000000000000000000000600082015250565b60006136cf600e83613499565b91506136da82613699565b602082019050919050565b600060208201905081810360008301526136fe816136c2565b9050919050565b7f436c61696d696e67206d6f7265207468616e20616c6c6f7765642e0000000000600082015250565b600061373b601b83613499565b915061374682613705565b602082019050919050565b6000602082019050818103600083015261376a8161372e565b9050919050565b7f776974686472617720616c6c20776173206e6f742073756363657366756c6c00600082015250565b60006137a7601f83613499565b91506137b282613771565b602082019050919050565b600060208201905081810360008301526137d68161379a565b9050919050565b60006040820190506137f2600083018561306e565b6137ff6020830184612cd2565b9392505050565b61380f81612d30565b811461381a57600080fd5b50565b60008151905061382c81613806565b92915050565b60006020828403121561384857613847612c6f565b5b60006138568482850161381d565b91505092915050565b7f4172726179732073686f756c642068617665207468652073616d652073697a6560008201527f2e00000000000000000000000000000000000000000000000000000000000000602082015250565b60006138bb602183613499565b91506138c68261385f565b604082019050919050565b600060208201905081810360008301526138ea816138ae565b9050919050565b7f4164647265737320616c72656479206d696e74656420612072696e672e000000600082015250565b6000613927601d83613499565b9150613932826138f1565b602082019050919050565b600060208201905081810360008301526139568161391a565b9050919050565b6008811061396a57600080fd5b50565b60008135905061397c8161395d565b92915050565b60006020828403121561399857613997612c6f565b5b60006139a68482850161396d565b91505092915050565b7f4e487b7100000000000000000000000000000000000000000000000000000000600052602160045260246000fd5b60006139e982612bb1565b91507fffffffffffffffffffffffffffffffffffffffffffffffffffffffffffffffff8203613a1b57613a1a613516565b5b600182019050919050565b60088110613a3757613a366139af565b5b50565b6000819050613a4882613a26565b919050565b6000613a5882613a3a565b9050919050565b613a6881613a4d565b82525050565b6000606082019050613a83600083018661306e565b613a906020830185612cd2565b613a9d6040830184613a5f565b949350505050565b6000613ab082612bb1565b9150613abb83612bb1565b9250828203905081811115613ad357613ad2613516565b5b92915050565b6000819050919050565b6000613afe613af9613af484613ad9565b613351565b612bb1565b9050919050565b613b0e81613ae3565b82525050565b6000604082019050613b296000830185612cd2565b613b366020830184613b05565b9392505050565b7f4d696e74696e67206d6f7265207468616e20616c6c6f7765642e000000000000600082015250565b6000613b73601a83613499565b9150613b7e82613b3d565b602082019050919050565b60006020820190508181036000830152613ba281613b66565b9050919050565b6000819050919050565b6000613bce613bc9613bc484613ba9565b613351565b612bb1565b9050919050565b613bde81613bb3565b82525050565b6000604082019050613bf96000830185612cd2565b613c066020830184613bd5565b9392505050565b7f4f776e61626c653a206e6577206f776e657220697320746865207a65726f206160008201527f6464726573730000000000000000000000000000000000000000000000000000602082015250565b6000613c69602683613499565b9150613c7482613c0d565b604082019050919050565b60006020820190508181036000830152613c9881613c5c565b9050919050565b7f4f776e61626c653a2063616c6c6572206973206e6f7420746865206f776e6572600082015250565b6000613cd5602083613499565b9150613ce082613c9f565b602082019050919050565b60006020820190508181036000830152613d0481613cc8565b9050919050565b7f5265656e7472616e637947756172643a207265656e7472616e742063616c6c00600082015250565b6000613d41601f83613499565b9150613d4c82613d0b565b602082019050919050565b60006020820190508181036000830152613d7081613d34565b9050919050565b600081519050613d8681612c79565b92915050565b600060208284031215613da257613da1612c6f565b5b6000613db084828501613d77565b91505092915050565b7f547279696e6720746f206d696e7420746f6f206d616e792072696e67732e0000600082015250565b6000613def601e83613499565b9150613dfa82613db9565b602082019050919050565b60006020820190508181036000830152613e1e81613de2565b9050919050565b7f4c6f63616c20696e646578206f766572666c6f772e0000000000000000000000600082015250565b6000613e5b601583613499565b9150613e6682613e25565b602082019050919050565b60006020820190508181036000830152613e8a81613e4e565b9050919050565b7f52696e6720696e646578206f766572666c6f772e000000000000000000000000600082015250565b6000613ec7601483613499565b9150613ed282613e91565b602082019050919050565b60006020820190508181036000830152613ef681613eba565b9050919050565b6000613f0882612bb1565b9150613f1383612bb1565b9250828202613f2181612bb1565b91508282048414831517613f3857613f37613516565b5b5092915050565b7f45746865722076616c75652073656e74206973206e6f7420616363757261746560008201527f2e00000000000000000000000000000000000000000000000000000000000000602082015250565b6000613f9b602183613499565b9150613fa682613f3f565b604082019050919050565b60006020820190508181036000830152613fca81613f8e565b9050919050565b6000613fdd828661364b565b602082019150613fed82856135d3565b601482019150613ffd828461364b565b602082019150819050949350505050565b7f4e487b7100000000000000000000000000000000000000000000000000000000600052601260045260246000fd5b600061404882612bb1565b915061405383612bb1565b9250826140635761406261400e565b5b82820690509291505056fea264697066735822122053798716e4d1c7b4e4150cffb1ee12d6e3a265256ae1e1e6b8f29ac0e0638ccc64736f6c63430008120033",
  "linkReferences": {},
  "deployedLinkReferences": {}
}