{
  "_format": "hh-sol-artifact-1",
  "contractName": "WatchersRingMinter",
  "sourceName": "contracts/WatchersRingMinter.sol",
  "abi": [
    {
      "inputs": [
        {
          "internalType": "contract IWatchersRing",
          "name": "_watchersRing",
          "type": "address"
        }
      ],
      "stateMutability": "nonpayable",
      "type": "constructor"
    },
    {
      "inputs": [],
      "name": "Address0Error",
      "type": "error"
    },
    {
      "inputs": [],
      "name": "ClaimWithoutPurchase",
      "type": "error"
    },
    {
      "inputs": [],
      "name": "DeniedProcessDuringMinting",
      "type": "error"
    },
    {
      "inputs": [
        {
          "internalType": "uint256",
          "name": "sended_values",
          "type": "uint256"
        },
        {
          "internalType": "uint256",
          "name": "expected",
          "type": "uint256"
        }
      ],
      "name": "GivenValuesNotValid",
      "type": "error"
    },
    {
      "inputs": [],
      "name": "IncorrectPurchaseLimit",
      "type": "error"
    },
    {
      "inputs": [],
      "name": "MisconfiguredPrices",
      "type": "error"
    },
    {
      "inputs": [
        {
          "internalType": "uint256",
          "name": "correct_date",
          "type": "uint256"
        },
        {
          "internalType": "uint256",
          "name": "current_date",
          "type": "uint256"
        }
      ],
      "name": "WrongDateForProcess",
      "type": "error"
    },
    {
      "anonymous": false,
      "inputs": [
        {
          "indexed": true,
          "internalType": "address",
          "name": "previousOwner",
          "type": "address"
        },
        {
          "indexed": true,
          "internalType": "address",
          "name": "newOwner",
          "type": "address"
        }
      ],
      "name": "OwnershipTransferred",
      "type": "event"
    },
    {
      "inputs": [],
      "name": "claimlistMerkleRoot",
      "outputs": [
        {
          "internalType": "bytes32",
          "name": "",
          "type": "bytes32"
        }
      ],
      "stateMutability": "view",
      "type": "function"
    },
    {
      "inputs": [
        {
          "internalType": "uint256",
          "name": "numRings",
          "type": "uint256"
        },
        {
          "internalType": "uint256",
          "name": "claimedMaxRings",
          "type": "uint256"
        },
        {
          "internalType": "bytes32[]",
          "name": "_merkleProof",
          "type": "bytes32[]"
        }
      ],
      "name": "claimlistMint",
      "outputs": [],
      "stateMutability": "payable",
      "type": "function"
    },
    {
      "inputs": [
        {
          "internalType": "address",
          "name": "",
          "type": "address"
        }
      ],
      "name": "claimlistMinted",
      "outputs": [
        {
          "internalType": "uint256",
          "name": "",
          "type": "uint256"
        }
      ],
      "stateMutability": "view",
      "type": "function"
    },
    {
      "inputs": [],
      "name": "claimsStartTime",
      "outputs": [
        {
          "internalType": "uint256",
          "name": "",
          "type": "uint256"
        }
      ],
      "stateMutability": "view",
      "type": "function"
    },
    {
      "inputs": [],
      "name": "claimsStarted",
      "outputs": [
        {
          "internalType": "bool",
          "name": "",
          "type": "bool"
        }
      ],
      "stateMutability": "view",
      "type": "function"
    },
    {
      "inputs": [
        {
          "internalType": "contract IERC20",
          "name": "_token",
          "type": "address"
        },
        {
          "internalType": "uint256",
          "name": "_amount",
          "type": "uint256"
        }
      ],
      "name": "forwardERC20s",
      "outputs": [],
      "stateMutability": "nonpayable",
      "type": "function"
    },
    {
      "inputs": [],
      "name": "getAvailableRings",
      "outputs": [
        {
          "internalType": "uint256",
          "name": "",
          "type": "uint256"
        }
      ],
      "stateMutability": "view",
      "type": "function"
    },
    {
      "inputs": [],
      "name": "getInitialRings",
      "outputs": [
        {
          "internalType": "uint256",
          "name": "",
          "type": "uint256"
        }
      ],
      "stateMutability": "view",
      "type": "function"
    },
    {
      "inputs": [],
      "name": "getProbabilities",
      "outputs": [
        {
          "internalType": "uint256[]",
          "name": "",
          "type": "uint256[]"
        }
      ],
      "stateMutability": "view",
      "type": "function"
    },
    {
      "inputs": [],
      "name": "getRingPrice",
      "outputs": [
        {
          "internalType": "uint256",
          "name": "",
          "type": "uint256"
        }
      ],
      "stateMutability": "view",
      "type": "function"
    },
    {
      "inputs": [
        {
          "internalType": "uint256",
          "name": "tokenId",
          "type": "uint256"
        }
      ],
      "name": "getTokenIdRingType",
      "outputs": [
        {
          "internalType": "uint256",
          "name": "",
          "type": "uint256"
        }
      ],
      "stateMutability": "pure",
      "type": "function"
    },
    {
      "inputs": [],
      "name": "getTotalMintedRings",
      "outputs": [
        {
          "internalType": "uint256",
          "name": "",
          "type": "uint256"
        }
      ],
      "stateMutability": "view",
      "type": "function"
    },
    {
      "inputs": [],
      "name": "getTotalMintedRingsByType",
      "outputs": [
        {
          "internalType": "uint256[]",
          "name": "",
          "type": "uint256[]"
        }
      ],
      "stateMutability": "view",
      "type": "function"
    },
    {
      "inputs": [
        {
          "internalType": "uint256",
          "name": "numRings",
          "type": "uint256"
        }
      ],
      "name": "mint",
      "outputs": [],
      "stateMutability": "payable",
      "type": "function"
    },
    {
      "inputs": [],
      "name": "mintlistMerkleRoot1",
      "outputs": [
        {
          "internalType": "bytes32",
          "name": "",
          "type": "bytes32"
        }
      ],
      "stateMutability": "view",
      "type": "function"
    },
    {
      "inputs": [],
      "name": "mintlistMerkleRoot2",
      "outputs": [
        {
          "internalType": "bytes32",
          "name": "",
          "type": "bytes32"
        }
      ],
      "stateMutability": "view",
      "type": "function"
    },
    {
      "inputs": [
        {
          "internalType": "uint256",
          "name": "numRings",
          "type": "uint256"
        },
        {
          "internalType": "uint256",
          "name": "claimedMaxRings",
          "type": "uint256"
        },
        {
          "internalType": "bytes32[]",
          "name": "_merkleProof",
          "type": "bytes32[]"
        }
      ],
      "name": "mintlistMint",
      "outputs": [],
      "stateMutability": "payable",
      "type": "function"
    },
    {
      "inputs": [
        {
          "internalType": "address",
          "name": "",
          "type": "address"
        }
      ],
      "name": "mintlistMinted",
      "outputs": [
        {
          "internalType": "uint256",
          "name": "",
          "type": "uint256"
        }
      ],
      "stateMutability": "view",
      "type": "function"
    },
    {
      "inputs": [],
      "name": "mintlistStartTime",
      "outputs": [
        {
          "internalType": "uint256",
          "name": "",
          "type": "uint256"
        }
      ],
      "stateMutability": "view",
      "type": "function"
    },
    {
      "inputs": [],
      "name": "mintlistStarted",
      "outputs": [
        {
          "internalType": "bool",
          "name": "",
          "type": "bool"
        }
      ],
      "stateMutability": "view",
      "type": "function"
    },
    {
      "inputs": [],
      "name": "owner",
      "outputs": [
        {
          "internalType": "address",
          "name": "",
          "type": "address"
        }
      ],
      "stateMutability": "view",
      "type": "function"
    },
    {
      "inputs": [
        {
          "internalType": "enum IWatchersRing.WatchersRingType[]",
          "name": "ringTypes",
          "type": "uint8[]"
        },
        {
          "internalType": "address[]",
          "name": "recipients",
          "type": "address[]"
        }
      ],
      "name": "ownerMint",
      "outputs": [],
      "stateMutability": "nonpayable",
      "type": "function"
    },
    {
      "inputs": [],
      "name": "publicMintStartTime",
      "outputs": [
        {
          "internalType": "uint256",
          "name": "",
          "type": "uint256"
        }
      ],
      "stateMutability": "view",
      "type": "function"
    },
    {
      "inputs": [],
      "name": "publicStarted",
      "outputs": [
        {
          "internalType": "bool",
          "name": "",
          "type": "bool"
        }
      ],
      "stateMutability": "view",
      "type": "function"
    },
    {
      "inputs": [],
      "name": "renounceOwnership",
      "outputs": [],
      "stateMutability": "nonpayable",
      "type": "function"
    },
    {
      "inputs": [],
      "name": "ringGlobalOffset",
      "outputs": [
        {
          "internalType": "uint256",
          "name": "",
          "type": "uint256"
        }
      ],
      "stateMutability": "view",
      "type": "function"
    },
    {
      "inputs": [],
      "name": "ringPrice",
      "outputs": [
        {
          "internalType": "uint256",
          "name": "",
          "type": "uint256"
        }
      ],
      "stateMutability": "view",
      "type": "function"
    },
    {
      "inputs": [
        {
          "internalType": "uint256",
          "name": "",
          "type": "uint256"
        }
      ],
      "name": "ringTypeLocalOffset",
      "outputs": [
        {
          "internalType": "uint256",
          "name": "",
          "type": "uint256"
        }
      ],
      "stateMutability": "view",
      "type": "function"
    },
    {
      "inputs": [
        {
          "internalType": "uint256",
          "name": "",
          "type": "uint256"
        }
      ],
      "name": "ringsMinted",
      "outputs": [
        {
          "internalType": "uint256",
          "name": "",
          "type": "uint256"
        }
      ],
      "stateMutability": "view",
      "type": "function"
    },
    {
      "inputs": [
        {
          "internalType": "bytes32",
          "name": "newMerkleRoot",
          "type": "bytes32"
        }
      ],
      "name": "setClaimlistMerkleRoot",
      "outputs": [],
      "stateMutability": "nonpayable",
      "type": "function"
    },
    {
      "inputs": [
        {
          "internalType": "uint256",
          "name": "_newClaimsStartTime",
          "type": "uint256"
        }
      ],
      "name": "setClaimsStartTime",
      "outputs": [],
      "stateMutability": "nonpayable",
      "type": "function"
    },
    {
      "inputs": [
        {
          "internalType": "uint256",
          "name": "_newGlobalIdOffset",
          "type": "uint256"
        }
      ],
      "name": "setGlobalIdOffset",
      "outputs": [],
      "stateMutability": "nonpayable",
      "type": "function"
    },
    {
      "inputs": [
        {
          "internalType": "uint256[]",
          "name": "_newRingTypeLocalOffset",
          "type": "uint256[]"
        }
      ],
      "name": "setLocalIdOffsets",
      "outputs": [],
      "stateMutability": "nonpayable",
      "type": "function"
    },
    {
      "inputs": [
        {
          "internalType": "bytes32",
          "name": "newMerkleRoot",
          "type": "bytes32"
        }
      ],
      "name": "setMintlistMerkleRoot1",
      "outputs": [],
      "stateMutability": "nonpayable",
      "type": "function"
    },
    {
      "inputs": [
        {
          "internalType": "bytes32",
          "name": "newMerkleRoot",
          "type": "bytes32"
        }
      ],
      "name": "setMintlistMerkleRoot2",
      "outputs": [],
      "stateMutability": "nonpayable",
      "type": "function"
    },
    {
      "inputs": [
        {
          "internalType": "uint256",
          "name": "_newAllowlistMintStartTime",
          "type": "uint256"
        }
      ],
      "name": "setMintlistStartTime",
      "outputs": [],
      "stateMutability": "nonpayable",
      "type": "function"
    },
    {
      "inputs": [
        {
          "internalType": "uint256",
          "name": "_newPrice",
          "type": "uint256"
        }
      ],
      "name": "setPrice",
      "outputs": [],
      "stateMutability": "nonpayable",
      "type": "function"
    },
    {
      "inputs": [
        {
          "internalType": "uint256[]",
          "name": "_newProbabilities",
          "type": "uint256[]"
        }
      ],
      "name": "setProbabilities",
      "outputs": [],
      "stateMutability": "nonpayable",
      "type": "function"
    },
    {
      "inputs": [
        {
          "internalType": "uint256",
          "name": "_newPublicMintStartTime",
          "type": "uint256"
        }
      ],
      "name": "setPublicMintStartTime",
      "outputs": [],
      "stateMutability": "nonpayable",
      "type": "function"
    },
    {
      "inputs": [
        {
          "internalType": "uint256",
          "name": "_newRingsAvailable",
          "type": "uint256"
        }
      ],
      "name": "setRingsAvailable",
      "outputs": [],
      "stateMutability": "nonpayable",
      "type": "function"
    },
    {
      "inputs": [
        {
          "internalType": "address payable",
          "name": "_newVaultAddress",
          "type": "address"
        }
      ],
      "name": "setVaultAddress",
      "outputs": [],
      "stateMutability": "nonpayable",
      "type": "function"
    },
    {
      "inputs": [
        {
          "internalType": "contract IWatchersRing",
          "name": "_newWatchersRingAddress",
          "type": "address"
        }
      ],
      "name": "setWatchersRing",
      "outputs": [],
      "stateMutability": "nonpayable",
      "type": "function"
    },
    {
      "inputs": [
        {
          "internalType": "address",
          "name": "newOwner",
          "type": "address"
        }
      ],
      "name": "transferOwnership",
      "outputs": [],
      "stateMutability": "nonpayable",
      "type": "function"
    },
    {
      "inputs": [],
      "name": "vault",
      "outputs": [
        {
          "internalType": "address payable",
          "name": "",
          "type": "address"
        }
      ],
      "stateMutability": "view",
      "type": "function"
    },
    {
      "inputs": [],
      "name": "watchersRing",
      "outputs": [
        {
          "internalType": "contract IWatchersRing",
          "name": "",
          "type": "address"
        }
      ],
      "stateMutability": "view",
      "type": "function"
    },
    {
      "inputs": [
        {
          "internalType": "uint256",
          "name": "_amount",
          "type": "uint256"
        }
      ],
      "name": "withdraw",
      "outputs": [],
      "stateMutability": "nonpayable",
      "type": "function"
    },
    {
      "inputs": [],
      "name": "withdrawAll",
      "outputs": [],
      "stateMutability": "nonpayable",
      "type": "function"
    }
  ],
  "bytecode": "0x6102bc6004556000600555610180604052600e608081815260a082905260c082905260e0829052610100829052610120829052610140919091526002610160526200004f90600690600862000224565b506040805161010081018252600180825260208201819052918101829052606081018290526080810182905260a0810182905260c0810182905260e0810191909152620000a190600790600862000224565b506001600855600019600955600019600a55600019600b55600019600c55348015620000cc57600080fd5b506040516200265c3803806200265c833981016040819052620000ef9162000290565b620000fa336200011b565b6001805562000109816200016b565b620001143362000197565b50620002c2565b600080546001600160a01b038381166001600160a01b0319831681178455604051919092169283917f8be0079c531659141344cd1fd0a4f28419497f9722a3daafe3b4186f6b6457e09190a35050565b62000175620001c3565b600280546001600160a01b0319166001600160a01b0392909216919091179055565b620001a1620001c3565b600380546001600160a01b0319166001600160a01b0392909216919091179055565b6000546001600160a01b03163314620002225760405162461bcd60e51b815260206004820181905260248201527f4f776e61626c653a2063616c6c6572206973206e6f7420746865206f776e6572604482015260640160405180910390fd5b565b82805482825590600052602060002090810192821562000267579160200282015b8281111562000267578251829060ff1690559160200191906001019062000245565b506200027592915062000279565b5090565b5b808211156200027557600081556001016200027a565b600060208284031215620002a357600080fd5b81516001600160a01b0381168114620002bb57600080fd5b9392505050565b61238a80620002d26000396000f3fe6080604052600436106102885760003560e01c80638d56a17b1161015a578063cc644fd2116100c1578063df477ead1161007a578063df477ead1461073a578063e49618c11461074f578063f0c821de1461077c578063f2fde38b1461079c578063f4cde4c0146107bc578063fbfa77cf146107d257600080fd5b8063cc644fd214610691578063cef58283146106b1578063d012468f146106d1578063d3cf00a3146106e4578063d6117b3e146106fa578063dc37dc641461071a57600080fd5b80639f0664b5116101135780639f0664b5146105f4578063a0712d6814610614578063a0e52f8914610627578063a637f9731461063c578063b9a43f2e1461065c578063c2774dac1461067157600080fd5b80638d56a17b146105345780638da5cb5b1461054a57806391b7f5ed1461057c57806393cb41471461059c57806396c9f88b146105b45780639727151a146105d457600080fd5b8063411d13f7116101fe5780636138f236116101b75780636138f236146104855780636e1a1a60146104b2578063715018a6146104d2578063853828b6146104e757806385535cc5146104fc5780638c6d8ef61461051c57600080fd5b8063411d13f7146103f157806346bf289f146104115780634c3db84d146104265780634ed1eb24146104395780635242a4931461044f5780635fcd80a61461046557600080fd5b80632560e376116102505780632560e37614610341578063260c0886146103575780632701b325146103775780632ce82a71146103985780632e1a7d4d146103ad5780633e97414f146103cd57600080fd5b8063062f7b8c1461028d578063158ae298146102b85780631af3ba81146102f35780631c7f4a0214610309578063205ed3821461031f575b600080fd5b34801561029957600080fd5b506102a26107f2565b6040516102af9190611fb3565b60405180910390f35b3480156102c457600080fd5b506102e56102d3366004611ff7565b60106020526000908152604090205481565b6040519081526020016102af565b3480156102ff57600080fd5b506102e560095481565b34801561031557600080fd5b506102e5600e5481565b34801561032b57600080fd5b5061033f61033a366004611ff7565b61084a565b005b34801561034d57600080fd5b506102e5600f5481565b34801561036357600080fd5b5061033f610372366004611ff7565b610879565b34801561038357600080fd5b506102e5610392366004611ff7565b60ff1690565b3480156103a457600080fd5b506102a2610886565b3480156103b957600080fd5b5061033f6103c8366004611ff7565b610a56565b3480156103d957600080fd5b50600c544210155b60405190151581526020016102af565b3480156103fd57600080fd5b5061033f61040c366004611ff7565b610b0a565b34801561041d57600080fd5b506102e5610b17565b61033f61043436600461205c565b610c7b565b34801561044557600080fd5b506102e5600d5481565b34801561045b57600080fd5b506102e560085481565b34801561047157600080fd5b5061033f610480366004611ff7565b610e07565b34801561049157600080fd5b506102e56104a03660046120c4565b60126020526000908152604090205481565b3480156104be57600080fd5b5061033f6104cd366004611ff7565b610e14565b3480156104de57600080fd5b5061033f610e21565b3480156104f357600080fd5b5061033f610e35565b34801561050857600080fd5b5061033f6105173660046120c4565b610ee3565b34801561052857600080fd5b50600a544210156103e1565b34801561054057600080fd5b506102e5600c5481565b34801561055657600080fd5b506000546001600160a01b03165b6040516001600160a01b0390911681526020016102af565b34801561058857600080fd5b5061033f610597366004611ff7565b610f0d565b3480156105a857600080fd5b50600b544210156103e1565b3480156105c057600080fd5b506102e56105cf366004611ff7565b610f3c565b3480156105e057600080fd5b5061033f6105ef3660046120e1565b610f5d565b34801561060057600080fd5b5061033f61060f36600461210d565b610ff9565b61033f610622366004611ff7565b6111bc565b34801561063357600080fd5b506009546102e5565b34801561064857600080fd5b5061033f610657366004611ff7565b6111d6565b34801561066857600080fd5b506102e5611205565b34801561067d57600080fd5b5061033f61068c366004611ff7565b611368565b34801561069d57600080fd5b5061033f6106ac36600461216d565b611375565b3480156106bd57600080fd5b5061033f6106cc366004611ff7565b6113d6565b61033f6106df36600461205c565b6113e3565b3480156106f057600080fd5b506102e5600a5481565b34801561070657600080fd5b5061033f61071536600461216d565b6115d0565b34801561072657600080fd5b5061033f6107353660046120c4565b6116a1565b34801561074657600080fd5b506004546102e5565b34801561075b57600080fd5b506102e561076a3660046120c4565b60116020526000908152604090205481565b34801561078857600080fd5b50600254610564906001600160a01b031681565b3480156107a857600080fd5b5061033f6107b73660046120c4565b6116cb565b3480156107c857600080fd5b506102e5600b5481565b3480156107de57600080fd5b50600354610564906001600160a01b031681565b6060600680548060200260200160405190810160405280929190818152602001828054801561084057602002820191906000526020600020905b81548152602001906001019080831161082c575b5050505050905090565b610852611741565b600b5442106108745760405163f2a84b6360e01b815260040160405180910390fd5b600455565b610881611741565b600c55565b6040805160088082526101208201909252606091600091906020820161010080368337505060008080526010602052600080516020612335833981519152548351939450928492506108da576108da6121af565b6020026020010181815250506010600060018152602001908152602001600020548160018151811061090e5761090e6121af565b60200260200101818152505060106000600281526020019081526020016000205481600281518110610942576109426121af565b60200260200101818152505060106000600381526020019081526020016000205481600381518110610976576109766121af565b602002602001018181525050601060006004815260200190815260200160002054816004815181106109aa576109aa6121af565b602002602001018181525050601060006005815260200190815260200160002054816005815181106109de576109de6121af565b60200260200101818152505060106000600681526020019081526020016000205481600681518110610a1257610a126121af565b60200260200101818152505060106000600781526020019081526020016000205481600781518110610a4657610a466121af565b6020908102919091010152919050565b610a5e611741565b6003546040516000916001600160a01b03169083908381818185875af1925050503d8060008114610aab576040519150601f19603f3d011682016040523d82523d6000602084013e610ab0565b606091505b5050905080610b065760405162461bcd60e51b815260206004820152601b60248201527f776974686472617720776173206e6f742073756363657366756c6c000000000060448201526064015b60405180910390fd5b5050565b610b12611741565b600f55565b60106020527f4ef6145e44e4298293af15ae5f84f922a836b1d6db608fd5008f32a528b312a9547f20edfb71820f6f00f6a84ccfefb91587cd9f849f8349b0a3182a4795899d9cd9547f61a7346ab5ebdac457db2a901eaf1b805239b6049a1b2f34bab85e2e274f39cb547f1588ac671d87f82adc0e6ae8ab009c0de98f92a20243897597e566bc59b9c126547fb3edd0d534d647cffdae9f1294f11ad21f3fcf2814bea44c92bbb8d384a57d9e547f853b2fefe141400fef543280f93d98bd49996069f632d0d20236afeeed8e46a2547f8c6065603763fec3f5742441d3833f3f43b982453612d76adb39a885e3006b5f5460008080526000805160206123358339815191525490978897909690959094909390929091610c3991906121db565b610c4391906121db565b610c4d91906121db565b610c5791906121db565b610c6191906121db565b610c6b91906121db565b610c7591906121db565b92915050565b610c8361179b565b600c54421015610cb357600c546040516366803fc160e01b81526004810191909152426024820152604401610afd565b60003384604051602001610cc89291906121ee565b604051602081830303815290604052805190602001209050610d2183838080602002602001604051908101604052809392919081815260200183836020028082843760009201919091525050600f5491508490506117f4565b610d5e5760405162461bcd60e51b815260206004820152600e60248201526d24b73b30b634b210383937b7b31760911b6044820152606401610afd565b3360009081526012602052604090205484610d7987836121db565b1115610dc75760405162461bcd60e51b815260206004820152601b60248201527f436c61696d696e67206d6f7265207468616e20616c6c6f7765642e00000000006044820152606401610afd565b3360009081526012602052604081208054889290610de69084906121db565b90915550610df69050863361180a565b5050610e0160018055565b50505050565b610e0f611741565b600a55565b610e1c611741565b600b55565b610e29611741565b610e3360006119fa565b565b610e3d611741565b6003546040516000916001600160a01b03169047908381818185875af1925050503d8060008114610e8a576040519150601f19603f3d011682016040523d82523d6000602084013e610e8f565b606091505b5050905080610ee05760405162461bcd60e51b815260206004820152601f60248201527f776974686472617720616c6c20776173206e6f742073756363657366756c6c006044820152606401610afd565b50565b610eeb611741565b600380546001600160a01b0319166001600160a01b0392909216919091179055565b610f15611741565b600b544210610f375760405163f2a84b6360e01b815260040160405180910390fd5b600955565b60078181548110610f4c57600080fd5b600091825260209091200154905081565b610f65611741565b33610f83576040516324560b2960e11b815260040160405180910390fd5b60405163a9059cbb60e01b8152336004820152602481018290526001600160a01b0383169063a9059cbb906044016020604051808303816000875af1158015610fd0573d6000803e3d6000fd5b505050506040513d601f19601f82011682018060405250810190610ff4919061221a565b505050565b611001611741565b82811461105a5760405162461bcd60e51b815260206004820152602160248201527f4172726179732073686f756c642068617665207468652073616d652073697a656044820152601760f91b6064820152608401610afd565b60005b818110156111b557600061109686868481811061107c5761107c6121af565b9050602002016020810190611091919061223c565b611a4a565b9050601060008787858181106110ae576110ae6121af565b90506020020160208101906110c3919061223c565b60078111156110d4576110d461225d565b8152602001908152602001600020600081546110ef90612273565b909155506002546001600160a01b03166386ebf010858585818110611116576111166121af565b905060200201602081019061112b91906120c4565b8389898781811061113e5761113e6121af565b9050602002016020810190611153919061223c565b6040518463ffffffff1660e01b81526004016111719392919061228c565b600060405180830381600087803b15801561118b57600080fd5b505af115801561119f573d6000803e3d6000fd5b5050505050806111ae90612273565b905061105d565b5050505050565b6111c461179b565b6111cd81611cf6565b610ee060018055565b6111de611741565b600b5442106112005760405163f2a84b6360e01b815260040160405180910390fd5b600855565b60045460106020527f4ef6145e44e4298293af15ae5f84f922a836b1d6db608fd5008f32a528b312a9547f20edfb71820f6f00f6a84ccfefb91587cd9f849f8349b0a3182a4795899d9cd9547f61a7346ab5ebdac457db2a901eaf1b805239b6049a1b2f34bab85e2e274f39cb547f1588ac671d87f82adc0e6ae8ab009c0de98f92a20243897597e566bc59b9c126547fb3edd0d534d647cffdae9f1294f11ad21f3fcf2814bea44c92bbb8d384a57d9e547f853b2fefe141400fef543280f93d98bd49996069f632d0d20236afeeed8e46a2547f8c6065603763fec3f5742441d3833f3f43b982453612d76adb39a885e3006b5f54600080805260008051602061233583398151915254909897969594939291611322916121db565b61132c91906121db565b61133691906121db565b61134091906121db565b61134a91906121db565b61135491906121db565b61135e91906121db565b610c7590826122cf565b611370611741565b600e55565b61137d611741565b600881146113a85760405163242e99d160e11b81526004810182905260086024820152604401610afd565b600b5442106113ca5760405163f2a84b6360e01b815260040160405180910390fd5b610ff460078383611f53565b6113de611741565b600d55565b6113eb61179b565b600b5442101561141b57600b546040516366803fc160e01b81526004810191909152426024820152604401610afd565b8315806114285750601484115b156114465760405163ca02d6eb60e01b815260040160405180910390fd5b6000338460405160200161145b9291906121ee565b6040516020818303038152906040528051906020012090506114b483838080602002602001604051908101604052809392919081815260200183836020028082843760009201919091525050600d5491508490506117f4565b806114fb57506114fb83838080602002602001604051908101604052809392919081815260200183836020028082843760009201919091525050600e5491508490506117f4565b6115385760405162461bcd60e51b815260206004820152600e60248201526d24b73b30b634b210383937b7b31760911b6044820152606401610afd565b336000908152601160205260409020548461155387836121db565b11156115a15760405162461bcd60e51b815260206004820152601a60248201527f4d696e74696e67206d6f7265207468616e20616c6c6f7765642e0000000000006044820152606401610afd565b33600090815260116020526040812080548892906115c09084906121db565b90915550610df690508633611d57565b6115d8611741565b6000805b8281101561161c578383828181106115f6576115f66121af565b905060200201358261160891906121db565b91508061161481612273565b9150506115dc565b50806064146116485760405163242e99d160e11b81526004810182905260646024820152604401610afd565b600882146116735760405163242e99d160e11b81526004810183905260086024820152604401610afd565b600b5442106116955760405163f2a84b6360e01b815260040160405180910390fd5b610e0160068484611f53565b6116a9611741565b600280546001600160a01b0319166001600160a01b0392909216919091179055565b6116d3611741565b6001600160a01b0381166117385760405162461bcd60e51b815260206004820152602660248201527f4f776e61626c653a206e6577206f776e657220697320746865207a65726f206160448201526564647265737360d01b6064820152608401610afd565b610ee0816119fa565b6000546001600160a01b03163314610e335760405162461bcd60e51b815260206004820181905260248201527f4f776e61626c653a2063616c6c6572206973206e6f7420746865206f776e65726044820152606401610afd565b6002600154036117ed5760405162461bcd60e51b815260206004820152601f60248201527f5265656e7472616e637947756172643a207265656e7472616e742063616c6c006044820152606401610afd565b6002600155565b6000826118018584611dea565b14949350505050565b306001600160a01b031663df477ead6040518163ffffffff1660e01b8152600401602060405180830381865afa158015611848573d6000803e3d6000fd5b505050506040513d601f19601f8201168201806040525081019061186c91906122e2565b82306001600160a01b03166346bf289f6040518163ffffffff1660e01b8152600401602060405180830381865afa1580156118ab573d6000803e3d6000fd5b505050506040513d601f19601f820116820180604052508101906118cf91906122e2565b6118d991906121db565b11156119275760405162461bcd60e51b815260206004820152601e60248201527f547279696e6720746f206d696e7420746f6f206d616e792072696e67732e00006044820152606401610afd565b60005b82811015610ff457600061193c611e37565b905060008160078111156119525761195261225d565b9050600061195f82611a4a565b600084815260106020526040812080549293509161197c90612273565b9091555060025460405163086ebf0160e41b81526001600160a01b03909116906386ebf010906119b49088908590879060040161228c565b600060405180830381600087803b1580156119ce57600080fd5b505af11580156119e2573d6000803e3d6000fd5b50505050505050806119f390612273565b905061192a565b600080546001600160a01b038381166001600160a01b0319831681178455604051919092169283917f8be0079c531659141344cd1fd0a4f28419497f9722a3daafe3b4186f6b6457e09190a35050565b60085460106020527f4ef6145e44e4298293af15ae5f84f922a836b1d6db608fd5008f32a528b312a9547f20edfb71820f6f00f6a84ccfefb91587cd9f849f8349b0a3182a4795899d9cd9547f61a7346ab5ebdac457db2a901eaf1b805239b6049a1b2f34bab85e2e274f39cb547f1588ac671d87f82adc0e6ae8ab009c0de98f92a20243897597e566bc59b9c126547fb3edd0d534d647cffdae9f1294f11ad21f3fcf2814bea44c92bbb8d384a57d9e547f853b2fefe141400fef543280f93d98bd49996069f632d0d20236afeeed8e46a2547f8c6065603763fec3f5742441d3833f3f43b982453612d76adb39a885e3006b5f54600080805260008051602061233583398151915254909889989097909690959094909390929091611b7191906121db565b611b7b91906121db565b611b8591906121db565b611b8f91906121db565b611b9991906121db565b611ba391906121db565b611bad91906121db565b611bb791906121db565b905060006007846007811115611bcf57611bcf61225d565b81548110611bdf57611bdf6121af565b906000526020600020015460106000866007811115611c0057611c0061225d565b815260200190815260200160002054611c1991906121db565b905063ffffffff811115611c675760405162461bcd60e51b81526020600482015260156024820152742637b1b0b61034b73232bc1037bb32b9333637bb9760591b6044820152606401610afd565b60ff846007811115611c7b57611c7b61225d565b1115611cc05760405162461bcd60e51b81526020600482015260146024820152732934b7339034b73232bc1037bb32b9333637bb9760611b6044820152606401610afd565b836007811115611cd257611cd261225d565b611ce4600883901b602885901b6121db565b611cee91906121db565b949350505050565b600a54421015611d2657600a546040516366803fc160e01b81526004810191909152426024820152604401610afd565b801580611d335750601481115b15611d515760405163ca02d6eb60e01b815260040160405180910390fd5b610ee081335b600060095411611d7a576040516362fd6dd360e11b815260040160405180910390fd5b81600954611d8891906122fb565b3414611de05760405162461bcd60e51b815260206004820152602160248201527f45746865722076616c75652073656e74206973206e6f742061636375726174656044820152601760f91b6064820152608401610afd565b610b06828261180a565b600081815b8451811015611e2f57611e1b82868381518110611e0e57611e0e6121af565b6020026020010151611f21565b915080611e2781612273565b915050611def565b509392505050565b6005805460009182919082611e4b83612273565b9190505550600060644233600554604051602001611e8e9392919092835260609190911b6bffffffffffffffffffffffff19166020830152603482015260540190565b6040516020818303038152906040528051906020012060001c611eb19190612312565b611ebc9060016121db565b90506000805b600654811015611f185760068181548110611edf57611edf6121af565b906000526020600020015482611ef591906121db565b9150818311611f0657809350611f18565b80611f1081612273565b915050611ec2565b50919392505050565b6000818310611f3d576000828152602084905260409020611f4c565b60008381526020839052604090205b9392505050565b828054828255906000526020600020908101928215611f8e579160200282015b82811115611f8e578235825591602001919060010190611f73565b50611f9a929150611f9e565b5090565b5b80821115611f9a5760008155600101611f9f565b6020808252825182820181905260009190848201906040850190845b81811015611feb57835183529284019291840191600101611fcf565b50909695505050505050565b60006020828403121561200957600080fd5b5035919050565b60008083601f84011261202257600080fd5b50813567ffffffffffffffff81111561203a57600080fd5b6020830191508360208260051b850101111561205557600080fd5b9250929050565b6000806000806060858703121561207257600080fd5b8435935060208501359250604085013567ffffffffffffffff81111561209757600080fd5b6120a387828801612010565b95989497509550505050565b6001600160a01b0381168114610ee057600080fd5b6000602082840312156120d657600080fd5b8135611f4c816120af565b600080604083850312156120f457600080fd5b82356120ff816120af565b946020939093013593505050565b6000806000806040858703121561212357600080fd5b843567ffffffffffffffff8082111561213b57600080fd5b61214788838901612010565b9096509450602087013591508082111561216057600080fd5b506120a387828801612010565b6000806020838503121561218057600080fd5b823567ffffffffffffffff81111561219757600080fd5b6121a385828601612010565b90969095509350505050565b634e487b7160e01b600052603260045260246000fd5b634e487b7160e01b600052601160045260246000fd5b80820180821115610c7557610c756121c5565b60609290921b6bffffffffffffffffffffffff19168252601d60f91b6014830152601582015260350190565b60006020828403121561222c57600080fd5b81518015158114611f4c57600080fd5b60006020828403121561224e57600080fd5b813560088110611f4c57600080fd5b634e487b7160e01b600052602160045260246000fd5b600060018201612285576122856121c5565b5060010190565b6001600160a01b03841681526020810183905260608101600883106122c157634e487b7160e01b600052602160045260246000fd5b826040830152949350505050565b81810381811115610c7557610c756121c5565b6000602082840312156122f457600080fd5b5051919050565b8082028115828204841417610c7557610c756121c5565b60008261232f57634e487b7160e01b600052601260045260246000fd5b50069056fe6e0956cda88cad152e89927e53611735b61a5c762d1428573c6931b0a5efcb01a264697066735822122085a5cb4bc4d21e7cabeefa5dca7bbb4efb738a9f9d95fba8bc4fabb7a2e6ecbf64736f6c63430008130033",
  "linkReferences": {},
  "deployedLinkReferences": {}
}