{
  "_format": "hh-sol-artifact-1",
  "contractName": "WatchersRingMinter",
  "sourceName": "contracts/WatchersRingMinter.sol",
  "abi": [
    {
      "inputs": [
        {
          "internalType": "contract IWatchersRing",
          "name": "_watchersRing",
          "type": "address"
        }
      ],
      "stateMutability": "nonpayable",
      "type": "constructor"
    },
    {
      "inputs": [],
      "name": "Address0Error",
      "type": "error"
    },
    {
      "inputs": [],
      "name": "ClaimWithoutPurchase",
      "type": "error"
    },
    {
      "inputs": [],
      "name": "DeniedProcessDuringMinting",
      "type": "error"
    },
    {
      "inputs": [
        {
          "internalType": "uint256",
          "name": "sended_values",
          "type": "uint256"
        },
        {
          "internalType": "uint256",
          "name": "expected",
          "type": "uint256"
        }
      ],
      "name": "GivenValuesNotValid",
      "type": "error"
    },
    {
      "inputs": [],
      "name": "IncorrectPurchaseLimit",
      "type": "error"
    },
    {
      "inputs": [],
      "name": "MisconfiguredPrices",
      "type": "error"
    },
    {
      "inputs": [
        {
          "internalType": "uint256",
          "name": "correct_date",
          "type": "uint256"
        },
        {
          "internalType": "uint256",
          "name": "current_date",
          "type": "uint256"
        }
      ],
      "name": "WrongDateForProcess",
      "type": "error"
    },
    {
      "anonymous": false,
      "inputs": [
        {
          "indexed": true,
          "internalType": "address",
          "name": "previousOwner",
          "type": "address"
        },
        {
          "indexed": true,
          "internalType": "address",
          "name": "newOwner",
          "type": "address"
        }
      ],
      "name": "OwnershipTransferred",
      "type": "event"
    },
    {
      "inputs": [],
      "name": "claimlistMerkleRoot",
      "outputs": [
        {
          "internalType": "bytes32",
          "name": "",
          "type": "bytes32"
        }
      ],
      "stateMutability": "view",
      "type": "function"
    },
    {
      "inputs": [
        {
          "internalType": "address",
          "name": "",
          "type": "address"
        }
      ],
      "name": "claimlistMinted",
      "outputs": [
        {
          "internalType": "uint256",
          "name": "",
          "type": "uint256"
        }
      ],
      "stateMutability": "view",
      "type": "function"
    },
    {
      "inputs": [],
      "name": "claimsStartTime",
      "outputs": [
        {
          "internalType": "uint256",
          "name": "",
          "type": "uint256"
        }
      ],
      "stateMutability": "view",
      "type": "function"
    },
    {
      "inputs": [],
      "name": "claimsStarted",
      "outputs": [
        {
          "internalType": "bool",
          "name": "",
          "type": "bool"
        }
      ],
      "stateMutability": "view",
      "type": "function"
    },
    {
      "inputs": [
        {
          "internalType": "contract IERC20",
          "name": "_token",
          "type": "address"
        },
        {
          "internalType": "uint256",
          "name": "_amount",
          "type": "uint256"
        }
      ],
      "name": "forwardERC20s",
      "outputs": [],
      "stateMutability": "nonpayable",
      "type": "function"
    },
    {
      "inputs": [],
      "name": "getAvailableRings",
      "outputs": [
        {
          "internalType": "uint256",
          "name": "",
          "type": "uint256"
        }
      ],
      "stateMutability": "view",
      "type": "function"
    },
    {
      "inputs": [],
      "name": "getInitialRings",
      "outputs": [
        {
          "internalType": "uint256",
          "name": "",
          "type": "uint256"
        }
      ],
      "stateMutability": "view",
      "type": "function"
    },
    {
      "inputs": [],
      "name": "getProbabilities",
      "outputs": [
        {
          "internalType": "uint256[]",
          "name": "",
          "type": "uint256[]"
        }
      ],
      "stateMutability": "view",
      "type": "function"
    },
    {
      "inputs": [],
      "name": "getRingPrice",
      "outputs": [
        {
          "internalType": "uint256",
          "name": "",
          "type": "uint256"
        }
      ],
      "stateMutability": "view",
      "type": "function"
    },
    {
      "inputs": [
        {
          "internalType": "uint256",
          "name": "tokenId",
          "type": "uint256"
        }
      ],
      "name": "getTokenIdRingType",
      "outputs": [
        {
          "internalType": "uint256",
          "name": "",
          "type": "uint256"
        }
      ],
      "stateMutability": "pure",
      "type": "function"
    },
    {
      "inputs": [],
      "name": "getTotalMintedRings",
      "outputs": [
        {
          "internalType": "uint256",
          "name": "",
          "type": "uint256"
        }
      ],
      "stateMutability": "view",
      "type": "function"
    },
    {
      "inputs": [],
      "name": "getTotalMintedRingsByType",
      "outputs": [
        {
          "internalType": "uint256[]",
          "name": "",
          "type": "uint256[]"
        }
      ],
      "stateMutability": "view",
      "type": "function"
    },
    {
      "inputs": [
        {
          "internalType": "uint256",
          "name": "numRings",
          "type": "uint256"
        }
      ],
      "name": "mint",
      "outputs": [],
      "stateMutability": "payable",
      "type": "function"
    },
    {
      "inputs": [
        {
          "internalType": "uint256",
          "name": "payedMints",
          "type": "uint256"
        },
        {
          "internalType": "uint256",
          "name": "maxClaim",
          "type": "uint256"
        },
        {
          "internalType": "bytes32[]",
          "name": "_merkleProof",
          "type": "bytes32[]"
        }
      ],
      "name": "mintWithClaim",
      "outputs": [],
      "stateMutability": "payable",
      "type": "function"
    },
    {
      "inputs": [],
      "name": "mintlistMerkleRoot1",
      "outputs": [
        {
          "internalType": "bytes32",
          "name": "",
          "type": "bytes32"
        }
      ],
      "stateMutability": "view",
      "type": "function"
    },
    {
      "inputs": [],
      "name": "mintlistMerkleRoot2",
      "outputs": [
        {
          "internalType": "bytes32",
          "name": "",
          "type": "bytes32"
        }
      ],
      "stateMutability": "view",
      "type": "function"
    },
    {
      "inputs": [
        {
          "internalType": "uint256",
          "name": "numRings",
          "type": "uint256"
        },
        {
          "internalType": "uint256",
          "name": "claimedMaxRings",
          "type": "uint256"
        },
        {
          "internalType": "bytes32[]",
          "name": "_merkleProof",
          "type": "bytes32[]"
        }
      ],
      "name": "mintlistMint",
      "outputs": [],
      "stateMutability": "payable",
      "type": "function"
    },
    {
      "inputs": [
        {
          "internalType": "address",
          "name": "",
          "type": "address"
        }
      ],
      "name": "mintlistMinted",
      "outputs": [
        {
          "internalType": "uint256",
          "name": "",
          "type": "uint256"
        }
      ],
      "stateMutability": "view",
      "type": "function"
    },
    {
      "inputs": [],
      "name": "mintlistStartTime",
      "outputs": [
        {
          "internalType": "uint256",
          "name": "",
          "type": "uint256"
        }
      ],
      "stateMutability": "view",
      "type": "function"
    },
    {
      "inputs": [],
      "name": "mintlistStarted",
      "outputs": [
        {
          "internalType": "bool",
          "name": "",
          "type": "bool"
        }
      ],
      "stateMutability": "view",
      "type": "function"
    },
    {
      "inputs": [],
      "name": "owner",
      "outputs": [
        {
          "internalType": "address",
          "name": "",
          "type": "address"
        }
      ],
      "stateMutability": "view",
      "type": "function"
    },
    {
      "inputs": [
        {
          "internalType": "enum IWatchersRing.WatchersRingType[]",
          "name": "ringTypes",
          "type": "uint8[]"
        },
        {
          "internalType": "address[]",
          "name": "recipients",
          "type": "address[]"
        }
      ],
      "name": "ownerMint",
      "outputs": [],
      "stateMutability": "nonpayable",
      "type": "function"
    },
    {
      "inputs": [],
      "name": "publicMintStartTime",
      "outputs": [
        {
          "internalType": "uint256",
          "name": "",
          "type": "uint256"
        }
      ],
      "stateMutability": "view",
      "type": "function"
    },
    {
      "inputs": [],
      "name": "publicStarted",
      "outputs": [
        {
          "internalType": "bool",
          "name": "",
          "type": "bool"
        }
      ],
      "stateMutability": "view",
      "type": "function"
    },
    {
      "inputs": [],
      "name": "renounceOwnership",
      "outputs": [],
      "stateMutability": "nonpayable",
      "type": "function"
    },
    {
      "inputs": [],
      "name": "ringGlobalOffset",
      "outputs": [
        {
          "internalType": "uint256",
          "name": "",
          "type": "uint256"
        }
      ],
      "stateMutability": "view",
      "type": "function"
    },
    {
      "inputs": [],
      "name": "ringPrice",
      "outputs": [
        {
          "internalType": "uint256",
          "name": "",
          "type": "uint256"
        }
      ],
      "stateMutability": "view",
      "type": "function"
    },
    {
      "inputs": [
        {
          "internalType": "uint256",
          "name": "",
          "type": "uint256"
        }
      ],
      "name": "ringTypeLocalOffset",
      "outputs": [
        {
          "internalType": "uint256",
          "name": "",
          "type": "uint256"
        }
      ],
      "stateMutability": "view",
      "type": "function"
    },
    {
      "inputs": [
        {
          "internalType": "uint256",
          "name": "",
          "type": "uint256"
        }
      ],
      "name": "ringsMinted",
      "outputs": [
        {
          "internalType": "uint256",
          "name": "",
          "type": "uint256"
        }
      ],
      "stateMutability": "view",
      "type": "function"
    },
    {
      "inputs": [
        {
          "internalType": "bytes32",
          "name": "newMerkleRoot",
          "type": "bytes32"
        }
      ],
      "name": "setClaimlistMerkleRoot",
      "outputs": [],
      "stateMutability": "nonpayable",
      "type": "function"
    },
    {
      "inputs": [
        {
          "internalType": "uint256",
          "name": "_newClaimsStartTime",
          "type": "uint256"
        }
      ],
      "name": "setClaimsStartTime",
      "outputs": [],
      "stateMutability": "nonpayable",
      "type": "function"
    },
    {
      "inputs": [
        {
          "internalType": "uint256",
          "name": "_newGlobalIdOffset",
          "type": "uint256"
        }
      ],
      "name": "setGlobalIdOffset",
      "outputs": [],
      "stateMutability": "nonpayable",
      "type": "function"
    },
    {
      "inputs": [
        {
          "internalType": "uint256[]",
          "name": "_newRingTypeLocalOffset",
          "type": "uint256[]"
        }
      ],
      "name": "setLocalIdOffsets",
      "outputs": [],
      "stateMutability": "nonpayable",
      "type": "function"
    },
    {
      "inputs": [
        {
          "internalType": "bytes32",
          "name": "newMerkleRoot",
          "type": "bytes32"
        }
      ],
      "name": "setMintlistMerkleRoot1",
      "outputs": [],
      "stateMutability": "nonpayable",
      "type": "function"
    },
    {
      "inputs": [
        {
          "internalType": "bytes32",
          "name": "newMerkleRoot",
          "type": "bytes32"
        }
      ],
      "name": "setMintlistMerkleRoot2",
      "outputs": [],
      "stateMutability": "nonpayable",
      "type": "function"
    },
    {
      "inputs": [
        {
          "internalType": "uint256",
          "name": "_newAllowlistMintStartTime",
          "type": "uint256"
        }
      ],
      "name": "setMintlistStartTime",
      "outputs": [],
      "stateMutability": "nonpayable",
      "type": "function"
    },
    {
      "inputs": [
        {
          "internalType": "uint256",
          "name": "_newPrice",
          "type": "uint256"
        }
      ],
      "name": "setPrice",
      "outputs": [],
      "stateMutability": "nonpayable",
      "type": "function"
    },
    {
      "inputs": [
        {
          "internalType": "uint256[]",
          "name": "_newProbabilities",
          "type": "uint256[]"
        }
      ],
      "name": "setProbabilities",
      "outputs": [],
      "stateMutability": "nonpayable",
      "type": "function"
    },
    {
      "inputs": [
        {
          "internalType": "uint256",
          "name": "_newPublicMintStartTime",
          "type": "uint256"
        }
      ],
      "name": "setPublicMintStartTime",
      "outputs": [],
      "stateMutability": "nonpayable",
      "type": "function"
    },
    {
      "inputs": [
        {
          "internalType": "uint256",
          "name": "_newRingsAvailable",
          "type": "uint256"
        }
      ],
      "name": "setRingsAvailable",
      "outputs": [],
      "stateMutability": "nonpayable",
      "type": "function"
    },
    {
      "inputs": [
        {
          "internalType": "address payable",
          "name": "_newVaultAddress",
          "type": "address"
        }
      ],
      "name": "setVaultAddress",
      "outputs": [],
      "stateMutability": "nonpayable",
      "type": "function"
    },
    {
      "inputs": [
        {
          "internalType": "contract IWatchersRing",
          "name": "_newWatchersRingAddress",
          "type": "address"
        }
      ],
      "name": "setWatchersRing",
      "outputs": [],
      "stateMutability": "nonpayable",
      "type": "function"
    },
    {
      "inputs": [
        {
          "internalType": "address",
          "name": "newOwner",
          "type": "address"
        }
      ],
      "name": "transferOwnership",
      "outputs": [],
      "stateMutability": "nonpayable",
      "type": "function"
    },
    {
      "inputs": [],
      "name": "vault",
      "outputs": [
        {
          "internalType": "address payable",
          "name": "",
          "type": "address"
        }
      ],
      "stateMutability": "view",
      "type": "function"
    },
    {
      "inputs": [],
      "name": "watchersRing",
      "outputs": [
        {
          "internalType": "contract IWatchersRing",
          "name": "",
          "type": "address"
        }
      ],
      "stateMutability": "view",
      "type": "function"
    },
    {
      "inputs": [
        {
          "internalType": "uint256",
          "name": "_amount",
          "type": "uint256"
        }
      ],
      "name": "withdraw",
      "outputs": [],
      "stateMutability": "nonpayable",
      "type": "function"
    },
    {
      "inputs": [],
      "name": "withdrawAll",
      "outputs": [],
      "stateMutability": "nonpayable",
      "type": "function"
    }
  ],
  "bytecode": "0x60806040526102bc6004556000600555604051806101000160405280600e60ff168152602001600e60ff168152602001600e60ff168152602001600e60ff168152602001600e60ff168152602001600e60ff168152602001600e60ff168152602001600260ff1681525060069060086200007b9291906200059e565b50604051806101000160405280600160ff168152602001600160ff168152602001600160ff168152602001600160ff168152602001600160ff168152602001600160ff168152602001600160ff168152602001600160ff168152506007906008620000e89291906200059e565b5060016008557fffffffffffffffffffffffffffffffffffffffffffffffffffffffffffffffff6009557fffffffffffffffffffffffffffffffffffffffffffffffffffffffffffffffff600a557fffffffffffffffffffffffffffffffffffffffffffffffffffffffffffffffff600b557fffffffffffffffffffffffffffffffffffffffffffffffffffffffffffffffff600c553480156200018b57600080fd5b50604051620060e2380380620060e28339818101604052810190620001b1919062000692565b620001d1620001c56200028d60201b60201c565b6200029560201b60201c565b60018081905550620001f4672d409e9b5ae9e04160c01b6200035960201b60201c565b6200021067a0fbac6d2effd09460c01b6200035960201b60201c565b6200022c6708d67a7827b7342960c01b6200035960201b60201c565b6200023d816200035c60201b60201c565b620002596735b875a8f760f70060c01b6200035960201b60201c565b6200027567ad60bed96cccf24160c01b6200035960201b60201c565b62000286336200042060201b60201c565b5062000747565b600033905090565b60008060009054906101000a900473ffffffffffffffffffffffffffffffffffffffff169050816000806101000a81548173ffffffffffffffffffffffffffffffffffffffff021916908373ffffffffffffffffffffffffffffffffffffffff1602179055508173ffffffffffffffffffffffffffffffffffffffff168173ffffffffffffffffffffffffffffffffffffffff167f8be0079c531659141344cd1fd0a4f28419497f9722a3daafe3b4186f6b6457e060405160405180910390a35050565b50565b6200037867dc388f728c97761f60c01b6200035960201b60201c565b62000388620004e460201b60201c565b620003a467f88f7bfcb801d88e60c01b6200035960201b60201c565b620003c0675d8c4b54202d7d8360c01b6200035960201b60201c565b620003dc6718caa8c5e02f85d260c01b6200035960201b60201c565b80600260006101000a81548173ffffffffffffffffffffffffffffffffffffffff021916908373ffffffffffffffffffffffffffffffffffffffff16021790555050565b6200043c6742abe4b0970eaceb60c01b6200035960201b60201c565b6200044c620004e460201b60201c565b6200046867e8c9167a19f716ca60c01b6200035960201b60201c565b620004846729bd33e66acfbc2260c01b6200035960201b60201c565b620004a0672aa6f8466a0a0d6560c01b6200035960201b60201c565b80600360006101000a81548173ffffffffffffffffffffffffffffffffffffffff021916908373ffffffffffffffffffffffffffffffffffffffff16021790555050565b620004f46200028d60201b60201c565b73ffffffffffffffffffffffffffffffffffffffff166200051a6200057560201b60201c565b73ffffffffffffffffffffffffffffffffffffffff161462000573576040517f08c379a00000000000000000000000000000000000000000000000000000000081526004016200056a9062000725565b60405180910390fd5b565b60008060009054906101000a900473ffffffffffffffffffffffffffffffffffffffff16905090565b828054828255906000526020600020908101928215620005e2579160200282015b82811115620005e1578251829060ff16905591602001919060010190620005bf565b5b509050620005f19190620005f5565b5090565b5b8082111562000610576000816000905550600101620005f6565b5090565b600080fd5b600073ffffffffffffffffffffffffffffffffffffffff82169050919050565b6000620006468262000619565b9050919050565b60006200065a8262000639565b9050919050565b6200066c816200064d565b81146200067857600080fd5b50565b6000815190506200068c8162000661565b92915050565b600060208284031215620006ab57620006aa62000614565b5b6000620006bb848285016200067b565b91505092915050565b600082825260208201905092915050565b7f4f776e61626c653a2063616c6c6572206973206e6f7420746865206f776e6572600082015250565b60006200070d602083620006c4565b91506200071a82620006d5565b602082019050919050565b600060208201905081810360008301526200074081620006fe565b9050919050565b61598b80620007576000396000f3fe6080604052600436106102885760003560e01c80638d56a17b1161015a578063cc644fd2116100c1578063df477ead1161007a578063df477ead14610943578063e49618c11461096e578063f0c821de146109ab578063f2fde38b146109d6578063f4cde4c0146109ff578063fbfa77cf14610a2a57610288565b8063cc644fd214610858578063cef5828314610881578063d012468f146108aa578063d3cf00a3146108c6578063d6117b3e146108f1578063dc37dc641461091a57610288565b80639f0664b5116101135780639f0664b51461076b578063a0712d6814610794578063a0e52f89146107b0578063a637f973146107db578063b9a43f2e14610804578063c2774dac1461082f57610288565b80638d56a17b1461065b5780638da5cb5b1461068657806391b7f5ed146106b157806393cb4147146106da57806396c9f88b146107055780639727151a1461074257610288565b80633e97414f116101fe5780636138f236116101b75780636138f236146105735780636e1a1a60146105b0578063715018a6146105d9578063853828b6146105f057806385535cc5146106075780638c6d8ef61461063057610288565b80633e97414f14610475578063411d13f7146104a057806346bf289f146104c95780634ed1eb24146104f45780635242a4931461051f5780635fcd80a61461054a57610288565b8063205ed38211610250578063205ed382146103675780632560e37614610390578063260c0886146103bb5780632701b325146103e45780632ce82a71146104215780632e1a7d4d1461044c57610288565b8063062f7b8c1461028d5780630747eda8146102b8578063158ae298146102d45780631af3ba81146103115780631c7f4a021461033c575b600080fd5b34801561029957600080fd5b506102a2610a55565b6040516102af9190614657565b60405180910390f35b6102d260048036038101906102cd9190614714565b610ae9565b005b3480156102e057600080fd5b506102fb60048036038101906102f69190614788565b610e29565b60405161030891906147c4565b60405180910390f35b34801561031d57600080fd5b50610326610e41565b60405161033391906147c4565b60405180910390f35b34801561034857600080fd5b50610351610e47565b60405161035e91906147f8565b60405180910390f35b34801561037357600080fd5b5061038e60048036038101906103899190614788565b610e4d565b005b34801561039c57600080fd5b506103a5610f52565b6040516103b291906147f8565b60405180910390f35b3480156103c757600080fd5b506103e260048036038101906103dd9190614788565b610f58565b005b3480156103f057600080fd5b5061040b60048036038101906104069190614788565b610fba565b60405161041891906147c4565b60405180910390f35b34801561042d57600080fd5b50610436611003565b6040516104439190614657565b60405180910390f35b34801561045857600080fd5b50610473600480360381019061046e9190614788565b611305565b005b34801561048157600080fd5b5061048a611493565b604051610497919061482e565b60405180910390f35b3480156104ac57600080fd5b506104c760048036038101906104c29190614875565b6114dc565b005b3480156104d557600080fd5b506104de61153e565b6040516104eb91906147c4565b60405180910390f35b34801561050057600080fd5b506105096116b0565b60405161051691906147f8565b60405180910390f35b34801561052b57600080fd5b506105346116b6565b60405161054191906147c4565b60405180910390f35b34801561055657600080fd5b50610571600480360381019061056c9190614788565b6116bc565b005b34801561057f57600080fd5b5061059a60048036038101906105959190614900565b61171e565b6040516105a791906147c4565b60405180910390f35b3480156105bc57600080fd5b506105d760048036038101906105d29190614788565b611736565b005b3480156105e557600080fd5b506105ee611798565b005b3480156105fc57600080fd5b506106056117ac565b005b34801561061357600080fd5b5061062e6004803603810190610629919061496b565b611939565b005b34801561063c57600080fd5b506106456119d5565b604051610652919061482e565b60405180910390f35b34801561066757600080fd5b50610670611a1e565b60405161067d91906147c4565b60405180910390f35b34801561069257600080fd5b5061069b611a24565b6040516106a891906149a7565b60405180910390f35b3480156106bd57600080fd5b506106d860048036038101906106d39190614788565b611a4d565b005b3480156106e657600080fd5b506106ef611b52565b6040516106fc919061482e565b60405180910390f35b34801561071157600080fd5b5061072c60048036038101906107279190614788565b611b9b565b60405161073991906147c4565b60405180910390f35b34801561074e57600080fd5b5061076960048036038101906107649190614a00565b611bbf565b005b34801561077757600080fd5b50610792600480360381019061078d9190614aec565b611d78565b005b6107ae60048036038101906107a99190614788565b61207a565b005b3480156107bc57600080fd5b506107c56120fa565b6040516107d291906147c4565b60405180910390f35b3480156107e757600080fd5b5061080260048036038101906107fd9190614788565b612140565b005b34801561081057600080fd5b50610819612245565b60405161082691906147c4565b60405180910390f35b34801561083b57600080fd5b5061085660048036038101906108519190614875565b612468565b005b34801561086457600080fd5b5061087f600480360381019061087a9190614bc3565b6124ca565b005b34801561088d57600080fd5b506108a860048036038101906108a39190614875565b61268d565b005b6108c460048036038101906108bf9190614714565b6126ef565b005b3480156108d257600080fd5b506108db612c3c565b6040516108e891906147c4565b60405180910390f35b3480156108fd57600080fd5b5061091860048036038101906109139190614bc3565b612c42565b005b34801561092657600080fd5b50610941600480360381019061093c9190614c4e565b612f61565b005b34801561094f57600080fd5b50610958612ffd565b60405161096591906147c4565b60405180910390f35b34801561097a57600080fd5b5061099560048036038101906109909190614900565b613043565b6040516109a291906147c4565b60405180910390f35b3480156109b757600080fd5b506109c061305b565b6040516109cd9190614cda565b60405180910390f35b3480156109e257600080fd5b506109fd60048036038101906109f89190614900565b613081565b005b348015610a0b57600080fd5b50610a14613104565b604051610a2191906147c4565b60405180910390f35b348015610a3657600080fd5b50610a3f61310a565b604051610a4c9190614d04565b60405180910390f35b6060610a6b679c91de2e8dca28ea60c01b613130565b610a7f67767d85882bb7ca5760c01b613130565b610a9367efc9348acb9e1a5360c01b613130565b6006805480602002602001604051908101604052809291908181526020018280548015610adf57602002820191906000526020600020905b815481526020019060010190808311610acb575b5050505050905090565b610afd674917645e4050b57160c01b613130565b610b1167776d8471a5f62b3c60c01b613130565b610b2567a8aaa77fed15c8f760c01b613130565b6000601260003373ffffffffffffffffffffffffffffffffffffffff1673ffffffffffffffffffffffffffffffffffffffff168152602001908152602001600020549050610b7d6788c33cbc3b595bc260c01b613130565b610b9167a3155e5b193e985260c01b613130565b600081148015610ba15750600085145b15610c0057610bba67e4f435a1cddbe49060c01b613130565b610bce67ac1c78ae44acef7160c01b613130565b6040517fea8792a100000000000000000000000000000000000000000000000000000000815260040160405180910390fd5b610c1467cbcc4a4a9a9163df60c01b613130565b610c28677de79358f5b44e3960c01b613130565b610c3c676a21514bd02068da60c01b613130565b6000851115610c8f57610c5967b087b289c69111bc60c01b613130565b610c6d67d89c0f02cb8da7a560c01b613130565b610c8167ca449d1177a9b44660c01b613130565b610c8a85613133565b610ca4565b610ca367da92e692042eaffc60c01b613130565b5b610cb8675e11230cc07c98ff60c01b613130565b610ccc67c08bc6bb948cf3f360c01b613130565b60008185610cda9190614d4e565b9050610cf0679e52d84ee6b12c0060c01b613130565b610d046724f73b27a9c3a9ec60c01b613130565b60008203610d7957610d2067c1b5d0598404b9a760c01b613130565b610d3467c28b3a26689f1a5260c01b613130565b610d486703e9385d96a2f84660c01b613130565b610d52600161330f565b610d66672a616efd72df476360c01b613130565b8080610d7190614d82565b915050610d8e565b610d8d674838a5a08c0d17a460c01b613130565b5b610da2674ba117c6e693644f60c01b613130565b610db66743bd69bdf2cbc46360c01b613130565b6000811115610e0c57610dd3676efb35923248f00e60c01b613130565b610de767eb13a3aa908ff78b60c01b613130565b610dfb67d2a60c967d7dd89260c01b613130565b610e07818686866133c2565b610e21565b610e2067dba4d2ddf290ee6760c01b613130565b5b505050505050565b60106020528060005260406000206000915090505481565b60095481565b600e5481565b610e6167b1d9d76ce15f236260c01b613130565b610e6961379f565b610e7d672a7e15211e38eb9b60c01b613130565b610e9167b29ab51e2f145a7160c01b613130565b610ea567d147228bf1b4dadd60c01b613130565b610eb967a003e47dd5eb0acd60c01b613130565b610ec1611b52565b15610f2057610eda6797cdffd1d8bd1da460c01b613130565b610eee672fcb94e52c2200c860c01b613130565b6040517ff2a84b6300000000000000000000000000000000000000000000000000000000815260040160405180910390fd5b610f3467c7329a46f3b7e5bf60c01b613130565b610f486741a3bf6a3c82fc3a60c01b613130565b8060048190555050565b600f5481565b610f6c6779a1aa4bcac3a92160c01b613130565b610f7461379f565b610f88676eba7d047825984660c01b613130565b610f9c67e6f30d60e1fcdd9360c01b613130565b610fb067bb54c4ce97d490b360c01b613130565b80600c8190555050565b6000610fd06788fa4a699878ca9160c01b613130565b610fe467a897e9e3eb7a651260c01b613130565b610ff867abd693fe5ea047f160c01b613130565b60ff82169050919050565b606061101967da22b9ec86dbbc1560c01b613130565b61102d67a95c3c169716c6f860c01b613130565b611041670b67cdc81a37ddfb60c01b613130565b6000600867ffffffffffffffff81111561105e5761105d614dab565b5b60405190808252806020026020018201604052801561108c5781602001602082028036833780820191505090505b5090506110a367d2048707d1d3b12660c01b613130565b6010600080815260200190815260200160002054816000815181106110cb576110ca614dda565b5b6020026020010181815250506110eb677e5230b51db4f5c160c01b613130565b6010600060018152602001908152602001600020548160018151811061111457611113614dda565b5b602002602001018181525050611134670af006c1a3f49c5b60c01b613130565b6010600060028152602001908152602001600020548160028151811061115d5761115c614dda565b5b60200260200101818152505061117d67b89c7088f882926560c01b613130565b601060006003815260200190815260200160002054816003815181106111a6576111a5614dda565b5b6020026020010181815250506111c667ad3901dffa6d9d7260c01b613130565b601060006004815260200190815260200160002054816004815181106111ef576111ee614dda565b5b60200260200101818152505061120f67b3a148af1161b52d60c01b613130565b6010600060058152602001908152602001600020548160058151811061123857611237614dda565b5b602002602001018181525050611258676b47b0d86705ad9a60c01b613130565b6010600060068152602001908152602001600020548160068151811061128157611280614dda565b5b6020026020010181815250506112a1678c55114b01a0795d60c01b613130565b601060006007815260200190815260200160002054816007815181106112ca576112c9614dda565b5b6020026020010181815250506112ea679f546e6b3943326260c01b613130565b6112fe67124d1667e1d4931760c01b613130565b8091505090565b6113196794263d124a59b4f760c01b613130565b61132161379f565b6113356711a3a9b128f80de860c01b613130565b61134967e69544687bd6a56d60c01b613130565b61135d6749c37e2ab01ab76860c01b613130565b61137167716784668654f05d60c01b613130565b6000600360009054906101000a900473ffffffffffffffffffffffffffffffffffffffff1673ffffffffffffffffffffffffffffffffffffffff16826040516113b990614e3a565b60006040518083038185875af1925050503d80600081146113f6576040519150601f19603f3d011682016040523d82523d6000602084013e6113fb565b606091505b5050905061141367310d26fdd5f39ba460c01b613130565b6114276787df008d3979c01a60c01b613130565b61143b67a5dbea75773e87e760c01b613130565b8061147b576040517f08c379a000000000000000000000000000000000000000000000000000000000815260040161147290614eac565b60405180910390fd5b61148f67ff55da3a52ac31fc60c01b613130565b5050565b60006114a967eadd6b03050c371c60c01b613130565b6114bd670d6dc006a13ec78560c01b613130565b6114d1672cdbf4b5d79f833c60c01b613130565b600c54421015905090565b6114f067835b9894b156c4d860c01b613130565b6114f861379f565b61150c67fefcce41b86fc99260c01b613130565b6115206707b421c1ee5b456860c01b613130565b61153467ed7d35206f8ea8ad60c01b613130565b80600f8190555050565b6000611554670afab3c45754caf660c01b613130565b61156867b9944c6e828e627160c01b613130565b61157c67feadd0d63964ceaf60c01b613130565b600061159267a1359fd613555db160c01b613130565b60106000600781526020019081526020016000205460106000600681526020019081526020016000205460106000600581526020019081526020016000205460106000600481526020019081526020016000205460106000600381526020019081526020016000205460106000600281526020019081526020016000205460106000600181526020019081526020016000205460106000808152602001908152602001600020546116439190614ecc565b61164d9190614ecc565b6116579190614ecc565b6116619190614ecc565b61166b9190614ecc565b6116759190614ecc565b61167f9190614ecc565b90506116956738331e8f53237a3060c01b613130565b6116a9674586bd4f365a954960c01b613130565b8091505090565b600d5481565b60085481565b6116d067ba251026be57c46e60c01b613130565b6116d861379f565b6116ec67c0596312198155b160c01b613130565b6117006789ace2f6089d670d60c01b613130565b61171467e7b91e370595db0f60c01b613130565b80600a8190555050565b60126020528060005260406000206000915090505481565b61174a6783c0a3680db688f460c01b613130565b61175261379f565b611766671a69694d174095e560c01b613130565b61177a6705cd6e1e0645130360c01b613130565b61178e678b9a389079086dd360c01b613130565b80600b8190555050565b6117a061379f565b6117aa600061381d565b565b6117c067486d676456466d1c60c01b613130565b6117c861379f565b6117dc679195a456c6c3440160c01b613130565b6117f067b162068be3ba2a3e60c01b613130565b61180467aef342fd6a48f07360c01b613130565b61181867855389a446ef36ba60c01b613130565b6000600360009054906101000a900473ffffffffffffffffffffffffffffffffffffffff1673ffffffffffffffffffffffffffffffffffffffff164760405161186090614e3a565b60006040518083038185875af1925050503d806000811461189d576040519150601f19603f3d011682016040523d82523d6000602084013e6118a2565b606091505b505090506118ba672fe9715a116249a860c01b613130565b6118ce67ebda7c0cf7cfc15760c01b613130565b6118e267fe924c454a36f93860c01b613130565b80611922576040517f08c379a000000000000000000000000000000000000000000000000000000000815260040161191990614f4c565b60405180910390fd5b61193667429f0876edfd9da460c01b613130565b50565b61194d6742abe4b0970eaceb60c01b613130565b61195561379f565b61196967e8c9167a19f716ca60c01b613130565b61197d6729bd33e66acfbc2260c01b613130565b611991672aa6f8466a0a0d6560c01b613130565b80600360006101000a81548173ffffffffffffffffffffffffffffffffffffffff021916908373ffffffffffffffffffffffffffffffffffffffff16021790555050565b60006119eb673d52150a01e06f2360c01b613130565b6119ff6745f986c68ddf74c460c01b613130565b611a1367e35281b4f4507fb460c01b613130565b600a54421015905090565b600c5481565b60008060009054906101000a900473ffffffffffffffffffffffffffffffffffffffff16905090565b611a6167fc76969723e9087660c01b613130565b611a6961379f565b611a7d67c44ef0db1a583e8e60c01b613130565b611a9167f8e9b7e808a7b7a960c01b613130565b611aa56774480f76f24902e460c01b613130565b611ab967ba0e6f20e36424f060c01b613130565b611ac1611b52565b15611b2057611ada67954ad53b0c260c3b60c01b613130565b611aee67ae320391a018fd1d60c01b613130565b6040517ff2a84b6300000000000000000000000000000000000000000000000000000000815260040160405180910390fd5b611b3467b7fad957cba7cc0b60c01b613130565b611b486749c3202fa3682f9b60c01b613130565b8060098190555050565b6000611b6867e0695e723dd545af60c01b613130565b611b7c67234ae380e7248dbe60c01b613130565b611b90673c41df8c071eef3560c01b613130565b600b54421015905090565b60078181548110611bab57600080fd5b906000526020600020016000915090505481565b611bd3671721e94903f7e02e60c01b613130565b611bdb61379f565b611bef671369706fc3a8917360c01b613130565b611c0367b380ae4197e1ac9e60c01b613130565b611c1767fd0d79726fb6c2f560c01b613130565b611c2b67ba46329c76460c9a60c01b613130565b600073ffffffffffffffffffffffffffffffffffffffff163373ffffffffffffffffffffffffffffffffffffffff1603611cb957611c7367d3d4868fb8039aad60c01b613130565b611c8767518dcae8519be59160c01b613130565b6040517f48ac165200000000000000000000000000000000000000000000000000000000815260040160405180910390fd5b611ccd670e50cfeae6ed855960c01b613130565b611ce167c5ee2fe6a956ee3560c01b613130565b611cf567b2ff1076f32fa7cf60c01b613130565b8173ffffffffffffffffffffffffffffffffffffffff1663a9059cbb33836040518363ffffffff1660e01b8152600401611d30929190614f6c565b6020604051808303816000875af1158015611d4f573d6000803e3d6000fd5b505050506040513d601f19601f82011682018060405250810190611d739190614fc1565b505050565b611d8c67fc8f138c0c5eee7f60c01b613130565b611d9461379f565b611da86778700b2d43ca14e060c01b613130565b611dbc6750732b26cfbe5c6e60c01b613130565b611dd0676c48b2031850ecda60c01b613130565b611de4673b7ef54504964a6e60c01b613130565b611df867ffaeb3de8629443360c01b613130565b818190508484905014611e40576040517f08c379a0000000000000000000000000000000000000000000000000000000008152600401611e3790615060565b60405180910390fd5b611e5467bb684ce1526a519c60c01b613130565b611e6867c9851b3465aebc3660c01b613130565b611e7c67fc1fcdafd16cd83260c01b613130565b60005b8282905081101561207357611e9e6721f80b5e4e77b86e60c01b613130565b611eb267d9a0b156e9a6de9c60c01b613130565b6000611ee4868684818110611eca57611ec9614dda565b5b9050602002016020810190611edf91906150a5565b6138e1565b9050611efa67bca199fce1fbb2ab60c01b613130565b60106000878785818110611f1157611f10614dda565b5b9050602002016020810190611f2691906150a5565b6007811115611f3857611f376150d2565b5b815260200190815260200160002060008154611f5390615101565b91905081905550611f6e67a7c0a3d95e7b2a1960c01b613130565b611f826799348901d3f0ff9360c01b613130565b600260009054906101000a900473ffffffffffffffffffffffffffffffffffffffff1673ffffffffffffffffffffffffffffffffffffffff166386ebf010858585818110611fd357611fd2614dda565b5b9050602002016020810190611fe89190614900565b83898987818110611ffc57611ffb614dda565b5b905060200201602081019061201191906150a5565b6040518463ffffffff1660e01b815260040161202f93929190615191565b600060405180830381600087803b15801561204957600080fd5b505af115801561205d573d6000803e3d6000fd5b50505050508061206c90615101565b9050611e7f565b5050505050565b61208e67336d3a2b83fccc5360c01b613130565b612096613c49565b6120aa6738b89da9de10317860c01b613130565b6120be678cd225c4650b973a60c01b613130565b6120d2670ade55b68969940060c01b613130565b6120e667ab6218c6d21b30ac60c01b613130565b6120ef81613133565b6120f7613c98565b50565b6000612110678f9553eb242c8d7f60c01b613130565b6121246793f42d072263720360c01b613130565b61213867b4641e687aa0518260c01b613130565b600954905090565b61215467f5798588d376480a60c01b613130565b61215c61379f565b61217067f1c1e39ad912921260c01b613130565b612184675782e8cafd271cd360c01b613130565b612198676ddce2c9bc4679a960c01b613130565b6121ac6762bf3e412a1f064760c01b613130565b6121b4611b52565b15612213576121cd67ae0b7301010164b860c01b613130565b6121e1675255fc792003d05660c01b613130565b6040517ff2a84b6300000000000000000000000000000000000000000000000000000000815260040160405180910390fd5b6122276798cc376a5c0c9fb760c01b613130565b61223b67b814b6d91413434f60c01b613130565b8060088190555050565b600061225b673f5d61c7a5657bbe60c01b613130565b61226f67a3017a321fbac06f60c01b613130565b61228367df49d2171a69603360c01b613130565b6000600454905061229e67d6e99056395332da60c01b613130565b6010600080815260200190815260200160002054816122bd9190614d4e565b90506122d3673f9fdbce7cb5b16460c01b613130565b601060006001815260200190815260200160002054816122f39190614d4e565b9050612309679f0007d3959c035960c01b613130565b601060006002815260200190815260200160002054816123299190614d4e565b905061233f6758de8c44985de3a760c01b613130565b6010600060038152602001908152602001600020548161235f9190614d4e565b905061237567810b19b0ae6e4b3f60c01b613130565b601060006004815260200190815260200160002054816123959190614d4e565b90506123ab6794e143c59e7a591f60c01b613130565b601060006005815260200190815260200160002054816123cb9190614d4e565b90506123e1671d0334852a30da0160c01b613130565b601060006006815260200190815260200160002054816124019190614d4e565b9050612417671a056695a94a0fbb60c01b613130565b601060006007815260200190815260200160002054816124379190614d4e565b905061244d678fda45fc02a26ac560c01b613130565b6124616712e41eb50c9bd20a60c01b613130565b8091505090565b61247c672fa4cfda1a2e7ff660c01b613130565b61248461379f565b61249867ae6f5496581faa6160c01b613130565b6124ac679519c5a89f305aaa60c01b613130565b6124c0676f64f3b3e7cfd76160c01b613130565b80600e8190555050565b6124de6768c523b34e16ba2660c01b613130565b6124e661379f565b6124fa67df69ed7e8d15d71e60c01b613130565b61250e6780128a516458b3f360c01b613130565b6125226765279e6e2f380e6b60c01b613130565b6125366743134d0dfac4f85d60c01b613130565b600882829050146125ac57612555674bf90bc19acb893860c01b613130565b61256967e02fdba6f219441e60c01b613130565b8181905060086040517f485d33a20000000000000000000000000000000000000000000000000000000081526004016125a3929190615203565b60405180910390fd5b6125c067cfdb46b9a96aebb660c01b613130565b6125d4671498c4d7fb754b5660c01b613130565b6125e867efbac9f447ca052e60c01b613130565b6125f0611b52565b1561264f57612609672f546bceb7f3fd8360c01b613130565b61261d67da7537d30529ed6760c01b613130565b6040517ff2a84b6300000000000000000000000000000000000000000000000000000000815260040160405180910390fd5b6126636717321bacbfe99a8060c01b613130565b61267767546bebfaaf85502360c01b613130565b818160079190612688929190614525565b505050565b6126a167cd9ea93aa73fa0ab60c01b613130565b6126a961379f565b6126bd671ce90f1878f836fb60c01b613130565b6126d167d8d34da3dc74a98f60c01b613130565b6126e56794535c9f5dac226b60c01b613130565b80600d8190555050565b6127036754fc4c50f636180e60c01b613130565b61270b613c49565b61271f670f22582a0efab34b60c01b613130565b612733672dc545ca0694145860c01b613130565b61274767d95c86e2a6ea829f60c01b613130565b61275b67eac35a76baaa9c8160c01b613130565b612763611b52565b6127d05761277b67d5c0d7189e28339260c01b613130565b61278f67bf2757d44dafe92a60c01b613130565b600b54426040517f66803fc10000000000000000000000000000000000000000000000000000000081526004016127c792919061522c565b60405180910390fd5b6127e467b2f6d12e4c15b35d60c01b613130565b6127f867fb11f1ac7ec3a17060c01b613130565b61280c67ab75e00c92b88e1260c01b613130565b6000841115801561282d575061282c679b709dfb9467882660c01b613ca1565b5b806128545750601484118015612853575061285267e5fee69aa2d488eb60c01b613ca1565b5b5b156128b35761286d671712d17cc0c5137560c01b613130565b61288167311753c8d398f8e060c01b613130565b6040517fca02d6eb00000000000000000000000000000000000000000000000000000000815260040160405180910390fd5b6128c7672fb92083ce5d40f460c01b613130565b6128db67167ec6fbb0705e8760c01b613130565b6128ef676b4bc1cf6bb097ba60c01b613130565b60003384604051602001612904929190615315565b60405160208183030381529060405280519060200120905061293067d8536f0bcb58106f60c01b613130565b6129446707a7dc041459b82760c01b613130565b6129586728733ab0b1344a8060c01b613130565b6129a6838380806020026020016040519081016040528093929190818152602001838360200280828437600081840152601f19601f82011690508083019250505050505050600d5483613cac565b80156129c257506129c167ef87ba2e5f1ce4e460c01b613ca1565b5b80612a335750612a16838380806020026020016040519081016040528093929190818152602001838360200280828437600081840152601f19601f82011690508083019250505050505050600e5483613cac565b8015612a325750612a31672130f2e4a074d4cf60c01b613ca1565b5b5b612a72576040517f08c379a0000000000000000000000000000000000000000000000000000000008152600401612a6990615398565b60405180910390fd5b612a8667f10a3f23a39e9b5860c01b613130565b612a9a678f7906c807476e7460c01b613130565b612aae676b9fc43c13fd5be960c01b613130565b6000601160003373ffffffffffffffffffffffffffffffffffffffff1673ffffffffffffffffffffffffffffffffffffffff168152602001908152602001600020549050612b066760c72c26678a1c0a60c01b613130565b612b1a670381294b045c680e60c01b613130565b612b2e67764cbb204d3606c360c01b613130565b848682612b3b9190614ecc565b1115612b7c576040517f08c379a0000000000000000000000000000000000000000000000000000000008152600401612b7390615404565b60405180910390fd5b612b90671c09c6c3f7840f6e60c01b613130565b612ba467271454f2497fed7a60c01b613130565b85601160003373ffffffffffffffffffffffffffffffffffffffff1673ffffffffffffffffffffffffffffffffffffffff1681526020019081526020016000206000828254612bf39190614ecc565b92505081905550612c0e679ab60e14b64188fa60c01b613130565b612c2267c2bbe1e2087ea6c660c01b613130565b612c2c8633613cc3565b5050612c36613c98565b50505050565b600a5481565b612c566767e6ca597c3a9a5460c01b613130565b612c5e61379f565b612c7267687c3e29310a7ecb60c01b613130565b612c8667c133b1df1385930760c01b613130565b612c9a67c0aee501d5b8e0c660c01b613130565b612cae67e8cf65082333445f60c01b613130565b6000612cc46703bb36b740a2d54060c01b613130565b612cd867097697a8a3a2507d60c01b613130565b60005b83839050811015612d3457612cfa67ed92a937621e24c960c01b613130565b838382818110612d0d57612d0c614dda565b5b9050602002013582612d1f9190614ecc565b91508080612d2c90615101565b915050612cdb565b50612d49676c4cdaee26cf011460c01b613130565b612d5d6715f1ed3d1155f26860c01b613130565b60648114612dcd57612d79679efa10cbbd3b14c060c01b613130565b612d8d6739e81bb61dc5f7e460c01b613130565b8060646040517f485d33a2000000000000000000000000000000000000000000000000000000008152600401612dc492919061545f565b60405180910390fd5b612de16747664ea3a4dbd1ee60c01b613130565b612df567dab906f143095d9960c01b613130565b612e09679231ee65b16a471d60c01b613130565b60088383905014612e7f57612e286777b2623d773662e260c01b613130565b612e3c6701d81534f2c845c260c01b613130565b8282905060086040517f485d33a2000000000000000000000000000000000000000000000000000000008152600401612e76929190615203565b60405180910390fd5b612e9367179bed43856e207960c01b613130565b612ea7674e778960d7dfa2b960c01b613130565b612ebb67da54b52c739173b360c01b613130565b612ec3611b52565b15612f2257612edc67f964dfbf52daa34f60c01b613130565b612ef067972a0b0703471e3e60c01b613130565b6040517ff2a84b6300000000000000000000000000000000000000000000000000000000815260040160405180910390fd5b612f3667a5b8a6edd746238660c01b613130565b612f4a67c515419b28f7c80360c01b613130565b828260069190612f5b929190614525565b50505050565b612f7567dc388f728c97761f60c01b613130565b612f7d61379f565b612f9167f88f7bfcb801d88e60c01b613130565b612fa5675d8c4b54202d7d8360c01b613130565b612fb96718caa8c5e02f85d260c01b613130565b80600260006101000a81548173ffffffffffffffffffffffffffffffffffffffff021916908373ffffffffffffffffffffffffffffffffffffffff16021790555050565b6000613013671a4ebc78b00573ef60c01b613130565b61302767bdc7170cbfee9cd360c01b613130565b61303b6752fcec0aaeb6c52b60c01b613130565b600454905090565b60116020528060005260406000206000915090505481565b600260009054906101000a900473ffffffffffffffffffffffffffffffffffffffff1681565b61308961379f565b600073ffffffffffffffffffffffffffffffffffffffff168173ffffffffffffffffffffffffffffffffffffffff16036130f8576040517f08c379a00000000000000000000000000000000000000000000000000000000081526004016130ef906154fa565b60405180910390fd5b6131018161381d565b50565b600b5481565b600360009054906101000a900473ffffffffffffffffffffffffffffffffffffffff1681565b50565b613146662d32dde5293bf260c01b613130565b61315a674887cee66f99a6ea60c01b613130565b61316e679e78ced5828e244a60c01b613130565b6131766119d5565b6131e35761318e677a91eccebf376b6660c01b613130565b6131a267c20d062dde9b1b5760c01b613130565b600a54426040517f66803fc10000000000000000000000000000000000000000000000000000000081526004016131da92919061522c565b60405180910390fd5b6131f767b3e10d59fbeac3d160c01b613130565b61320b67a3f8299796b4b69860c01b613130565b61321f67cbb010071578827c60c01b613130565b60008111158015613240575061323f67170f471cce9fb90460c01b613ca1565b5b806132675750601481118015613266575061326567fe8f63d7c0d2782a60c01b613ca1565b5b5b156132c65761328067d3475e3c8835c4fc60c01b613130565b6132946730c61b8bb5f7b6ed60c01b613130565b6040517fca02d6eb00000000000000000000000000000000000000000000000000000000815260040160405180910390fd5b6132da67f69f7f6bc4717be560c01b613130565b6132ee675890a28dc73727fd60c01b613130565b61330267d630133358104b0660c01b613130565b61330c8133613cc3565b50565b613323677347abde5e87075f60c01b613130565b6133376785a9235b54ab383e60c01b613130565b80601260003373ffffffffffffffffffffffffffffffffffffffff1673ffffffffffffffffffffffffffffffffffffffff16815260200190815260200160002060008282546133869190614ecc565b925050819055506133a1673fbefa2e65c6ad4060c01b613130565b6133b567a3d6035414670b9460c01b613130565b6133bf8133613e4c565b50565b6133d66721f854f17a619dce60c01b613130565b6133de613c49565b6133f2672d29528f631b983a60c01b613130565b61340667f68056ccc6c2286a60c01b613130565b61341a67328fc995c6d5cc6160c01b613130565b61342e673e1b01080a3d74ee60c01b613130565b613436611493565b6134a35761344e67ae53225660b0c00460c01b613130565b61346267e1bfd6d2de845d4b60c01b613130565b600c54426040517f66803fc100000000000000000000000000000000000000000000000000000000815260040161349a92919061522c565b60405180910390fd5b6134b76760ef4ef6b7cb30da60c01b613130565b6134cb67f4327e9e403f19ba60c01b613130565b6134df67e3b06c3cfde7150060c01b613130565b600033846040516020016134f4929190615315565b60405160208183030381529060405280519060200120905061352067f2020d793ff6854a60c01b613130565b61353467d1a33101f0af3de260c01b613130565b613548676248980c111d560f60c01b613130565b613596838380806020026020016040519081016040528093929190818152602001838360200280828437600081840152601f19601f82011690508083019250505050505050600f5483613cac565b6135d5576040517f08c379a00000000000000000000000000000000000000000000000000000000081526004016135cc90615398565b60405180910390fd5b6135e967a59ff0ef48bbae2e60c01b613130565b6135fd67a8490b4790bd481060c01b613130565b613611678a7dbb27f8b5ab0260c01b613130565b6000601260003373ffffffffffffffffffffffffffffffffffffffff1673ffffffffffffffffffffffffffffffffffffffff16815260200190815260200160002054905061366967bc405870058996b460c01b613130565b61367d671e67c33f4375a63260c01b613130565b61369167e58c297ef43df6ec60c01b613130565b84868261369e9190614ecc565b11156136df576040517f08c379a00000000000000000000000000000000000000000000000000000000081526004016136d690615566565b60405180910390fd5b6136f3674fb43b28e973022060c01b613130565b61370767fb5353b861b43f7d60c01b613130565b85601260003373ffffffffffffffffffffffffffffffffffffffff1673ffffffffffffffffffffffffffffffffffffffff16815260200190815260200160002060008282546137569190614ecc565b925050819055506137716787531fefcf22797860c01b613130565b61378567a5a99e1c6f5671cc60c01b613130565b61378f8633613e4c565b5050613799613c98565b50505050565b6137a76141c2565b73ffffffffffffffffffffffffffffffffffffffff166137c5611a24565b73ffffffffffffffffffffffffffffffffffffffff161461381b576040517f08c379a0000000000000000000000000000000000000000000000000000000008152600401613812906155d2565b60405180910390fd5b565b60008060009054906101000a900473ffffffffffffffffffffffffffffffffffffffff169050816000806101000a81548173ffffffffffffffffffffffffffffffffffffffff021916908373ffffffffffffffffffffffffffffffffffffffff1602179055508173ffffffffffffffffffffffffffffffffffffffff168173ffffffffffffffffffffffffffffffffffffffff167f8be0079c531659141344cd1fd0a4f28419497f9722a3daafe3b4186f6b6457e060405160405180910390a35050565b60006138f767b7b69d428692e67660c01b613130565b61390b6780b234a3d41180a760c01b613130565b61391f67cebcb33822138c5f60c01b613130565b600060085460106000600781526020019081526020016000205460106000600681526020019081526020016000205460106000600581526020019081526020016000205460106000600481526020019081526020016000205460106000600381526020019081526020016000205460106000600281526020019081526020016000205460106000600181526020019081526020016000205460106000808152602001908152602001600020546139d59190614ecc565b6139df9190614ecc565b6139e99190614ecc565b6139f39190614ecc565b6139fd9190614ecc565b613a079190614ecc565b613a119190614ecc565b613a1b9190614ecc565b9050613a31672e86d2f6948bf8c060c01b613130565b613a4567f74848d41bcc4fd760c01b613130565b60006007846007811115613a5c57613a5b6150d2565b5b81548110613a6d57613a6c614dda565b5b906000526020600020015460106000866007811115613a8f57613a8e6150d2565b5b815260200190815260200160002054613aa89190614ecc565b9050613abe67564144bf0ee4e12660c01b613130565b613ad2678cd3eb8191ec868060c01b613130565b613ae667b4bbb3f1d22e974160c01b613130565b63ffffffff811115613b2d576040517f08c379a0000000000000000000000000000000000000000000000000000000008152600401613b249061563e565b60405180910390fd5b613b4167e3e202698182028660c01b613130565b613b556767a15f355f58daaa60c01b613130565b613b6967d23352d96b15324560c01b613130565b613b7d670703a3f6042de49f60c01b613130565b60ff846007811115613b9257613b916150d2565b5b1115613bd3576040517f08c379a0000000000000000000000000000000000000000000000000000000008152600401613bca906156aa565b60405180910390fd5b613be767378f20b697c6615560c01b613130565b613bfb6732a96c297076a43a60c01b613130565b613c0f6733cec1e32088ff8460c01b613130565b836007811115613c2257613c216150d2565b5b600882901b602884901b613c369190614ecc565b613c409190614ecc565b92505050919050565b600260015403613c8e576040517f08c379a0000000000000000000000000000000000000000000000000000000008152600401613c8590615716565b60405180910390fd5b6002600181905550565b60018081905550565b600060019050919050565b600082613cb985846141ca565b1490509392505050565b613cd7670874d742b6fe0bf560c01b613130565b613ceb67607b08bbdad8fa0b60c01b613130565b613cff673139e7fa650bc8c260c01b613130565b600060095411613d6357613d1d67f74248c46c85982860c01b613130565b613d31671985659a8a1a309c60c01b613130565b6040517fc5fadba600000000000000000000000000000000000000000000000000000000815260040160405180910390fd5b613d77677fc3c6e179e4f1dc60c01b613130565b613d8b67efba781bc545d3b960c01b613130565b613d9f670f360688bb09822b60c01b613130565b613db367fc04df334143f83860c01b613130565b81600954613dc19190615736565b3414613e02576040517f08c379a0000000000000000000000000000000000000000000000000000000008152600401613df9906157ea565b60405180910390fd5b613e166772356e49c995519a60c01b613130565b613e2a6731afd4eed674b8f760c01b613130565b613e3e67221fd0cd800fd4fa60c01b613130565b613e488282613e4c565b5050565b613e60671ee1f24c07d4579260c01b613130565b613e7467a35405845e8f358060c01b613130565b613e886771fc89c06b400a3e60c01b613130565b613e9c6703e29be426e51bc560c01b613130565b3073ffffffffffffffffffffffffffffffffffffffff1663b9a43f2e6040518163ffffffff1660e01b8152600401602060405180830381865afa158015613ee7573d6000803e3d6000fd5b505050506040513d601f19601f82011682018060405250810190613f0b919061581f565b823073ffffffffffffffffffffffffffffffffffffffff166346bf289f6040518163ffffffff1660e01b8152600401602060405180830381865afa158015613f57573d6000803e3d6000fd5b505050506040513d601f19601f82011682018060405250810190613f7b919061581f565b613f859190614ecc565b1115613fc6576040517f08c379a0000000000000000000000000000000000000000000000000000000008152600401613fbd90615898565b60405180910390fd5b613fda673beb38714db2112f60c01b613130565b613fee67646fa67012a5793860c01b613130565b6140026762ce88fb031fca6560c01b613130565b60005b828110156141bd57614021677507475d2ae896d160c01b613130565b6140356742f603b51650c05260c01b613130565b600061403f614220565b905061405567f838637633db809660c01b613130565b61406967906cf2a993cd9de360c01b613130565b600081600781111561407e5761407d6150d2565b5b905061409467aa41500105f89bc560c01b613130565b6140a867e6cbeac77aa455d660c01b613130565b60006140b3826138e1565b90506140c967814b1332d68a4c4d60c01b613130565b60106000848152602001908152602001600020600081546140e990615101565b919050819055506141046714281b738d78481560c01b613130565b614118678b5951849ee59dd660c01b613130565b600260009054906101000a900473ffffffffffffffffffffffffffffffffffffffff1673ffffffffffffffffffffffffffffffffffffffff166386ebf0108683856040518463ffffffff1660e01b815260040161417793929190615191565b600060405180830381600087803b15801561419157600080fd5b505af11580156141a5573d6000803e3d6000fd5b50505050505050806141b690615101565b9050614005565b505050565b600033905090565b60008082905060005b845181101561421557614200828683815181106141f3576141f2614dda565b5b60200260200101516144e3565b9150808061420d90615101565b9150506141d3565b508091505092915050565b600061423667dd09591e8459152860c01b613130565b61424a670f7feed9b761a1ff60c01b613130565b61425e67af3024739d46066160c01b613130565b600061427467ced39f71e411d1ad60c01b613130565b6005600081548092919061428790615101565b91905055506142a06787bd50ddd0ac3c9260c01b613130565b6142b467629d16a5fd52bf8760c01b613130565b60006001606442336005546040516020016142d1939291906158b8565b6040516020818303038152906040528051906020012060001c6142f49190615924565b6142fe9190614ecc565b90506143146786fc15fc787f143860c01b613130565b61432867589127419134cd3260c01b613130565b600061433e678ab0f54fe1a2231360c01b613130565b61435267f1f9fa02041519da60c01b613130565b6000600660008154811061436957614368614dda565b5b9060005260206000200154905061438a67b9b87a09a87fba5f60c01b613130565b61439e67c3f079cedca022b260c01b613130565b6000600190505b6006805490508110156144b0576143c667e870bdac8922305060c01b613130565b8192506143dd67b19f42201589c7ab60c01b613130565b600681815481106143f1576143f0614dda565b5b9060005260206000200154826144079190614ecc565b915061441d6724d6133c71a786ef60c01b613130565b6144316799d345d73a492ef660c01b613130565b82841180156144405750818411155b15614489576144596702f4a05e2c219ea560c01b613130565b61446d671c3d5598119843ca60c01b613130565b809450614484670e9160a6f5dc6caf60c01b613130565b6144b0565b61449d67406ebe6c89e97a6c60c01b613130565b80806144a890615101565b9150506143a5565b506144c56705e4b028806973d060c01b613130565b6144d96788bded0f1301af1860c01b613130565b8394505050505090565b60008183106144fb576144f6828461450e565b614506565b614505838361450e565b5b905092915050565b600082600052816020526040600020905092915050565b828054828255906000526020600020908101928215614561579160200282015b82811115614560578235825591602001919060010190614545565b5b50905061456e9190614572565b5090565b5b8082111561458b576000816000905550600101614573565b5090565b600081519050919050565b600082825260208201905092915050565b6000819050602082019050919050565b6000819050919050565b6145ce816145bb565b82525050565b60006145e083836145c5565b60208301905092915050565b6000602082019050919050565b60006146048261458f565b61460e818561459a565b9350614619836145ab565b8060005b8381101561464a57815161463188826145d4565b975061463c836145ec565b92505060018101905061461d565b5085935050505092915050565b6000602082019050818103600083015261467181846145f9565b905092915050565b600080fd5b600080fd5b61468c816145bb565b811461469757600080fd5b50565b6000813590506146a981614683565b92915050565b600080fd5b600080fd5b600080fd5b60008083601f8401126146d4576146d36146af565b5b8235905067ffffffffffffffff8111156146f1576146f06146b4565b5b60208301915083602082028301111561470d5761470c6146b9565b5b9250929050565b6000806000806060858703121561472e5761472d614679565b5b600061473c8782880161469a565b945050602061474d8782880161469a565b935050604085013567ffffffffffffffff81111561476e5761476d61467e565b5b61477a878288016146be565b925092505092959194509250565b60006020828403121561479e5761479d614679565b5b60006147ac8482850161469a565b91505092915050565b6147be816145bb565b82525050565b60006020820190506147d960008301846147b5565b92915050565b6000819050919050565b6147f2816147df565b82525050565b600060208201905061480d60008301846147e9565b92915050565b60008115159050919050565b61482881614813565b82525050565b6000602082019050614843600083018461481f565b92915050565b614852816147df565b811461485d57600080fd5b50565b60008135905061486f81614849565b92915050565b60006020828403121561488b5761488a614679565b5b600061489984828501614860565b91505092915050565b600073ffffffffffffffffffffffffffffffffffffffff82169050919050565b60006148cd826148a2565b9050919050565b6148dd816148c2565b81146148e857600080fd5b50565b6000813590506148fa816148d4565b92915050565b60006020828403121561491657614915614679565b5b6000614924848285016148eb565b91505092915050565b6000614938826148a2565b9050919050565b6149488161492d565b811461495357600080fd5b50565b6000813590506149658161493f565b92915050565b60006020828403121561498157614980614679565b5b600061498f84828501614956565b91505092915050565b6149a1816148c2565b82525050565b60006020820190506149bc6000830184614998565b92915050565b60006149cd826148c2565b9050919050565b6149dd816149c2565b81146149e857600080fd5b50565b6000813590506149fa816149d4565b92915050565b60008060408385031215614a1757614a16614679565b5b6000614a25858286016149eb565b9250506020614a368582860161469a565b9150509250929050565b60008083601f840112614a5657614a556146af565b5b8235905067ffffffffffffffff811115614a7357614a726146b4565b5b602083019150836020820283011115614a8f57614a8e6146b9565b5b9250929050565b60008083601f840112614aac57614aab6146af565b5b8235905067ffffffffffffffff811115614ac957614ac86146b4565b5b602083019150836020820283011115614ae557614ae46146b9565b5b9250929050565b60008060008060408587031215614b0657614b05614679565b5b600085013567ffffffffffffffff811115614b2457614b2361467e565b5b614b3087828801614a40565b9450945050602085013567ffffffffffffffff811115614b5357614b5261467e565b5b614b5f87828801614a96565b925092505092959194509250565b60008083601f840112614b8357614b826146af565b5b8235905067ffffffffffffffff811115614ba057614b9f6146b4565b5b602083019150836020820283011115614bbc57614bbb6146b9565b5b9250929050565b60008060208385031215614bda57614bd9614679565b5b600083013567ffffffffffffffff811115614bf857614bf761467e565b5b614c0485828601614b6d565b92509250509250929050565b6000614c1b826148c2565b9050919050565b614c2b81614c10565b8114614c3657600080fd5b50565b600081359050614c4881614c22565b92915050565b600060208284031215614c6457614c63614679565b5b6000614c7284828501614c39565b91505092915050565b6000819050919050565b6000614ca0614c9b614c96846148a2565b614c7b565b6148a2565b9050919050565b6000614cb282614c85565b9050919050565b6000614cc482614ca7565b9050919050565b614cd481614cb9565b82525050565b6000602082019050614cef6000830184614ccb565b92915050565b614cfe8161492d565b82525050565b6000602082019050614d196000830184614cf5565b92915050565b7f4e487b7100000000000000000000000000000000000000000000000000000000600052601160045260246000fd5b6000614d59826145bb565b9150614d64836145bb565b9250828203905081811115614d7c57614d7b614d1f565b5b92915050565b6000614d8d826145bb565b915060008203614da057614d9f614d1f565b5b600182039050919050565b7f4e487b7100000000000000000000000000000000000000000000000000000000600052604160045260246000fd5b7f4e487b7100000000000000000000000000000000000000000000000000000000600052603260045260246000fd5b600081905092915050565b50565b6000614e24600083614e09565b9150614e2f82614e14565b600082019050919050565b6000614e4582614e17565b9150819050919050565b600082825260208201905092915050565b7f776974686472617720776173206e6f742073756363657366756c6c0000000000600082015250565b6000614e96601b83614e4f565b9150614ea182614e60565b602082019050919050565b60006020820190508181036000830152614ec581614e89565b9050919050565b6000614ed7826145bb565b9150614ee2836145bb565b9250828201905080821115614efa57614ef9614d1f565b5b92915050565b7f776974686472617720616c6c20776173206e6f742073756363657366756c6c00600082015250565b6000614f36601f83614e4f565b9150614f4182614f00565b602082019050919050565b60006020820190508181036000830152614f6581614f29565b9050919050565b6000604082019050614f816000830185614998565b614f8e60208301846147b5565b9392505050565b614f9e81614813565b8114614fa957600080fd5b50565b600081519050614fbb81614f95565b92915050565b600060208284031215614fd757614fd6614679565b5b6000614fe584828501614fac565b91505092915050565b7f4172726179732073686f756c642068617665207468652073616d652073697a6560008201527f2e00000000000000000000000000000000000000000000000000000000000000602082015250565b600061504a602183614e4f565b915061505582614fee565b604082019050919050565b600060208201905081810360008301526150798161503d565b9050919050565b6008811061508d57600080fd5b50565b60008135905061509f81615080565b92915050565b6000602082840312156150bb576150ba614679565b5b60006150c984828501615090565b91505092915050565b7f4e487b7100000000000000000000000000000000000000000000000000000000600052602160045260246000fd5b600061510c826145bb565b91507fffffffffffffffffffffffffffffffffffffffffffffffffffffffffffffffff820361513e5761513d614d1f565b5b600182019050919050565b6008811061515a576151596150d2565b5b50565b600081905061516b82615149565b919050565b600061517b8261515d565b9050919050565b61518b81615170565b82525050565b60006060820190506151a66000830186614998565b6151b360208301856147b5565b6151c06040830184615182565b949350505050565b6000819050919050565b60006151ed6151e86151e3846151c8565b614c7b565b6145bb565b9050919050565b6151fd816151d2565b82525050565b600060408201905061521860008301856147b5565b61522560208301846151f4565b9392505050565b600060408201905061524160008301856147b5565b61524e60208301846147b5565b9392505050565b60008160601b9050919050565b600061526d82615255565b9050919050565b600061527f82615262565b9050919050565b615297615292826148c2565b615274565b82525050565b600081905092915050565b7f3a00000000000000000000000000000000000000000000000000000000000000600082015250565b60006152de60018361529d565b91506152e9826152a8565b600182019050919050565b6000819050919050565b61530f61530a826145bb565b6152f4565b82525050565b60006153218285615286565b601482019150615330826152d1565b915061533c82846152fe565b6020820191508190509392505050565b7f496e76616c69642070726f6f662e000000000000000000000000000000000000600082015250565b6000615382600e83614e4f565b915061538d8261534c565b602082019050919050565b600060208201905081810360008301526153b181615375565b9050919050565b7f4d696e74696e67206d6f7265207468616e20616c6c6f7765642e000000000000600082015250565b60006153ee601a83614e4f565b91506153f9826153b8565b602082019050919050565b6000602082019050818103600083015261541d816153e1565b9050919050565b6000819050919050565b600061544961544461543f84615424565b614c7b565b6145bb565b9050919050565b6154598161542e565b82525050565b600060408201905061547460008301856147b5565b6154816020830184615450565b9392505050565b7f4f776e61626c653a206e6577206f776e657220697320746865207a65726f206160008201527f6464726573730000000000000000000000000000000000000000000000000000602082015250565b60006154e4602683614e4f565b91506154ef82615488565b604082019050919050565b60006020820190508181036000830152615513816154d7565b9050919050565b7f436c61696d696e67206d6f7265207468616e20616c6c6f7765642e0000000000600082015250565b6000615550601b83614e4f565b915061555b8261551a565b602082019050919050565b6000602082019050818103600083015261557f81615543565b9050919050565b7f4f776e61626c653a2063616c6c6572206973206e6f7420746865206f776e6572600082015250565b60006155bc602083614e4f565b91506155c782615586565b602082019050919050565b600060208201905081810360008301526155eb816155af565b9050919050565b7f4c6f63616c20696e646578206f766572666c6f772e0000000000000000000000600082015250565b6000615628601583614e4f565b9150615633826155f2565b602082019050919050565b600060208201905081810360008301526156578161561b565b9050919050565b7f52696e6720696e646578206f766572666c6f772e000000000000000000000000600082015250565b6000615694601483614e4f565b915061569f8261565e565b602082019050919050565b600060208201905081810360008301526156c381615687565b9050919050565b7f5265656e7472616e637947756172643a207265656e7472616e742063616c6c00600082015250565b6000615700601f83614e4f565b915061570b826156ca565b602082019050919050565b6000602082019050818103600083015261572f816156f3565b9050919050565b6000615741826145bb565b915061574c836145bb565b925082820261575a816145bb565b9150828204841483151761577157615770614d1f565b5b5092915050565b7f45746865722076616c75652073656e74206973206e6f7420616363757261746560008201527f2e00000000000000000000000000000000000000000000000000000000000000602082015250565b60006157d4602183614e4f565b91506157df82615778565b604082019050919050565b60006020820190508181036000830152615803816157c7565b9050919050565b60008151905061581981614683565b92915050565b60006020828403121561583557615834614679565b5b60006158438482850161580a565b91505092915050565b7f547279696e6720746f206d696e7420746f6f206d616e792072696e67732e0000600082015250565b6000615882601e83614e4f565b915061588d8261584c565b602082019050919050565b600060208201905081810360008301526158b181615875565b9050919050565b60006158c482866152fe565b6020820191506158d48285615286565b6014820191506158e482846152fe565b602082019150819050949350505050565b7f4e487b7100000000000000000000000000000000000000000000000000000000600052601260045260246000fd5b600061592f826145bb565b915061593a836145bb565b92508261594a576159496158f5565b5b82820690509291505056fea2646970667358221220981bd10ea39845193c6aadd418d742c7aa6cf1e1ab3ee835b2c20dd98646545164736f6c63430008120033",
  "linkReferences": {},
  "deployedLinkReferences": {}
}