{
  "_format": "hh-sol-artifact-1",
  "contractName": "FundersRingMinter",
  "sourceName": "contracts/FundersRingMinter.sol",
  "abi": [
    {
      "inputs": [
        {
          "internalType": "contract IFundersRing",
          "name": "_fundersRing",
          "type": "address"
        }
      ],
      "stateMutability": "nonpayable",
      "type": "constructor"
    },
    {
      "inputs": [],
      "name": "Address0Error",
      "type": "error"
    },
    {
      "inputs": [],
      "name": "DeniedProcessDuringMinting",
      "type": "error"
    },
    {
      "inputs": [
        {
          "internalType": "uint256",
          "name": "sended_values",
          "type": "uint256"
        },
        {
          "internalType": "uint256",
          "name": "expected",
          "type": "uint256"
        }
      ],
      "name": "GivenValuesNotValid",
      "type": "error"
    },
    {
      "inputs": [],
      "name": "IncorrectPurchaseLimit",
      "type": "error"
    },
    {
      "inputs": [],
      "name": "MisconfiguredPrices",
      "type": "error"
    },
    {
      "inputs": [
        {
          "internalType": "uint256",
          "name": "correct_date",
          "type": "uint256"
        },
        {
          "internalType": "uint256",
          "name": "current_date",
          "type": "uint256"
        }
      ],
      "name": "WrongDateForProcess",
      "type": "error"
    },
    {
      "anonymous": false,
      "inputs": [
        {
          "indexed": true,
          "internalType": "address",
          "name": "previousOwner",
          "type": "address"
        },
        {
          "indexed": true,
          "internalType": "address",
          "name": "newOwner",
          "type": "address"
        }
      ],
      "name": "OwnershipTransferred",
      "type": "event"
    },
    {
      "inputs": [],
      "name": "claimlistMerkleRoot",
      "outputs": [
        {
          "internalType": "bytes32",
          "name": "",
          "type": "bytes32"
        }
      ],
      "stateMutability": "view",
      "type": "function"
    },
    {
      "inputs": [
        {
          "internalType": "uint256",
          "name": "numRings",
          "type": "uint256"
        },
        {
          "internalType": "uint256",
          "name": "claimedMaxRings",
          "type": "uint256"
        },
        {
          "internalType": "bytes32[]",
          "name": "_merkleProof",
          "type": "bytes32[]"
        }
      ],
      "name": "claimlistMint",
      "outputs": [],
      "stateMutability": "payable",
      "type": "function"
    },
    {
      "inputs": [
        {
          "internalType": "address",
          "name": "",
          "type": "address"
        }
      ],
      "name": "claimlistMinted",
      "outputs": [
        {
          "internalType": "uint256",
          "name": "",
          "type": "uint256"
        }
      ],
      "stateMutability": "view",
      "type": "function"
    },
    {
      "inputs": [],
      "name": "claimsStartTime",
      "outputs": [
        {
          "internalType": "uint256",
          "name": "",
          "type": "uint256"
        }
      ],
      "stateMutability": "view",
      "type": "function"
    },
    {
      "inputs": [],
      "name": "claimsStarted",
      "outputs": [
        {
          "internalType": "bool",
          "name": "",
          "type": "bool"
        }
      ],
      "stateMutability": "view",
      "type": "function"
    },
    {
      "inputs": [
        {
          "internalType": "contract IERC20",
          "name": "_token",
          "type": "address"
        },
        {
          "internalType": "uint256",
          "name": "_amount",
          "type": "uint256"
        }
      ],
      "name": "forwardERC20s",
      "outputs": [],
      "stateMutability": "nonpayable",
      "type": "function"
    },
    {
      "inputs": [],
      "name": "fundersRing",
      "outputs": [
        {
          "internalType": "contract IFundersRing",
          "name": "",
          "type": "address"
        }
      ],
      "stateMutability": "view",
      "type": "function"
    },
    {
      "inputs": [],
      "name": "getAvailableRings",
      "outputs": [
        {
          "internalType": "uint256",
          "name": "",
          "type": "uint256"
        }
      ],
      "stateMutability": "view",
      "type": "function"
    },
    {
      "inputs": [],
      "name": "getInitialRings",
      "outputs": [
        {
          "internalType": "uint256",
          "name": "",
          "type": "uint256"
        }
      ],
      "stateMutability": "view",
      "type": "function"
    },
    {
      "inputs": [],
      "name": "getRingPrice",
      "outputs": [
        {
          "internalType": "uint256",
          "name": "",
          "type": "uint256"
        }
      ],
      "stateMutability": "view",
      "type": "function"
    },
    {
      "inputs": [
        {
          "internalType": "uint256",
          "name": "tokenId",
          "type": "uint256"
        }
      ],
      "name": "getTokenIdRingType",
      "outputs": [
        {
          "internalType": "uint256",
          "name": "",
          "type": "uint256"
        }
      ],
      "stateMutability": "pure",
      "type": "function"
    },
    {
      "inputs": [],
      "name": "getTotalMintedRings",
      "outputs": [
        {
          "internalType": "uint256",
          "name": "",
          "type": "uint256"
        }
      ],
      "stateMutability": "view",
      "type": "function"
    },
    {
      "inputs": [],
      "name": "getTotalMintedRingsByType",
      "outputs": [
        {
          "internalType": "uint256[]",
          "name": "",
          "type": "uint256[]"
        }
      ],
      "stateMutability": "view",
      "type": "function"
    },
    {
      "inputs": [
        {
          "internalType": "uint256",
          "name": "numRings",
          "type": "uint256"
        }
      ],
      "name": "mint",
      "outputs": [],
      "stateMutability": "payable",
      "type": "function"
    },
    {
      "inputs": [
        {
          "internalType": "uint256",
          "name": "payedMints",
          "type": "uint256"
        },
        {
          "internalType": "uint256",
          "name": "maxClaim",
          "type": "uint256"
        },
        {
          "internalType": "bytes32[]",
          "name": "_merkleHash",
          "type": "bytes32[]"
        }
      ],
      "name": "mintWithClaim",
      "outputs": [],
      "stateMutability": "payable",
      "type": "function"
    },
    {
      "inputs": [],
      "name": "mintlistMerkleRoot1",
      "outputs": [
        {
          "internalType": "bytes32",
          "name": "",
          "type": "bytes32"
        }
      ],
      "stateMutability": "view",
      "type": "function"
    },
    {
      "inputs": [],
      "name": "mintlistMerkleRoot2",
      "outputs": [
        {
          "internalType": "bytes32",
          "name": "",
          "type": "bytes32"
        }
      ],
      "stateMutability": "view",
      "type": "function"
    },
    {
      "inputs": [
        {
          "internalType": "uint256",
          "name": "numRings",
          "type": "uint256"
        },
        {
          "internalType": "uint256",
          "name": "claimedMaxRings",
          "type": "uint256"
        },
        {
          "internalType": "bytes32[]",
          "name": "_merkleProof",
          "type": "bytes32[]"
        }
      ],
      "name": "mintlistMint",
      "outputs": [],
      "stateMutability": "payable",
      "type": "function"
    },
    {
      "inputs": [
        {
          "internalType": "address",
          "name": "",
          "type": "address"
        }
      ],
      "name": "mintlistMinted",
      "outputs": [
        {
          "internalType": "uint256",
          "name": "",
          "type": "uint256"
        }
      ],
      "stateMutability": "view",
      "type": "function"
    },
    {
      "inputs": [],
      "name": "mintlistStartTime",
      "outputs": [
        {
          "internalType": "uint256",
          "name": "",
          "type": "uint256"
        }
      ],
      "stateMutability": "view",
      "type": "function"
    },
    {
      "inputs": [],
      "name": "mintlistStarted",
      "outputs": [
        {
          "internalType": "bool",
          "name": "",
          "type": "bool"
        }
      ],
      "stateMutability": "view",
      "type": "function"
    },
    {
      "inputs": [
        {
          "internalType": "address",
          "name": "_who",
          "type": "address"
        },
        {
          "internalType": "bytes32",
          "name": "_leaf",
          "type": "bytes32"
        },
        {
          "internalType": "bytes32[]",
          "name": "_merkleProof",
          "type": "bytes32[]"
        }
      ],
      "name": "mintlisted",
      "outputs": [
        {
          "internalType": "bool",
          "name": "",
          "type": "bool"
        }
      ],
      "stateMutability": "view",
      "type": "function"
    },
    {
      "inputs": [],
      "name": "owner",
      "outputs": [
        {
          "internalType": "address",
          "name": "",
          "type": "address"
        }
      ],
      "stateMutability": "view",
      "type": "function"
    },
    {
      "inputs": [
        {
          "internalType": "enum IFundersRing.FundersRingType[]",
          "name": "ringTypes",
          "type": "uint8[]"
        },
        {
          "internalType": "address[]",
          "name": "recipients",
          "type": "address[]"
        }
      ],
      "name": "ownerMint",
      "outputs": [],
      "stateMutability": "nonpayable",
      "type": "function"
    },
    {
      "inputs": [],
      "name": "publicMintStartTime",
      "outputs": [
        {
          "internalType": "uint256",
          "name": "",
          "type": "uint256"
        }
      ],
      "stateMutability": "view",
      "type": "function"
    },
    {
      "inputs": [],
      "name": "publicStarted",
      "outputs": [
        {
          "internalType": "bool",
          "name": "",
          "type": "bool"
        }
      ],
      "stateMutability": "view",
      "type": "function"
    },
    {
      "inputs": [],
      "name": "renounceOwnership",
      "outputs": [],
      "stateMutability": "nonpayable",
      "type": "function"
    },
    {
      "inputs": [],
      "name": "ringGlobalOffset",
      "outputs": [
        {
          "internalType": "uint256",
          "name": "",
          "type": "uint256"
        }
      ],
      "stateMutability": "view",
      "type": "function"
    },
    {
      "inputs": [],
      "name": "ringPrice",
      "outputs": [
        {
          "internalType": "uint256",
          "name": "",
          "type": "uint256"
        }
      ],
      "stateMutability": "view",
      "type": "function"
    },
    {
      "inputs": [
        {
          "internalType": "uint256",
          "name": "",
          "type": "uint256"
        }
      ],
      "name": "ringTypeLocalOffset",
      "outputs": [
        {
          "internalType": "uint256",
          "name": "",
          "type": "uint256"
        }
      ],
      "stateMutability": "view",
      "type": "function"
    },
    {
      "inputs": [
        {
          "internalType": "uint256",
          "name": "",
          "type": "uint256"
        }
      ],
      "name": "ringsMinted",
      "outputs": [
        {
          "internalType": "uint256",
          "name": "",
          "type": "uint256"
        }
      ],
      "stateMutability": "view",
      "type": "function"
    },
    {
      "inputs": [
        {
          "internalType": "bytes32",
          "name": "newMerkleRoot",
          "type": "bytes32"
        }
      ],
      "name": "setClaimlistMerkleRoot",
      "outputs": [],
      "stateMutability": "nonpayable",
      "type": "function"
    },
    {
      "inputs": [
        {
          "internalType": "uint256",
          "name": "_newClaimsStartTime",
          "type": "uint256"
        }
      ],
      "name": "setClaimsStartTime",
      "outputs": [],
      "stateMutability": "nonpayable",
      "type": "function"
    },
    {
      "inputs": [
        {
          "internalType": "contract IFundersRing",
          "name": "_newFundersRingAddress",
          "type": "address"
        }
      ],
      "name": "setFundersRing",
      "outputs": [],
      "stateMutability": "nonpayable",
      "type": "function"
    },
    {
      "inputs": [
        {
          "internalType": "uint256",
          "name": "_newGlobalIdOffset",
          "type": "uint256"
        }
      ],
      "name": "setGlobalIdOffset",
      "outputs": [],
      "stateMutability": "nonpayable",
      "type": "function"
    },
    {
      "inputs": [
        {
          "internalType": "uint256[]",
          "name": "_newRingTypeLocalOffset",
          "type": "uint256[]"
        }
      ],
      "name": "setLocalIdOffsets",
      "outputs": [],
      "stateMutability": "nonpayable",
      "type": "function"
    },
    {
      "inputs": [
        {
          "internalType": "bytes32",
          "name": "newMerkleRoot",
          "type": "bytes32"
        }
      ],
      "name": "setMintlistMerkleRoot1",
      "outputs": [],
      "stateMutability": "nonpayable",
      "type": "function"
    },
    {
      "inputs": [
        {
          "internalType": "bytes32",
          "name": "newMerkleRoot",
          "type": "bytes32"
        }
      ],
      "name": "setMintlistMerkleRoot2",
      "outputs": [],
      "stateMutability": "nonpayable",
      "type": "function"
    },
    {
      "inputs": [
        {
          "internalType": "uint256",
          "name": "_newAllowlistMintStartTime",
          "type": "uint256"
        }
      ],
      "name": "setMintlistStartTime",
      "outputs": [],
      "stateMutability": "nonpayable",
      "type": "function"
    },
    {
      "inputs": [
        {
          "internalType": "uint256",
          "name": "_newPrice",
          "type": "uint256"
        }
      ],
      "name": "setPrice",
      "outputs": [],
      "stateMutability": "nonpayable",
      "type": "function"
    },
    {
      "inputs": [
        {
          "internalType": "uint256",
          "name": "_newPublicMintStartTime",
          "type": "uint256"
        }
      ],
      "name": "setPublicMintStartTime",
      "outputs": [],
      "stateMutability": "nonpayable",
      "type": "function"
    },
    {
      "inputs": [
        {
          "internalType": "uint256",
          "name": "_newRingsAvailable",
          "type": "uint256"
        }
      ],
      "name": "setRingsAvailable",
      "outputs": [],
      "stateMutability": "nonpayable",
      "type": "function"
    },
    {
      "inputs": [
        {
          "internalType": "address payable",
          "name": "_newVaultAddress",
          "type": "address"
        }
      ],
      "name": "setVaultAddress",
      "outputs": [],
      "stateMutability": "nonpayable",
      "type": "function"
    },
    {
      "inputs": [
        {
          "internalType": "address",
          "name": "newOwner",
          "type": "address"
        }
      ],
      "name": "transferOwnership",
      "outputs": [],
      "stateMutability": "nonpayable",
      "type": "function"
    },
    {
      "inputs": [],
      "name": "vault",
      "outputs": [
        {
          "internalType": "address payable",
          "name": "",
          "type": "address"
        }
      ],
      "stateMutability": "view",
      "type": "function"
    },
    {
      "inputs": [
        {
          "internalType": "uint256",
          "name": "_amount",
          "type": "uint256"
        }
      ],
      "name": "withdraw",
      "outputs": [],
      "stateMutability": "nonpayable",
      "type": "function"
    },
    {
      "inputs": [],
      "name": "withdrawAll",
      "outputs": [],
      "stateMutability": "nonpayable",
      "type": "function"
    }
  ],
  "bytecode": "0x60806040526127106004556000600555604051806101000160405280600e60ff168152602001600e60ff168152602001600e60ff168152602001600e60ff168152602001600e60ff168152602001600e60ff168152602001600e60ff168152602001600260ff1681525060069060086200007b9291906200042f565b50604051806101000160405280600160ff168152602001600160ff168152602001600160ff168152602001600160ff168152602001600160ff168152602001600160ff168152602001600160ff168152602001600160ff168152506007906008620000e89291906200042f565b5060016008557fffffffffffffffffffffffffffffffffffffffffffffffffffffffffffffffff6009557fffffffffffffffffffffffffffffffffffffffffffffffffffffffffffffffff600a557fffffffffffffffffffffffffffffffffffffffffffffffffffffffffffffffff600b557fffffffffffffffffffffffffffffffffffffffffffffffffffffffffffffffff600c553480156200018b57600080fd5b506040516200430d3803806200430d8339818101604052810190620001b1919062000523565b620001d1620001c56200020160201b60201c565b6200020960201b60201c565b60018081905550620001e981620002cd60201b60201c565b620001fa336200032160201b60201c565b50620005d8565b600033905090565b60008060009054906101000a900473ffffffffffffffffffffffffffffffffffffffff169050816000806101000a81548173ffffffffffffffffffffffffffffffffffffffff021916908373ffffffffffffffffffffffffffffffffffffffff1602179055508173ffffffffffffffffffffffffffffffffffffffff168173ffffffffffffffffffffffffffffffffffffffff167f8be0079c531659141344cd1fd0a4f28419497f9722a3daafe3b4186f6b6457e060405160405180910390a35050565b620002dd6200037560201b60201c565b80600260006101000a81548173ffffffffffffffffffffffffffffffffffffffff021916908373ffffffffffffffffffffffffffffffffffffffff16021790555050565b620003316200037560201b60201c565b80600360006101000a81548173ffffffffffffffffffffffffffffffffffffffff021916908373ffffffffffffffffffffffffffffffffffffffff16021790555050565b620003856200020160201b60201c565b73ffffffffffffffffffffffffffffffffffffffff16620003ab6200040660201b60201c565b73ffffffffffffffffffffffffffffffffffffffff161462000404576040517f08c379a0000000000000000000000000000000000000000000000000000000008152600401620003fb90620005b6565b60405180910390fd5b565b60008060009054906101000a900473ffffffffffffffffffffffffffffffffffffffff16905090565b82805482825590600052602060002090810192821562000473579160200282015b8281111562000472578251829060ff1690559160200191906001019062000450565b5b50905062000482919062000486565b5090565b5b80821115620004a157600081600090555060010162000487565b5090565b600080fd5b600073ffffffffffffffffffffffffffffffffffffffff82169050919050565b6000620004d782620004aa565b9050919050565b6000620004eb82620004ca565b9050919050565b620004fd81620004de565b81146200050957600080fd5b50565b6000815190506200051d81620004f2565b92915050565b6000602082840312156200053c576200053b620004a5565b5b60006200054c848285016200050c565b91505092915050565b600082825260208201905092915050565b7f4f776e61626c653a2063616c6c6572206973206e6f7420746865206f776e6572600082015250565b60006200059e60208362000555565b9150620005ab8262000566565b602082019050919050565b60006020820190508181036000830152620005d1816200058f565b9050919050565b613d2580620005e86000396000f3fe6080604052600436106102885760003560e01c80638c6d8ef61161015a578063ae6b6dae116100c1578063d3cf00a31161007a578063d3cf00a314610948578063df477ead14610973578063e49618c11461099e578063f2fde38b146109db578063f4cde4c014610a04578063fbfa77cf14610a2f57610288565b8063ae6b6dae1461085d578063b9a43f2e14610886578063c2774dac146108b1578063cc644fd2146108da578063cef5828314610903578063d012468f1461092c57610288565b80639727151a116101135780639727151a146107705780639b68a6ef146107995780639f0664b5146107c4578063a0712d68146107ed578063a0e52f8914610809578063a637f9731461083457610288565b80638c6d8ef61461065e5780638d56a17b146106895780638da5cb5b146106b457806391b7f5ed146106df57806393cb41471461070857806396c9f88b1461073357610288565b8063411d13f7116101fe5780636138f236116101b75780636138f236146105645780636e1a1a60146105a1578063715018a6146105ca578063792a77d9146105e1578063853828b61461061e57806385535cc51461063557610288565b8063411d13f71461047557806346bf289f1461049e5780634c3db84d146104c95780634ed1eb24146104e55780635242a493146105105780635fcd80a61461053b57610288565b80632560e376116102505780632560e37614610365578063260c0886146103905780632701b325146103b95780632ce82a71146103f65780632e1a7d4d146104215780633e97414f1461044a57610288565b80630747eda81461028d578063158ae298146102a95780631af3ba81146102e65780631c7f4a0214610311578063205ed3821461033c575b600080fd5b6102a760048036038101906102a291906128e8565b610a5a565b005b3480156102b557600080fd5b506102d060048036038101906102cb919061295c565b610bcd565b6040516102dd9190612998565b60405180910390f35b3480156102f257600080fd5b506102fb610be5565b6040516103089190612998565b60405180910390f35b34801561031d57600080fd5b50610326610beb565b60405161033391906129cc565b60405180910390f35b34801561034857600080fd5b50610363600480360381019061035e919061295c565b610bf1565b005b34801561037157600080fd5b5061037a610c42565b60405161038791906129cc565b60405180910390f35b34801561039c57600080fd5b506103b760048036038101906103b2919061295c565b610c48565b005b3480156103c557600080fd5b506103e060048036038101906103db919061295c565b610c5a565b6040516103ed9190612998565b60405180910390f35b34801561040257600080fd5b5061040b610c67565b6040516104189190612aa5565b60405180910390f35b34801561042d57600080fd5b506104486004803603810190610443919061295c565b610e65565b005b34801561045657600080fd5b5061045f610f3f565b60405161046c9190612ae2565b60405180910390f35b34801561048157600080fd5b5061049c60048036038101906104979190612b29565b610f4c565b005b3480156104aa57600080fd5b506104b3610f5e565b6040516104c09190612998565b60405180910390f35b6104e360048036038101906104de91906128e8565b611057565b005b3480156104f157600080fd5b506104fa611268565b60405161050791906129cc565b60405180910390f35b34801561051c57600080fd5b5061052561126e565b6040516105329190612998565b60405180910390f35b34801561054757600080fd5b50610562600480360381019061055d919061295c565b611274565b005b34801561057057600080fd5b5061058b60048036038101906105869190612bb4565b611286565b6040516105989190612998565b60405180910390f35b3480156105ad57600080fd5b506105c860048036038101906105c3919061295c565b61129e565b005b3480156105d657600080fd5b506105df6112b0565b005b3480156105ed57600080fd5b5061060860048036038101906106039190612be1565b6112c4565b6040516106159190612ae2565b60405180910390f35b34801561062a57600080fd5b506106336113c1565b005b34801561064157600080fd5b5061065c60048036038101906106579190612c93565b61149a565b005b34801561066a57600080fd5b506106736114e6565b6040516106809190612ae2565b60405180910390f35b34801561069557600080fd5b5061069e6114f3565b6040516106ab9190612998565b60405180910390f35b3480156106c057600080fd5b506106c96114f9565b6040516106d69190612ccf565b60405180910390f35b3480156106eb57600080fd5b506107066004803603810190610701919061295c565b611522565b005b34801561071457600080fd5b5061071d611573565b60405161072a9190612ae2565b60405180910390f35b34801561073f57600080fd5b5061075a6004803603810190610755919061295c565b611580565b6040516107679190612998565b60405180910390f35b34801561077c57600080fd5b5061079760048036038101906107929190612d28565b6115a4565b005b3480156107a557600080fd5b506107ae611695565b6040516107bb9190612dc7565b60405180910390f35b3480156107d057600080fd5b506107eb60048036038101906107e69190612e8e565b6116bb565b005b6108076004803603810190610802919061295c565b611845565b005b34801561081557600080fd5b5061081e6118f6565b60405161082b9190612998565b60405180910390f35b34801561084057600080fd5b5061085b6004803603810190610856919061295c565b611900565b005b34801561086957600080fd5b50610884600480360381019061087f9190612f4d565b611951565b005b34801561089257600080fd5b5061089b61199d565b6040516108a89190612998565b60405180910390f35b3480156108bd57600080fd5b506108d860048036038101906108d39190612b29565b611abb565b005b3480156108e657600080fd5b5061090160048036038101906108fc9190612fd0565b611acd565b005b34801561090f57600080fd5b5061092a60048036038101906109259190612b29565b611b78565b005b610946600480360381019061094191906128e8565b611b8a565b005b34801561095457600080fd5b5061095d611e37565b60405161096a9190612998565b60405180910390f35b34801561097f57600080fd5b50610988611e3d565b6040516109959190612998565b60405180910390f35b3480156109aa57600080fd5b506109c560048036038101906109c09190612bb4565b611e47565b6040516109d29190612998565b60405180910390f35b3480156109e757600080fd5b50610a0260048036038101906109fd9190612bb4565b611e5f565b005b348015610a1057600080fd5b50610a19611ee2565b604051610a269190612998565b60405180910390f35b348015610a3b57600080fd5b50610a44611ee8565b604051610a51919061302c565b60405180910390f35b610a62611f0e565b3073ffffffffffffffffffffffffffffffffffffffff1663a0712d68856040518263ffffffff1660e01b8152600401610a9b9190612998565b600060405180830381600087803b158015610ab557600080fd5b505af1158015610ac9573d6000803e3d6000fd5b505050506000601260003373ffffffffffffffffffffffffffffffffffffffff1673ffffffffffffffffffffffffffffffffffffffff16815260200190815260200160002054905060008185610b1f9190613076565b905060008203610b4257610b336001611f5d565b8080610b3e906130aa565b9150505b6000811115610bbd573073ffffffffffffffffffffffffffffffffffffffff16634c3db84d828787876040518563ffffffff1660e01b8152600401610b8a949392919061314e565b600060405180830381600087803b158015610ba457600080fd5b505af1158015610bb8573d6000803e3d6000fd5b505050505b5050610bc7611fc0565b50505050565b60106020528060005260406000206000915090505481565b60095481565b600e5481565b610bf9611fc9565b610c01611573565b15610c38576040517ff2a84b6300000000000000000000000000000000000000000000000000000000815260040160405180910390fd5b8060048190555050565b600f5481565b610c50611fc9565b80600c8190555050565b600060ff82169050919050565b60606000600867ffffffffffffffff811115610c8657610c8561318e565b5b604051908082528060200260200182016040528015610cb45781602001602082028036833780820191505090505b509050601060008081526020019081526020016000205481600081518110610cdf57610cde6131bd565b5b60200260200101818152505060106000600181526020019081526020016000205481600181518110610d1457610d136131bd565b5b60200260200101818152505060106000600281526020019081526020016000205481600281518110610d4957610d486131bd565b5b60200260200101818152505060106000600381526020019081526020016000205481600381518110610d7e57610d7d6131bd565b5b60200260200101818152505060106000600481526020019081526020016000205481600481518110610db357610db26131bd565b5b60200260200101818152505060106000600581526020019081526020016000205481600581518110610de857610de76131bd565b5b60200260200101818152505060106000600681526020019081526020016000205481600681518110610e1d57610e1c6131bd565b5b60200260200101818152505060106000600781526020019081526020016000205481600781518110610e5257610e516131bd565b5b6020026020010181815250508091505090565b610e6d611fc9565b6000600360009054906101000a900473ffffffffffffffffffffffffffffffffffffffff1673ffffffffffffffffffffffffffffffffffffffff1682604051610eb59061321d565b60006040518083038185875af1925050503d8060008114610ef2576040519150601f19603f3d011682016040523d82523d6000602084013e610ef7565b606091505b5050905080610f3b576040517f08c379a0000000000000000000000000000000000000000000000000000000008152600401610f329061328f565b60405180910390fd5b5050565b6000600c54421015905090565b610f54611fc9565b80600f8190555050565b600080601060006007815260200190815260200160002054601060006006815260200190815260200160002054601060006005815260200190815260200160002054601060006004815260200190815260200160002054601060006003815260200190815260200160002054601060006002815260200190815260200160002054601060006001815260200190815260200160002054601060008081526020019081526020016000205461101291906132af565b61101c91906132af565b61102691906132af565b61103091906132af565b61103a91906132af565b61104491906132af565b61104e91906132af565b90508091505090565b61105f611f0e565b611067610f3f565b6110ac57600c54426040517f66803fc10000000000000000000000000000000000000000000000000000000081526004016110a39291906132e3565b60405180910390fd5b600033846040516020016110c19291906133cc565b604051602081830303815290604052805190602001209050611127838380806020026020016040519081016040528093929190818152602001838360200280828437600081840152601f19601f82011690508083019250505050505050600f5483612047565b611166576040517f08c379a000000000000000000000000000000000000000000000000000000000815260040161115d9061344f565b60405180910390fd5b6000601260003373ffffffffffffffffffffffffffffffffffffffff1673ffffffffffffffffffffffffffffffffffffffff1681526020019081526020016000205490508486826111b791906132af565b11156111f8576040517f08c379a00000000000000000000000000000000000000000000000000000000081526004016111ef906134bb565b60405180910390fd5b85601260003373ffffffffffffffffffffffffffffffffffffffff1673ffffffffffffffffffffffffffffffffffffffff168152602001908152602001600020600082825461124791906132af565b92505081905550611258863361205e565b5050611262611fc0565b50505050565b600d5481565b60085481565b61127c611fc9565b80600a8190555050565b60126020528060005260406000206000915090505481565b6112a6611fc9565b80600b8190555050565b6112b8611fc9565b6112c26000612294565b565b600080856040516020016112d891906134db565b6040516020818303038152906040528051906020012090508481146113015760009150506113b9565b61134f848480806020026020016040519081016040528093929190818152602001838360200280828437600081840152601f19601f82011690508083019250505050505050600d5487612047565b806113a457506113a3848480806020026020016040519081016040528093929190818152602001838360200280828437600081840152601f19601f82011690508083019250505050505050600e5487612047565b5b156113b35760019150506113b9565b60009150505b949350505050565b6113c9611fc9565b6000600360009054906101000a900473ffffffffffffffffffffffffffffffffffffffff1673ffffffffffffffffffffffffffffffffffffffff16476040516114119061321d565b60006040518083038185875af1925050503d806000811461144e576040519150601f19603f3d011682016040523d82523d6000602084013e611453565b606091505b5050905080611497576040517f08c379a000000000000000000000000000000000000000000000000000000000815260040161148e90613542565b60405180910390fd5b50565b6114a2611fc9565b80600360006101000a81548173ffffffffffffffffffffffffffffffffffffffff021916908373ffffffffffffffffffffffffffffffffffffffff16021790555050565b6000600a54421015905090565b600c5481565b60008060009054906101000a900473ffffffffffffffffffffffffffffffffffffffff16905090565b61152a611fc9565b611532611573565b15611569576040517ff2a84b6300000000000000000000000000000000000000000000000000000000815260040160405180910390fd5b8060098190555050565b6000600b54421015905090565b6007818154811061159057600080fd5b906000526020600020016000915090505481565b6115ac611fc9565b600073ffffffffffffffffffffffffffffffffffffffff163373ffffffffffffffffffffffffffffffffffffffff1603611612576040517f48ac165200000000000000000000000000000000000000000000000000000000815260040160405180910390fd5b8173ffffffffffffffffffffffffffffffffffffffff1663a9059cbb33836040518363ffffffff1660e01b815260040161164d929190613562565b6020604051808303816000875af115801561166c573d6000803e3d6000fd5b505050506040513d601f19601f8201168201806040525081019061169091906135b7565b505050565b600260009054906101000a900473ffffffffffffffffffffffffffffffffffffffff1681565b6116c3611fc9565b81819050848490501461170b576040517f08c379a000000000000000000000000000000000000000000000000000000000815260040161170290613656565b60405180910390fd5b60005b8282905081101561183e57600061174b868684818110611731576117306131bd565b5b9050602002016020810190611746919061369b565b612358565b9050600260009054906101000a900473ffffffffffffffffffffffffffffffffffffffff1673ffffffffffffffffffffffffffffffffffffffff166386ebf01085858581811061179e5761179d6131bd565b5b90506020020160208101906117b39190612bb4565b838989878181106117c7576117c66131bd565b5b90506020020160208101906117dc919061369b565b6040518463ffffffff1660e01b81526004016117fa9392919061373f565b600060405180830381600087803b15801561181457600080fd5b505af1158015611828573d6000803e3d6000fd5b50505050508061183790613776565b905061170e565b5050505050565b61184d611f0e565b6118556114e6565b61189a57600a54426040517f66803fc10000000000000000000000000000000000000000000000000000000081526004016118919291906132e3565b60405180910390fd5b6000811115806118aa5750601481115b156118e1576040517fca02d6eb00000000000000000000000000000000000000000000000000000000815260040160405180910390fd5b6118eb8133612593565b6118f3611fc0565b50565b6000600954905090565b611908611fc9565b611910611573565b15611947576040517ff2a84b6300000000000000000000000000000000000000000000000000000000815260040160405180910390fd5b8060088190555050565b611959611fc9565b80600260006101000a81548173ffffffffffffffffffffffffffffffffffffffff021916908373ffffffffffffffffffffffffffffffffffffffff16021790555050565b60008060045490506010600080815260200190815260200160002054816119c49190613076565b9050601060006001815260200190815260200160002054816119e69190613076565b905060106000600281526020019081526020016000205481611a089190613076565b905060106000600381526020019081526020016000205481611a2a9190613076565b905060106000600481526020019081526020016000205481611a4c9190613076565b905060106000600581526020019081526020016000205481611a6e9190613076565b905060106000600681526020019081526020016000205481611a909190613076565b905060106000600781526020019081526020016000205481611ab29190613076565b90508091505090565b611ac3611fc9565b80600e8190555050565b611ad5611fc9565b60088282905014611b23578181905060086040517f485d33a2000000000000000000000000000000000000000000000000000000008152600401611b1a9291906137f9565b60405180910390fd5b611b2b611573565b15611b62576040517ff2a84b6300000000000000000000000000000000000000000000000000000000815260040160405180910390fd5b818160079190611b739291906127d9565b505050565b611b80611fc9565b80600d8190555050565b611b92611f0e565b611b9a611573565b611bdf57600b54426040517f66803fc1000000000000000000000000000000000000000000000000000000008152600401611bd69291906132e3565b60405180910390fd5b600084111580611bef5750601484115b15611c26576040517fca02d6eb00000000000000000000000000000000000000000000000000000000815260040160405180910390fd5b60003384604051602001611c3b9291906133cc565b604051602081830303815290604052805190602001209050611ca1838380806020026020016040519081016040528093929190818152602001838360200280828437600081840152601f19601f82011690508083019250505050505050600d5483612047565b80611cf65750611cf5838380806020026020016040519081016040528093929190818152602001838360200280828437600081840152601f19601f82011690508083019250505050505050600e5483612047565b5b611d35576040517f08c379a0000000000000000000000000000000000000000000000000000000008152600401611d2c9061344f565b60405180910390fd5b6000601160003373ffffffffffffffffffffffffffffffffffffffff1673ffffffffffffffffffffffffffffffffffffffff168152602001908152602001600020549050848682611d8691906132af565b1115611dc7576040517f08c379a0000000000000000000000000000000000000000000000000000000008152600401611dbe9061386e565b60405180910390fd5b85601160003373ffffffffffffffffffffffffffffffffffffffff1673ffffffffffffffffffffffffffffffffffffffff1681526020019081526020016000206000828254611e1691906132af565b92505081905550611e278633612593565b5050611e31611fc0565b50505050565b600a5481565b6000600454905090565b60116020528060005260406000206000915090505481565b611e67611fc9565b600073ffffffffffffffffffffffffffffffffffffffff168173ffffffffffffffffffffffffffffffffffffffff1603611ed6576040517f08c379a0000000000000000000000000000000000000000000000000000000008152600401611ecd90613900565b60405180910390fd5b611edf81612294565b50565b600b5481565b600360009054906101000a900473ffffffffffffffffffffffffffffffffffffffff1681565b600260015403611f53576040517f08c379a0000000000000000000000000000000000000000000000000000000008152600401611f4a9061396c565b60405180910390fd5b6002600181905550565b80601160003373ffffffffffffffffffffffffffffffffffffffff1673ffffffffffffffffffffffffffffffffffffffff1681526020019081526020016000206000828254611fac91906132af565b92505081905550611fbd8133612593565b50565b60018081905550565b611fd161262c565b73ffffffffffffffffffffffffffffffffffffffff16611fef6114f9565b73ffffffffffffffffffffffffffffffffffffffff1614612045576040517f08c379a000000000000000000000000000000000000000000000000000000000815260040161203c906139d8565b60405180910390fd5b565b6000826120548584612634565b1490509392505050565b3073ffffffffffffffffffffffffffffffffffffffff1663b9a43f2e6040518163ffffffff1660e01b8152600401602060405180830381865afa1580156120a9573d6000803e3d6000fd5b505050506040513d601f19601f820116820180604052508101906120cd9190613a0d565b823073ffffffffffffffffffffffffffffffffffffffff166346bf289f6040518163ffffffff1660e01b8152600401602060405180830381865afa158015612119573d6000803e3d6000fd5b505050506040513d601f19601f8201168201806040525081019061213d9190613a0d565b61214791906132af565b1115612188576040517f08c379a000000000000000000000000000000000000000000000000000000000815260040161217f90613a86565b60405180910390fd5b60005b8281101561228f57600061219d61268a565b905060008160078111156121b4576121b36136c8565b5b905060006121c182612358565b905060106000848152602001908152602001600020600081546121e390613776565b91905081905550600260009054906101000a900473ffffffffffffffffffffffffffffffffffffffff1673ffffffffffffffffffffffffffffffffffffffff166386ebf0108683856040518463ffffffff1660e01b81526004016122499392919061373f565b600060405180830381600087803b15801561226357600080fd5b505af1158015612277573d6000803e3d6000fd5b505050505050508061228890613776565b905061218b565b505050565b60008060009054906101000a900473ffffffffffffffffffffffffffffffffffffffff169050816000806101000a81548173ffffffffffffffffffffffffffffffffffffffff021916908373ffffffffffffffffffffffffffffffffffffffff1602179055508173ffffffffffffffffffffffffffffffffffffffff168173ffffffffffffffffffffffffffffffffffffffff167f8be0079c531659141344cd1fd0a4f28419497f9722a3daafe3b4186f6b6457e060405160405180910390a35050565b600080600854601060006007815260200190815260200160002054601060006006815260200190815260200160002054601060006005815260200190815260200160002054601060006004815260200190815260200160002054601060006003815260200190815260200160002054601060006002815260200190815260200160002054601060006001815260200190815260200160002054601060008081526020019081526020016000205461240f91906132af565b61241991906132af565b61242391906132af565b61242d91906132af565b61243791906132af565b61244191906132af565b61244b91906132af565b61245591906132af565b90506000600784600781111561246e5761246d6136c8565b5b8154811061247f5761247e6131bd565b5b9060005260206000200154601060008660078111156124a1576124a06136c8565b5b8152602001908152602001600020546124ba91906132af565b905063ffffffff811115612503576040517f08c379a00000000000000000000000000000000000000000000000000000000081526004016124fa90613af2565b60405180910390fd5b60ff846007811115612518576125176136c8565b5b1115612559576040517f08c379a000000000000000000000000000000000000000000000000000000000815260040161255090613b5e565b60405180910390fd5b83600781111561256c5761256b6136c8565b5b600882901b602884901b61258091906132af565b61258a91906132af565b92505050919050565b6000600954116125cf576040517fc5fadba600000000000000000000000000000000000000000000000000000000815260040160405180910390fd5b816009546125dd9190613b7e565b341461261e576040517f08c379a000000000000000000000000000000000000000000000000000000000815260040161261590613c32565b60405180910390fd5b612628828261205e565b5050565b600033905090565b60008082905060005b845181101561267f5761266a8286838151811061265d5761265c6131bd565b5b6020026020010151612797565b9150808061267790613776565b91505061263d565b508091505092915050565b60008060009050600560008154809291906126a490613776565b919050555060006001606442336005546040516020016126c693929190613c52565b6040516020818303038152906040528051906020012060001c6126e99190613cbe565b6126f391906132af565b9050600080600660008154811061270d5761270c6131bd565b5b906000526020600020015490506000600190505b60068054905081101561278c5781925060068181548110612745576127446131bd565b5b90600052602060002001548261275b91906132af565b9150828411801561276c5750818411155b156127795780945061278c565b808061278490613776565b915050612721565b508394505050505090565b60008183106127af576127aa82846127c2565b6127ba565b6127b983836127c2565b5b905092915050565b600082600052816020526040600020905092915050565b828054828255906000526020600020908101928215612815579160200282015b828111156128145782358255916020019190600101906127f9565b5b5090506128229190612826565b5090565b5b8082111561283f576000816000905550600101612827565b5090565b600080fd5b600080fd5b6000819050919050565b6128608161284d565b811461286b57600080fd5b50565b60008135905061287d81612857565b92915050565b600080fd5b600080fd5b600080fd5b60008083601f8401126128a8576128a7612883565b5b8235905067ffffffffffffffff8111156128c5576128c4612888565b5b6020830191508360208202830111156128e1576128e061288d565b5b9250929050565b6000806000806060858703121561290257612901612843565b5b60006129108782880161286e565b94505060206129218782880161286e565b935050604085013567ffffffffffffffff81111561294257612941612848565b5b61294e87828801612892565b925092505092959194509250565b60006020828403121561297257612971612843565b5b60006129808482850161286e565b91505092915050565b6129928161284d565b82525050565b60006020820190506129ad6000830184612989565b92915050565b6000819050919050565b6129c6816129b3565b82525050565b60006020820190506129e160008301846129bd565b92915050565b600081519050919050565b600082825260208201905092915050565b6000819050602082019050919050565b612a1c8161284d565b82525050565b6000612a2e8383612a13565b60208301905092915050565b6000602082019050919050565b6000612a52826129e7565b612a5c81856129f2565b9350612a6783612a03565b8060005b83811015612a98578151612a7f8882612a22565b9750612a8a83612a3a565b925050600181019050612a6b565b5085935050505092915050565b60006020820190508181036000830152612abf8184612a47565b905092915050565b60008115159050919050565b612adc81612ac7565b82525050565b6000602082019050612af76000830184612ad3565b92915050565b612b06816129b3565b8114612b1157600080fd5b50565b600081359050612b2381612afd565b92915050565b600060208284031215612b3f57612b3e612843565b5b6000612b4d84828501612b14565b91505092915050565b600073ffffffffffffffffffffffffffffffffffffffff82169050919050565b6000612b8182612b56565b9050919050565b612b9181612b76565b8114612b9c57600080fd5b50565b600081359050612bae81612b88565b92915050565b600060208284031215612bca57612bc9612843565b5b6000612bd884828501612b9f565b91505092915050565b60008060008060608587031215612bfb57612bfa612843565b5b6000612c0987828801612b9f565b9450506020612c1a87828801612b14565b935050604085013567ffffffffffffffff811115612c3b57612c3a612848565b5b612c4787828801612892565b925092505092959194509250565b6000612c6082612b56565b9050919050565b612c7081612c55565b8114612c7b57600080fd5b50565b600081359050612c8d81612c67565b92915050565b600060208284031215612ca957612ca8612843565b5b6000612cb784828501612c7e565b91505092915050565b612cc981612b76565b82525050565b6000602082019050612ce46000830184612cc0565b92915050565b6000612cf582612b76565b9050919050565b612d0581612cea565b8114612d1057600080fd5b50565b600081359050612d2281612cfc565b92915050565b60008060408385031215612d3f57612d3e612843565b5b6000612d4d85828601612d13565b9250506020612d5e8582860161286e565b9150509250929050565b6000819050919050565b6000612d8d612d88612d8384612b56565b612d68565b612b56565b9050919050565b6000612d9f82612d72565b9050919050565b6000612db182612d94565b9050919050565b612dc181612da6565b82525050565b6000602082019050612ddc6000830184612db8565b92915050565b60008083601f840112612df857612df7612883565b5b8235905067ffffffffffffffff811115612e1557612e14612888565b5b602083019150836020820283011115612e3157612e3061288d565b5b9250929050565b60008083601f840112612e4e57612e4d612883565b5b8235905067ffffffffffffffff811115612e6b57612e6a612888565b5b602083019150836020820283011115612e8757612e8661288d565b5b9250929050565b60008060008060408587031215612ea857612ea7612843565b5b600085013567ffffffffffffffff811115612ec657612ec5612848565b5b612ed287828801612de2565b9450945050602085013567ffffffffffffffff811115612ef557612ef4612848565b5b612f0187828801612e38565b925092505092959194509250565b6000612f1a82612b76565b9050919050565b612f2a81612f0f565b8114612f3557600080fd5b50565b600081359050612f4781612f21565b92915050565b600060208284031215612f6357612f62612843565b5b6000612f7184828501612f38565b91505092915050565b60008083601f840112612f9057612f8f612883565b5b8235905067ffffffffffffffff811115612fad57612fac612888565b5b602083019150836020820283011115612fc957612fc861288d565b5b9250929050565b60008060208385031215612fe757612fe6612843565b5b600083013567ffffffffffffffff81111561300557613004612848565b5b61301185828601612f7a565b92509250509250929050565b61302681612c55565b82525050565b6000602082019050613041600083018461301d565b92915050565b7f4e487b7100000000000000000000000000000000000000000000000000000000600052601160045260246000fd5b60006130818261284d565b915061308c8361284d565b92508282039050818111156130a4576130a3613047565b5b92915050565b60006130b58261284d565b9150600082036130c8576130c7613047565b5b600182039050919050565b600082825260208201905092915050565b600080fd5b82818337505050565b60006130fe83856130d3565b93507f07ffffffffffffffffffffffffffffffffffffffffffffffffffffffffffffff831115613131576131306130e4565b5b6020830292506131428385846130e9565b82840190509392505050565b60006060820190506131636000830187612989565b6131706020830186612989565b81810360408301526131838184866130f2565b905095945050505050565b7f4e487b7100000000000000000000000000000000000000000000000000000000600052604160045260246000fd5b7f4e487b7100000000000000000000000000000000000000000000000000000000600052603260045260246000fd5b600081905092915050565b50565b60006132076000836131ec565b9150613212826131f7565b600082019050919050565b6000613228826131fa565b9150819050919050565b600082825260208201905092915050565b7f776974686472617720776173206e6f742073756363657366756c6c0000000000600082015250565b6000613279601b83613232565b915061328482613243565b602082019050919050565b600060208201905081810360008301526132a88161326c565b9050919050565b60006132ba8261284d565b91506132c58361284d565b92508282019050808211156132dd576132dc613047565b5b92915050565b60006040820190506132f86000830185612989565b6133056020830184612989565b9392505050565b60008160601b9050919050565b60006133248261330c565b9050919050565b600061333682613319565b9050919050565b61334e61334982612b76565b61332b565b82525050565b600081905092915050565b7f3a00000000000000000000000000000000000000000000000000000000000000600082015250565b6000613395600183613354565b91506133a08261335f565b600182019050919050565b6000819050919050565b6133c66133c18261284d565b6133ab565b82525050565b60006133d8828561333d565b6014820191506133e782613388565b91506133f382846133b5565b6020820191508190509392505050565b7f496e76616c69642070726f6f662e000000000000000000000000000000000000600082015250565b6000613439600e83613232565b915061344482613403565b602082019050919050565b600060208201905081810360008301526134688161342c565b9050919050565b7f436c61696d696e67206d6f7265207468616e20616c6c6f7765642e0000000000600082015250565b60006134a5601b83613232565b91506134b08261346f565b602082019050919050565b600060208201905081810360008301526134d481613498565b9050919050565b60006134e7828461333d565b60148201915081905092915050565b7f776974686472617720616c6c20776173206e6f742073756363657366756c6c00600082015250565b600061352c601f83613232565b9150613537826134f6565b602082019050919050565b6000602082019050818103600083015261355b8161351f565b9050919050565b60006040820190506135776000830185612cc0565b6135846020830184612989565b9392505050565b61359481612ac7565b811461359f57600080fd5b50565b6000815190506135b18161358b565b92915050565b6000602082840312156135cd576135cc612843565b5b60006135db848285016135a2565b91505092915050565b7f4172726179732073686f756c642068617665207468652073616d652073697a6560008201527f2e00000000000000000000000000000000000000000000000000000000000000602082015250565b6000613640602183613232565b915061364b826135e4565b604082019050919050565b6000602082019050818103600083015261366f81613633565b9050919050565b6008811061368357600080fd5b50565b60008135905061369581613676565b92915050565b6000602082840312156136b1576136b0612843565b5b60006136bf84828501613686565b91505092915050565b7f4e487b7100000000000000000000000000000000000000000000000000000000600052602160045260246000fd5b60088110613708576137076136c8565b5b50565b6000819050613719826136f7565b919050565b60006137298261370b565b9050919050565b6137398161371e565b82525050565b60006060820190506137546000830186612cc0565b6137616020830185612989565b61376e6040830184613730565b949350505050565b60006137818261284d565b91507fffffffffffffffffffffffffffffffffffffffffffffffffffffffffffffffff82036137b3576137b2613047565b5b600182019050919050565b6000819050919050565b60006137e36137de6137d9846137be565b612d68565b61284d565b9050919050565b6137f3816137c8565b82525050565b600060408201905061380e6000830185612989565b61381b60208301846137ea565b9392505050565b7f4d696e74696e67206d6f7265207468616e20616c6c6f7765642e000000000000600082015250565b6000613858601a83613232565b915061386382613822565b602082019050919050565b600060208201905081810360008301526138878161384b565b9050919050565b7f4f776e61626c653a206e6577206f776e657220697320746865207a65726f206160008201527f6464726573730000000000000000000000000000000000000000000000000000602082015250565b60006138ea602683613232565b91506138f58261388e565b604082019050919050565b60006020820190508181036000830152613919816138dd565b9050919050565b7f5265656e7472616e637947756172643a207265656e7472616e742063616c6c00600082015250565b6000613956601f83613232565b915061396182613920565b602082019050919050565b6000602082019050818103600083015261398581613949565b9050919050565b7f4f776e61626c653a2063616c6c6572206973206e6f7420746865206f776e6572600082015250565b60006139c2602083613232565b91506139cd8261398c565b602082019050919050565b600060208201905081810360008301526139f1816139b5565b9050919050565b600081519050613a0781612857565b92915050565b600060208284031215613a2357613a22612843565b5b6000613a31848285016139f8565b91505092915050565b7f547279696e6720746f206d696e7420746f6f206d616e792072696e67732e0000600082015250565b6000613a70601e83613232565b9150613a7b82613a3a565b602082019050919050565b60006020820190508181036000830152613a9f81613a63565b9050919050565b7f4c6f63616c20696e646578206f766572666c6f772e0000000000000000000000600082015250565b6000613adc601583613232565b9150613ae782613aa6565b602082019050919050565b60006020820190508181036000830152613b0b81613acf565b9050919050565b7f52696e6720696e646578206f766572666c6f772e000000000000000000000000600082015250565b6000613b48601483613232565b9150613b5382613b12565b602082019050919050565b60006020820190508181036000830152613b7781613b3b565b9050919050565b6000613b898261284d565b9150613b948361284d565b9250828202613ba28161284d565b91508282048414831517613bb957613bb8613047565b5b5092915050565b7f45746865722076616c75652073656e74206973206e6f7420616363757261746560008201527f2e00000000000000000000000000000000000000000000000000000000000000602082015250565b6000613c1c602183613232565b9150613c2782613bc0565b604082019050919050565b60006020820190508181036000830152613c4b81613c0f565b9050919050565b6000613c5e82866133b5565b602082019150613c6e828561333d565b601482019150613c7e82846133b5565b602082019150819050949350505050565b7f4e487b7100000000000000000000000000000000000000000000000000000000600052601260045260246000fd5b6000613cc98261284d565b9150613cd48361284d565b925082613ce457613ce3613c8f565b5b82820690509291505056fea264697066735822122038a5caab87f556c6d061c6463024ce1e4b083c7ffd440f5dff44ed152977ef8864736f6c63430008120033",
  "linkReferences": {},
  "deployedLinkReferences": {}
}