{
  "_format": "hh-sol-artifact-1",
  "contractName": "FundersRingMinter",
  "sourceName": "contracts/FundersRingMinter.sol",
  "abi": [
    {
      "inputs": [
        {
          "internalType": "contract IFundersRing",
          "name": "_fundersRing",
          "type": "address"
        }
      ],
      "stateMutability": "nonpayable",
      "type": "constructor"
    },
    {
      "inputs": [],
      "name": "Address0Error",
      "type": "error"
    },
    {
      "inputs": [],
      "name": "DeniedProcessDuringMinting",
      "type": "error"
    },
    {
      "inputs": [
        {
          "internalType": "uint256",
          "name": "sended_values",
          "type": "uint256"
        },
        {
          "internalType": "uint256",
          "name": "expected",
          "type": "uint256"
        }
      ],
      "name": "GivenValuesNotValid",
      "type": "error"
    },
    {
      "inputs": [],
      "name": "IncorrectPurchaseLimit",
      "type": "error"
    },
    {
      "inputs": [],
      "name": "MisconfiguredPrices",
      "type": "error"
    },
    {
      "inputs": [
        {
          "internalType": "uint256",
          "name": "correct_date",
          "type": "uint256"
        },
        {
          "internalType": "uint256",
          "name": "current_date",
          "type": "uint256"
        }
      ],
      "name": "WrongDateForProcess",
      "type": "error"
    },
    {
      "anonymous": false,
      "inputs": [
        {
          "indexed": true,
          "internalType": "address",
          "name": "previousOwner",
          "type": "address"
        },
        {
          "indexed": true,
          "internalType": "address",
          "name": "newOwner",
          "type": "address"
        }
      ],
      "name": "OwnershipTransferred",
      "type": "event"
    },
    {
      "inputs": [],
      "name": "claimlistMerkleRoot",
      "outputs": [
        {
          "internalType": "bytes32",
          "name": "",
          "type": "bytes32"
        }
      ],
      "stateMutability": "view",
      "type": "function"
    },
    {
      "inputs": [
        {
          "internalType": "uint256",
          "name": "numRings",
          "type": "uint256"
        },
        {
          "internalType": "uint256",
          "name": "claimedMaxRings",
          "type": "uint256"
        },
        {
          "internalType": "bytes32[]",
          "name": "_merkleProof",
          "type": "bytes32[]"
        }
      ],
      "name": "claimlistMint",
      "outputs": [],
      "stateMutability": "payable",
      "type": "function"
    },
    {
      "inputs": [
        {
          "internalType": "address",
          "name": "",
          "type": "address"
        }
      ],
      "name": "claimlistMinted",
      "outputs": [
        {
          "internalType": "uint256",
          "name": "",
          "type": "uint256"
        }
      ],
      "stateMutability": "view",
      "type": "function"
    },
    {
      "inputs": [],
      "name": "claimsStartTime",
      "outputs": [
        {
          "internalType": "uint256",
          "name": "",
          "type": "uint256"
        }
      ],
      "stateMutability": "view",
      "type": "function"
    },
    {
      "inputs": [],
      "name": "claimsStarted",
      "outputs": [
        {
          "internalType": "bool",
          "name": "",
          "type": "bool"
        }
      ],
      "stateMutability": "view",
      "type": "function"
    },
    {
      "inputs": [
        {
          "internalType": "contract IERC20",
          "name": "_token",
          "type": "address"
        },
        {
          "internalType": "uint256",
          "name": "_amount",
          "type": "uint256"
        }
      ],
      "name": "forwardERC20s",
      "outputs": [],
      "stateMutability": "nonpayable",
      "type": "function"
    },
    {
      "inputs": [],
      "name": "fundersRing",
      "outputs": [
        {
          "internalType": "contract IFundersRing",
          "name": "",
          "type": "address"
        }
      ],
      "stateMutability": "view",
      "type": "function"
    },
    {
      "inputs": [],
      "name": "getAvailableRings",
      "outputs": [
        {
          "internalType": "uint256",
          "name": "",
          "type": "uint256"
        }
      ],
      "stateMutability": "view",
      "type": "function"
    },
    {
      "inputs": [],
      "name": "getInitialRings",
      "outputs": [
        {
          "internalType": "uint256",
          "name": "",
          "type": "uint256"
        }
      ],
      "stateMutability": "view",
      "type": "function"
    },
    {
      "inputs": [],
      "name": "getProbabilities",
      "outputs": [
        {
          "internalType": "uint256[]",
          "name": "",
          "type": "uint256[]"
        }
      ],
      "stateMutability": "view",
      "type": "function"
    },
    {
      "inputs": [],
      "name": "getRingPrice",
      "outputs": [
        {
          "internalType": "uint256",
          "name": "",
          "type": "uint256"
        }
      ],
      "stateMutability": "view",
      "type": "function"
    },
    {
      "inputs": [
        {
          "internalType": "uint256",
          "name": "tokenId",
          "type": "uint256"
        }
      ],
      "name": "getTokenIdRingType",
      "outputs": [
        {
          "internalType": "uint256",
          "name": "",
          "type": "uint256"
        }
      ],
      "stateMutability": "pure",
      "type": "function"
    },
    {
      "inputs": [],
      "name": "getTotalMintedRings",
      "outputs": [
        {
          "internalType": "uint256",
          "name": "",
          "type": "uint256"
        }
      ],
      "stateMutability": "view",
      "type": "function"
    },
    {
      "inputs": [],
      "name": "getTotalMintedRingsByType",
      "outputs": [
        {
          "internalType": "uint256[]",
          "name": "",
          "type": "uint256[]"
        }
      ],
      "stateMutability": "view",
      "type": "function"
    },
    {
      "inputs": [
        {
          "internalType": "uint256",
          "name": "numRings",
          "type": "uint256"
        }
      ],
      "name": "mint",
      "outputs": [],
      "stateMutability": "payable",
      "type": "function"
    },
    {
      "inputs": [
        {
          "internalType": "uint256",
          "name": "payedMints",
          "type": "uint256"
        },
        {
          "internalType": "uint256",
          "name": "maxClaim",
          "type": "uint256"
        },
        {
          "internalType": "bytes32[]",
          "name": "_merkleProof",
          "type": "bytes32[]"
        }
      ],
      "name": "mintWithClaim",
      "outputs": [],
      "stateMutability": "payable",
      "type": "function"
    },
    {
      "inputs": [],
      "name": "mintlistMerkleRoot1",
      "outputs": [
        {
          "internalType": "bytes32",
          "name": "",
          "type": "bytes32"
        }
      ],
      "stateMutability": "view",
      "type": "function"
    },
    {
      "inputs": [],
      "name": "mintlistMerkleRoot2",
      "outputs": [
        {
          "internalType": "bytes32",
          "name": "",
          "type": "bytes32"
        }
      ],
      "stateMutability": "view",
      "type": "function"
    },
    {
      "inputs": [
        {
          "internalType": "uint256",
          "name": "numRings",
          "type": "uint256"
        },
        {
          "internalType": "uint256",
          "name": "claimedMaxRings",
          "type": "uint256"
        },
        {
          "internalType": "bytes32[]",
          "name": "_merkleProof",
          "type": "bytes32[]"
        }
      ],
      "name": "mintlistMint",
      "outputs": [],
      "stateMutability": "payable",
      "type": "function"
    },
    {
      "inputs": [
        {
          "internalType": "address",
          "name": "",
          "type": "address"
        }
      ],
      "name": "mintlistMinted",
      "outputs": [
        {
          "internalType": "uint256",
          "name": "",
          "type": "uint256"
        }
      ],
      "stateMutability": "view",
      "type": "function"
    },
    {
      "inputs": [],
      "name": "mintlistStartTime",
      "outputs": [
        {
          "internalType": "uint256",
          "name": "",
          "type": "uint256"
        }
      ],
      "stateMutability": "view",
      "type": "function"
    },
    {
      "inputs": [],
      "name": "mintlistStarted",
      "outputs": [
        {
          "internalType": "bool",
          "name": "",
          "type": "bool"
        }
      ],
      "stateMutability": "view",
      "type": "function"
    },
    {
      "inputs": [
        {
          "internalType": "address",
          "name": "_who",
          "type": "address"
        },
        {
          "internalType": "bytes32",
          "name": "_leaf",
          "type": "bytes32"
        },
        {
          "internalType": "bytes32[]",
          "name": "_merkleProof",
          "type": "bytes32[]"
        }
      ],
      "name": "mintlisted",
      "outputs": [
        {
          "internalType": "bool",
          "name": "",
          "type": "bool"
        }
      ],
      "stateMutability": "view",
      "type": "function"
    },
    {
      "inputs": [],
      "name": "owner",
      "outputs": [
        {
          "internalType": "address",
          "name": "",
          "type": "address"
        }
      ],
      "stateMutability": "view",
      "type": "function"
    },
    {
      "inputs": [
        {
          "internalType": "enum IFundersRing.FundersRingType[]",
          "name": "ringTypes",
          "type": "uint8[]"
        },
        {
          "internalType": "address[]",
          "name": "recipients",
          "type": "address[]"
        }
      ],
      "name": "ownerMint",
      "outputs": [],
      "stateMutability": "nonpayable",
      "type": "function"
    },
    {
      "inputs": [],
      "name": "publicMintStartTime",
      "outputs": [
        {
          "internalType": "uint256",
          "name": "",
          "type": "uint256"
        }
      ],
      "stateMutability": "view",
      "type": "function"
    },
    {
      "inputs": [],
      "name": "publicStarted",
      "outputs": [
        {
          "internalType": "bool",
          "name": "",
          "type": "bool"
        }
      ],
      "stateMutability": "view",
      "type": "function"
    },
    {
      "inputs": [],
      "name": "renounceOwnership",
      "outputs": [],
      "stateMutability": "nonpayable",
      "type": "function"
    },
    {
      "inputs": [],
      "name": "ringGlobalOffset",
      "outputs": [
        {
          "internalType": "uint256",
          "name": "",
          "type": "uint256"
        }
      ],
      "stateMutability": "view",
      "type": "function"
    },
    {
      "inputs": [],
      "name": "ringPrice",
      "outputs": [
        {
          "internalType": "uint256",
          "name": "",
          "type": "uint256"
        }
      ],
      "stateMutability": "view",
      "type": "function"
    },
    {
      "inputs": [
        {
          "internalType": "uint256",
          "name": "",
          "type": "uint256"
        }
      ],
      "name": "ringTypeLocalOffset",
      "outputs": [
        {
          "internalType": "uint256",
          "name": "",
          "type": "uint256"
        }
      ],
      "stateMutability": "view",
      "type": "function"
    },
    {
      "inputs": [
        {
          "internalType": "uint256",
          "name": "",
          "type": "uint256"
        }
      ],
      "name": "ringsMinted",
      "outputs": [
        {
          "internalType": "uint256",
          "name": "",
          "type": "uint256"
        }
      ],
      "stateMutability": "view",
      "type": "function"
    },
    {
      "inputs": [
        {
          "internalType": "bytes32",
          "name": "newMerkleRoot",
          "type": "bytes32"
        }
      ],
      "name": "setClaimlistMerkleRoot",
      "outputs": [],
      "stateMutability": "nonpayable",
      "type": "function"
    },
    {
      "inputs": [
        {
          "internalType": "uint256",
          "name": "_newClaimsStartTime",
          "type": "uint256"
        }
      ],
      "name": "setClaimsStartTime",
      "outputs": [],
      "stateMutability": "nonpayable",
      "type": "function"
    },
    {
      "inputs": [
        {
          "internalType": "contract IFundersRing",
          "name": "_newFundersRingAddress",
          "type": "address"
        }
      ],
      "name": "setFundersRing",
      "outputs": [],
      "stateMutability": "nonpayable",
      "type": "function"
    },
    {
      "inputs": [
        {
          "internalType": "uint256",
          "name": "_newGlobalIdOffset",
          "type": "uint256"
        }
      ],
      "name": "setGlobalIdOffset",
      "outputs": [],
      "stateMutability": "nonpayable",
      "type": "function"
    },
    {
      "inputs": [
        {
          "internalType": "uint256[]",
          "name": "_newRingTypeLocalOffset",
          "type": "uint256[]"
        }
      ],
      "name": "setLocalIdOffsets",
      "outputs": [],
      "stateMutability": "nonpayable",
      "type": "function"
    },
    {
      "inputs": [
        {
          "internalType": "bytes32",
          "name": "newMerkleRoot",
          "type": "bytes32"
        }
      ],
      "name": "setMintlistMerkleRoot1",
      "outputs": [],
      "stateMutability": "nonpayable",
      "type": "function"
    },
    {
      "inputs": [
        {
          "internalType": "bytes32",
          "name": "newMerkleRoot",
          "type": "bytes32"
        }
      ],
      "name": "setMintlistMerkleRoot2",
      "outputs": [],
      "stateMutability": "nonpayable",
      "type": "function"
    },
    {
      "inputs": [
        {
          "internalType": "uint256",
          "name": "_newAllowlistMintStartTime",
          "type": "uint256"
        }
      ],
      "name": "setMintlistStartTime",
      "outputs": [],
      "stateMutability": "nonpayable",
      "type": "function"
    },
    {
      "inputs": [
        {
          "internalType": "uint256",
          "name": "_newPrice",
          "type": "uint256"
        }
      ],
      "name": "setPrice",
      "outputs": [],
      "stateMutability": "nonpayable",
      "type": "function"
    },
    {
      "inputs": [
        {
          "internalType": "uint256[]",
          "name": "_newProbabilities",
          "type": "uint256[]"
        }
      ],
      "name": "setProbabilities",
      "outputs": [],
      "stateMutability": "nonpayable",
      "type": "function"
    },
    {
      "inputs": [
        {
          "internalType": "uint256",
          "name": "_newPublicMintStartTime",
          "type": "uint256"
        }
      ],
      "name": "setPublicMintStartTime",
      "outputs": [],
      "stateMutability": "nonpayable",
      "type": "function"
    },
    {
      "inputs": [
        {
          "internalType": "uint256",
          "name": "_newRingsAvailable",
          "type": "uint256"
        }
      ],
      "name": "setRingsAvailable",
      "outputs": [],
      "stateMutability": "nonpayable",
      "type": "function"
    },
    {
      "inputs": [
        {
          "internalType": "address payable",
          "name": "_newVaultAddress",
          "type": "address"
        }
      ],
      "name": "setVaultAddress",
      "outputs": [],
      "stateMutability": "nonpayable",
      "type": "function"
    },
    {
      "inputs": [
        {
          "internalType": "address",
          "name": "newOwner",
          "type": "address"
        }
      ],
      "name": "transferOwnership",
      "outputs": [],
      "stateMutability": "nonpayable",
      "type": "function"
    },
    {
      "inputs": [],
      "name": "vault",
      "outputs": [
        {
          "internalType": "address payable",
          "name": "",
          "type": "address"
        }
      ],
      "stateMutability": "view",
      "type": "function"
    },
    {
      "inputs": [
        {
          "internalType": "uint256",
          "name": "_amount",
          "type": "uint256"
        }
      ],
      "name": "withdraw",
      "outputs": [],
      "stateMutability": "nonpayable",
      "type": "function"
    },
    {
      "inputs": [],
      "name": "withdrawAll",
      "outputs": [],
      "stateMutability": "nonpayable",
      "type": "function"
    }
  ],
  "bytecode": "0x60806040526127106004556000600555604051806101000160405280600e60ff168152602001600e60ff168152602001600e60ff168152602001600e60ff168152602001600e60ff168152602001600e60ff168152602001600e60ff168152602001600260ff1681525060069060086200007b9291906200059e565b50604051806101000160405280600160ff168152602001600160ff168152602001600160ff168152602001600160ff168152602001600160ff168152602001600160ff168152602001600160ff168152602001600160ff168152506007906008620000e89291906200059e565b5060016008557fffffffffffffffffffffffffffffffffffffffffffffffffffffffffffffffff6009557fffffffffffffffffffffffffffffffffffffffffffffffffffffffffffffffff600a557fffffffffffffffffffffffffffffffffffffffffffffffffffffffffffffffff600b557fffffffffffffffffffffffffffffffffffffffffffffffffffffffffffffffff600c553480156200018b57600080fd5b506040516200647c3803806200647c8339818101604052810190620001b1919062000692565b620001d1620001c56200028d60201b60201c565b6200029560201b60201c565b60018081905550620001f4678413a6d8b1794fcf60c01b6200035960201b60201c565b62000210671196a9f08882e0c460c01b6200035960201b60201c565b6200022c67c11a6ba92e6eeb0860c01b6200035960201b60201c565b6200023d816200035c60201b60201c565b62000259677a9a81f9b2b7d30e60c01b6200035960201b60201c565b620002756799e9cdeea776f5b260c01b6200035960201b60201c565b62000286336200042060201b60201c565b5062000747565b600033905090565b60008060009054906101000a900473ffffffffffffffffffffffffffffffffffffffff169050816000806101000a81548173ffffffffffffffffffffffffffffffffffffffff021916908373ffffffffffffffffffffffffffffffffffffffff1602179055508173ffffffffffffffffffffffffffffffffffffffff168173ffffffffffffffffffffffffffffffffffffffff167f8be0079c531659141344cd1fd0a4f28419497f9722a3daafe3b4186f6b6457e060405160405180910390a35050565b50565b620003786775c8c12c440d965c60c01b6200035960201b60201c565b62000388620004e460201b60201c565b620003a467784f17122fc6f3ef60c01b6200035960201b60201c565b620003c0676e1ef779a84c619560c01b6200035960201b60201c565b620003dc67d960335be933b0c460c01b6200035960201b60201c565b80600260006101000a81548173ffffffffffffffffffffffffffffffffffffffff021916908373ffffffffffffffffffffffffffffffffffffffff16021790555050565b6200043c67cffa2b7455929e8760c01b6200035960201b60201c565b6200044c620004e460201b60201c565b62000468678e25cfa6891a1d8960c01b6200035960201b60201c565b6200048467bac541b4bf62ee3360c01b6200035960201b60201c565b620004a0671cf436ee7f67e98a60c01b6200035960201b60201c565b80600360006101000a81548173ffffffffffffffffffffffffffffffffffffffff021916908373ffffffffffffffffffffffffffffffffffffffff16021790555050565b620004f46200028d60201b60201c565b73ffffffffffffffffffffffffffffffffffffffff166200051a6200057560201b60201c565b73ffffffffffffffffffffffffffffffffffffffff161462000573576040517f08c379a00000000000000000000000000000000000000000000000000000000081526004016200056a9062000725565b60405180910390fd5b565b60008060009054906101000a900473ffffffffffffffffffffffffffffffffffffffff16905090565b828054828255906000526020600020908101928215620005e2579160200282015b82811115620005e1578251829060ff16905591602001919060010190620005bf565b5b509050620005f19190620005f5565b5090565b5b8082111562000610576000816000905550600101620005f6565b5090565b600080fd5b600073ffffffffffffffffffffffffffffffffffffffff82169050919050565b6000620006468262000619565b9050919050565b60006200065a8262000639565b9050919050565b6200066c816200064d565b81146200067857600080fd5b50565b6000815190506200068c8162000661565b92915050565b600060208284031215620006ab57620006aa62000614565b5b6000620006bb848285016200067b565b91505092915050565b600082825260208201905092915050565b7f4f776e61626c653a2063616c6c6572206973206e6f7420746865206f776e6572600082015250565b60006200070d602083620006c4565b91506200071a82620006d5565b602082019050919050565b600060208201905081810360008301526200074081620006fe565b9050919050565b615d2580620007576000396000f3fe6080604052600436106102ae5760003560e01c80638c6d8ef611610175578063ae6b6dae116100dc578063d3cf00a311610095578063e49618c11161006f578063e49618c114610a18578063f2fde38b14610a55578063f4cde4c014610a7e578063fbfa77cf14610aa9576102ae565b8063d3cf00a314610999578063d6117b3e146109c4578063df477ead146109ed576102ae565b8063ae6b6dae146108ae578063b9a43f2e146108d7578063c2774dac14610902578063cc644fd21461092b578063cef5828314610954578063d012468f1461097d576102ae565b80639727151a1161012e5780639727151a146107c15780639b68a6ef146107ea5780639f0664b514610815578063a0712d681461083e578063a0e52f891461085a578063a637f97314610885576102ae565b80638c6d8ef6146106af5780638d56a17b146106da5780638da5cb5b1461070557806391b7f5ed1461073057806393cb41471461075957806396c9f88b14610784576102ae565b8063411d13f7116102195780636138f236116101d25780636138f236146105b55780636e1a1a60146105f2578063715018a61461061b578063792a77d914610632578063853828b61461066f57806385535cc514610686576102ae565b8063411d13f7146104c657806346bf289f146104ef5780634c3db84d1461051a5780634ed1eb24146105365780635242a493146105615780635fcd80a61461058c576102ae565b80632560e3761161026b5780632560e376146103b6578063260c0886146103e15780632701b3251461040a5780632ce82a71146104475780632e1a7d4d146104725780633e97414f1461049b576102ae565b8063062f7b8c146102b35780630747eda8146102de578063158ae298146102fa5780631af3ba81146103375780631c7f4a0214610362578063205ed3821461038d575b600080fd5b3480156102bf57600080fd5b506102c8610ad4565b6040516102d591906148a7565b60405180910390f35b6102f860048036038101906102f39190614964565b610b68565b005b34801561030657600080fd5b50610321600480360381019061031c91906149d8565b610e03565b60405161032e9190614a14565b60405180910390f35b34801561034357600080fd5b5061034c610e1b565b6040516103599190614a14565b60405180910390f35b34801561036e57600080fd5b50610377610e21565b6040516103849190614a48565b60405180910390f35b34801561039957600080fd5b506103b460048036038101906103af91906149d8565b610e27565b005b3480156103c257600080fd5b506103cb610f2c565b6040516103d89190614a48565b60405180910390f35b3480156103ed57600080fd5b50610408600480360381019061040391906149d8565b610f32565b005b34801561041657600080fd5b50610431600480360381019061042c91906149d8565b610f94565b60405161043e9190614a14565b60405180910390f35b34801561045357600080fd5b5061045c610fdd565b60405161046991906148a7565b60405180910390f35b34801561047e57600080fd5b50610499600480360381019061049491906149d8565b6112df565b005b3480156104a757600080fd5b506104b061146c565b6040516104bd9190614a7e565b60405180910390f35b3480156104d257600080fd5b506104ed60048036038101906104e89190614ac5565b6114b5565b005b3480156104fb57600080fd5b50610504611517565b6040516105119190614a14565b60405180910390f35b610534600480360381019061052f9190614964565b611689565b005b34801561054257600080fd5b5061054b611a66565b6040516105589190614a48565b60405180910390f35b34801561056d57600080fd5b50610576611a6c565b6040516105839190614a14565b60405180910390f35b34801561059857600080fd5b506105b360048036038101906105ae91906149d8565b611a72565b005b3480156105c157600080fd5b506105dc60048036038101906105d79190614b50565b611ad4565b6040516105e99190614a14565b60405180910390f35b3480156105fe57600080fd5b50610619600480360381019061061491906149d8565b611aec565b005b34801561062757600080fd5b50610630611b4e565b005b34801561063e57600080fd5b5061065960048036038101906106549190614b7d565b611b62565b6040516106669190614a7e565b60405180910390f35b34801561067b57600080fd5b50610684611dd8565b005b34801561069257600080fd5b506106ad60048036038101906106a89190614c2f565b611f65565b005b3480156106bb57600080fd5b506106c4612001565b6040516106d19190614a7e565b60405180910390f35b3480156106e657600080fd5b506106ef61204a565b6040516106fc9190614a14565b60405180910390f35b34801561071157600080fd5b5061071a612050565b6040516107279190614c6b565b60405180910390f35b34801561073c57600080fd5b50610757600480360381019061075291906149d8565b612079565b005b34801561076557600080fd5b5061076e61217e565b60405161077b9190614a7e565b60405180910390f35b34801561079057600080fd5b506107ab60048036038101906107a691906149d8565b6121c7565b6040516107b89190614a14565b60405180910390f35b3480156107cd57600080fd5b506107e860048036038101906107e39190614cc4565b6121eb565b005b3480156107f657600080fd5b506107ff6123a4565b60405161080c9190614d63565b60405180910390f35b34801561082157600080fd5b5061083c60048036038101906108379190614e2a565b6123ca565b005b610858600480360381019061085391906149d8565b6126cc565b005b34801561086657600080fd5b5061086f61274c565b60405161087c9190614a14565b60405180910390f35b34801561089157600080fd5b506108ac60048036038101906108a791906149d8565b612792565b005b3480156108ba57600080fd5b506108d560048036038101906108d09190614ee9565b612897565b005b3480156108e357600080fd5b506108ec612933565b6040516108f99190614a14565b60405180910390f35b34801561090e57600080fd5b5061092960048036038101906109249190614ac5565b612b56565b005b34801561093757600080fd5b50610952600480360381019061094d9190614f6c565b612bb8565b005b34801561096057600080fd5b5061097b60048036038101906109769190614ac5565b612d7b565b005b61099760048036038101906109929190614964565b612ddd565b005b3480156109a557600080fd5b506109ae61332a565b6040516109bb9190614a14565b60405180910390f35b3480156109d057600080fd5b506109eb60048036038101906109e69190614f6c565b613330565b005b3480156109f957600080fd5b50610a0261364f565b604051610a0f9190614a14565b60405180910390f35b348015610a2457600080fd5b50610a3f6004803603810190610a3a9190614b50565b613695565b604051610a4c9190614a14565b60405180910390f35b348015610a6157600080fd5b50610a7c6004803603810190610a779190614b50565b6136ad565b005b348015610a8a57600080fd5b50610a93613730565b604051610aa09190614a14565b60405180910390f35b348015610ab557600080fd5b50610abe613736565b604051610acb9190614fc8565b60405180910390f35b6060610aea6705d01a0069f938bf60c01b61375c565b610afe671a7844d66e37661f60c01b61375c565b610b1267ba29bdafce94599060c01b61375c565b6006805480602002602001604051908101604052809291908181526020018280548015610b5e57602002820191906000526020600020905b815481526020019060010190808311610b4a575b5050505050905090565b610b7c67861c8b769960aef360c01b61375c565b610b9067bc556ad3bd6e5b3560c01b61375c565b610ba46737d6bc7291d26eb760c01b61375c565b610bad8461375f565b610bc167d961555cab7efe6d60c01b61375c565b610bd5672e40c9c1cdb41ea660c01b61375c565b6000601260003373ffffffffffffffffffffffffffffffffffffffff1673ffffffffffffffffffffffffffffffffffffffff168152602001908152602001600020549050610c2d677c0a418f2b2b0c8360c01b61375c565b610c4167210193aaf571729d60c01b61375c565b60008185610c4f9190615012565b9050610c65671e7244877b70b61360c01b61375c565b610c7967861fdebdde3982cc60c01b61375c565b60008203610cee57610c9567a5015fa96723029460c01b61375c565b610ca9675fe447d331ad928060c01b61375c565b610cbd67b9028503dff5dfd560c01b61375c565b610cc7600161393c565b610cdb67faad36e3e4a586ef60c01b61375c565b8080610ce690615046565b915050610d03565b610d0267b967ec63e7dc63f660c01b61375c565b5b610d1767eafa5fbc221d6cbf60c01b61375c565b610d2b67cc5d7d7bb53990a860c01b61375c565b6000811115610de657610d486790ccf649369630cd60c01b61375c565b610d5c67f2ea20d1bcc6da1b60c01b61375c565b610d70677c34f25fac03e06860c01b61375c565b3073ffffffffffffffffffffffffffffffffffffffff16634c3db84d828787876040518563ffffffff1660e01b8152600401610daf94939291906150ea565b600060405180830381600087803b158015610dc957600080fd5b505af1158015610ddd573d6000803e3d6000fd5b50505050610dfb565b610dfa67871b678db903155660c01b61375c565b5b505050505050565b60106020528060005260406000206000915090505481565b60095481565b600e5481565b610e3b67e0f0fc834ef33cb760c01b61375c565b610e436139ef565b610e5767aa80bf1acbc7a3b460c01b61375c565b610e6b67222a0ab725ff146260c01b61375c565b610e7f67a38e4be88e43bc4960c01b61375c565b610e936757baaf059f10653b60c01b61375c565b610e9b61217e565b15610efa57610eb467e71bef162d072bac60c01b61375c565b610ec86727e3a0c1090e6b8e60c01b61375c565b6040517ff2a84b6300000000000000000000000000000000000000000000000000000000815260040160405180910390fd5b610f0e6721b69314d9d2a2bb60c01b61375c565b610f2267ffb0b40453e73f8160c01b61375c565b8060048190555050565b600f5481565b610f4667b7d9296b3397be2e60c01b61375c565b610f4e6139ef565b610f62678b4df1b98091d78e60c01b61375c565b610f76672f1085fb2ff5edd360c01b61375c565b610f8a673de99a6b50a6578660c01b61375c565b80600c8190555050565b6000610faa677ece8f4c2114adef60c01b61375c565b610fbe67e201ff0604d314a860c01b61375c565b610fd26744e142cc8a6d1ea760c01b61375c565b60ff82169050919050565b6060610ff367d74d46da6c0b1af160c01b61375c565b611007675b5c91c090bf76a960c01b61375c565b61101b67ead184bdfd1ccd8860c01b61375c565b6000600867ffffffffffffffff8111156110385761103761512a565b5b6040519080825280602002602001820160405280156110665781602001602082028036833780820191505090505b50905061107d67694bda97b4461c8a60c01b61375c565b6010600080815260200190815260200160002054816000815181106110a5576110a4615159565b5b6020026020010181815250506110c567fbd30dc550ae1b0360c01b61375c565b601060006001815260200190815260200160002054816001815181106110ee576110ed615159565b5b60200260200101818152505061110e67c1d55aa08666204c60c01b61375c565b6010600060028152602001908152602001600020548160028151811061113757611136615159565b5b60200260200101818152505061115767be0ad9b3008d209060c01b61375c565b601060006003815260200190815260200160002054816003815181106111805761117f615159565b5b6020026020010181815250506111a06755c4c1f7d054036b60c01b61375c565b601060006004815260200190815260200160002054816004815181106111c9576111c8615159565b5b6020026020010181815250506111e967c37efbe86c9f612a60c01b61375c565b6010600060058152602001908152602001600020548160058151811061121257611211615159565b5b6020026020010181815250506112326708587a9034fbffaf60c01b61375c565b6010600060068152602001908152602001600020548160068151811061125b5761125a615159565b5b60200260200101818152505061127b67e7ce43a8b5db463e60c01b61375c565b601060006007815260200190815260200160002054816007815181106112a4576112a3615159565b5b6020026020010181815250506112c4678b3116fef377fde360c01b61375c565b6112d867e16f30dcbb5da37960c01b61375c565b8091505090565b6112f367ce7262c297ffb82360c01b61375c565b6112fb6139ef565b61130e662b9f18cde32a9a60c01b61375c565b61132267fabd2edcfcb3de5160c01b61375c565b61133667ef8959984e96d67f60c01b61375c565b61134a67d71e609b2fc9e80060c01b61375c565b6000600360009054906101000a900473ffffffffffffffffffffffffffffffffffffffff1673ffffffffffffffffffffffffffffffffffffffff1682604051611392906151b9565b60006040518083038185875af1925050503d80600081146113cf576040519150601f19603f3d011682016040523d82523d6000602084013e6113d4565b606091505b505090506113ec67870b4747e23d538f60c01b61375c565b61140067f97889e85c3d62cd60c01b61375c565b6114146742f405e82fda33ef60c01b61375c565b80611454576040517f08c379a000000000000000000000000000000000000000000000000000000000815260040161144b9061522b565b60405180910390fd5b6114686754d6ff89465f858c60c01b61375c565b5050565b600061148267385d595fe1010a5560c01b61375c565b611496679b060a8ba52ed5b260c01b61375c565b6114aa6740fe3e660e4b1bd360c01b61375c565b600c54421015905090565b6114c967e81cac994d28ab0460c01b61375c565b6114d16139ef565b6114e5674d351530b4debb9860c01b61375c565b6114f967437f9dd5c06e488760c01b61375c565b61150d670c60990c8411682c60c01b61375c565b80600f8190555050565b600061152d67f7c28fe7eb3c9def60c01b61375c565b61154167348ec9647c71f94c60c01b61375c565b61155567e4e99c0dc025c0ea60c01b61375c565b600061156b675ae2d7188a345f4560c01b61375c565b601060006007815260200190815260200160002054601060006006815260200190815260200160002054601060006005815260200190815260200160002054601060006004815260200190815260200160002054601060006003815260200190815260200160002054601060006002815260200190815260200160002054601060006001815260200190815260200160002054601060008081526020019081526020016000205461161c919061524b565b611626919061524b565b611630919061524b565b61163a919061524b565b611644919061524b565b61164e919061524b565b611658919061524b565b905061166e67bde1358f276e611b60c01b61375c565b61168267bb8ed20b768a26cf60c01b61375c565b8091505090565b61169d676a5ea748d0a4f00f60c01b61375c565b6116a5613a6d565b6116b9676bf047aae0a49e8a60c01b61375c565b6116cd677602c0da1d28080160c01b61375c565b6116e167c566bdcc6c21fb9c60c01b61375c565b6116f56728cc5becdf94fba060c01b61375c565b6116fd61146c565b61176a5761171567fd508b82626413b860c01b61375c565b611729673efc0dc94c58c9c860c01b61375c565b600c54426040517f66803fc100000000000000000000000000000000000000000000000000000000815260040161176192919061527f565b60405180910390fd5b61177e67b3476fbed87f425d60c01b61375c565b61179267f638cfa9042edca460c01b61375c565b6117a6679b39de5ae383d72c60c01b61375c565b600033846040516020016117bb929190615368565b6040516020818303038152906040528051906020012090506117e76767336b3e7e2e886b60c01b61375c565b6117fb673f36d94d89192bd060c01b61375c565b61180f6749ea1ee2445eb9fa60c01b61375c565b61185d838380806020026020016040519081016040528093929190818152602001838360200280828437600081840152601f19601f82011690508083019250505050505050600f5483613abc565b61189c576040517f08c379a0000000000000000000000000000000000000000000000000000000008152600401611893906153eb565b60405180910390fd5b6118b067a5baf3ca2830a5ae60c01b61375c565b6118c4678830283bfd7f21ff60c01b61375c565b6118d867110bd36419f6c44260c01b61375c565b6000601260003373ffffffffffffffffffffffffffffffffffffffff1673ffffffffffffffffffffffffffffffffffffffff16815260200190815260200160002054905061193067f6a089fe947444e360c01b61375c565b61194467971bb205134daf5360c01b61375c565b6119586732dc688bd0aeb6ee60c01b61375c565b848682611965919061524b565b11156119a6576040517f08c379a000000000000000000000000000000000000000000000000000000000815260040161199d90615457565b60405180910390fd5b6119ba679d5e7da65268e7a860c01b61375c565b6119ce6785663a6fad0e8d0260c01b61375c565b85601260003373ffffffffffffffffffffffffffffffffffffffff1673ffffffffffffffffffffffffffffffffffffffff1681526020019081526020016000206000828254611a1d919061524b565b92505081905550611a38674fda3021eee9426060c01b61375c565b611a4c6788bf0a944461a6b860c01b61375c565b611a568633613ad3565b5050611a60613e49565b50505050565b600d5481565b60085481565b611a8667ba6499191b25ae4760c01b61375c565b611a8e6139ef565b611aa26759d6f0d61d13b0e660c01b61375c565b611ab667c7f23e3846f679a560c01b61375c565b611aca67df2383e8fd21779660c01b61375c565b80600a8190555050565b60126020528060005260406000206000915090505481565b611b006774202cb3f136a6ab60c01b61375c565b611b086139ef565b611b1c67ea9971539dfc6d1c60c01b61375c565b611b3067f4e5bb02b2d821c260c01b61375c565b611b44670c058152ed58100760c01b61375c565b80600b8190555050565b611b566139ef565b611b606000613e52565b565b6000611b7867a99ced2dcd36295e60c01b61375c565b611b8c6751a2d6bd2511fb5760c01b61375c565b611ba067a6c8c17071ba6e8c60c01b61375c565b600085604051602001611bb39190615477565b604051602081830303815290604052805190602001209050611bdf67b40ad1ce8a1fe24560c01b61375c565b611bf36799eac93ce9b2480b60c01b61375c565b848114611c2c57611c0e6711ff726a468842db60c01b61375c565b611c226769aee44348771e3e60c01b61375c565b6000915050611dd0565b611c4067705ca60e36ea6c3860c01b61375c565b611c54670a7b2e6e09038c4e60c01b61375c565b611c68677b0ce3e408788d3860c01b61375c565b611cb6848480806020026020016040519081016040528093929190818152602001838360200280828437600081840152601f19601f82011690508083019250505050505050600d5487613abc565b8015611cd25750611cd1670db088cb89ca8f3f60c01b613f16565b5b80611d435750611d26848480806020026020016040519081016040528093929190818152602001838360200280828437600081840152601f19601f82011690508083019250505050505050600e5487613abc565b8015611d425750611d4167969b4e5dae14942360c01b613f16565b5b5b15611d8e57611d5c6716b3c39833f2d40860c01b61375c565b611d70674ff3a12d9da8872a60c01b61375c565b611d846778ceb96bc6aca71e60c01b61375c565b6001915050611dd0565b611da2679435af39981ad76060c01b61375c565b611db6672522a09b2190082a60c01b61375c565b611dca6737c093e22fb47fa760c01b61375c565b60009150505b949350505050565b611dec6756dcd4e66274c5eb60c01b61375c565b611df46139ef565b611e0867f487f2f9a8a7bc2f60c01b61375c565b611e1c677a2640a4fde6a50760c01b61375c565b611e30678f396929b48d8f8660c01b61375c565b611e446753036d908650aff060c01b61375c565b6000600360009054906101000a900473ffffffffffffffffffffffffffffffffffffffff1673ffffffffffffffffffffffffffffffffffffffff1647604051611e8c906151b9565b60006040518083038185875af1925050503d8060008114611ec9576040519150601f19603f3d011682016040523d82523d6000602084013e611ece565b606091505b50509050611ee6678c740dfdf7140fe860c01b61375c565b611efa67254ad48106aeddd760c01b61375c565b611f0e6717f2ebe44f65c67f60c01b61375c565b80611f4e576040517f08c379a0000000000000000000000000000000000000000000000000000000008152600401611f45906154de565b60405180910390fd5b611f62673c60c4742c0d1bbb60c01b61375c565b50565b611f7967cffa2b7455929e8760c01b61375c565b611f816139ef565b611f95678e25cfa6891a1d8960c01b61375c565b611fa967bac541b4bf62ee3360c01b61375c565b611fbd671cf436ee7f67e98a60c01b61375c565b80600360006101000a81548173ffffffffffffffffffffffffffffffffffffffff021916908373ffffffffffffffffffffffffffffffffffffffff16021790555050565b600061201767d38f196e8ac7b8bc60c01b61375c565b61202b67733964cd08d0108760c01b61375c565b61203f67417cb023a39126da60c01b61375c565b600a54421015905090565b600c5481565b60008060009054906101000a900473ffffffffffffffffffffffffffffffffffffffff16905090565b61208d670f58631250aaf75660c01b61375c565b6120956139ef565b6120a967ea7785950b7bc83160c01b61375c565b6120bd6721a695c58de01e0560c01b61375c565b6120d167fdae619d0c5777f360c01b61375c565b6120e567ee4b1c307bbf111c60c01b61375c565b6120ed61217e565b1561214c576121066799298f039d2f3ac860c01b61375c565b61211a67fc1334114bdc5cba60c01b61375c565b6040517ff2a84b6300000000000000000000000000000000000000000000000000000000815260040160405180910390fd5b6121606787d6aa15b92c454860c01b61375c565b6121746765877e5b15b708de60c01b61375c565b8060098190555050565b60006121946726f652515e5a5ab960c01b61375c565b6121a867e14c749aa48aabe460c01b61375c565b6121bc673c2fb9b40c6008da60c01b61375c565b600b54421015905090565b600781815481106121d757600080fd5b906000526020600020016000915090505481565b6121ff6748aa75870fb8b32a60c01b61375c565b6122076139ef565b61221b67832662a53dce74c760c01b61375c565b61222f676a5f8fe411ce764260c01b61375c565b612243671f8e5fc60c6c6a9b60c01b61375c565b61225767c4f9fa40efc7834a60c01b61375c565b600073ffffffffffffffffffffffffffffffffffffffff163373ffffffffffffffffffffffffffffffffffffffff16036122e55761229f6703e1599eaf7bf63f60c01b61375c565b6122b3671fcd7a0a736a20dd60c01b61375c565b6040517f48ac165200000000000000000000000000000000000000000000000000000000815260040160405180910390fd5b6122f967d8433a9f77080ba060c01b61375c565b61230d671a0d3348253655ec60c01b61375c565b612321671d8e31a06cb036c860c01b61375c565b8173ffffffffffffffffffffffffffffffffffffffff1663a9059cbb33836040518363ffffffff1660e01b815260040161235c9291906154fe565b6020604051808303816000875af115801561237b573d6000803e3d6000fd5b505050506040513d601f19601f8201168201806040525081019061239f9190615553565b505050565b600260009054906101000a900473ffffffffffffffffffffffffffffffffffffffff1681565b6123de67d7e7a2b6c94be16c60c01b61375c565b6123e66139ef565b6123fa6703e846d477ce703960c01b61375c565b61240e67ce656ad479c937c560c01b61375c565b612422675e22215be5396b1660c01b61375c565b61243667ab78d1cdf0c0c50f60c01b61375c565b61244a67cc7498327546206860c01b61375c565b818190508484905014612492576040517f08c379a0000000000000000000000000000000000000000000000000000000008152600401612489906155f2565b60405180910390fd5b6124a6674bf150ef486593e060c01b61375c565b6124ba674b18573c6b88772760c01b61375c565b6124ce67c6b972ce360c79ac60c01b61375c565b60005b828290508110156126c5576124f0676b6f7ea392e457f060c01b61375c565b61250467e536327f4489013c60c01b61375c565b600061253686868481811061251c5761251b615159565b5b90506020020160208101906125319190615637565b613f21565b905061254c671081fa8de8ea521560c01b61375c565b6010600087878581811061256357612562615159565b5b90506020020160208101906125789190615637565b600781111561258a57612589615664565b5b8152602001908152602001600020600081546125a590615693565b919050819055506125c067aff8ea71d97bebca60c01b61375c565b6125d4678b2556e4aaac790c60c01b61375c565b600260009054906101000a900473ffffffffffffffffffffffffffffffffffffffff1673ffffffffffffffffffffffffffffffffffffffff166386ebf01085858581811061262557612624615159565b5b905060200201602081019061263a9190614b50565b8389898781811061264e5761264d615159565b5b90506020020160208101906126639190615637565b6040518463ffffffff1660e01b815260040161268193929190615723565b600060405180830381600087803b15801561269b57600080fd5b505af11580156126af573d6000803e3d6000fd5b5050505050806126be90615693565b90506124d1565b5050505050565b6126e067dcd7b271498bd4ef60c01b61375c565b6126e8613a6d565b6126fc679fac08a00addcc7f60c01b61375c565b612710672d189804ea0adcc460c01b61375c565b61272467717f156e59947c6d60c01b61375c565b61273867bcb641f3599af6b960c01b61375c565b6127418161375f565b612749613e49565b50565b60006127626710590ca0bc1b84c260c01b61375c565b6127766747bc4fd9e2ae387860c01b61375c565b61278a6774ef13f922a5c22960c01b61375c565b600954905090565b6127a667a258ae879999b42c60c01b61375c565b6127ae6139ef565b6127c267fcc894931c4791c760c01b61375c565b6127d66755bc7cf853703ec260c01b61375c565b6127ea67d023fff94bb19ab460c01b61375c565b6127fe67150223a91e704d8460c01b61375c565b61280661217e565b156128655761281f679e25e57d285d07af60c01b61375c565b61283367ff71b883bf0cd7c460c01b61375c565b6040517ff2a84b6300000000000000000000000000000000000000000000000000000000815260040160405180910390fd5b612879670b6693038dfa6d0060c01b61375c565b61288d67d746764693ce52ed60c01b61375c565b8060088190555050565b6128ab6775c8c12c440d965c60c01b61375c565b6128b36139ef565b6128c767784f17122fc6f3ef60c01b61375c565b6128db676e1ef779a84c619560c01b61375c565b6128ef67d960335be933b0c460c01b61375c565b80600260006101000a81548173ffffffffffffffffffffffffffffffffffffffff021916908373ffffffffffffffffffffffffffffffffffffffff16021790555050565b600061294967595dcd6cffb608bd60c01b61375c565b61295d672691bb052b4f95b260c01b61375c565b6129716715a1ac5a08c1a18f60c01b61375c565b6000600454905061298c671dbf12dd81e5d70560c01b61375c565b6010600080815260200190815260200160002054816129ab9190615012565b90506129c16719ae53ca0268b87160c01b61375c565b601060006001815260200190815260200160002054816129e19190615012565b90506129f767770f5738bcb3476660c01b61375c565b60106000600281526020019081526020016000205481612a179190615012565b9050612a2d676540c61d0b14d95760c01b61375c565b60106000600381526020019081526020016000205481612a4d9190615012565b9050612a636746802d366debbb6760c01b61375c565b60106000600481526020019081526020016000205481612a839190615012565b9050612a99671ba9e1f04e68e2a960c01b61375c565b60106000600581526020019081526020016000205481612ab99190615012565b9050612acf67e6771696d2a6198960c01b61375c565b60106000600681526020019081526020016000205481612aef9190615012565b9050612b0567b0f4496ccc521dda60c01b61375c565b60106000600781526020019081526020016000205481612b259190615012565b9050612b3b676c15bb27b725426460c01b61375c565b612b4f67f3b11f01d650734a60c01b61375c565b8091505090565b612b6a67371ea2f73bb2819660c01b61375c565b612b726139ef565b612b86671a066708b7bf458360c01b61375c565b612b9a6738834026154611cd60c01b61375c565b612bae6724a6d85a5f3f4ca360c01b61375c565b80600e8190555050565b612bcc67d513d2c8365d429a60c01b61375c565b612bd46139ef565b612be86773d83879cc188f3860c01b61375c565b612bfc67e00cfda1c03652af60c01b61375c565b612c106728642af5d6e299f960c01b61375c565b612c2467247aef08b0a35d7a60c01b61375c565b60088282905014612c9a57612c4367bf3392c41ff3357560c01b61375c565b612c57677838befa8f03d56e60c01b61375c565b8181905060086040517f485d33a2000000000000000000000000000000000000000000000000000000008152600401612c91929190615795565b60405180910390fd5b612cae676a3947fd47f3bd2e60c01b61375c565b612cc2672bdb8cfd4e7530c460c01b61375c565b612cd6673a27dcb78cfc0e5060c01b61375c565b612cde61217e565b15612d3d57612cf76720b86b6e0fc5a6e560c01b61375c565b612d0b67c3fd20046c2655fc60c01b61375c565b6040517ff2a84b6300000000000000000000000000000000000000000000000000000000815260040160405180910390fd5b612d5167ca6a8dcdf4c92ec660c01b61375c565b612d6567cdddb34ca365207560c01b61375c565b818160079190612d76929190614775565b505050565b612d8f67a47cac3a486f57f460c01b61375c565b612d976139ef565b612dab67453a9ae96e4a743460c01b61375c565b612dbf67f875cbdb4ab6ad4660c01b61375c565b612dd367ac1c305df3b4692360c01b61375c565b80600d8190555050565b612df16754aa462ec40916e660c01b61375c565b612df9613a6d565b612e0d6706fee9c72d5ad07060c01b61375c565b612e2167555cf4907b7603a960c01b61375c565b612e35678364be5c9883748e60c01b61375c565b612e4967eedf4656b36608f960c01b61375c565b612e5161217e565b612ebe57612e6967dcb70848b175415960c01b61375c565b612e7d67bf63c438b5a9e09e60c01b61375c565b600b54426040517f66803fc1000000000000000000000000000000000000000000000000000000008152600401612eb592919061527f565b60405180910390fd5b612ed26790e59bc892cc793060c01b61375c565b612ee667214d63d43176e38e60c01b61375c565b612efa67d9f07fc7c681b33b60c01b61375c565b60008411158015612f1b5750612f1a67c94738cd9a0380f460c01b613f16565b5b80612f425750601484118015612f415750612f40675db26bb1c0c8004d60c01b613f16565b5b5b15612fa157612f5b67c2e99387c9ea43eb60c01b61375c565b612f6f67389a9cc2b504705d60c01b61375c565b6040517fca02d6eb00000000000000000000000000000000000000000000000000000000815260040160405180910390fd5b612fb567d189763dde4bf10e60c01b61375c565b612fc967a5301ef0665c510360c01b61375c565b612fdd677f1096bce966202e60c01b61375c565b60003384604051602001612ff2929190615368565b60405160208183030381529060405280519060200120905061301e6749e3cf779edfd89360c01b61375c565b6130326727cc071cea1760f560c01b61375c565b613046676767260ec47c36bb60c01b61375c565b613094838380806020026020016040519081016040528093929190818152602001838360200280828437600081840152601f19601f82011690508083019250505050505050600d5483613abc565b80156130b057506130af67c1e4fbf13b65e05660c01b613f16565b5b806131215750613104838380806020026020016040519081016040528093929190818152602001838360200280828437600081840152601f19601f82011690508083019250505050505050600e5483613abc565b8015613120575061311f67077eb7517601ebbe60c01b613f16565b5b5b613160576040517f08c379a0000000000000000000000000000000000000000000000000000000008152600401613157906153eb565b60405180910390fd5b61317467b20c779882fd4e2860c01b61375c565b61318867146733753ff637ac60c01b61375c565b61319c6743eef1391c70ff1e60c01b61375c565b6000601160003373ffffffffffffffffffffffffffffffffffffffff1673ffffffffffffffffffffffffffffffffffffffff1681526020019081526020016000205490506131f467a09b12c19eb5c2fb60c01b61375c565b613208677c40b50c3cee967b60c01b61375c565b61321c67989565850df73e9a60c01b61375c565b848682613229919061524b565b111561326a576040517f08c379a00000000000000000000000000000000000000000000000000000000081526004016132619061580a565b60405180910390fd5b61327e67b451a61c6987562860c01b61375c565b61329267ef2405379be8f28260c01b61375c565b85601160003373ffffffffffffffffffffffffffffffffffffffff1673ffffffffffffffffffffffffffffffffffffffff16815260200190815260200160002060008282546132e1919061524b565b925050819055506132fc6706facb2c95e37d5c60c01b61375c565b61331067be8c4abc7cdc8c2160c01b61375c565b61331a8633614289565b5050613324613e49565b50505050565b600a5481565b613344679b65c0b167314a6a60c01b61375c565b61334c6139ef565b61336067bc86660e88a1511260c01b61375c565b61337467f427a93c2f21d76b60c01b61375c565b61338867d7243bc38586f4e860c01b61375c565b61339c67cfbefa4cc890fc0f60c01b61375c565b60006133b26757b2e4cb7b65d95760c01b61375c565b6133c667caac713d24e509e560c01b61375c565b60005b83839050811015613422576133e867ac0beaa9bf1efa6c60c01b61375c565b8383828181106133fb576133fa615159565b5b905060200201358261340d919061524b565b9150808061341a90615693565b9150506133c9565b50613437670f674f31ba3097a560c01b61375c565b61344b671f56501a3580b5e560c01b61375c565b606481146134bb57613467672727b5ec6e02346160c01b61375c565b61347b671ee56883405fb60f60c01b61375c565b8060646040517f485d33a20000000000000000000000000000000000000000000000000000000081526004016134b2929190615865565b60405180910390fd5b6134cf673e3711868c14c6b060c01b61375c565b6134e367bb74e6f606cfc35160c01b61375c565b6134f767f9e3716ec48abb4e60c01b61375c565b6008838390501461356d576135166761ae9a8cdfff4f2f60c01b61375c565b61352a67bc763588abe67a3260c01b61375c565b8282905060086040517f485d33a2000000000000000000000000000000000000000000000000000000008152600401613564929190615795565b60405180910390fd5b6135816796b01ca22ca9639460c01b61375c565b6135956757fb42e71e63468460c01b61375c565b6135a967848364ec8e20d2c060c01b61375c565b6135b161217e565b15613610576135ca67ca0775cc3e78e40c60c01b61375c565b6135de677470b3db1067704a60c01b61375c565b6040517ff2a84b6300000000000000000000000000000000000000000000000000000000815260040160405180910390fd5b6136246715d3728355eb5d4160c01b61375c565b61363867a60388ac7c44e05860c01b61375c565b828260069190613649929190614775565b50505050565b600061366567049ab801895b890a60c01b61375c565b61367967b3656d5c41d49b3060c01b61375c565b61368d67fa44fe493b17134160c01b61375c565b600454905090565b60116020528060005260406000206000915090505481565b6136b56139ef565b600073ffffffffffffffffffffffffffffffffffffffff168173ffffffffffffffffffffffffffffffffffffffff1603613724576040517f08c379a000000000000000000000000000000000000000000000000000000000815260040161371b90615900565b60405180910390fd5b61372d81613e52565b50565b600b5481565b600360009054906101000a900473ffffffffffffffffffffffffffffffffffffffff1681565b50565b613773675fdde977ceffdb8f60c01b61375c565b613787672323d30c29b01db860c01b61375c565b61379b67f5f51ba7f41dc5d660c01b61375c565b6137a3612001565b613810576137bb67485700bbefb4d56c60c01b61375c565b6137cf67ea323790ef8e3a8b60c01b61375c565b600a54426040517f66803fc100000000000000000000000000000000000000000000000000000000815260040161380792919061527f565b60405180910390fd5b61382467814dc6fb7db458b360c01b61375c565b613838670f3773f14251e82a60c01b61375c565b61384c6791d1416f959f5a0060c01b61375c565b6000811115801561386d575061386c67fb077aff43cbfd5f60c01b613f16565b5b80613894575060148111801561389357506138926723ac717b299a8a7660c01b613f16565b5b5b156138f3576138ad679c2c4bc552d2a87c60c01b61375c565b6138c167f2e73cbda7524fc660c01b61375c565b6040517fca02d6eb00000000000000000000000000000000000000000000000000000000815260040160405180910390fd5b613907676a47b1cc1489613660c01b61375c565b61391b678c55a9631e25d46760c01b61375c565b61392f6713d22acbc335a15d60c01b61375c565b6139398133614289565b50565b613950674bfa572b9079827b60c01b61375c565b61396467e930e4c39c349d7760c01b61375c565b80601160003373ffffffffffffffffffffffffffffffffffffffff1673ffffffffffffffffffffffffffffffffffffffff16815260200190815260200160002060008282546139b3919061524b565b925050819055506139ce6712f6285e7916cf1d60c01b61375c565b6139e267696542a4bdf5339260c01b61375c565b6139ec8133613ad3565b50565b6139f7614412565b73ffffffffffffffffffffffffffffffffffffffff16613a15612050565b73ffffffffffffffffffffffffffffffffffffffff1614613a6b576040517f08c379a0000000000000000000000000000000000000000000000000000000008152600401613a629061596c565b60405180910390fd5b565b600260015403613ab2576040517f08c379a0000000000000000000000000000000000000000000000000000000008152600401613aa9906159d8565b60405180910390fd5b6002600181905550565b600082613ac9858461441a565b1490509392505050565b613ae767af62867ea2cb7e6160c01b61375c565b613afb679578a05470f3782360c01b61375c565b613b0f671f963d2bd8f82baa60c01b61375c565b613b2367378eb8099eae132360c01b61375c565b3073ffffffffffffffffffffffffffffffffffffffff1663b9a43f2e6040518163ffffffff1660e01b8152600401602060405180830381865afa158015613b6e573d6000803e3d6000fd5b505050506040513d601f19601f82011682018060405250810190613b929190615a0d565b823073ffffffffffffffffffffffffffffffffffffffff166346bf289f6040518163ffffffff1660e01b8152600401602060405180830381865afa158015613bde573d6000803e3d6000fd5b505050506040513d601f19601f82011682018060405250810190613c029190615a0d565b613c0c919061524b565b1115613c4d576040517f08c379a0000000000000000000000000000000000000000000000000000000008152600401613c4490615a86565b60405180910390fd5b613c6167767508d33b55453360c01b61375c565b613c756731c1b626051a3cc160c01b61375c565b613c8967e2e59cabf2393b5560c01b61375c565b60005b82811015613e4457613ca8675f30eb1b2ddfa4c860c01b61375c565b613cbc67f04f27040ed3728f60c01b61375c565b6000613cc6614470565b9050613cdc67b07f4ce4f1e96a6b60c01b61375c565b613cf0677daec993224dd81060c01b61375c565b6000816007811115613d0557613d04615664565b5b9050613d1b67e21ca176d5de83cf60c01b61375c565b613d2f67829ebb5cd9f85f6f60c01b61375c565b6000613d3a82613f21565b9050613d506760d487b8c354253360c01b61375c565b6010600084815260200190815260200160002060008154613d7090615693565b91905081905550613d8b6771b5dc407f5a70a660c01b61375c565b613d9f6770ecdb1d4efb011060c01b61375c565b600260009054906101000a900473ffffffffffffffffffffffffffffffffffffffff1673ffffffffffffffffffffffffffffffffffffffff166386ebf0108683856040518463ffffffff1660e01b8152600401613dfe93929190615723565b600060405180830381600087803b158015613e1857600080fd5b505af1158015613e2c573d6000803e3d6000fd5b5050505050505080613e3d90615693565b9050613c8c565b505050565b60018081905550565b60008060009054906101000a900473ffffffffffffffffffffffffffffffffffffffff169050816000806101000a81548173ffffffffffffffffffffffffffffffffffffffff021916908373ffffffffffffffffffffffffffffffffffffffff1602179055508173ffffffffffffffffffffffffffffffffffffffff168173ffffffffffffffffffffffffffffffffffffffff167f8be0079c531659141344cd1fd0a4f28419497f9722a3daafe3b4186f6b6457e060405160405180910390a35050565b600060019050919050565b6000613f37677b0cd0936251634b60c01b61375c565b613f4b676dd0e852c9097d9a60c01b61375c565b613f5f67c3012fdedc138a8960c01b61375c565b60006008546010600060078152602001908152602001600020546010600060068152602001908152602001600020546010600060058152602001908152602001600020546010600060048152602001908152602001600020546010600060038152602001908152602001600020546010600060028152602001908152602001600020546010600060018152602001908152602001600020546010600080815260200190815260200160002054614015919061524b565b61401f919061524b565b614029919061524b565b614033919061524b565b61403d919061524b565b614047919061524b565b614051919061524b565b61405b919061524b565b905061407167b37dc6ea91089efd60c01b61375c565b61408567b25bfffafd50be4360c01b61375c565b6000600784600781111561409c5761409b615664565b5b815481106140ad576140ac615159565b5b9060005260206000200154601060008660078111156140cf576140ce615664565b5b8152602001908152602001600020546140e8919061524b565b90506140fe674d3f1c90513c385460c01b61375c565b6141126766cc27d73bc89e6060c01b61375c565b6141266780cb391e826cdb6560c01b61375c565b63ffffffff81111561416d576040517f08c379a000000000000000000000000000000000000000000000000000000000815260040161416490615af2565b60405180910390fd5b614181671f1ba2aa617098d960c01b61375c565b61419567fee86957608217d460c01b61375c565b6141a9679c252671b8d2428f60c01b61375c565b6141bd6723089083cb7a449060c01b61375c565b60ff8460078111156141d2576141d1615664565b5b1115614213576040517f08c379a000000000000000000000000000000000000000000000000000000000815260040161420a90615b5e565b60405180910390fd5b6142276757d4167a40c4a07a60c01b61375c565b61423b670d02b6ca0366220560c01b61375c565b61424f67375f7b40ae15614f60c01b61375c565b83600781111561426257614261615664565b5b600882901b602884901b614276919061524b565b614280919061524b565b92505050919050565b61429d67ebcc79bb6224909960c01b61375c565b6142b1678cedf664aaced5ff60c01b61375c565b6142c567e348ebda01e5b7da60c01b61375c565b600060095411614329576142e367ec31c25dc91a907360c01b61375c565b6142f767ccf7f6b59287ae4660c01b61375c565b6040517fc5fadba600000000000000000000000000000000000000000000000000000000815260040160405180910390fd5b61433d6725c7c3732ec9d70b60c01b61375c565b614351675a592e26eebef57f60c01b61375c565b6143656703ba30ef9d845fe160c01b61375c565b614379671039b608b3e5c31860c01b61375c565b816009546143879190615b7e565b34146143c8576040517f08c379a00000000000000000000000000000000000000000000000000000000081526004016143bf90615c32565b60405180910390fd5b6143dc676e45cce96e80bd2e60c01b61375c565b6143f067412600a0efc91ef660c01b61375c565b614404676f476a5d9facd6f560c01b61375c565b61440e8282613ad3565b5050565b600033905090565b60008082905060005b8451811015614465576144508286838151811061444357614442615159565b5b6020026020010151614733565b9150808061445d90615693565b915050614423565b508091505092915050565b6000614486679acf694d0ed84e7460c01b61375c565b61449a6784b630aff37e9cb460c01b61375c565b6144ae67b0dc887c8680c36560c01b61375c565b60006144c46718c23a2c221ad19b60c01b61375c565b600560008154809291906144d790615693565b91905055506144f06735a62cdfa6e3341260c01b61375c565b61450467d1be6d0480a20bef60c01b61375c565b600060016064423360055460405160200161452193929190615c52565b6040516020818303038152906040528051906020012060001c6145449190615cbe565b61454e919061524b565b905061456467be067adf32d6431a60c01b61375c565b6145786789b8f4d24284140d60c01b61375c565b600061458e67981e6e9031d5ffbd60c01b61375c565b6145a26730126ecff71a224360c01b61375c565b600060066000815481106145b9576145b8615159565b5b906000526020600020015490506145da6719850917dbdf9dfa60c01b61375c565b6145ee6789f4a3238867bd0660c01b61375c565b6000600190505b6006805490508110156147005761461667a206d4c67641dcab60c01b61375c565b81925061462d67c4286d601d1e74e260c01b61375c565b6006818154811061464157614640615159565b5b906000526020600020015482614657919061524b565b915061466d6775bf16ea72502ba960c01b61375c565b61468167d3e4730dfeba51e260c01b61375c565b82841180156146905750818411155b156146d9576146a967f0f6a348d7ce530760c01b61375c565b6146bd67b5683c2ea96afe5e60c01b61375c565b8094506146d4672ee67b4ec01c34bc60c01b61375c565b614700565b6146ed67d7674992b2a0057560c01b61375c565b80806146f890615693565b9150506145f5565b5061471567fa1798eeacebb54660c01b61375c565b614729675365140fa284ebde60c01b61375c565b8394505050505090565b600081831061474b57614746828461475e565b614756565b614755838361475e565b5b905092915050565b600082600052816020526040600020905092915050565b8280548282559060005260206000209081019282156147b1579160200282015b828111156147b0578235825591602001919060010190614795565b5b5090506147be91906147c2565b5090565b5b808211156147db5760008160009055506001016147c3565b5090565b600081519050919050565b600082825260208201905092915050565b6000819050602082019050919050565b6000819050919050565b61481e8161480b565b82525050565b60006148308383614815565b60208301905092915050565b6000602082019050919050565b6000614854826147df565b61485e81856147ea565b9350614869836147fb565b8060005b8381101561489a5781516148818882614824565b975061488c8361483c565b92505060018101905061486d565b5085935050505092915050565b600060208201905081810360008301526148c18184614849565b905092915050565b600080fd5b600080fd5b6148dc8161480b565b81146148e757600080fd5b50565b6000813590506148f9816148d3565b92915050565b600080fd5b600080fd5b600080fd5b60008083601f840112614924576149236148ff565b5b8235905067ffffffffffffffff81111561494157614940614904565b5b60208301915083602082028301111561495d5761495c614909565b5b9250929050565b6000806000806060858703121561497e5761497d6148c9565b5b600061498c878288016148ea565b945050602061499d878288016148ea565b935050604085013567ffffffffffffffff8111156149be576149bd6148ce565b5b6149ca8782880161490e565b925092505092959194509250565b6000602082840312156149ee576149ed6148c9565b5b60006149fc848285016148ea565b91505092915050565b614a0e8161480b565b82525050565b6000602082019050614a296000830184614a05565b92915050565b6000819050919050565b614a4281614a2f565b82525050565b6000602082019050614a5d6000830184614a39565b92915050565b60008115159050919050565b614a7881614a63565b82525050565b6000602082019050614a936000830184614a6f565b92915050565b614aa281614a2f565b8114614aad57600080fd5b50565b600081359050614abf81614a99565b92915050565b600060208284031215614adb57614ada6148c9565b5b6000614ae984828501614ab0565b91505092915050565b600073ffffffffffffffffffffffffffffffffffffffff82169050919050565b6000614b1d82614af2565b9050919050565b614b2d81614b12565b8114614b3857600080fd5b50565b600081359050614b4a81614b24565b92915050565b600060208284031215614b6657614b656148c9565b5b6000614b7484828501614b3b565b91505092915050565b60008060008060608587031215614b9757614b966148c9565b5b6000614ba587828801614b3b565b9450506020614bb687828801614ab0565b935050604085013567ffffffffffffffff811115614bd757614bd66148ce565b5b614be38782880161490e565b925092505092959194509250565b6000614bfc82614af2565b9050919050565b614c0c81614bf1565b8114614c1757600080fd5b50565b600081359050614c2981614c03565b92915050565b600060208284031215614c4557614c446148c9565b5b6000614c5384828501614c1a565b91505092915050565b614c6581614b12565b82525050565b6000602082019050614c806000830184614c5c565b92915050565b6000614c9182614b12565b9050919050565b614ca181614c86565b8114614cac57600080fd5b50565b600081359050614cbe81614c98565b92915050565b60008060408385031215614cdb57614cda6148c9565b5b6000614ce985828601614caf565b9250506020614cfa858286016148ea565b9150509250929050565b6000819050919050565b6000614d29614d24614d1f84614af2565b614d04565b614af2565b9050919050565b6000614d3b82614d0e565b9050919050565b6000614d4d82614d30565b9050919050565b614d5d81614d42565b82525050565b6000602082019050614d786000830184614d54565b92915050565b60008083601f840112614d9457614d936148ff565b5b8235905067ffffffffffffffff811115614db157614db0614904565b5b602083019150836020820283011115614dcd57614dcc614909565b5b9250929050565b60008083601f840112614dea57614de96148ff565b5b8235905067ffffffffffffffff811115614e0757614e06614904565b5b602083019150836020820283011115614e2357614e22614909565b5b9250929050565b60008060008060408587031215614e4457614e436148c9565b5b600085013567ffffffffffffffff811115614e6257614e616148ce565b5b614e6e87828801614d7e565b9450945050602085013567ffffffffffffffff811115614e9157614e906148ce565b5b614e9d87828801614dd4565b925092505092959194509250565b6000614eb682614b12565b9050919050565b614ec681614eab565b8114614ed157600080fd5b50565b600081359050614ee381614ebd565b92915050565b600060208284031215614eff57614efe6148c9565b5b6000614f0d84828501614ed4565b91505092915050565b60008083601f840112614f2c57614f2b6148ff565b5b8235905067ffffffffffffffff811115614f4957614f48614904565b5b602083019150836020820283011115614f6557614f64614909565b5b9250929050565b60008060208385031215614f8357614f826148c9565b5b600083013567ffffffffffffffff811115614fa157614fa06148ce565b5b614fad85828601614f16565b92509250509250929050565b614fc281614bf1565b82525050565b6000602082019050614fdd6000830184614fb9565b92915050565b7f4e487b7100000000000000000000000000000000000000000000000000000000600052601160045260246000fd5b600061501d8261480b565b91506150288361480b565b92508282039050818111156150405761503f614fe3565b5b92915050565b60006150518261480b565b91506000820361506457615063614fe3565b5b600182039050919050565b600082825260208201905092915050565b600080fd5b82818337505050565b600061509a838561506f565b93507f07ffffffffffffffffffffffffffffffffffffffffffffffffffffffffffffff8311156150cd576150cc615080565b5b6020830292506150de838584615085565b82840190509392505050565b60006060820190506150ff6000830187614a05565b61510c6020830186614a05565b818103604083015261511f81848661508e565b905095945050505050565b7f4e487b7100000000000000000000000000000000000000000000000000000000600052604160045260246000fd5b7f4e487b7100000000000000000000000000000000000000000000000000000000600052603260045260246000fd5b600081905092915050565b50565b60006151a3600083615188565b91506151ae82615193565b600082019050919050565b60006151c482615196565b9150819050919050565b600082825260208201905092915050565b7f776974686472617720776173206e6f742073756363657366756c6c0000000000600082015250565b6000615215601b836151ce565b9150615220826151df565b602082019050919050565b6000602082019050818103600083015261524481615208565b9050919050565b60006152568261480b565b91506152618361480b565b925082820190508082111561527957615278614fe3565b5b92915050565b60006040820190506152946000830185614a05565b6152a16020830184614a05565b9392505050565b60008160601b9050919050565b60006152c0826152a8565b9050919050565b60006152d2826152b5565b9050919050565b6152ea6152e582614b12565b6152c7565b82525050565b600081905092915050565b7f3a00000000000000000000000000000000000000000000000000000000000000600082015250565b60006153316001836152f0565b915061533c826152fb565b600182019050919050565b6000819050919050565b61536261535d8261480b565b615347565b82525050565b600061537482856152d9565b60148201915061538382615324565b915061538f8284615351565b6020820191508190509392505050565b7f496e76616c69642070726f6f662e000000000000000000000000000000000000600082015250565b60006153d5600e836151ce565b91506153e08261539f565b602082019050919050565b60006020820190508181036000830152615404816153c8565b9050919050565b7f436c61696d696e67206d6f7265207468616e20616c6c6f7765642e0000000000600082015250565b6000615441601b836151ce565b915061544c8261540b565b602082019050919050565b6000602082019050818103600083015261547081615434565b9050919050565b600061548382846152d9565b60148201915081905092915050565b7f776974686472617720616c6c20776173206e6f742073756363657366756c6c00600082015250565b60006154c8601f836151ce565b91506154d382615492565b602082019050919050565b600060208201905081810360008301526154f7816154bb565b9050919050565b60006040820190506155136000830185614c5c565b6155206020830184614a05565b9392505050565b61553081614a63565b811461553b57600080fd5b50565b60008151905061554d81615527565b92915050565b600060208284031215615569576155686148c9565b5b60006155778482850161553e565b91505092915050565b7f4172726179732073686f756c642068617665207468652073616d652073697a6560008201527f2e00000000000000000000000000000000000000000000000000000000000000602082015250565b60006155dc6021836151ce565b91506155e782615580565b604082019050919050565b6000602082019050818103600083015261560b816155cf565b9050919050565b6008811061561f57600080fd5b50565b60008135905061563181615612565b92915050565b60006020828403121561564d5761564c6148c9565b5b600061565b84828501615622565b91505092915050565b7f4e487b7100000000000000000000000000000000000000000000000000000000600052602160045260246000fd5b600061569e8261480b565b91507fffffffffffffffffffffffffffffffffffffffffffffffffffffffffffffffff82036156d0576156cf614fe3565b5b600182019050919050565b600881106156ec576156eb615664565b5b50565b60008190506156fd826156db565b919050565b600061570d826156ef565b9050919050565b61571d81615702565b82525050565b60006060820190506157386000830186614c5c565b6157456020830185614a05565b6157526040830184615714565b949350505050565b6000819050919050565b600061577f61577a6157758461575a565b614d04565b61480b565b9050919050565b61578f81615764565b82525050565b60006040820190506157aa6000830185614a05565b6157b76020830184615786565b9392505050565b7f4d696e74696e67206d6f7265207468616e20616c6c6f7765642e000000000000600082015250565b60006157f4601a836151ce565b91506157ff826157be565b602082019050919050565b60006020820190508181036000830152615823816157e7565b9050919050565b6000819050919050565b600061584f61584a6158458461582a565b614d04565b61480b565b9050919050565b61585f81615834565b82525050565b600060408201905061587a6000830185614a05565b6158876020830184615856565b9392505050565b7f4f776e61626c653a206e6577206f776e657220697320746865207a65726f206160008201527f6464726573730000000000000000000000000000000000000000000000000000602082015250565b60006158ea6026836151ce565b91506158f58261588e565b604082019050919050565b60006020820190508181036000830152615919816158dd565b9050919050565b7f4f776e61626c653a2063616c6c6572206973206e6f7420746865206f776e6572600082015250565b60006159566020836151ce565b915061596182615920565b602082019050919050565b6000602082019050818103600083015261598581615949565b9050919050565b7f5265656e7472616e637947756172643a207265656e7472616e742063616c6c00600082015250565b60006159c2601f836151ce565b91506159cd8261598c565b602082019050919050565b600060208201905081810360008301526159f1816159b5565b9050919050565b600081519050615a07816148d3565b92915050565b600060208284031215615a2357615a226148c9565b5b6000615a31848285016159f8565b91505092915050565b7f547279696e6720746f206d696e7420746f6f206d616e792072696e67732e0000600082015250565b6000615a70601e836151ce565b9150615a7b82615a3a565b602082019050919050565b60006020820190508181036000830152615a9f81615a63565b9050919050565b7f4c6f63616c20696e646578206f766572666c6f772e0000000000000000000000600082015250565b6000615adc6015836151ce565b9150615ae782615aa6565b602082019050919050565b60006020820190508181036000830152615b0b81615acf565b9050919050565b7f52696e6720696e646578206f766572666c6f772e000000000000000000000000600082015250565b6000615b486014836151ce565b9150615b5382615b12565b602082019050919050565b60006020820190508181036000830152615b7781615b3b565b9050919050565b6000615b898261480b565b9150615b948361480b565b9250828202615ba28161480b565b91508282048414831517615bb957615bb8614fe3565b5b5092915050565b7f45746865722076616c75652073656e74206973206e6f7420616363757261746560008201527f2e00000000000000000000000000000000000000000000000000000000000000602082015250565b6000615c1c6021836151ce565b9150615c2782615bc0565b604082019050919050565b60006020820190508181036000830152615c4b81615c0f565b9050919050565b6000615c5e8286615351565b602082019150615c6e82856152d9565b601482019150615c7e8284615351565b602082019150819050949350505050565b7f4e487b7100000000000000000000000000000000000000000000000000000000600052601260045260246000fd5b6000615cc98261480b565b9150615cd48361480b565b925082615ce457615ce3615c8f565b5b82820690509291505056fea26469706673582212202bb82b7b9f4b2a5584c9ca4c59fc62825a509f05b1d2f6f31232d12cbe10e98e64736f6c63430008120033",
  "linkReferences": {},
  "deployedLinkReferences": {}
}