{
  "_format": "hh-sol-artifact-1",
  "contractName": "FundersRingMinter",
  "sourceName": "contracts/FundersRingMinter.sol",
  "abi": [
    {
      "inputs": [
        {
          "internalType": "contract IFundersRing",
          "name": "_fundersRing",
          "type": "address"
        }
      ],
      "stateMutability": "nonpayable",
      "type": "constructor"
    },
    {
      "inputs": [],
      "name": "Address0Error",
      "type": "error"
    },
    {
      "inputs": [],
      "name": "ClaimWithoutPurchase",
      "type": "error"
    },
    {
      "inputs": [],
      "name": "DeniedProcessDuringMinting",
      "type": "error"
    },
    {
      "inputs": [
        {
          "internalType": "uint256",
          "name": "sended_values",
          "type": "uint256"
        },
        {
          "internalType": "uint256",
          "name": "expected",
          "type": "uint256"
        }
      ],
      "name": "GivenValuesNotValid",
      "type": "error"
    },
    {
      "inputs": [],
      "name": "IncorrectPurchaseLimit",
      "type": "error"
    },
    {
      "inputs": [],
      "name": "MisconfiguredPrices",
      "type": "error"
    },
    {
      "inputs": [
        {
          "internalType": "uint256",
          "name": "correct_date",
          "type": "uint256"
        },
        {
          "internalType": "uint256",
          "name": "current_date",
          "type": "uint256"
        }
      ],
      "name": "WrongDateForProcess",
      "type": "error"
    },
    {
      "anonymous": false,
      "inputs": [
        {
          "indexed": true,
          "internalType": "address",
          "name": "previousOwner",
          "type": "address"
        },
        {
          "indexed": true,
          "internalType": "address",
          "name": "newOwner",
          "type": "address"
        }
      ],
      "name": "OwnershipTransferred",
      "type": "event"
    },
    {
      "inputs": [],
      "name": "claimlistMerkleRoot",
      "outputs": [
        {
          "internalType": "bytes32",
          "name": "",
          "type": "bytes32"
        }
      ],
      "stateMutability": "view",
      "type": "function"
    },
    {
      "inputs": [
        {
          "internalType": "address",
          "name": "",
          "type": "address"
        }
      ],
      "name": "claimlistMinted",
      "outputs": [
        {
          "internalType": "uint256",
          "name": "",
          "type": "uint256"
        }
      ],
      "stateMutability": "view",
      "type": "function"
    },
    {
      "inputs": [],
      "name": "claimsStartTime",
      "outputs": [
        {
          "internalType": "uint256",
          "name": "",
          "type": "uint256"
        }
      ],
      "stateMutability": "view",
      "type": "function"
    },
    {
      "inputs": [],
      "name": "claimsStarted",
      "outputs": [
        {
          "internalType": "bool",
          "name": "",
          "type": "bool"
        }
      ],
      "stateMutability": "view",
      "type": "function"
    },
    {
      "inputs": [
        {
          "internalType": "contract IERC20",
          "name": "_token",
          "type": "address"
        },
        {
          "internalType": "uint256",
          "name": "_amount",
          "type": "uint256"
        }
      ],
      "name": "forwardERC20s",
      "outputs": [],
      "stateMutability": "nonpayable",
      "type": "function"
    },
    {
      "inputs": [],
      "name": "fundersRing",
      "outputs": [
        {
          "internalType": "contract IFundersRing",
          "name": "",
          "type": "address"
        }
      ],
      "stateMutability": "view",
      "type": "function"
    },
    {
      "inputs": [],
      "name": "getAvailableRings",
      "outputs": [
        {
          "internalType": "uint256",
          "name": "",
          "type": "uint256"
        }
      ],
      "stateMutability": "view",
      "type": "function"
    },
    {
      "inputs": [],
      "name": "getInitialRings",
      "outputs": [
        {
          "internalType": "uint256",
          "name": "",
          "type": "uint256"
        }
      ],
      "stateMutability": "view",
      "type": "function"
    },
    {
      "inputs": [],
      "name": "getProbabilities",
      "outputs": [
        {
          "internalType": "uint256[]",
          "name": "",
          "type": "uint256[]"
        }
      ],
      "stateMutability": "view",
      "type": "function"
    },
    {
      "inputs": [],
      "name": "getRingPrice",
      "outputs": [
        {
          "internalType": "uint256",
          "name": "",
          "type": "uint256"
        }
      ],
      "stateMutability": "view",
      "type": "function"
    },
    {
      "inputs": [
        {
          "internalType": "uint256",
          "name": "tokenId",
          "type": "uint256"
        }
      ],
      "name": "getTokenIdRingType",
      "outputs": [
        {
          "internalType": "uint256",
          "name": "",
          "type": "uint256"
        }
      ],
      "stateMutability": "pure",
      "type": "function"
    },
    {
      "inputs": [],
      "name": "getTotalMintedRings",
      "outputs": [
        {
          "internalType": "uint256",
          "name": "",
          "type": "uint256"
        }
      ],
      "stateMutability": "view",
      "type": "function"
    },
    {
      "inputs": [],
      "name": "getTotalMintedRingsByType",
      "outputs": [
        {
          "internalType": "uint256[]",
          "name": "",
          "type": "uint256[]"
        }
      ],
      "stateMutability": "view",
      "type": "function"
    },
    {
      "inputs": [
        {
          "internalType": "uint256",
          "name": "numRings",
          "type": "uint256"
        }
      ],
      "name": "mint",
      "outputs": [],
      "stateMutability": "payable",
      "type": "function"
    },
    {
      "inputs": [
        {
          "internalType": "uint256",
          "name": "payedMints",
          "type": "uint256"
        },
        {
          "internalType": "uint256",
          "name": "maxClaim",
          "type": "uint256"
        },
        {
          "internalType": "bytes32[]",
          "name": "_merkleProof",
          "type": "bytes32[]"
        }
      ],
      "name": "mintWithClaim",
      "outputs": [],
      "stateMutability": "payable",
      "type": "function"
    },
    {
      "inputs": [],
      "name": "mintlistMerkleRoot1",
      "outputs": [
        {
          "internalType": "bytes32",
          "name": "",
          "type": "bytes32"
        }
      ],
      "stateMutability": "view",
      "type": "function"
    },
    {
      "inputs": [],
      "name": "mintlistMerkleRoot2",
      "outputs": [
        {
          "internalType": "bytes32",
          "name": "",
          "type": "bytes32"
        }
      ],
      "stateMutability": "view",
      "type": "function"
    },
    {
      "inputs": [
        {
          "internalType": "uint256",
          "name": "numRings",
          "type": "uint256"
        },
        {
          "internalType": "uint256",
          "name": "claimedMaxRings",
          "type": "uint256"
        },
        {
          "internalType": "bytes32[]",
          "name": "_merkleProof",
          "type": "bytes32[]"
        }
      ],
      "name": "mintlistMint",
      "outputs": [],
      "stateMutability": "payable",
      "type": "function"
    },
    {
      "inputs": [
        {
          "internalType": "address",
          "name": "",
          "type": "address"
        }
      ],
      "name": "mintlistMinted",
      "outputs": [
        {
          "internalType": "uint256",
          "name": "",
          "type": "uint256"
        }
      ],
      "stateMutability": "view",
      "type": "function"
    },
    {
      "inputs": [],
      "name": "mintlistStartTime",
      "outputs": [
        {
          "internalType": "uint256",
          "name": "",
          "type": "uint256"
        }
      ],
      "stateMutability": "view",
      "type": "function"
    },
    {
      "inputs": [],
      "name": "mintlistStarted",
      "outputs": [
        {
          "internalType": "bool",
          "name": "",
          "type": "bool"
        }
      ],
      "stateMutability": "view",
      "type": "function"
    },
    {
      "inputs": [],
      "name": "owner",
      "outputs": [
        {
          "internalType": "address",
          "name": "",
          "type": "address"
        }
      ],
      "stateMutability": "view",
      "type": "function"
    },
    {
      "inputs": [
        {
          "internalType": "enum IFundersRing.FundersRingType[]",
          "name": "ringTypes",
          "type": "uint8[]"
        },
        {
          "internalType": "address[]",
          "name": "recipients",
          "type": "address[]"
        }
      ],
      "name": "ownerMint",
      "outputs": [],
      "stateMutability": "nonpayable",
      "type": "function"
    },
    {
      "inputs": [],
      "name": "publicMintStartTime",
      "outputs": [
        {
          "internalType": "uint256",
          "name": "",
          "type": "uint256"
        }
      ],
      "stateMutability": "view",
      "type": "function"
    },
    {
      "inputs": [],
      "name": "publicStarted",
      "outputs": [
        {
          "internalType": "bool",
          "name": "",
          "type": "bool"
        }
      ],
      "stateMutability": "view",
      "type": "function"
    },
    {
      "inputs": [],
      "name": "renounceOwnership",
      "outputs": [],
      "stateMutability": "nonpayable",
      "type": "function"
    },
    {
      "inputs": [],
      "name": "ringGlobalOffset",
      "outputs": [
        {
          "internalType": "uint256",
          "name": "",
          "type": "uint256"
        }
      ],
      "stateMutability": "view",
      "type": "function"
    },
    {
      "inputs": [],
      "name": "ringPrice",
      "outputs": [
        {
          "internalType": "uint256",
          "name": "",
          "type": "uint256"
        }
      ],
      "stateMutability": "view",
      "type": "function"
    },
    {
      "inputs": [
        {
          "internalType": "uint256",
          "name": "",
          "type": "uint256"
        }
      ],
      "name": "ringTypeLocalOffset",
      "outputs": [
        {
          "internalType": "uint256",
          "name": "",
          "type": "uint256"
        }
      ],
      "stateMutability": "view",
      "type": "function"
    },
    {
      "inputs": [
        {
          "internalType": "uint256",
          "name": "",
          "type": "uint256"
        }
      ],
      "name": "ringsMinted",
      "outputs": [
        {
          "internalType": "uint256",
          "name": "",
          "type": "uint256"
        }
      ],
      "stateMutability": "view",
      "type": "function"
    },
    {
      "inputs": [
        {
          "internalType": "bytes32",
          "name": "newMerkleRoot",
          "type": "bytes32"
        }
      ],
      "name": "setClaimlistMerkleRoot",
      "outputs": [],
      "stateMutability": "nonpayable",
      "type": "function"
    },
    {
      "inputs": [
        {
          "internalType": "uint256",
          "name": "_newClaimsStartTime",
          "type": "uint256"
        }
      ],
      "name": "setClaimsStartTime",
      "outputs": [],
      "stateMutability": "nonpayable",
      "type": "function"
    },
    {
      "inputs": [
        {
          "internalType": "contract IFundersRing",
          "name": "_newFundersRingAddress",
          "type": "address"
        }
      ],
      "name": "setFundersRing",
      "outputs": [],
      "stateMutability": "nonpayable",
      "type": "function"
    },
    {
      "inputs": [
        {
          "internalType": "uint256",
          "name": "_newGlobalIdOffset",
          "type": "uint256"
        }
      ],
      "name": "setGlobalIdOffset",
      "outputs": [],
      "stateMutability": "nonpayable",
      "type": "function"
    },
    {
      "inputs": [
        {
          "internalType": "uint256[]",
          "name": "_newRingTypeLocalOffset",
          "type": "uint256[]"
        }
      ],
      "name": "setLocalIdOffsets",
      "outputs": [],
      "stateMutability": "nonpayable",
      "type": "function"
    },
    {
      "inputs": [
        {
          "internalType": "bytes32",
          "name": "newMerkleRoot",
          "type": "bytes32"
        }
      ],
      "name": "setMintlistMerkleRoot1",
      "outputs": [],
      "stateMutability": "nonpayable",
      "type": "function"
    },
    {
      "inputs": [
        {
          "internalType": "bytes32",
          "name": "newMerkleRoot",
          "type": "bytes32"
        }
      ],
      "name": "setMintlistMerkleRoot2",
      "outputs": [],
      "stateMutability": "nonpayable",
      "type": "function"
    },
    {
      "inputs": [
        {
          "internalType": "uint256",
          "name": "_newAllowlistMintStartTime",
          "type": "uint256"
        }
      ],
      "name": "setMintlistStartTime",
      "outputs": [],
      "stateMutability": "nonpayable",
      "type": "function"
    },
    {
      "inputs": [
        {
          "internalType": "uint256",
          "name": "_newPrice",
          "type": "uint256"
        }
      ],
      "name": "setPrice",
      "outputs": [],
      "stateMutability": "nonpayable",
      "type": "function"
    },
    {
      "inputs": [
        {
          "internalType": "uint256[]",
          "name": "_newProbabilities",
          "type": "uint256[]"
        }
      ],
      "name": "setProbabilities",
      "outputs": [],
      "stateMutability": "nonpayable",
      "type": "function"
    },
    {
      "inputs": [
        {
          "internalType": "uint256",
          "name": "_newPublicMintStartTime",
          "type": "uint256"
        }
      ],
      "name": "setPublicMintStartTime",
      "outputs": [],
      "stateMutability": "nonpayable",
      "type": "function"
    },
    {
      "inputs": [
        {
          "internalType": "uint256",
          "name": "_newRingsAvailable",
          "type": "uint256"
        }
      ],
      "name": "setRingsAvailable",
      "outputs": [],
      "stateMutability": "nonpayable",
      "type": "function"
    },
    {
      "inputs": [
        {
          "internalType": "address payable",
          "name": "_newVaultAddress",
          "type": "address"
        }
      ],
      "name": "setVaultAddress",
      "outputs": [],
      "stateMutability": "nonpayable",
      "type": "function"
    },
    {
      "inputs": [
        {
          "internalType": "address",
          "name": "newOwner",
          "type": "address"
        }
      ],
      "name": "transferOwnership",
      "outputs": [],
      "stateMutability": "nonpayable",
      "type": "function"
    },
    {
      "inputs": [],
      "name": "vault",
      "outputs": [
        {
          "internalType": "address payable",
          "name": "",
          "type": "address"
        }
      ],
      "stateMutability": "view",
      "type": "function"
    },
    {
      "inputs": [
        {
          "internalType": "uint256",
          "name": "_amount",
          "type": "uint256"
        }
      ],
      "name": "withdraw",
      "outputs": [],
      "stateMutability": "nonpayable",
      "type": "function"
    },
    {
      "inputs": [],
      "name": "withdrawAll",
      "outputs": [],
      "stateMutability": "nonpayable",
      "type": "function"
    }
  ],
  "bytecode": "0x60806040526127106004556000600555604051806101000160405280600e60ff168152602001600e60ff168152602001600e60ff168152602001600e60ff168152602001600e60ff168152602001600e60ff168152602001600e60ff168152602001600260ff1681525060069060086200007b9291906200042f565b50604051806101000160405280600160ff168152602001600160ff168152602001600160ff168152602001600160ff168152602001600160ff168152602001600160ff168152602001600160ff168152602001600160ff168152506007906008620000e89291906200042f565b5060016008557fffffffffffffffffffffffffffffffffffffffffffffffffffffffffffffffff6009557fffffffffffffffffffffffffffffffffffffffffffffffffffffffffffffffff600a557fffffffffffffffffffffffffffffffffffffffffffffffffffffffffffffffff600b557fffffffffffffffffffffffffffffffffffffffffffffffffffffffffffffffff600c553480156200018b57600080fd5b50604051620042a1380380620042a18339818101604052810190620001b1919062000523565b620001d1620001c56200020160201b60201c565b6200020960201b60201c565b60018081905550620001e981620002cd60201b60201c565b620001fa336200032160201b60201c565b50620005d8565b600033905090565b60008060009054906101000a900473ffffffffffffffffffffffffffffffffffffffff169050816000806101000a81548173ffffffffffffffffffffffffffffffffffffffff021916908373ffffffffffffffffffffffffffffffffffffffff1602179055508173ffffffffffffffffffffffffffffffffffffffff168173ffffffffffffffffffffffffffffffffffffffff167f8be0079c531659141344cd1fd0a4f28419497f9722a3daafe3b4186f6b6457e060405160405180910390a35050565b620002dd6200037560201b60201c565b80600260006101000a81548173ffffffffffffffffffffffffffffffffffffffff021916908373ffffffffffffffffffffffffffffffffffffffff16021790555050565b620003316200037560201b60201c565b80600360006101000a81548173ffffffffffffffffffffffffffffffffffffffff021916908373ffffffffffffffffffffffffffffffffffffffff16021790555050565b620003856200020160201b60201c565b73ffffffffffffffffffffffffffffffffffffffff16620003ab6200040660201b60201c565b73ffffffffffffffffffffffffffffffffffffffff161462000404576040517f08c379a0000000000000000000000000000000000000000000000000000000008152600401620003fb90620005b6565b60405180910390fd5b565b60008060009054906101000a900473ffffffffffffffffffffffffffffffffffffffff16905090565b82805482825590600052602060002090810192821562000473579160200282015b8281111562000472578251829060ff1690559160200191906001019062000450565b5b50905062000482919062000486565b5090565b5b80821115620004a157600081600090555060010162000487565b5090565b600080fd5b600073ffffffffffffffffffffffffffffffffffffffff82169050919050565b6000620004d782620004aa565b9050919050565b6000620004eb82620004ca565b9050919050565b620004fd81620004de565b81146200050957600080fd5b50565b6000815190506200051d81620004f2565b92915050565b6000602082840312156200053c576200053b620004a5565b5b60006200054c848285016200050c565b91505092915050565b600082825260208201905092915050565b7f4f776e61626c653a2063616c6c6572206973206e6f7420746865206f776e6572600082015250565b60006200059e60208362000555565b9150620005ab8262000566565b602082019050919050565b60006020820190508181036000830152620005d1816200058f565b9050919050565b613cb980620005e86000396000f3fe6080604052600436106102885760003560e01c80638d56a17b1161015a578063b9a43f2e116100c1578063d6117b3e1161007a578063d6117b3e14610945578063df477ead1461096e578063e49618c114610999578063f2fde38b146109d6578063f4cde4c0146109ff578063fbfa77cf14610a2a57610288565b8063b9a43f2e14610858578063c2774dac14610883578063cc644fd2146108ac578063cef58283146108d5578063d012468f146108fe578063d3cf00a31461091a57610288565b80639b68a6ef116101135780639b68a6ef1461076b5780639f0664b514610796578063a0712d68146107bf578063a0e52f89146107db578063a637f97314610806578063ae6b6dae1461082f57610288565b80638d56a17b1461065b5780638da5cb5b1461068657806391b7f5ed146106b157806393cb4147146106da57806396c9f88b146107055780639727151a1461074257610288565b80633e97414f116101fe5780636138f236116101b75780636138f236146105735780636e1a1a60146105b0578063715018a6146105d9578063853828b6146105f057806385535cc5146106075780638c6d8ef61461063057610288565b80633e97414f14610475578063411d13f7146104a057806346bf289f146104c95780634ed1eb24146104f45780635242a4931461051f5780635fcd80a61461054a57610288565b8063205ed38211610250578063205ed382146103675780632560e37614610390578063260c0886146103bb5780632701b325146103e45780632ce82a71146104215780632e1a7d4d1461044c57610288565b8063062f7b8c1461028d5780630747eda8146102b8578063158ae298146102d45780631af3ba81146103115780631c7f4a021461033c575b600080fd5b34801561029957600080fd5b506102a2610a55565b6040516102af9190612985565b60405180910390f35b6102d260048036038101906102cd9190612a42565b610aad565b005b3480156102e057600080fd5b506102fb60048036038101906102f69190612ab6565b610b9a565b6040516103089190612af2565b60405180910390f35b34801561031d57600080fd5b50610326610bb2565b6040516103339190612af2565b60405180910390f35b34801561034857600080fd5b50610351610bb8565b60405161035e9190612b26565b60405180910390f35b34801561037357600080fd5b5061038e60048036038101906103899190612ab6565b610bbe565b005b34801561039c57600080fd5b506103a5610c0f565b6040516103b29190612b26565b60405180910390f35b3480156103c757600080fd5b506103e260048036038101906103dd9190612ab6565b610c15565b005b3480156103f057600080fd5b5061040b60048036038101906104069190612ab6565b610c27565b6040516104189190612af2565b60405180910390f35b34801561042d57600080fd5b50610436610c34565b6040516104439190612985565b60405180910390f35b34801561045857600080fd5b50610473600480360381019061046e9190612ab6565b610e32565b005b34801561048157600080fd5b5061048a610f0c565b6040516104979190612b5c565b60405180910390f35b3480156104ac57600080fd5b506104c760048036038101906104c29190612ba3565b610f19565b005b3480156104d557600080fd5b506104de610f2b565b6040516104eb9190612af2565b60405180910390f35b34801561050057600080fd5b50610509611024565b6040516105169190612b26565b60405180910390f35b34801561052b57600080fd5b5061053461102a565b6040516105419190612af2565b60405180910390f35b34801561055657600080fd5b50610571600480360381019061056c9190612ab6565b611030565b005b34801561057f57600080fd5b5061059a60048036038101906105959190612c2e565b611042565b6040516105a79190612af2565b60405180910390f35b3480156105bc57600080fd5b506105d760048036038101906105d29190612ab6565b61105a565b005b3480156105e557600080fd5b506105ee61106c565b005b3480156105fc57600080fd5b50610605611080565b005b34801561061357600080fd5b5061062e60048036038101906106299190612c99565b611159565b005b34801561063c57600080fd5b506106456111a5565b6040516106529190612b5c565b60405180910390f35b34801561066757600080fd5b506106706111b2565b60405161067d9190612af2565b60405180910390f35b34801561069257600080fd5b5061069b6111b8565b6040516106a89190612cd5565b60405180910390f35b3480156106bd57600080fd5b506106d860048036038101906106d39190612ab6565b6111e1565b005b3480156106e657600080fd5b506106ef611232565b6040516106fc9190612b5c565b60405180910390f35b34801561071157600080fd5b5061072c60048036038101906107279190612ab6565b61123f565b6040516107399190612af2565b60405180910390f35b34801561074e57600080fd5b5061076960048036038101906107649190612d2e565b611263565b005b34801561077757600080fd5b50610780611354565b60405161078d9190612dcd565b60405180910390f35b3480156107a257600080fd5b506107bd60048036038101906107b89190612e94565b61137a565b005b6107d960048036038101906107d49190612ab6565b611564565b005b3480156107e757600080fd5b506107f0611580565b6040516107fd9190612af2565b60405180910390f35b34801561081257600080fd5b5061082d60048036038101906108289190612ab6565b61158a565b005b34801561083b57600080fd5b5061085660048036038101906108519190612f53565b6115db565b005b34801561086457600080fd5b5061086d611627565b60405161087a9190612af2565b60405180910390f35b34801561088f57600080fd5b506108aa60048036038101906108a59190612ba3565b611745565b005b3480156108b857600080fd5b506108d360048036038101906108ce9190612fd6565b611757565b005b3480156108e157600080fd5b506108fc60048036038101906108f79190612ba3565b611802565b005b61091860048036038101906109139190612a42565b611814565b005b34801561092657600080fd5b5061092f611ac1565b60405161093c9190612af2565b60405180910390f35b34801561095157600080fd5b5061096c60048036038101906109679190612fd6565b611ac7565b005b34801561097a57600080fd5b50610983611c05565b6040516109909190612af2565b60405180910390f35b3480156109a557600080fd5b506109c060048036038101906109bb9190612c2e565b611c0f565b6040516109cd9190612af2565b60405180910390f35b3480156109e257600080fd5b506109fd60048036038101906109f89190612c2e565b611c27565b005b348015610a0b57600080fd5b50610a14611caa565b604051610a219190612af2565b60405180910390f35b348015610a3657600080fd5b50610a3f611cb0565b604051610a4c9190613032565b60405180910390f35b60606006805480602002602001604051908101604052809291908181526020018280548015610aa357602002820191906000526020600020905b815481526020019060010190808311610a8f575b5050505050905090565b6000601260003373ffffffffffffffffffffffffffffffffffffffff1673ffffffffffffffffffffffffffffffffffffffff168152602001908152602001600020549050600081148015610b015750600085145b15610b38576040517fea8792a100000000000000000000000000000000000000000000000000000000815260040160405180910390fd5b6000851115610b4b57610b4a85611cd6565b5b60008185610b59919061307c565b905060008203610b7c57610b6d6001611d77565b8080610b78906130b0565b9150505b6000811115610b9257610b9181868686611dda565b5b505050505050565b60106020528060005260406000206000915090505481565b60095481565b600e5481565b610bc6611feb565b610bce611232565b15610c05576040517ff2a84b6300000000000000000000000000000000000000000000000000000000815260040160405180910390fd5b8060048190555050565b600f5481565b610c1d611feb565b80600c8190555050565b600060ff82169050919050565b60606000600867ffffffffffffffff811115610c5357610c526130d9565b5b604051908082528060200260200182016040528015610c815781602001602082028036833780820191505090505b509050601060008081526020019081526020016000205481600081518110610cac57610cab613108565b5b60200260200101818152505060106000600181526020019081526020016000205481600181518110610ce157610ce0613108565b5b60200260200101818152505060106000600281526020019081526020016000205481600281518110610d1657610d15613108565b5b60200260200101818152505060106000600381526020019081526020016000205481600381518110610d4b57610d4a613108565b5b60200260200101818152505060106000600481526020019081526020016000205481600481518110610d8057610d7f613108565b5b60200260200101818152505060106000600581526020019081526020016000205481600581518110610db557610db4613108565b5b60200260200101818152505060106000600681526020019081526020016000205481600681518110610dea57610de9613108565b5b60200260200101818152505060106000600781526020019081526020016000205481600781518110610e1f57610e1e613108565b5b6020026020010181815250508091505090565b610e3a611feb565b6000600360009054906101000a900473ffffffffffffffffffffffffffffffffffffffff1673ffffffffffffffffffffffffffffffffffffffff1682604051610e8290613168565b60006040518083038185875af1925050503d8060008114610ebf576040519150601f19603f3d011682016040523d82523d6000602084013e610ec4565b606091505b5050905080610f08576040517f08c379a0000000000000000000000000000000000000000000000000000000008152600401610eff906131da565b60405180910390fd5b5050565b6000600c54421015905090565b610f21611feb565b80600f8190555050565b6000806010600060078152602001908152602001600020546010600060068152602001908152602001600020546010600060058152602001908152602001600020546010600060048152602001908152602001600020546010600060038152602001908152602001600020546010600060028152602001908152602001600020546010600060018152602001908152602001600020546010600080815260200190815260200160002054610fdf91906131fa565b610fe991906131fa565b610ff391906131fa565b610ffd91906131fa565b61100791906131fa565b61101191906131fa565b61101b91906131fa565b90508091505090565b600d5481565b60085481565b611038611feb565b80600a8190555050565b60126020528060005260406000206000915090505481565b611062611feb565b80600b8190555050565b611074611feb565b61107e6000612069565b565b611088611feb565b6000600360009054906101000a900473ffffffffffffffffffffffffffffffffffffffff1673ffffffffffffffffffffffffffffffffffffffff16476040516110d090613168565b60006040518083038185875af1925050503d806000811461110d576040519150601f19603f3d011682016040523d82523d6000602084013e611112565b606091505b5050905080611156576040517f08c379a000000000000000000000000000000000000000000000000000000000815260040161114d9061327a565b60405180910390fd5b50565b611161611feb565b80600360006101000a81548173ffffffffffffffffffffffffffffffffffffffff021916908373ffffffffffffffffffffffffffffffffffffffff16021790555050565b6000600a54421015905090565b600c5481565b60008060009054906101000a900473ffffffffffffffffffffffffffffffffffffffff16905090565b6111e9611feb565b6111f1611232565b15611228576040517ff2a84b6300000000000000000000000000000000000000000000000000000000815260040160405180910390fd5b8060098190555050565b6000600b54421015905090565b6007818154811061124f57600080fd5b906000526020600020016000915090505481565b61126b611feb565b600073ffffffffffffffffffffffffffffffffffffffff163373ffffffffffffffffffffffffffffffffffffffff16036112d1576040517f48ac165200000000000000000000000000000000000000000000000000000000815260040160405180910390fd5b8173ffffffffffffffffffffffffffffffffffffffff1663a9059cbb33836040518363ffffffff1660e01b815260040161130c92919061329a565b6020604051808303816000875af115801561132b573d6000803e3d6000fd5b505050506040513d601f19601f8201168201806040525081019061134f91906132ef565b505050565b600260009054906101000a900473ffffffffffffffffffffffffffffffffffffffff1681565b611382611feb565b8181905084849050146113ca576040517f08c379a00000000000000000000000000000000000000000000000000000000081526004016113c19061338e565b60405180910390fd5b60005b8282905081101561155d57600061140a8686848181106113f0576113ef613108565b5b905060200201602081019061140591906133d3565b61212d565b90506010600087878581811061142357611422613108565b5b905060200201602081019061143891906133d3565b600781111561144a57611449613400565b5b8152602001908152602001600020600081546114659061342f565b91905081905550600260009054906101000a900473ffffffffffffffffffffffffffffffffffffffff1673ffffffffffffffffffffffffffffffffffffffff166386ebf0108585858181106114bd576114bc613108565b5b90506020020160208101906114d29190612c2e565b838989878181106114e6576114e5613108565b5b90506020020160208101906114fb91906133d3565b6040518463ffffffff1660e01b8152600401611519939291906134bf565b600060405180830381600087803b15801561153357600080fd5b505af1158015611547573d6000803e3d6000fd5b5050505050806115569061342f565b90506113cd565b5050505050565b61156c612368565b61157581611cd6565b61157d6123b7565b50565b6000600954905090565b611592611feb565b61159a611232565b156115d1576040517ff2a84b6300000000000000000000000000000000000000000000000000000000815260040160405180910390fd5b8060088190555050565b6115e3611feb565b80600260006101000a81548173ffffffffffffffffffffffffffffffffffffffff021916908373ffffffffffffffffffffffffffffffffffffffff16021790555050565b600080600454905060106000808152602001908152602001600020548161164e919061307c565b905060106000600181526020019081526020016000205481611670919061307c565b905060106000600281526020019081526020016000205481611692919061307c565b9050601060006003815260200190815260200160002054816116b4919061307c565b9050601060006004815260200190815260200160002054816116d6919061307c565b9050601060006005815260200190815260200160002054816116f8919061307c565b90506010600060068152602001908152602001600020548161171a919061307c565b90506010600060078152602001908152602001600020548161173c919061307c565b90508091505090565b61174d611feb565b80600e8190555050565b61175f611feb565b600882829050146117ad578181905060086040517f485d33a20000000000000000000000000000000000000000000000000000000081526004016117a4929190613531565b60405180910390fd5b6117b5611232565b156117ec576040517ff2a84b6300000000000000000000000000000000000000000000000000000000815260040160405180910390fd5b8181600791906117fd929190612853565b505050565b61180a611feb565b80600d8190555050565b61181c612368565b611824611232565b61186957600b54426040517f66803fc100000000000000000000000000000000000000000000000000000000815260040161186092919061355a565b60405180910390fd5b6000841115806118795750601484115b156118b0576040517fca02d6eb00000000000000000000000000000000000000000000000000000000815260040160405180910390fd5b600033846040516020016118c5929190613643565b60405160208183030381529060405280519060200120905061192b838380806020026020016040519081016040528093929190818152602001838360200280828437600081840152601f19601f82011690508083019250505050505050600d54836123c0565b80611980575061197f838380806020026020016040519081016040528093929190818152602001838360200280828437600081840152601f19601f82011690508083019250505050505050600e54836123c0565b5b6119bf576040517f08c379a00000000000000000000000000000000000000000000000000000000081526004016119b6906136c6565b60405180910390fd5b6000601160003373ffffffffffffffffffffffffffffffffffffffff1673ffffffffffffffffffffffffffffffffffffffff168152602001908152602001600020549050848682611a1091906131fa565b1115611a51576040517f08c379a0000000000000000000000000000000000000000000000000000000008152600401611a4890613732565b60405180910390fd5b85601160003373ffffffffffffffffffffffffffffffffffffffff1673ffffffffffffffffffffffffffffffffffffffff1681526020019081526020016000206000828254611aa091906131fa565b92505081905550611ab186336123d7565b5050611abb6123b7565b50505050565b600a5481565b611acf611feb565b6000805b83839050811015611b1857838382818110611af157611af0613108565b5b9050602002013582611b0391906131fa565b91508080611b109061342f565b915050611ad3565b5060648114611b61578060646040517f485d33a2000000000000000000000000000000000000000000000000000000008152600401611b5892919061378d565b60405180910390fd5b60088383905014611baf578282905060086040517f485d33a2000000000000000000000000000000000000000000000000000000008152600401611ba6929190613531565b60405180910390fd5b611bb7611232565b15611bee576040517ff2a84b6300000000000000000000000000000000000000000000000000000000815260040160405180910390fd5b828260069190611bff929190612853565b50505050565b6000600454905090565b60116020528060005260406000206000915090505481565b611c2f611feb565b600073ffffffffffffffffffffffffffffffffffffffff168173ffffffffffffffffffffffffffffffffffffffff1603611c9e576040517f08c379a0000000000000000000000000000000000000000000000000000000008152600401611c9590613828565b60405180910390fd5b611ca781612069565b50565b600b5481565b600360009054906101000a900473ffffffffffffffffffffffffffffffffffffffff1681565b611cde6111a5565b611d2357600a54426040517f66803fc1000000000000000000000000000000000000000000000000000000008152600401611d1a92919061355a565b60405180910390fd5b600081111580611d335750601481115b15611d6a576040517fca02d6eb00000000000000000000000000000000000000000000000000000000815260040160405180910390fd5b611d7481336123d7565b50565b80601260003373ffffffffffffffffffffffffffffffffffffffff1673ffffffffffffffffffffffffffffffffffffffff1681526020019081526020016000206000828254611dc691906131fa565b92505081905550611dd78133612470565b50565b611de2612368565b611dea610f0c565b611e2f57600c54426040517f66803fc1000000000000000000000000000000000000000000000000000000008152600401611e2692919061355a565b60405180910390fd5b60003384604051602001611e44929190613643565b604051602081830303815290604052805190602001209050611eaa838380806020026020016040519081016040528093929190818152602001838360200280828437600081840152601f19601f82011690508083019250505050505050600f54836123c0565b611ee9576040517f08c379a0000000000000000000000000000000000000000000000000000000008152600401611ee0906136c6565b60405180910390fd5b6000601260003373ffffffffffffffffffffffffffffffffffffffff1673ffffffffffffffffffffffffffffffffffffffff168152602001908152602001600020549050848682611f3a91906131fa565b1115611f7b576040517f08c379a0000000000000000000000000000000000000000000000000000000008152600401611f7290613894565b60405180910390fd5b85601260003373ffffffffffffffffffffffffffffffffffffffff1673ffffffffffffffffffffffffffffffffffffffff1681526020019081526020016000206000828254611fca91906131fa565b92505081905550611fdb8633612470565b5050611fe56123b7565b50505050565b611ff36126a6565b73ffffffffffffffffffffffffffffffffffffffff166120116111b8565b73ffffffffffffffffffffffffffffffffffffffff1614612067576040517f08c379a000000000000000000000000000000000000000000000000000000000815260040161205e90613900565b60405180910390fd5b565b60008060009054906101000a900473ffffffffffffffffffffffffffffffffffffffff169050816000806101000a81548173ffffffffffffffffffffffffffffffffffffffff021916908373ffffffffffffffffffffffffffffffffffffffff1602179055508173ffffffffffffffffffffffffffffffffffffffff168173ffffffffffffffffffffffffffffffffffffffff167f8be0079c531659141344cd1fd0a4f28419497f9722a3daafe3b4186f6b6457e060405160405180910390a35050565b60008060085460106000600781526020019081526020016000205460106000600681526020019081526020016000205460106000600581526020019081526020016000205460106000600481526020019081526020016000205460106000600381526020019081526020016000205460106000600281526020019081526020016000205460106000600181526020019081526020016000205460106000808152602001908152602001600020546121e491906131fa565b6121ee91906131fa565b6121f891906131fa565b61220291906131fa565b61220c91906131fa565b61221691906131fa565b61222091906131fa565b61222a91906131fa565b90506000600784600781111561224357612242613400565b5b8154811061225457612253613108565b5b90600052602060002001546010600086600781111561227657612275613400565b5b81526020019081526020016000205461228f91906131fa565b905063ffffffff8111156122d8576040517f08c379a00000000000000000000000000000000000000000000000000000000081526004016122cf9061396c565b60405180910390fd5b60ff8460078111156122ed576122ec613400565b5b111561232e576040517f08c379a0000000000000000000000000000000000000000000000000000000008152600401612325906139d8565b60405180910390fd5b83600781111561234157612340613400565b5b600882901b602884901b61235591906131fa565b61235f91906131fa565b92505050919050565b6002600154036123ad576040517f08c379a00000000000000000000000000000000000000000000000000000000081526004016123a490613a44565b60405180910390fd5b6002600181905550565b60018081905550565b6000826123cd85846126ae565b1490509392505050565b600060095411612413576040517fc5fadba600000000000000000000000000000000000000000000000000000000815260040160405180910390fd5b816009546124219190613a64565b3414612462576040517f08c379a000000000000000000000000000000000000000000000000000000000815260040161245990613b18565b60405180910390fd5b61246c8282612470565b5050565b3073ffffffffffffffffffffffffffffffffffffffff1663b9a43f2e6040518163ffffffff1660e01b8152600401602060405180830381865afa1580156124bb573d6000803e3d6000fd5b505050506040513d601f19601f820116820180604052508101906124df9190613b4d565b823073ffffffffffffffffffffffffffffffffffffffff166346bf289f6040518163ffffffff1660e01b8152600401602060405180830381865afa15801561252b573d6000803e3d6000fd5b505050506040513d601f19601f8201168201806040525081019061254f9190613b4d565b61255991906131fa565b111561259a576040517f08c379a000000000000000000000000000000000000000000000000000000000815260040161259190613bc6565b60405180910390fd5b60005b828110156126a15760006125af612704565b905060008160078111156125c6576125c5613400565b5b905060006125d38261212d565b905060106000848152602001908152602001600020600081546125f59061342f565b91905081905550600260009054906101000a900473ffffffffffffffffffffffffffffffffffffffff1673ffffffffffffffffffffffffffffffffffffffff166386ebf0108683856040518463ffffffff1660e01b815260040161265b939291906134bf565b600060405180830381600087803b15801561267557600080fd5b505af1158015612689573d6000803e3d6000fd5b505050505050508061269a9061342f565b905061259d565b505050565b600033905090565b60008082905060005b84518110156126f9576126e4828683815181106126d7576126d6613108565b5b6020026020010151612811565b915080806126f19061342f565b9150506126b7565b508091505092915050565b600080600090506005600081548092919061271e9061342f565b9190505550600060016064423360055460405160200161274093929190613be6565b6040516020818303038152906040528051906020012060001c6127639190613c52565b61276d91906131fa565b9050600080600660008154811061278757612786613108565b5b906000526020600020015490506000600190505b60068054905081101561280657819250600681815481106127bf576127be613108565b5b9060005260206000200154826127d591906131fa565b915082841180156127e65750818411155b156127f357809450612806565b80806127fe9061342f565b91505061279b565b508394505050505090565b600081831061282957612824828461283c565b612834565b612833838361283c565b5b905092915050565b600082600052816020526040600020905092915050565b82805482825590600052602060002090810192821561288f579160200282015b8281111561288e578235825591602001919060010190612873565b5b50905061289c91906128a0565b5090565b5b808211156128b95760008160009055506001016128a1565b5090565b600081519050919050565b600082825260208201905092915050565b6000819050602082019050919050565b6000819050919050565b6128fc816128e9565b82525050565b600061290e83836128f3565b60208301905092915050565b6000602082019050919050565b6000612932826128bd565b61293c81856128c8565b9350612947836128d9565b8060005b8381101561297857815161295f8882612902565b975061296a8361291a565b92505060018101905061294b565b5085935050505092915050565b6000602082019050818103600083015261299f8184612927565b905092915050565b600080fd5b600080fd5b6129ba816128e9565b81146129c557600080fd5b50565b6000813590506129d7816129b1565b92915050565b600080fd5b600080fd5b600080fd5b60008083601f840112612a0257612a016129dd565b5b8235905067ffffffffffffffff811115612a1f57612a1e6129e2565b5b602083019150836020820283011115612a3b57612a3a6129e7565b5b9250929050565b60008060008060608587031215612a5c57612a5b6129a7565b5b6000612a6a878288016129c8565b9450506020612a7b878288016129c8565b935050604085013567ffffffffffffffff811115612a9c57612a9b6129ac565b5b612aa8878288016129ec565b925092505092959194509250565b600060208284031215612acc57612acb6129a7565b5b6000612ada848285016129c8565b91505092915050565b612aec816128e9565b82525050565b6000602082019050612b076000830184612ae3565b92915050565b6000819050919050565b612b2081612b0d565b82525050565b6000602082019050612b3b6000830184612b17565b92915050565b60008115159050919050565b612b5681612b41565b82525050565b6000602082019050612b716000830184612b4d565b92915050565b612b8081612b0d565b8114612b8b57600080fd5b50565b600081359050612b9d81612b77565b92915050565b600060208284031215612bb957612bb86129a7565b5b6000612bc784828501612b8e565b91505092915050565b600073ffffffffffffffffffffffffffffffffffffffff82169050919050565b6000612bfb82612bd0565b9050919050565b612c0b81612bf0565b8114612c1657600080fd5b50565b600081359050612c2881612c02565b92915050565b600060208284031215612c4457612c436129a7565b5b6000612c5284828501612c19565b91505092915050565b6000612c6682612bd0565b9050919050565b612c7681612c5b565b8114612c8157600080fd5b50565b600081359050612c9381612c6d565b92915050565b600060208284031215612caf57612cae6129a7565b5b6000612cbd84828501612c84565b91505092915050565b612ccf81612bf0565b82525050565b6000602082019050612cea6000830184612cc6565b92915050565b6000612cfb82612bf0565b9050919050565b612d0b81612cf0565b8114612d1657600080fd5b50565b600081359050612d2881612d02565b92915050565b60008060408385031215612d4557612d446129a7565b5b6000612d5385828601612d19565b9250506020612d64858286016129c8565b9150509250929050565b6000819050919050565b6000612d93612d8e612d8984612bd0565b612d6e565b612bd0565b9050919050565b6000612da582612d78565b9050919050565b6000612db782612d9a565b9050919050565b612dc781612dac565b82525050565b6000602082019050612de26000830184612dbe565b92915050565b60008083601f840112612dfe57612dfd6129dd565b5b8235905067ffffffffffffffff811115612e1b57612e1a6129e2565b5b602083019150836020820283011115612e3757612e366129e7565b5b9250929050565b60008083601f840112612e5457612e536129dd565b5b8235905067ffffffffffffffff811115612e7157612e706129e2565b5b602083019150836020820283011115612e8d57612e8c6129e7565b5b9250929050565b60008060008060408587031215612eae57612ead6129a7565b5b600085013567ffffffffffffffff811115612ecc57612ecb6129ac565b5b612ed887828801612de8565b9450945050602085013567ffffffffffffffff811115612efb57612efa6129ac565b5b612f0787828801612e3e565b925092505092959194509250565b6000612f2082612bf0565b9050919050565b612f3081612f15565b8114612f3b57600080fd5b50565b600081359050612f4d81612f27565b92915050565b600060208284031215612f6957612f686129a7565b5b6000612f7784828501612f3e565b91505092915050565b60008083601f840112612f9657612f956129dd565b5b8235905067ffffffffffffffff811115612fb357612fb26129e2565b5b602083019150836020820283011115612fcf57612fce6129e7565b5b9250929050565b60008060208385031215612fed57612fec6129a7565b5b600083013567ffffffffffffffff81111561300b5761300a6129ac565b5b61301785828601612f80565b92509250509250929050565b61302c81612c5b565b82525050565b60006020820190506130476000830184613023565b92915050565b7f4e487b7100000000000000000000000000000000000000000000000000000000600052601160045260246000fd5b6000613087826128e9565b9150613092836128e9565b92508282039050818111156130aa576130a961304d565b5b92915050565b60006130bb826128e9565b9150600082036130ce576130cd61304d565b5b600182039050919050565b7f4e487b7100000000000000000000000000000000000000000000000000000000600052604160045260246000fd5b7f4e487b7100000000000000000000000000000000000000000000000000000000600052603260045260246000fd5b600081905092915050565b50565b6000613152600083613137565b915061315d82613142565b600082019050919050565b600061317382613145565b9150819050919050565b600082825260208201905092915050565b7f776974686472617720776173206e6f742073756363657366756c6c0000000000600082015250565b60006131c4601b8361317d565b91506131cf8261318e565b602082019050919050565b600060208201905081810360008301526131f3816131b7565b9050919050565b6000613205826128e9565b9150613210836128e9565b92508282019050808211156132285761322761304d565b5b92915050565b7f776974686472617720616c6c20776173206e6f742073756363657366756c6c00600082015250565b6000613264601f8361317d565b915061326f8261322e565b602082019050919050565b6000602082019050818103600083015261329381613257565b9050919050565b60006040820190506132af6000830185612cc6565b6132bc6020830184612ae3565b9392505050565b6132cc81612b41565b81146132d757600080fd5b50565b6000815190506132e9816132c3565b92915050565b600060208284031215613305576133046129a7565b5b6000613313848285016132da565b91505092915050565b7f4172726179732073686f756c642068617665207468652073616d652073697a6560008201527f2e00000000000000000000000000000000000000000000000000000000000000602082015250565b600061337860218361317d565b91506133838261331c565b604082019050919050565b600060208201905081810360008301526133a78161336b565b9050919050565b600881106133bb57600080fd5b50565b6000813590506133cd816133ae565b92915050565b6000602082840312156133e9576133e86129a7565b5b60006133f7848285016133be565b91505092915050565b7f4e487b7100000000000000000000000000000000000000000000000000000000600052602160045260246000fd5b600061343a826128e9565b91507fffffffffffffffffffffffffffffffffffffffffffffffffffffffffffffffff820361346c5761346b61304d565b5b600182019050919050565b6008811061348857613487613400565b5b50565b600081905061349982613477565b919050565b60006134a98261348b565b9050919050565b6134b98161349e565b82525050565b60006060820190506134d46000830186612cc6565b6134e16020830185612ae3565b6134ee60408301846134b0565b949350505050565b6000819050919050565b600061351b613516613511846134f6565b612d6e565b6128e9565b9050919050565b61352b81613500565b82525050565b60006040820190506135466000830185612ae3565b6135536020830184613522565b9392505050565b600060408201905061356f6000830185612ae3565b61357c6020830184612ae3565b9392505050565b60008160601b9050919050565b600061359b82613583565b9050919050565b60006135ad82613590565b9050919050565b6135c56135c082612bf0565b6135a2565b82525050565b600081905092915050565b7f3a00000000000000000000000000000000000000000000000000000000000000600082015250565b600061360c6001836135cb565b9150613617826135d6565b600182019050919050565b6000819050919050565b61363d613638826128e9565b613622565b82525050565b600061364f82856135b4565b60148201915061365e826135ff565b915061366a828461362c565b6020820191508190509392505050565b7f496e76616c69642070726f6f662e000000000000000000000000000000000000600082015250565b60006136b0600e8361317d565b91506136bb8261367a565b602082019050919050565b600060208201905081810360008301526136df816136a3565b9050919050565b7f4d696e74696e67206d6f7265207468616e20616c6c6f7765642e000000000000600082015250565b600061371c601a8361317d565b9150613727826136e6565b602082019050919050565b6000602082019050818103600083015261374b8161370f565b9050919050565b6000819050919050565b600061377761377261376d84613752565b612d6e565b6128e9565b9050919050565b6137878161375c565b82525050565b60006040820190506137a26000830185612ae3565b6137af602083018461377e565b9392505050565b7f4f776e61626c653a206e6577206f776e657220697320746865207a65726f206160008201527f6464726573730000000000000000000000000000000000000000000000000000602082015250565b600061381260268361317d565b915061381d826137b6565b604082019050919050565b6000602082019050818103600083015261384181613805565b9050919050565b7f436c61696d696e67206d6f7265207468616e20616c6c6f7765642e0000000000600082015250565b600061387e601b8361317d565b915061388982613848565b602082019050919050565b600060208201905081810360008301526138ad81613871565b9050919050565b7f4f776e61626c653a2063616c6c6572206973206e6f7420746865206f776e6572600082015250565b60006138ea60208361317d565b91506138f5826138b4565b602082019050919050565b60006020820190508181036000830152613919816138dd565b9050919050565b7f4c6f63616c20696e646578206f766572666c6f772e0000000000000000000000600082015250565b600061395660158361317d565b915061396182613920565b602082019050919050565b6000602082019050818103600083015261398581613949565b9050919050565b7f52696e6720696e646578206f766572666c6f772e000000000000000000000000600082015250565b60006139c260148361317d565b91506139cd8261398c565b602082019050919050565b600060208201905081810360008301526139f1816139b5565b9050919050565b7f5265656e7472616e637947756172643a207265656e7472616e742063616c6c00600082015250565b6000613a2e601f8361317d565b9150613a39826139f8565b602082019050919050565b60006020820190508181036000830152613a5d81613a21565b9050919050565b6000613a6f826128e9565b9150613a7a836128e9565b9250828202613a88816128e9565b91508282048414831517613a9f57613a9e61304d565b5b5092915050565b7f45746865722076616c75652073656e74206973206e6f7420616363757261746560008201527f2e00000000000000000000000000000000000000000000000000000000000000602082015250565b6000613b0260218361317d565b9150613b0d82613aa6565b604082019050919050565b60006020820190508181036000830152613b3181613af5565b9050919050565b600081519050613b47816129b1565b92915050565b600060208284031215613b6357613b626129a7565b5b6000613b7184828501613b38565b91505092915050565b7f547279696e6720746f206d696e7420746f6f206d616e792072696e67732e0000600082015250565b6000613bb0601e8361317d565b9150613bbb82613b7a565b602082019050919050565b60006020820190508181036000830152613bdf81613ba3565b9050919050565b6000613bf2828661362c565b602082019150613c0282856135b4565b601482019150613c12828461362c565b602082019150819050949350505050565b7f4e487b7100000000000000000000000000000000000000000000000000000000600052601260045260246000fd5b6000613c5d826128e9565b9150613c68836128e9565b925082613c7857613c77613c23565b5b82820690509291505056fea26469706673582212206112ef3217d0df24993c769f61748f4dd79d2a6455313c584cec8c2d069bff9364736f6c63430008120033",
  "linkReferences": {},
  "deployedLinkReferences": {}
}