{
  "_format": "hh-sol-artifact-1",
  "contractName": "FundersRingMinter",
  "sourceName": "contracts/FundersRingMinter.sol",
  "abi": [
    {
      "inputs": [
        {
          "internalType": "contract IFundersRing",
          "name": "_fundersRing",
          "type": "address"
        }
      ],
      "stateMutability": "nonpayable",
      "type": "constructor"
    },
    {
      "inputs": [],
      "name": "Address0Error",
      "type": "error"
    },
    {
      "inputs": [],
      "name": "ClaimWithoutPurchase",
      "type": "error"
    },
    {
      "inputs": [],
      "name": "DeniedProcessDuringMinting",
      "type": "error"
    },
    {
      "inputs": [
        {
          "internalType": "uint256",
          "name": "sended_values",
          "type": "uint256"
        },
        {
          "internalType": "uint256",
          "name": "expected",
          "type": "uint256"
        }
      ],
      "name": "GivenValuesNotValid",
      "type": "error"
    },
    {
      "inputs": [],
      "name": "IncorrectPurchaseLimit",
      "type": "error"
    },
    {
      "inputs": [],
      "name": "MisconfiguredPrices",
      "type": "error"
    },
    {
      "inputs": [
        {
          "internalType": "uint256",
          "name": "correct_date",
          "type": "uint256"
        },
        {
          "internalType": "uint256",
          "name": "current_date",
          "type": "uint256"
        }
      ],
      "name": "WrongDateForProcess",
      "type": "error"
    },
    {
      "anonymous": false,
      "inputs": [
        {
          "indexed": true,
          "internalType": "address",
          "name": "previousOwner",
          "type": "address"
        },
        {
          "indexed": true,
          "internalType": "address",
          "name": "newOwner",
          "type": "address"
        }
      ],
      "name": "OwnershipTransferred",
      "type": "event"
    },
    {
      "inputs": [],
      "name": "claimlistMerkleRoot",
      "outputs": [
        {
          "internalType": "bytes32",
          "name": "",
          "type": "bytes32"
        }
      ],
      "stateMutability": "view",
      "type": "function"
    },
    {
      "inputs": [
        {
          "internalType": "address",
          "name": "",
          "type": "address"
        }
      ],
      "name": "claimlistMinted",
      "outputs": [
        {
          "internalType": "uint256",
          "name": "",
          "type": "uint256"
        }
      ],
      "stateMutability": "view",
      "type": "function"
    },
    {
      "inputs": [],
      "name": "claimsStartTime",
      "outputs": [
        {
          "internalType": "uint256",
          "name": "",
          "type": "uint256"
        }
      ],
      "stateMutability": "view",
      "type": "function"
    },
    {
      "inputs": [],
      "name": "claimsStarted",
      "outputs": [
        {
          "internalType": "bool",
          "name": "",
          "type": "bool"
        }
      ],
      "stateMutability": "view",
      "type": "function"
    },
    {
      "inputs": [
        {
          "internalType": "contract IERC20",
          "name": "_token",
          "type": "address"
        },
        {
          "internalType": "uint256",
          "name": "_amount",
          "type": "uint256"
        }
      ],
      "name": "forwardERC20s",
      "outputs": [],
      "stateMutability": "nonpayable",
      "type": "function"
    },
    {
      "inputs": [],
      "name": "fundersRing",
      "outputs": [
        {
          "internalType": "contract IFundersRing",
          "name": "",
          "type": "address"
        }
      ],
      "stateMutability": "view",
      "type": "function"
    },
    {
      "inputs": [],
      "name": "getAvailableRings",
      "outputs": [
        {
          "internalType": "uint256",
          "name": "",
          "type": "uint256"
        }
      ],
      "stateMutability": "view",
      "type": "function"
    },
    {
      "inputs": [],
      "name": "getInitialRings",
      "outputs": [
        {
          "internalType": "uint256",
          "name": "",
          "type": "uint256"
        }
      ],
      "stateMutability": "view",
      "type": "function"
    },
    {
      "inputs": [],
      "name": "getProbabilities",
      "outputs": [
        {
          "internalType": "uint256[]",
          "name": "",
          "type": "uint256[]"
        }
      ],
      "stateMutability": "view",
      "type": "function"
    },
    {
      "inputs": [],
      "name": "getRingPrice",
      "outputs": [
        {
          "internalType": "uint256",
          "name": "",
          "type": "uint256"
        }
      ],
      "stateMutability": "view",
      "type": "function"
    },
    {
      "inputs": [
        {
          "internalType": "uint256",
          "name": "tokenId",
          "type": "uint256"
        }
      ],
      "name": "getTokenIdRingType",
      "outputs": [
        {
          "internalType": "uint256",
          "name": "",
          "type": "uint256"
        }
      ],
      "stateMutability": "pure",
      "type": "function"
    },
    {
      "inputs": [],
      "name": "getTotalMintedRings",
      "outputs": [
        {
          "internalType": "uint256",
          "name": "",
          "type": "uint256"
        }
      ],
      "stateMutability": "view",
      "type": "function"
    },
    {
      "inputs": [],
      "name": "getTotalMintedRingsByType",
      "outputs": [
        {
          "internalType": "uint256[]",
          "name": "",
          "type": "uint256[]"
        }
      ],
      "stateMutability": "view",
      "type": "function"
    },
    {
      "inputs": [
        {
          "internalType": "uint256",
          "name": "numRings",
          "type": "uint256"
        }
      ],
      "name": "mint",
      "outputs": [],
      "stateMutability": "payable",
      "type": "function"
    },
    {
      "inputs": [
        {
          "internalType": "uint256",
          "name": "payedMints",
          "type": "uint256"
        },
        {
          "internalType": "uint256",
          "name": "maxClaim",
          "type": "uint256"
        },
        {
          "internalType": "bytes32[]",
          "name": "_merkleProof",
          "type": "bytes32[]"
        }
      ],
      "name": "mintWithClaim",
      "outputs": [],
      "stateMutability": "payable",
      "type": "function"
    },
    {
      "inputs": [],
      "name": "mintlistMerkleRoot1",
      "outputs": [
        {
          "internalType": "bytes32",
          "name": "",
          "type": "bytes32"
        }
      ],
      "stateMutability": "view",
      "type": "function"
    },
    {
      "inputs": [],
      "name": "mintlistMerkleRoot2",
      "outputs": [
        {
          "internalType": "bytes32",
          "name": "",
          "type": "bytes32"
        }
      ],
      "stateMutability": "view",
      "type": "function"
    },
    {
      "inputs": [
        {
          "internalType": "uint256",
          "name": "numRings",
          "type": "uint256"
        },
        {
          "internalType": "uint256",
          "name": "claimedMaxRings",
          "type": "uint256"
        },
        {
          "internalType": "bytes32[]",
          "name": "_merkleProof",
          "type": "bytes32[]"
        }
      ],
      "name": "mintlistMint",
      "outputs": [],
      "stateMutability": "payable",
      "type": "function"
    },
    {
      "inputs": [
        {
          "internalType": "address",
          "name": "",
          "type": "address"
        }
      ],
      "name": "mintlistMinted",
      "outputs": [
        {
          "internalType": "uint256",
          "name": "",
          "type": "uint256"
        }
      ],
      "stateMutability": "view",
      "type": "function"
    },
    {
      "inputs": [],
      "name": "mintlistStartTime",
      "outputs": [
        {
          "internalType": "uint256",
          "name": "",
          "type": "uint256"
        }
      ],
      "stateMutability": "view",
      "type": "function"
    },
    {
      "inputs": [],
      "name": "mintlistStarted",
      "outputs": [
        {
          "internalType": "bool",
          "name": "",
          "type": "bool"
        }
      ],
      "stateMutability": "view",
      "type": "function"
    },
    {
      "inputs": [],
      "name": "owner",
      "outputs": [
        {
          "internalType": "address",
          "name": "",
          "type": "address"
        }
      ],
      "stateMutability": "view",
      "type": "function"
    },
    {
      "inputs": [
        {
          "internalType": "enum IFundersRing.FundersRingType[]",
          "name": "ringTypes",
          "type": "uint8[]"
        },
        {
          "internalType": "address[]",
          "name": "recipients",
          "type": "address[]"
        }
      ],
      "name": "ownerMint",
      "outputs": [],
      "stateMutability": "nonpayable",
      "type": "function"
    },
    {
      "inputs": [],
      "name": "publicMintStartTime",
      "outputs": [
        {
          "internalType": "uint256",
          "name": "",
          "type": "uint256"
        }
      ],
      "stateMutability": "view",
      "type": "function"
    },
    {
      "inputs": [],
      "name": "publicStarted",
      "outputs": [
        {
          "internalType": "bool",
          "name": "",
          "type": "bool"
        }
      ],
      "stateMutability": "view",
      "type": "function"
    },
    {
      "inputs": [],
      "name": "renounceOwnership",
      "outputs": [],
      "stateMutability": "nonpayable",
      "type": "function"
    },
    {
      "inputs": [],
      "name": "ringGlobalOffset",
      "outputs": [
        {
          "internalType": "uint256",
          "name": "",
          "type": "uint256"
        }
      ],
      "stateMutability": "view",
      "type": "function"
    },
    {
      "inputs": [],
      "name": "ringPrice",
      "outputs": [
        {
          "internalType": "uint256",
          "name": "",
          "type": "uint256"
        }
      ],
      "stateMutability": "view",
      "type": "function"
    },
    {
      "inputs": [
        {
          "internalType": "uint256",
          "name": "",
          "type": "uint256"
        }
      ],
      "name": "ringTypeLocalOffset",
      "outputs": [
        {
          "internalType": "uint256",
          "name": "",
          "type": "uint256"
        }
      ],
      "stateMutability": "view",
      "type": "function"
    },
    {
      "inputs": [
        {
          "internalType": "uint256",
          "name": "",
          "type": "uint256"
        }
      ],
      "name": "ringsMinted",
      "outputs": [
        {
          "internalType": "uint256",
          "name": "",
          "type": "uint256"
        }
      ],
      "stateMutability": "view",
      "type": "function"
    },
    {
      "inputs": [
        {
          "internalType": "bytes32",
          "name": "newMerkleRoot",
          "type": "bytes32"
        }
      ],
      "name": "setClaimlistMerkleRoot",
      "outputs": [],
      "stateMutability": "nonpayable",
      "type": "function"
    },
    {
      "inputs": [
        {
          "internalType": "uint256",
          "name": "_newClaimsStartTime",
          "type": "uint256"
        }
      ],
      "name": "setClaimsStartTime",
      "outputs": [],
      "stateMutability": "nonpayable",
      "type": "function"
    },
    {
      "inputs": [
        {
          "internalType": "contract IFundersRing",
          "name": "_newFundersRingAddress",
          "type": "address"
        }
      ],
      "name": "setFundersRing",
      "outputs": [],
      "stateMutability": "nonpayable",
      "type": "function"
    },
    {
      "inputs": [
        {
          "internalType": "uint256",
          "name": "_newGlobalIdOffset",
          "type": "uint256"
        }
      ],
      "name": "setGlobalIdOffset",
      "outputs": [],
      "stateMutability": "nonpayable",
      "type": "function"
    },
    {
      "inputs": [
        {
          "internalType": "uint256[]",
          "name": "_newRingTypeLocalOffset",
          "type": "uint256[]"
        }
      ],
      "name": "setLocalIdOffsets",
      "outputs": [],
      "stateMutability": "nonpayable",
      "type": "function"
    },
    {
      "inputs": [
        {
          "internalType": "bytes32",
          "name": "newMerkleRoot",
          "type": "bytes32"
        }
      ],
      "name": "setMintlistMerkleRoot1",
      "outputs": [],
      "stateMutability": "nonpayable",
      "type": "function"
    },
    {
      "inputs": [
        {
          "internalType": "bytes32",
          "name": "newMerkleRoot",
          "type": "bytes32"
        }
      ],
      "name": "setMintlistMerkleRoot2",
      "outputs": [],
      "stateMutability": "nonpayable",
      "type": "function"
    },
    {
      "inputs": [
        {
          "internalType": "uint256",
          "name": "_newAllowlistMintStartTime",
          "type": "uint256"
        }
      ],
      "name": "setMintlistStartTime",
      "outputs": [],
      "stateMutability": "nonpayable",
      "type": "function"
    },
    {
      "inputs": [
        {
          "internalType": "uint256",
          "name": "_newPrice",
          "type": "uint256"
        }
      ],
      "name": "setPrice",
      "outputs": [],
      "stateMutability": "nonpayable",
      "type": "function"
    },
    {
      "inputs": [
        {
          "internalType": "uint256[]",
          "name": "_newProbabilities",
          "type": "uint256[]"
        }
      ],
      "name": "setProbabilities",
      "outputs": [],
      "stateMutability": "nonpayable",
      "type": "function"
    },
    {
      "inputs": [
        {
          "internalType": "uint256",
          "name": "_newPublicMintStartTime",
          "type": "uint256"
        }
      ],
      "name": "setPublicMintStartTime",
      "outputs": [],
      "stateMutability": "nonpayable",
      "type": "function"
    },
    {
      "inputs": [
        {
          "internalType": "uint256",
          "name": "_newRingsAvailable",
          "type": "uint256"
        }
      ],
      "name": "setRingsAvailable",
      "outputs": [],
      "stateMutability": "nonpayable",
      "type": "function"
    },
    {
      "inputs": [
        {
          "internalType": "address payable",
          "name": "_newVaultAddress",
          "type": "address"
        }
      ],
      "name": "setVaultAddress",
      "outputs": [],
      "stateMutability": "nonpayable",
      "type": "function"
    },
    {
      "inputs": [
        {
          "internalType": "address",
          "name": "newOwner",
          "type": "address"
        }
      ],
      "name": "transferOwnership",
      "outputs": [],
      "stateMutability": "nonpayable",
      "type": "function"
    },
    {
      "inputs": [],
      "name": "vault",
      "outputs": [
        {
          "internalType": "address payable",
          "name": "",
          "type": "address"
        }
      ],
      "stateMutability": "view",
      "type": "function"
    },
    {
      "inputs": [
        {
          "internalType": "uint256",
          "name": "_amount",
          "type": "uint256"
        }
      ],
      "name": "withdraw",
      "outputs": [],
      "stateMutability": "nonpayable",
      "type": "function"
    },
    {
      "inputs": [],
      "name": "withdrawAll",
      "outputs": [],
      "stateMutability": "nonpayable",
      "type": "function"
    }
  ],
  "bytecode": "0x60806040526127106004556000600555604051806101000160405280600e60ff168152602001600e60ff168152602001600e60ff168152602001600e60ff168152602001600e60ff168152602001600e60ff168152602001600e60ff168152602001600260ff1681525060069060086200007b9291906200059e565b50604051806101000160405280600160ff168152602001600160ff168152602001600160ff168152602001600160ff168152602001600160ff168152602001600160ff168152602001600160ff168152602001600160ff168152506007906008620000e89291906200059e565b5060016008557fffffffffffffffffffffffffffffffffffffffffffffffffffffffffffffffff6009557fffffffffffffffffffffffffffffffffffffffffffffffffffffffffffffffff600a557fffffffffffffffffffffffffffffffffffffffffffffffffffffffffffffffff600b557fffffffffffffffffffffffffffffffffffffffffffffffffffffffffffffffff600c553480156200018b57600080fd5b50604051620060e3380380620060e38339818101604052810190620001b1919062000692565b620001d1620001c56200028d60201b60201c565b6200029560201b60201c565b60018081905550620001f4679b060a8ba52ed5b260c01b6200035960201b60201c565b620002106740fe3e660e4b1bd360c01b6200035960201b60201c565b6200022c67d38f196e8ac7b8bc60c01b6200035960201b60201c565b6200023d816200035c60201b60201c565b6200025967733964cd08d0108760c01b6200035960201b60201c565b6200027567417cb023a39126da60c01b6200035960201b60201c565b62000286336200042060201b60201c565b5062000747565b600033905090565b60008060009054906101000a900473ffffffffffffffffffffffffffffffffffffffff169050816000806101000a81548173ffffffffffffffffffffffffffffffffffffffff021916908373ffffffffffffffffffffffffffffffffffffffff1602179055508173ffffffffffffffffffffffffffffffffffffffff168173ffffffffffffffffffffffffffffffffffffffff167f8be0079c531659141344cd1fd0a4f28419497f9722a3daafe3b4186f6b6457e060405160405180910390a35050565b50565b620003786752430b59083504bf60c01b6200035960201b60201c565b62000388620004e460201b60201c565b620003a467466f0f7037ee696160c01b6200035960201b60201c565b620003c0676e1ef779a84c619560c01b6200035960201b60201c565b620003dc67d960335be933b0c460c01b6200035960201b60201c565b80600260006101000a81548173ffffffffffffffffffffffffffffffffffffffff021916908373ffffffffffffffffffffffffffffffffffffffff16021790555050565b6200043c6758d571626a3a6bc460c01b6200035960201b60201c565b6200044c620004e460201b60201c565b6200046867ab5de9e2c1609a8760c01b6200035960201b60201c565b6200048467bac541b4bf62ee3360c01b6200035960201b60201c565b620004a0671cf436ee7f67e98a60c01b6200035960201b60201c565b80600360006101000a81548173ffffffffffffffffffffffffffffffffffffffff021916908373ffffffffffffffffffffffffffffffffffffffff16021790555050565b620004f46200028d60201b60201c565b73ffffffffffffffffffffffffffffffffffffffff166200051a6200057560201b60201c565b73ffffffffffffffffffffffffffffffffffffffff161462000573576040517f08c379a00000000000000000000000000000000000000000000000000000000081526004016200056a9062000725565b60405180910390fd5b565b60008060009054906101000a900473ffffffffffffffffffffffffffffffffffffffff16905090565b828054828255906000526020600020908101928215620005e2579160200282015b82811115620005e1578251829060ff16905591602001919060010190620005bf565b5b509050620005f19190620005f5565b5090565b5b8082111562000610576000816000905550600101620005f6565b5090565b600080fd5b600073ffffffffffffffffffffffffffffffffffffffff82169050919050565b6000620006468262000619565b9050919050565b60006200065a8262000639565b9050919050565b6200066c816200064d565b81146200067857600080fd5b50565b6000815190506200068c8162000661565b92915050565b600060208284031215620006ab57620006aa62000614565b5b6000620006bb848285016200067b565b91505092915050565b600082825260208201905092915050565b7f4f776e61626c653a2063616c6c6572206973206e6f7420746865206f776e6572600082015250565b60006200070d602083620006c4565b91506200071a82620006d5565b602082019050919050565b600060208201905081810360008301526200074081620006fe565b9050919050565b61598c80620007576000396000f3fe6080604052600436106102885760003560e01c80638d56a17b1161015a578063b9a43f2e116100c1578063d6117b3e1161007a578063d6117b3e14610945578063df477ead1461096e578063e49618c114610999578063f2fde38b146109d6578063f4cde4c0146109ff578063fbfa77cf14610a2a57610288565b8063b9a43f2e14610858578063c2774dac14610883578063cc644fd2146108ac578063cef58283146108d5578063d012468f146108fe578063d3cf00a31461091a57610288565b80639b68a6ef116101135780639b68a6ef1461076b5780639f0664b514610796578063a0712d68146107bf578063a0e52f89146107db578063a637f97314610806578063ae6b6dae1461082f57610288565b80638d56a17b1461065b5780638da5cb5b1461068657806391b7f5ed146106b157806393cb4147146106da57806396c9f88b146107055780639727151a1461074257610288565b80633e97414f116101fe5780636138f236116101b75780636138f236146105735780636e1a1a60146105b0578063715018a6146105d9578063853828b6146105f057806385535cc5146106075780638c6d8ef61461063057610288565b80633e97414f14610475578063411d13f7146104a057806346bf289f146104c95780634ed1eb24146104f45780635242a4931461051f5780635fcd80a61461054a57610288565b8063205ed38211610250578063205ed382146103675780632560e37614610390578063260c0886146103bb5780632701b325146103e45780632ce82a71146104215780632e1a7d4d1461044c57610288565b8063062f7b8c1461028d5780630747eda8146102b8578063158ae298146102d45780631af3ba81146103115780631c7f4a021461033c575b600080fd5b34801561029957600080fd5b506102a2610a55565b6040516102af9190614658565b60405180910390f35b6102d260048036038101906102cd9190614715565b610ae9565b005b3480156102e057600080fd5b506102fb60048036038101906102f69190614789565b610e29565b60405161030891906147c5565b60405180910390f35b34801561031d57600080fd5b50610326610e41565b60405161033391906147c5565b60405180910390f35b34801561034857600080fd5b50610351610e47565b60405161035e91906147f9565b60405180910390f35b34801561037357600080fd5b5061038e60048036038101906103899190614789565b610e4d565b005b34801561039c57600080fd5b506103a5610f52565b6040516103b291906147f9565b60405180910390f35b3480156103c757600080fd5b506103e260048036038101906103dd9190614789565b610f58565b005b3480156103f057600080fd5b5061040b60048036038101906104069190614789565b610fba565b60405161041891906147c5565b60405180910390f35b34801561042d57600080fd5b50610436611003565b6040516104439190614658565b60405180910390f35b34801561045857600080fd5b50610473600480360381019061046e9190614789565b611305565b005b34801561048157600080fd5b5061048a611493565b604051610497919061482f565b60405180910390f35b3480156104ac57600080fd5b506104c760048036038101906104c29190614876565b6114dc565b005b3480156104d557600080fd5b506104de61153e565b6040516104eb91906147c5565b60405180910390f35b34801561050057600080fd5b506105096116b0565b60405161051691906147f9565b60405180910390f35b34801561052b57600080fd5b506105346116b6565b60405161054191906147c5565b60405180910390f35b34801561055657600080fd5b50610571600480360381019061056c9190614789565b6116bc565b005b34801561057f57600080fd5b5061059a60048036038101906105959190614901565b61171e565b6040516105a791906147c5565b60405180910390f35b3480156105bc57600080fd5b506105d760048036038101906105d29190614789565b611736565b005b3480156105e557600080fd5b506105ee611798565b005b3480156105fc57600080fd5b506106056117ac565b005b34801561061357600080fd5b5061062e6004803603810190610629919061496c565b611939565b005b34801561063c57600080fd5b506106456119d5565b604051610652919061482f565b60405180910390f35b34801561066757600080fd5b50610670611a1e565b60405161067d91906147c5565b60405180910390f35b34801561069257600080fd5b5061069b611a24565b6040516106a891906149a8565b60405180910390f35b3480156106bd57600080fd5b506106d860048036038101906106d39190614789565b611a4d565b005b3480156106e657600080fd5b506106ef611b52565b6040516106fc919061482f565b60405180910390f35b34801561071157600080fd5b5061072c60048036038101906107279190614789565b611b9b565b60405161073991906147c5565b60405180910390f35b34801561074e57600080fd5b5061076960048036038101906107649190614a01565b611bbf565b005b34801561077757600080fd5b50610780611d78565b60405161078d9190614aa0565b60405180910390f35b3480156107a257600080fd5b506107bd60048036038101906107b89190614b67565b611d9e565b005b6107d960048036038101906107d49190614789565b6120a0565b005b3480156107e757600080fd5b506107f0612120565b6040516107fd91906147c5565b60405180910390f35b34801561081257600080fd5b5061082d60048036038101906108289190614789565b612166565b005b34801561083b57600080fd5b5061085660048036038101906108519190614c26565b61226b565b005b34801561086457600080fd5b5061086d612307565b60405161087a91906147c5565b60405180910390f35b34801561088f57600080fd5b506108aa60048036038101906108a59190614876565b61252a565b005b3480156108b857600080fd5b506108d360048036038101906108ce9190614ca9565b61258c565b005b3480156108e157600080fd5b506108fc60048036038101906108f79190614876565b61274f565b005b61091860048036038101906109139190614715565b6127b1565b005b34801561092657600080fd5b5061092f612cfe565b60405161093c91906147c5565b60405180910390f35b34801561095157600080fd5b5061096c60048036038101906109679190614ca9565b612d04565b005b34801561097a57600080fd5b50610983613023565b60405161099091906147c5565b60405180910390f35b3480156109a557600080fd5b506109c060048036038101906109bb9190614901565b613069565b6040516109cd91906147c5565b60405180910390f35b3480156109e257600080fd5b506109fd60048036038101906109f89190614901565b613081565b005b348015610a0b57600080fd5b50610a14613104565b604051610a2191906147c5565b60405180910390f35b348015610a3657600080fd5b50610a3f61310a565b604051610a4c9190614d05565b60405180910390f35b6060610a6b6769aee44348771e3e60c01b613130565b610a7f67705ca60e36ea6c3860c01b613130565b610a93670a7b2e6e09038c4e60c01b613130565b6006805480602002602001604051908101604052809291908181526020018280548015610adf57602002820191906000526020600020905b815481526020019060010190808311610acb575b5050505050905090565b610afd679c2c4bc552d2a87c60c01b613130565b610b1167f2e73cbda7524fc660c01b613130565b610b25676a47b1cc1489613660c01b613130565b6000601260003373ffffffffffffffffffffffffffffffffffffffff1673ffffffffffffffffffffffffffffffffffffffff168152602001908152602001600020549050610b7d678c55a9631e25d46760c01b613130565b610b916713d22acbc335a15d60c01b613130565b600081148015610ba15750600085145b15610c0057610bba674bfa572b9079827b60c01b613130565b610bce67e930e4c39c349d7760c01b613130565b6040517fea8792a100000000000000000000000000000000000000000000000000000000815260040160405180910390fd5b610c146712f6285e7916cf1d60c01b613130565b610c2867696542a4bdf5339260c01b613130565b610c3c67861c8b769960aef360c01b613130565b6000851115610c8f57610c5967bc556ad3bd6e5b3560c01b613130565b610c6d6737d6bc7291d26eb760c01b613130565b610c8167d961555cab7efe6d60c01b613130565b610c8a85613133565b610ca4565b610ca3672e40c9c1cdb41ea660c01b613130565b5b610cb8677c0a418f2b2b0c8360c01b613130565b610ccc67210193aaf571729d60c01b613130565b60008185610cda9190614d4f565b9050610cf0671e7244877b70b61360c01b613130565b610d0467861fdebdde3982cc60c01b613130565b60008203610d7957610d2067a5015fa96723029460c01b613130565b610d34675fe447d331ad928060c01b613130565b610d4867b9028503dff5dfd560c01b613130565b610d526001613310565b610d6667faad36e3e4a586ef60c01b613130565b8080610d7190614d83565b915050610d8e565b610d8d67b967ec63e7dc63f660c01b613130565b5b610da267eafa5fbc221d6cbf60c01b613130565b610db667cc5d7d7bb53990a860c01b613130565b6000811115610e0c57610dd36790ccf649369630cd60c01b613130565b610de767f2ea20d1bcc6da1b60c01b613130565b610dfb677c34f25fac03e06860c01b613130565b610e07818686866133c3565b610e21565b610e2067871b678db903155660c01b613130565b5b505050505050565b60106020528060005260406000206000915090505481565b60095481565b600e5481565b610e61671ba27dcf3fa00ba160c01b613130565b610e696137a0565b610e7d676e3ba164e947c30960c01b613130565b610e9167222a0ab725ff146260c01b613130565b610ea567a38e4be88e43bc4960c01b613130565b610eb96757baaf059f10653b60c01b613130565b610ec1611b52565b15610f2057610eda67e71bef162d072bac60c01b613130565b610eee6727e3a0c1090e6b8e60c01b613130565b6040517ff2a84b6300000000000000000000000000000000000000000000000000000000815260040160405180910390fd5b610f346721b69314d9d2a2bb60c01b613130565b610f4867ffb0b40453e73f8160c01b613130565b8060048190555050565b600f5481565b610f6c67a2cef5ce5d323c3b60c01b613130565b610f746137a0565b610f886789dfb7f6ad63d71d60c01b613130565b610f9c672f1085fb2ff5edd360c01b613130565b610fb0673de99a6b50a6578660c01b613130565b80600c8190555050565b6000610fd067d74d46da6c0b1af160c01b613130565b610fe4675b5c91c090bf76a960c01b613130565b610ff867ead184bdfd1ccd8860c01b613130565b60ff82169050919050565b60606110196708587a9034fbffaf60c01b613130565b61102d67e7ce43a8b5db463e60c01b613130565b611041678b3116fef377fde360c01b613130565b6000600867ffffffffffffffff81111561105e5761105d614dac565b5b60405190808252806020026020018201604052801561108c5781602001602082028036833780820191505090505b5090506110a367e16f30dcbb5da37960c01b613130565b6010600080815260200190815260200160002054816000815181106110cb576110ca614ddb565b5b6020026020010181815250506110eb67595dcd6cffb608bd60c01b613130565b6010600060018152602001908152602001600020548160018151811061111457611113614ddb565b5b602002602001018181525050611134672691bb052b4f95b260c01b613130565b6010600060028152602001908152602001600020548160028151811061115d5761115c614ddb565b5b60200260200101818152505061117d6715a1ac5a08c1a18f60c01b613130565b601060006003815260200190815260200160002054816003815181106111a6576111a5614ddb565b5b6020026020010181815250506111c6671dbf12dd81e5d70560c01b613130565b601060006004815260200190815260200160002054816004815181106111ef576111ee614ddb565b5b60200260200101818152505061120f6719ae53ca0268b87160c01b613130565b6010600060058152602001908152602001600020548160058151811061123857611237614ddb565b5b60200260200101818152505061125867770f5738bcb3476660c01b613130565b6010600060068152602001908152602001600020548160068151811061128157611280614ddb565b5b6020026020010181815250506112a1676540c61d0b14d95760c01b613130565b601060006007815260200190815260200160002054816007815181106112ca576112c9614ddb565b5b6020026020010181815250506112ea6746802d366debbb6760c01b613130565b6112fe671ba9e1f04e68e2a960c01b613130565b8091505090565b6113196735da8434742dda6560c01b613130565b6113216137a0565b61133567c725e29c636775d760c01b613130565b61134967fabd2edcfcb3de5160c01b613130565b61135d67ef8959984e96d67f60c01b613130565b61137167d71e609b2fc9e80060c01b613130565b6000600360009054906101000a900473ffffffffffffffffffffffffffffffffffffffff1673ffffffffffffffffffffffffffffffffffffffff16826040516113b990614e3b565b60006040518083038185875af1925050503d80600081146113f6576040519150601f19603f3d011682016040523d82523d6000602084013e6113fb565b606091505b5050905061141367870b4747e23d538f60c01b613130565b61142767f97889e85c3d62cd60c01b613130565b61143b6742f405e82fda33ef60c01b613130565b8061147b576040517f08c379a000000000000000000000000000000000000000000000000000000000815260040161147290614ead565b60405180910390fd5b61148f6754d6ff89465f858c60c01b613130565b5050565b60006114a96710590ca0bc1b84c260c01b613130565b6114bd6747bc4fd9e2ae387860c01b613130565b6114d16774ef13f922a5c22960c01b613130565b600c54421015905090565b6114f06778317f8bf8aff60f60c01b613130565b6114f86137a0565b61150c674f19ee0197dcafdf60c01b613130565b61152067437f9dd5c06e488760c01b613130565b611534670c60990c8411682c60c01b613130565b80600f8190555050565b600061155467694bda97b4461c8a60c01b613130565b61156867fbd30dc550ae1b0360c01b613130565b61157c67c1d55aa08666204c60c01b613130565b600061159267be0ad9b3008d209060c01b613130565b60106000600781526020019081526020016000205460106000600681526020019081526020016000205460106000600581526020019081526020016000205460106000600481526020019081526020016000205460106000600381526020019081526020016000205460106000600281526020019081526020016000205460106000600181526020019081526020016000205460106000808152602001908152602001600020546116439190614ecd565b61164d9190614ecd565b6116579190614ecd565b6116619190614ecd565b61166b9190614ecd565b6116759190614ecd565b61167f9190614ecd565b90506116956755c4c1f7d054036b60c01b613130565b6116a967c37efbe86c9f612a60c01b613130565b8091505090565b600d5481565b60085481565b6116d06704bca15339ac9b2f60c01b613130565b6116d86137a0565b6116ec67527fd792ffe9decc60c01b613130565b61170067c7f23e3846f679a560c01b613130565b61171467df2383e8fd21779660c01b613130565b80600a8190555050565b60126020528060005260406000206000915090505481565b61174a67543b3bc4766a4b5360c01b613130565b6117526137a0565b6117666774d6f4c7d901b5e060c01b613130565b61177a67f4e5bb02b2d821c260c01b613130565b61178e670c058152ed58100760c01b613130565b80600b8190555050565b6117a06137a0565b6117aa600061381e565b565b6117c0671834385fcc8392ca60c01b613130565b6117c86137a0565b6117dc671588f990c8316a0260c01b613130565b6117f0677a2640a4fde6a50760c01b613130565b611804678f396929b48d8f8660c01b613130565b6118186753036d908650aff060c01b613130565b6000600360009054906101000a900473ffffffffffffffffffffffffffffffffffffffff1673ffffffffffffffffffffffffffffffffffffffff164760405161186090614e3b565b60006040518083038185875af1925050503d806000811461189d576040519150601f19603f3d011682016040523d82523d6000602084013e6118a2565b606091505b505090506118ba678c740dfdf7140fe860c01b613130565b6118ce67254ad48106aeddd760c01b613130565b6118e26717f2ebe44f65c67f60c01b613130565b80611922576040517f08c379a000000000000000000000000000000000000000000000000000000000815260040161191990614f4d565b60405180910390fd5b611936673c60c4742c0d1bbb60c01b613130565b50565b61194d6758d571626a3a6bc460c01b613130565b6119556137a0565b61196967ab5de9e2c1609a8760c01b613130565b61197d67bac541b4bf62ee3360c01b613130565b611991671cf436ee7f67e98a60c01b613130565b80600360006101000a81548173ffffffffffffffffffffffffffffffffffffffff021916908373ffffffffffffffffffffffffffffffffffffffff16021790555050565b60006119eb679acf694d0ed84e7460c01b613130565b6119ff6784b630aff37e9cb460c01b613130565b611a1367b0dc887c8680c36560c01b613130565b600a54421015905090565b600c5481565b60008060009054906101000a900473ffffffffffffffffffffffffffffffffffffffff16905090565b611a6167dbc958db80ab964660c01b613130565b611a696137a0565b611a7d67801715a645672fb660c01b613130565b611a916721a695c58de01e0560c01b613130565b611aa567fdae619d0c5777f360c01b613130565b611ab967ee4b1c307bbf111c60c01b613130565b611ac1611b52565b15611b2057611ada6799298f039d2f3ac860c01b613130565b611aee67fc1334114bdc5cba60c01b613130565b6040517ff2a84b6300000000000000000000000000000000000000000000000000000000815260040160405180910390fd5b611b346787d6aa15b92c454860c01b613130565b611b486765877e5b15b708de60c01b613130565b8060098190555050565b6000611b6867049ab801895b890a60c01b613130565b611b7c67b3656d5c41d49b3060c01b613130565b611b9067fa44fe493b17134160c01b613130565b600b54421015905090565b60078181548110611bab57600080fd5b906000526020600020016000915090505481565b611bd36736b2f94adf4c75a360c01b613130565b611bdb6137a0565b611bef67d3c71b847f838ae560c01b613130565b611c03676a5f8fe411ce764260c01b613130565b611c17671f8e5fc60c6c6a9b60c01b613130565b611c2b67c4f9fa40efc7834a60c01b613130565b600073ffffffffffffffffffffffffffffffffffffffff163373ffffffffffffffffffffffffffffffffffffffff1603611cb957611c736703e1599eaf7bf63f60c01b613130565b611c87671fcd7a0a736a20dd60c01b613130565b6040517f48ac165200000000000000000000000000000000000000000000000000000000815260040160405180910390fd5b611ccd67d8433a9f77080ba060c01b613130565b611ce1671a0d3348253655ec60c01b613130565b611cf5671d8e31a06cb036c860c01b613130565b8173ffffffffffffffffffffffffffffffffffffffff1663a9059cbb33836040518363ffffffff1660e01b8152600401611d30929190614f6d565b6020604051808303816000875af1158015611d4f573d6000803e3d6000fd5b505050506040513d601f19601f82011682018060405250810190611d739190614fc2565b505050565b600260009054906101000a900473ffffffffffffffffffffffffffffffffffffffff1681565b611db26774b7eae20273fffe60c01b613130565b611dba6137a0565b611dce67911496ba989562ac60c01b613130565b611de267ce656ad479c937c560c01b613130565b611df6675e22215be5396b1660c01b613130565b611e0a67ab78d1cdf0c0c50f60c01b613130565b611e1e67cc7498327546206860c01b613130565b818190508484905014611e66576040517f08c379a0000000000000000000000000000000000000000000000000000000008152600401611e5d90615061565b60405180910390fd5b611e7a674bf150ef486593e060c01b613130565b611e8e674b18573c6b88772760c01b613130565b611ea267c6b972ce360c79ac60c01b613130565b60005b8282905081101561209957611ec4676b6f7ea392e457f060c01b613130565b611ed867e536327f4489013c60c01b613130565b6000611f0a868684818110611ef057611eef614ddb565b5b9050602002016020810190611f0591906150a6565b6138e2565b9050611f20671081fa8de8ea521560c01b613130565b60106000878785818110611f3757611f36614ddb565b5b9050602002016020810190611f4c91906150a6565b6007811115611f5e57611f5d6150d3565b5b815260200190815260200160002060008154611f7990615102565b91905081905550611f9467aff8ea71d97bebca60c01b613130565b611fa8678b2556e4aaac790c60c01b613130565b600260009054906101000a900473ffffffffffffffffffffffffffffffffffffffff1673ffffffffffffffffffffffffffffffffffffffff166386ebf010858585818110611ff957611ff8614ddb565b5b905060200201602081019061200e9190614901565b8389898781811061202257612021614ddb565b5b905060200201602081019061203791906150a6565b6040518463ffffffff1660e01b815260040161205593929190615192565b600060405180830381600087803b15801561206f57600080fd5b505af1158015612083573d6000803e3d6000fd5b50505050508061209290615102565b9050611ea5565b5050505050565b6120b467e50f6cca4bd2bb2b60c01b613130565b6120bc613c4a565b6120d06735b4a0514769d85160c01b613130565b6120e467969b4e5dae14942360c01b613130565b6120f86716b3c39833f2d40860c01b613130565b61210c674ff3a12d9da8872a60c01b613130565b61211581613133565b61211d613c99565b50565b600061213667be067adf32d6431a60c01b613130565b61214a6789b8f4d24284140d60c01b613130565b61215e67981e6e9031d5ffbd60c01b613130565b600954905090565b61217a676e22324b3b923b4c60c01b613130565b6121826137a0565b61219667e8328f150afef62c60c01b613130565b6121aa6755bc7cf853703ec260c01b613130565b6121be67d023fff94bb19ab460c01b613130565b6121d267150223a91e704d8460c01b613130565b6121da611b52565b15612239576121f3679e25e57d285d07af60c01b613130565b61220767ff71b883bf0cd7c460c01b613130565b6040517ff2a84b6300000000000000000000000000000000000000000000000000000000815260040160405180910390fd5b61224d670b6693038dfa6d0060c01b613130565b61226167d746764693ce52ed60c01b613130565b8060088190555050565b61227f6752430b59083504bf60c01b613130565b6122876137a0565b61229b67466f0f7037ee696160c01b613130565b6122af676e1ef779a84c619560c01b613130565b6122c367d960335be933b0c460c01b613130565b80600260006101000a81548173ffffffffffffffffffffffffffffffffffffffff021916908373ffffffffffffffffffffffffffffffffffffffff16021790555050565b600061231d67e6771696d2a6198960c01b613130565b61233167b0f4496ccc521dda60c01b613130565b612345676c15bb27b725426460c01b613130565b6000600454905061236067f3b11f01d650734a60c01b613130565b60106000808152602001908152602001600020548161237f9190614d4f565b90506123956705d01a0069f938bf60c01b613130565b601060006001815260200190815260200160002054816123b59190614d4f565b90506123cb671a7844d66e37661f60c01b613130565b601060006002815260200190815260200160002054816123eb9190614d4f565b905061240167ba29bdafce94599060c01b613130565b601060006003815260200190815260200160002054816124219190614d4f565b905061243767a99ced2dcd36295e60c01b613130565b601060006004815260200190815260200160002054816124579190614d4f565b905061246d6751a2d6bd2511fb5760c01b613130565b6010600060058152602001908152602001600020548161248d9190614d4f565b90506124a367a6c8c17071ba6e8c60c01b613130565b601060006006815260200190815260200160002054816124c39190614d4f565b90506124d967b40ad1ce8a1fe24560c01b613130565b601060006007815260200190815260200160002054816124f99190614d4f565b905061250f6799eac93ce9b2480b60c01b613130565b6125236711ff726a468842db60c01b613130565b8091505090565b61253e6770caa284f6b967df60c01b613130565b6125466137a0565b61255a67e72ba8acbe21eb8c60c01b613130565b61256e6738834026154611cd60c01b613130565b6125826724a6d85a5f3f4ca360c01b613130565b80600e8190555050565b6125a06776930890d9e39b6e60c01b613130565b6125a86137a0565b6125bc67f8dfdc49ed068bd960c01b613130565b6125d067e00cfda1c03652af60c01b613130565b6125e46728642af5d6e299f960c01b613130565b6125f867247aef08b0a35d7a60c01b613130565b6008828290501461266e5761261767bf3392c41ff3357560c01b613130565b61262b677838befa8f03d56e60c01b613130565b8181905060086040517f485d33a2000000000000000000000000000000000000000000000000000000008152600401612665929190615204565b60405180910390fd5b612682676a3947fd47f3bd2e60c01b613130565b612696672bdb8cfd4e7530c460c01b613130565b6126aa673a27dcb78cfc0e5060c01b613130565b6126b2611b52565b15612711576126cb6720b86b6e0fc5a6e560c01b613130565b6126df67c3fd20046c2655fc60c01b613130565b6040517ff2a84b6300000000000000000000000000000000000000000000000000000000815260040160405180910390fd5b61272567ca6a8dcdf4c92ec660c01b613130565b61273967cdddb34ca365207560c01b613130565b81816007919061274a929190614526565b505050565b612763671887b76e6e547f4860c01b613130565b61276b6137a0565b61277f671cf0731b2b51450060c01b613130565b61279367f875cbdb4ab6ad4660c01b613130565b6127a767ac1c305df3b4692360c01b613130565b80600d8190555050565b6127c5678dfc65c5fde3d53e60c01b613130565b6127cd613c4a565b6127e167a0b4172f4880758460c01b613130565b6127f567555cf4907b7603a960c01b613130565b612809678364be5c9883748e60c01b613130565b61281d67eedf4656b36608f960c01b613130565b612825611b52565b6128925761283d67dcb70848b175415960c01b613130565b61285167bf63c438b5a9e09e60c01b613130565b600b54426040517f66803fc100000000000000000000000000000000000000000000000000000000815260040161288992919061522d565b60405180910390fd5b6128a66790e59bc892cc793060c01b613130565b6128ba67214d63d43176e38e60c01b613130565b6128ce67d9f07fc7c681b33b60c01b613130565b600084111580156128ef57506128ee67c94738cd9a0380f460c01b613ca2565b5b8061291657506014841180156129155750612914675db26bb1c0c8004d60c01b613ca2565b5b5b156129755761292f67c2e99387c9ea43eb60c01b613130565b61294367389a9cc2b504705d60c01b613130565b6040517fca02d6eb00000000000000000000000000000000000000000000000000000000815260040160405180910390fd5b61298967d189763dde4bf10e60c01b613130565b61299d67a5301ef0665c510360c01b613130565b6129b1677f1096bce966202e60c01b613130565b600033846040516020016129c6929190615316565b6040516020818303038152906040528051906020012090506129f26749e3cf779edfd89360c01b613130565b612a066727cc071cea1760f560c01b613130565b612a1a676767260ec47c36bb60c01b613130565b612a68838380806020026020016040519081016040528093929190818152602001838360200280828437600081840152601f19601f82011690508083019250505050505050600d5483613cad565b8015612a845750612a8367c1e4fbf13b65e05660c01b613ca2565b5b80612af55750612ad8838380806020026020016040519081016040528093929190818152602001838360200280828437600081840152601f19601f82011690508083019250505050505050600e5483613cad565b8015612af45750612af367077eb7517601ebbe60c01b613ca2565b5b5b612b34576040517f08c379a0000000000000000000000000000000000000000000000000000000008152600401612b2b90615399565b60405180910390fd5b612b4867b20c779882fd4e2860c01b613130565b612b5c67146733753ff637ac60c01b613130565b612b706743eef1391c70ff1e60c01b613130565b6000601160003373ffffffffffffffffffffffffffffffffffffffff1673ffffffffffffffffffffffffffffffffffffffff168152602001908152602001600020549050612bc867a09b12c19eb5c2fb60c01b613130565b612bdc677c40b50c3cee967b60c01b613130565b612bf067989565850df73e9a60c01b613130565b848682612bfd9190614ecd565b1115612c3e576040517f08c379a0000000000000000000000000000000000000000000000000000000008152600401612c3590615405565b60405180910390fd5b612c5267b451a61c6987562860c01b613130565b612c6667ef2405379be8f28260c01b613130565b85601160003373ffffffffffffffffffffffffffffffffffffffff1673ffffffffffffffffffffffffffffffffffffffff1681526020019081526020016000206000828254612cb59190614ecd565b92505081905550612cd06706facb2c95e37d5c60c01b613130565b612ce467be8c4abc7cdc8c2160c01b613130565b612cee8633613cc4565b5050612cf8613c99565b50505050565b600a5481565b612d186791026e896300b08a60c01b613130565b612d206137a0565b612d3467cfbbacb71e5b71d660c01b613130565b612d4867f427a93c2f21d76b60c01b613130565b612d5c67d7243bc38586f4e860c01b613130565b612d7067cfbefa4cc890fc0f60c01b613130565b6000612d866757b2e4cb7b65d95760c01b613130565b612d9a67caac713d24e509e560c01b613130565b60005b83839050811015612df657612dbc67ac0beaa9bf1efa6c60c01b613130565b838382818110612dcf57612dce614ddb565b5b9050602002013582612de19190614ecd565b91508080612dee90615102565b915050612d9d565b50612e0b670f674f31ba3097a560c01b613130565b612e1f671f56501a3580b5e560c01b613130565b60648114612e8f57612e3b672727b5ec6e02346160c01b613130565b612e4f671ee56883405fb60f60c01b613130565b8060646040517f485d33a2000000000000000000000000000000000000000000000000000000008152600401612e86929190615460565b60405180910390fd5b612ea3673e3711868c14c6b060c01b613130565b612eb767bb74e6f606cfc35160c01b613130565b612ecb67f9e3716ec48abb4e60c01b613130565b60088383905014612f4157612eea6761ae9a8cdfff4f2f60c01b613130565b612efe67bc763588abe67a3260c01b613130565b8282905060086040517f485d33a2000000000000000000000000000000000000000000000000000000008152600401612f38929190615204565b60405180910390fd5b612f556796b01ca22ca9639460c01b613130565b612f696757fb42e71e63468460c01b613130565b612f7d67848364ec8e20d2c060c01b613130565b612f85611b52565b15612fe457612f9e67ca0775cc3e78e40c60c01b613130565b612fb2677470b3db1067704a60c01b613130565b6040517ff2a84b6300000000000000000000000000000000000000000000000000000000815260040160405180910390fd5b612ff86715d3728355eb5d4160c01b613130565b61300c67a60388ac7c44e05860c01b613130565b82826006919061301d929190614526565b50505050565b60006130396718c23a2c221ad19b60c01b613130565b61304d6735a62cdfa6e3341260c01b613130565b61306167d1be6d0480a20bef60c01b613130565b600454905090565b60116020528060005260406000206000915090505481565b6130896137a0565b600073ffffffffffffffffffffffffffffffffffffffff168173ffffffffffffffffffffffffffffffffffffffff16036130f8576040517f08c379a00000000000000000000000000000000000000000000000000000000081526004016130ef906154fb565b60405180910390fd5b6131018161381e565b50565b600b5481565b600360009054906101000a900473ffffffffffffffffffffffffffffffffffffffff1681565b50565b6131476778ceb96bc6aca71e60c01b613130565b61315b679435af39981ad76060c01b613130565b61316f672522a09b2190082a60c01b613130565b6131776119d5565b6131e45761318f6737c093e22fb47fa760c01b613130565b6131a367b1bb27d8c71dc7c360c01b613130565b600a54426040517f66803fc10000000000000000000000000000000000000000000000000000000081526004016131db92919061522d565b60405180910390fd5b6131f8673730119e8747307560c01b613130565b61320c672d189804ea0adcc460c01b613130565b61322067717f156e59947c6d60c01b613130565b60008111158015613241575061324067bcb641f3599af6b960c01b613ca2565b5b8061326857506014811180156132675750613266675fdde977ceffdb8f60c01b613ca2565b5b5b156132c757613281672323d30c29b01db860c01b613130565b61329567f5f51ba7f41dc5d660c01b613130565b6040517fca02d6eb00000000000000000000000000000000000000000000000000000000815260040160405180910390fd5b6132db67485700bbefb4d56c60c01b613130565b6132ef67ea323790ef8e3a8b60c01b613130565b61330367814dc6fb7db458b360c01b613130565b61330d8133613cc4565b50565b613324670f3773f14251e82a60c01b613130565b6133386791d1416f959f5a0060c01b613130565b80601260003373ffffffffffffffffffffffffffffffffffffffff1673ffffffffffffffffffffffffffffffffffffffff16815260200190815260200160002060008282546133879190614ecd565b925050819055506133a267fb077aff43cbfd5f60c01b613130565b6133b66723ac717b299a8a7660c01b613130565b6133c08133613e4d565b50565b6133d767e661ebe209cbf98f60c01b613130565b6133df613c4a565b6133f367fb7d839a9321c90160c01b613130565b613407677602c0da1d28080160c01b613130565b61341b67c566bdcc6c21fb9c60c01b613130565b61342f6728cc5becdf94fba060c01b613130565b613437611493565b6134a45761344f67fd508b82626413b860c01b613130565b613463673efc0dc94c58c9c860c01b613130565b600c54426040517f66803fc100000000000000000000000000000000000000000000000000000000815260040161349b92919061522d565b60405180910390fd5b6134b867b3476fbed87f425d60c01b613130565b6134cc67f638cfa9042edca460c01b613130565b6134e0679b39de5ae383d72c60c01b613130565b600033846040516020016134f5929190615316565b6040516020818303038152906040528051906020012090506135216767336b3e7e2e886b60c01b613130565b613535673f36d94d89192bd060c01b613130565b6135496749ea1ee2445eb9fa60c01b613130565b613597838380806020026020016040519081016040528093929190818152602001838360200280828437600081840152601f19601f82011690508083019250505050505050600f5483613cad565b6135d6576040517f08c379a00000000000000000000000000000000000000000000000000000000081526004016135cd90615399565b60405180910390fd5b6135ea67a5baf3ca2830a5ae60c01b613130565b6135fe678830283bfd7f21ff60c01b613130565b61361267110bd36419f6c44260c01b613130565b6000601260003373ffffffffffffffffffffffffffffffffffffffff1673ffffffffffffffffffffffffffffffffffffffff16815260200190815260200160002054905061366a67f6a089fe947444e360c01b613130565b61367e67971bb205134daf5360c01b613130565b6136926732dc688bd0aeb6ee60c01b613130565b84868261369f9190614ecd565b11156136e0576040517f08c379a00000000000000000000000000000000000000000000000000000000081526004016136d790615567565b60405180910390fd5b6136f4679d5e7da65268e7a860c01b613130565b6137086785663a6fad0e8d0260c01b613130565b85601260003373ffffffffffffffffffffffffffffffffffffffff1673ffffffffffffffffffffffffffffffffffffffff16815260200190815260200160002060008282546137579190614ecd565b92505081905550613772674fda3021eee9426060c01b613130565b6137866788bf0a944461a6b860c01b613130565b6137908633613e4d565b505061379a613c99565b50505050565b6137a86141c3565b73ffffffffffffffffffffffffffffffffffffffff166137c6611a24565b73ffffffffffffffffffffffffffffffffffffffff161461381c576040517f08c379a0000000000000000000000000000000000000000000000000000000008152600401613813906155d3565b60405180910390fd5b565b60008060009054906101000a900473ffffffffffffffffffffffffffffffffffffffff169050816000806101000a81548173ffffffffffffffffffffffffffffffffffffffff021916908373ffffffffffffffffffffffffffffffffffffffff1602179055508173ffffffffffffffffffffffffffffffffffffffff168173ffffffffffffffffffffffffffffffffffffffff167f8be0079c531659141344cd1fd0a4f28419497f9722a3daafe3b4186f6b6457e060405160405180910390a35050565b60006138f8677b0cd0936251634b60c01b613130565b61390c676dd0e852c9097d9a60c01b613130565b61392067c3012fdedc138a8960c01b613130565b600060085460106000600781526020019081526020016000205460106000600681526020019081526020016000205460106000600581526020019081526020016000205460106000600481526020019081526020016000205460106000600381526020019081526020016000205460106000600281526020019081526020016000205460106000600181526020019081526020016000205460106000808152602001908152602001600020546139d69190614ecd565b6139e09190614ecd565b6139ea9190614ecd565b6139f49190614ecd565b6139fe9190614ecd565b613a089190614ecd565b613a129190614ecd565b613a1c9190614ecd565b9050613a3267b37dc6ea91089efd60c01b613130565b613a4667b25bfffafd50be4360c01b613130565b60006007846007811115613a5d57613a5c6150d3565b5b81548110613a6e57613a6d614ddb565b5b906000526020600020015460106000866007811115613a9057613a8f6150d3565b5b815260200190815260200160002054613aa99190614ecd565b9050613abf674d3f1c90513c385460c01b613130565b613ad36766cc27d73bc89e6060c01b613130565b613ae76780cb391e826cdb6560c01b613130565b63ffffffff811115613b2e576040517f08c379a0000000000000000000000000000000000000000000000000000000008152600401613b259061563f565b60405180910390fd5b613b42671f1ba2aa617098d960c01b613130565b613b5667fee86957608217d460c01b613130565b613b6a679c252671b8d2428f60c01b613130565b613b7e6723089083cb7a449060c01b613130565b60ff846007811115613b9357613b926150d3565b5b1115613bd4576040517f08c379a0000000000000000000000000000000000000000000000000000000008152600401613bcb906156ab565b60405180910390fd5b613be86757d4167a40c4a07a60c01b613130565b613bfc670d02b6ca0366220560c01b613130565b613c1067375f7b40ae15614f60c01b613130565b836007811115613c2357613c226150d3565b5b600882901b602884901b613c379190614ecd565b613c419190614ecd565b92505050919050565b600260015403613c8f576040517f08c379a0000000000000000000000000000000000000000000000000000000008152600401613c8690615717565b60405180910390fd5b6002600181905550565b60018081905550565b600060019050919050565b600082613cba85846141cb565b1490509392505050565b613cd867ebcc79bb6224909960c01b613130565b613cec678cedf664aaced5ff60c01b613130565b613d0067e348ebda01e5b7da60c01b613130565b600060095411613d6457613d1e67ec31c25dc91a907360c01b613130565b613d3267ccf7f6b59287ae4660c01b613130565b6040517fc5fadba600000000000000000000000000000000000000000000000000000000815260040160405180910390fd5b613d786725c7c3732ec9d70b60c01b613130565b613d8c675a592e26eebef57f60c01b613130565b613da06703ba30ef9d845fe160c01b613130565b613db4671039b608b3e5c31860c01b613130565b81600954613dc29190615737565b3414613e03576040517f08c379a0000000000000000000000000000000000000000000000000000000008152600401613dfa906157eb565b60405180910390fd5b613e17676e45cce96e80bd2e60c01b613130565b613e2b67412600a0efc91ef660c01b613130565b613e3f676f476a5d9facd6f560c01b613130565b613e498282613e4d565b5050565b613e6167af62867ea2cb7e6160c01b613130565b613e75679578a05470f3782360c01b613130565b613e89671f963d2bd8f82baa60c01b613130565b613e9d67378eb8099eae132360c01b613130565b3073ffffffffffffffffffffffffffffffffffffffff1663b9a43f2e6040518163ffffffff1660e01b8152600401602060405180830381865afa158015613ee8573d6000803e3d6000fd5b505050506040513d601f19601f82011682018060405250810190613f0c9190615820565b823073ffffffffffffffffffffffffffffffffffffffff166346bf289f6040518163ffffffff1660e01b8152600401602060405180830381865afa158015613f58573d6000803e3d6000fd5b505050506040513d601f19601f82011682018060405250810190613f7c9190615820565b613f869190614ecd565b1115613fc7576040517f08c379a0000000000000000000000000000000000000000000000000000000008152600401613fbe90615899565b60405180910390fd5b613fdb67767508d33b55453360c01b613130565b613fef6731c1b626051a3cc160c01b613130565b61400367e2e59cabf2393b5560c01b613130565b60005b828110156141be57614022675f30eb1b2ddfa4c860c01b613130565b61403667f04f27040ed3728f60c01b613130565b6000614040614221565b905061405667b07f4ce4f1e96a6b60c01b613130565b61406a677daec993224dd81060c01b613130565b600081600781111561407f5761407e6150d3565b5b905061409567e21ca176d5de83cf60c01b613130565b6140a967829ebb5cd9f85f6f60c01b613130565b60006140b4826138e2565b90506140ca6760d487b8c354253360c01b613130565b60106000848152602001908152602001600020600081546140ea90615102565b919050819055506141056771b5dc407f5a70a660c01b613130565b6141196770ecdb1d4efb011060c01b613130565b600260009054906101000a900473ffffffffffffffffffffffffffffffffffffffff1673ffffffffffffffffffffffffffffffffffffffff166386ebf0108683856040518463ffffffff1660e01b815260040161417893929190615192565b600060405180830381600087803b15801561419257600080fd5b505af11580156141a6573d6000803e3d6000fd5b50505050505050806141b790615102565b9050614006565b505050565b600033905090565b60008082905060005b845181101561421657614201828683815181106141f4576141f3614ddb565b5b60200260200101516144e4565b9150808061420e90615102565b9150506141d4565b508091505092915050565b60006142376730126ecff71a224360c01b613130565b61424b6719850917dbdf9dfa60c01b613130565b61425f6789f4a3238867bd0660c01b613130565b600061427567a206d4c67641dcab60c01b613130565b6005600081548092919061428890615102565b91905055506142a167c4286d601d1e74e260c01b613130565b6142b56775bf16ea72502ba960c01b613130565b60006001606442336005546040516020016142d2939291906158b9565b6040516020818303038152906040528051906020012060001c6142f59190615925565b6142ff9190614ecd565b905061431567d3e4730dfeba51e260c01b613130565b61432967f0f6a348d7ce530760c01b613130565b600061433f67b5683c2ea96afe5e60c01b613130565b614353672ee67b4ec01c34bc60c01b613130565b6000600660008154811061436a57614369614ddb565b5b9060005260206000200154905061438b67d7674992b2a0057560c01b613130565b61439f67fa1798eeacebb54660c01b613130565b6000600190505b6006805490508110156144b1576143c7675365140fa284ebde60c01b613130565b8192506143de677ece8f4c2114adef60c01b613130565b600681815481106143f2576143f1614ddb565b5b9060005260206000200154826144089190614ecd565b915061441e67e201ff0604d314a860c01b613130565b6144326744e142cc8a6d1ea760c01b613130565b82841180156144415750818411155b1561448a5761445a67f7c28fe7eb3c9def60c01b613130565b61446e67348ec9647c71f94c60c01b613130565b80945061448567e4e99c0dc025c0ea60c01b613130565b6144b1565b61449e675ae2d7188a345f4560c01b613130565b80806144a990615102565b9150506143a6565b506144c667bde1358f276e611b60c01b613130565b6144da67bb8ed20b768a26cf60c01b613130565b8394505050505090565b60008183106144fc576144f7828461450f565b614507565b614506838361450f565b5b905092915050565b600082600052816020526040600020905092915050565b828054828255906000526020600020908101928215614562579160200282015b82811115614561578235825591602001919060010190614546565b5b50905061456f9190614573565b5090565b5b8082111561458c576000816000905550600101614574565b5090565b600081519050919050565b600082825260208201905092915050565b6000819050602082019050919050565b6000819050919050565b6145cf816145bc565b82525050565b60006145e183836145c6565b60208301905092915050565b6000602082019050919050565b600061460582614590565b61460f818561459b565b935061461a836145ac565b8060005b8381101561464b57815161463288826145d5565b975061463d836145ed565b92505060018101905061461e565b5085935050505092915050565b6000602082019050818103600083015261467281846145fa565b905092915050565b600080fd5b600080fd5b61468d816145bc565b811461469857600080fd5b50565b6000813590506146aa81614684565b92915050565b600080fd5b600080fd5b600080fd5b60008083601f8401126146d5576146d46146b0565b5b8235905067ffffffffffffffff8111156146f2576146f16146b5565b5b60208301915083602082028301111561470e5761470d6146ba565b5b9250929050565b6000806000806060858703121561472f5761472e61467a565b5b600061473d8782880161469b565b945050602061474e8782880161469b565b935050604085013567ffffffffffffffff81111561476f5761476e61467f565b5b61477b878288016146bf565b925092505092959194509250565b60006020828403121561479f5761479e61467a565b5b60006147ad8482850161469b565b91505092915050565b6147bf816145bc565b82525050565b60006020820190506147da60008301846147b6565b92915050565b6000819050919050565b6147f3816147e0565b82525050565b600060208201905061480e60008301846147ea565b92915050565b60008115159050919050565b61482981614814565b82525050565b60006020820190506148446000830184614820565b92915050565b614853816147e0565b811461485e57600080fd5b50565b6000813590506148708161484a565b92915050565b60006020828403121561488c5761488b61467a565b5b600061489a84828501614861565b91505092915050565b600073ffffffffffffffffffffffffffffffffffffffff82169050919050565b60006148ce826148a3565b9050919050565b6148de816148c3565b81146148e957600080fd5b50565b6000813590506148fb816148d5565b92915050565b6000602082840312156149175761491661467a565b5b6000614925848285016148ec565b91505092915050565b6000614939826148a3565b9050919050565b6149498161492e565b811461495457600080fd5b50565b60008135905061496681614940565b92915050565b6000602082840312156149825761498161467a565b5b600061499084828501614957565b91505092915050565b6149a2816148c3565b82525050565b60006020820190506149bd6000830184614999565b92915050565b60006149ce826148c3565b9050919050565b6149de816149c3565b81146149e957600080fd5b50565b6000813590506149fb816149d5565b92915050565b60008060408385031215614a1857614a1761467a565b5b6000614a26858286016149ec565b9250506020614a378582860161469b565b9150509250929050565b6000819050919050565b6000614a66614a61614a5c846148a3565b614a41565b6148a3565b9050919050565b6000614a7882614a4b565b9050919050565b6000614a8a82614a6d565b9050919050565b614a9a81614a7f565b82525050565b6000602082019050614ab56000830184614a91565b92915050565b60008083601f840112614ad157614ad06146b0565b5b8235905067ffffffffffffffff811115614aee57614aed6146b5565b5b602083019150836020820283011115614b0a57614b096146ba565b5b9250929050565b60008083601f840112614b2757614b266146b0565b5b8235905067ffffffffffffffff811115614b4457614b436146b5565b5b602083019150836020820283011115614b6057614b5f6146ba565b5b9250929050565b60008060008060408587031215614b8157614b8061467a565b5b600085013567ffffffffffffffff811115614b9f57614b9e61467f565b5b614bab87828801614abb565b9450945050602085013567ffffffffffffffff811115614bce57614bcd61467f565b5b614bda87828801614b11565b925092505092959194509250565b6000614bf3826148c3565b9050919050565b614c0381614be8565b8114614c0e57600080fd5b50565b600081359050614c2081614bfa565b92915050565b600060208284031215614c3c57614c3b61467a565b5b6000614c4a84828501614c11565b91505092915050565b60008083601f840112614c6957614c686146b0565b5b8235905067ffffffffffffffff811115614c8657614c856146b5565b5b602083019150836020820283011115614ca257614ca16146ba565b5b9250929050565b60008060208385031215614cc057614cbf61467a565b5b600083013567ffffffffffffffff811115614cde57614cdd61467f565b5b614cea85828601614c53565b92509250509250929050565b614cff8161492e565b82525050565b6000602082019050614d1a6000830184614cf6565b92915050565b7f4e487b7100000000000000000000000000000000000000000000000000000000600052601160045260246000fd5b6000614d5a826145bc565b9150614d65836145bc565b9250828203905081811115614d7d57614d7c614d20565b5b92915050565b6000614d8e826145bc565b915060008203614da157614da0614d20565b5b600182039050919050565b7f4e487b7100000000000000000000000000000000000000000000000000000000600052604160045260246000fd5b7f4e487b7100000000000000000000000000000000000000000000000000000000600052603260045260246000fd5b600081905092915050565b50565b6000614e25600083614e0a565b9150614e3082614e15565b600082019050919050565b6000614e4682614e18565b9150819050919050565b600082825260208201905092915050565b7f776974686472617720776173206e6f742073756363657366756c6c0000000000600082015250565b6000614e97601b83614e50565b9150614ea282614e61565b602082019050919050565b60006020820190508181036000830152614ec681614e8a565b9050919050565b6000614ed8826145bc565b9150614ee3836145bc565b9250828201905080821115614efb57614efa614d20565b5b92915050565b7f776974686472617720616c6c20776173206e6f742073756363657366756c6c00600082015250565b6000614f37601f83614e50565b9150614f4282614f01565b602082019050919050565b60006020820190508181036000830152614f6681614f2a565b9050919050565b6000604082019050614f826000830185614999565b614f8f60208301846147b6565b9392505050565b614f9f81614814565b8114614faa57600080fd5b50565b600081519050614fbc81614f96565b92915050565b600060208284031215614fd857614fd761467a565b5b6000614fe684828501614fad565b91505092915050565b7f4172726179732073686f756c642068617665207468652073616d652073697a6560008201527f2e00000000000000000000000000000000000000000000000000000000000000602082015250565b600061504b602183614e50565b915061505682614fef565b604082019050919050565b6000602082019050818103600083015261507a8161503e565b9050919050565b6008811061508e57600080fd5b50565b6000813590506150a081615081565b92915050565b6000602082840312156150bc576150bb61467a565b5b60006150ca84828501615091565b91505092915050565b7f4e487b7100000000000000000000000000000000000000000000000000000000600052602160045260246000fd5b600061510d826145bc565b91507fffffffffffffffffffffffffffffffffffffffffffffffffffffffffffffffff820361513f5761513e614d20565b5b600182019050919050565b6008811061515b5761515a6150d3565b5b50565b600081905061516c8261514a565b919050565b600061517c8261515e565b9050919050565b61518c81615171565b82525050565b60006060820190506151a76000830186614999565b6151b460208301856147b6565b6151c16040830184615183565b949350505050565b6000819050919050565b60006151ee6151e96151e4846151c9565b614a41565b6145bc565b9050919050565b6151fe816151d3565b82525050565b600060408201905061521960008301856147b6565b61522660208301846151f5565b9392505050565b600060408201905061524260008301856147b6565b61524f60208301846147b6565b9392505050565b60008160601b9050919050565b600061526e82615256565b9050919050565b600061528082615263565b9050919050565b615298615293826148c3565b615275565b82525050565b600081905092915050565b7f3a00000000000000000000000000000000000000000000000000000000000000600082015250565b60006152df60018361529e565b91506152ea826152a9565b600182019050919050565b6000819050919050565b61531061530b826145bc565b6152f5565b82525050565b60006153228285615287565b601482019150615331826152d2565b915061533d82846152ff565b6020820191508190509392505050565b7f496e76616c69642070726f6f662e000000000000000000000000000000000000600082015250565b6000615383600e83614e50565b915061538e8261534d565b602082019050919050565b600060208201905081810360008301526153b281615376565b9050919050565b7f4d696e74696e67206d6f7265207468616e20616c6c6f7765642e000000000000600082015250565b60006153ef601a83614e50565b91506153fa826153b9565b602082019050919050565b6000602082019050818103600083015261541e816153e2565b9050919050565b6000819050919050565b600061544a61544561544084615425565b614a41565b6145bc565b9050919050565b61545a8161542f565b82525050565b600060408201905061547560008301856147b6565b6154826020830184615451565b9392505050565b7f4f776e61626c653a206e6577206f776e657220697320746865207a65726f206160008201527f6464726573730000000000000000000000000000000000000000000000000000602082015250565b60006154e5602683614e50565b91506154f082615489565b604082019050919050565b60006020820190508181036000830152615514816154d8565b9050919050565b7f436c61696d696e67206d6f7265207468616e20616c6c6f7765642e0000000000600082015250565b6000615551601b83614e50565b915061555c8261551b565b602082019050919050565b6000602082019050818103600083015261558081615544565b9050919050565b7f4f776e61626c653a2063616c6c6572206973206e6f7420746865206f776e6572600082015250565b60006155bd602083614e50565b91506155c882615587565b602082019050919050565b600060208201905081810360008301526155ec816155b0565b9050919050565b7f4c6f63616c20696e646578206f766572666c6f772e0000000000000000000000600082015250565b6000615629601583614e50565b9150615634826155f3565b602082019050919050565b600060208201905081810360008301526156588161561c565b9050919050565b7f52696e6720696e646578206f766572666c6f772e000000000000000000000000600082015250565b6000615695601483614e50565b91506156a08261565f565b602082019050919050565b600060208201905081810360008301526156c481615688565b9050919050565b7f5265656e7472616e637947756172643a207265656e7472616e742063616c6c00600082015250565b6000615701601f83614e50565b915061570c826156cb565b602082019050919050565b60006020820190508181036000830152615730816156f4565b9050919050565b6000615742826145bc565b915061574d836145bc565b925082820261575b816145bc565b9150828204841483151761577257615771614d20565b5b5092915050565b7f45746865722076616c75652073656e74206973206e6f7420616363757261746560008201527f2e00000000000000000000000000000000000000000000000000000000000000602082015250565b60006157d5602183614e50565b91506157e082615779565b604082019050919050565b60006020820190508181036000830152615804816157c8565b9050919050565b60008151905061581a81614684565b92915050565b6000602082840312156158365761583561467a565b5b60006158448482850161580b565b91505092915050565b7f547279696e6720746f206d696e7420746f6f206d616e792072696e67732e0000600082015250565b6000615883601e83614e50565b915061588e8261584d565b602082019050919050565b600060208201905081810360008301526158b281615876565b9050919050565b60006158c582866152ff565b6020820191506158d58285615287565b6014820191506158e582846152ff565b602082019150819050949350505050565b7f4e487b7100000000000000000000000000000000000000000000000000000000600052601260045260246000fd5b6000615930826145bc565b915061593b836145bc565b92508261594b5761594a6158f6565b5b82820690509291505056fea264697066735822122017509aff4592d11508a3edd5d6046bf716093652f34c0de68988a8a660ac22e964736f6c63430008120033",
  "linkReferences": {},
  "deployedLinkReferences": {}
}