{
  "_format": "hh-sol-artifact-1",
  "contractName": "FundersRingMinter",
  "sourceName": "contracts/FundersRingMinter.sol",
  "abi": [
    {
      "inputs": [
        {
          "internalType": "contract IFundersRing",
          "name": "_fundersRing",
          "type": "address"
        }
      ],
      "stateMutability": "nonpayable",
      "type": "constructor"
    },
    {
      "inputs": [],
      "name": "Address0Error",
      "type": "error"
    },
    {
      "inputs": [],
      "name": "DeniedProcessDuringMinting",
      "type": "error"
    },
    {
      "inputs": [
        {
          "internalType": "uint256",
          "name": "sended_values",
          "type": "uint256"
        },
        {
          "internalType": "uint256",
          "name": "expected",
          "type": "uint256"
        }
      ],
      "name": "GivenValuesNotValid",
      "type": "error"
    },
    {
      "inputs": [],
      "name": "IncorrectPurchaseLimit",
      "type": "error"
    },
    {
      "inputs": [],
      "name": "MisconfiguredPrices",
      "type": "error"
    },
    {
      "inputs": [
        {
          "internalType": "uint256",
          "name": "correct_date",
          "type": "uint256"
        },
        {
          "internalType": "uint256",
          "name": "current_date",
          "type": "uint256"
        }
      ],
      "name": "WrongDateForProcess",
      "type": "error"
    },
    {
      "anonymous": false,
      "inputs": [
        {
          "indexed": true,
          "internalType": "address",
          "name": "previousOwner",
          "type": "address"
        },
        {
          "indexed": true,
          "internalType": "address",
          "name": "newOwner",
          "type": "address"
        }
      ],
      "name": "OwnershipTransferred",
      "type": "event"
    },
    {
      "inputs": [],
      "name": "claimlistMerkleRoot",
      "outputs": [
        {
          "internalType": "bytes32",
          "name": "",
          "type": "bytes32"
        }
      ],
      "stateMutability": "view",
      "type": "function"
    },
    {
      "inputs": [
        {
          "internalType": "enum IFundersRing.FundersRingType",
          "name": "ringType",
          "type": "uint8"
        },
        {
          "internalType": "uint256",
          "name": "numRings",
          "type": "uint256"
        },
        {
          "internalType": "uint256",
          "name": "claimedMaxRings",
          "type": "uint256"
        },
        {
          "internalType": "bytes32[]",
          "name": "_merkleProof",
          "type": "bytes32[]"
        }
      ],
      "name": "claimlistMint",
      "outputs": [],
      "stateMutability": "payable",
      "type": "function"
    },
    {
      "inputs": [
        {
          "internalType": "address",
          "name": "",
          "type": "address"
        },
        {
          "internalType": "uint256",
          "name": "",
          "type": "uint256"
        }
      ],
      "name": "claimlistMintedPerType",
      "outputs": [
        {
          "internalType": "uint256",
          "name": "",
          "type": "uint256"
        }
      ],
      "stateMutability": "view",
      "type": "function"
    },
    {
      "inputs": [],
      "name": "claimsStartTime",
      "outputs": [
        {
          "internalType": "uint256",
          "name": "",
          "type": "uint256"
        }
      ],
      "stateMutability": "view",
      "type": "function"
    },
    {
      "inputs": [],
      "name": "claimsStarted",
      "outputs": [
        {
          "internalType": "bool",
          "name": "",
          "type": "bool"
        }
      ],
      "stateMutability": "view",
      "type": "function"
    },
    {
      "inputs": [
        {
          "internalType": "contract IERC20",
          "name": "_token",
          "type": "address"
        },
        {
          "internalType": "uint256",
          "name": "_amount",
          "type": "uint256"
        }
      ],
      "name": "forwardERC20s",
      "outputs": [],
      "stateMutability": "nonpayable",
      "type": "function"
    },
    {
      "inputs": [],
      "name": "fundersRing",
      "outputs": [
        {
          "internalType": "contract IFundersRing",
          "name": "",
          "type": "address"
        }
      ],
      "stateMutability": "view",
      "type": "function"
    },
    {
      "inputs": [],
      "name": "generateRing",
      "outputs": [
        {
          "internalType": "uint256",
          "name": "",
          "type": "uint256"
        }
      ],
      "stateMutability": "view",
      "type": "function"
    },
    {
      "inputs": [],
      "name": "getAvailableRings",
      "outputs": [
        {
          "internalType": "uint256",
          "name": "",
          "type": "uint256"
        }
      ],
      "stateMutability": "view",
      "type": "function"
    },
    {
      "inputs": [],
      "name": "getRingPrice",
      "outputs": [
        {
          "internalType": "uint256",
          "name": "",
          "type": "uint256"
        }
      ],
      "stateMutability": "view",
      "type": "function"
    },
    {
      "inputs": [],
      "name": "getRingsAvailable",
      "outputs": [
        {
          "internalType": "uint256",
          "name": "",
          "type": "uint256"
        }
      ],
      "stateMutability": "view",
      "type": "function"
    },
    {
      "inputs": [
        {
          "internalType": "uint256",
          "name": "tokenId",
          "type": "uint256"
        }
      ],
      "name": "getTokenIdRingType",
      "outputs": [
        {
          "internalType": "uint256",
          "name": "",
          "type": "uint256"
        }
      ],
      "stateMutability": "pure",
      "type": "function"
    },
    {
      "inputs": [],
      "name": "getTotalMintedRings",
      "outputs": [
        {
          "internalType": "uint256",
          "name": "",
          "type": "uint256"
        }
      ],
      "stateMutability": "view",
      "type": "function"
    },
    {
      "inputs": [],
      "name": "getTotalMintedRingsByType",
      "outputs": [
        {
          "internalType": "uint256[]",
          "name": "",
          "type": "uint256[]"
        }
      ],
      "stateMutability": "view",
      "type": "function"
    },
    {
      "inputs": [
        {
          "internalType": "enum IFundersRing.FundersRingType",
          "name": "ringType",
          "type": "uint8"
        },
        {
          "internalType": "uint256",
          "name": "numRings",
          "type": "uint256"
        }
      ],
      "name": "mint",
      "outputs": [],
      "stateMutability": "payable",
      "type": "function"
    },
    {
      "inputs": [],
      "name": "mintlistMerkleRoot1",
      "outputs": [
        {
          "internalType": "bytes32",
          "name": "",
          "type": "bytes32"
        }
      ],
      "stateMutability": "view",
      "type": "function"
    },
    {
      "inputs": [],
      "name": "mintlistMerkleRoot2",
      "outputs": [
        {
          "internalType": "bytes32",
          "name": "",
          "type": "bytes32"
        }
      ],
      "stateMutability": "view",
      "type": "function"
    },
    {
      "inputs": [
        {
          "internalType": "enum IFundersRing.FundersRingType",
          "name": "ringType",
          "type": "uint8"
        },
        {
          "internalType": "uint256",
          "name": "numRings",
          "type": "uint256"
        },
        {
          "internalType": "uint256",
          "name": "claimedMaxRings",
          "type": "uint256"
        },
        {
          "internalType": "bytes32[]",
          "name": "_merkleProof",
          "type": "bytes32[]"
        }
      ],
      "name": "mintlistMint",
      "outputs": [],
      "stateMutability": "payable",
      "type": "function"
    },
    {
      "inputs": [
        {
          "internalType": "address",
          "name": "",
          "type": "address"
        },
        {
          "internalType": "uint256",
          "name": "",
          "type": "uint256"
        }
      ],
      "name": "mintlistMintedPerType",
      "outputs": [
        {
          "internalType": "uint256",
          "name": "",
          "type": "uint256"
        }
      ],
      "stateMutability": "view",
      "type": "function"
    },
    {
      "inputs": [],
      "name": "mintlistStartTime",
      "outputs": [
        {
          "internalType": "uint256",
          "name": "",
          "type": "uint256"
        }
      ],
      "stateMutability": "view",
      "type": "function"
    },
    {
      "inputs": [],
      "name": "mintlistStarted",
      "outputs": [
        {
          "internalType": "bool",
          "name": "",
          "type": "bool"
        }
      ],
      "stateMutability": "view",
      "type": "function"
    },
    {
      "inputs": [
        {
          "internalType": "address",
          "name": "_who",
          "type": "address"
        },
        {
          "internalType": "bytes32",
          "name": "_leaf",
          "type": "bytes32"
        },
        {
          "internalType": "bytes32[]",
          "name": "_merkleProof",
          "type": "bytes32[]"
        }
      ],
      "name": "mintlisted",
      "outputs": [
        {
          "internalType": "bool",
          "name": "",
          "type": "bool"
        }
      ],
      "stateMutability": "view",
      "type": "function"
    },
    {
      "inputs": [],
      "name": "owner",
      "outputs": [
        {
          "internalType": "address",
          "name": "",
          "type": "address"
        }
      ],
      "stateMutability": "view",
      "type": "function"
    },
    {
      "inputs": [
        {
          "internalType": "enum IFundersRing.FundersRingType[]",
          "name": "ringTypes",
          "type": "uint8[]"
        },
        {
          "internalType": "address[]",
          "name": "recipients",
          "type": "address[]"
        }
      ],
      "name": "ownerMint",
      "outputs": [],
      "stateMutability": "nonpayable",
      "type": "function"
    },
    {
      "inputs": [],
      "name": "publicMintStartTime",
      "outputs": [
        {
          "internalType": "uint256",
          "name": "",
          "type": "uint256"
        }
      ],
      "stateMutability": "view",
      "type": "function"
    },
    {
      "inputs": [],
      "name": "publicStarted",
      "outputs": [
        {
          "internalType": "bool",
          "name": "",
          "type": "bool"
        }
      ],
      "stateMutability": "view",
      "type": "function"
    },
    {
      "inputs": [],
      "name": "renounceOwnership",
      "outputs": [],
      "stateMutability": "nonpayable",
      "type": "function"
    },
    {
      "inputs": [],
      "name": "ringGlobalOffset",
      "outputs": [
        {
          "internalType": "uint256",
          "name": "",
          "type": "uint256"
        }
      ],
      "stateMutability": "view",
      "type": "function"
    },
    {
      "inputs": [],
      "name": "ringPrice",
      "outputs": [
        {
          "internalType": "uint256",
          "name": "",
          "type": "uint256"
        }
      ],
      "stateMutability": "view",
      "type": "function"
    },
    {
      "inputs": [
        {
          "internalType": "uint256",
          "name": "",
          "type": "uint256"
        }
      ],
      "name": "ringTypeLocalOffset",
      "outputs": [
        {
          "internalType": "uint256",
          "name": "",
          "type": "uint256"
        }
      ],
      "stateMutability": "view",
      "type": "function"
    },
    {
      "inputs": [
        {
          "internalType": "uint256",
          "name": "",
          "type": "uint256"
        }
      ],
      "name": "ringsMinted",
      "outputs": [
        {
          "internalType": "uint256",
          "name": "",
          "type": "uint256"
        }
      ],
      "stateMutability": "view",
      "type": "function"
    },
    {
      "inputs": [
        {
          "internalType": "bytes32",
          "name": "newMerkleRoot",
          "type": "bytes32"
        }
      ],
      "name": "setClaimlistMerkleRoot",
      "outputs": [],
      "stateMutability": "nonpayable",
      "type": "function"
    },
    {
      "inputs": [
        {
          "internalType": "uint256",
          "name": "_newClaimsStartTime",
          "type": "uint256"
        }
      ],
      "name": "setClaimsStartTime",
      "outputs": [],
      "stateMutability": "nonpayable",
      "type": "function"
    },
    {
      "inputs": [
        {
          "internalType": "contract IFundersRing",
          "name": "_newFundersRingAddress",
          "type": "address"
        }
      ],
      "name": "setFundersRing",
      "outputs": [],
      "stateMutability": "nonpayable",
      "type": "function"
    },
    {
      "inputs": [
        {
          "internalType": "uint256",
          "name": "_newGlobalIdOffset",
          "type": "uint256"
        }
      ],
      "name": "setGlobalIdOffset",
      "outputs": [],
      "stateMutability": "nonpayable",
      "type": "function"
    },
    {
      "inputs": [
        {
          "internalType": "uint256[]",
          "name": "_newRingTypeLocalOffset",
          "type": "uint256[]"
        }
      ],
      "name": "setLocalIdOffsets",
      "outputs": [],
      "stateMutability": "nonpayable",
      "type": "function"
    },
    {
      "inputs": [
        {
          "internalType": "bytes32",
          "name": "newMerkleRoot",
          "type": "bytes32"
        }
      ],
      "name": "setMintlistMerkleRoot1",
      "outputs": [],
      "stateMutability": "nonpayable",
      "type": "function"
    },
    {
      "inputs": [
        {
          "internalType": "bytes32",
          "name": "newMerkleRoot",
          "type": "bytes32"
        }
      ],
      "name": "setMintlistMerkleRoot2",
      "outputs": [],
      "stateMutability": "nonpayable",
      "type": "function"
    },
    {
      "inputs": [
        {
          "internalType": "uint256",
          "name": "_newAllowlistMintStartTime",
          "type": "uint256"
        }
      ],
      "name": "setMintlistStartTime",
      "outputs": [],
      "stateMutability": "nonpayable",
      "type": "function"
    },
    {
      "inputs": [
        {
          "internalType": "uint256",
          "name": "_newPrice",
          "type": "uint256"
        }
      ],
      "name": "setPrice",
      "outputs": [],
      "stateMutability": "nonpayable",
      "type": "function"
    },
    {
      "inputs": [
        {
          "internalType": "uint256",
          "name": "_newPublicMintStartTime",
          "type": "uint256"
        }
      ],
      "name": "setPublicMintStartTime",
      "outputs": [],
      "stateMutability": "nonpayable",
      "type": "function"
    },
    {
      "inputs": [
        {
          "internalType": "uint256",
          "name": "_newRingsAvailable",
          "type": "uint256"
        }
      ],
      "name": "setRingsAvailable",
      "outputs": [],
      "stateMutability": "nonpayable",
      "type": "function"
    },
    {
      "inputs": [
        {
          "internalType": "address payable",
          "name": "_newVaultAddress",
          "type": "address"
        }
      ],
      "name": "setVaultAddress",
      "outputs": [],
      "stateMutability": "nonpayable",
      "type": "function"
    },
    {
      "inputs": [
        {
          "internalType": "address",
          "name": "newOwner",
          "type": "address"
        }
      ],
      "name": "transferOwnership",
      "outputs": [],
      "stateMutability": "nonpayable",
      "type": "function"
    },
    {
      "inputs": [],
      "name": "vault",
      "outputs": [
        {
          "internalType": "address payable",
          "name": "",
          "type": "address"
        }
      ],
      "stateMutability": "view",
      "type": "function"
    },
    {
      "inputs": [
        {
          "internalType": "uint256",
          "name": "_amount",
          "type": "uint256"
        }
      ],
      "name": "withdraw",
      "outputs": [],
      "stateMutability": "nonpayable",
      "type": "function"
    },
    {
      "inputs": [],
      "name": "withdrawAll",
      "outputs": [],
      "stateMutability": "nonpayable",
      "type": "function"
    }
  ],
  "bytecode": "0x6080604052612710600455604051806101000160405280600e60ff168152602001600e60ff168152602001600e60ff168152602001600e60ff168152602001600e60ff168152602001600e60ff168152602001600e60ff168152602001600260ff168152506005906008620000769291906200042a565b50604051806101000160405280600160ff168152602001600160ff168152602001600160ff168152602001600160ff168152602001600160ff168152602001600160ff168152602001600160ff168152602001600160ff168152506006906008620000e39291906200042a565b5060016007557fffffffffffffffffffffffffffffffffffffffffffffffffffffffffffffffff6008557fffffffffffffffffffffffffffffffffffffffffffffffffffffffffffffffff6009557fffffffffffffffffffffffffffffffffffffffffffffffffffffffffffffffff600a557fffffffffffffffffffffffffffffffffffffffffffffffffffffffffffffffff600b553480156200018657600080fd5b5060405162003f3d38038062003f3d8339818101604052810190620001ac91906200051e565b620001cc620001c0620001fc60201b60201c565b6200020460201b60201c565b60018081905550620001e481620002c860201b60201c565b620001f5336200031c60201b60201c565b50620005d3565b600033905090565b60008060009054906101000a900473ffffffffffffffffffffffffffffffffffffffff169050816000806101000a81548173ffffffffffffffffffffffffffffffffffffffff021916908373ffffffffffffffffffffffffffffffffffffffff1602179055508173ffffffffffffffffffffffffffffffffffffffff168173ffffffffffffffffffffffffffffffffffffffff167f8be0079c531659141344cd1fd0a4f28419497f9722a3daafe3b4186f6b6457e060405160405180910390a35050565b620002d86200037060201b60201c565b80600260006101000a81548173ffffffffffffffffffffffffffffffffffffffff021916908373ffffffffffffffffffffffffffffffffffffffff16021790555050565b6200032c6200037060201b60201c565b80600360006101000a81548173ffffffffffffffffffffffffffffffffffffffff021916908373ffffffffffffffffffffffffffffffffffffffff16021790555050565b62000380620001fc60201b60201c565b73ffffffffffffffffffffffffffffffffffffffff16620003a66200040160201b60201c565b73ffffffffffffffffffffffffffffffffffffffff1614620003ff576040517f08c379a0000000000000000000000000000000000000000000000000000000008152600401620003f690620005b1565b60405180910390fd5b565b60008060009054906101000a900473ffffffffffffffffffffffffffffffffffffffff16905090565b8280548282559060005260206000209081019282156200046e579160200282015b828111156200046d578251829060ff169055916020019190600101906200044b565b5b5090506200047d919062000481565b5090565b5b808211156200049c57600081600090555060010162000482565b5090565b600080fd5b600073ffffffffffffffffffffffffffffffffffffffff82169050919050565b6000620004d282620004a5565b9050919050565b6000620004e682620004c5565b9050919050565b620004f881620004d9565b81146200050457600080fd5b50565b6000815190506200051881620004ed565b92915050565b600060208284031215620005375762000536620004a0565b5b6000620005478482850162000507565b91505092915050565b600082825260208201905092915050565b7f4f776e61626c653a2063616c6c6572206973206e6f7420746865206f776e6572600082015250565b60006200059960208362000550565b9150620005a68262000561565b602082019050919050565b60006020820190508181036000830152620005cc816200058a565b9050919050565b61395a80620005e36000396000f3fe6080604052600436106102885760003560e01c8063853828b61161015a578063a0e52f89116100c1578063cef582831161007a578063cef582831461097a578063d3cf00a3146109a3578063f26748e2146109ce578063f2fde38b146109ea578063f4cde4c014610a13578063fbfa77cf14610a3e57610288565b8063a0e52f8914610880578063a637f973146108ab578063ae6b6dae146108d4578063b9a43f2e146108fd578063c2774dac14610928578063cc644fd21461095157610288565b806391b7f5ed1161011357806391b7f5ed1461077257806393cb41471461079b57806396c9f88b146107c65780639727151a146108035780639b68a6ef1461082c5780639f0664b51461085757610288565b8063853828b61461068657806385535cc51461069d5780638c6d8ef6146106c65780638d56a17b146106f15780638da5cb5b1461071c5780638ee269b41461074757610288565b80633e97414f116101fe5780635242a493116101b75780635242a493146105785780635fcd80a6146105a35780636e1a1a60146105cc578063715018a6146105f5578063772d3be01461060c578063792a77d91461064957610288565b80633e97414f14610487578063411d13f7146104b257806346bf289f146104db57806348fae23b146105065780634e054c39146105315780634ed1eb241461054d57610288565b8063260c088611610250578063260c0886146103745780632701b3251461039d578063294548a4146103da5780632ce82a71146104175780632e1a7d4d1461044257806333a5a99f1461046b57610288565b8063158ae2981461028d5780631af3ba81146102ca5780631c7f4a02146102f5578063205ed382146103205780632560e37614610349575b600080fd5b34801561029957600080fd5b506102b460048036038101906102af919061256b565b610a69565b6040516102c191906125a7565b60405180910390f35b3480156102d657600080fd5b506102df610a81565b6040516102ec91906125a7565b60405180910390f35b34801561030157600080fd5b5061030a610a87565b60405161031791906125db565b60405180910390f35b34801561032c57600080fd5b506103476004803603810190610342919061256b565b610a8d565b005b34801561035557600080fd5b5061035e610ade565b60405161036b91906125db565b60405180910390f35b34801561038057600080fd5b5061039b6004803603810190610396919061256b565b610ae4565b005b3480156103a957600080fd5b506103c460048036038101906103bf919061256b565b610af6565b6040516103d191906125a7565b60405180910390f35b3480156103e657600080fd5b5061040160048036038101906103fc9190612654565b610b03565b60405161040e91906125a7565b60405180910390f35b34801561042357600080fd5b5061042c610b28565b6040516104399190612752565b60405180910390f35b34801561044e57600080fd5b506104696004803603810190610464919061256b565b610d26565b005b610485600480360381019061048091906127fe565b610e00565b005b34801561049357600080fd5b5061049c61102f565b6040516104a991906128a1565b60405180910390f35b3480156104be57600080fd5b506104d960048036038101906104d491906128e8565b61103c565b005b3480156104e757600080fd5b506104f061104e565b6040516104fd91906125a7565b60405180910390f35b34801561051257600080fd5b5061051b611147565b60405161052891906125a7565b60405180910390f35b61054b600480360381019061054691906127fe565b611228565b005b34801561055957600080fd5b506105626114f4565b60405161056f91906125db565b60405180910390f35b34801561058457600080fd5b5061058d6114fa565b60405161059a91906125a7565b60405180910390f35b3480156105af57600080fd5b506105ca60048036038101906105c5919061256b565b611500565b005b3480156105d857600080fd5b506105f360048036038101906105ee919061256b565b611512565b005b34801561060157600080fd5b5061060a611524565b005b34801561061857600080fd5b50610633600480360381019061062e9190612654565b611538565b60405161064091906125a7565b60405180910390f35b34801561065557600080fd5b50610670600480360381019061066b9190612915565b61155d565b60405161067d91906128a1565b60405180910390f35b34801561069257600080fd5b5061069b61165a565b005b3480156106a957600080fd5b506106c460048036038101906106bf91906129c7565b611733565b005b3480156106d257600080fd5b506106db61177f565b6040516106e891906128a1565b60405180910390f35b3480156106fd57600080fd5b5061070661178c565b60405161071391906125a7565b60405180910390f35b34801561072857600080fd5b50610731611792565b60405161073e9190612a03565b60405180910390f35b34801561075357600080fd5b5061075c6117bb565b60405161076991906125a7565b60405180910390f35b34801561077e57600080fd5b506107996004803603810190610794919061256b565b6117c5565b005b3480156107a757600080fd5b506107b0611816565b6040516107bd91906128a1565b60405180910390f35b3480156107d257600080fd5b506107ed60048036038101906107e8919061256b565b611823565b6040516107fa91906125a7565b60405180910390f35b34801561080f57600080fd5b5061082a60048036038101906108259190612a5c565b611847565b005b34801561083857600080fd5b50610841611938565b60405161084e9190612afb565b60405180910390f35b34801561086357600080fd5b5061087e60048036038101906108799190612bc2565b61195e565b005b34801561088c57600080fd5b50610895611a2e565b6040516108a291906125a7565b60405180910390f35b3480156108b757600080fd5b506108d260048036038101906108cd919061256b565b611a38565b005b3480156108e057600080fd5b506108fb60048036038101906108f69190612c81565b611a89565b005b34801561090957600080fd5b50610912611ad5565b60405161091f91906125a7565b60405180910390f35b34801561093457600080fd5b5061094f600480360381019061094a91906128e8565b611bf3565b005b34801561095d57600080fd5b5061097860048036038101906109739190612d04565b611c05565b005b34801561098657600080fd5b506109a1600480360381019061099c91906128e8565b611cb0565b005b3480156109af57600080fd5b506109b8611cc2565b6040516109c591906125a7565b60405180910390f35b6109e860048036038101906109e39190612d51565b611cc8565b005b3480156109f657600080fd5b50610a116004803603810190610a0c9190612d91565b611d7c565b005b348015610a1f57600080fd5b50610a28611dff565b604051610a3591906125a7565b60405180910390f35b348015610a4a57600080fd5b50610a53611e05565b604051610a609190612dcd565b60405180910390f35b600f6020528060005260406000206000915090505481565b60085481565b600d5481565b610a95611e2b565b610a9d611816565b15610ad4576040517ff2a84b6300000000000000000000000000000000000000000000000000000000815260040160405180910390fd5b8060048190555050565b600e5481565b610aec611e2b565b80600b8190555050565b600060ff82169050919050565b6011602052816000526040600020602052806000526040600020600091509150505481565b60606000600867ffffffffffffffff811115610b4757610b46612de8565b5b604051908082528060200260200182016040528015610b755781602001602082028036833780820191505090505b509050600f60008081526020019081526020016000205481600081518110610ba057610b9f612e17565b5b602002602001018181525050600f6000600181526020019081526020016000205481600181518110610bd557610bd4612e17565b5b602002602001018181525050600f6000600281526020019081526020016000205481600281518110610c0a57610c09612e17565b5b602002602001018181525050600f6000600381526020019081526020016000205481600381518110610c3f57610c3e612e17565b5b602002602001018181525050600f6000600481526020019081526020016000205481600481518110610c7457610c73612e17565b5b602002602001018181525050600f6000600581526020019081526020016000205481600581518110610ca957610ca8612e17565b5b602002602001018181525050600f6000600681526020019081526020016000205481600681518110610cde57610cdd612e17565b5b602002602001018181525050600f6000600781526020019081526020016000205481600781518110610d1357610d12612e17565b5b6020026020010181815250508091505090565b610d2e611e2b565b6000600360009054906101000a900473ffffffffffffffffffffffffffffffffffffffff1673ffffffffffffffffffffffffffffffffffffffff1682604051610d7690612e77565b60006040518083038185875af1925050503d8060008114610db3576040519150601f19603f3d011682016040523d82523d6000602084013e610db8565b606091505b5050905080610dfc576040517f08c379a0000000000000000000000000000000000000000000000000000000008152600401610df390612ee9565b60405180910390fd5b5050565b610e08611ea9565b610e1061102f565b610e5557600b54426040517f66803fc1000000000000000000000000000000000000000000000000000000008152600401610e4c929190612f09565b60405180910390fd5b600033866007811115610e6b57610e6a612f32565b5b85604051602001610e7e93929190613021565b604051602081830303815290604052805190602001209050610ee4838380806020026020016040519081016040528093929190818152602001838360200280828437600081840152601f19601f82011690508083019250505050505050600e5483611ef8565b610f23576040517f08c379a0000000000000000000000000000000000000000000000000000000008152600401610f1a906130c0565b60405180910390fd5b6000601160003373ffffffffffffffffffffffffffffffffffffffff1673ffffffffffffffffffffffffffffffffffffffff168152602001908152602001600020905084868260008a6007811115610f7e57610f7d612f32565b5b815260200190815260200160002054610f97919061310f565b1115610fd8576040517f08c379a0000000000000000000000000000000000000000000000000000000008152600401610fcf9061318f565b60405180910390fd5b85816000896007811115610fef57610fee612f32565b5b8152602001908152602001600020600082825461100c919061310f565b9250508190555061101e878733611f0f565b505061102861207e565b5050505050565b6000600b54421015905090565b611044611e2b565b80600e8190555050565b600080600f60006007815260200190815260200160002054600f60006006815260200190815260200160002054600f60006005815260200190815260200160002054600f60006004815260200190815260200160002054600f60006003815260200190815260200160002054600f60006002815260200190815260200160002054600f60006001815260200190815260200160002054600f600080815260200190815260200160002054611102919061310f565b61110c919061310f565b611116919061310f565b611120919061310f565b61112a919061310f565b611134919061310f565b61113e919061310f565b90508091505090565b6000806000606460014361115b91906131af565b4060001c6111699190613212565b9050600181611178919061310f565b9050600080600560008154811061119257611191612e17565b5b906000526020600020015490508083116111ab57600093505b6000600190505b60058054905081101561121d57819250600581815481106111d6576111d5612e17565b5b9060005260206000200154826111ec919061310f565b915082841180156111fd5750818411155b1561120a5780945061121d565b808061121590613243565b9150506111b2565b508394505050505090565b611230611ea9565b611238611816565b61127d57600a54426040517f66803fc1000000000000000000000000000000000000000000000000000000008152600401611274929190612f09565b60405180910390fd5b6000841115801561128e5750601484115b156112c5576040517fca02d6eb00000000000000000000000000000000000000000000000000000000815260040160405180910390fd5b6000338660078111156112db576112da612f32565b5b856040516020016112ee93929190613021565b604051602081830303815290604052805190602001209050611354838380806020026020016040519081016040528093929190818152602001838360200280828437600081840152601f19601f82011690508083019250505050505050600c5483611ef8565b806113a957506113a8838380806020026020016040519081016040528093929190818152602001838360200280828437600081840152601f19601f82011690508083019250505050505050600d5483611ef8565b5b6113e8576040517f08c379a00000000000000000000000000000000000000000000000000000000081526004016113df906130c0565b60405180910390fd5b6000601060003373ffffffffffffffffffffffffffffffffffffffff1673ffffffffffffffffffffffffffffffffffffffff168152602001908152602001600020905084868260008a600781111561144357611442612f32565b5b81526020019081526020016000205461145c919061310f565b111561149d576040517f08c379a0000000000000000000000000000000000000000000000000000000008152600401611494906132d7565b60405180910390fd5b858160008960078111156114b4576114b3612f32565b5b815260200190815260200160002060008282546114d1919061310f565b925050819055506114e3878733612087565b50506114ed61207e565b5050505050565b600c5481565b60075481565b611508611e2b565b8060098190555050565b61151a611e2b565b80600a8190555050565b61152c611e2b565b6115366000612122565b565b6010602052816000526040600020602052806000526040600020600091509150505481565b6000808560405160200161157191906132f7565b60405160208183030381529060405280519060200120905084811461159a576000915050611652565b6115e8848480806020026020016040519081016040528093929190818152602001838360200280828437600081840152601f19601f82011690508083019250505050505050600c5487611ef8565b8061163d575061163c848480806020026020016040519081016040528093929190818152602001838360200280828437600081840152601f19601f82011690508083019250505050505050600d5487611ef8565b5b1561164c576001915050611652565b60009150505b949350505050565b611662611e2b565b6000600360009054906101000a900473ffffffffffffffffffffffffffffffffffffffff1673ffffffffffffffffffffffffffffffffffffffff16476040516116aa90612e77565b60006040518083038185875af1925050503d80600081146116e7576040519150601f19603f3d011682016040523d82523d6000602084013e6116ec565b606091505b5050905080611730576040517f08c379a00000000000000000000000000000000000000000000000000000000081526004016117279061335e565b60405180910390fd5b50565b61173b611e2b565b80600360006101000a81548173ffffffffffffffffffffffffffffffffffffffff021916908373ffffffffffffffffffffffffffffffffffffffff16021790555050565b6000600954421015905090565b600b5481565b60008060009054906101000a900473ffffffffffffffffffffffffffffffffffffffff16905090565b6000600454905090565b6117cd611e2b565b6117d5611816565b1561180c576040517ff2a84b6300000000000000000000000000000000000000000000000000000000815260040160405180910390fd5b8060088190555050565b6000600a54421015905090565b6006818154811061183357600080fd5b906000526020600020016000915090505481565b61184f611e2b565b600073ffffffffffffffffffffffffffffffffffffffff163373ffffffffffffffffffffffffffffffffffffffff16036118b5576040517f48ac165200000000000000000000000000000000000000000000000000000000815260040160405180910390fd5b8173ffffffffffffffffffffffffffffffffffffffff1663a9059cbb33836040518363ffffffff1660e01b81526004016118f092919061337e565b6020604051808303816000875af115801561190f573d6000803e3d6000fd5b505050506040513d601f19601f8201168201806040525081019061193391906133d3565b505050565b600260009054906101000a900473ffffffffffffffffffffffffffffffffffffffff1681565b611966611e2b565b8181905084849050146119ae576040517f08c379a00000000000000000000000000000000000000000000000000000000081526004016119a590613472565b60405180910390fd5b60005b82829050811015611a2757611a168585838181106119d2576119d1612e17565b5b90506020020160208101906119e79190613492565b60018585858181106119fc576119fb612e17565b5b9050602002016020810190611a119190612d91565b611f0f565b80611a2090613243565b90506119b1565b5050505050565b6000600854905090565b611a40611e2b565b611a48611816565b15611a7f576040517ff2a84b6300000000000000000000000000000000000000000000000000000000815260040160405180910390fd5b8060078190555050565b611a91611e2b565b80600260006101000a81548173ffffffffffffffffffffffffffffffffffffffff021916908373ffffffffffffffffffffffffffffffffffffffff16021790555050565b6000806004549050600f60008081526020019081526020016000205481611afc91906131af565b9050600f6000600181526020019081526020016000205481611b1e91906131af565b9050600f6000600281526020019081526020016000205481611b4091906131af565b9050600f6000600381526020019081526020016000205481611b6291906131af565b9050600f6000600481526020019081526020016000205481611b8491906131af565b9050600f6000600581526020019081526020016000205481611ba691906131af565b9050600f6000600681526020019081526020016000205481611bc891906131af565b9050600f6000600781526020019081526020016000205481611bea91906131af565b90508091505090565b611bfb611e2b565b80600d8190555050565b611c0d611e2b565b60088282905014611c5b578181905060086040517f485d33a2000000000000000000000000000000000000000000000000000000008152600401611c529291906134fa565b60405180910390fd5b611c63611816565b15611c9a576040517ff2a84b6300000000000000000000000000000000000000000000000000000000815260040160405180910390fd5b818160069190611cab9291906124c1565b505050565b611cb8611e2b565b80600c8190555050565b60095481565b611cd0611ea9565b611cd861177f565b611d1d57600954426040517f66803fc1000000000000000000000000000000000000000000000000000000008152600401611d14929190612f09565b60405180910390fd5b60008111158015611d2e5750601481115b15611d65576040517fca02d6eb00000000000000000000000000000000000000000000000000000000815260040160405180910390fd5b611d70828233612087565b611d7861207e565b5050565b611d84611e2b565b600073ffffffffffffffffffffffffffffffffffffffff168173ffffffffffffffffffffffffffffffffffffffff1603611df3576040517f08c379a0000000000000000000000000000000000000000000000000000000008152600401611dea90613595565b60405180910390fd5b611dfc81612122565b50565b600a5481565b600360009054906101000a900473ffffffffffffffffffffffffffffffffffffffff1681565b611e336121e6565b73ffffffffffffffffffffffffffffffffffffffff16611e51611792565b73ffffffffffffffffffffffffffffffffffffffff1614611ea7576040517f08c379a0000000000000000000000000000000000000000000000000000000008152600401611e9e90613601565b60405180910390fd5b565b600260015403611eee576040517f08c379a0000000000000000000000000000000000000000000000000000000008152600401611ee59061366d565b60405180910390fd5b6002600181905550565b600082611f0585846121ee565b1490509392505050565b60045482600f6000866007811115611f2a57611f29612f32565b5b815260200190815260200160002054611f43919061310f565b1115611f84576040517f08c379a0000000000000000000000000000000000000000000000000000000008152600401611f7b906136d9565b60405180910390fd5b60005b82811015612078576000611f9a85612244565b9050600f6000866007811115611fb357611fb2612f32565b5b815260200190815260200160002060008154611fce90613243565b91905081905550600260009054906101000a900473ffffffffffffffffffffffffffffffffffffffff1673ffffffffffffffffffffffffffffffffffffffff166386ebf0108483886040518463ffffffff1660e01b815260040161203493929190613741565b600060405180830381600087803b15801561204e57600080fd5b505af1158015612062573d6000803e3d6000fd5b50505050508061207190613243565b9050611f87565b50505050565b60018081905550565b6000600854116120c3576040517fc5fadba600000000000000000000000000000000000000000000000000000000815260040160405180910390fd5b816008546120d19190613778565b3414612112576040517f08c379a00000000000000000000000000000000000000000000000000000000081526004016121099061382c565b60405180910390fd5b61211d838383611f0f565b505050565b60008060009054906101000a900473ffffffffffffffffffffffffffffffffffffffff169050816000806101000a81548173ffffffffffffffffffffffffffffffffffffffff021916908373ffffffffffffffffffffffffffffffffffffffff1602179055508173ffffffffffffffffffffffffffffffffffffffff168173ffffffffffffffffffffffffffffffffffffffff167f8be0079c531659141344cd1fd0a4f28419497f9722a3daafe3b4186f6b6457e060405160405180910390a35050565b600033905090565b60008082905060005b8451811015612239576122248286838151811061221757612216612e17565b5b602002602001015161247f565b9150808061223190613243565b9150506121f7565b508091505092915050565b600080600754600f60006007815260200190815260200160002054600f60006006815260200190815260200160002054600f60006005815260200190815260200160002054600f60006004815260200190815260200160002054600f60006003815260200190815260200160002054600f60006002815260200190815260200160002054600f60006001815260200190815260200160002054600f6000808152602001908152602001600020546122fb919061310f565b612305919061310f565b61230f919061310f565b612319919061310f565b612323919061310f565b61232d919061310f565b612337919061310f565b612341919061310f565b90506000600684600781111561235a57612359612f32565b5b8154811061236b5761236a612e17565b5b9060005260206000200154600f600086600781111561238d5761238c612f32565b5b8152602001908152602001600020546123a6919061310f565b905063ffffffff8111156123ef576040517f08c379a00000000000000000000000000000000000000000000000000000000081526004016123e690613898565b60405180910390fd5b60ff84600781111561240457612403612f32565b5b1115612445576040517f08c379a000000000000000000000000000000000000000000000000000000000815260040161243c90613904565b60405180910390fd5b83600781111561245857612457612f32565b5b600882901b602884901b61246c919061310f565b612476919061310f565b92505050919050565b60008183106124975761249282846124aa565b6124a2565b6124a183836124aa565b5b905092915050565b600082600052816020526040600020905092915050565b8280548282559060005260206000209081019282156124fd579160200282015b828111156124fc5782358255916020019190600101906124e1565b5b50905061250a919061250e565b5090565b5b8082111561252757600081600090555060010161250f565b5090565b600080fd5b600080fd5b6000819050919050565b61254881612535565b811461255357600080fd5b50565b6000813590506125658161253f565b92915050565b6000602082840312156125815761258061252b565b5b600061258f84828501612556565b91505092915050565b6125a181612535565b82525050565b60006020820190506125bc6000830184612598565b92915050565b6000819050919050565b6125d5816125c2565b82525050565b60006020820190506125f060008301846125cc565b92915050565b600073ffffffffffffffffffffffffffffffffffffffff82169050919050565b6000612621826125f6565b9050919050565b61263181612616565b811461263c57600080fd5b50565b60008135905061264e81612628565b92915050565b6000806040838503121561266b5761266a61252b565b5b60006126798582860161263f565b925050602061268a85828601612556565b9150509250929050565b600081519050919050565b600082825260208201905092915050565b6000819050602082019050919050565b6126c981612535565b82525050565b60006126db83836126c0565b60208301905092915050565b6000602082019050919050565b60006126ff82612694565b612709818561269f565b9350612714836126b0565b8060005b8381101561274557815161272c88826126cf565b9750612737836126e7565b925050600181019050612718565b5085935050505092915050565b6000602082019050818103600083015261276c81846126f4565b905092915050565b6008811061278157600080fd5b50565b60008135905061279381612774565b92915050565b600080fd5b600080fd5b600080fd5b60008083601f8401126127be576127bd612799565b5b8235905067ffffffffffffffff8111156127db576127da61279e565b5b6020830191508360208202830111156127f7576127f66127a3565b5b9250929050565b60008060008060006080868803121561281a5761281961252b565b5b600061282888828901612784565b955050602061283988828901612556565b945050604061284a88828901612556565b935050606086013567ffffffffffffffff81111561286b5761286a612530565b5b612877888289016127a8565b92509250509295509295909350565b60008115159050919050565b61289b81612886565b82525050565b60006020820190506128b66000830184612892565b92915050565b6128c5816125c2565b81146128d057600080fd5b50565b6000813590506128e2816128bc565b92915050565b6000602082840312156128fe576128fd61252b565b5b600061290c848285016128d3565b91505092915050565b6000806000806060858703121561292f5761292e61252b565b5b600061293d8782880161263f565b945050602061294e878288016128d3565b935050604085013567ffffffffffffffff81111561296f5761296e612530565b5b61297b878288016127a8565b925092505092959194509250565b6000612994826125f6565b9050919050565b6129a481612989565b81146129af57600080fd5b50565b6000813590506129c18161299b565b92915050565b6000602082840312156129dd576129dc61252b565b5b60006129eb848285016129b2565b91505092915050565b6129fd81612616565b82525050565b6000602082019050612a1860008301846129f4565b92915050565b6000612a2982612616565b9050919050565b612a3981612a1e565b8114612a4457600080fd5b50565b600081359050612a5681612a30565b92915050565b60008060408385031215612a7357612a7261252b565b5b6000612a8185828601612a47565b9250506020612a9285828601612556565b9150509250929050565b6000819050919050565b6000612ac1612abc612ab7846125f6565b612a9c565b6125f6565b9050919050565b6000612ad382612aa6565b9050919050565b6000612ae582612ac8565b9050919050565b612af581612ada565b82525050565b6000602082019050612b106000830184612aec565b92915050565b60008083601f840112612b2c57612b2b612799565b5b8235905067ffffffffffffffff811115612b4957612b4861279e565b5b602083019150836020820283011115612b6557612b646127a3565b5b9250929050565b60008083601f840112612b8257612b81612799565b5b8235905067ffffffffffffffff811115612b9f57612b9e61279e565b5b602083019150836020820283011115612bbb57612bba6127a3565b5b9250929050565b60008060008060408587031215612bdc57612bdb61252b565b5b600085013567ffffffffffffffff811115612bfa57612bf9612530565b5b612c0687828801612b16565b9450945050602085013567ffffffffffffffff811115612c2957612c28612530565b5b612c3587828801612b6c565b925092505092959194509250565b6000612c4e82612616565b9050919050565b612c5e81612c43565b8114612c6957600080fd5b50565b600081359050612c7b81612c55565b92915050565b600060208284031215612c9757612c9661252b565b5b6000612ca584828501612c6c565b91505092915050565b60008083601f840112612cc457612cc3612799565b5b8235905067ffffffffffffffff811115612ce157612ce061279e565b5b602083019150836020820283011115612cfd57612cfc6127a3565b5b9250929050565b60008060208385031215612d1b57612d1a61252b565b5b600083013567ffffffffffffffff811115612d3957612d38612530565b5b612d4585828601612cae565b92509250509250929050565b60008060408385031215612d6857612d6761252b565b5b6000612d7685828601612784565b9250506020612d8785828601612556565b9150509250929050565b600060208284031215612da757612da661252b565b5b6000612db58482850161263f565b91505092915050565b612dc781612989565b82525050565b6000602082019050612de26000830184612dbe565b92915050565b7f4e487b7100000000000000000000000000000000000000000000000000000000600052604160045260246000fd5b7f4e487b7100000000000000000000000000000000000000000000000000000000600052603260045260246000fd5b600081905092915050565b50565b6000612e61600083612e46565b9150612e6c82612e51565b600082019050919050565b6000612e8282612e54565b9150819050919050565b600082825260208201905092915050565b7f776974686472617720776173206e6f742073756363657366756c6c0000000000600082015250565b6000612ed3601b83612e8c565b9150612ede82612e9d565b602082019050919050565b60006020820190508181036000830152612f0281612ec6565b9050919050565b6000604082019050612f1e6000830185612598565b612f2b6020830184612598565b9392505050565b7f4e487b7100000000000000000000000000000000000000000000000000000000600052602160045260246000fd5b60008160601b9050919050565b6000612f7982612f61565b9050919050565b6000612f8b82612f6e565b9050919050565b612fa3612f9e82612616565b612f80565b82525050565b600081905092915050565b7f3a00000000000000000000000000000000000000000000000000000000000000600082015250565b6000612fea600183612fa9565b9150612ff582612fb4565b600182019050919050565b6000819050919050565b61301b61301682612535565b613000565b82525050565b600061302d8286612f92565b60148201915061303c82612fdd565b9150613048828561300a565b60208201915061305782612fdd565b9150613063828461300a565b602082019150819050949350505050565b7f496e76616c69642070726f6f662e000000000000000000000000000000000000600082015250565b60006130aa600e83612e8c565b91506130b582613074565b602082019050919050565b600060208201905081810360008301526130d98161309d565b9050919050565b7f4e487b7100000000000000000000000000000000000000000000000000000000600052601160045260246000fd5b600061311a82612535565b915061312583612535565b925082820190508082111561313d5761313c6130e0565b5b92915050565b7f436c61696d696e67206d6f7265207468616e20616c6c6f7765642e0000000000600082015250565b6000613179601b83612e8c565b915061318482613143565b602082019050919050565b600060208201905081810360008301526131a88161316c565b9050919050565b60006131ba82612535565b91506131c583612535565b92508282039050818111156131dd576131dc6130e0565b5b92915050565b7f4e487b7100000000000000000000000000000000000000000000000000000000600052601260045260246000fd5b600061321d82612535565b915061322883612535565b925082613238576132376131e3565b5b828206905092915050565b600061324e82612535565b91507fffffffffffffffffffffffffffffffffffffffffffffffffffffffffffffffff82036132805761327f6130e0565b5b600182019050919050565b7f4d696e74696e67206d6f7265207468616e20616c6c6f7765642e000000000000600082015250565b60006132c1601a83612e8c565b91506132cc8261328b565b602082019050919050565b600060208201905081810360008301526132f0816132b4565b9050919050565b60006133038284612f92565b60148201915081905092915050565b7f776974686472617720616c6c20776173206e6f742073756363657366756c6c00600082015250565b6000613348601f83612e8c565b915061335382613312565b602082019050919050565b600060208201905081810360008301526133778161333b565b9050919050565b600060408201905061339360008301856129f4565b6133a06020830184612598565b9392505050565b6133b081612886565b81146133bb57600080fd5b50565b6000815190506133cd816133a7565b92915050565b6000602082840312156133e9576133e861252b565b5b60006133f7848285016133be565b91505092915050565b7f4172726179732073686f756c642068617665207468652073616d652073697a6560008201527f2e00000000000000000000000000000000000000000000000000000000000000602082015250565b600061345c602183612e8c565b915061346782613400565b604082019050919050565b6000602082019050818103600083015261348b8161344f565b9050919050565b6000602082840312156134a8576134a761252b565b5b60006134b684828501612784565b91505092915050565b6000819050919050565b60006134e46134df6134da846134bf565b612a9c565b612535565b9050919050565b6134f4816134c9565b82525050565b600060408201905061350f6000830185612598565b61351c60208301846134eb565b9392505050565b7f4f776e61626c653a206e6577206f776e657220697320746865207a65726f206160008201527f6464726573730000000000000000000000000000000000000000000000000000602082015250565b600061357f602683612e8c565b915061358a82613523565b604082019050919050565b600060208201905081810360008301526135ae81613572565b9050919050565b7f4f776e61626c653a2063616c6c6572206973206e6f7420746865206f776e6572600082015250565b60006135eb602083612e8c565b91506135f6826135b5565b602082019050919050565b6000602082019050818103600083015261361a816135de565b9050919050565b7f5265656e7472616e637947756172643a207265656e7472616e742063616c6c00600082015250565b6000613657601f83612e8c565b915061366282613621565b602082019050919050565b600060208201905081810360008301526136868161364a565b9050919050565b7f547279696e6720746f206d696e7420746f6f206d616e792072696e67732e0000600082015250565b60006136c3601e83612e8c565b91506136ce8261368d565b602082019050919050565b600060208201905081810360008301526136f2816136b6565b9050919050565b6008811061370a57613709612f32565b5b50565b600081905061371b826136f9565b919050565b600061372b8261370d565b9050919050565b61373b81613720565b82525050565b600060608201905061375660008301866129f4565b6137636020830185612598565b6137706040830184613732565b949350505050565b600061378382612535565b915061378e83612535565b925082820261379c81612535565b915082820484148315176137b3576137b26130e0565b5b5092915050565b7f45746865722076616c75652073656e74206973206e6f7420616363757261746560008201527f2e00000000000000000000000000000000000000000000000000000000000000602082015250565b6000613816602183612e8c565b9150613821826137ba565b604082019050919050565b6000602082019050818103600083015261384581613809565b9050919050565b7f4c6f63616c20696e646578206f766572666c6f772e0000000000000000000000600082015250565b6000613882601583612e8c565b915061388d8261384c565b602082019050919050565b600060208201905081810360008301526138b181613875565b9050919050565b7f52696e6720696e646578206f766572666c6f7700000000000000000000000000600082015250565b60006138ee601383612e8c565b91506138f9826138b8565b602082019050919050565b6000602082019050818103600083015261391d816138e1565b905091905056fea2646970667358221220c733406da79ccfdbb1cb9fc8df6eeae93dd51acaac19d2f07c1e11124d9c0f4c64736f6c63430008120033",
  "linkReferences": {},
  "deployedLinkReferences": {}
}