{
  "_format": "hh-sol-artifact-1",
  "contractName": "FundersRingMinter",
  "sourceName": "contracts/FundersRingMinter.sol",
  "abi": [
    {
      "inputs": [
        {
          "internalType": "contract IFundersRing",
          "name": "_fundersRing",
          "type": "address"
        }
      ],
      "stateMutability": "nonpayable",
      "type": "constructor"
    },
    {
      "inputs": [],
      "name": "Address0Error",
      "type": "error"
    },
    {
      "inputs": [],
      "name": "DeniedProcessDuringMinting",
      "type": "error"
    },
    {
      "inputs": [
        {
          "internalType": "uint256",
          "name": "sended_values",
          "type": "uint256"
        },
        {
          "internalType": "uint256",
          "name": "expected",
          "type": "uint256"
        }
      ],
      "name": "GivenValuesNotValid",
      "type": "error"
    },
    {
      "inputs": [],
      "name": "IncorrectPurchaseLimit",
      "type": "error"
    },
    {
      "inputs": [],
      "name": "MisconfiguredPrices",
      "type": "error"
    },
    {
      "inputs": [
        {
          "internalType": "uint256",
          "name": "correct_date",
          "type": "uint256"
        },
        {
          "internalType": "uint256",
          "name": "current_date",
          "type": "uint256"
        }
      ],
      "name": "WrongDateForProcess",
      "type": "error"
    },
    {
      "anonymous": false,
      "inputs": [
        {
          "indexed": true,
          "internalType": "address",
          "name": "previousOwner",
          "type": "address"
        },
        {
          "indexed": true,
          "internalType": "address",
          "name": "newOwner",
          "type": "address"
        }
      ],
      "name": "OwnershipTransferred",
      "type": "event"
    },
    {
      "inputs": [],
      "name": "claimlistMerkleRoot",
      "outputs": [
        {
          "internalType": "bytes32",
          "name": "",
          "type": "bytes32"
        }
      ],
      "stateMutability": "view",
      "type": "function"
    },
    {
      "inputs": [
        {
          "internalType": "uint256",
          "name": "numRings",
          "type": "uint256"
        },
        {
          "internalType": "uint256",
          "name": "claimedMaxRings",
          "type": "uint256"
        },
        {
          "internalType": "bytes32[]",
          "name": "_merkleProof",
          "type": "bytes32[]"
        }
      ],
      "name": "claimlistMint",
      "outputs": [],
      "stateMutability": "payable",
      "type": "function"
    },
    {
      "inputs": [
        {
          "internalType": "address",
          "name": "",
          "type": "address"
        }
      ],
      "name": "claimlistMinted",
      "outputs": [
        {
          "internalType": "uint256",
          "name": "",
          "type": "uint256"
        }
      ],
      "stateMutability": "view",
      "type": "function"
    },
    {
      "inputs": [],
      "name": "claimsStartTime",
      "outputs": [
        {
          "internalType": "uint256",
          "name": "",
          "type": "uint256"
        }
      ],
      "stateMutability": "view",
      "type": "function"
    },
    {
      "inputs": [],
      "name": "claimsStarted",
      "outputs": [
        {
          "internalType": "bool",
          "name": "",
          "type": "bool"
        }
      ],
      "stateMutability": "view",
      "type": "function"
    },
    {
      "inputs": [
        {
          "internalType": "contract IERC20",
          "name": "_token",
          "type": "address"
        },
        {
          "internalType": "uint256",
          "name": "_amount",
          "type": "uint256"
        }
      ],
      "name": "forwardERC20s",
      "outputs": [],
      "stateMutability": "nonpayable",
      "type": "function"
    },
    {
      "inputs": [],
      "name": "fundersRing",
      "outputs": [
        {
          "internalType": "contract IFundersRing",
          "name": "",
          "type": "address"
        }
      ],
      "stateMutability": "view",
      "type": "function"
    },
    {
      "inputs": [],
      "name": "getAvailableRings",
      "outputs": [
        {
          "internalType": "uint256",
          "name": "",
          "type": "uint256"
        }
      ],
      "stateMutability": "view",
      "type": "function"
    },
    {
      "inputs": [],
      "name": "getInitialRings",
      "outputs": [
        {
          "internalType": "uint256",
          "name": "",
          "type": "uint256"
        }
      ],
      "stateMutability": "view",
      "type": "function"
    },
    {
      "inputs": [],
      "name": "getProbabilities",
      "outputs": [
        {
          "internalType": "uint256[]",
          "name": "",
          "type": "uint256[]"
        }
      ],
      "stateMutability": "view",
      "type": "function"
    },
    {
      "inputs": [],
      "name": "getRingPrice",
      "outputs": [
        {
          "internalType": "uint256",
          "name": "",
          "type": "uint256"
        }
      ],
      "stateMutability": "view",
      "type": "function"
    },
    {
      "inputs": [
        {
          "internalType": "uint256",
          "name": "tokenId",
          "type": "uint256"
        }
      ],
      "name": "getTokenIdRingType",
      "outputs": [
        {
          "internalType": "uint256",
          "name": "",
          "type": "uint256"
        }
      ],
      "stateMutability": "pure",
      "type": "function"
    },
    {
      "inputs": [],
      "name": "getTotalMintedRings",
      "outputs": [
        {
          "internalType": "uint256",
          "name": "",
          "type": "uint256"
        }
      ],
      "stateMutability": "view",
      "type": "function"
    },
    {
      "inputs": [],
      "name": "getTotalMintedRingsByType",
      "outputs": [
        {
          "internalType": "uint256[]",
          "name": "",
          "type": "uint256[]"
        }
      ],
      "stateMutability": "view",
      "type": "function"
    },
    {
      "inputs": [
        {
          "internalType": "uint256",
          "name": "numRings",
          "type": "uint256"
        }
      ],
      "name": "mint",
      "outputs": [],
      "stateMutability": "payable",
      "type": "function"
    },
    {
      "inputs": [
        {
          "internalType": "uint256",
          "name": "payedMints",
          "type": "uint256"
        },
        {
          "internalType": "uint256",
          "name": "maxClaim",
          "type": "uint256"
        },
        {
          "internalType": "bytes32[]",
          "name": "_merkleHash",
          "type": "bytes32[]"
        }
      ],
      "name": "mintWithClaim",
      "outputs": [],
      "stateMutability": "payable",
      "type": "function"
    },
    {
      "inputs": [],
      "name": "mintlistMerkleRoot1",
      "outputs": [
        {
          "internalType": "bytes32",
          "name": "",
          "type": "bytes32"
        }
      ],
      "stateMutability": "view",
      "type": "function"
    },
    {
      "inputs": [],
      "name": "mintlistMerkleRoot2",
      "outputs": [
        {
          "internalType": "bytes32",
          "name": "",
          "type": "bytes32"
        }
      ],
      "stateMutability": "view",
      "type": "function"
    },
    {
      "inputs": [
        {
          "internalType": "uint256",
          "name": "numRings",
          "type": "uint256"
        },
        {
          "internalType": "uint256",
          "name": "claimedMaxRings",
          "type": "uint256"
        },
        {
          "internalType": "bytes32[]",
          "name": "_merkleProof",
          "type": "bytes32[]"
        }
      ],
      "name": "mintlistMint",
      "outputs": [],
      "stateMutability": "payable",
      "type": "function"
    },
    {
      "inputs": [
        {
          "internalType": "address",
          "name": "",
          "type": "address"
        }
      ],
      "name": "mintlistMinted",
      "outputs": [
        {
          "internalType": "uint256",
          "name": "",
          "type": "uint256"
        }
      ],
      "stateMutability": "view",
      "type": "function"
    },
    {
      "inputs": [],
      "name": "mintlistStartTime",
      "outputs": [
        {
          "internalType": "uint256",
          "name": "",
          "type": "uint256"
        }
      ],
      "stateMutability": "view",
      "type": "function"
    },
    {
      "inputs": [],
      "name": "mintlistStarted",
      "outputs": [
        {
          "internalType": "bool",
          "name": "",
          "type": "bool"
        }
      ],
      "stateMutability": "view",
      "type": "function"
    },
    {
      "inputs": [
        {
          "internalType": "address",
          "name": "_who",
          "type": "address"
        },
        {
          "internalType": "bytes32",
          "name": "_leaf",
          "type": "bytes32"
        },
        {
          "internalType": "bytes32[]",
          "name": "_merkleProof",
          "type": "bytes32[]"
        }
      ],
      "name": "mintlisted",
      "outputs": [
        {
          "internalType": "bool",
          "name": "",
          "type": "bool"
        }
      ],
      "stateMutability": "view",
      "type": "function"
    },
    {
      "inputs": [],
      "name": "owner",
      "outputs": [
        {
          "internalType": "address",
          "name": "",
          "type": "address"
        }
      ],
      "stateMutability": "view",
      "type": "function"
    },
    {
      "inputs": [
        {
          "internalType": "enum IFundersRing.FundersRingType[]",
          "name": "ringTypes",
          "type": "uint8[]"
        },
        {
          "internalType": "address[]",
          "name": "recipients",
          "type": "address[]"
        }
      ],
      "name": "ownerMint",
      "outputs": [],
      "stateMutability": "nonpayable",
      "type": "function"
    },
    {
      "inputs": [],
      "name": "publicMintStartTime",
      "outputs": [
        {
          "internalType": "uint256",
          "name": "",
          "type": "uint256"
        }
      ],
      "stateMutability": "view",
      "type": "function"
    },
    {
      "inputs": [],
      "name": "publicStarted",
      "outputs": [
        {
          "internalType": "bool",
          "name": "",
          "type": "bool"
        }
      ],
      "stateMutability": "view",
      "type": "function"
    },
    {
      "inputs": [],
      "name": "renounceOwnership",
      "outputs": [],
      "stateMutability": "nonpayable",
      "type": "function"
    },
    {
      "inputs": [],
      "name": "ringGlobalOffset",
      "outputs": [
        {
          "internalType": "uint256",
          "name": "",
          "type": "uint256"
        }
      ],
      "stateMutability": "view",
      "type": "function"
    },
    {
      "inputs": [],
      "name": "ringPrice",
      "outputs": [
        {
          "internalType": "uint256",
          "name": "",
          "type": "uint256"
        }
      ],
      "stateMutability": "view",
      "type": "function"
    },
    {
      "inputs": [
        {
          "internalType": "uint256",
          "name": "",
          "type": "uint256"
        }
      ],
      "name": "ringTypeLocalOffset",
      "outputs": [
        {
          "internalType": "uint256",
          "name": "",
          "type": "uint256"
        }
      ],
      "stateMutability": "view",
      "type": "function"
    },
    {
      "inputs": [
        {
          "internalType": "uint256",
          "name": "",
          "type": "uint256"
        }
      ],
      "name": "ringsMinted",
      "outputs": [
        {
          "internalType": "uint256",
          "name": "",
          "type": "uint256"
        }
      ],
      "stateMutability": "view",
      "type": "function"
    },
    {
      "inputs": [
        {
          "internalType": "bytes32",
          "name": "newMerkleRoot",
          "type": "bytes32"
        }
      ],
      "name": "setClaimlistMerkleRoot",
      "outputs": [],
      "stateMutability": "nonpayable",
      "type": "function"
    },
    {
      "inputs": [
        {
          "internalType": "uint256",
          "name": "_newClaimsStartTime",
          "type": "uint256"
        }
      ],
      "name": "setClaimsStartTime",
      "outputs": [],
      "stateMutability": "nonpayable",
      "type": "function"
    },
    {
      "inputs": [
        {
          "internalType": "contract IFundersRing",
          "name": "_newFundersRingAddress",
          "type": "address"
        }
      ],
      "name": "setFundersRing",
      "outputs": [],
      "stateMutability": "nonpayable",
      "type": "function"
    },
    {
      "inputs": [
        {
          "internalType": "uint256",
          "name": "_newGlobalIdOffset",
          "type": "uint256"
        }
      ],
      "name": "setGlobalIdOffset",
      "outputs": [],
      "stateMutability": "nonpayable",
      "type": "function"
    },
    {
      "inputs": [
        {
          "internalType": "uint256[]",
          "name": "_newRingTypeLocalOffset",
          "type": "uint256[]"
        }
      ],
      "name": "setLocalIdOffsets",
      "outputs": [],
      "stateMutability": "nonpayable",
      "type": "function"
    },
    {
      "inputs": [
        {
          "internalType": "bytes32",
          "name": "newMerkleRoot",
          "type": "bytes32"
        }
      ],
      "name": "setMintlistMerkleRoot1",
      "outputs": [],
      "stateMutability": "nonpayable",
      "type": "function"
    },
    {
      "inputs": [
        {
          "internalType": "bytes32",
          "name": "newMerkleRoot",
          "type": "bytes32"
        }
      ],
      "name": "setMintlistMerkleRoot2",
      "outputs": [],
      "stateMutability": "nonpayable",
      "type": "function"
    },
    {
      "inputs": [
        {
          "internalType": "uint256",
          "name": "_newAllowlistMintStartTime",
          "type": "uint256"
        }
      ],
      "name": "setMintlistStartTime",
      "outputs": [],
      "stateMutability": "nonpayable",
      "type": "function"
    },
    {
      "inputs": [
        {
          "internalType": "uint256",
          "name": "_newPrice",
          "type": "uint256"
        }
      ],
      "name": "setPrice",
      "outputs": [],
      "stateMutability": "nonpayable",
      "type": "function"
    },
    {
      "inputs": [
        {
          "internalType": "uint256[]",
          "name": "_newProbabilities",
          "type": "uint256[]"
        }
      ],
      "name": "setProbabilities",
      "outputs": [],
      "stateMutability": "nonpayable",
      "type": "function"
    },
    {
      "inputs": [
        {
          "internalType": "uint256",
          "name": "_newPublicMintStartTime",
          "type": "uint256"
        }
      ],
      "name": "setPublicMintStartTime",
      "outputs": [],
      "stateMutability": "nonpayable",
      "type": "function"
    },
    {
      "inputs": [
        {
          "internalType": "uint256",
          "name": "_newRingsAvailable",
          "type": "uint256"
        }
      ],
      "name": "setRingsAvailable",
      "outputs": [],
      "stateMutability": "nonpayable",
      "type": "function"
    },
    {
      "inputs": [
        {
          "internalType": "address payable",
          "name": "_newVaultAddress",
          "type": "address"
        }
      ],
      "name": "setVaultAddress",
      "outputs": [],
      "stateMutability": "nonpayable",
      "type": "function"
    },
    {
      "inputs": [
        {
          "internalType": "address",
          "name": "newOwner",
          "type": "address"
        }
      ],
      "name": "transferOwnership",
      "outputs": [],
      "stateMutability": "nonpayable",
      "type": "function"
    },
    {
      "inputs": [],
      "name": "vault",
      "outputs": [
        {
          "internalType": "address payable",
          "name": "",
          "type": "address"
        }
      ],
      "stateMutability": "view",
      "type": "function"
    },
    {
      "inputs": [
        {
          "internalType": "uint256",
          "name": "_amount",
          "type": "uint256"
        }
      ],
      "name": "withdraw",
      "outputs": [],
      "stateMutability": "nonpayable",
      "type": "function"
    },
    {
      "inputs": [],
      "name": "withdrawAll",
      "outputs": [],
      "stateMutability": "nonpayable",
      "type": "function"
    }
  ],
  "bytecode": "0x60806040526127106004556000600555604051806101000160405280600e60ff168152602001600e60ff168152602001600e60ff168152602001600e60ff168152602001600e60ff168152602001600e60ff168152602001600e60ff168152602001600260ff1681525060069060086200007b9291906200042f565b50604051806101000160405280600160ff168152602001600160ff168152602001600160ff168152602001600160ff168152602001600160ff168152602001600160ff168152602001600160ff168152602001600160ff168152506007906008620000e89291906200042f565b5060016008557fffffffffffffffffffffffffffffffffffffffffffffffffffffffffffffffff6009557fffffffffffffffffffffffffffffffffffffffffffffffffffffffffffffffff600a557fffffffffffffffffffffffffffffffffffffffffffffffffffffffffffffffff600b557fffffffffffffffffffffffffffffffffffffffffffffffffffffffffffffffff600c553480156200018b57600080fd5b50604051620045d1380380620045d18339818101604052810190620001b1919062000523565b620001d1620001c56200020160201b60201c565b6200020960201b60201c565b60018081905550620001e981620002cd60201b60201c565b620001fa336200032160201b60201c565b50620005d8565b600033905090565b60008060009054906101000a900473ffffffffffffffffffffffffffffffffffffffff169050816000806101000a81548173ffffffffffffffffffffffffffffffffffffffff021916908373ffffffffffffffffffffffffffffffffffffffff1602179055508173ffffffffffffffffffffffffffffffffffffffff168173ffffffffffffffffffffffffffffffffffffffff167f8be0079c531659141344cd1fd0a4f28419497f9722a3daafe3b4186f6b6457e060405160405180910390a35050565b620002dd6200037560201b60201c565b80600260006101000a81548173ffffffffffffffffffffffffffffffffffffffff021916908373ffffffffffffffffffffffffffffffffffffffff16021790555050565b620003316200037560201b60201c565b80600360006101000a81548173ffffffffffffffffffffffffffffffffffffffff021916908373ffffffffffffffffffffffffffffffffffffffff16021790555050565b620003856200020160201b60201c565b73ffffffffffffffffffffffffffffffffffffffff16620003ab6200040660201b60201c565b73ffffffffffffffffffffffffffffffffffffffff161462000404576040517f08c379a0000000000000000000000000000000000000000000000000000000008152600401620003fb90620005b6565b60405180910390fd5b565b60008060009054906101000a900473ffffffffffffffffffffffffffffffffffffffff16905090565b82805482825590600052602060002090810192821562000473579160200282015b8281111562000472578251829060ff1690559160200191906001019062000450565b5b50905062000482919062000486565b5090565b5b80821115620004a157600081600090555060010162000487565b5090565b600080fd5b600073ffffffffffffffffffffffffffffffffffffffff82169050919050565b6000620004d782620004aa565b9050919050565b6000620004eb82620004ca565b9050919050565b620004fd81620004de565b81146200050957600080fd5b50565b6000815190506200051d81620004f2565b92915050565b6000602082840312156200053c576200053b620004a5565b5b60006200054c848285016200050c565b91505092915050565b600082825260208201905092915050565b7f4f776e61626c653a2063616c6c6572206973206e6f7420746865206f776e6572600082015250565b60006200059e60208362000555565b9150620005ab8262000566565b602082019050919050565b60006020820190508181036000830152620005d1816200058f565b9050919050565b613fe980620005e86000396000f3fe6080604052600436106102ae5760003560e01c80638c6d8ef611610175578063ae6b6dae116100dc578063d3cf00a311610095578063e49618c11161006f578063e49618c114610a18578063f2fde38b14610a55578063f4cde4c014610a7e578063fbfa77cf14610aa9576102ae565b8063d3cf00a314610999578063d6117b3e146109c4578063df477ead146109ed576102ae565b8063ae6b6dae146108ae578063b9a43f2e146108d7578063c2774dac14610902578063cc644fd21461092b578063cef5828314610954578063d012468f1461097d576102ae565b80639727151a1161012e5780639727151a146107c15780639b68a6ef146107ea5780639f0664b514610815578063a0712d681461083e578063a0e52f891461085a578063a637f97314610885576102ae565b80638c6d8ef6146106af5780638d56a17b146106da5780638da5cb5b1461070557806391b7f5ed1461073057806393cb41471461075957806396c9f88b14610784576102ae565b8063411d13f7116102195780636138f236116101d25780636138f236146105b55780636e1a1a60146105f2578063715018a61461061b578063792a77d914610632578063853828b61461066f57806385535cc514610686576102ae565b8063411d13f7146104c657806346bf289f146104ef5780634c3db84d1461051a5780634ed1eb24146105365780635242a493146105615780635fcd80a61461058c576102ae565b80632560e3761161026b5780632560e376146103b6578063260c0886146103e15780632701b3251461040a5780632ce82a71146104475780632e1a7d4d146104725780633e97414f1461049b576102ae565b8063062f7b8c146102b35780630747eda8146102de578063158ae298146102fa5780631af3ba81146103375780631c7f4a0214610362578063205ed3821461038d575b600080fd5b3480156102bf57600080fd5b506102c8610ad4565b6040516102d59190612b6b565b60405180910390f35b6102f860048036038101906102f39190612c28565b610b2c565b005b34801561030657600080fd5b50610321600480360381019061031c9190612c9c565b610c8f565b60405161032e9190612cd8565b60405180910390f35b34801561034357600080fd5b5061034c610ca7565b6040516103599190612cd8565b60405180910390f35b34801561036e57600080fd5b50610377610cad565b6040516103849190612d0c565b60405180910390f35b34801561039957600080fd5b506103b460048036038101906103af9190612c9c565b610cb3565b005b3480156103c257600080fd5b506103cb610d04565b6040516103d89190612d0c565b60405180910390f35b3480156103ed57600080fd5b5061040860048036038101906104039190612c9c565b610d0a565b005b34801561041657600080fd5b50610431600480360381019061042c9190612c9c565b610d1c565b60405161043e9190612cd8565b60405180910390f35b34801561045357600080fd5b5061045c610d29565b6040516104699190612b6b565b60405180910390f35b34801561047e57600080fd5b5061049960048036038101906104949190612c9c565b610f27565b005b3480156104a757600080fd5b506104b0611001565b6040516104bd9190612d42565b60405180910390f35b3480156104d257600080fd5b506104ed60048036038101906104e89190612d89565b61100e565b005b3480156104fb57600080fd5b50610504611020565b6040516105119190612cd8565b60405180910390f35b610534600480360381019061052f9190612c28565b611119565b005b34801561054257600080fd5b5061054b61132a565b6040516105589190612d0c565b60405180910390f35b34801561056d57600080fd5b50610576611330565b6040516105839190612cd8565b60405180910390f35b34801561059857600080fd5b506105b360048036038101906105ae9190612c9c565b611336565b005b3480156105c157600080fd5b506105dc60048036038101906105d79190612e14565b611348565b6040516105e99190612cd8565b60405180910390f35b3480156105fe57600080fd5b5061061960048036038101906106149190612c9c565b611360565b005b34801561062757600080fd5b50610630611372565b005b34801561063e57600080fd5b5061065960048036038101906106549190612e41565b611386565b6040516106669190612d42565b60405180910390f35b34801561067b57600080fd5b50610684611483565b005b34801561069257600080fd5b506106ad60048036038101906106a89190612ef3565b61155c565b005b3480156106bb57600080fd5b506106c46115a8565b6040516106d19190612d42565b60405180910390f35b3480156106e657600080fd5b506106ef6115b5565b6040516106fc9190612cd8565b60405180910390f35b34801561071157600080fd5b5061071a6115bb565b6040516107279190612f2f565b60405180910390f35b34801561073c57600080fd5b5061075760048036038101906107529190612c9c565b6115e4565b005b34801561076557600080fd5b5061076e611635565b60405161077b9190612d42565b60405180910390f35b34801561079057600080fd5b506107ab60048036038101906107a69190612c9c565b611642565b6040516107b89190612cd8565b60405180910390f35b3480156107cd57600080fd5b506107e860048036038101906107e39190612f88565b611666565b005b3480156107f657600080fd5b506107ff611757565b60405161080c9190613027565b60405180910390f35b34801561082157600080fd5b5061083c600480360381019061083791906130ee565b61177d565b005b61085860048036038101906108539190612c9c565b611967565b005b34801561086657600080fd5b5061086f611a18565b60405161087c9190612cd8565b60405180910390f35b34801561089157600080fd5b506108ac60048036038101906108a79190612c9c565b611a22565b005b3480156108ba57600080fd5b506108d560048036038101906108d091906131ad565b611a73565b005b3480156108e357600080fd5b506108ec611abf565b6040516108f99190612cd8565b60405180910390f35b34801561090e57600080fd5b5061092960048036038101906109249190612d89565b611bdd565b005b34801561093757600080fd5b50610952600480360381019061094d9190613230565b611bef565b005b34801561096057600080fd5b5061097b60048036038101906109769190612d89565b611c9a565b005b61099760048036038101906109929190612c28565b611cac565b005b3480156109a557600080fd5b506109ae611f59565b6040516109bb9190612cd8565b60405180910390f35b3480156109d057600080fd5b506109eb60048036038101906109e69190613230565b611f5f565b005b3480156109f957600080fd5b50610a0261209d565b604051610a0f9190612cd8565b60405180910390f35b348015610a2457600080fd5b50610a3f6004803603810190610a3a9190612e14565b6120a7565b604051610a4c9190612cd8565b60405180910390f35b348015610a6157600080fd5b50610a7c6004803603810190610a779190612e14565b6120bf565b005b348015610a8a57600080fd5b50610a93612142565b604051610aa09190612cd8565b60405180910390f35b348015610ab557600080fd5b50610abe612148565b604051610acb919061328c565b60405180910390f35b60606006805480602002602001604051908101604052809291908181526020018280548015610b2257602002820191906000526020600020905b815481526020019060010190808311610b0e575b5050505050905090565b3073ffffffffffffffffffffffffffffffffffffffff1663a0712d68856040518263ffffffff1660e01b8152600401610b659190612cd8565b600060405180830381600087803b158015610b7f57600080fd5b505af1158015610b93573d6000803e3d6000fd5b505050506000601260003373ffffffffffffffffffffffffffffffffffffffff1673ffffffffffffffffffffffffffffffffffffffff16815260200190815260200160002054905060008185610be991906132d6565b905060008203610c0c57610bfd600161216e565b8080610c089061330a565b9150505b6000811115610c87573073ffffffffffffffffffffffffffffffffffffffff16634c3db84d828787876040518563ffffffff1660e01b8152600401610c5494939291906133ae565b600060405180830381600087803b158015610c6e57600080fd5b505af1158015610c82573d6000803e3d6000fd5b505050505b505050505050565b60106020528060005260406000206000915090505481565b60095481565b600e5481565b610cbb6121d1565b610cc3611635565b15610cfa576040517ff2a84b6300000000000000000000000000000000000000000000000000000000815260040160405180910390fd5b8060048190555050565b600f5481565b610d126121d1565b80600c8190555050565b600060ff82169050919050565b60606000600867ffffffffffffffff811115610d4857610d476133ee565b5b604051908082528060200260200182016040528015610d765781602001602082028036833780820191505090505b509050601060008081526020019081526020016000205481600081518110610da157610da061341d565b5b60200260200101818152505060106000600181526020019081526020016000205481600181518110610dd657610dd561341d565b5b60200260200101818152505060106000600281526020019081526020016000205481600281518110610e0b57610e0a61341d565b5b60200260200101818152505060106000600381526020019081526020016000205481600381518110610e4057610e3f61341d565b5b60200260200101818152505060106000600481526020019081526020016000205481600481518110610e7557610e7461341d565b5b60200260200101818152505060106000600581526020019081526020016000205481600581518110610eaa57610ea961341d565b5b60200260200101818152505060106000600681526020019081526020016000205481600681518110610edf57610ede61341d565b5b60200260200101818152505060106000600781526020019081526020016000205481600781518110610f1457610f1361341d565b5b6020026020010181815250508091505090565b610f2f6121d1565b6000600360009054906101000a900473ffffffffffffffffffffffffffffffffffffffff1673ffffffffffffffffffffffffffffffffffffffff1682604051610f779061347d565b60006040518083038185875af1925050503d8060008114610fb4576040519150601f19603f3d011682016040523d82523d6000602084013e610fb9565b606091505b5050905080610ffd576040517f08c379a0000000000000000000000000000000000000000000000000000000008152600401610ff4906134ef565b60405180910390fd5b5050565b6000600c54421015905090565b6110166121d1565b80600f8190555050565b60008060106000600781526020019081526020016000205460106000600681526020019081526020016000205460106000600581526020019081526020016000205460106000600481526020019081526020016000205460106000600381526020019081526020016000205460106000600281526020019081526020016000205460106000600181526020019081526020016000205460106000808152602001908152602001600020546110d4919061350f565b6110de919061350f565b6110e8919061350f565b6110f2919061350f565b6110fc919061350f565b611106919061350f565b611110919061350f565b90508091505090565b61112161224f565b611129611001565b61116e57600c54426040517f66803fc1000000000000000000000000000000000000000000000000000000008152600401611165929190613543565b60405180910390fd5b6000338460405160200161118392919061362c565b6040516020818303038152906040528051906020012090506111e9838380806020026020016040519081016040528093929190818152602001838360200280828437600081840152601f19601f82011690508083019250505050505050600f548361229e565b611228576040517f08c379a000000000000000000000000000000000000000000000000000000000815260040161121f906136af565b60405180910390fd5b6000601260003373ffffffffffffffffffffffffffffffffffffffff1673ffffffffffffffffffffffffffffffffffffffff168152602001908152602001600020549050848682611279919061350f565b11156112ba576040517f08c379a00000000000000000000000000000000000000000000000000000000081526004016112b19061371b565b60405180910390fd5b85601260003373ffffffffffffffffffffffffffffffffffffffff1673ffffffffffffffffffffffffffffffffffffffff1681526020019081526020016000206000828254611309919061350f565b9250508190555061131a86336122b5565b50506113246124eb565b50505050565b600d5481565b60085481565b61133e6121d1565b80600a8190555050565b60126020528060005260406000206000915090505481565b6113686121d1565b80600b8190555050565b61137a6121d1565b61138460006124f4565b565b6000808560405160200161139a919061373b565b6040516020818303038152906040528051906020012090508481146113c357600091505061147b565b611411848480806020026020016040519081016040528093929190818152602001838360200280828437600081840152601f19601f82011690508083019250505050505050600d548761229e565b806114665750611465848480806020026020016040519081016040528093929190818152602001838360200280828437600081840152601f19601f82011690508083019250505050505050600e548761229e565b5b1561147557600191505061147b565b60009150505b949350505050565b61148b6121d1565b6000600360009054906101000a900473ffffffffffffffffffffffffffffffffffffffff1673ffffffffffffffffffffffffffffffffffffffff16476040516114d39061347d565b60006040518083038185875af1925050503d8060008114611510576040519150601f19603f3d011682016040523d82523d6000602084013e611515565b606091505b5050905080611559576040517f08c379a0000000000000000000000000000000000000000000000000000000008152600401611550906137a2565b60405180910390fd5b50565b6115646121d1565b80600360006101000a81548173ffffffffffffffffffffffffffffffffffffffff021916908373ffffffffffffffffffffffffffffffffffffffff16021790555050565b6000600a54421015905090565b600c5481565b60008060009054906101000a900473ffffffffffffffffffffffffffffffffffffffff16905090565b6115ec6121d1565b6115f4611635565b1561162b576040517ff2a84b6300000000000000000000000000000000000000000000000000000000815260040160405180910390fd5b8060098190555050565b6000600b54421015905090565b6007818154811061165257600080fd5b906000526020600020016000915090505481565b61166e6121d1565b600073ffffffffffffffffffffffffffffffffffffffff163373ffffffffffffffffffffffffffffffffffffffff16036116d4576040517f48ac165200000000000000000000000000000000000000000000000000000000815260040160405180910390fd5b8173ffffffffffffffffffffffffffffffffffffffff1663a9059cbb33836040518363ffffffff1660e01b815260040161170f9291906137c2565b6020604051808303816000875af115801561172e573d6000803e3d6000fd5b505050506040513d601f19601f820116820180604052508101906117529190613817565b505050565b600260009054906101000a900473ffffffffffffffffffffffffffffffffffffffff1681565b6117856121d1565b8181905084849050146117cd576040517f08c379a00000000000000000000000000000000000000000000000000000000081526004016117c4906138b6565b60405180910390fd5b60005b8282905081101561196057600061180d8686848181106117f3576117f261341d565b5b905060200201602081019061180891906138fb565b6125b8565b9050601060008787858181106118265761182561341d565b5b905060200201602081019061183b91906138fb565b600781111561184d5761184c613928565b5b81526020019081526020016000206000815461186890613957565b91905081905550600260009054906101000a900473ffffffffffffffffffffffffffffffffffffffff1673ffffffffffffffffffffffffffffffffffffffff166386ebf0108585858181106118c0576118bf61341d565b5b90506020020160208101906118d59190612e14565b838989878181106118e9576118e861341d565b5b90506020020160208101906118fe91906138fb565b6040518463ffffffff1660e01b815260040161191c939291906139e7565b600060405180830381600087803b15801561193657600080fd5b505af115801561194a573d6000803e3d6000fd5b50505050508061195990613957565b90506117d0565b5050505050565b61196f61224f565b6119776115a8565b6119bc57600a54426040517f66803fc10000000000000000000000000000000000000000000000000000000081526004016119b3929190613543565b60405180910390fd5b6000811115806119cc5750601481115b15611a03576040517fca02d6eb00000000000000000000000000000000000000000000000000000000815260040160405180910390fd5b611a0d81336127f3565b611a156124eb565b50565b6000600954905090565b611a2a6121d1565b611a32611635565b15611a69576040517ff2a84b6300000000000000000000000000000000000000000000000000000000815260040160405180910390fd5b8060088190555050565b611a7b6121d1565b80600260006101000a81548173ffffffffffffffffffffffffffffffffffffffff021916908373ffffffffffffffffffffffffffffffffffffffff16021790555050565b6000806004549050601060008081526020019081526020016000205481611ae691906132d6565b905060106000600181526020019081526020016000205481611b0891906132d6565b905060106000600281526020019081526020016000205481611b2a91906132d6565b905060106000600381526020019081526020016000205481611b4c91906132d6565b905060106000600481526020019081526020016000205481611b6e91906132d6565b905060106000600581526020019081526020016000205481611b9091906132d6565b905060106000600681526020019081526020016000205481611bb291906132d6565b905060106000600781526020019081526020016000205481611bd491906132d6565b90508091505090565b611be56121d1565b80600e8190555050565b611bf76121d1565b60088282905014611c45578181905060086040517f485d33a2000000000000000000000000000000000000000000000000000000008152600401611c3c929190613a59565b60405180910390fd5b611c4d611635565b15611c84576040517ff2a84b6300000000000000000000000000000000000000000000000000000000815260040160405180910390fd5b818160079190611c95929190612a39565b505050565b611ca26121d1565b80600d8190555050565b611cb461224f565b611cbc611635565b611d0157600b54426040517f66803fc1000000000000000000000000000000000000000000000000000000008152600401611cf8929190613543565b60405180910390fd5b600084111580611d115750601484115b15611d48576040517fca02d6eb00000000000000000000000000000000000000000000000000000000815260040160405180910390fd5b60003384604051602001611d5d92919061362c565b604051602081830303815290604052805190602001209050611dc3838380806020026020016040519081016040528093929190818152602001838360200280828437600081840152601f19601f82011690508083019250505050505050600d548361229e565b80611e185750611e17838380806020026020016040519081016040528093929190818152602001838360200280828437600081840152601f19601f82011690508083019250505050505050600e548361229e565b5b611e57576040517f08c379a0000000000000000000000000000000000000000000000000000000008152600401611e4e906136af565b60405180910390fd5b6000601160003373ffffffffffffffffffffffffffffffffffffffff1673ffffffffffffffffffffffffffffffffffffffff168152602001908152602001600020549050848682611ea8919061350f565b1115611ee9576040517f08c379a0000000000000000000000000000000000000000000000000000000008152600401611ee090613ace565b60405180910390fd5b85601160003373ffffffffffffffffffffffffffffffffffffffff1673ffffffffffffffffffffffffffffffffffffffff1681526020019081526020016000206000828254611f38919061350f565b92505081905550611f4986336127f3565b5050611f536124eb565b50505050565b600a5481565b611f676121d1565b6000805b83839050811015611fb057838382818110611f8957611f8861341d565b5b9050602002013582611f9b919061350f565b91508080611fa890613957565b915050611f6b565b5060648114611ff9578060646040517f485d33a2000000000000000000000000000000000000000000000000000000008152600401611ff0929190613b29565b60405180910390fd5b60088383905014612047578282905060086040517f485d33a200000000000000000000000000000000000000000000000000000000815260040161203e929190613a59565b60405180910390fd5b61204f611635565b15612086576040517ff2a84b6300000000000000000000000000000000000000000000000000000000815260040160405180910390fd5b828260069190612097929190612a39565b50505050565b6000600454905090565b60116020528060005260406000206000915090505481565b6120c76121d1565b600073ffffffffffffffffffffffffffffffffffffffff168173ffffffffffffffffffffffffffffffffffffffff1603612136576040517f08c379a000000000000000000000000000000000000000000000000000000000815260040161212d90613bc4565b60405180910390fd5b61213f816124f4565b50565b600b5481565b600360009054906101000a900473ffffffffffffffffffffffffffffffffffffffff1681565b80601160003373ffffffffffffffffffffffffffffffffffffffff1673ffffffffffffffffffffffffffffffffffffffff16815260200190815260200160002060008282546121bd919061350f565b925050819055506121ce81336127f3565b50565b6121d961288c565b73ffffffffffffffffffffffffffffffffffffffff166121f76115bb565b73ffffffffffffffffffffffffffffffffffffffff161461224d576040517f08c379a000000000000000000000000000000000000000000000000000000000815260040161224490613c30565b60405180910390fd5b565b600260015403612294576040517f08c379a000000000000000000000000000000000000000000000000000000000815260040161228b90613c9c565b60405180910390fd5b6002600181905550565b6000826122ab8584612894565b1490509392505050565b3073ffffffffffffffffffffffffffffffffffffffff1663b9a43f2e6040518163ffffffff1660e01b8152600401602060405180830381865afa158015612300573d6000803e3d6000fd5b505050506040513d601f19601f820116820180604052508101906123249190613cd1565b823073ffffffffffffffffffffffffffffffffffffffff166346bf289f6040518163ffffffff1660e01b8152600401602060405180830381865afa158015612370573d6000803e3d6000fd5b505050506040513d601f19601f820116820180604052508101906123949190613cd1565b61239e919061350f565b11156123df576040517f08c379a00000000000000000000000000000000000000000000000000000000081526004016123d690613d4a565b60405180910390fd5b60005b828110156124e65760006123f46128ea565b9050600081600781111561240b5761240a613928565b5b90506000612418826125b8565b9050601060008481526020019081526020016000206000815461243a90613957565b91905081905550600260009054906101000a900473ffffffffffffffffffffffffffffffffffffffff1673ffffffffffffffffffffffffffffffffffffffff166386ebf0108683856040518463ffffffff1660e01b81526004016124a0939291906139e7565b600060405180830381600087803b1580156124ba57600080fd5b505af11580156124ce573d6000803e3d6000fd5b50505050505050806124df90613957565b90506123e2565b505050565b60018081905550565b60008060009054906101000a900473ffffffffffffffffffffffffffffffffffffffff169050816000806101000a81548173ffffffffffffffffffffffffffffffffffffffff021916908373ffffffffffffffffffffffffffffffffffffffff1602179055508173ffffffffffffffffffffffffffffffffffffffff168173ffffffffffffffffffffffffffffffffffffffff167f8be0079c531659141344cd1fd0a4f28419497f9722a3daafe3b4186f6b6457e060405160405180910390a35050565b600080600854601060006007815260200190815260200160002054601060006006815260200190815260200160002054601060006005815260200190815260200160002054601060006004815260200190815260200160002054601060006003815260200190815260200160002054601060006002815260200190815260200160002054601060006001815260200190815260200160002054601060008081526020019081526020016000205461266f919061350f565b612679919061350f565b612683919061350f565b61268d919061350f565b612697919061350f565b6126a1919061350f565b6126ab919061350f565b6126b5919061350f565b9050600060078460078111156126ce576126cd613928565b5b815481106126df576126de61341d565b5b90600052602060002001546010600086600781111561270157612700613928565b5b81526020019081526020016000205461271a919061350f565b905063ffffffff811115612763576040517f08c379a000000000000000000000000000000000000000000000000000000000815260040161275a90613db6565b60405180910390fd5b60ff84600781111561277857612777613928565b5b11156127b9576040517f08c379a00000000000000000000000000000000000000000000000000000000081526004016127b090613e22565b60405180910390fd5b8360078111156127cc576127cb613928565b5b600882901b602884901b6127e0919061350f565b6127ea919061350f565b92505050919050565b60006009541161282f576040517fc5fadba600000000000000000000000000000000000000000000000000000000815260040160405180910390fd5b8160095461283d9190613e42565b341461287e576040517f08c379a000000000000000000000000000000000000000000000000000000000815260040161287590613ef6565b60405180910390fd5b61288882826122b5565b5050565b600033905090565b60008082905060005b84518110156128df576128ca828683815181106128bd576128bc61341d565b5b60200260200101516129f7565b915080806128d790613957565b91505061289d565b508091505092915050565b600080600090506005600081548092919061290490613957565b9190505550600060016064423360055460405160200161292693929190613f16565b6040516020818303038152906040528051906020012060001c6129499190613f82565b612953919061350f565b9050600080600660008154811061296d5761296c61341d565b5b906000526020600020015490506000600190505b6006805490508110156129ec57819250600681815481106129a5576129a461341d565b5b9060005260206000200154826129bb919061350f565b915082841180156129cc5750818411155b156129d9578094506129ec565b80806129e490613957565b915050612981565b508394505050505090565b6000818310612a0f57612a0a8284612a22565b612a1a565b612a198383612a22565b5b905092915050565b600082600052816020526040600020905092915050565b828054828255906000526020600020908101928215612a75579160200282015b82811115612a74578235825591602001919060010190612a59565b5b509050612a829190612a86565b5090565b5b80821115612a9f576000816000905550600101612a87565b5090565b600081519050919050565b600082825260208201905092915050565b6000819050602082019050919050565b6000819050919050565b612ae281612acf565b82525050565b6000612af48383612ad9565b60208301905092915050565b6000602082019050919050565b6000612b1882612aa3565b612b228185612aae565b9350612b2d83612abf565b8060005b83811015612b5e578151612b458882612ae8565b9750612b5083612b00565b925050600181019050612b31565b5085935050505092915050565b60006020820190508181036000830152612b858184612b0d565b905092915050565b600080fd5b600080fd5b612ba081612acf565b8114612bab57600080fd5b50565b600081359050612bbd81612b97565b92915050565b600080fd5b600080fd5b600080fd5b60008083601f840112612be857612be7612bc3565b5b8235905067ffffffffffffffff811115612c0557612c04612bc8565b5b602083019150836020820283011115612c2157612c20612bcd565b5b9250929050565b60008060008060608587031215612c4257612c41612b8d565b5b6000612c5087828801612bae565b9450506020612c6187828801612bae565b935050604085013567ffffffffffffffff811115612c8257612c81612b92565b5b612c8e87828801612bd2565b925092505092959194509250565b600060208284031215612cb257612cb1612b8d565b5b6000612cc084828501612bae565b91505092915050565b612cd281612acf565b82525050565b6000602082019050612ced6000830184612cc9565b92915050565b6000819050919050565b612d0681612cf3565b82525050565b6000602082019050612d216000830184612cfd565b92915050565b60008115159050919050565b612d3c81612d27565b82525050565b6000602082019050612d576000830184612d33565b92915050565b612d6681612cf3565b8114612d7157600080fd5b50565b600081359050612d8381612d5d565b92915050565b600060208284031215612d9f57612d9e612b8d565b5b6000612dad84828501612d74565b91505092915050565b600073ffffffffffffffffffffffffffffffffffffffff82169050919050565b6000612de182612db6565b9050919050565b612df181612dd6565b8114612dfc57600080fd5b50565b600081359050612e0e81612de8565b92915050565b600060208284031215612e2a57612e29612b8d565b5b6000612e3884828501612dff565b91505092915050565b60008060008060608587031215612e5b57612e5a612b8d565b5b6000612e6987828801612dff565b9450506020612e7a87828801612d74565b935050604085013567ffffffffffffffff811115612e9b57612e9a612b92565b5b612ea787828801612bd2565b925092505092959194509250565b6000612ec082612db6565b9050919050565b612ed081612eb5565b8114612edb57600080fd5b50565b600081359050612eed81612ec7565b92915050565b600060208284031215612f0957612f08612b8d565b5b6000612f1784828501612ede565b91505092915050565b612f2981612dd6565b82525050565b6000602082019050612f446000830184612f20565b92915050565b6000612f5582612dd6565b9050919050565b612f6581612f4a565b8114612f7057600080fd5b50565b600081359050612f8281612f5c565b92915050565b60008060408385031215612f9f57612f9e612b8d565b5b6000612fad85828601612f73565b9250506020612fbe85828601612bae565b9150509250929050565b6000819050919050565b6000612fed612fe8612fe384612db6565b612fc8565b612db6565b9050919050565b6000612fff82612fd2565b9050919050565b600061301182612ff4565b9050919050565b61302181613006565b82525050565b600060208201905061303c6000830184613018565b92915050565b60008083601f84011261305857613057612bc3565b5b8235905067ffffffffffffffff81111561307557613074612bc8565b5b60208301915083602082028301111561309157613090612bcd565b5b9250929050565b60008083601f8401126130ae576130ad612bc3565b5b8235905067ffffffffffffffff8111156130cb576130ca612bc8565b5b6020830191508360208202830111156130e7576130e6612bcd565b5b9250929050565b6000806000806040858703121561310857613107612b8d565b5b600085013567ffffffffffffffff81111561312657613125612b92565b5b61313287828801613042565b9450945050602085013567ffffffffffffffff81111561315557613154612b92565b5b61316187828801613098565b925092505092959194509250565b600061317a82612dd6565b9050919050565b61318a8161316f565b811461319557600080fd5b50565b6000813590506131a781613181565b92915050565b6000602082840312156131c3576131c2612b8d565b5b60006131d184828501613198565b91505092915050565b60008083601f8401126131f0576131ef612bc3565b5b8235905067ffffffffffffffff81111561320d5761320c612bc8565b5b60208301915083602082028301111561322957613228612bcd565b5b9250929050565b6000806020838503121561324757613246612b8d565b5b600083013567ffffffffffffffff81111561326557613264612b92565b5b613271858286016131da565b92509250509250929050565b61328681612eb5565b82525050565b60006020820190506132a1600083018461327d565b92915050565b7f4e487b7100000000000000000000000000000000000000000000000000000000600052601160045260246000fd5b60006132e182612acf565b91506132ec83612acf565b9250828203905081811115613304576133036132a7565b5b92915050565b600061331582612acf565b915060008203613328576133276132a7565b5b600182039050919050565b600082825260208201905092915050565b600080fd5b82818337505050565b600061335e8385613333565b93507f07ffffffffffffffffffffffffffffffffffffffffffffffffffffffffffffff83111561339157613390613344565b5b6020830292506133a2838584613349565b82840190509392505050565b60006060820190506133c36000830187612cc9565b6133d06020830186612cc9565b81810360408301526133e3818486613352565b905095945050505050565b7f4e487b7100000000000000000000000000000000000000000000000000000000600052604160045260246000fd5b7f4e487b7100000000000000000000000000000000000000000000000000000000600052603260045260246000fd5b600081905092915050565b50565b600061346760008361344c565b915061347282613457565b600082019050919050565b60006134888261345a565b9150819050919050565b600082825260208201905092915050565b7f776974686472617720776173206e6f742073756363657366756c6c0000000000600082015250565b60006134d9601b83613492565b91506134e4826134a3565b602082019050919050565b60006020820190508181036000830152613508816134cc565b9050919050565b600061351a82612acf565b915061352583612acf565b925082820190508082111561353d5761353c6132a7565b5b92915050565b60006040820190506135586000830185612cc9565b6135656020830184612cc9565b9392505050565b60008160601b9050919050565b60006135848261356c565b9050919050565b600061359682613579565b9050919050565b6135ae6135a982612dd6565b61358b565b82525050565b600081905092915050565b7f3a00000000000000000000000000000000000000000000000000000000000000600082015250565b60006135f56001836135b4565b9150613600826135bf565b600182019050919050565b6000819050919050565b61362661362182612acf565b61360b565b82525050565b6000613638828561359d565b601482019150613647826135e8565b91506136538284613615565b6020820191508190509392505050565b7f496e76616c69642070726f6f662e000000000000000000000000000000000000600082015250565b6000613699600e83613492565b91506136a482613663565b602082019050919050565b600060208201905081810360008301526136c88161368c565b9050919050565b7f436c61696d696e67206d6f7265207468616e20616c6c6f7765642e0000000000600082015250565b6000613705601b83613492565b9150613710826136cf565b602082019050919050565b60006020820190508181036000830152613734816136f8565b9050919050565b6000613747828461359d565b60148201915081905092915050565b7f776974686472617720616c6c20776173206e6f742073756363657366756c6c00600082015250565b600061378c601f83613492565b915061379782613756565b602082019050919050565b600060208201905081810360008301526137bb8161377f565b9050919050565b60006040820190506137d76000830185612f20565b6137e46020830184612cc9565b9392505050565b6137f481612d27565b81146137ff57600080fd5b50565b600081519050613811816137eb565b92915050565b60006020828403121561382d5761382c612b8d565b5b600061383b84828501613802565b91505092915050565b7f4172726179732073686f756c642068617665207468652073616d652073697a6560008201527f2e00000000000000000000000000000000000000000000000000000000000000602082015250565b60006138a0602183613492565b91506138ab82613844565b604082019050919050565b600060208201905081810360008301526138cf81613893565b9050919050565b600881106138e357600080fd5b50565b6000813590506138f5816138d6565b92915050565b60006020828403121561391157613910612b8d565b5b600061391f848285016138e6565b91505092915050565b7f4e487b7100000000000000000000000000000000000000000000000000000000600052602160045260246000fd5b600061396282612acf565b91507fffffffffffffffffffffffffffffffffffffffffffffffffffffffffffffffff8203613994576139936132a7565b5b600182019050919050565b600881106139b0576139af613928565b5b50565b60008190506139c18261399f565b919050565b60006139d1826139b3565b9050919050565b6139e1816139c6565b82525050565b60006060820190506139fc6000830186612f20565b613a096020830185612cc9565b613a1660408301846139d8565b949350505050565b6000819050919050565b6000613a43613a3e613a3984613a1e565b612fc8565b612acf565b9050919050565b613a5381613a28565b82525050565b6000604082019050613a6e6000830185612cc9565b613a7b6020830184613a4a565b9392505050565b7f4d696e74696e67206d6f7265207468616e20616c6c6f7765642e000000000000600082015250565b6000613ab8601a83613492565b9150613ac382613a82565b602082019050919050565b60006020820190508181036000830152613ae781613aab565b9050919050565b6000819050919050565b6000613b13613b0e613b0984613aee565b612fc8565b612acf565b9050919050565b613b2381613af8565b82525050565b6000604082019050613b3e6000830185612cc9565b613b4b6020830184613b1a565b9392505050565b7f4f776e61626c653a206e6577206f776e657220697320746865207a65726f206160008201527f6464726573730000000000000000000000000000000000000000000000000000602082015250565b6000613bae602683613492565b9150613bb982613b52565b604082019050919050565b60006020820190508181036000830152613bdd81613ba1565b9050919050565b7f4f776e61626c653a2063616c6c6572206973206e6f7420746865206f776e6572600082015250565b6000613c1a602083613492565b9150613c2582613be4565b602082019050919050565b60006020820190508181036000830152613c4981613c0d565b9050919050565b7f5265656e7472616e637947756172643a207265656e7472616e742063616c6c00600082015250565b6000613c86601f83613492565b9150613c9182613c50565b602082019050919050565b60006020820190508181036000830152613cb581613c79565b9050919050565b600081519050613ccb81612b97565b92915050565b600060208284031215613ce757613ce6612b8d565b5b6000613cf584828501613cbc565b91505092915050565b7f547279696e6720746f206d696e7420746f6f206d616e792072696e67732e0000600082015250565b6000613d34601e83613492565b9150613d3f82613cfe565b602082019050919050565b60006020820190508181036000830152613d6381613d27565b9050919050565b7f4c6f63616c20696e646578206f766572666c6f772e0000000000000000000000600082015250565b6000613da0601583613492565b9150613dab82613d6a565b602082019050919050565b60006020820190508181036000830152613dcf81613d93565b9050919050565b7f52696e6720696e646578206f766572666c6f772e000000000000000000000000600082015250565b6000613e0c601483613492565b9150613e1782613dd6565b602082019050919050565b60006020820190508181036000830152613e3b81613dff565b9050919050565b6000613e4d82612acf565b9150613e5883612acf565b9250828202613e6681612acf565b91508282048414831517613e7d57613e7c6132a7565b5b5092915050565b7f45746865722076616c75652073656e74206973206e6f7420616363757261746560008201527f2e00000000000000000000000000000000000000000000000000000000000000602082015250565b6000613ee0602183613492565b9150613eeb82613e84565b604082019050919050565b60006020820190508181036000830152613f0f81613ed3565b9050919050565b6000613f228286613615565b602082019150613f32828561359d565b601482019150613f428284613615565b602082019150819050949350505050565b7f4e487b7100000000000000000000000000000000000000000000000000000000600052601260045260246000fd5b6000613f8d82612acf565b9150613f9883612acf565b925082613fa857613fa7613f53565b5b82820690509291505056fea264697066735822122085f19b87bdf435de918e5b2fb94dad66c5d115e032f231454c3ad3ee143bd01164736f6c63430008120033",
  "linkReferences": {},
  "deployedLinkReferences": {}
}